:100000000C9445010C946D010C946D010C946D01E0
:100010000C946D010C946D010C946D010C946D01A8
:100020000C946D010C946D010C946D010C946D0198
:100030000C946D010C946D010C946D010C946D0188
:100040000C941E040C946D010C942A030C9404036C
:100050000C946D010C946D010C946D010C946D0168
:100060000C946F040C946D013D2050415F4D41583C
:10007000003D2050415F48494748003D2050415FC6
:100080004C4F57003D2050415F4D494E003D2031BF
:10009000362062697473003D2038206269747300F1
:1000A0003D2044697361626C6564006E524632346F
:1000B0004C30312B006E524632344C3031003D20F2
:1000C000323530204B425053003D2032204D4250BB
:1000D00053003D2031204D425053000000000800E5
:1000E0000201000003040700000000000000000AF5
:1000F0000B0C0D0E0F53544154555309093D20303C
:1001000078253032782052585F44523D257820546B
:10011000585F44533D2578204D41585F52543D254A
:10012000782052585F505F4E4F3D25782054585FDD
:1001300046554C4C3D25780D0A0041524309093D76
:100140002025640D0A00504120506F776572092503
:10015000530D0A0084007B00710068004352432065
:100160004C656E6774680925530D0A00A00097005E
:100170008D004D6F64656C09093D2025530D0A0003
:10018000B500AB0044617461205261746509255368
:100190000D0A00D200C900BE0044594E50442F46FB
:1001A00045415455524500434F4E46494709005278
:1001B000465F53455455500052465F434809004539
:1001C0004E5F52584144445200454E5F4141090040
:1001D00052585F50575F50302D360054585F41449D
:1001E0004452090052585F414444525F50322D3509
:1001F0000052585F414444525F50302D31005350FB
:10020000492053706565647A093D202564204D6856
:100210007A0A0052465F4E414E4F2076332E3020F0
:10022000546573740000000000250028002B0000B6
:10023000000000240027002A00040404040404042D
:100240000402020202020203030303030301020485
:100250000810204080010204081020010204081048
:10026000200001020304050D0A0025303278002029
:100270003078002553093D000D0A002030782530E4
:100280003278002553093D006D0A11241FBECFEFBF
:10029000D8E0DEBFCDBF11E0A0E0B1E0ECEFFEE1C1
:1002A00002C005900D92A034B107D9F722E0A0E476
:1002B000B1E001C01D92AD38B207E1F711E0C5E42D
:1002C000D1E004C02197FE010E94680FC434D10719
:1002D000C9F70E9457070C947C0F0C940000CF9232
:1002E000DF92EF92FF920F931F93CF93DF936C01F6
:1002F0007A018B01C0E0D0E0CE15DF0581F0D80196
:100300006D918D01D601ED91FC910190F081E02D70
:10031000C6010995892B11F02196EECF7E01C70108
:10032000DF91CF911F910F91FF90EF90DF90CF90D1
:100330000895FC01538D448D252F30E0842F90E0EB
:10034000821B930B541710F0CF96089501970895D0
:10035000FC01918D828D981761F0828DDF01A80FCD
:10036000B11D5D968C91928D9F5F9F73928F90E0EF
:1003700008958FEF9FEF0895FC01918D828D98175E
:1003800031F0828DE80FF11D858D90E008958FEF9B
:100390009FEF0895FC01918D228D892F90E0805C64
:1003A0009F4F821B91098F73992708958BEB91E0E2
:1003B0000E94CA0121E0892B09F420E0822F0895D0
:1003C000FC01848DDF01A80FB11DA35ABF4F2C91F2
:1003D000848D90E001968F739927848FA689B789C1
:1003E0002C93A089B1898C91837080648C93938DB8
:1003F000848D981306C00288F389E02D80818F7D5B
:1004000080830895EF92FF920F931F93CF93DF9312
:10041000EC0181E0888F9B8D8C8D981305C0E88955
:10042000F989808185FD26C0F62E0B8D10E00F5FC7
:100430001F4F0F731127E02E8C8DE8120CC00FB6E2
:1004400007FCFACFE889F989808185FFF5CFCE01D5
:100450000E94E001F1CF8B8DFE01E80FF11DE35A00
:10046000FF4FF0829FB7F8940B8FEA89FB89808158
:1004700080620AC09FB7F894EE89FF896083E8899B
:10048000F98980818370806480839FBF81E090E0E0
:10049000DF91CF911F910F91FF90EF900895CF932F
:1004A000DF93EC01888D8823C9F0EA89FB8980817C
:1004B00085FD05C0A889B9898C9186FD0FC00FB64E
:1004C00007FCF5CF808185FFF2CFA889B9898C918F
:1004D00085FFEDCFCE010E94E001E7CFDF91CF9104
:1004E000089580E090E0892B29F00E94D6018111C7
:1004F0000C94000008953FB7F8948091B601909154
:10050000B701A091B801B091B90126B5A89B05C06B
:100510002F3F19F00196A11DB11D3FBFBA2FA92F82
:10052000982F8827820F911DA11DB11DBC01CD01FF
:1005300042E0660F771F881F991F4A95D1F70895EB
:1005400040916701262F30E0240F311D2132310503
:10055000DCF420918B012430C9F4FC0180E090E0B0
:10056000861758F4309167012191DC01A95BBE4FD9
:10057000A30FB11D2C930196F3CF80916701680FF3
:100580006093670180E0089581E0089582E0089516
:1005900008958FEF9FEF08958FEF9FEF089580915B
:1005A000400190E09195819591090895CF93DF9353
:1005B000CB01EA01642F0E94A002CE01DF91CF910E
:1005C0000895CF93DF931F92CDB7DEB7698361E0C3
:1005D000CE0101960E94A00281E090E00F90DF9191
:1005E000CF910895089580E090E00895CF93C82FAB
:1005F000682F8BEB91E00E9402028C2FCC0F990B9D
:10060000CF9108950E946E0F1F920F920FB60F9216
:1006100011242F933F934F935F936F937F938F9307
:100620009F93AF93BF93EF93FF938BEB91E00E9467
:10063000E001FF91EF91BF91AF919F918F917F91D9
:100640006F915F914F913F912F910F900FBE0F903F
:100650001F9018951F920F920FB60F9211242F938F
:100660008F939F93EF93FF93E091CB01F091CC0197
:100670008081E091D101F091D20182FD12C0908180
:100680008091D4018F5F8F732091D501821751F033
:10069000E091D401F0E0E554FE4F958F8093D401B2
:1006A00001C08081FF91EF919F918F912F910F90C9
:1006B0000FBE0F901F90189590E0FC01E552FF4F80
:1006C0002491FC01E35BFD4F3491FC01E75CFD4F9D
:1006D000E491EE2309F43CC0222339F1233091F058
:1006E00038F42130A9F0223001F584B58F7D12C095
:1006F000273091F02830A1F02430B9F480918000A7
:100700008F7D03C0809180008F77809380000DC023
:1007100084B58F7784BD09C08091B0008F7703C006
:100720008091B0008F7D8093B000F0E0EE0FFF1F4E
:10073000EB5DFD4FA591B4919FB7F894611104C092
:100740008C913095382302C0EC913E2B3C939FBF97
:1007500008951F93CF93DF9385ED8093BC00809124
:10076000430190914401A0914501B0914601079643
:10077000A11DB11D23E0B695A795979587952A955C
:10078000D1F72091BC0024FF53C040914301509108
:1007900044016091450170914601452B462B472B42
:1007A00081F30097A105B10541F02AE22A95F1F7FE
:1007B00000C00197A109B109E4CF80914201C1E0D5
:1007C000C09341018823B1F1D091B8001091BA00D3
:1007D0008091BC008A7B8093BC0060E082E10E9433
:1007E0005C0360E083E10E945C0310928B01C09384
:1007F0008D0110928C0161E082E10E945C0361E056
:1008000083E10E945C038091B9008E7F8093B900E0
:100810008091B9008D7F8093B90088E48093B800FF
:1008200085E48093BC001093BA00D093B80002C056
:1008300010928B01DF91CF911F9108951F920F921B
:100840000FB60F9211242F933F938F939F93AF93E3
:10085000BF938091B2019091B301A091B401B09186
:10086000B5013091B10123E0230F2D3720F401961B
:10087000A11DB11D05C026E8230F0296A11DB11DC3
:100880002093B1018093B2019093B301A093B4017E
:10089000B093B5018091B6019091B701A091B801D4
:1008A000B091B9010196A11DB11D8093B60190933D
:1008B000B701A093B801B093B901BF91AF919F91D7
:1008C0008F913F912F910F900FBE0F901F90189511
:1008D0008EBD00000DB407FEFDCF8EB508951F92AA
:1008E0000F920FB60F9211242F933F934F935F9364
:1008F0006F937F938F939F93AF93BF93EF93FF93E8
:100900008091B900887F803609F49CC068F58832F0
:1009100009F45BC090F4803109F454C038F48823A2
:1009200009F4F2C0883009F44DC0F2C0883109F4EE
:100930004CC0803209F45DC0EBC0803409F468C05B
:1009400048F4803309F455C0883309F0E1C080933E
:100950008A01D4C0803509F44FC0883509F45DC0E0
:10096000883409F0D5C0D2C0883909F4C3C0A8F4CE
:10097000883709F467C038F4883609F463C08037D3
:1009800009F460C0C5C0883809F4B4C0803909F4DE
:100990005FC0803809F0BCC05BC0803B09F484C0F4
:1009A00038F4803A09F466C0883A09F47DC0B0C0D2
:1009B000803C09F4A3C0883C09F4A0C0883B09F43A
:1009C00086C0A6C08091B00110C09091AF01809107
:1009D000AE01981770F5E091AF0181E08E0F809322
:1009E000AF01F0E0E257FE4F80818093BB0085ECC1
:1009F00082C080938A018AC0E091AF0181E08E0FAE
:100A00008093AF018091BB00F0E0E257FE4F8083FE
:100A10009091AF018091AE016AC0E091AF0181E099
:100A20008E0F8093AF018091BB00F0E0E257FE4F44
:100A3000808380918D01811169C081E080938C0158
:100A400084EA5DC083E080938B0110928901CFCF4F
:100A500080918901803208F04DC0E091890181E0E8
:100A60008E0F809389018091BB00F0E0E759FE4F23
:100A70008083BDCF85EC8093BC0010928B01809168
:100A80008901803230F4E0918901F0E0E759FE4FAE
:100A900010826091890170E089E691E0E0E0F0E089
:100AA00009951092890134C084E080938B011092E3
:100AB000680110926701E0E0F0E00995809167011C
:100AC000811105C081E08093670110924701E09198
:100AD000680181E08E0F80936801F0E0E95BFE4FD2
:100AE00080818093BB009091680180916701981785
:100AF00008F47DCF85E88093BC000AC085EC809324
:100B0000BC0010928B0104C010928A010E94A903BC
:100B1000FF91EF91BF91AF919F918F917F916F91D5
:100B20005F914F913F912F910F900FBE0F901F90AB
:100B30001895682F80915B020E945C03809172027D
:100B4000909173028230910538F0880F991F880FB9
:100B5000991F05970197F1F7089581E00C94990585
:100B60000F931F9300915C0210915D0220915E0231
:100B700030915F0240E052E16AE770E090E00417D4
:100B800015072607370740F47695679557954795DB
:100B90009F5F9630A1F797E081E08927982F906AB0
:100BA000969581709CBD8DBD80E01F910F910C9436
:100BB0009905CF93C82F0E94B0058C2F0E9468041E
:100BC000809360028FEF0E946804C82F0E94AD05D9
:100BD0008C2FCF910895FF920F931F93CF93DF93A4
:100BE000C62FD42F9F938F9383E892E09F938F9388
:100BF0000E94140BDC0F0F900F900F900F900BE7DB
:100C000012E0CD1791F0FF24F394FC0E8C2F0E947C
:100C1000D9051F928F931F930F930E94140B0F906F
:100C20000F900F900F90CF2DECCF88E792E09F931D
:100C30008F930E94140B0F900F90DF91CF911F9113
:100C40000F91FF9008958F929F92AF92BF92CF9293
:100C5000DF92EF92FF920F931F93CF93DF93D62FE4
:100C6000B42E9F938F9383E792E09F938F930E947C
:100C7000140BBD0E0F900F900F900F908FE6E82E83
:100C800082E0F82E9AE6C92E92E0D92EDB1509F4FF
:100C900047C0C0916B028C2F90E0009711F481E067
:100CA00090E00E94370D8C01AA24A394AD0E0E94FF
:100CB000B0058D2F8F710E946804809360024801F7
:100CC000CC2341F08FEF0E946804F40181934F011F
:100CD000C150F6CF0E94AD05FF92EF920E94140B17
:100CE00080916B02E801C80FD11D0F900F902197E2
:100CF000C017D10760F088811F928F93DF92CF9247
:100D00000E94140B0F900F900F900F90F0CF0115D1
:100D1000110511F4DA2DBACFC8010E94CF0DFACF18
:100D200087E692E09F938F930E94140B0F900F9091
:100D3000DF91CF911F910F91FF90EF90DF90CF90B7
:100D4000BF90AF909F908F900895CF93C82F0E942F
:100D5000B0058C2F80620E94680480936002CF915E
:100D60000C94AD0542E050E06CE371E08BEB91E058
:100D70000C946F01CF93DF93D82FC62F0E94B0053C
:100D80008D2F80620E946804809360028C2F0E94E5
:100D90006804DF91CF910C94AD05CF9386E00E945B
:100DA000D905C82FC77D85E590E0A0E0B0E080932D
:100DB0006E0290936F02A0937002B09371026C2F39
:100DC00086E00E94BA0686E00E94D90591E0C81329
:100DD00090E0892FCF910895CF93C82F82E00E9491
:100DE000D905EC2FF0E0EF59FD4FE49161E070E0A0
:100DF00001C0660FEA95EAF7682B82E0CF910C9468
:100E0000BA06FF920F931F93CF93DF93182FF62EFE
:100E1000D72FC42F0E94B005812F80620E946804E2
:100E2000809360020F2D1D2FCC2339F0F8018191A2
:100E30008F010E946804C150F7CFDF91CF911F91BD
:100E40000F91FF900C94AD0563E083E00E94BA0619
:100E500085E080936B0208950E94B00580E50E94B2
:100E600068048093600283E70E9468040C94AD05D7
:100E700090E0FC01E35BFD4F2491FC01E75CFD4F3A
:100E80008491882399F090E0880F991FFC01E15D1F
:100E9000FD4FA591B491FC01EB5DFD4F85919491BF
:100EA0008FB7F894EC91E22BEC938FBF0895CF931A
:100EB000DF93CDB7DEB7E0970FB6F894DEBF0FBE75
:100EC000CDBF789484B5826084BD84B5816084BDD3
:100ED00085B5826085BD85B5816085BD80916E00D8
:100EE000816080936E001092810080918100826009
:100EF0008093810080918100816080938100809146
:100F000080008160809380008091B1008460809334
:100F1000B1008091B00081608093B00080917A0030
:100F2000846080937A0080917A00826080937A0056
:100F300080917A00816080937A0080917A00806845
:100F400080937A001092C100E091CB01F091CC0126
:100F500082E08083E091C701F091C8011082E091A6
:100F6000C901F091CA0180E180831092D301E09120
:100F7000CF01F091D00186E08083E091CD01F09126
:100F8000CE01808180618083E091CD01F091CE011E
:100F9000808188608083E091CD01F091CE018081D5
:100FA00080688083E091CD01F091CE0180818F7DBA
:100FB000808360E070E086EF92E00E94C90A0E94A0
:100FC000B20603E112E0F8016491611109C00E94C8
:100FD000B2061FB7F8948091BA01882351F02DC052
:100FE0008BEB91E00E9402020F5F1F4F892B59F794
:100FF000EECFE3E4F2E08491E7E5F2E09491E82FAC
:10100000F0E0EE0FFF1FE15DFD4FA591B491EC9173
:10101000E92321F461E08AE00E945C038AE00E94F7
:1010200038078CB580618CBD8CB580648CBD8DE03B
:101030000E9438078BE00E9438078091BA018F5FC9
:101040008093BA011FBF80915A028F3F09F497C065
:1010500090915B029F3F09F492C0891731F00E9482
:10106000380780915B020E94380780915A02909164
:101070005B02891719F060E00E945C0381E00E9426
:1010800099050E947B026B017C0155E0852E912C15
:10109000A12CB12C0E947B02DC01CB018C199D0993
:1010A000AE09BF09883E9340A105B10598F3F1E070
:1010B0008F1A9108A108B10828EEC20E23E0D21EB3
:1010C000E11CF11C81149104A104B10419F76FE52E
:1010D00084E00E94BA060E94CD068DE10E94D905E7
:1010E000182F0E942C078DE10E94D90591E018135A
:1010F00090E0909368028111E7C110926A0260E06B
:101100008CE10E94BA0610926C026FE381E00E94AB
:10111000BA0663E082E00E94BA0680E28093610230
:1011200011E160916102812F0E94BA061F5F1731A1
:10113000C1F70E9424076CE485E00E94BA0660E7CC
:1011400087E00E94BA0682EE0E94A50681EE0E9408
:10115000A5066CE080E00E94BA0680E00E94D905F6
:101160008093670281FD0BC0682F62606093670205
:1011700080E00E94BA068BE19EE40197F1F70E949D
:10118000240782E189838A838B838C838D831E82EB
:101190001F82188640916B0250E0BE016F5F7F4F47
:1011A00082E692E00E94730F81E080936902EFEE85
:1011B000F0E0849140916B02BE016F5F7F4F0E940F
:1011C000010780E00E94EC0681E3898714E31A8717
:1011D0001B871C871D871E861F86188AE0EFF0E09C
:1011E000849140916B02BE01675F7F4F0E940107AF
:1011F00081E00E94EC0682E3898B1A8B1B8B1C8B8F
:101200001D8B1E8A1F8A188EE1EFF0E0849141E069
:10121000BE016F5E7F4F0E94010782E00E94EC06D4
:1012200083E3898F1A8F1B8F1C8F1D8F1E8E1F8E3D
:1012300018A2E2EFF0E0849141E0BE01675E7F4FCB
:101240000E94010783E00E94EC0619A31AA31BA3C6
:101250001CA31DA31EA21FA218A6E3EFF0E0849119
:1012600041E0BE016F5D7F4F0E94010784E00E9454
:10127000EC0685E389A71AA71BA71CA71DA71EA616
:101280001FA618AAE4EFF0E0849141E0BE01675D7B
:101290007F4F0E94010785E00E94EC0663E785E02E
:1012A0000E94BA0686E00E94D905682F676086E032
:1012B0000E94BA060E94CD0641E150E06AE271E068
:1012C0008BEB91E00E946F010E94B20660915C027C
:1012D00070915D0280915E0290915F0220E432E4A1
:1012E0004FE050E00E94460F1F922F938EEF91E047
:1012F0009F938F930E94140B8FEF0E94A5068091FD
:101300006002282F30E0982F91701F929F9335959F
:101310002795277033273F932F9384FB992790F9C4
:101320001F929F9385FB992790F91F929F9386FBAD
:10133000992790F91F929F931F928F9385EF90E0CA
:101340009F938F930E94140B42E06AE081EF91E03B
:101350000E94230644E06CE084EE91E00E94EB05DD
:1013600041E060E18BED91E00E94230646E061E1FF
:1013700080ED91E00E94EB0541E061E089EC91E0B5
:101380000E94EB0541E062E08FEB91E00E94EB05EB
:1013900041E065E088EB91E00E94EB0541E066E00A
:1013A0008FEA91E00E94EB0541E060E087EA91E07E
:1013B0000E94EB0542E06CE189E991E00E94EB05B7
:1013C00086E00E94D90588720FB6F894DEBF0FBE82
:1013D000CDBF803241F021E090E0883009F020E07C
:1013E000E22FF92F02C0E2E0F0E0EE0FFF1FED5612
:1013F000FE4F859194919F938F9384E891E09F9302
:101400008F930E94140BE0916802F0E0EE0FFF1F33
:10141000E058FE4F859194919F938F9382E791E0DE
:101420009F938F930E94140B81E00E94D905182F7F
:1014300080E00E94D905809367020FB6F894DEBF62
:101440000FBECDBF83FD02C0112329F082FD06C06F
:10145000E1E0F0E005C0E0E0F0E002C0E2E0F0E052
:10146000EE0FFF1FE459FE4F859194919F938F9348
:101470008CE591E09F938F930E94140B86E00E946D
:10148000D9058670E82FF0E0EC5AFE4F85919491D3
:101490009F938F9386E491E09F938F930E94140B08
:1014A00088E00E94D9058F701F928F938AE391E0A4
:1014B0009F938F930E94140B0FB6F894DEBF0FBE5C
:1014C000CDBF0E947102FDCF181302C00E942C07ED
:1014D00060E08DE10E94BA0610CEEBEBF1E01382E2
:1014E000128288EE93E0A0E0B0E084839583A68327
:1014F000B7832AE031E03183208325EC30E0358763
:10150000248724EC30E03787268720EC30E0318BCD
:10151000208B21EC30E0338B228B22EC30E0358BBA
:10152000248B26EC30E0378B268B118E128E138E97
:10153000148EE6E7F2E01382128284839583A683F9
:10154000B7838CE191E091838083E8E5F2E087E066
:10155000828388E0838380E896E9A8E9B0E0848309
:101560009583A683B78380E28187108A118A85E0FC
:10157000838B81E0848B85E090E0A0E0B0E0828FF7
:10158000938FA48FB58F82E892E091838083128637
:1015900008950F931F93CF93DF93009731F4611554
:1015A000710519F480E090E03AC08B01EC016EE027
:1015B00070E081E090E00E941B0DFC01892B91F30B
:1015C00080E883830115110571F01387028781E894
:1015D00083838091830290918402892B21F4F0937C
:1015E0008402E09383022097C9F0D187C08783816A
:1015F000826083838091850290918602892B71F4A9
:10160000F0938602E0938502809187029091880290
:10161000892B21F4F0938802E0938702CF01DF91B8
:10162000CF911F910F910895A0E0B0E0EAE1FBE0B7
:101630000C941D0FAE01495F5F4FDA016D917D91F2
:10164000AD0103E812E0F80182819381DC01139679
:101650002C911397286013962C930E943A0BD80173
:101660001296ED91FC9113972381277F2383E4E069
:101670000C94390FABE0B0E0E0E4FBE00C940F0F0A
:101680006C017B018A01FC0117821682838181FF34
:10169000CCC1CE0101963C01F6019381F70193FD87
:1016A000859193FF81917F01882309F4BAC1853226
:1016B00039F493FD859193FF81917F01853229F45F
:1016C000B60190E00E94750EE7CF912C212C312CB1
:1016D000FFE1F315D8F08B3279F038F4803279F0ED
:1016E0008332A1F4232D20611DC08D3261F080333F
:1016F00069F4232D216016C0832D8260382EE32DDE
:10170000E4603E2E2AC0F32DF8601DC037FC2DC0CA
:1017100020ED280F2A3040F08E32B9F436FC81C11A
:10172000232D2064322E19C036FE06C08AE0989E12
:10173000200D1124922E11C0EAE02E9E200D1124BE
:10174000222EF32DF0623F2E08C08C3621F4832D1B
:101750008068382E02C0883641F4F70193FD8591E8
:1017600093FF81917F018111B3CF982F9F7D955475
:10177000933028F40C5F1F4F9FE399830DC083368D
:1017800031F0833771F0833509F059C021C0F80179
:10179000808189830E5F1F4F88248394912C53018D
:1017A00013C02801F2E04F0E511CF801A080B18057
:1017B00036FE03C0692D70E002C06FEF7FEFC501F8
:1017C0000E946A0E4C018201F32DFF773F2E16C056
:1017D000280122E0420E511CF801A080B18036FEA3
:1017E00003C0692D70E002C06FEF7FEFC5010E945A
:1017F000580E4C01F32DF0683F2E820133FC1BC0C4
:10180000822D90E088169906B0F4B60180E290E04F
:101810000E94750E2A94F4CFF50137FC859137FEAE
:1018200081915F01B60190E00E94750E21102A940B
:1018300021E0821A91088114910471F7E8C084367E
:1018400011F0893641F5F80137FE07C060817181DA
:10185000828193810C5F1F4F08C060817181072EC8
:10186000000C880B990B0E5F1F4FF32DFF763F2E58
:1018700097FF09C090958095709561957F4F8F4F28
:101880009F4FF0683F2E2AE030E0A3010E94B10E86
:10189000882E861845C0853731F4232D2F7EB22E31
:1018A0002AE030E025C0932D997FB92E8F36C1F004
:1018B00018F4883579F0B5C0803719F0883721F0F1
:1018C000B0C0E92FE061BE2EB4FE0DC0FB2DF46068
:1018D000BF2E09C034FE0AC0292F2660B22E06C0D2
:1018E00028E030E005C020E130E002C020E132E035
:1018F000F801B7FE07C060817181828193810C5F1E
:101900001F4F06C06081718180E090E00E5F1F4F25
:10191000A3010E94B10E882E8618FB2DFF773F2E63
:1019200036FE0DC0232D2E7FA22E891458F434FECE
:101930000BC032FC09C0832D8E7EA82E05C0B82CAA
:10194000A32C03C0B82C01C0B92CA4FE0FC0FE010B
:10195000E80DF11D8081803321F49A2D997EA92E06
:1019600009C0A2FE06C0B394B39404C08A2D867841
:1019700009F0B394A3FC11C0A0FE06C0B21488F411
:10198000280C922C9B180EC0B21460F4B60180E2B1
:1019900090E00E94750EB394F7CFB21418F42B1890
:1019A00002C0982C212CA4FE10C0B60180E390E068
:1019B0000E94750EA2FE17C0A1FC03C088E790E04C
:1019C00002C088E590E0B6010CC08A2D867859F0F7
:1019D000A1FE02C08BE201C080E2A7FC8DE2B6014D
:1019E00090E00E94750E891438F4B60180E390E00F
:1019F0000E94750E9A94F7CF8A94F301E80DF11DB9
:101A00008081B60190E00E94750E8110F5CF2220F2
:101A100009F442CEB60180E290E00E94750E2A944D
:101A2000F6CFF6018681978102C08FEF9FEF2B964C
:101A3000E2E10C942B0F0F931F93CF93DF93869FBC
:101A40008001879F100D969F100D1124C8010E94E0
:101A5000370DEC01009729F0A80160E070E00E94CA
:101A6000630ECE01DF91CF911F910F9108950F93D7
:101A70001F93CF93DF938230910510F482E090E0C2
:101A8000E0918B02F0918C0220E030E0A0E0B0E029
:101A9000309719F14081518102811381481759070C
:101AA000C8F08417950769F4109731F012960C93DB
:101AB000129713961C9327C000938B0210938C02ED
:101AC00022C02115310519F04217530718F49A0165
:101AD000BD01EF01DF01F801DBCF21153105F9F080
:101AE000281B390B2430310580F48A819B816115D4
:101AF000710521F0FB019383828304C090938C02D3
:101B000080938B02FE01329644C0FE01E20FF31F68
:101B10008193919322503109398328833AC02091CF
:101B2000890230918A02232B41F4209102013091E5
:101B3000030130938A0220938902209100013091A1
:101B400001012115310541F42DB73EB74091040143
:101B500050910501241B350BE0918902F0918A0216
:101B6000E217F307A0F42E1B3F0B2817390778F074
:101B7000AC014E5F5F4F2417350748F04E0F5F1FD3
:101B800050938A02409389028193919302C0E0E0CE
:101B9000F0E0CF01DF91CF911F910F910895CF9386
:101BA000DF93009709F481C0FC01329713821282FF
:101BB000A0918B02B0918C02109781F42081318129
:101BC000820F931F2091890230918A0228173907CA
:101BD00051F5F0938A02E093890267C0ED0120E09D
:101BE00030E0CE17DF0740F44A815B819E0141154A
:101BF0005105F1F0EA01F5CFD383C28340815181D1
:101C0000840F951FC817D90759F488819981840FCB
:101C1000951F0296918380838A819B81938382831F
:101C20002115310529F4F0938C02E0938B023DC01D
:101C3000E901FB83EA8349915991C40FD51FEC1741
:101C4000FD0761F480819181840F951F0296E9015F
:101C500099838883828193819B838A83E0E0F0E08B
:101C600012968D919C911397009719F0FD01DC015C
:101C7000F7CF8D919C9111979D012E5F3F4F820F61
:101C8000931F2091890230918A022817390769F43D
:101C9000309729F410928C0210928B0202C01382AA
:101CA0001282B0938A02A0938902DF91CF910895A6
:101CB000FC010590615070400110D8F78095909517
:101CC0008E0F9F1F0895DC0101C06D93415050405D
:101CD000E0F70895FC016150704001900110D8F7C1
:101CE000809590958E0F9F1F08950F931F93CF930C
:101CF000DF93FB01238121FD03C08FEF9FEF2CC0F9
:101D000022FF16C04681578124813581421753072F
:101D100044F4A081B1819D012F5F3F4F3183208327
:101D20008C93268137812F5F3F4F3783268314C0E2
:101D30008B01EC01FB010084F185E02D0995892BD5
:101D4000E1F6D80116968D919C91179701961796FA
:101D50009C938E931697CE01DF91CF911F910F9197
:101D60000895FA01AA27283051F1203181F1E89431
:101D70006F936E7F6E5F7F4F8F4F9F4FAF4FB1E07E
:101D80003ED0B4E03CD0670F781F891F9A1FA11D79
:101D9000680F791F8A1F911DA11D6A0F711D811D7A
:101DA000911DA11D20D009F468943F912AE0269F3F
:101DB00011243019305D3193DEF6CF010895462F9E
:101DC0004770405D4193B3E00FD0C9F7F6CF462F7F
:101DD0004F70405D4A3318F0495D31FD40524193E8
:101DE00002D0A9F7EACFB4E0A695979587957795A5
:101DF0006795BA95C9F700976105710508959B012C
:101E0000AC010A2E06945795479537952795BA95B4
:101E1000C9F7620F731F841F951FA01D08952F928D
:101E20003F924F925F926F927F928F929F92AF926A
:101E3000BF92CF92DF92EF92FF920F931F93CF93B7
:101E4000DF93CDB7DEB7CA1BDB0B0FB6F894DEBF4E
:101E50000FBECDBF09942A88398848885F846E8474
:101E60007D848C849B84AA84B984C884DF80EE80BE
:101E7000FD800C811B81AA81B981CE0FD11D0FB6C7
:101E8000F894DEBF0FBECDBFED010895A1E21A2E7A
:101E9000AA1BBB1BFD010DC0AA1FBB1FEE1FFF1F0E
:101EA000A217B307E407F50720F0A21BB30BE40B5E
:101EB000F50B661F771F881F991F1A9469F76095A5
:101EC0007095809590959B01AC01BD01CF0108955F
:101ED000EE0FFF1F0590F491E02D099481E090E052
:101EE000F8940C947C0FFB01DC0102C001900D9270
:0C1EF00041505040D8F70895F894FFCFFF
:101EFC0000008D0220000000000002026F01990119
:101F0C004F02CA01A801BC0100000000E102D60288
:101F1C00F302C802CF02CC02C9025365747570205B
:101F2C00496E697469616C697A6564000D0A000018
:00000001FF
