:100000000C9439010C9461010C9461010C94610110
:100010000C9461010C9461010C9461010C946101D8
:100020000C9461010C9461010C9461010C946101C8
:100030000C9461010C9461010C9461010C946101B8
:100040000C9477050C9461010C9445050C941F05E4
:100050000C9461010C9461010C9461010C94610198
:100060000C9461010C9461013D2050415F4D415859
:10007000003D2050415F48494748003D2050415FC6
:100080004C4F57003D2050415F4D494E003D2031BF
:10009000362062697473003D2038206269747300F1
:1000A0003D2044697361626C6564006E524632346F
:1000B0004C30312B006E524632344C3031003D20F2
:1000C000323530204B425053003D2032204D4250BB
:1000D00053003D2031204D425053000000000800E5
:1000E00002010000030407000000000000000053AC
:1000F000544154555309093D203078253032782039
:1001000052585F44523D25782054585F44533D2552
:1001100078204D41585F52543D25782052585F5009
:100120005F4E4F3D25782054585F46554C4C3D2539
:10013000780D0A0041524309093D2025640D0A004B
:10014000504120506F7765720925530D0A008400D5
:100150007B0071006800435243204C656E677468F1
:100160000925530D0A00A00097008D004D6F6465AE
:100170006C09093D2025530D0A00B500AB00446110
:10018000746120526174650925530D0A00D200C9BB
:1001900000BE0044594E50442F46454154555245E7
:1001A00000434F4E464947090052465F5345545558
:1001B000500052465F43480900454E5F5258414443
:1001C000445200454E5F4141090052585F50575F0D
:1001D00050302D360054585F414444520900525863
:1001E0005F414444525F50322D350052585F4144C4
:1001F00044525F50302D3100535049205370656593
:10020000647A093D202564204D687A0A00000000C8
:1002100000250028002B0000000000240027002AF1
:10022000000404040404040404020202020202039F
:1002300003030303030102040810204080010204A9
:100240000810200102040810200D0A002530327821
:1002500000203078002553093D000D0A0020307839
:1002600025303278002553093D00000102030405C2
:10027000C10511241FBECFEFD8E0DEBFCDBF11E016
:10028000A0E0B1E0E6EBFBE102C005900D92AE31DB
:10029000B107D9F722E0AEE1B1E001C01D92AE3660
:1002A000B207E1F711E0C9E3D1E004C02197FE01F4
:1002B0000E94B80DC833D107C9F70E9411060C94EB
:1002C000D90D0C94000090E0FC01EB5CFD4F2491F3
:1002D000FC01EF5DFD4F8491882399F090E0880F39
:1002E000991FFC01E95EFD4FA591B491FC01E35F0C
:1002F000FD4F859194918FB7F894EC91E22BEC939C
:100300008FBF0895CF92DF92EF92FF920F931F93CA
:10031000CF93DF936C017A018B01C0E0D0E0CE1562
:10032000DF0581F0D8016D918D01D601ED91FC9131
:100330000190F081E02DC6010995892B11F02196DD
:10034000EECF7E01C701DF91CF911F910F91FF90FA
:10035000EF90DF90CF900895089580E090E00895A9
:10036000FC01538D448D252F30E0842F90E0821BBB
:10037000930B541710F0CF96089501970895FC0140
:10038000918D828D981761F0828DDF01A80FB11DCC
:100390005D968C91928D9F5F9F73928F90E00895F0
:1003A0008FEF9FEF0895FC01918D828D981731F0AA
:1003B000828DE80FF11D858D90E008958FEF9FEFFE
:1003C0000895FC01918D228D892F90E0805C9F4FD4
:1003D000821B91098F739927089588EA91E00E9402
:1003E000E10121E0892B09F420E0822F0895FC012E
:1003F000848DDF01A80FB11DA35ABF4F2C91848DAE
:1004000090E001968F739927848FA689B7892C93E2
:10041000A089B1898C91837080648C93938D848D35
:10042000981306C00288F389E02D80818F7D808338
:100430000895EF92FF920F931F93CF93DF93EC01F8
:1004400081E0888F9B8D8C8D981305C0E889F98990
:10045000808185FD26C0F62E0B8D10E00F5F1F4FAB
:100460000F731127E02E8C8DE8120CC00FB607FC1D
:10047000FACFE889F989808185FFF5CFCE010E9406
:10048000F701F1CF8B8DFE01E80FF11DE35AFF4F0D
:10049000F0829FB7F8940B8FEA89FB898081806294
:1004A0000AC09FB7F894EE89FF896083E889F989CB
:1004B00080818370806480839FBF81E090E0DF91C2
:1004C000CF911F910F91FF90EF900895CF93DF93FD
:1004D000EC01888D8823C9F0EA89FB89808185FD3C
:1004E00005C0A889B9898C9186FD0FC00FB607FC9D
:1004F000F5CF808185FFF2CFA889B9898C9185FFDE
:10050000EDCFCE010E94F701E7CFDF91CF910895A3
:1005100080E090E0892B29F00E94ED0181110C947C
:100520000000089590E0FC01E552FF4F2491FC018A
:10053000EB5CFD4F3491FC01EF5DFD4FE491EE2348
:1005400009F43CC0222339F1233091F038F42130F2
:10055000A9F0223001F584B58F7D12C0273091F0CB
:100560002830A1F02430B9F4809180008F7D03C041
:10057000809180008F77809380000DC084B58F7745
:1005800084BD09C08091B0008F7703C08091B00016
:100590008F7D8093B000F0E0EE0FFF1FE35FFD4F13
:1005A000A591B4919FB7F894611104C08C913095D6
:1005B000382302C0EC913E2B3C939FBF0895682FD7
:1005C000809149020E9492028091600290916102A2
:1005D0008230910538F0880F991F880F991F059771
:1005E0000197F1F7089581E00C94DF023FB7F8948A
:1005F0008091230190912401A0912501B0912601C1
:1006000026B5A89B05C02F3F19F00196A11DB11D6D
:100610003FBFBA2FA92F982F8827820F911DA11DA8
:10062000B11DBC01CD0142E0660F771F881F991FE5
:100630004A95D1F708958F929F92AF92BF92CF9231
:10064000DF92EF92FF926B017C010E94F6024B0158
:100650005C01C114D104E104F104F1F00E94F6023E
:10066000DC01CB0188199909AA09BB09883E93408E
:10067000A105B10570F321E0C21AD108E108F10823
:1006800088EE880E83E0981EA11CB11CC114D10411
:10069000E104F10419F7DDCFFF90EF90DF90CF90E8
:1006A000BF90AF909F908F9008958EBD00000DB4C5
:1006B00007FEFDCF8EB50895CF93C82F682F88EA27
:1006C00091E00E9419028C2FCC0F990BCF910895C5
:1006D0000F931F9300914A0210914B0220914C02FC
:1006E00030914D0240E052E16AE770E090E004177B
:1006F00015072607370740F4769567955795479570
:100700009F5F9630A1F797E081E08927982F906A44
:10071000969581709CBD8DBD80E01F910F910C94CA
:10072000DF02CF93C82F0E9468038C2F0E945503CD
:1007300080934E028FEF0E945503C82F0E94F30250
:100740008C2FCF910895CF93C82F0E9468038C2FD0
:1007500080620E94550380934E02CF910C94F30265
:100760000E94680380E50E94550380934E0283E750
:100770000E9455030C94F302CF93DF93D82FC62F1A
:100780000E9468038D2F80620E94550380934E0261
:100790008C2F0E945503DF91CF910C94F30280912E
:1007A000480290914902891719F060E00E94920274
:1007B00080915C0290915D028230910538F0880F43
:1007C000991F880F991F05970197F1F7809158029B
:1007D000882319F081EE0E94A303609155026E7F79
:1007E0006093550280E00E94BC0382E00E94910366
:1007F000EAE6F2E0E49161E070E001C0660FEA959C
:10080000EAF7682B82E00C94BC036091550261FD0D
:100810000AC062606093550280E00E94BC038BE1D5
:100820009EE40197F1F708950F931F93CF930E94D1
:1008300005046091550261606093550280E00E945A
:10084000BC0360E787E00E94BC038091480290915E
:100850004902891719F061E00E94920280915702C3
:100860008823C9F0C09159020E9468038AE20E945D
:10087000550380934E0200E512E0CC2339F0F801D5
:1008800081918F010E945503C150F7CFCF911F91E5
:100890000F910C94F30282E00E949103EAE6F2E0E9
:1008A000E49121E030E001C0220FEA95EAF72095BB
:1008B000622F682382E00E94BC0310925702CF91FE
:1008C0001F910F910895FF920F931F93CF93DF9382
:1008D000C62FD42F9F938F9385E692E09F938F939B
:1008E0000E946409DC0F0F900F900F900F900DE5A0
:1008F00012E0CD1791F0FF24F394FC0E8C2F0E9490
:1009000091031F928F931F930F930E9464090F907E
:100910000F900F900F90CF2DECCF8AE592E09F9330
:100920008F930E9464090F900F90DF91CF911F91D8
:100930000F91FF9008958F929F92AF92BF92CF92A6
:10094000DF92EF92FF920F931F93CF93DF93D62FF7
:10095000B42E9F938F9385E592E09F938F930E948F
:100960006409BD0E0F900F900F900F9081E5E82E57
:1009700082E0F82E9CE4C92E92E0D92EDB1509F412
:1009800047C0C09159028C2F90E0009711F481E08C
:1009900090E00E94870B8C01AA24A394AD0E0E94C4
:1009A00068038D2F8F710E94550380934E0248017A
:1009B000CC2341F08FEF0E945503F40181934F0146
:1009C000C150F6CF0E94F302FF92EF920E94640999
:1009D00080915902E801C80FD11D0F900F90219707
:1009E000C017D10760F088811F928F93DF92CF925A
:1009F0000E9464090F900F900F900F90F0CF011597
:100A0000110511F4DA2DBACFC8010E941F0CFACFDC
:100A100089E492E09F938F930E9464090F900F9056
:100A2000DF91CF911F910F91FF90EF90DF90CF90CA
:100A3000BF90AF909F908F9008950E94BE0D1F921F
:100A40000F920FB60F9211242F933F934F935F9302
:100A50006F937F938F939F93AF93BF93EF93FF9386
:100A600088EA91E00E94F701FF91EF91BF91AF9169
:100A70009F918F917F916F915F914F913F912F91B6
:100A80000F900FBE0F901F9018951F920F920FB6E8
:100A90000F9211242F938F939F93EF93FF93E091E5
:100AA000B801F091B9018081E091BE01F091BF01E0
:100AB00082FD12C090818091C1018F5F8F73209160
:100AC000C201821751F0E091C101F0E0E855FE4FFC
:100AD000958F8093C10101C08081FF91EF919F911B
:100AE0008F912F910F900FBE0F901F9018951F920E
:100AF0000F920FB60F9211242F933F938F939F93D2
:100B0000AF93BF9380911F0190912001A09121018B
:100B1000B091220130911E0123E0230F2D3720F4E4
:100B20000196A11DB11D05C026E8230F0296A11D47
:100B3000B11D20931E0180931F0190932001A0936B
:100B40002101B09322018091230190912401A09171
:100B50002501B09126010196A11DB11D80932301AD
:100B600090932401A0932501B0932601BF91AF91EA
:100B70009F918F913F912F910F900FBE0F901F90DB
:100B80001895E8EAF1E01382128288EE93E0A0E083
:100B9000B0E084839583A683B7838AE091E0918354
:100BA000808385EC90E09587848784EC90E097873C
:100BB000868780EC90E0918B808B81EC90E0938B2A
:100BC000828B82EC90E0958B848B86EC90E0978B07
:100BD000868B118E128E138E148EE6E4F2E089E07D
:100BE00082838AE0838380E896E9A8E9B0E0848381
:100BF0009583A683B78380E28187108A118A85E076
:100C0000838B81E0848B85E090E0A0E0B0E0828F70
:100C1000938FA48FB58F85E492E0918380831286B1
:100C20000895789484B5826084BD84B5816084BD64
:100C300085B5826085BD85B5816085BD80916E007A
:100C4000816080936E0010928100809181008260AB
:100C500080938100809181008160809381008091E8
:100C600080008160809380008091B10084608093D7
:100C7000B1008091B00081608093B00080917A00D3
:100C8000846080937A0080917A00826080937A00F9
:100C900080917A00816080937A0080917A008068E8
:100CA00080937A001092C100E091B801F091B901EF
:100CB00082E08083E091B801F091B9011082E09167
:100CC000B401F091B5011082E091B601F091B70145
:100CD00080E180831092C001E091BC01F091BD01E0
:100CE00086E08083E091BA01F091BB018081806150
:100CF0008083E091BA01F091BB018081886080839C
:100D0000E091BA01F091BB01808180688083E0911D
:100D1000BA01F091BB0180818F7D808360E070E03B
:100D20008CE593E00E941909CFB7F89480912701D0
:100D3000811124C0EBE2F2E08491EFE3F2E09491C0
:100D4000E82FF0E0EE0FFF1FE95EFD4FA591B49193
:100D5000EC91E92321F461E08AE00E9492028AE0AA
:100D60000E9463018CB580618CBD8CB580648CBDA4
:100D70008DE00E9463018BE00E9463018091270156
:100D80008F5F80932701CFBF809148028F3F09F486
:100D900085C0909149029F3F09F480C0891731F0C6
:100DA0000E946301809149020E9463018091480280
:100DB00090914902891719F060E00E94920281E047
:100DC0000E94DF0265E070E080E090E00E941B037B
:100DD0006FE584E00E94BC0386E00E94910345E534
:100DE00050E060E070E040935C0250935D026093DD
:100DF0005E0270935F02682F677D86E00E94BC03ED
:100E000086E00E9491038DE10E949103C82F0E9409
:100E1000B0038DE10E94910391E0C81390E090939C
:100E200056028111FDC11092580260E08CE10E94CF
:100E3000BC0310925A026FE381E00E94BC0363E09E
:100E400082E00E94BC0380E280934F02C1E1609186
:100E50004F028C2F0E94BC03CF5FC731C1F763E004
:100E600083E00E94BC0385E0809359026CE40E94F9
:100E7000BC0360E787E00E94BC0382EE0E94A303EC
:100E800081EE0E94A3036CE080E00E94BC0380E03E
:100E90000E949103809355020E94050460E081E066
:100EA0000E94BC0380915802882351F08DE10E947A
:100EB0009103682F6D7F8DE10E94BC031092580250
:100EC0000E94140460914A0270914B0280914C027E
:100ED00090914D0220E432E44FE050E00E94960DE4
:100EE0001F922F9388EF91E09F938F930E94640944
:100EF0008FEF0E94A30380914E02282F30E0982F9D
:100F000091701F929F9335952795277033273F93B4
:100F10002F9384FB992790F91F929F9385FB992724
:100F200090F91F929F9386FB992790F91F929F93A8
:100F30001F928F938FEE90E09F938F930E9464098E
:100F400042E06AE08BEE91E00E949B0444E06CE09A
:100F50008EED91E00E94630441E060E185ED91E057
:100F60000E949B0446E061E18AEC91E00E946304E8
:100F700041E061E083EC91E00E94630441E062E0C3
:100F800089EB91E00E94630441E065E082EB91E02F
:100F90000E94630441E066E089EA91E00E946304F4
:100FA00041E060E081EA91E00E94630442E06CE18C
:100FB00083E991E00E94630486E00E9491038872B5
:100FC0002DB73EB72E5E3F4F0FB6F8943EBF0FBE13
:100FD0002DBF803241F021E090E0883009F020E020
:100FE000E22FF92F02C0E2E0F0E0EE0FFF1FE3571F
:100FF000FE4F859194919F938F938EE791E09F93FD
:101000008F930E946409E0915602F0E0EE0FFF1FFB
:10101000E658FE4F859194919F938F938CE691E0D3
:101020009F938F930E94640981E00E949103C82FCF
:1010300080E00E94910380935502EDB7FEB7389689
:101040000FB6F894FEBF0FBEEDBF83FD02C0CC23E8
:1010500029F082FD06C0E1E0F0E005C0E0E0F0E04C
:1010600002C0E2E0F0E0EE0FFF1FEA59FE4F85916B
:1010700094919F938F9386E591E09F938F930E9425
:10108000640986E00E9491038670E82FF0E0E25B3D
:10109000FE4F859194919F938F9380E491E09F936D
:1010A0008F930E94640988E00E9491038F701F92C1
:1010B0008F9384E391E09F938F930E94640968E883
:1010C00073E180E090E00E941B030E94CF032DB7E4
:1010D0003EB7245F3F4F0FB6F8943EBF0FBE2DBF03
:1010E000C0E0D0E008E111E0CE0174E0959587956D
:1010F0007A95E1F79F938F931F930F930E94C30DEF
:1011000021960F900F900F900F90C038D10561F786
:101110008BE191E09F938F930E94C30D0F900F90EE
:10112000C0E0D0E008E111E0CE018F7099279F93D5
:101130008F931F930F930E94C30D21960F900F90D2
:101140000F900F90C038D10579F78BE191E09F9314
:101150008F930E94C30D0F900F9048E2E42E41E060
:10116000F42E50E8752E6BEFC62EDD24D39408E1E3
:1011700011E0CBE1D1E0F701272D11922A95E9F793
:1011800035E6832E912C31E0831A910841F197EADC
:10119000A92E91E0B92E2FE7622EECE7E61510F0AC
:1011A000662D01C06DE785E00E94BC030E94140417
:1011B000C6010197F1F70E94CF0389E00E949103D5
:1011C00080FD08C06A9481E0A81AB1089FEF6912F7
:1011D000E4CFD9CFF50180818F5F8083F3CF88E2A0
:1011E000A82E81E0B82EF50181915F018F7090E00B
:1011F0009F938F931F930F930E94C30D0F900F9097
:101200000F900F90F8EAAF16F1E0BF0661F7DF9399
:10121000CF930E94C30D0E9488020F900F90ABCF16
:10122000C81302C00E94B00360E08DE10E94BC03BD
:10123000FACD0F931F93CF93DF93009731F461158D
:10124000710519F480E090E03AC08B01EC016EE08A
:1012500070E081E090E00E946B0BFC01892B91F320
:1012600080E883830115110571F01387028781E8F7
:1012700083838091640290916502892B21F4F0931D
:101280006502E09364022097C9F0D187C08783810B
:10129000826083838091660290916702892B71F44A
:1012A000F0936702E0936602809168029091690270
:1012B000892B21F4F0936902E0936802CF01DF915A
:1012C000CF911F910F910895A0E0B0E0EAE6F9E018
:1012D0000C946D0DAE01495F5F4FDA016D917D9108
:1012E000AD0104E612E0F80182819381DC011396DE
:1012F0002C911397286013962C930E948A09D80189
:101300001296ED91FC9113972381277F2383E4E0CC
:101310000C94890DABE0B0E0E0E9F9E00C945F0DCE
:101320006C017B018A01FC0117821682838181FF97
:10133000CCC1CE0101963C01F6019381F70193FDEA
:10134000859193FF81917F01882309F4BAC1853289
:1013500039F493FD859193FF81917F01853229F4C2
:10136000B60190E00E94C50CE7CF912C212C312CC6
:10137000FFE1F315D8F08B3279F038F4803279F050
:101380008332A1F4232D20611DC08D3261F08033A2
:1013900069F4232D216016C0832D8260382EE32D41
:1013A000E4603E2E2AC0F32DF8601DC037FC2DC02E
:1013B00020ED280F2A3040F08E32B9F436FC81C17E
:1013C000232D2064322E19C036FE06C08AE0989E76
:1013D000200D1124922E11C0EAE02E9E200D112422
:1013E000222EF32DF0623F2E08C08C3621F4832D7F
:1013F0008068382E02C0883641F4F70193FD85914C
:1014000093FF81917F018111B3CF982F9F7D9554D8
:10141000933028F40C5F1F4F9FE399830DC08336F0
:1014200031F0833771F0833509F059C021C0F801DC
:10143000808189830E5F1F4F88248394912C5301F0
:1014400013C02801F2E04F0E511CF801A080B180BA
:1014500036FE03C0692D70E002C06FEF7FEFC5015B
:101460000E94BA0C4C018201F32DFF773F2E16C06B
:10147000280122E0420E511CF801A080B18036FE06
:1014800003C0692D70E002C06FEF7FEFC5010E94BD
:10149000A80C4C01F32DF0683F2E820133FC1BC0D9
:1014A000822D90E088169906B0F4B60180E290E0B3
:1014B0000E94C50C2A94F4CFF50137FC859137FEC4
:1014C00081915F01B60190E00E94C50C21102A9421
:1014D00021E0821A91088114910471F7E8C08436E2
:1014E00011F0893641F5F80137FE07C0608171813E
:1014F000828193810C5F1F4F08C060817181072E2C
:10150000000C880B990B0E5F1F4FF32DFF763F2EBB
:1015100097FF09C090958095709561957F4F8F4F8B
:101520009F4FF0683F2E2AE030E0A3010E94010D9A
:10153000882E861845C0853731F4232D2F7EB22E94
:101540002AE030E025C0932D997FB92E8F36C1F067
:1015500018F4883579F0B5C0803719F0883721F054
:10156000B0C0E92FE061BE2EB4FE0DC0FB2DF460CB
:10157000BF2E09C034FE0AC0292F2660B22E06C035
:1015800028E030E005C020E130E002C020E132E098
:10159000F801B7FE07C060817181828193810C5F81
:1015A0001F4F06C06081718180E090E00E5F1F4F89
:1015B000A3010E94010D882E8618FB2DFF773F2E78
:1015C00036FE0DC0232D2E7FA22E891458F434FE32
:1015D0000BC032FC09C0832D8E7EA82E05C0B82C0E
:1015E000A32C03C0B82C01C0B92CA4FE0FC0FE016F
:1015F000E80DF11D8081803321F49A2D997EA92E6A
:1016000009C0A2FE06C0B394B39404C08A2D8678A4
:1016100009F0B394A3FC11C0A0FE06C0B21488F474
:10162000280C922C9B180EC0B21460F4B60180E214
:1016300090E00E94C50CB394F7CFB21418F42B18A5
:1016400002C0982C212CA4FE10C0B60180E390E0CB
:101650000E94C50CA2FE17C0A1FC03C088E790E061
:1016600002C088E590E0B6010CC08A2D867859F05A
:10167000A1FE02C08BE201C080E2A7FC8DE2B601B0
:1016800090E00E94C50C891438F4B60180E390E024
:101690000E94C50C9A94F7CF8A94F301E80DF11DCE
:1016A0008081B60190E00E94C50C8110F5CF222008
:1016B00009F442CEB60180E290E00E94C50C2A9463
:1016C000F6CFF6018681978102C08FEF9FEF2B96B0
:1016D000E2E10C947B0D0F931F93CF93DF93869FD2
:1016E0008001879F100D969F100D1124C8010E9444
:1016F000870BEC01009729F0A80160E070E00E94E0
:10170000B30CCE01DF91CF911F910F9108950F93EC
:101710001F93CF93DF938230910510F482E090E025
:10172000E0916C02F0916D0220E030E0A0E0B0E0CA
:10173000309719F14081518102811381481759076F
:10174000C8F08417950769F4109731F012960C933E
:10175000129713961C9327C000936C0210936D028E
:1017600022C02115310519F04217530718F49A01C8
:10177000BD01EF01DF01F801DBCF21153105F9F0E3
:10178000281B390B2430310580F48A819B81611537
:10179000710521F0FB019383828304C090936D0255
:1017A00080936C02FE01329644C0FE01E20FF31FEB
:1017B0008193919322503109398328833AC0209133
:1017C0006A0230916B02232B41F420910201309187
:1017D000030130936B0220936A0220910001309143
:1017E00001012115310541F42DB73EB740910401A7
:1017F00050910501241B350BE0916A02F0916B02B8
:10180000E217F307A0F42E1B3F0B2817390778F0D7
:10181000AC014E5F5F4F2417350748F04E0F5F1F36
:1018200050936B0240936A028193919302C0E0E06F
:10183000F0E0CF01DF91CF911F910F910895CF93E9
:10184000DF93009709F481C0FC0132971382128262
:10185000A0916C02B0916D02109781F420813181CA
:10186000820F931F20916A0230916B02281739076B
:1018700051F5F0936B02E0936A0267C0ED0120E03E
:1018800030E0CE17DF0740F44A815B819E014115AD
:101890005105F1F0EA01F5CFD383C2834081518134
:1018A000840F951FC817D90759F488819981840F2F
:1018B000951F0296918380838A819B819383828383
:1018C0002115310529F4F0936D02E0936C023DC0BF
:1018D000E901FB83EA8349915991C40FD51FEC17A5
:1018E000FD0761F480819181840F951F0296E901C3
:1018F00099838883828193819B838A83E0E0F0E0EF
:1019000012968D919C911397009719F0FD01DC01BF
:10191000F7CF8D919C9111979D012E5F3F4F820FC4
:10192000931F20916A0230916B022817390769F4DE
:10193000309729F410926D0210926C0202C013824B
:101940001282B0936B02A0936A02DF91CF91089547
:10195000FC010590615070400110D8F7809590957A
:101960008E0F9F1F0895DC0101C06D9341505040C0
:10197000E0F70895FC016150704001900110D8F724
:10198000809590958E0F9F1F08950F931F93CF936F
:10199000DF93FB01238121FD03C08FEF9FEF2CC05C
:1019A00022FF16C046815781248135814217530793
:1019B00044F4A081B1819D012F5F3F4F318320838B
:1019C0008C93268137812F5F3F4F3783268314C046
:1019D0008B01EC01FB010084F185E02D0995892B39
:1019E000E1F6D80116968D919C911797019617965E
:1019F0009C938E931697CE01DF91CF911F910F91FB
:101A00000895FA01AA27283051F1203181F1E89494
:101A10006F936E7F6E5F7F4F8F4F9F4FAF4FB1E0E1
:101A20003ED0B4E03CD0670F781F891F9A1FA11DDC
:101A3000680F791F8A1F911DA11D6A0F711D811DDD
:101A4000911DA11D20D009F468943F912AE0269FA2
:101A500011243019305D3193DEF6CF010895462F01
:101A60004770405D4193B3E00FD0C9F7F6CF462FE2
:101A70004F70405D4A3318F0495D31FD405241934B
:101A800002D0A9F7EACFB4E0A69597958795779508
:101A90006795BA95C9F700976105710508959B018F
:101AA000AC010A2E06945795479537952795BA9518
:101AB000C9F7620F731F841F951FA01D08952F92F1
:101AC0003F924F925F926F927F928F929F92AF92CE
:101AD000BF92CF92DF92EF92FF920F931F93CF931B
:101AE000DF93CDB7DEB7CA1BDB0B0FB6F894DEBFB2
:101AF0000FBECDBF09942A88398848885F846E84D8
:101B00007D848C849B84AA84B984C884DF80EE8021
:101B1000FD800C811B81AA81B981CE0FD11D0FB62A
:101B2000F894DEBF0FBECDBFED010895A1E21A2EDD
:101B3000AA1BBB1BFD010DC0AA1FBB1FEE1FFF1F71
:101B4000A217B307E407F50720F0A21BB30BE40BC1
:101B5000F50B661F771F881F991F1A9469F7609508
:101B60007095809590959B01AC01BD01CF010895C2
:101B7000EE0FFF1F0590F491E02D099481E090E0B5
:101B8000F8940C94D90DA0E0B0E0E9ECFDE00C94E1
:101B90006F0DAE014B5F5F4FFA0161917191AF0123
:101BA00080916602909167020E948A09E2E00C949B
:061BB0008B0DF894FFCF3D
:101BB60000006E0220000000000019028201B00140
:0E1BC6006602E101BF01D3012578000A0D007F
:00000001FF
