:020000040000FA
:100000000C9445010C946D010C946D010C946D01E0
:100010000C946D010C946D010C946D010C946D01A8
:100020000C946D010C946D010C946D010C946D0198
:100030000C946D010C946D010C946D010C946D0188
:100040000C94AC050C946D010C941C060C94F605F4
:100050000C946D010C946D010C946D010C946D0168
:100060000C944E060C946D013D2050415F4D41585B
:10007000003D2050415F48494748003D2050415FC6
:100080004C4F57003D2050415F4D494E003D2031BF
:10009000362062697473003D2038206269747300F1
:1000A0003D2044697361626C6564006E524632346F
:1000B0004C30312B006E524632344C3031003D20F2
:1000C000323530204B425053003D2032204D4250BB
:1000D00053003D2031204D425053000001020304E3
:1000E0000553544154555309093D20307825303289
:1000F000782052585F44523D25782054585F44532D
:100100003D2578204D41585F52543D257820525866
:100110005F505F4E4F3D25782054585F46554C4CFC
:100120003D25780D0A0041524309093D2025640D03
:100130000A00504120506F7765720925530D0A005F
:1001400084007B0071006800435243204C656E6759
:1001500074680925530D0A00A00097008D004D6FAB
:1001600064656C09093D2025530D0A00B500AB00FC
:100170004461746120526174650925530D0A00D2EF
:1001800000C900BE0044594E50442F4645415455C5
:10019000524500434F4E464947090052465F53457A
:1001A0005455500052465F43480900454E5F52582F
:1001B0004144445200454E5F4141090052585F504E
:1001C000575F50302D360054585F41444452090067
:1001D00052585F414444525F50322D350052585FAF
:1001E000414444525F50302D3100535049205370E8
:1001F0006565647A093D202564204D687A0A0052BD
:10020000462D4E414E4F2076332E302053656E647E
:100210002054657374000000000800020100000310
:10022000040700000000000000000000000025009E
:1002300028002B0000000000240027002A000404EE
:10024000040404040404020202020202030303037E
:10025000030301020408102040800102040810205A
:100260000102040810200D0A0025303278002030E9
:1002700078002553093D000D0A00203078253032E2
:1002800078002553093D0000690711241FBECFEFF8
:10029000D8E0DEBFCDBF11E0A0E0B1E0ECEBF1E2D1
:1002A00002C005900D92A635B107D9F722E0A6E568
:1002B000B1E001C01D92A939B207E1F711E0C5E430
:1002C000D1E004C02197FE010E94D610C434D107AA
:1002D000C9F70E94B9070C94DC100C94000090E060
:1002E000FC01EE5AFD4F2491825C9D4FFC018491EC
:1002F000882399F090E0880F991FFC01EC5CFD4F7A
:10030000A591B491FC01E65DFD4F859194918FB765
:10031000F894EC91E22BEC938FBF089590E0FC01F0
:10032000EA5EFD4F2491FC01EE5AFD4F3491FC0131
:10033000E25CFD4FE491EE23C9F0222339F0233033
:1003400001F1A8F4213019F1223029F1F0E0EE0F8B
:10035000FF1FE65DFD4FA591B4918FB7F894EC9126
:10036000611126C030953E233C938FBF08952730FE
:10037000A9F02830C9F0243049F7809180008F7DA2
:1003800003C0809180008F7780938000DFCF84B599
:100390008F7784BDDBCF84B58F7DFBCF8091B0009C
:1003A0008F778093B000D2CF8091B0008F7DF9CF4E
:1003B0003E2BDACF682F80917302909174028913DB
:1003C0000C948E010895682F809174020E948E0112
:1003D00080918B0290918C028230910538F0880FC9
:1003E000991F880F991F05970197F1F7089581E0EC
:1003F0000C94E3013FB7F8948091CF019091D00124
:10040000A091D101B091D20126B5A89B05C02F3F84
:1004100019F00196A11DB11D3FBFBA2FA92F982F2A
:100420008827BC01CD01620F711D811D911D42E025
:10043000660F771F881F991F4A95D1F708958F92ED
:100440009F92AF92BF92CF92DF92EF92FF924B01B9
:100450005C010E94FA016B017C010E94FA016C1997
:100460007D098E099F09683E734081059105A8F3B7
:1004700021E0821A9108A108B10888EEC80E83E035
:10048000D81EE11CF11C81149104A104B10429F7C8
:10049000FF90EF90DF90CF90BF90AF909F908F90A4
:1004A0000895AF92BF92CF92DF92EF92FF920F9397
:1004B0001F93CF93DF936C017B018B01040F151FFA
:1004C000EB015E01AE18BF08C017D10759F0699162
:1004D000D601ED91FC910190F081E02DC6010995C6
:1004E000892B79F7C501DF91CF911F910F91FF9073
:1004F000EF90DF90CF90BF90AF900895FC01538DA7
:10050000448D252F30E0842F90E0821B930B5417ED
:1005100010F0CF96089501970895FC01918D828D7A
:10052000981761F0A28DAE0FBF2FB11D5D968C9113
:10053000928D9F5F9F73928F90E008958FEF9FEF52
:100540000895FC01918D828D981731F0828DE80F0E
:10055000F11D858D90E008958FEF9FEF0895FC01C8
:10056000918D228D892F90E0805C9F4F821B910995
:100570008F739927089583ED91E00E94AF0221E0E7
:10058000892B09F420E0822F089580E090E0892BE8
:1005900029F00E94BB0281110C9400000895FC0117
:1005A000A48DA80FB92FB11DA35ABF4F2C91848DD4
:1005B00090E001968F739927848FA689B7892C9331
:1005C000A089B1898C91837080648C93938D848D84
:1005D000981306C00288F389E02D80818F7D808387
:1005E0000895EF92FF920F931F93CF93DF93EC0147
:1005F00081E0888F9B8D8C8D98131AC0E889F989CA
:10060000808185FF15C09FB7F894EE89FF896083CC
:10061000E889F98980818370806480839FBF81E04D
:1006200090E0DF91CF911F910F91FF90EF9008958F
:10063000F62E0B8D10E00F5F1F4F0F731127E02E6A
:100640008C8D8E110CC00FB607FCFACFE889F989A2
:10065000808185FFF5CFCE010E94CF02F1CFEB8DD7
:10066000EC0FFD2FF11DE35AFF4FF0829FB7F89476
:100670000B8FEA89FB8980818062CFCFCF93DF9394
:10068000EC01888D8823B9F0AA89BB89E889F989AA
:100690008C9185FD03C0808186FD0DC00FB607FCDF
:1006A000F7CF8C9185FFF2CF808185FFEDCFCE0112
:1006B0000E94CF02E9CFDF91CF9108958EBD000057
:1006C0000DB407FEFDCF8EB5089520917D01260F54
:1006D0003327331F21323105ECF42091A101FC01B5
:1006E00090E080E0243069F082E00895A0917D01DF
:1006F0002191AC01435A5E4FA40FB52FB11D2C932D
:100700000196861798F380917D01680F60937D01B3
:1007100080E0089581E0089508958FEF9FEF089598
:100720008FEF9FEF08958091560190E0919581950C
:1007300091090895CF93DF93CB01EA01642F0E94C2
:100740006503CE01DF91CF910895CF93DF931F9280
:10075000CDB7DEB7698361E0CE0101960E946503E3
:1007600081E090E00F90DF91CF91089590E080E0DC
:100770000895CF93C82F682F83ED91E00E94F10276
:100780008C2FCC0F990BCF910895FC010190002084
:10079000E9F73197AF01481B590BBC0183ED91E09C
:1007A0000C9451020F931F930091750210917602E1
:1007B000209177023091780240E052E16AE770E0E0
:1007C00080E0041715072607370740F476956795EC
:1007D000579547958F5F8630A1F787E0982F906AED
:1007E0009695809581709CBD8DBD80E01F910F9185
:1007F0000C94E301CF93C82F0E94D2038C2F806208
:100800000E945E0380937902CF910C94F701FF92CE
:100810000F931F93CF93DF93C82FF62E072F142F1C
:100820000E94D2038C2F80620E945E038093790223
:10083000CF2DD02F115020F089910E945E03FACF66
:10084000DF91CF911F910F91FF900C94F701CF93FF
:10085000C82F0E94D2038C2F0E945E0380937902DE
:100860008FEF0E945E03C82F0E94F7018C2FCF915B
:1008700008950E94D20380E50E945E03809379026E
:1008800083E70E945E030C94F701CF93DF93D82F88
:10089000C62F0E94D2038D2F80620E945E03809338
:1008A00079028C2F0E945E03DF91CF910C94F701A7
:1008B000CF9386E00E942704C82FC77D85E590E08E
:1008C000A0E0B0E08093870290938802A093890211
:1008D000B0938A026C2F86E00E94450486E00E9455
:1008E000270491E0C81390E0892FCF91089563E029
:1008F00083E00E94450485E0809384020895FF927E
:100900000F931F93CF93DF93C62FD42F9F938F9373
:1009100082E892E09F938F930E94510CDC0F0F901E
:100920000F900F900F900AE712E0CD1791F0FF247F
:10093000F394FC0E8C2F0E9427041F928F931F9319
:100940000F930E94510C0F900F900F900F90CF2D8E
:10095000ECCF87E792E09F938F930E94510C0F900A
:100960000F90DF91CF911F910F91FF9008958F927B
:100970009F92AF92BF92CF92DF92EF92FF920F932E
:100980001F93CF93DF93C62FB42E9F938F9382E74D
:1009900092E09F938F930E94510CBC0E0F900F908A
:1009A0000F900F908EE6E82E82E0F82E99E6C92E81
:1009B00092E0D92EBC1609F445C0D09184028D2F47
:1009C00090E0009711F481E090E00E946C0E8C01A1
:1009D000AA24A394AC0E0E94D2038C2F8F710E9484
:1009E0005E03809379024801D15038F08FEF0E9466
:1009F0005E03F40181934F01F7CF0E94F701FF924C
:100A0000EF920E94510CC0918402C00FD12FD11DD2
:100A10000F900F902197C017D10760F088811F9227
:100A20008F93DF92CF920E94510C0F900F900F90F6
:100A30000F90F0CF0115110519F0C8010E94080FA1
:100A4000CA2DB8CF86E692E09F938F930E94510CF7
:100A50000F900F90DF91CF911F910F91FF90EF902A
:100A6000DF90CF90BF90AF909F908F9008951F938D
:100A7000CF93DF9385ED8093BC00809159019091D5
:100A80005A01A0915B01B0915C010796A11DB11DB7
:100A900023E0B695A795979587952A95D1F720914C
:100AA000BC0024FD03C01092A10152C04091590125
:100AB00050915A0160915B0170915C01452B462B6E
:100AC000472B69F30097A105B10541F02AE22A9569
:100AD000F1F700C00197A109B109E1CF8091580158
:100AE000C1E0C0935701882399F1D091B8001091CB
:100AF000BA008091BC008A7B8093BC0060E082E1F8
:100B00000E948E0160E083E10E948E011092A1019B
:100B1000C093A3011092A20161E082E10E948E01C4
:100B200061E083E10E948E018091B9008E7F809305
:100B3000B9008091B9008D7F8093B90088E48093DB
:100B4000B80085E48093BC001093BA00D093B8003D
:100B5000DF91CF911F9108951F920F920FB60F92C0
:100B600011242F933F938F939F93AF93BF938091C3
:100B7000CB019091CC01A091CD01B091CE013091EB
:100B8000CA0123E0230F2D3758F50196A11DB11D91
:100B90002093CA018093CB019093CC01A093CD0107
:100BA000B093CE018091CF019091D001A091D1015D
:100BB000B091D2010196A11DB11D8093CF019093F8
:100BC000D001A093D101B093D201BF91AF919F9179
:100BD0008F913F912F910F900FBE0F901F901895FE
:100BE00026E8230F0296A11DB11DD2CF1F920F92AE
:100BF0000FB60F9211242F933F934F935F936F93F0
:100C00007F938F939F93AF93BF93EF93FF9383ED66
:100C100091E00E94CF02FF91EF91BF91AF919F9120
:100C20008F917F916F915F914F913F912F910F9095
:100C30000FBE0F901F9018951F920F920FB60F9234
:100C400011242F938F939F93EF93FF93E091E301F0
:100C5000F091E4018081E091E901F091EA0182FDE7
:100C60001BC090818091EC018F5F8F732091ED010B
:100C7000821741F0E091EC01F0E0ED52FE4F958FCC
:100C80008093EC01FF91EF919F918F912F910F90A5
:100C90000FBE0F901F9018958081F4CF1F920F9276
:100CA0000FB60F9211242F933F934F935F936F933F
:100CB0007F938F939F93AF93BF93EF93FF93809115
:100CC000B900887F803609F44AC0F0F5883209F40B
:100CD000A5C018F5803109F499C0B8F4882309F447
:100CE000F5C0883009F492C0FF91EF91BF91AF91A8
:100CF0009F918F917F916F915F914F913F912F9134
:100D00000F900FBE0F901F901895883109F486C080
:100D1000803251F78093A00114C0803409F49BC045
:100D200040F48033B9F38833F9F68093A00185EC61
:100D3000AEC0803509F483C0883509F494C0883486
:100D400099F60E943705D0CF883909F48AC038F562
:100D5000883729F050F4883611F0803729F683E07F
:100D60008093A10110929F0155C0883809F479C081
:100D7000803919F0803809F0B7CF80919F01803217
:100D800008F06FC0E0919F0181E08E0F80939F017A
:100D90008091BB00F0E0E158FE4F80833BC0803B78
:100DA00039F0D0F4803A09F477C0883A09F09CCF42
:100DB00084E08093A10110927E0110927D01F0E009
:100DC000E0E0099580917D0181110FC081E0809361
:100DD0007D0110925D0109C0803C09F4A8CF883CD8
:100DE00009F4A5CF883B09F07FCFE0917E0181E037
:100DF0008E0F80937E01F0E0E35AFE4F8081809356
:100E0000BB0090917E0180917D0129C08091C60137
:100E10008093BB0085EC8093BC0066CF9091C501A8
:100E20008091C401981758F5E091C50181E08E0FBB
:100E30008093C501F0E0EC55FE4F8081E9CFE09151
:100E4000C50181E08E0F8093C5018091BB00F0E069
:100E5000EC55FE4F80839091C5018091C401981795
:100E6000C8F285E8D8CFE091C50181E08E0F80936C
:100E7000C5018091BB00F0E0EC55FE4F808380916E
:100E8000A30181115ECF81E08093A20184EA809367
:100E9000BC001092A10128CF85EC8093BC00109279
:100EA000A10180919F01803230F4E0919F01F0E038
:100EB000E158FE4F108260919F0170E08FE791E052
:100EC000F0E0E0E0099510929F010ECF1092A00192
:100ED00038CFE3EDF1E01382128288EE93E0A0E0D8
:100EE000B0E084839583A683B7838EE091E09183FD
:100EF000808385EC90E09587848784EC90E09787E9
:100F0000868780EC90E0918B808B81EC90E0938BD6
:100F1000828B82EC90E0958B848B86EC90E0978BB3
:100F2000868B118E128E138E148EE1E7F2E089E02B
:100F300082838AE0838380E896E9A8E9B0E084832D
:100F40009583A683B78380E28187108A118A85E022
:100F5000838B81E0848B85E090E0A0E0B0E0828F1D
:100F6000938FA48FB58F80E792E091838083128660
:100F70000895CF93DF93CDB7DEB7E1970FB6F8941E
:100F8000DEBF0FBECDBF789484B5826084BD84B5CA
:100F9000816084BD85B5826085BD85B5816085BD74
:100FA00080916E00816080936E001092810080912C
:100FB00081008260809381008091810081608093B4
:100FC0008100809180008160809380008091B100D9
:100FD00084608093B1008091B00081608093B00004
:100FE00080917A00846080937A0080917A00826098
:100FF00080937A0080917A00816080937A0080915A
:101000007A00806880937A001092C100E091E30139
:10101000F091E40182E08083E091DF01F091E00152
:101020001082E091E101F091E20180E18083109271
:10103000EB01E091E701F091E80186E08083E09127
:10104000E501F091E601808180618083E091E50116
:10105000F091E601808188608083E091E501F09164
:10106000E601808180688083E091E501F091E601EE
:1010700080818F7D808370E060E089EB93E00E9447
:10108000060C0FEF11E0F8016491662341F083ED47
:1010900091E00E94F1020F5F1F4F892BA1F78CE1B5
:1010A00091E00E94C5031FB7F8948091C701811198
:1010B00024C0E8E4F2E08491ECE5F2E09491E82FBA
:1010C000F0E0EE0FFF1FEC5CFD4FA591B491EC91A9
:1010D000E92321F461E08AE00E948E018AE00E9407
:1010E0006F018CB580618CBD8CB580648CBD8DE04A
:1010F0000E946F018BE00E946F018091C7018F5F9A
:101100008093C7011FBF809173028F3F09F479C09C
:10111000909174029F3F09F474C0891731F00E94C6
:101120006F01809174020E946F0180E00E94DA01D9
:1011300081E00E94E30165E070E080E090E00E94C1
:101140001F026FE584E00E9445040E9458048DE16F
:101150000E942704182F0E9439048DE10E94270461
:1011600091E0181390E090938102882341F01813C6
:1011700002C00E94390460E08DE10E944504109293
:10118000830260E08CE10E944504109285026FE3C7
:1011900081E00E94450463E082E00E94450480E211
:1011A00080937A0211E160917A02812F0E944504B6
:1011B0001F5F1731C1F70E9477046CE485E00E943D
:1011C000450460E787E00E94450482EE0E94FA032E
:1011D00081EE0E94FA036CE080E00E94450480E00A
:1011E0000E9427048093800281FD0BC0682F6260FB
:1011F0006093800280E00E9445048BE19EE40197A9
:10120000F1F70E94770486E68AA780EF8BA78CA768
:101210008DA78EA71FA618AA19AA40918402BE0105
:10122000665D7F4F8AE00E94070440918402BE0100
:10123000665D7F4F80E10E94070463E785E00E94BE
:10124000450486E00E942704682F676086E00E94BC
:1012500045040E94580480E00E94DA0180918702D0
:10126000909188028230910538F0880F991F880F7D
:10127000991F05970197F1F780918302882319F050
:1012800081EE0E94FA03609180026E7F609380027B
:1012900080E00E94450482E00E942704EBEDF0E02C
:1012A000E49161E070E001C0660FEA95EAF7682B0F
:1012B00082E00E9445048FE191E00E94C5036091A5
:1012C000750270917602809177029091780220E405
:1012D00032E44FE050E00E94A5101F922F938AEE57
:1012E00091E09F938F930E94510C8FEF0E94FA031D
:1012F00040917902842F90E0242F21701F922F9328
:101300009C0135952795277033273F932F9344FBF6
:10131000992790F91F929F9345FB992790F91F9267
:101320009F9346FB882780F91F928F931F924F93BC
:1013300081EE90E09F938F930E94510C42E06AE00F
:101340008DED91E00E94B70444E06CE080ED91E007
:101350000E947F0441E060E187EC91E00E94B704C5
:1013600046E061E18CEB91E00E947F0441E061E0A6
:1013700085EB91E00E947F0441E062E08BEA91E01E
:101380000E947F0441E065E084EA91E00E947F04CE
:1013900041E066E08BE991E00E947F0441E060E07B
:1013A00083E991E00E947F0442E06CE185E891E0EE
:1013B0000E947F0486E00E94270488720FB6F8948A
:1013C000DEBF0FBECDBFE2E0F0E0803239F021E0B9
:1013D00090E0883009F020E0E22FF92FEE0FFF1F98
:1013E000E158FE4F859194919F938F9380E791E010
:1013F0009F938F930E94510CE0918102F0E0EE0FD9
:10140000FF1FE459FE4F859194919F938F938EE532
:1014100091E09F938F930E94510C81E00E942704DA
:10142000182F80E00E942704809380020FB6F89462
:10143000DEBF0FBECDBF83FD04C0F0E0E0E01123AE
:1014400031F0E2E0F0E082FD02C0E1E0F0E0EE0F1A
:10145000FF1FE85AFE4F859194919F938F9388E4E4
:1014600091E09F938F930E94510C86E00E94270485
:10147000E82FF0E0F595E795E370F0E0EE0FFF1F41
:10148000E05CFE4F859194919F938F9382E391E06E
:101490009F938F930E94510C88E00E9427048F70C5
:1014A0001F928F9386E291E09F938F930E94510C3D
:1014B00064EF71E080E090E00E941F020FB6F894A4
:1014C000DEBF0FBECDBF412C512C32014A9410EF2C
:1014D0005AE0852E912CA12CB12C60E0262E60E0E4
:1014E000362E0E94AE0BA30192010E943C10709315
:1014F000C9016093C80136E63AA31BA31CA31DA330
:101500001EA31FA218A619A640918402BE016E5DFB
:101510007F4F8AE00E94070440918402BE016E5D05
:101520007F4F80E10E94070480918502D12C02E068
:10153000811108C080917A02082F833008F002E000
:10154000D82ED01A0E94D20380EA0E945E038093B4
:10155000790288ECE82E81E0F82E015030F0F70196
:1015600081917F010E945E03F8CFDA94FFEFDF16CE
:1015700021F080E00E945E03F8CF0E94F70181E035
:101580000E94DA018FB7F894C090CB01D090CC01C3
:10159000E090CD01F090CE018FBF8FEF0E94FA0353
:1015A00080917902807309F068C02FB7F894809118
:1015B000CB019091CC01A091CD01B091CE012FBF74
:1015C0008C199D09AE09BF0980369105A105B105A9
:1015D00020F381E08093860286E391E00E94C503B8
:1015E00080E491E00E94C503C090C801D090C90179
:1015F0000D2C000CEE08FF08F7FE4EC06DE283EDE7
:1016000091E00E94F10222273327A9012C193D09FC
:101610004E095F0919A2CE0181967C01CA01B90168
:10162000A50194010E94A510605DF70162937F01FE
:10163000211531054105510589F7E114F10419F02F
:10164000C7010E94C5038CE191E00E94C5038AE4B2
:1016500091E00E94C50368EE73E080E090E00E9494
:101660001F022114310409F43CCF0E94BB028823DD
:1016700009F437CF0E94000034CF80E00E94DA01E5
:1016800060E787E00E9445048091790284FFA4CF3F
:1016900081EE0E94FA03A0CFA701960119A2CE0104
:1016A00081967C01CA01B901A50194010E94A5108F
:1016B000605DF70162937F012115310541055105F8
:1016C00089F7BBCF8F929F92AF92BF92CF92DF925A
:1016D000EF92FF92CF93DF93EC01688179818A8149
:1016E0009B81611571058105910521F464E279ED15
:1016F0008BE597E02DE133EF41E050E00E943C1094
:1017000049015A019B01AC01A7EAB1E40E945B10B8
:101710006B017C01ACEEB4EFA50194010E9469104D
:10172000C60ED71EE81EF91EF7FE06C081E0C81AD5
:10173000D108E10880E8F80AC882D982EA82FB82EF
:10174000C701B6019F77DF91CF91FF90EF90DF90B7
:10175000CF90BF90AF909F908F9008958F929F925F
:10176000AF92BF92CF92DF92EF92FF926091000111
:101770007091010180910201909103016115710541
:101780008105910521F464E279ED8BE597E02DE187
:1017900033EF41E050E00E943C1049015A019B01A7
:1017A000AC01A7EAB1E40E945B106B017C01ACEED6
:1017B000B4EFA50194010E946910C60ED71EE81E61
:1017C000F91EF7FE06C081E0C81AD108E10880E8DA
:1017D000F80AC0920001D0920101E0920201F09259
:1017E0000301C701B6019F77FF90EF90DF90CF9084
:1017F000BF90AF909F908F90089560930001709379
:101800000101809302019093030108950F931F93A8
:10181000CF93DF93009759F46115710541F4F0E01F
:10182000E0E0CF01DF91CF911F910F9108958B01DF
:10183000EC016EE070E081E090E00E94500EFC014F
:10184000892B69F380E883830115110571F01387F3
:10185000028781E8838380918F0290919002892B87
:1018600021F4F0939002E0938F022097D1F2D18778
:10187000C0878381826083838091910290919202DC
:10188000892B79F6F0939202E09391028091930272
:1018900090919402892B29F6F0939402E09393029D
:1018A000C0CFB0E0A0E0E7E5FCE00C947C10AE0116
:1018B000495F5F4FDA016D917D91AD010FE812E054
:1018C000F80182819381DC0113962C911397286093
:1018D00013962C930E94760CD8011296ED91FC91F0
:1018E0002381277F2383E4E00C949810ABE0B0E0E1
:1018F000ECE7FCE00C946E107C013B018A01FC01DA
:1019000017821682838181FFC8C1CE0101965C01D6
:10191000F7019381F30193FD859193FF81913F013D
:10192000882309F453C1853239F493FD859193FFDF
:1019300081913F01853229F4B70190E00E94AE0FFA
:10194000E7CF912C212C312CFFE1F31538F08B32AD
:1019500011F190F4803209F1833229F137FC3CC057
:1019600020ED280F2A3050F536FE20C08AE0989EE0
:10197000200D1124922E06C08D3291F0803371F724
:10198000689430F8F30193FD859193FF81913F01B5
:101990008111DACF21C0689431F8689432F8F2CF1F
:1019A000689433F8EFCF689434F8ECCFEAE02E9ED9
:1019B000200D1124222E689435F8E4CF8E3229F4BC
:1019C00036FC04C1689436F8DDCF8C3619F468947F
:1019D00037F8D8CF8836B1F2982F9F7D9554933041
:1019E000E0F08336A1F18337C1F1833509F063C09C
:1019F0002801F2E04F0E511CF801C080D180692D02
:101A000070E036FC02C06FEF7FEFC6010E94910FBD
:101A10004C01689437F882010AC00C5F1F4FFFE346
:101A2000F98388248394912C6501E89437F833FE78
:101A30002DC0522C8114910471F5552009F468CF02
:101A4000B70180E290E00E94AE0F5A94F6CFF80101
:101A5000808189830E5F1F4FE4CF2801F2E04F0E93
:101A6000511CF801C080D180692D70E036FC02C0A5
:101A70006FEF7FEFC6010E94A30F4C018201D5CF0B
:101A8000B70180E290E00E94AE0F2A942814190456
:101A900009F0B0F7CECFF60137FC859137FE819182
:101AA0006F01B70190E00E94AE0F51105A94F1E01F
:101AB0008F1A9108BFCF843619F0893609F077C0A4
:101AC000F80137FE6BC060817181828193810C5F68
:101AD0001F4FF32DFF763F2E97FF09C090958095FD
:101AE000709561957F4F8F4F9F4F689437F82AE02C
:101AF00030E0A5010E94DE0FC82ECA188C2C432CA2
:101B000036FE0CC0E89440F8C91440F434FE05C019
:101B100032FC03C0F32DFE7E4F2E892C44FE95C06F
:101B2000FE01EC0DF11D8081803309F087C0242D6A
:101B3000297E422E842D8870582E43FC95C040FE8D
:101B40008FC09C2C821418F42C0C922C981844FEF4
:101B500091C0B70180E390E00E94AE0F42FE09C041
:101B600088E790E041FE02C088E590E0B7010E945E
:101B7000AE0FC91408F48AC0CA94D12C9FEFC91AB9
:101B8000D90ACA0CDB1CF60182916F01B70190E003
:101B90000E94AE0FAC14BD04B1F74FCF60817181CC
:101BA000072E000C880B990B0E5F1F4F92CFD32C82
:101BB000E894D4F82AE030E0853739F1232D297FE5
:101BC000D22E8F3601F148F48835A9F0F7018681CD
:101BD00097812B96E2E10C948A10803749F0883780
:101BE000A9F7D4FE02C06894D2F820E130E00DC01D
:101BF0006894D4F8F6CF34FE03C0822F8660D82EC6
:101C000020E132E002C028E030E0F801D7FE0FC04A
:101C100060817181828193810C5F1F4FA5010E94B9
:101C2000DE0FC82ECA183D2CE89437F867CF6081C4
:101C3000718190E080E00E5F1F4FF0CF42FC02C048
:101C4000839478CF8394839475CF842D867809F418
:101C500071CFF6CFB70180E290E00E94AE0F83947F
:101C60008214C0F3512C73CF522C5818821408F4EC
:101C70006ECFF8CF842D867809F47BCF8BE241FEBE
:101C800080E247FC8DE2B70190E071CFB70180E3BD
:101C900090E00E94AE0F9A946CCF8FEF9FEF99CF98
:101CA0000F931F93CF93DF93869F8001879F100D23
:101CB000969F100D1124C8010E946C0EEC01009734
:101CC00029F0A80170E060E00E949C0FCE01DF9136
:101CD000CF911F910F9108950F931F93CF93DF938F
:101CE0008230910510F482E090E0E0919702F0914B
:101CF000980230E020E0B0E0A0E0309799F42115A0
:101D0000310509F44AC0281B390B24303105D8F5B8
:101D10008A819B816115710589F1FB01938382831F
:101D2000FE0111C04081518102811381481759077A
:101D3000E0F04817590799F4109761F012960C9348
:101D4000129713961C933296CF01DF91CF911F917A
:101D50000F9108950093970210939802F4CF2115E4
:101D6000310551F04217530738F0A901DB019A0100
:101D7000BD01DF01F801C1CFEF01F9CF90939802C7
:101D800080939702CDCFFE01E20FF31F81939193D1
:101D90002250310939832883D7CF20919502309181
:101DA0009602232B41F420910601309107013093D4
:101DB000960220939502209104013091050121158E
:101DC000310541F42DB73EB740910801509109010A
:101DD000241B350BE0919502F0919602E217F30770
:101DE000A0F42E1B3F0B2817390778F0AC014E5F8B
:101DF0005F4F2417350748F04E0F5F1F5093960230
:101E000040939502819391939FCFF0E0E0E09CCFC7
:101E1000CF93DF930097E9F0FC013297138212828F
:101E2000A0919702B0919802ED0130E020E0109768
:101E3000A1F420813181820F931F2091950230916E
:101E400096022817390709F061C0F0939602E093D3
:101E50009502DF91CF910895EA01CE17DF07E8F5EB
:101E60004A815B819E0141155105B1F7E901FB8370
:101E7000EA8349915991C40FD51FEC17FD0761F40E
:101E8000808191810296840F951FE901998388834F
:101E9000828193819B838A83F0E0E0E012968D91AA
:101EA0009C9113970097B9F52D913C911197CD0115
:101EB0000296820F931F2091950230919602281767
:101EC000390739F6309751F510929802109297021F
:101ED000B0939602A0939502BCCFD383C283408176
:101EE0005181840F951FC817D90761F44E5F5F4F6A
:101EF00088819981480F591F518340838A819B8132
:101F0000938382832115310509F0B0CFF0939802B5
:101F1000E09397029ECFFD01DC01C0CF13821282B5
:101F2000D7CFFC010590615070400110D8F7809523
:101F300090958E0F9F1F0895DC0101C06D93415055
:101F40005040E0F70895FC0161507040019001108D
:101F5000D8F7809590958E0F9F1F08950F931F932C
:101F6000CF93DF93182F092FEB018B8181FD09C0DF
:101F70001FEF0FEF812F902FDF91CF911F910F91C6
:101F8000089582FF14C02E813F818C819D81281786
:101F900039073CF4E881F981CF0101969983888360
:101FA00010838E819F8101969F838E83E3CFE88586
:101FB000F985812F0995892BA1F3DACFFA01AA2798
:101FC000283051F1203181F1E8946F936E7F6E5F7C
:101FD0007F4F8F4F9F4FAF4FB1E03ED0B4E03CD02A
:101FE000670F781F891F9A1FA11D680F791F8A1F0D
:101FF000911DA11D6A0F711D811D911DA11D20D074
:1020000009F468943F912AE0269F11243019305D2D
:102010003193DEF6CF010895462F4770405D41931E
:10202000B3E00FD0C9F7F6CF462F4F70405D4A336B
:1020300018F0495D31FD4052419302D0A9F7EACF33
:10204000B4E0A6959795879577956795BA95C9F762
:1020500000976105710508959B01AC010A2E069455
:102060005795479537952795BA95C9F7620F731F0E
:10207000841F951FA01D0895052E97FB1EF4009444
:102080000E94531057FD07D00E94A51007FC03D0F3
:102090004EF40C94531050954095309521953F4F38
:1020A0004F4F5F4F089590958095709561957F4F44
:1020B0008F4F9F4F08950E94C710A59F900DB49F0A
:1020C000900DA49F800D911D11240895B7FF0C94CD
:1020D0005B100E945B10821B930B08952F923F921E
:1020E0004F925F926F927F928F929F92AF92BF9228
:1020F000CF92DF92EF92FF920F931F93CF93DF93D4
:10210000CDB7DEB7CA1BDB0B0FB6F894DEBF0FBE30
:10211000CDBF09942A88398848885F846E847D847D
:102120008C849B84AA84B984C884DF80EE80FD807F
:102130000C811B81AA81B981CE0FD11D0FB6F894F5
:10214000DEBF0FBECDBFED010895A1E21A2EAA1B7E
:10215000BB1BFD010DC0AA1FBB1FEE1FFF1FA21757
:10216000B307E407F50720F0A21BB30BE40BF50B54
:10217000661F771F881F991F1A9469F760957095DD
:10218000809590959B01AC01BD01CF010895A29F60
:10219000B001B39FC001A39F700D811D1124911D3B
:1021A000B29F700D811D1124911D0895EE0FFF1F28
:1021B0000590F491E02D0994F894FFCF0100000000
:1021C00000009902800000000000F10251027E022E
:1021D0003E03AF028D02A1020D0A0053656E64201A
:1021E000536574757020496E697469616C697A65AC
:1021F0006400577269746544617461002E2E2E2E3E
:102200002E2E2E2E2E005772697465206461746123
:022210000000CC
:107E0000112484B714BE81FFF0D085E080938100F7
:107E100082E08093C00088E18093C10086E0809377
:107E2000C20080E18093C4008EE0C9D0259A86E02C
:107E300020E33CEF91E0309385002093840096BBD3
:107E4000B09BFECF1D9AA8958150A9F7CC24DD24C4
:107E500088248394B5E0AB2EA1E19A2EF3E0BF2EE7
:107E6000A2D0813461F49FD0082FAFD0023811F036
:107E7000013811F484E001C083E08DD089C08234E0
:107E800011F484E103C0853419F485E0A6D080C0E4
:107E9000853579F488D0E82EFF2485D0082F10E0AE
:107EA000102F00270E291F29000F111F8ED06801E7
:107EB0006FC0863521F484E090D080E0DECF843638
:107EC00009F040C070D06FD0082F6DD080E0C81688
:107ED00080E7D80618F4F601B7BEE895C0E0D1E017
:107EE00062D089930C17E1F7F0E0CF16F0E7DF06D8
:107EF00018F0F601B7BEE89568D007B600FCFDCFD4
:107F0000A601A0E0B1E02C9130E011968C91119780
:107F100090E0982F8827822B932B1296FA010C0160
:107F200087BEE89511244E5F5F4FF1E0A038BF0790
:107F300051F7F601A7BEE89507B600FCFDCF97BE46
:107F4000E89526C08437B1F42ED02DD0F82E2BD052
:107F50003CD0F601EF2C8F010F5F1F4F84911BD097
:107F6000EA94F801C1F70894C11CD11CFA94CF0C13
:107F7000D11C0EC0853739F428D08EE10CD085E9AC
:107F80000AD08FE07ACF813511F488E018D01DD067
:107F900080E101D065CF982F8091C00085FFFCCF94
:107FA0009093C60008958091C00087FFFCCF809118
:107FB000C00084FD01C0A8958091C6000895E0E648
:107FC000F0E098E1908380830895EDDF803219F02E
:107FD00088E0F5DFFFCF84E1DECF1F93182FE3DFCA
:107FE0001150E9F7F2DF1F91089580E0E8DFEE27F6
:047FF000FF270994CA
:027FFE00040479
:00000001FF
