:100000003EC100006DC100006BC1000069C100006D
:1000100067C1000065C1000063C1000061C100004C
:100020005FC100000C94BF140C94BF140C94BF1457
:1000300057C1000055C1000053C1000051C100006C
:100040004FC100004DC100004BC1000049C100007C
:1000500047C1000045C1000043C100000C94751465
:100060003FC100003DC100003BC1000039C100009C
:1000700037C1000035C1000033C1000031C10000AC
:100080002FC100002DC100002BC1000029C10000BC
:100090000C94BC110C94931123C1000021C10000E9
:1000A0001FC100001DC100001BC1000019C10000DC
:1000B00017C1000015C1000013C1000011C10000EC
:1000C0000FC100000DC100000BC1000009C10000FC
:1000D00007C1000005C1000003C1000001C100000C
:1000E000FFC00000D002DF020C0315031803280331
:1000F000330350036E037903180435044504550493
:1001000065048104C804D804E804F8040805180547
:100110007505D812DB12CA12CE12D4121213DF12D6
:10012000E312E912ED12F112F712FB12FF12121391
:10013000051309130D13A413A913AE13B813C21397
:100140003B14CC13D413DC13E613F013FA13091485
:1001500013143B141D142714311400002000230035
:10016000260029002C002F003200000100000301AE
:100170000601090100002200250028002B002E00A6
:100180003100340002010000050108010B010505E2
:100190000505070508080808020202020A0A0808FD
:1001A000040404040101010101010101030303032B
:1001B00003030303040707070C0C0C0C0C0C0C0CBA
:1001C0000202020206060606060606060B0B0B0BCB
:1001D0000B0B0B0B010210202008081020401020F0
:1001E00040800201020108040201010204081020FB
:1001F00040808040201008040201800402018040F9
:100200002010080402010804020101020408102061
:100210004080010204081020408000000A0B0209FF
:100220000C0D0E0807030401000000000000000090
:1002300000000000000000000000000000000000BE
:10024000000000000000121110000000000000007B
:10025000000000000000000000000000000000009E
:1002600000002100240027002A002D003000330068
:1002700001010000040107010A013D159419112430
:100280001FBECFEFD1E2DEBFCDBF00E00CBF13E059
:10029000A0E0B2E0EAE7FDE300E00BBF02C0079098
:1002A0000D92A43FB107D9F725E0A4EFB3E001C058
:1002B0001D92A13DB207E1F711E0CEE3D1E000E0ED
:1002C00006C021970109802FFE010E946C1CCD33CE
:1002D000D10780E00807A9F70E94EC160C94AC1E29
:1002E0008FCE5F926F927F928F929F92AF92BF92CA
:1002F000CF92DF92EF92FF920F931F93CF93DF93F2
:10030000CDB7DEB7E0970FB6F894DEBF0FBECDBF16
:100310008091350490913604A0913704B09138044F
:100320000196A11DB11D8093350490933604A093CE
:100330003704B093380480912D04811109C06AE319
:1003400072E084EF93E00E943C1181E080932D04E1
:100350000E940D0E0091270410912804011511052B
:10036000A1F10E946914C0902304D0902404E0906D
:100370002504F0902604DC01CB018C199D09AE09FF
:10038000BF09C397A105B10500F1015011091093F0
:100390002804009327040E94691460932304709337
:1003A0002404809325049093260488E10E94F2118E
:1003B00061E0892B09F060E088E10E941313012BB2
:1003C00021F460E088E10E941313809122048823C5
:1003D000B9F00E94691400911E0410911F0420912D
:1003E000200430912104DC01CB01801B910BA20B76
:1003F000B30B813D9740A105B10510F00C94140A90
:1004000080911D0481119CC000911B0410911C045B
:1004100001151105A9F00E946914C0901704D0902D
:100420001804E0901904F0901A04DC01CB018C1937
:100430009D09AE09BF094F97A105B10508F0FCC79A
:100440008091F70484FD0E940D0E8091F70480FFD7
:100450004AC08E7F8093F7046EE272E0CE0101966F
:100460000E943C11CE0101960E943D0BCE010196E7
:100470000E941B110091150410911604011511051D
:1004800051F40E94691460931104709312048093D4
:100490001304909314040F5F1F4F109316040093DE
:1004A00015040E94051A25E030E040E050E00E946B
:1004B000761BDC01CB010A96A11DB11D20911B0406
:1004C00030911C04B901680F791F6F3171052CF44C
:1004D00070931C0460931B0406C08EE190E090931F
:1004E0001C0480931B04009115041091160401153F
:1004F000110531F10E946914C0901104D0901204CA
:10050000E0901304F0901404DC01CB018C199D09D8
:10051000AE09BF0989389341A105B10588F00E9451
:1005200069146093110470931204809313049093E0
:100530001404053011050CF495C781E080931D0467
:1005400080911004882341F00E946914693B7B402C
:100550008105910508F08BC70E94691400910C0475
:1005600010910D0420910E0430910F04DC01CB0199
:10057000801B910BA20BB30B853F9140A105B105E8
:1005800008F4CEC2E0910A04F0910B04E731F105C2
:1005900008F0C6C28827EE58FF4F8F4F0C946C1C92
:1005A00040913504509136046091370470913804BD
:1005B000CE0107960E94E10D6BE372E00AC00E9433
:1005C0006914AB01BC01CE0107960E94E10D63E402
:1005D00072E0CE0101960E943C11BE01695F7F4F1F
:1005E000CE0101960E94D61062E672E00E94BF1012
:1005F000BC01CE010D960E942311CE010D960E94E2
:100600003D0BCE010D960E941B11CE0101960E945A
:100610001B11CE01079656C064EF73E0CE0107961A
:100620000E9423116BE472E0D4CF63E572E041C015
:1006300086E30E94F21161E070E0892B11F060E026
:1006400070E0CE0107960E94B60D64E672E0C1CF5D
:1006500087E30E94F211BC01CE0107960E94B60DFD
:100660006DE672E0B6CF89E30E94F21161E070E0BE
:10067000892B11F060E070E0CE010D960E94B60D5E
:1006800088E30E94F21161E070E0892B11F060E0D4
:1006900070E0CE0107960E94B60D65E772E04DC18D
:1006A00080911D04811103C06EE772E002C069E809
:1006B00072E0CE0101960E943C11CE010196DDD779
:1006C000CE0101960E941B1180910A0490910B04A7
:1006D000019690930B0480930A0422C28BE30E943C
:1006E000F211BC01CE0107960E94B60D64E972E0DA
:1006F00070CF81E40E94F21161E070E0892B11F06B
:1007000060E070E0CE0185960E94B60D80E40E9404
:10071000F21161E070E0892B11F060E070E0CE0131
:100720004F960E94B60D8FE30E94F21161E070E0D7
:10073000892B11F060E070E0CE0149960E94B60D61
:100740008EE30E94F21161E070E0892B11F060E00D
:1007500070E0CE0143960E94B60D8DE30E94F21127
:1007600061E070E0892B11F060E070E0CE010D9641
:100770000E94B60D8CE30E94F21161E070E0892BBB
:1007800011F060E070E0CE0107960E94B60D6EE9B0
:1007900072E0CE0101960E943C11BE01695F7F4F5D
:1007A000CE0101960E94D610BE01635F7F4F0E946A
:1007B000D610BE016D5E7F4F0E94D610BE01675EEF
:1007C0007F4F0E94D610BE01615E7F4F0E94D610FF
:1007D000BE016B5D7F4F0E94D61062E672E00E9400
:1007E000BF10BC01CE018B960E942311CE018B96C7
:1007F00044D7CE018B960E941B11CE0101960E9418
:100800001B11CE0107960E941B11CE010D960E946E
:100810001B11CE0143960E941B11CE0149960E94E6
:100820001B11CE014F960E941B11CE0185964ACF17
:1008300083E40E94F21161E070E0892B11F060E026
:1008400070E0CE010D960E94B60D82E40E94F21176
:1008500061E070E0892B11F060E070E0CE01079656
:100860000E94B60D66EA72E068C08DE10E94F21146
:1008700061E070E0892B11F060E070E0CE01079636
:100880000E94B60D6FEA72E0A4CE8EE10E94F211D2
:1008900061E070E0892B11F060E070E0CE01079616
:1008A0000E94B60D68EB72E094CE88E20E94F211CD
:1008B00061E070E0892B11F060E070E0CE010796F6
:1008C0000E94B60D61EC72E084CE80917B0088605E
:1008D00080937B0087E480937C0080917A00806421
:1008E00080937A0080917A0086FDFCCF6091780039
:1008F00070917900CE0107960E94B60D6BEC72E004
:1009000068CE83E20E94F21161E070E0892B11F061
:1009100060E070E0CE010D960E94B60D80E30E946B
:10092000F21161E070E0892B11F060E070E0CE011F
:1009300007960E94B60D65ED72E0CE0101960E9409
:100940003C11BE01695F7F4FCE0101960E94D61017
:10095000BE01635F7F4F0E94D61062E672E00E9484
:10096000BF10BC01CE0143960E942311CE014396D5
:1009700084D6CE0143960E941B11CE0101960E949F
:100980001B11CE0107960E941B11CE010D969ACE27
:1009900089E20E94F21161E070E0892B11F060E0C1
:1009A00070E0CE0107960E94B60D6DED72E011CE9B
:1009B0008BE20E94F21161E070E0892B11F060E09F
:1009C00070E0CE0107960E94B60D66EE72E001CE91
:1009D0008FE20E94F21161E070E0892B11F060E07B
:1009E00070E0CE0107960E94B60D6FEE72E0F1CD79
:1009F00083E10E94F21161E070E0892B11F060E068
:100A000070E0CE0107960E94B60D68EF72E0E1CD6E
:100A100086E00E94F21161E070E0892B11F060E045
:100A200070E0CE0107960E94B60D61E073E0D1CD73
:100A300081E10E94F21161E070E0892B11F060E029
:100A400070E0CE0143960E94B60D87E00E94F2113D
:100A500061E070E0892B11F060E070E0CE010D964E
:100A60000E94B60D80E10E94F21161E070E0892BD6
:100A700011F060E070E0CE0107960E94B60D6AE0CA
:100A800073E0CE0101960E943C11BE01695F7F4F69
:100A9000CE0101960E94D610BE01635F7F4F0E9477
:100AA000D610BE016D5E7F4F0E94D61062E672E0E6
:100AB0000E94BF10BC01CE0149960E942311CE01B5
:100AC0004996DBD5CE0149960E941B11CE010196B5
:100AD0000E941B11CE0107960E941B11CE010D969C
:100AE0000E941B11CE014396EDCD69E372E0CE0169
:100AF00001960E943C11CE010196BFD5CE01019610
:100B00000E941B1110920B0410920A040E94691497
:100B100060930C0470930D0480930E0490930F0463
:100B200081E695E00E948312181619060CF098C30E
:100B3000FF24F39484E1C82ED12C6AE372E0CE0145
:100B400007960E943C11E1D797FD0FC08D359105A6
:100B500061F089831A8241E050E0BE016F5F7F4FF0
:100B6000CE0107960E944610EECF6AE372E0CE01F6
:100B700001960E943C118B859C85892B09F462C3E8
:100B800021E030E040E050E0BE01695F7F4FCE01E0
:100B90000D960E94501163E173E0CE010D960E9404
:100BA0002710182FCE010D960E941B11112309F456
:100BB00050C32B853C8541E050E0BE01695F7F4F0B
:100BC000CE010D960E945011BE01635F7F4FCE0192
:100BD00007960E947310CE010D960E941B116F8123
:100BE00078856115710539F04B855C8584EF93E05C
:100BF0000E94E71004C084EF93E00E94AD1065E10D
:100C000073E0CE010D960E943C118B859C8529894D
:100C10003A898C01021B130B2115310549F100970C
:100C200039F18217930720F10817190718F08C0182
:100C3000015011096F807884AD84BE84C3015524AE
:100C40005A94EE24EA944301800E911E8816990668
:100C500090F0B5010E94921E009769F09C01261940
:100C600037090217130710F0522EE32E0196EECF2C
:100C70000FEF1FEF02C0052D1E2DCE010D960E9415
:100C80001B1117FD2CC02B853C85A8014F5F5F4FC2
:100C9000BE01695F7F4FCE010D960E945011BE01CB
:100CA000635F7F4FCE0101960E947310CE010D96B7
:100CB0000E941B11980140E050E0BE01695F7F4F28
:100CC000CE010D960E945011BE01635F7F4FCE0191
:100CD00007960E947310CE010D960E941B1167E1CA
:100CE00073E0CE0107960E942710882361F0CE01A1
:100CF000019600D721E0672B682B692B09F020E0D3
:100D0000622F86E113C06FE173E0CE0107960E9467
:100D10002710882371F0CE010196ECD621E0672BD5
:100D2000682B692B09F020E0622F87E10E941313E2
:100D30006CC267E273E0CE0107960E9427108823F9
:100D400061F0CE010196D6D621E0672B682B692B86
:100D500009F020E0622F8FE1E9CF6FE273E0CE016E
:100D600007960E942710882361F0CE010196C2D613
:100D700021E0672B682B692B09F020E0622F8AE2C3
:100D8000D5CF67E373E0CE0107960E942710882332
:100D900061F0CE010196AED621E0672B682B692B5E
:100DA00009F020E0622F84E1C1CF6FE373E0CE0150
:100DB00007960E942710882329F0D0922804C09219
:100DC000270423C267E473E0CE0107960E94271030
:100DD0008823A1F0CE0101968DD621E06115710521
:100DE0008105910509F420E020930904672B682B05
:100DF000692B09F00AC260E082E098CF6FE473E0EB
:100E0000CE0107960E942710882329F0CE01019673
:100E100071D68DE28BCF67E573E0CE0107960E9415
:100E20002710882329F0CE01019664D681E37ECF76
:100E30006FE573E0CE0107960E9427108823E1F04A
:100E4000CE01019657D621E0611571058105910506
:100E500009F420E020930804672B682B692B09F024
:100E6000D4C160E083E00E94131360E084E00E943C
:100E7000131360E085E05ACF67E673E0CE01079672
:100E80000E942710882361F0CE01019633D621E01D
:100E9000672B682B692B09F420E0622F8CE246CF88
:100EA0006FE673E0CE0107960E942710882361F059
:100EB000CE0101961FD621E0672B682B692B09F420
:100EC00020E0622F88E032CF67E773E0CE0107961B
:100ED0000E942710882309F4B8C06FE773E0CE01A1
:100EE00043960E943C1169817A81CE010D960E9441
:100EF0003C11BE016D5E7F4FCE010D960E94BB1668
:100F0000182FCE010D960E941B11CE0143960E9410
:100F10001B111123B1F000E010E040E05FEF60E052
:100F200070E0C80173D50F5F1F4F0F301105A9F78F
:100F30008091DF049091E004892B09F466C19AD472
:100F400064C161E873E0CE0143960E943C1169815F
:100F50007A81CE010D960E943C11BE016D5E7F4FDD
:100F6000CE010D960E94BB16182FCE010D960E9441
:100F70001B11CE0143960E941B11112371F000E05A
:100F800010E04FEF50E060E070E0C8013FD50F5F28
:100F90001F4F0F301105A9F7CBCF63E873E0CE01E7
:100FA00043960E943C1169817A81CE010D960E9480
:100FB0003C11BE016D5E7F4FCE010D960E94BB16A7
:100FC000182FCE010D960E941B11CE0143960E9450
:100FD0001B11112371F000E010E040E050E06FEFD2
:100FE00070E0C80113D50F5F1F4F0F301105A9F72F
:100FF0009FCF65E873E0CE0143960E943C11698162
:101000007A81CE010D960E943C11BE016D5E7F4F2C
:10101000CE010D960E94BB16182FCE010D960E9490
:101020001B11CE0143960E941B11112309F480CF9E
:1010300000E010E040E050E0BA01C801E7D40F5FE3
:101040001F4F0F301105B1F773CF67E873E0CE0182
:101050000796FDD7882361F0CE0101964BD521E09C
:10106000672B682B692B09F020E0622F89E15ECEA7
:101070006FE873E0CE010796EAD7882389F060E035
:101080008AE10E941313F09222040E946914609373
:101090001E0470931F048093200490932104B5C014
:1010A00067E973E0CE010796D2D7882361F0CE01BD
:1010B000019620D521E0672B682B692B09F020E0F1
:1010C000622F8EE033CE6FE973E0CE010796BFD773
:1010D000882341F060E08FE00E94131301D361E0A8
:1010E0008FE024CE67EA73E0CE010796B0D788235D
:1010F000A1F0CE010196FED4672B682B692B09F075
:101100007CC083E40E94F211892B09F476C061E06F
:101110008BE10E94131360E0B8C16EEA73E0CE0168
:10112000079695D7882339F061E08BE10E9413136D
:1011300061E08CE1FBCD68EB73E0CE01079687D7C9
:101140008823A1F0CE010196D5D4672B682B692B9B
:1011500009F0A1C183E20E94F211892B09F49BC11D
:1011600061E085E20E94131360E0A7C160EC73E0C8
:10117000CE0107966CD7882339F061E085E20E94A2
:10118000131361E087E2D2CD6BEC73E0CE010796DA
:101190005ED7882399F025D3CE010196ABD40E9467
:1011A000EA1A20E030E040EC5FE30E94D31B0E948B
:1011B0003B1CCB01CDD2F092100427C063ED73E04D
:1011C000CE010D960E943C1164EF73E0CE010D96A6
:1011D000EDD769ED73E0D3D7BC01CE0143960E94F1
:1011E0002311CE01439649D2CE0143960E941B1192
:1011F000CE010D960E941B1125C0CE0101967AD416
:10120000672B682B692B09F036C163ED73E0CE01C3
:101210000D960E943C1164EF73E0CE010D96C6D787
:1012200066EE73E0ACD7BC01CE0143960E94231159
:10123000CE01439622D2CE014396FDD7CE010D9624
:10124000FAD707C0CE010196F6D7CE010796F3D79D
:1012500007C0CE010196EFD7CE010796ECD76DCC33
:1012600080910704882339F18BE10E94F211892BC8
:1012700041F482E40E94F211892B19F461E08BE1C0
:1012800024C18CE10E94F211892B31F483E40E9485
:10129000F211892B09F417C184E40E94F211892B01
:1012A00051F461E08BE10E94131361E08CE10E9434
:1012B00013131092070480910604882399F085E2A5
:1012C0000E94F211892B41F480E30E94F211892BD4
:1012D00019F461E085E205C187E20E94F211892BD1
:1012E00009F4F8C0809109048823B1F00E946914C0
:1012F000009102041091030420910404309105042C
:10130000DC01CB01801B910BA20BB30B8536910541
:10131000A105B10508F0EAC080910804882309F40A
:10132000FDC00E9469140091FE031091FF032091FB
:10133000000430910104DC01CB01801B910BA20B56
:10134000B30B8997A105B105B8F00E9469146093A9
:10135000FE037093FF0380930004909301040E94A6
:10136000051A24E130E040E050E00E94761B615F06
:101370007F4F83E00E947D130E9469140091FA035D
:101380001091FB032091FC033091FD03DC01CB01A4
:10139000801B910BA20BB30BC397A105B105B8F04D
:1013A0000E9469146093FA037093FB038093FC031B
:1013B0009093FD030E94051A24E130E040E050E0E4
:1013C0000E94761B615F7F4F84E00E947D130E9424
:1013D00069140091290410912A0420912B04309162
:1013E0002C04DC01CB01801B910BA20BB30BCD971E
:1013F000A105B10508F492C00E9469146093290404
:1014000070932A0480932B0490932C040E94051A55
:1014100024E130E040E050E00E94761B615F7F4FA6
:1014200085E00E947D137AC061E08AE10E94131377
:10143000109222040C9400020E9469146093170415
:10144000709318048093190490931A04B8016150A2
:10145000710970931C0460931B0482E00E947D1349
:101460000C942002109216041092150469C8109270
:10147000100415D171C882E4B5D7892B09F4C5CE03
:1014800060E08BE10E94131361E08CE10E94131372
:10149000F0920704BACECE0101962CD3672B682BAD
:1014A000692B09F4B2CE80E39DD7892B09F4ADCE28
:1014B00060E085E20E94131361E087E20E9413134B
:1014C000F0920604A2CE61E08CE10E941313109208
:1014D0000704E2CE83E286D7892B09F003CF61E0CF
:1014E00087E20E94131310920604FCCE0E94691436
:1014F00060930204709303048093040490930504A2
:101500000E94051A24E130E040E050E00E94761B82
:10151000615F7F4F82E00E947D13FECEE0960FB6A2
:10152000F894DEBF0FBECDBFDF91CF911F910F9119
:10153000FF90EF90DF90CF90BF90AF909F908F90F3
:101540007F906F905F9008958091EC04883009F44B
:1015500046C06CF4853061F12CF4823069F183303F
:1015600079F10895863099F18730A9F108958D3089
:10157000D9F02CF48B3069F08C3079F008958D32ED
:10158000C1F18E3291F18C32D1F59091200188E039
:1015900033C080918000805804C09091800080E228
:1015A00089278093800008959091800088E0F8CF8B
:1015B00080919000805808C09091900080E203C014
:1015C0009091900088E08927809390000895809101
:1015D000A000805807C09091A00080E202C09091C6
:1015E000A00089278093A000089580912001805851
:1015F00004C09091200180E2892780932001089502
:10160000FC01538D448D252F30E0842F90E0821B08
:10161000930B541710F0CF96089501970895FC018D
:10162000918D828D981761F0828DDF01A80FB11D19
:101630005D968C91928D9F5F9F73928F90E008953D
:101640008FEF9FEF0895FC01918D828D981731F0F7
:10165000828DE80FF11D858D90E008958FEF9FEF4B
:101660000895FC01918D228D892F90E0805C9F4F21
:10167000821B91098F7399270895CF93DF93EC0113
:1016800061E08AE0D0D74C815D816881798181E613
:1016900095E049D460E08AE0DF91CF91C4C78091A2
:1016A000EC0487FD1CC09091F1049923C1F0A09136
:1016B000EF04B091F004E091ED04F091EE044D914F
:1016C0005C9111972081318142175307C0F360E08C
:1016D000D8D73ADF1092F1048FEF8093EC0408958D
:1016E0008F929F92AF92BF92CF92DF92EF92FF9232
:1016F0000E9444144B015C0180EDC82E87E0D82E77
:10170000E12CF12C0E944414DC01CB0188199909C9
:10171000AA09BB09883E9340A105B10598F321E0D1
:10172000C21AD108E108F10888EE880E83E0981EFD
:10173000A11CB11CC114D104E104F10419F7FF90FC
:10174000EF90DF90CF90BF90AF909F908F900895D3
:10175000CF93DF93DC018091EC0487FD3FC0A03282
:1017600082E0B807D8F4A53BB10510F0A4EBB0E0D7
:10177000C091F204D091F3042091F4043091F50467
:101780002C1B3D0B0E94C41B24EB30E040E050E0DA
:101790000E94761BDE01A20FB31F02C0AA0FBB1F5F
:1017A000E091ED04F091EE04B183A0838091F10407
:1017B000811114C0A091EF04B091F0042D913C91DF
:1017C00011978081918128173907C0F3BDDE61E050
:1017D0008091EC0456D781E08093F104DF91CF91A2
:1017E00008958091F104811144C080E494E09093C5
:1017F000F3048093F20480EC92E19093F5048093DB
:10180000F4048EE28093EC0484E291E09093F0047F
:101810008093EF0488E291E09093EE048093ED04CE
:1018200082E0809320018AE18093210180E49CE999
:10183000909327018093260180E89BE090932D01EF
:1018400080932C0190932B0180932A01909329017E
:101850008093280120912401309125018091260157
:10186000909127018217930720F41092250110927E
:10187000240108950F931F93CF93DF93CDB7DEB765
:1018800029970FB6F894DEBF0FBECDBFFDD70091EC
:10189000E5041091E6042091E7043091E804601714
:1018A00071078207930740F46093E5047093E604A0
:1018B0008093E7049093E8040091E5041091E60416
:1018C0002091E7043091E804DC01CB01801B910BEF
:1018D000A20BB30B8C329140A105B105B8F2F8947C
:1018E0008091DA049091DB049A838983E091DF048C
:1018F000F091E004DF011196808189879091D604F0
:10190000E091E904F091EA048091EB04992309F451
:101910002EC09081982B98879081809589238F8302
:101920008F818C8388E08B8358856F8149853B81CB
:101930002C8189819A81508347FD252F3A952083F8
:10194000262F39F0441F00C000006083000000C053
:10195000F2CF38E04D9160830000019761F7F0937A
:10196000EA04E093E90449873B832C8338C09081E3
:10197000982B98879081809589238F838F818E8380
:1019800088E08D8358856F8149853D812E818981CD
:101990009A81508347FD252F00C000C0208300C0DE
:1019A00000C000C000C000C060830000262F3A9530
:1019B00041F0441F000000C000C000C000C000C0D3
:1019C000E8CF38E04D9100C0608300C0019709F76F
:1019D000F093EA04E093E90449873D832E839A83D8
:1019E0008983789451D76093E5047093E6048093DB
:1019F000E7049093E80429960FB6F894DEBF0FBE73
:101A0000CDBFDF91CF911F910F9108958F929F923B
:101A1000AF92BF92CF92DF92EF92FF92CF93DF937C
:101A20002091D8043091D9048217930708F057C049
:101A30004B01AA24BB24F82DC52ED62EE72EFF2459
:101A4000AC2DE42F2091DE04222361F0829E400120
:101A50001124F92D2C9D60011124AD2D249FE0014E
:101A60001124ED2F3091E404B091E104E090DF0403
:101A7000F090E0043B1308C09C01220F331F820F3B
:101A8000931F8E0D9F1D19C0880F991F880F991FD6
:101A90008E0D9F1D472F552766277727EC01C30F13
:101AA000D11D222349F030E0249F7001259FF00CC6
:101AB000349FF00C11244F2D48832091E104EC0158
:101AC000C20FD11DF8832091E204EC01C20FD11D99
:101AD000A8832091E304DC01A20FB11DEC93DF91F8
:101AE000CF91FF90EF90DF90CF90BF90AF909F90FD
:101AF0008F900895FC0180819181009711F00C94E2
:101B0000591A60E070E0CB0108950F931F93E1D65E
:101B10006093690570936A0580936B0590936C05DB
:101B200081E695E006D597FF1EC0D3D600916905E2
:101B300010916A0520916B0530916C05DC01CB0199
:101B4000801B910BA20BB30B0091650510916605EC
:101B5000209167053091680580179107A207B307A8
:101B6000F8F28FEF9FEF1F910F9108950F931F933E
:101B7000CF93DF93CDB7DEB762970FB6F894DEBF91
:101B80000FBECDBF8C01CB01F801118210821382F0
:101B90001282158214824AE0BE016F5F7F4F0E945D
:101BA0007F1ABE016F5F7F4FC80130D362960FB6B8
:101BB000F894DEBF0FBECDBFDF91CF911F910F9183
:101BC00008950F931F93CF93DF93CDB7DEB7A197FF
:101BD0000FB6F894DEBF0FBECDBF8C01CB01BA01AA
:101BE000F8011182108213821282158214822AE077
:101BF000AE014F5F5F4F0E949E1ABE016F5F7F4F25
:101C0000C80104D3A1960FB6F894DEBF0FBECDBFB6
:101C1000DF91CF911F910F910895CF92DF92EF92B4
:101C2000FF920F931F938091F70482FD17C085FDEB
:101C300015C0E0910A05F0910B05208190910C05EB
:101C400081FB332730F983FB882780F983272923F9
:101C500091E009F090E08927809308053AD6AB011E
:101C6000BC0190910805209109058091F604992303
:101C700041F1211126C080FD02C081607FC000912A
:101C800004051091050520910605309107056A01AC
:101C90007B01C01AD10AE20AF30A0091F9041091FB
:101CA000FA0420E030E0C016D106E206F30608F49C
:101CB0006FC021E020930905806280688093F6045C
:101CC0003AC08E7F8093F60491112FC0222309F42D
:101CD0005FC01092090581FD05C0809101058F5FED
:101CE000809301058091F6048D7F80618093F604D6
:101CF000409304055093050560930605709307050E
:101D000086FF07C010920205109201058F7B809319
:101D1000F6048091F60487FF3BC08F778093F6042A
:101D20008091F70481608093F704809109058823EE
:101D300079F1992369F1009104051091050520912D
:101D40000605309107056A017B01C01AD10AE20A33
:101D5000F30A0091FB041091FC0420E030E0C0166F
:101D6000D106E206F306A0F08091F60481FD10C0D2
:101D700020910105209303058A648F778093F604F0
:101D8000409304055093050560930605709307057D
:101D90000091040510910505209106053091070575
:101DA000401B510B620B730B0091FD041091FE045C
:101DB00020E030E0401751076207730778F0809108
:101DC0000105882359F0911109C0809302051092F2
:101DD00001058091F60484608093F6048091F704F5
:101DE00086FF0AC0109202059091F6049B7F9093A3
:101DF000F6048F7B8093F7041F910F91FF90EF9073
:101E0000DF90CF900895FC01848DDF01A80FB11DF4
:101E1000A35ABF4F2C91848D90E001968F73992720
:101E2000848FA689B7892C93A089B1898C918370FE
:101E300080648C93938D848D981306C00288F389F7
:101E4000E02D80818F7D80830895EF92FF920F9324
:101E50001F93CF93DF93EC0181E0888F9B8D8C8D56
:101E6000981305C0E889F989808185FD25C0F62E83
:101E70000B8D10E00F5F1F4F0F731127E02E8C8D1D
:101E8000E8120BC00FB607FCFACFE889F989808108
:101E900085FFF5CFCE01B7DFF2CF8B8DFE01E80FC6
:101EA000F11DE35AFF4FF0829FB7F8940B8FEA8938
:101EB000FB89808180620AC09FB7F894EE89FF8910
:101EC0006083E889F98980818370806480839FBF03
:101ED00081E090E0DF91CF911F910F91FF90EF9003
:101EE0000895CF93DF93EC01888D8823C1F0EA89B0
:101EF000FB89808185FD05C0A889B9898C9186FD03
:101F00000EC00FB607FCF5CF808185FFF2CFA88900
:101F1000B9898C9185FFEDCFCE0175DFE8CFDF91D8
:101F2000CF9108950895CF92DF92EF92FF920F9391
:101F30001F93CF93DF936C017A018B01C0E0D0E057
:101F4000CE15DF0581F0D8016D918D01D601ED919F
:101F5000FC910190F081E02DC6011995892B11F0BB
:101F60002196EECF7E01C701DF91CF911F910F9196
:101F7000FF90EF90DF90CF90089589E394E071DBBC
:101F800021E0892B09F420E0822F089580E090E081
:101F9000892B41F080E090E0892B21F00E94000025
:101FA000811120C080E090E0892B19F0E6DF8111DB
:101FB0001CC080E090E0892B41F080E090E0892B0C
:101FC00021F00E940000811113C080E090E0892B75
:101FD000A1F080E090E0892B81F00E940000811147
:101FE0000AC008950E940000DDCF0E940000E1CFEA
:101FF0000E940000EACF0C94000008950E94751E14
:102000000F931F93CF93DF93EC0188819981009701
:1020100029F02A813B812617370788F48B016F5FEF
:102020007F4F0E94951D009761F0998388831B83E1
:102030000A832C813D81232B11F4FC01108281E065
:1020400001C080E0DF91CF911F910F910895FC01B5
:1020500024813581232B31F421E061157105A1F034
:10206000FB0108C0FC01808191816115710531F48B
:1020700021E0FC018081882339F005C00E94821E86
:1020800021E0892B09F020E0822F0895EF92FF9242
:102090000F931F93CF93DF936115710511F480E0C7
:1020A0001BC041155105B9F07B01EC018C819D816C
:1020B0008A01080F191FB801CE01A2DF882379F326
:1020C000288139818C819D81B701820F931F0E94E5
:1020D0008B1E1D830C8381E0DF91CF911F910F91A7
:1020E000FF90EF9008950F931F93CF93DF938C0190
:1020F000EB01FC0180819181009739F06881798141
:1021000061157105A1F40E940C1D88819981F80167
:10211000918380838A819B81938382838C819D813B
:1021200095838483198218821B821A820FC0F8015A
:10213000428153812C813D814217530720F30E9435
:102140008B1E8C819D81F801958384831D821C8266
:10215000DF91CF911F910F910895CF93DF93EC0101
:1021600088819981009711F00E940C1D19821882B4
:102170001D821C821B821A82DF91CF910895CF931A
:10218000DF93EC016115710559F0FB01019000200E
:10219000E9F73197AF01461B570B78DF811102C079
:1021A000CE01DBDFCE01DF91CF910895CF93DF9396
:1021B000EC01FB01448155816081718167DF8111F0
:1021C00002C0CE01CADFCE01DF91CF910895EF9218
:1021D000FF920F931F93CF93DF93EC017B018A0152
:1021E000BA010EDF811103C0CE01B7DF07C01D8326
:1021F0000C83B701888199810E948B1ECE01DF91EB
:10220000CF911F910F91FF90EF900895CF93DF939F
:10221000EC016115710551F0FB0101900020E9F717
:102220003197AF01461B570BD2DF01C096DFCE01BD
:10223000DF91CF910895FC0180819181009711F089
:102240000C940C1D0895FB01DC0111961C921E924A
:1022500013961C921E92129715961C921E9214971A
:102260008617970741F0608171816115710519F03A
:1022700044815581ACCF0895FC01118210821382F4
:102280001282158214826115710549F0FB010190DB
:102290000020E9F73197AF01461B570B98CF0895FF
:1022A000BF92CF92DF92EF92FF920F931F93CF9343
:1022B000DF937C016B018A01E9012417350720F4C3
:1022C000812F8901C42FD82F6AE372E0C701D4DFC0
:1022D000D60114968D919C91159708171907C0F493
:1022E0008C179D0708F4EC01D601ED91FC91119734
:1022F000EC0FFD1FB08010826D917C91600F711FFB
:10230000C70184DFD601ED91FC91EC0FFD1FB08277
:10231000C701DF91CF911F910F91FF90EF90DF9058
:10232000CF90BF9008951F920F920FB60F92112475
:102330000BB60F922F933F934F935F936F937F93BF
:102340008F939F93AF93BF93EF93FF9389E394E0B1
:102350005ADDFF91EF91BF91AF919F918F917F9146
:102360006F915F914F913F912F910F900BBE0F9006
:102370000FBE0F901F9018951F920F920FB60F92DD
:1023800011240BB60F922F938F939F93EF93FF938C
:10239000E0914904F0914A048081E0914F04F0916A
:1023A000500482FD12C09081809152048F5F8F7320
:1023B00020915304821751F0E0915204F0E0E75C61
:1023C000FB4F958F8093520401C08081FF91EF9164
:1023D0009F918F912F910F900BBE0F900FBE0F907A
:1023E0001F901895CF93DF93282F30E0F901E65E18
:1023F000FD4F8491F901EC52FE4FD491F901E2575F
:10240000FE4FC491CC2389F08111B7D0EC2FF0E0BE
:10241000EE0FFF1FE65AFE4FA591B491EC91ED230C
:1024200081E090E021F480E002C080E090E0DF9164
:10243000CF9108952091820530918305281739079F
:1024400071F49091800580918105981741F0E09199
:102450008005F0E0EC57FA4F808190E008958FEF0F
:102460009FEF089508951F93CF93DF93DC015C964F
:102470008D919C915D97009739F421E030E013969F
:102480003C932E9312973BC05196ED91FC9152973D
:1024900050962C915097322F30951FB75E964C91E5
:1024A0005E97742F727041FD6095F8944081772398
:1024B00011F0422B01C043234083EC012197F1F737
:1024C00048E0508160FF02C0522B01C0532350836B
:1024D000EC012197F1F76695415099F780817723B8
:1024E00019F08323808302C0282B20831FBF5C96B2
:1024F0008D919C915D970197F1F781E090E0DF91DC
:10250000CF911F910895209182053091830528175E
:10251000390761F4809181052091800590E0805C0D
:102520009F4F821B91098F739927089580E090E057
:102530000895209182053091830528173907B9F451
:102540009091800580918105981789F0E091800530
:10255000F0E0EC57FA4F80812091800530E02F5F4A
:102560003F4F2F7333272093800590E008958FEF1E
:102570009FEF089580E090E0089590E0FC0131978E
:10258000E231F10508F04EC08827E757FF4F8F4F23
:102590000C946C1C809180008F7703C08091800028
:1025A0008F7D80938000089580918000877FF9CF90
:1025B00084B58F7702C084B58F7D84BD08958091E6
:1025C000B0008F7703C08091B0008F7D8093B00002
:1025D0000895809190008F7707C0809190008F7D43
:1025E00003C080919000877F809390000895809130
:1025F000A0008F7707C08091A0008F7D03C08091DD
:10260000A000877F8093A0000895809120018F779C
:1026100007C0809120018F7D03C080912001877FBA
:102620008093200108951F93CF93DF93282F30E0EC
:10263000F901E65EFD4F8491F901EC52FE4FD49111
:10264000F901E257FE4FC491CC23B9F0162F811146
:1026500094DFEC2FF0E0EE0FFF1FEC58FE4FA5913A
:10266000B4919FB7F894111104C08C91D095D823E0
:1026700002C0EC91DE2BDC939FBFDF91CF911F91C5
:102680000895CF93DF9390E0FC01EC52FE4F24912C
:10269000FC01E257FE4F8491882361F190E0880F9E
:1026A000991FFC01E05AFD4FC591D491FC01EC58F3
:1026B000FE4FA591B491611109C09FB7F89488812C
:1026C000209582238883EC912E230BC0623061F425
:1026D0009FB7F8948881322F309583238883EC91BB
:1026E0002E2B2C939FBF06C08FB7F894E8812E2B1A
:1026F00028838FBFDF91CF9108951F93CF93DF93EE
:10270000182FEB0161E0BDDF209711F460E004C0F9
:10271000CF3FD10531F461E0812FDF91CF911F913F
:1027200082CFE12FF0E0E65EFD4FE4918E2F90E046
:10273000FC013197E231F10508F09DC08827E5568C
:10274000FF4F8F4F0C946C1C84B5806884BDC7BD4F
:1027500097C084B5806284BDC8BD92C0809180005E
:10276000806880938000D0938900C093880088C0DF
:1027700080918000806280938000D0938B00C09312
:102780008A007EC080918000886080938000D09312
:102790008D00C0938C0074C08091B00080688093DD
:1027A000B000C093B3006CC08091B0008062809391
:1027B000B000C093B40064C08091900080688093A2
:1027C0009000D0939900C09398005AC080919000D7
:1027D000806280939000D0939B00C0939A0050C079
:1027E00080919000886080939000D0939D00C0936A
:1027F0009C0046C08091A00080688093A0008091DA
:10280000A0008F7B8093A000D093A900C093A80064
:1028100037C08091A00080628093A000D093AB006D
:10282000C093AA002DC08091A00088608093A00072
:10283000D093AD00C093AC0023C08091200180688C
:1028400080932001D0932901C093280119C0809161
:102850002001806280932001D0932B01C0932A0134
:102860000FC080912001886080932001D0932D01BA
:10287000C0932C0105C0C038D1050CF04CCF46CF19
:10288000DF91CF911F9108953FB7F8948091C905CA
:102890009091CA05A091CB05B091CC0526B5A89B17
:1028A00005C02F3F19F00196A11DB11D3FBFBA2FE2
:1028B000A92F982F8827820F911DA11DB11DBC0142
:1028C000CD0142E0660F771F881F991F4A95D1F707
:1028D00008952FB7F8946091C5057091C605809151
:1028E000C7059091C8052FBF08951F920F920FB68C
:1028F0000F9211242F933F938F939F93AF93BF9386
:102900008091C5059091C605A091C705B091C805F5
:102910003091C40523E0230F2D3720F40196A11D2B
:10292000B11D05C026E8230F0296A11DB11D2093FD
:10293000C4058093C5059093C605A093C705B093C1
:10294000C8058091C9059091CA05A091CB05B091A9
:10295000CC050196A11DB11D8093C9059093CA05B0
:10296000A093CB05B093CC05BF91AF919F918F9170
:102970003F912F910F900FBE0F901F9018951F92AF
:102980000F920FB60F9211240BB60F922F933F9315
:102990004F935F936F937F938F939F93AF93BF9367
:1029A000EF93FF93E0918205F0918305309709F44E
:1029B00051C0968DA685B785858591FF04C09C91F1
:1029C000892329F447C09C91892309F043C0A38936
:1029D000B4899C918589809589238C938689978970
:1029E0000197F1F7608D718DA685B785558538E023
:1029F00020E0CB010197F1F7822F90E09595879524
:102A0000282F4C91452309F02068315091F7868D8D
:102A100081FD20958091810590E001968F73992723
:102A200030918005381749F0A0918105B0E0AC578E
:102A3000BA4F2C938093810503C0868D8160868F69
:102A4000828D938D0197F1F7A389B4899C91858933
:102A5000892B8C93FF91EF91BF91AF919F918F91B3
:102A60007F916F915F914F913F912F910F900BBE8E
:102A70000F900FBE0F901F90189510923C0410926B
:102A80003B0488EE93E0A0E0B0E080933D04909397
:102A90003E04A0933F04B09340042EE032E0309314
:102AA0003A04209339042DEC30E03093460420930F
:102AB00045042CEC30E0309348042093470428EC84
:102AC00030E030934A042093490429EC30E03093FD
:102AD0004C0420934B042AEC30E030934E042093B6
:102AE0004D042EEC30E03093500420934F041092AC
:102AF00052041092530410925404109255041092F0
:102B00006405109263058093650590936605A09314
:102B10006705B093680580E292E090936205809328
:102B20006105109278051092770510927A0510923F
:102B3000790510927C0510927B0510927E0510920B
:102B40007D0560917F056E7F6D7F60937F05669543
:102B5000617081E068278BE066DD61E08BE091DDEC
:102B6000EFEDF1E0E491E0937105E9E9F1E0E49142
:102B7000F0E0EE0FFF1FEC58FE4F8591949190937B
:102B800073058093720560E08CE07BDD80917F05AA
:102B900081FD03C061E08CE046DD8CE080936D0533
:102BA000E0EEF1E0E491E0936E05EAE9F1E0E49112
:102BB000F0E0EE0FFF1FE65AFE4F8591949190933F
:102BC000700580936F0560E283E595E083D361E251
:102BD00085E495E07FD362E287E395E07BD364E20E
:102BE00089E295E077D366E28BE195E073D369E003
:102BF0008DE095E06FD38CE390E09093FA0480939E
:102C0000F90484EF91E09093FC048093FB0490938B
:102C1000FE048093FD0480E991E090930005809389
:102C2000FF04109201051092020510920305109204
:102C300004051092050510920605109207051092E2
:102C40000805109209058AE38093F8048091F7043F
:102C50008F7D877F8093F70462E08AE312DD8091A5
:102C6000F80490E0FC01E257FE4FE491F0E0EE0F33
:102C7000FF1FE65AFE4F2591349130930B052093A8
:102C80000A05FC01EC52FE4FE491E0930C058091A3
:102C9000F7048B7E8D7F8093F7048FEF8093EC0495
:102CA0001092F10480E292E09093F3048093F20496
:102CB00080E699E09093F5048093F4041092D70491
:102CC0001092DE041092E5041092E6041092E704DC
:102CD0001092E8041092E4041092E10481E08093E1
:102CE000E20492E09093E3048093D6048DE290E0B6
:102CF0009093DB048093DA04F7D59093E0048093FB
:102D0000DF04009761F02DE2FC0111922A95E9F7AA
:102D10008FE090E09093D9048093D80408C010927B
:102D2000DB041092DA041092D9041092D80482E1E4
:102D300090E09093DD048093DC048091D704882395
:102D400031F061E082E19DDC60E082E16CDCE0EA90
:102D5000F1E0E491F0E0EE0FFF1FEC58FE4F85919B
:102D600094919093EA048093E904E6EEF1E0E49113
:102D7000E093EB040895FC0124813581FB0144813B
:102D800055812417350719F5FC0180819181FB01DC
:102D900060817181009719F061157105A1F46115C9
:102DA000710549F0232BA9F0FB01808190E09195FA
:102DB0008195910909C0009761F0232B51F0FC0126
:102DC000808190E001C09ED721E0892B19F020E09E
:102DD00001C021E0822F0895CF93DF9300D000D06F
:102DE000CDB7DEB7789484B5826084BD84B5816048
:102DF00084BD85B5826085BD85B5816085BD8091C6
:102E00006E00816080936E0010928100809181003D
:102E10008260809381008091810081608093810035
:102E2000809180008160809380008091B1008460F7
:102E30008093B1008091B00081608093B000809158
:102E400091008260809391008091910081608093D5
:102E50009100809190008160809390008091A1000A
:102E600082608093A1008091A10081608093A10085
:102E70008091A00081608093A000809121018260F8
:102E800080932101809121018160809321018091B3
:102E9000200181608093200180917A00846080937A
:102EA0007A0080917A00826080937A0080917A0023
:102EB000816080937A0080917A00806880937A00A4
:102EC0001092C10010927C0510927B0510927A0539
:102ED00010927905109278051092770582E490E0BF
:102EE00090937E0580937D0580916D0596EF980FF8
:102EF000943048F02EEC280F243028F022EC280FD4
:102F0000283008F072C02FE030E03093780520932D
:102F1000770520E430E030937A052093790527E2A5
:102F200030E030937C0520937B05943060F02EECEC
:102F3000280F243040F022EC280F283008F0C2C1BE
:102F4000A8E6B0E0C1C1A8E6B0E0E8E6F0E0208184
:102F5000943048F09EEC980F943028F08E538830CF
:102F600010F484E001C081E0822B8C9380916D0588
:102F700096EF980F943058F02EEC280F243038F04C
:102F800022EC280F283030F020E030E005C02BE69E
:102F900030E002C02DE630E03093750520937405D3
:102FA000943010F49AEF0BC0823381F0833381F0B8
:102FB000843381F092EC980F983070F492EC980F73
:102FC00081E001C0880F9A95EAF707C088E005C044
:102FD00084E003C082E001C081E0809376058091A7
:102FE0007D0590917E050197F1F780917B05909189
:102FF0007C05892B49F1E0918205F091830585E0FC
:10300000E136F80709F1309739F0A389B4899C912A
:103010008589809589238C9380917F058E7F80930D
:103020007F05109281051092800581E695E09093CE
:10303000830580938205E0917405F0917505908178
:1030400080917605892B808388EC90E0A0E0B0E049
:103050008093650590936605A0936705B093680516
:1030600061E08AE00EDB60E08AE0DDDA69E372E0CD
:10307000CE01019601D9CE0101960E943D0BCE01F1
:103080000196D9D88091DC049091DD0497FD06C0AB
:1030900061E0F7DA60E08091DC04C5DA81E08093DA
:1030A000D7042091DE04222331F10091DF04109136
:1030B000E004215049F030E040E050E06FEF7FEF56
:1030C00080E090E013D302C020E030E0F8014091AE
:1030D000DA045091DB04CF01801B910B8417950714
:1030E00040F44081429FC001439F900D1124919371
:1030F000EECF1092DE0400E010E040E050E0BA01B4
:10310000C8010E94060D0F5F1F4F0F301105A9F770
:103110008091DF049091E004892B11F00E943A0C19
:1031200062E086E3AEDA61E086E1ABDA61E086E197
:103130007ADA60E087E3A5DA62E088E3A2DA62E0A7
:1031400089E39FDA61E087E19CDA61E087E16BDA8D
:1031500061E088E196DA61E082E093DA62E08BE395
:1031600090DA61E089E18DDA61E089E15CDA61E0C1
:103170008AE187DA61E08AE156DA62E08CE381DA9B
:1031800062E08DE37EDA62E08EE37BDA62E08FE379
:1031900078DA62E080E475DA62E081E472DA62E0B3
:1031A00082E46FDA62E083E46CDA61E08BE169DA91
:1031B00061E08BE138DA61E08CE163DA61E08CE1B7
:1031C00032DA62E084E45DDA62E08DE15ADA62E0EC
:1031D0008EE157DA61E08FE154DA61E08FE123DAC2
:1031E00062E088E24EDA61E08AE24BDA61E08AE28C
:1031F0001ADA61E08CE245DA60E085E442DA61E007
:1032000088E03FDA62E080E33CDA62E083E239DAC8
:1032100061E085E236DA61E08BE105DA61E087E2C0
:1032200030DA61E08CE1FFD962E089E22ADA62E01B
:103230008BE227DA61E08DE224DA62E08FE221DAC4
:1032400061E081E31EDA61E08EE01BDA61E08EE08E
:10325000EAD961E08FE015DA61E08FE0E4D961E05E
:1032600085E10FDA61E085E1DED962E083E109DA28
:1032700061E084E106DA61E084E1D5D90E94F10BD6
:1032800080E090E00E94A80B0E94700B0E944F0B00
:1032900062E086E0F6D962E080E1F3D962E087E09F
:1032A000F0D962E081E1EDD961E083E0EAD961E043
:1032B00084E0E7D961E085E0E4D90E9471010E94D1
:1032C000C60FFBCFA0E0B0E0283008F43ECEE0E02F
:1032D000F0E03DCE1F93CF93DF93EC01162F60E01B
:1032E000812FCFD9612F70E0FB01EC52FE4FE491AA
:1032F000E883FB01E257FE4FE491F0E0EE0FFF1F81
:10330000E65AFE4F859194919A8389831B861D8688
:103310001C86FE013B9623961292EC17FD07E1F7FF
:10332000DF91CF911F9108958091DF049091E00487
:1033300073D38091DC049091DD0497FD02C060E0BE
:10334000A0D980E292E0909362058093610580911C
:103350008205909183058156954071F4E091740542
:10336000F091750590818091760580958923808301
:10337000109283051092820508958F929F92AF92CA
:10338000BF92CF92DF92EF92FF92CF93DF93EC0147
:10339000688179818A819B8161157105810591051B
:1033A00021F464E279ED8BE597E02DE133EF41E024
:1033B00050E09CD149015A019B01AC01A7EAB1E45C
:1033C000B1D16B017C01ACEEB4EFA5019401B6D193
:1033D000DC01CB018C0D9D1DAE1DBF1DB7FF03C0D1
:1033E0000197A109B04888839983AA83BB83BC0154
:1033F000CD019F77DF91CF91FF90EF90DF90CF903D
:10340000BF90AF909F908F9008958F929F92AF92B0
:10341000BF92CF92DF92EF92FF9260910002709183
:1034200001028091020290910302611571058105EC
:10343000910521F464E279ED8BE597E02DE133EF1E
:1034400041E050E053D149015A019B01AC01A7EA88
:10345000B1E468D16B017C01ACEEB4EFA50194013D
:103460006DD1DC01CB018C0D9D1DAE1DBF1DB7FFC5
:1034700003C00197A109B048809300029093010214
:10348000A0930202B0930302BC01CD019F77FF908D
:10349000EF90DF90CF90BF90AF909F908F90089566
:1034A00060930002709301028093020290930302E2
:1034B00008951F93FC0199278827BC01E894119176
:1034C0001032E9F3193010F01E30C8F31B3249F006
:1034D0001D3241F4689405C01CD0610F711D811D1F
:1034E000911D119110531A30B8F33EF490958095C8
:1034F000709561957F4F8F4F9F4F1F910895BB2708
:103500004A3031F4992322F4BDE2909581959F4F82
:1035100037C0592F482F372F262F660F771F881F48
:10352000991F660F771F881F991F620F731F841FD3
:10353000951F660F771F881F991F0895BB27FA01F3
:10354000A62F6217710581059105330B30FB66F0DC
:10355000AA27660F771F881F991FAA1FA21710F0AE
:10356000A21B63953850A9F7A05DAA3308F0A95DA6
:10357000A19336F7B111B1931082CA0119C0BB27CC
:10358000FB015527AA27880F991FAA1FA41710F01F
:10359000A41B83955051B9F7A05DAA3308F0A95D2B
:1035A000A193009779F7B111B1931192CB0100C0AB
:1035B000DC01FC01672F71917723E1F7329704C09A
:1035C0007C916D9370836291AE17BF07C8F3089525
:1035D000E89409C097FB3EF49095809570956195AD
:1035E0007F4F8F4F9F4F9923A9F0F92F96E9BB2763
:1035F0009395F695879577956795B795F111F8CFDF
:10360000FAF4BB0F11F460FF1BC06F5F7F4F8F4F49
:103610009F4F16C0882311F096E911C0772321F03F
:103620009EE8872F762F05C0662371F096E8862FD7
:1036300070E060E02AF09A95660F771F881FDAF72E
:10364000880F9695879597F9089597F99F6780E871
:1036500070E060E008959FEF80EC089500240A94E4
:103660001616170618060906089500240A9412165D
:103670001306140605060895092E0394000C11F490
:10368000882352F0BB0F40F4BF2B11F460FF04C03D
:103690006F5F7F4F8F4F9F4F089557FD9058440F96
:1036A000551F59F05F3F71F04795880F97FB991FA1
:1036B00061F09F3F79F0879508951216130614065E
:1036C000551FF2CF4695F1DF08C0161617061806EB
:1036D000991FF1CF86957105610508940895E894C6
:1036E000BB2766277727CB0197F90895052E97FB0F
:1036F00016F400940FD057FD05D024D007FC02D05B
:1037000046F408C050954095309521953F4F4F4F56
:103710005F4F089590958095709561957F4F8F4F7D
:103720009F4F089531D0A59F900DB49F900DA49FF9
:10373000800D911D11240895B7FFF4CFF3DF821B94
:10374000930B0895A1E21A2EAA1BBB1BFD010DC00D
:10375000AA1FBB1FEE1FFF1FA217B307E407F50741
:1037600020F0A21BB30BE40BF50B661F771F881F1D
:10377000991F1A9469F760957095809590959B01B3
:10378000AC01BD01CF010895A29FB001B39FC0015C
:10379000A39F700D811D1124911DB29F700D811D7D
:1037A0001124911D08950CD067CF5FDF40F056DFE4
:1037B00030F021F45F3F19F048CF511191CF4BCF3A
:1037C0006CDF98F39923C9F35523B1F3951B550B7F
:1037D000BB27AA2762177307840738F09F5F5F4FE4
:1037E000220F331F441FAA1FA9F333D00E2E3AF025
:1037F000E0E830D091505040E695001CCAF729D03F
:10380000FE2F27D0660F771F881FBB1F261737078D
:103810004807AB07B0E809F0BB0B802DBF01FF27BD
:1038200093585F4F2AF09E3F510568F00ECF58CF56
:103830005F3FECF3983EDCF3869577956795B795F7
:10384000F7959F5FC9F7880F911D9695879597F912
:103850000895E1E0660F771F881FBB1F621773078B
:103860008407BA0720F0621B730B840BBA0BEE1FA0
:1038700088F7E095089504D06894B11131CF089588
:1038800014DF88F09F5790F0B92F9927B751A0F017
:10389000D1F0660F771F881F991F1AF0BA95C9F7E4
:1038A00012C0B13081F01BDFB1E0089518CF672F4F
:1038B000782F8827B85F39F0B93FCCF38695779594
:1038C0006795B395D9F73EF490958095709561957D
:1038D0007F4F8F4F9F4F0895EE0FFF1F881F8BBFA5
:1038E0000790F691E02D19940F931F93CF93DF93D8
:1038F0008230910510F482E090E0E091CF05F091E4
:10390000D00520E030E0A0E0B0E0309719F1408130
:1039100051810281138148175907C8F08417950710
:1039200069F4109731F012960C93129713961C932A
:1039300027C00093CF051093D00522C02115310573
:1039400019F04217530718F49A01BD01EF01DF0186
:10395000F801DBCF21153105F9F0281B390B243094
:10396000310580F48A819B816115710521F0FB018D
:103970009383828304C09093D0058093CF05FE018A
:10398000329644C0FE01E20FF31F819391932250BF
:103990003109398328833AC02091CD053091CE0575
:1039A000232B41F420910602309107023093CE057B
:1039B0002093CD0520910402309105022115310597
:1039C00041F42DB73EB74091080250910902241BE3
:1039D000350BE091CD05F091CE05E217F307A0F489
:1039E0002E1B3F0B2817390778F0AC014E5F5F4F55
:1039F0002417350748F04E0F5F1F5093CE054093B4
:103A0000CD058193919302C0E0E0F0E0CF01DF911A
:103A1000CF911F910F910895CF93DF93009709F4F1
:103A200081C0FC01329713821282A091CF05B09120
:103A3000D005109781F420813181820F931F20914E
:103A4000CD053091CE052817390751F5F093CE05F5
:103A5000E093CD0567C0ED0120E030E0CE17DF0731
:103A600040F44A815B819E0141155105F1F0EA0164
:103A7000F5CFD383C28340815181840F951FC8172E
:103A8000D90759F488819981840F951F02969183F3
:103A900080838A819B81938382832115310529F458
:103AA000F093D005E093CF053DC0E901FB83EA83A5
:103AB00049915991C40FD51FEC17FD0761F480811E
:103AC0009181840F951F0296E901998388838281F1
:103AD00093819B838A83E0E0F0E012968D919C9124
:103AE0001397009719F0FD01DC01F7CF8D919C91A0
:103AF00011979D012E5F3F4F820F931F2091CD059F
:103B00003091CE052817390769F4309729F41092BF
:103B1000D0051092CF0502C013821282B093CE0559
:103B2000A093CD05DF91CF9108956F927F928F92F0
:103B30009F92AF92BF92CF92DF92EF92FF920F933C
:103B40001F93CF93DF93009781F4CB01DF91CF9147
:103B50001F910F91FF90EF90DF90CF90BF90AF90AB
:103B60009F908F907F906F90BFCEFC01E60FF71F64
:103B70009C0122503109E217F30708F4A5C0EC01BB
:103B8000D9010D911C91119706171707A8F0053060
:103B9000110508F497C0C80104978617970708F421
:103BA00091C002501109061B170B019311936D93DD
:103BB0007C93CF0131DF86C05B01A01AB10A4C01B2
:103BC000800E911EA091CF05B091D005612C712C73
:103BD000E12CF12C109709F446C08D919C9111971E
:103BE000A815B905B1F56C0142E0C40ED11CCA1488
:103BF000DB0478F14C018A189B08640142E0C40E92
:103C0000D11C1296BC9012971396AC91B5E0CB16CE
:103C1000D10440F0B282A38391828082D9016D9356
:103C20007C9309C00E5F1F4F800F911FF901918394
:103C30008083EB2DFA2FE114F10431F0D7011396B4
:103C4000FC93EE9312973EC0F093D005E093CF051E
:103C500039C06816790608F43C017D0112960D9072
:103C6000BC91A02DB7CF8091CD059091CE0588163F
:103C70009906E1F466167706C8F4809104029091E3
:103C80000502009741F48DB79EB74091080250910C
:103C90000902841B950BE817F907B0F4F093CE05E1
:103CA000E093CD05F901718360830CC0CB011CDE6C
:103CB0007C01009749F0A801BE011BD0CE01ACDE0B
:103CC000C70104C0CE0102C080E090E0DF91CF9137
:103CD0001F910F91FF90EF90DF90CF90BF90AF902A
:103CE0009F908F907F906F90089581E090E0F8947E
:103CF00033C0FB01DC0102C001900D9241505040E5
:103D0000D8F70895FB01DC018D9101908019011015
:103D1000D9F3990B0895FB01DC0101900D9200206D
:103D2000E1F70895FB0151915523A9F0BF01DC0192
:103D30004D9145174111E1F759F4CD010190002053
:103D400049F04D9140154111C9F3FB014111EFCFED
:103D500081E090E00197089511E0CEE3D1E000E02A
:103D600005C0802FFE01B8DD2196011DCF33D1079C
:0A3D700080E00807B1F7F894FFCFD8
:103D7A00010000000000D105200000000000250F0E
:103D8A00930F000B710F310B0F0B230B0000000078
:103D9A003312930FBA123212831299121A120A7B31
:103DAA00732E646D2E733A617D0A007B732E642E26
:103DBA006E3A007B732E642E743A007B732E642E47
:103DCA00633A007B692E622E6E3A4D4547415F3158
:103DDA0032337D007B732E66642E733A007B732E1A
:103DEA00682E6D3A007B732E67642E733A007B73DC
:103DFA002E646D2E733A697D007B732E646D2E736B
:103E0A003A737D007B732E62746E2E733A007B7355
:103E1A002E742E733A007B732E74642E733A007BD1
:103E2A00732E62742E733A007B732E61722E733A6C
:103E3A00007B732E636A642E733A007B732E616E65
:103E4A002E73653A007B732E732E6C3A007B732EA9
:103E5A00732E6D613A007B732E732E6D653A007B6B
:103E6A00732E732E73703A007B732E64642E733A2A
:103E7A00007B732E73632E733A007B732E616C2E54
:103E8A00733A005B003D00646D5F73746472006492
:103E9A006D5F6772647200646D5F6172636800646B
:103EAA006D5F74626B6E00646D5F74626464006C53
:103EBA00645F31737472006C645F3132726D006CCE
:103ECA00645F73666579006C645F6C647366006C2A
:103EDA00645F666B7462006C645F6579616E006C26
:103EEA00645F7370616E006C645F7064646B00522F
:103EFA0000470042003000736D5F31686F740073D1
:103F0A006D5F31736D6B00736D5F33686F7400732F
:103F1A006D5F33736D6B006D645F32726D006D643B
:103F2A005F32726D5F7374006D645F6B72736600EB
:103F3A006D645F6B7273665F7374006F745F636D39
:103F4A007073007B722E632E003A6E6F745F657811
:103F5A006973747D0A003A636F6D706C6574656489
:043F6A007D0A0000CC
:00000001FF
