:100000000C94D6010C94FE010C94FE010C94B512D4
:100010000C94B5120C94B5120C94FE010C94FE01D4
:100020000C94FE010C94FE010C94FE010C94FE0154
:100030000C94FE010C94FE010C94FE010C94FE0144
:100040000C9464120C94FE010C942C110C94061167
:100050000C94FE010C94FE010C94FE010C94FE0124
:100060000C94FE010C94FE01B602C502D002D90226
:10007000DC02E7029B03B803E3035F049704F80480
:1000800000407A10F35A00A0724E18090010A5D44F
:10009000E80000E87648170000E40B54020000CAAC
:1000A0009A3B000000E1F5050000809698000000F2
:1000B00040420F000000A086010000001027000051
:1000C0000000E803000000006400000000000A00D7
:1000D000000000000100000000002C76D888DC67DA
:1000E0004F0823DFC1DFAE59E1B1B796E5E3E45332
:1000F000C63AE651997696E8E6C28426EB898C9B4F
:1001000062ED407C6FFCEFBC9C9F40F2BAA56FA5EE
:10011000F490055A2AF75C936B6CF9676DC11BFC70
:10012000E0E40D47FEF520E6B500D0ED902E03008B
:10013000943577050080841E080000204E0A0000D8
:1001400000C80C333333330F986E12831141EF8D97
:100150002114893BE65516CFFEE6DB18D1844B38D7
:100160001BF77C1D901DA4BBE424203284725E2208
:100170008100C9F124ECA1E53D273D2050415F4DB0
:100180004158003D2050415F48494748003D2050BC
:10019000415F4C4F57003D2050415F4D494E003D5F
:1001A0002031362062697473003D20382062697402
:1001B00073003D2044697361626C6564006E524651
:1001C00032344C30312B006E524632344C303100D8
:1001D0003D20323530204B425053003D2032204DDF
:1001E000425053003D2031204D4250530053544162
:1001F00054555309093D2030782530327820525823
:100200005F44523D25782054585F44533D25782063
:100210004D41585F52543D25782052585F505F4EF3
:100220004F3D25782054585F46554C4C3D25780D60
:100230000A0041524309093D2025640D0A0050413E
:1002400020506F7765720925530D0A0096018D01C4
:1002500083017A01435243204C656E677468092517
:10026000530D0A00B201A9019F014D6F64656C092D
:10027000093D2025530D0A00C701BD014461746189
:1002800020526174650925530D0A00E401DB01D099
:100290000144594E50442F46454154555245004360
:1002A0004F4E464947090052465F5345545550004A
:1002B00052465F43480900454E5F525841444452FC
:1002C00000454E5F4141090052585F50575F503022
:1002D0002D360054585F41444452090052585F4142
:1002E0004444525F50322D350052585F41444452CD
:1002F0005F50302D31005350492053706565647A4A
:10030000093D202564204D687A0A000A0D524632C4
:10031000342F6578616D706C65732F7363616E6ED9
:1003200065722F002D0000000000240027002A0025
:100330000D0A002530327800203078002553093D21
:10034000000D0A0020307825303278002553093D11
:100350000000010203040500000008000201000083
:10036000030407000000000000000000000000235C
:10037000002600290000000000250028002B0004B2
:10038000040404040404040202020202020303033C
:100390000303030102040810204080010204081036
:1003A0002001020408102000451BCB1B11241FBE96
:1003B000CFEFD8E0DEBFCDBF13E0A0E0B1E0ECE0CE
:1003C000F9E402C005900D92A633B107D9F725E0F4
:1003D000A6E3B3E001C01D92AC39B207E1F711E02A
:1003E000C5EDD1E004C02197FE010E947523C43DF4
:1003F000D107C9F70E94EF190C9479240C940000DE
:100400002F923F924F925F926F927F928F929F9224
:10041000AF92BF92CF92DF92EF92FF920F931F9312
:10042000CF93DF93CDB7DEB7CB54D1090FB6F89495
:10043000DEBF0FBECDBF80910204882371F0809192
:10044000390390913A03892B41F4109202046EE132
:1004500070E081E090E00E9483158091FE0390910E
:10046000FF03A0910004B09101040196A11DB11DEC
:100470008093FE039093FF03A0930004B0930104C4
:100480008091F603811109C065E373E080EF93E08A
:100490000E94F11081E08093F6038091E8038111BE
:1004A00009C065E373E082EE93E00E94F11081E001
:1004B0008093E8038091DA03811109C065E373E05A
:1004C00084ED93E00E94F11081E08093DA03809143
:1004D000CC03811109C065E373E086EC93E00E94D0
:1004E000F11081E08093CC030E9458120091C20366
:1004F0001091C3032091C4033091C503DC01CB01EB
:10050000801B910BA20BB30B853F9140A105B10558
:1005100008F48AC281E10E945E1121E0892B09F072
:1005200020E02AAF80E10E945E1121E0892B09F0D2
:1005300020E02BAF8FE00E945E1121E0892B09F0B3
:1005400020E02CAF8EE00E945E1121E0892B09F0A3
:1005500020E02DAFE091C003F091C103EC30F10534
:1005600008F062C2EC5CFF4F0C9475234091FE03CF
:100570005091FF036091000470910104CE018296B6
:100580000E94B40D64EA71E0FBC00E945812AB01F6
:10059000BC01CE0182960E94B40D6CEA71E0F0C0FD
:1005A00060EF73E0CE0182960E94D71064EB71E099
:1005B000E7C06CEB71E06DC10E944C0B682F70E0DE
:1005C000CE0182960E94880D6AEC71E0D9C062ED7E
:1005D00071E087E591E00E94582465E373E082EEC4
:1005E00093E00E940B0D81110BC06BED71E081E671
:1005F00091E00E9458246091E2037091E30325C0CA
:1006000065E373E084ED93E00E940B0D81110BC054
:1006100064EE71E081E691E00E9458246091D40379
:100620007091D50312C065E373E086EC93E00E94FD
:100630000B0D81110DC06DEE71E081E691E00E941D
:1006400058246091C6037091C7038BE691E004C003
:1006500067EF71E081E691E00E94582484E60E94F1
:10066000130B0E942D0B82E00E941B0B0E94B20C08
:1006700081E18AAB8DED8BAB8CEC8CAB8BEB8DABD6
:100680008AEA8EAB1FAA18AE19AE40917F05BE0153
:100690006E5C7F4F8AE00E94BF0A40917F05BE01D9
:1006A0006E5C7F4F80E10E94BF0A64E670E080E0EC
:1006B00090E00E94F2110E944A0C0E943B0C882399
:1006C000B9F160E072E0CE0101960E94F110CE0116
:1006D00001960E94C713CE0101960E94CF108AE3B3
:1006E00091E00E94020C65E373E082EE93E00E94C9
:1006F0000B0D65E373E0811103C082EE93E00AC045
:1007000084ED93E00E940B0D65E373E0811105C059
:1007100084ED93E00E94710DC8C086EC93E00E94C6
:100720000B0D8111C2C065E373E086EC93E0F2CF5C
:100730006AE072E0AEC060913F017091400180912B
:100740004101909142011BA21AA21DA21CA21FA24C
:100750001EA28E010F5F1F4F22E044E00E94F11B9A
:10076000BC01CE0182960E94710D64E172E0C3C0AB
:1007700063E471E0CE0182960E94F1106CE172E0B8
:10078000CE0101960E94F110BE016E5D7F4FCE0139
:1007900001960E94731462E172E00E94580DBC0140
:1007A000CE018A960E94D710CE018A960E94C71366
:1007B000CE018A960E94CF10CE0101960E94CF10E2
:1007C000CE01829670C064E272E087E591E00E94FB
:1007D00058248091BF03882319F06DE272E009C0AC
:1007E0008091BE03882319F062E372E002C067EFD4
:1007F00071E081E691E00E94582484E60E94130B88
:100800000E942D0B82E00E941B0B0E94B20C83E31E
:100810008AA78DED8BA78CEC8CA78BEB8DA78AEA32
:100820008EA71FA618AA19AA40917F05BE01665D72
:100830007F4F8AE00E94BF0A40917F05BE01665D3E
:100840007F4F80E10E94BF0A64E670E080E090E0A4
:100850000E94F2110E944A0C0E943B0C8823B9F0BE
:1008600066E372E0CE0101960E94F110CE0101967E
:100870000E94C713CE0101960E94CF108DE191E036
:100880000E94020C1092BF031092BE030EC061E4DE
:1008900072E0CE0101960E94F110CE0101960E94F5
:1008A000C713CE0101960E94CF108091C003909192
:1008B000C10301969093C1038093C003B5C06091BA
:1008C00022017091230180912401909125011BA2A6
:1008D0001AA21DA21CA21FA21EA28E010F5F1F4FF3
:1008E00022E044E00E94F11BBC01CE0182960E94EE
:1008F000710D6CE472E0C8010E94F110BE016E5DE2
:100900007F4FC8010E94731462E172E00E94580D8B
:10091000BC01CE018A960E94D710CE018A960E9411
:10092000C713CE018A960E94CF10C80147CF65E554
:1009300072E0CE0101960E94F110CE0101960E9454
:10094000C713CE0101960E94CF1067E3E62E63E045
:10095000F62E6E013AE3C30ED11C00E010E0570101
:10096000F701608171816115710599F0F60180814F
:1009700081110FC080913603882341F001151105C4
:1009800029F481E090E00E94AA1503C0F7011182CA
:100990001082F2E0EF0EF11CF50160817181CE0151
:1009A00001960E94880DCE0101960E94C713CE01C8
:1009B00001960E94CF100330110571F06DE572E0D1
:1009C000CE0101960E94F110CE0101960E94C7133C
:1009D000CE0101960E94CF100F5F1F4FFFEFCF1A7D
:1009E000DF0A0430110509F0BACF62E172E051CF9D
:1009F00064E373E0CE0101960E94F110CE010196EE
:100A00000E94C713CE0101960E94CF101092C1031D
:100A10001092C0030E9458126093C2037093C303E4
:100A20008093C4039093C50383E594E00E94820EF3
:100A3000181619060CF02FC53E0121E2620E711C3A
:100A40005BEFA52EBB24B39465E373E0CE01805C1D
:100A50009F4F0E94F1100E94D70C97FD10C08D355A
:100A6000910569F089831A8241E050E0BE016F5F11
:100A70007F4FCE01805C9F4F0E942A0DECCF65E333
:100A800073E0CE01CA960E94F11026968EAD9FADFE
:100A90002697892B09F4EBC421E030E040E050E0D8
:100AA000BE01605C7F4FCE0101960E94E10D6FE5B3
:100AB00072E0CE0101960E940B0D182FCE01019617
:100AC0000E94CF10112309F4DCC426962EAD3FAD51
:100AD000269741E050E0BE01605C7F4FCE01019659
:100AE0000E94E10DBE016F5F7F4FCE01805C9F4F82
:100AF0000E943B10CE0101960E94CF1022966EAD4F
:100B00007FAD22976115710549F026964EAD5FAD18
:100B1000269780EF93E00E94AE1004C080EF93E030
:100B20000E949C1061E672E0CE0101960E94F110D5
:100B300026968EAD9FAD26972D813E818C01021B9E
:100B4000130B2115310551F1009741F182179307DD
:100B500028F10817190718F08C0101501109229685
:100B6000EEACFFAC2297C980DA80C70144244A94D6
:100B700055245A944701800E911E8816990688F0D4
:100B8000B6010E945F24009761F09C012E193F0975
:100B90000217130708F029010196EFCF0FEF1FEF9F
:100BA00001C08201CE0101960E94CF1017FD2FC017
:100BB00026962EAD3FAD2697A8014F5F5F4FBE0131
:100BC000605C7F4FCE0101960E94E10DBE016F5F18
:100BD0007F4FCE01CA960E943B10CE0101960E9423
:100BE000CF10980140E050E0BE01605C7F4FCE0125
:100BF00001960E94E10DBE016F5F7F4FCE01805CC8
:100C00009F4F0E943B10CE0101960E94CF10BE0163
:100C1000605C7F4FCE018A5B9F4F0E94D710CE0150
:100C20008A5B9F4F0E94D013182F81110FC06AADAD
:100C30007BADCE0101960E94F110CE0101960E947B
:100C4000D013182FCE0101960E94CF10CE018A5BDF
:100C50009F4F0E94CF10112331F063E672E080EFC6
:100C600093E00E94710D67E672E0CE01805C9F4FB9
:100C70000E940B0D8823A9F0CE01CA960E94CC0CCD
:100C800020913703309138038901330F220B330B46
:100C9000061717072807390709F4C4C381E090E055
:100CA00041C06CE672E0CE01805C9F4F0E940B0D4C
:100CB0008823D9F0CE01CA960E94CC0C209139032A
:100CC00030913A038901330F220B330B06171707B4
:100CD0002807390721F082E090E00E94AA1581E000
:100CE0008093020464E170E04BC061E772E0CE01E2
:100CF000805C9F4F0E940B0D8823B9F0CE01CA96ED
:100D00000E94CC0C20913B0330913C038901330FAE
:100D1000220B330B061717072807390709F482C37C
:100D200083E090E00E94AA157DC366E772E0CE01E1
:100D3000805C9F4F0E940B0D8823A9F0CE01CA96BC
:100D40000E94CC0C20913D0330913E038901330F6A
:100D5000220B330B061717072807390709F462C35C
:100D600084E090E0DFCF6BE772E0CE01805C9F4FC4
:100D70000E940B0D882349F0CE01CA960E94CC0C2C
:100D800081E090E00E9483154DC360E872E0CE01DF
:100D9000805C9F4F0E940B0D882339F0CE01CA96CC
:100DA0000E94CC0C82E090E0EDCF65E872E0CE01CD
:100DB000805C9F4F0E940B0D882339F0CE01CA96AC
:100DC0000E94CC0C83E090E0DDCF6AE872E0CE01B7
:100DD000805C9F4F0E940B0D882339F0CE01CA968C
:100DE0000E94CC0C84E090E0CDCF6FE872E0CE01A1
:100DF000805C9F4F0E940B0D882319F081E090E0EA
:100E000023C064E972E0CE01805C9F4F0E940B0D0D
:100E1000882319F082E090E017C069E972E0CE0102
:100E2000805C9F4F0E940B0D882319F083E090E0B7
:100E30000BC06EE972E0CE01805C9F4F0E940B0DEB
:100E4000882329F084E090E00E945015EBC263EA09
:100E500072E0CE01805C9F4F0E940B0D882309F445
:100E600056C06AEA72E087E591E00E94582463EB7D
:100E700072E081E691E00E9458246AAD7BAD8BE67A
:100E800091E00E9458240AE010E082E2F82E9DEDE5
:100E9000E92E2CECD22E3BEBC32E4AEA942E0E9474
:100EA0004C0B84E60E94130B0E942D0B82E00E94E3
:100EB0001B0B0E94B20CFAA2EBA2DCA2CDA29EA256
:100EC0001FA218A619A640917F05BE016E5D7F4F37
:100ED0008AE00E94BF0A40917F05BE016E5D7F4F90
:100EE00080E10E94BF0A64E670E080E090E00E942A
:100EF000F2110E944A0C0E943B0C882321F080E0F2
:100F000091E00E94020C0150110949F68BC26BEB73
:100F100072E0CE01805C9F4F0E940B0D882329F068
:100F20006AAD7BAD82EE93E01BC063EC72E0CE0154
:100F3000805C9F4F0E940B0D882329F06AAD7BAD2A
:100F400084ED93E00DC06BEC72E0CE01805C9F4FAE
:100F50000E940B0D882339F06AAD7BAD86EC93E0DF
:100F60000E94710D5FC263ED72E0CE01805C9F4F05
:100F70000E940B0D882321F081E08093BF0352C2B1
:100F80006AED72E0CE01805C9F4F0E940B0D8823BA
:100F900021F081E08093BE0345C261EE72E0CE0194
:100FA000805C9F4F0E940B0D882309F416C28BE0D2
:100FB00093E00E94B01B0E94AC1B0E944C0B0E944D
:100FC00022190E94E20A0E94910A609170057091B4
:100FD0007105809172059091730520E432E44FE031
:100FE00050E00E9453231F922F9386EF92E09F932D
:100FF0008F930E94DF1C8FEF0E942415809174054F
:10100000282F30E0982F91701F929F933595279548
:10101000277033273F932F9384FB992790F91F92D2
:101020009F9385FB992790F91F929F9386FB9927A1
:1010300090F91F929F931F928F938DEE91E09F9353
:101040008F930E94DF1C42E06AE089EE92E00E94EA
:101050006D1944E06CE08CED92E00E94351941E09E
:1010600060E183ED92E00E946D1946E061E188EC59
:1010700092E00E94351941E061E081EC92E00E942B
:10108000351941E062E087EB92E00E94351941E0BA
:1010900065E080EB92E00E94351941E066E087EA66
:1010A00092E00E94351941E060E08FE992E00E94F1
:1010B000351942E06CE181E992E00E94351986E041
:1010C0000E94121588720FB6F894DEBF0FBECDBF16
:1010D000803241F021E090E0883009F020E0E22FFA
:1010E000F92F02C0E2E0F0E0EE0FFF1FE557FD4FE1
:1010F000859194919F938F938CE792E09F938F9328
:101100000E94DF1CE0917C05F0E0EE0FFF1FE85825
:10111000FD4F859194919F938F938AE692E09F93E0
:101120008F930E94DF1C81E00E941215182F80E02F
:101130000E94121580937B050FB6F894DEBF0FBE98
:10114000CDBF83FD02C0112329F082FD06C0E1E07E
:10115000F0E005C0E0E0F0E002C0E2E0F0E0EE0F19
:10116000FF1FEC59FD4F859194919F938F9384E5D8
:1011700092E09F938F930E94DF1C86E00E941215DD
:101180008670E82FF0E0E45BFD4F859194919F938A
:101190008F938EE392E09F938F930E94DF1C88E0F1
:1011A0000E9412158F701F928F9382E392E09F939B
:1011B0008F930E94DF1C0FB6F894DEBF0FBECDBF29
:1011C00000E010E0C80164E0959587956A95E1F725
:1011D0000E9498140F5F1F4F0E37110599F70E9458
:1011E000AC1B00E010E0C8018F7099270E94981492
:1011F0000F5F1F4F0E371105B1F70E94AC1B25E0A2
:10120000E22EF12C3FE3432E33E0532E4EE7342EF3
:101210005DEB852E53E0952E83E594E00E94820ECF
:10122000892B09F48CC083E594E00E94600E873618
:1012300009F065C091E09093BD030E94910A62E0BD
:1012400070E080E090E00E94F21189EE92E00E944E
:1012500086140E94AC1B0E94910A86E00E9412151F
:10126000682F606986E00E94311580917C05882393
:1012700011F10E94221960E084E00E943115FE0104
:1012800031968F012FEF2193E615F705D9F745E049
:10129000B80180E10E94BF0A0E94820A40E2B801C0
:1012A00080EA0E94BF0A60917B05677F60937B059F
:1012B00080E00E94311581E00E941B0B88E20E94B1
:1012C000130B81E00E94880A80917C058823B9F184
:1012D00061E070E080E090E00E94F21180E00E9406
:1012E000880A60E187E00E94311583EE0E94241590
:1012F00080E00E94880A81E00E94880A20C085362A
:10130000F1F41092BD0380E00E94880A60917B0591
:101310006D7F60937B0580E00E94311586E00E941E
:101320001215682F6F7686E00E94311580E00E94CA
:10133000880A8EEF92E00E9486140E94AC1B809176
:10134000BD03811144C0F201232D11922A95E9F7C2
:1013500095E6C92ED12C31E0C31AD108F9F00CEB77
:1013600013E08DE7282E822D0E94130B0E94E20AC3
:10137000C5010197F1F70E94910A89E00E941215B8
:1013800080FD07C02A94015011098FEF2812EBCF7E
:10139000E2CFF80180818F5F8083F4CF0FE313E009
:1013A000F80181918F01882349F0803110F490E099
:1013B00002C08FE090E00E94981404C084E293E0A1
:1013C0000E94B01B8016910659F70E94AC1BF1E0F9
:1013D000EF1AF10809F020CF25C063E173E0CE01D8
:1013E00001960E94F11060EF73E0CE0101960E9419
:1013F000731469E173E00E94580DBC01CE018A5B51
:101400009F4F0E94D710CE018A5B9F4F0E94C71347
:10141000CE018A5B9F4F0E94CF10CE0101960E94A1
:10142000CF1025C063E173E0CE0101960E94F11058
:1014300060EF73E0CE0101960E94731466E273E0E0
:101440000E94580DBC01CE018A5B9F4F0E94D710AD
:10145000CE018A5B9F4F0E94C713CE018A5B9F4FCC
:101460000E94CF10CE0101960E94CF100AC0CE017B
:10147000CA960E94CF10CE01805C9F4F0E94CF1071
:101480000AC0CE01CA960E94CF10CE01805C9F4F49
:101490000E94CF10D9CAC55BDF4F0FB6F894DEBFEC
:1014A0000FBECDBFDF91CF911F910F91FF90EF90B5
:1014B000DF90CF90BF90AF909F908F907F906F9074
:1014C0005F904F903F902F90089560917B0561FD54
:1014D0000AC0626060937B0580E00E9431158BE159
:1014E0009EE40197F1F708950E94E91480E50E94B7
:1014F000AE128093740583E70E94AE120C94E6143A
:101500000E94412481EE0E94241580917405089563
:10151000682F80916E0590916F0589130C94871147
:10152000089580E00E94880A809182059091830549
:101530008230910538F0880F991F880F991F059701
:101540000197F1F780917E0581110E94820A6091D6
:101550007B056E7F60937B0580E00E94311582E001
:101560000E941215E1E5F3E0E49161E070E001C052
:10157000660FEA95EAF7682B82E00C943115FF922A
:101580000F931F93CF93DF93182FF62ED72FC42FCF
:101590000E94E914812F80620E94AE12809374052C
:1015A0000F2D1D2FCC2339F0F80181918F010E945E
:1015B000AE12C150F7CFDF91CF911F910F91FF90E5
:1015C0000C94E6140E94650A60917B05616060934B
:1015D0007B0580E00E94311560E787E00E943115AD
:1015E00081E00E94880A80917D05882339F040912E
:1015F0007F0566E775E08AE00C94BF0A82E00E94EE
:101600001215E1E5F3E0E49121E030E001C0220FA2
:10161000EA95EAF72095622F682382E00E9431154F
:1016200010927D0508958D3710F4682F01C06DE785
:1016300085E00C943115CF93C82F86E00E941215D7
:10164000887F9C2FC43008F093E0990F9F5F692F2B
:10165000682B86E0CF910C943115CF9386E00E94E1
:101660001215C82FC77D85E590E0A0E0B0E080931B
:10167000820590938305A0938405B09385056C2F14
:1016800086E00E94311586E00E94121591E0C81391
:1016900090E0892FCF910895CF93CFB7F8948091A0
:1016A0000304811127C0E9E8F3E08491EDE9F3E058
:1016B0009491E82FF0E0EE0FFF1FEA5DFC4FA5913B
:1016C000B491EC91E92321F461E08AE00E94871152
:1016D00061E08AE00E94B6118CB580618CBD8CB54A
:1016E00080648CBD61E08DE00E94B61161E08BE00A
:1016F0000E94B611809103048F5F80930304CFBFD3
:1017000080916E058F3F09F470C090916F059F3FE7
:1017100009F46BC0891741F061E00E94B61161E0E5
:1017200080916F050E94B61180E00E94880A81E0D6
:101730000E94D21465E070E080E090E00E94F21117
:101740006FE584E00E9431150E942D0B8DE10E940F
:101750001215C82F0E94740A8DE10E94121591E0A3
:10176000C81390E090937C05811141C010927E05D2
:1017700060E08CE10E943115109280056FE381E0FA
:101780000E94311563E082E00E94311580E280936F
:101790007505C1E1609175058C2F0E943115CF5FF1
:1017A000C731C1F763E083E00E94311585E0809383
:1017B0007F058CE40E94130B60E787E00E943115DF
:1017C00082EE0E9424150E94820A6CE080E00E9452
:1017D000311580E00E94121580937B050E94650AF6
:1017E00081E090917B059E3059F080E009C0C813DC
:1017F00002C00E94740A60E08DE10E943115B6CFEC
:10180000CF910895EF92FF920F931F93CF93DF93A1
:101810007C0180918005811108C0C0917505DC2F85
:10182000CE3108F0DDE1CD1B02C0C0E0DDE10E9459
:10183000E91481E60E94AE12809374058701D150AD
:1018400038F08FEF0E94AE12F80181938F01F7CF2D
:10185000CC2329F08FEF0E94AE12C150F9CF0E9425
:10186000E61460E487E0DF91CF911F910F91FF9024
:10187000EF900C9431158FEF0E9424158091740520
:1018800090E095958795982F977081E0963008F0B5
:1018900080E00895CF92DF92EF92FF920F931F9313
:1018A000CF93DF9380918005811108C0C0917505A9
:1018B000DC2FCA3108F0D9E1CD1B02C0C0E0D9E16C
:1018C0000E94E91480EA0E94AE128093740507E535
:1018D00011E0D15030F0F80181918F010E94AE12D9
:1018E000F8CFCC2329F080E00E94AE12C150F9CF8E
:1018F0000E94E61481E00E94880A0E9458126B013F
:101900007C018FEF0E94241580917405807389F407
:101910000E945812DC01CB018C199D09AE09BF0948
:1019200080369105A105B10560F381E080938105C2
:101930000DC080E00E94880A60E787E00E943115B0
:101940008091740584FF04C00E94820A80E001C077
:1019500081E0DF91CF911F910F91FF90EF90DF9089
:10196000CF90089580917E05811115C08DE10E9470
:101970001215682F66608DE10E9431158CE10E947E
:101980001215682F63608CE10E94311581E080930D
:10199000800580937E050895FC01808191810097E8
:1019A00011F00C94111C60E070E0CB0108950F93CE
:1019B0001F930E94581260935B0470935C048093A1
:1019C0005D0490935E0483E594E00E94600E97FFAF
:1019D0001FC00E94581200915B0410915C0420917A
:1019E0005D0430915E04DC01CB01801B910BA20BE6
:1019F000B30B009157041091580420915904309171
:101A00005A0480179107A207B307E8F28FEF9FEF00
:101A10001F910F910895FC0124813581232B31F40E
:101A200021E061157105A1F0FB0108C0FC01808176
:101A300091816115710531F421E0FC0180818823D9
:101A400039F005C00E944F2421E0892B09F020E0E5
:101A5000822F0895EF92FF920F931F93CF93DF93FE
:101A60006115710511F480E01CC041155105C1F0EC
:101A70007B01EC018C819D818A01080F191FB8013F
:101A8000CE010E947510882371F3288139818C81E1
:101A90009D81B701820F931F0E9458241D830C83E0
:101AA00081E0DF91CF911F910F91FF90EF9008950A
:101AB000CF93DF93EC016115710561F0FB0101909B
:101AC0000020E9F73197AF01461B570B0E942A0D02
:101AD000811103C0CE010E949C10CE01DF91CF91F5
:101AE0000895CF93DF93EC016115710559F0FB0167
:101AF00001900020E9F73197AF01461B570B0E9478
:101B0000AE1002C00E949C10CE01DF91CF910895CB
:101B10000F931F93CF93DF93CDB7DEB762970FB6C6
:101B2000F894DEBF0FBECDBF8C01CB01F80111824E
:101B3000108213821282158214824AE0BE016F5F06
:101B40007F4F0E94381CBE016F5F7F4FC8010E940B
:101B5000710D62960FB6F894DEBF0FBECDBFDF9158
:101B6000CF911F910F9108950F931F93CF93DF9300
:101B7000CDB7DEB7A1970FB6F894DEBF0FBECDBFCD
:101B80008C01CB01BA01F8011182108213821282FA
:101B9000158214822AE0AE014F5F5F4F0E94581CED
:101BA000BE016F5F7F4FC8010E94710DA1960FB6F5
:101BB000F894DEBF0FBECDBFDF91CF911F910F9183
:101BC0000895BF92CF92DF92EF92FF920F931F93EF
:101BD000CF93DF937C016B018A01E901241735075C
:101BE00020F4812F8901C42FD82F65E373E0C7014A
:101BF0000E94F110D60114968D919C9115970817AB
:101C00001907C8F48C179D0708F4EC01D601ED9173
:101C1000FC911197EC0FFD1FB08010826D917C91AB
:101C2000600F711FC7010E94710DD601ED91FC91EB
:101C3000EC0FFD1FB082C701DF91CF911F910F9173
:101C4000FF90EF90DF90CF90BF9008950895CF92CE
:101C5000DF92EF92FF920F931F93CF93DF936C016C
:101C60007A018B01C0E0D0E0CE15DF0581F0D8010C
:101C70006D918D01D601ED91FC910190F081E02DE7
:101C8000C6010995892B11F02196EECF7E01C7017F
:101C9000DF91CF911F910F91FF90EF90DF90CF9048
:101CA0000895FC01538D448D252F30E0842F90E062
:101CB000821B930B541710F0CF9608950197089547
:101CC000FC01918D828D981761F0828DDF01A80F44
:101CD000B11D5D968C91928D9F5F9F73928F90E066
:101CE00008958FEF9FEF0895FC01918D828D9817D5
:101CF00031F0828DE80FF11D858D90E008958FEF12
:101D00009FEF0895FC01918D228D892F90E0805CDA
:101D10009F4F821B91098F739927089583E594E063
:101D20000E94820E21E0892B09F420E0822F089581
:101D3000FC01848DDF01A80FB11DA35ABF4F2C9168
:101D4000848D90E001968F739927848FA689B78937
:101D50002C93A089B1898C91837080648C93938D2E
:101D6000848D981306C00288F389E02D80818F7DD1
:101D700080830895EF92FF920F931F93CF93DF9389
:101D8000EC0181E0888F9B8D8C8D981305C0E889CC
:101D9000F989808185FD26C0F62E0B8D10E00F5F3E
:101DA0001F4F0F731127E02E8C8DE8120CC00FB659
:101DB00007FCFACFE889F989808185FFF5CFCE014C
:101DC0000E94980EF1CF8B8DFE01E80FF11DE35AB2
:101DD000FF4FF0829FB7F8940B8FEA89FB898081CF
:101DE00080620AC09FB7F894EE89FF896083E88912
:101DF000F98980818370806480839FBF81E090E057
:101E0000DF91CF911F910F91FF90EF900895CF93A5
:101E1000DF93EC01888D8823C9F0EA89FB898081F2
:101E200085FD05C0A889B9898C9186FD0FC00FB6C4
:101E300007FCF5CF808185FFF2CFA889B9898C9105
:101E400085FFEDCFCE010E94980EE7CFDF91CF91B5
:101E5000089580E090E0892B29F00E948E0E811178
:101E60000C9400000895833081F028F4813099F0BB
:101E70008230A1F008958730A9F08830B9F084301D
:101E8000D1F4809180008F7D03C0809180008F7796
:101E900080938000089584B58F7702C084B58F7DCC
:101EA00084BD08958091B0008F7703C08091B00009
:101EB0008F7D8093B00008953FB7F89480914904D6
:101EC00090914A04A0914B04B0914C0426B5A89B74
:101ED00005C02F3F19F00196A11DB11D3FBFBA2FBC
:101EE000A92F982F8827820F911DA11DB11DBC011C
:101EF000CD0142E0660F771F881F991F4A95D1F7E1
:101F00000895CF93DF93C0E7D1E080915104909181
:101F100052046991DC01ED91FC910190F081E02D7A
:101F20000995B1E0CA37DB0781F7DF91CF910895BA
:101F300020914F04309150042817390771F4909183
:101F40004D0480914E04981741F0E0914D04F0E06B
:101F5000EC5FFB4F808190E008958FEF9FEF089535
:101F600008951F93CF93DF93DC015C968D919C9134
:101F70005D97009739F421E030E013963C932E935F
:101F800012973BC05196ED91FC91529750962C912F
:101F90005097322F30951FB75E964C915E97742FF5
:101FA000727041FD6095F8944081772311F0422BC7
:101FB00001C043234083EC012197F1F748E05081B1
:101FC00060FF02C0522B01C053235083EC012197C4
:101FD000F1F76695415099F78081772319F08323B3
:101FE000808302C0282B20831FBF5C968D919C911B
:101FF0005D970197F1F781E090E0DF91CF911F911C
:10200000089520914F04309150042817390761F446
:1020100080914E0420914D0490E0805C9F4F821B84
:1020200091098F739927089580E090E00895209199
:102030004F043091500428173907B9F490914D049A
:1020400080914E04981789F0E0914D04F0E0EC5F28
:10205000FB4F808120914D0430E02F5F3F4F2F7365
:10206000332720934D0490E008958FEF9FEF08955C
:1020700080E090E008950F931F93CF93DF938C013E
:10208000EB01FC0180819181009739F068817981B1
:1020900061157105A1F40E94F42088819981F801ED
:1020A000918380838A819B81938382838C819D81AC
:1020B00095838483198218821B821A820FC0F801CB
:1020C000428153812C813D814217530720F30E94A6
:1020D00058248C819D81F801958384831D821C8204
:1020E000DF91CF911F910F9108950F931F93CF937D
:1020F000DF93EC0188819981009729F02A813B8147
:102100002617370788F48B016F5F7F4F0E947B2370
:10211000009761F0998388831B830A832C813D811A
:10212000232B11F4FC01108281E001C080E0DF91DB
:10213000CF911F910F910895CF93DF93EC01888188
:102140009981009711F00E94F420198218821D8253
:102150001C821B821A82DF91CF910895EF92FF9229
:102160000F931F93CF93DF93EC017B018A01BA0198
:102170000E947510811104C0CE010E949C1007C0FE
:102180001D830C83B701888199810E945824CE0158
:10219000DF91CF911F910F91FF90EF900895FC0177
:1021A00080819181009711F00C94F4200895FB0137
:1021B000DC0111961C921E9213961C921E9212978D
:1021C00015961C921E9214978617970749F0608106
:1021D00071816115710521F0448155810C94AE1017
:1021E0000895FC01118210821382128215821482DA
:1021F0006115710551F0FB0101900020E9F731975D
:10220000AF01461B570B0C94AE1008951F920F920E
:102210000FB60F9211242F933F934F935F936F93B9
:102220007F938F939F93AF93BF93EF93FF9383E538
:1022300094E00E94980EFF91EF91BF91AF919F9112
:102240008F917F916F915F914F913F912F910F905F
:102250000FBE0F901F9018951F920F920FB60F92FE
:1022600011242F938F939F93EF93FF93E091630437
:10227000F09164048081E0916904F0916A0482FD28
:1022800012C0908180916C048F5F8F7320916D04D8
:10229000821751F0E0916C04F0E0ED5AFB4F958FFE
:1022A00080936C0401C08081FF91EF919F918F9189
:1022B0002F910F900FBE0F901F901895CF93DF9323
:1022C000282F30E0F901E95AFC4F8491F901ED56CD
:1022D000FC4FD491F901E158FC4FC491CC2391F00B
:1022E00081110E94330FEC2FF0E0EE0FFF1FE55934
:1022F000FC4FA591B491EC91ED2381E090E021F4A5
:1023000080E002C080E090E0DF91CF9108951F93BC
:10231000CF93DF93282F30E0F901E95AFC4F8491E5
:10232000F901ED56FC4FD491F901E158FC4FC491ED
:10233000CC23C1F0162F81110E94330FEC2FF0E057
:10234000EE0FFF1FEB58FC4FA591B4919FB7F89487
:10235000111104C08C91D095D82302C0EC91DE2BD2
:10236000DC939FBFDF91CF911F910895CF93DF93AF
:1023700090E0FC01ED56FC4F2491FC01E158FC4F2C
:102380008491882361F190E0880F991FFC01EA5D38
:10239000FC4FC591D491FC01EB58FC4FA591B49131
:1023A000611109C09FB7F8948881209582238883A2
:1023B000EC912E230BC0623061F49FB7F8948881B2
:1023C000322F309583238883EC912E2B2C939FBF43
:1023D00006C08FB7F894E8812E2B28838FBFDF913A
:1023E000CF9108958F929F92AF92BF92CF92DF923A
:1023F000EF92FF926B017C010E945C0F4B015C012C
:10240000C114D104E104F104F1F00E945C0FDC017D
:10241000CB0188199909AA09BB09883E9340A105F7
:10242000B10570F321E0C21AD108E108F10888EE85
:10243000880E83E0981EA11CB11CC114D104E104D4
:10244000F10419F7DDCFFF90EF90DF90CF90BF90B0
:10245000AF909F908F900895CF93DF9365E070E0E9
:1024600080E090E00E94F21180915104909152041A
:10247000DC01ED91FC910084F185E02D09950A972E
:1024800014F480E012C0CAE0D0E080915104909131
:102490005204DC01ED91FC910284F385E02D099555
:1024A000019679F3219789F781E0DF91CF91089523
:1024B0002FB7F894609145047091460480914704C9
:1024C000909148042FBF08951F920F920FB60F925C
:1024D00011242F933F938F939F93AF93BF9380913A
:1024E000450490914604A0914704B091480430916E
:1024F000440423E0230F2D3720F40196A11DB11DC4
:1025000005C026E8230F0296A11DB11D20934404A7
:102510008093450490934604A0934704B0934804E5
:102520008091490490914A04A0914B04B0914C04CD
:102530000196A11DB11D8093490490934A04A09374
:102540004B04B0934C04BF91AF919F918F913F91F9
:102550002F910F900FBE0F901F9018958EBD000009
:102560000DB407FEFDCF8EB508951F920F920FB6E2
:102570000F9211242F933F934F935F936F937F9309
:102580008F939F93AF93BF93EF93FF93E0914F048B
:10259000F0915004309709F451C0968DA685B78507
:1025A000858591FF04C09C91892329F447C09C91A3
:1025B000892309F043C0A389B4899C9185898095BA
:1025C00089238C93868997890197F1F7608D718DA6
:1025D000A685B785558538E020E0CB010197F1F756
:1025E000822F90E095958795282F4C91452309F0EF
:1025F0002068315091F7868D81FD209580914E04A1
:1026000090E001968F73992730914D04381749F067
:10261000A0914E04B0E0AC5FBB4F2C9380934E046E
:1026200003C0868D8160868F828D938D0197F1F72F
:10263000A389B4899C918589892B8C93FF91EF9113
:10264000BF91AF919F918F917F916F915F914F91CA
:102650003F912F910F900FBE0F901F901895E09112
:102660004F04F0915004E817F90769F4A389B4897D
:102670009C918589809589238C93109250041092A7
:102680004F0481E0089580E008958F929F92AF9269
:10269000BF92CF92DF92EF92FF92CF93DF93D82F2A
:1026A000C62F0E9458126B017C0180908D0590907E
:1026B0008E05A0908F05B0909005681579058A0564
:1026C0009B0549F00E945812DC01CB018819990939
:1026D000AA09BB090AC00E945812A7019601261B2D
:1026E000370B480B590BDA01C90182339105A1055B
:1026F000B10578F422E3C22ED12CE12CF12CA701F4
:102700009601281B390B4A0B5B0BCA01B9010E94C9
:10271000F211D093730110927501C0937601E1E735
:10272000F1E027E731E080E090E04191840F911DD6
:102730002E173F07D1F791958195910990937701D5
:1027400080937801E0918B05F0918C0509950E94AA
:10275000581260938D0570938E0580938F0590932A
:102760009005DF91CF91FF90EF90DF90CF90BF90D9
:10277000AF909F908F90089590935204809351044E
:1027800081E89FE090938C0580938B050895FC0170
:10279000448155816081718183E594E00C94270E1A
:1027A000DC0114964D915C91159720E030E02417E0
:1027B000350771F0DC01ED91FC91309771F41092C6
:1027C0008A05EAE8F5E0608167FF04C081E00895CA
:1027D00080E008952F5F3F4FEACFE20FF31FF3CF62
:1027E000CF93DF93FC01138E128E118E108E178AF9
:1027F000168A8DE991E0958F848F9485963108F043
:102800004EC02DEB30E0378B268B2BE931E0318F3A
:10281000208F2CE231E0338F228F30916800983086
:1028200058F021E09E3008F420E091E0892F01C0AB
:10283000880F2A95EAF701C084E0832B8093680013
:102840009485983038F09E3040F0963148F020E082
:1028500030E008C02DE630E005C02BE630E002C0D5
:102860002CE630E0348B238B983030F481E001C0CB
:10287000880F9A95EAF70EC0292F30E09E3018F4A1
:102880002850310902C02E50310981E001C0880F63
:102890002A95EAF7858B848D958D0197F1F7828DC6
:1028A000938D892BE9F080914F0490915004E817A3
:1028B000F907B1F0EF01009711F00E942F138E8DF0
:1028C0008E7F8E8F10924E0410924D04D093500440
:1028D000C0934F04EB89FC8990818D89892B80837B
:1028E000DF91CF910895CF93DF93EC01FB014481F9
:1028F0005581608171810E942A0D811103C0CE0132
:102900000E949C10CE01DF91CF910895009769F04D
:10291000FC0101900020E9F73197AF01481B590BEA
:10292000BC0183E594E00C94270E80E090E00895CC
:102930000F931F93CF93DF93CDB7DEB7A1970FB659
:10294000F894DEBF0FBECDBFAC01990F660B770BBD
:1029500019A2CE0181968A019B010F7011272227AF
:10296000332724E076956795579547952A95D1F7B3
:1029700001970A3014F4005D01C0095CFC0100837A
:10298000411551056105710531F70E948614A19624
:102990000FB6F894DEBF0FBECDBFDF91CF911F9170
:1029A0000F910895682F80916F050E948711809183
:1029B0008605909187058230910538F0880F991F20
:1029C000880F991F05970197F1F7089581E00C94FE
:1029D000D2140F931F9300917005109171052091EF
:1029E00072053091730540E052E16AE770E090E0D3
:1029F000041715072607370740F47695679557950E
:102A000047959F5F9630A1F797E081E08927982F3F
:102A1000906A969581709CBD8DBD80E01F910F914D
:102A20000C94D214CF93C82F0E94E9148C2F0E94CB
:102A3000AE12809374058FEF0E94AE12C82F0E94D1
:102A4000E6148C2FCF910895CF93C82F0E94E914DC
:102A50008C2F80620E94AE1280937405CF910C94EB
:102A6000E614CF93DF93D82FC62F0E94E9148D2F41
:102A700080620E94AE12809374058C2F0E94AE1269
:102A8000DF91CF910C94E614CF93C82F682F83E584
:102A900094E00E94BA0E8C2FCC0F990BCF91089521
:102AA000CF93DF93EC018230910591F04CF40197C4
:102AB000B1F480EF94E00E94BC13109236030FC073
:102AC0008330910541F0049751F48DE495E005C001
:102AD0008FE095E002C08EE295E00E94BC1360E0BA
:102AE00070E086E10E94451364E670E080E090E0CB
:102AF0000E94F211CC0FDD1FCB5CDC4F19821882D3
:102B0000DF91CF910895CF93DF93EB018230910550
:102B100071F02CF4019791F480EF94E00DC08330B4
:102B2000910541F0049751F48DE495E005C08FE0E4
:102B300095E002C08EE295E00E94BC13BE0186E0E3
:102B40000E94451364E670E080E090E0DF91CF9151
:102B50000C94F211EF92FF920F931F93CF93DF9398
:102B60007C01EB0182E0E816F104C1F064F481E03D
:102B7000E816F104D1F480EF94E00E94BC1381E0E8
:102B80008093360312C083E0E816F10451F084E02C
:102B9000E816F10451F48DE495E005C08FE095E06E
:102BA00002C08EE295E00E94BC13C63F8BE0D807BE
:102BB00009F4A4C20CF012C1CD3C8BE0D80709F493
:102BC00058C20CF089C0CE3B8BE0D80709F430C264
:102BD0000CF045C0CF3E83E0D80709F417C2ECF4EF
:102BE000CB3E83E0D80709F408C26CF4C93E83E009
:102BF000D80709F40DC3CA3E83E0D80709F00AC319
:102C000002E010E007C3CD3E83E0D80709F4F8C125
:102C10000CF0F9C104E010E0FDC2CA3B8BE0D8071C
:102C200009F4FDC194F4C23D87E0D80709F4F1C16D
:102C3000C93B8BE0D80709F4EFC1C13D87E0D80755
:102C400009F0E8C208E010E0E5C2CC3B8BE0D80711
:102C500009F4E8C10CF0E9C10CE010E0DBC2C53CAE
:102C60008BE0D80709F4F3C1ECF4C13C8BE0D80742
:102C700009F4E4C16CF4CF3B8BE0D80709F4DBC165
:102C8000C03C8BE0D80709F0C5C201E110E0C2C228
:102C9000C33C8BE0D80709F4D4C10CF0D5C103E1E3
:102CA00010E0B8C2C93C8BE0D80709F4D9C154F48C
:102CB000C73C8BE0D80709F4CDC10CF0CEC107E1C9
:102CC00010E0A8C2CB3C8BE0D80709F4CCC10CF0D3
:102CD000CDC10BE110E09EC2CC3D8BE0D80709F4DA
:102CE000E9C1ECF5C43D8BE0D80709F4D1C1ECF49F
:102CF000C03D8BE0D80709F4C2C16CF4CE3C8BE038
:102D0000D80709F4B9C1CF3C8BE0D80709F082C2DB
:102D100000E210E07FC2C23D8BE0D80709F4B2C1E7
:102D20000CF0B3C102E210E075C2C83D8BE0D807D9
:102D300009F4B7C154F4C63D8BE0D80709F4ABC120
:102D40000CF0ACC106E210E065C2CA3D8BE0D807CA
:102D500009F4AAC10CF0ABC10AE210E05BC2CE3E9E
:102D60008BE0D80709F4B8C1FCF4CA3E8BE0D80761
:102D700009F4A9C17CF4CE3D8BE0D80709F4A0C1C9
:102D80000CF49BC1CF3D8BE0D80709F043C200E3B0
:102D900010E040C2CC3E8BE0D80709F497C10CF09C
:102DA00098C102E310E036C2C23F8BE0D80709F4B5
:102DB0009CC154F4C03F8BE0D80709F490C10CF0DB
:102DC00091C106E310E026C2C43F8BE0D80709F4A6
:102DD0008FC10CF090C10AE310E01CC2C5318CE039
:102DE000D80709F4D0C10CF07DC0C5308CE0D807FD
:102DF00009F4A5C1ECF5CD3F8BE0D80709F48DC1EE
:102E0000ECF4C93F8BE0D80709F47EC16CF4C73FEE
:102E10008BE0D80709F475C1C83F8BE0D80709F0EB
:102E2000F9C10FE310E0F6C1CB3F8BE0D80709F4FE
:102E30006EC10CF06FC101E410E0ECC1C1308CE058
:102E4000D80709F473C154F4CF3F8BE0D80709F4D5
:102E500067C10CF068C105E410E0DCC1C3308CE050
:102E6000D80709F466C10CF067C109E410E0D2C1CB
:102E7000CD308CE0D80709F474C1D4F4C9308CE0AB
:102E8000D80709F465C154F4C7308CE0D80709F4B9
:102E900059C10CF05AC10DE410E0BCC1CB308CE03C
:102EA000D80709F458C10CF059C101E510E0B2C1CE
:102EB000C1318CE0D80709F45DC154F4CF308CE007
:102EC000D80709F451C10CF052C105E510E0A2C1C8
:102ED000C3318CE0D80709F450C10CF051C109E5A9
:102EE00010E098C1C03B8FE0D80709F46DC10CF029
:102EF00042C0C73A8FE0D80709F454C1ECF4C33A92
:102F00008FE0D80709F445C16CF4C13A8FE0D807C7
:102F100009F43CC1C23A8FE0D80709F07BC10EE545
:102F200010E078C1C53A8FE0D80709F435C10CF03C
:102F300036C100E610E06EC1CB3A8FE0D80709F445
:102F40003AC154F4C93A8FE0D80709F42EC10CF005
:102F50002FC104E610E05EC1CE3A8FE0D80709F435
:102F60002DC10CF02EC1CC3A8FE0D80709F052C128
:102F700008E610E04FC1C83B8FE0D80709F436C11E
:102F8000D4F4C43B8FE0D80709F427C154F4C23B02
:102F90008FE0D80709F41BC10CF01CC10CE610E04F
:102FA00039C1C63B8FE0D80709F41AC10CF01BC128
:102FB00000E710E02FC1CC3B8FE0D80709F41FC118
:102FC00054F4CA3B8FE0D80709F413C10CF014C1C4
:102FD00004E710E01FC1CB3883E1D80709F412C120
:102FE000CC3883E1D80709F410C1CD3B8FE0D80776
:102FF00009F010C108E710E00DC103E010E00AC1BC
:1030000005E010E007C106E010E004C107E010E0B1
:1030100001C109E010E0FEC00AE010E0FBC00BE0D7
:1030200010E0F8C00DE010E0F5C00EE010E0F2C0D6
:103030000FE010E0EFC000E110E0ECC002E110E0B2
:10304000E9C004E110E0E6C005E110E0E3C006E1FC
:1030500010E0E0C008E110E0DDC009E110E0DAC0F6
:103060000AE110E0D7C00CE110E0D4C00DE110E09F
:10307000D1C00EE110E0CEC00FE110E0CBC001E204
:1030800010E0C8C003E210E0C5C004E210E0C2C016
:1030900005E210E0BFC007E210E0BCC008E210E0AB
:1030A000B9C009E210E0B6C00BE210E0B3C00CE218
:1030B00010E0B0C00DE210E0ADC00EE210E0AAC01A
:1030C0000FE210E0A7C001E310E0A4C003E310E0AA
:1030D000A1C004E310E09EC005E310E09BC007E33D
:1030E00010E098C008E310E095C009E310E092C03A
:1030F0000BE310E08FC00CE310E08CC00DE310E098
:1031000089C00EE310E086C000E410E083C002E452
:1031100010E080C003E410E07DC004E410E07AC059
:1031200006E410E077C007E410E074C008E410E0A3
:1031300071C00AE410E06EC00BE410E06BC00CE458
:1031400010E068C00EE410E065C00FE410E062C05B
:1031500000E510E05FC002E510E05CC003E510E0B0
:1031600059C004E510E056C006E510E053C007E57D
:1031700010E050C008E510E04DC00AE510E04AC07C
:103180000BE510E047C00CE510E044C00DE510E091
:1031900041C00FE510E03EC001E610E03BC002E692
:1031A00010E038C003E610E035C005E610E032C09C
:1031B00006E610E02FC007E610E02CC009E610E09C
:1031C00029C00AE610E026C00BE610E023C00DE699
:1031D00010E020C00EE610E01DC00FE610E01AC09F
:1031E00001E710E017C002E710E014C003E710E0A9
:1031F00011C005E710E00EC006E710E00BC007E7BE
:1032000010E008C009E710E005C00AE710E002C0BE
:1032100001E010E0B80182E10E94451368EE73E01E
:1032200080E090E00E94F211F701EE0FFF1FEB5CCF
:10323000FC4FD183C083DF91CF911F910F91FF90FD
:10324000EF90089560E081E00E94311580917E0545
:10325000882351F08DE10E941215682F6D7F8DE15A
:103260000E94311510927E050895FF920F931F93CF
:10327000CF93DF93C62FD42F9F938F938CE493E04B
:103280009F938F930E94DF1CDC0F0F900F900F9085
:103290000F9004E413E0CD1791F0FF24F394FC0E9B
:1032A0008C2F0E9412151F928F931F930F930E94D1
:1032B000DF1C0F900F900F900F90CF2DECCF81E47B
:1032C00093E09F938F930E94DF1C0F900F90DF91EC
:1032D000CF911F910F91FF9008958F929F92AF927F
:1032E000BF92CF92DF92EF92FF920F931F93CF93F3
:1032F000DF93D62FB42E9F938F938CE393E09F930D
:103300008F930E94DF1CBD0E0F900F900F900F90B7
:1033100088E3E82E83E0F82E93E3C92E93E0D92EBC
:10332000DB1509F447C0C0917F058C2F90E0009712
:1033300011F481E090E00E945C208C01AA24A39407
:10334000AD0E0E94E9148D2F8F710E94AE128093F2
:1033500074054801CC2341F08FEF0E94AE12F401B6
:1033600081934F01C150F6CF0E94E614FF92EF9275
:103370000E94DF1C80917F05E801C80FD11D0F90CE
:103380000F902197C017D10760F088811F928F930B
:10339000DF92CF920E94DF1C0F900F900F900F9042
:1033A000F0CF0115110511F4DA2DBACFC8010E9432
:1033B000F420FACF80E393E09F938F930E94DF1C69
:1033C0000F900F90DF91CF911F910F91FF90EF9091
:1033D000DF90CF90BF90AF909F908F900895CF9344
:1033E000DF9300D000D000D0CDB7DEB7789484B59D
:1033F000826084BD84B5816084BD85B5826085BDF1
:1034000085B5816085BD80916E00816080936E007E
:103410001092810080918100826080938100809170
:103420008100816080938100809180008160809321
:1034300080008091B10084608093B1008091B000E1
:1034400081608093B00080917A00846080937A00DC
:1034500080917A00826080937A0080917A00816006
:1034600080937A0080917A00806880937A0010922D
:10347000C100E0916304F091640482E08083E091F4
:103480006304F09164041082E0915F04F0916004A1
:103490001082E0916104F091620480E180831092D7
:1034A0006B04E0916704F091680486E08083E0910A
:1034B0006504F0916604808180618083E0916504F9
:1034C000F0916604808188608083E0916504F091CA
:1034D0006604808180688083E0916504F0916604D1
:1034E00080818F7D808388EC90E0A0E0B0E08093C5
:1034F000570490935804A0935904B0935A0464E37A
:1035000073E0CE0101960E94F110CE0101960E9457
:10351000C713CE0101960E94CF1060E070E084E4F2
:1035200095E10E94941C80EF94E00E94F0138FE0DC
:1035300095E00E94F0138EE295E00E94F0138DE476
:1035400095E00E94F01360E081E10E94B61160E016
:1035500080E10E94B61160E08FE00E94B61160E049
:103560008EE00E94B6116EE170E081E090E00E9472
:1035700083156EE170E082E090E00E9483156EE1B9
:1035800070E083E090E00E9483156EE170E084E0DB
:1035900090E00E94831581E090E00E94501582E047
:1035A00090E00E94501583E090E00E94501584E066
:1035B00090E00E9450150E9400020E94290FFBCF4C
:1035C0000F931F93CF93DF93EC01162F042F1B82D1
:1035D0001A8288EE93E0A0E0B0E08C839D83AE83F6
:1035E000BF8384E891E0998388831F8A1E8A198E9D
:1035F000188E1B8E1A8E1D8E1C8E6E8D6E7F6D7FAB
:103600006E8F6695617081E06827842F0E94871114
:1036100061E0802F0E94B611802F90E0FC01ED56F2
:10362000FC4FE491E88BFC01E158FC4FE491F0E0A1
:10363000EE0FFF1FEB58FC4F859194919A8B898B6D
:1036400060E0812F0E94B6118E8D81FD04C061E083
:10365000812F0E9487111C87812F90E0FC01ED567D
:10366000FC4FE491ED87FC01E158FC4FE491F0E060
:10367000EE0FFF1FE559FC4F859194919F878E8730
:10368000DF91CF911F910F910895E3E5F4E013824C
:10369000128288EE93E0A0E0B0E084839583A68355
:1036A000B78386E991E09183808385EC90E09587EC
:1036B000848784EC90E09787868780EC90E0918BFC
:1036C000808B81EC90E0938B828B82EC90E0958BE9
:1036D000848B86EC90E0978B868B118E128E138EE6
:1036E000148EECE6F5E08AE0828382E1838380E851
:1036F00096E9A8E9B0E084839583A683B78380E246
:103700008187108A118A85E0838B81E0848B85E034
:1037100090E0A0E0B0E0828F938FA48FB58F81E915
:1037200095E091838083128642E063E08DE495E02A
:103730000E94E01A44E065E08EE295E00E94E01A03
:1037400046E067E08FE095E00E94E01A48E069E01B
:1037500080EF94E00C94E01A83E393E00C948614D9
:103760000F931F93CF93DF938C01C0E0D0E0F8015B
:10377000EC0FFD1F6491662341F083E594E00E9405
:10378000BA0E892B11F02196F2CFCE01DF91CF91A5
:103790001F910F910895CF93DF93C4E8D1E0D093A8
:1037A000F104C093F00480EF94E00E942F13D093B3
:1037B0001005C0930F058FE095E00E942F13D09362
:1037C0002F05C0932E058EE295E00E942F13D09313
:1037D0004E05C0934D058DE495E0DF91CF910C949B
:1037E0002F13EF920F931F93CF93DF93E80147FDC1
:1037F00002C034E001C034E1042E000C550B57FF29
:1038000003C0519541955109E32E022F242FAE019B
:103810000E94021FCE01DF91CF911F910F91EF9077
:1038200008951F93FC0199278827BC01E894119102
:103830001032E9F3193010F01E30C8F31B3251F08A
:103840001D3249F4689406C00E94431C610F711D2B
:10385000811D911D119110531A30B0F33EF49095D3
:103860008095709561957F4F8F4F9F4F1F91089561
:10387000BB274A3031F4992322F4BDE2909581951B
:103880009F4F0C947B1C592F482F372F262F660FE4
:10389000771F881F991F660F771F881F991F620F58
:1038A000731F841F951F660F771F881F991F089528
:1038B000BB27FA01A62F6217710581059105330B0D
:1038C00030FB66F0AA27660F771F881F991FAA1F73
:1038D000A21710F0A21B63953850A9F7A05DAA3378
:1038E00008F0A95DA19336F7B111B1931082CA0116
:1038F0000C947222BB27FB015527AA27880F991F1A
:10390000AA1FA41710F0A41B83955051B9F7A05D0E
:10391000AA3308F0A95DA193009779F7B111B1938B
:103920001192CB010C9472220F931F93CF93DF93CC
:10393000009731F46115710519F480E090E03AC008
:103940008B01EC016EE070E081E090E00E94E61EE9
:10395000FC01892B91F380E883830115110571F037
:103960001387028781E88383809192059091930564
:10397000892B21F4F0939305E09392052097C9F0E9
:10398000D187C087838182608383809194059091E1
:103990009505892B71F4F0939505E093940580913A
:1039A000960590919705892B21F4F0939705E09364
:1039B0009605CF01DF91CF911F910F910895A0E05F
:1039C000B0E0E5EEFCE10C942A23AE01495F5F4FC5
:1039D000DA016D917D91AD0102E915E0F801828176
:1039E0009381DC0113962C911397286013962C93E6
:1039F0000E94051DD8011296ED91FC911397238129
:103A0000277F2383E4E00C944623ABE0B0E0EBE0B7
:103A1000FDE10C941C236C017B018A01FC011782DF
:103A20001682838181FFCCC1CE0101963C01F60153
:103A30009381F70193FD859193FF81917F01882305
:103A400009F4BAC1853239F493FD859193FF8191D0
:103A50007F01853229F4B60190E00E948222E7CFEF
:103A6000912C212C312CFFE1F315D8F08B3279F019
:103A700038F4803279F08332A1F4232D20611DC007
:103A80008D3261F0803369F4232D216016C0832DBF
:103A90008260382EE32DE4603E2E2AC0F32DF860BC
:103AA0001DC037FC2DC020ED280F2A3040F08E328B
:103AB000B9F436FC81C1232D2064322E19C036FEA4
:103AC00006C08AE0989E200D1124922E11C0EAE0D3
:103AD0002E9E200D1124222EF32DF0623F2E08C0C1
:103AE0008C3621F4832D8068382E02C0883641F44C
:103AF000F70193FD859193FF81917F018111B3CFF0
:103B0000982F9F7D9554933028F40C5F1F4F9FE3AF
:103B100099830DC0833631F0833771F0833509F016
:103B200059C021C0F801808189830E5F1F4F88240E
:103B30008394912C530113C02801F2E04F0E511CC5
:103B4000F801A080B18036FE03C0692D70E002C08C
:103B50006FEF7FEFC5010E9467224C018201F32DB8
:103B6000FF773F2E16C0280122E0420E511CF801BB
:103B7000A080B18036FE03C0692D70E002C06FEFF7
:103B80007FEFC5010E9455224C01F32DF0683F2EB6
:103B9000820133FC1BC0822D90E088169906B0F498
:103BA000B60180E290E00E9482222A94F4CFF501CF
:103BB00037FC859137FE81915F01B60190E00E944C
:103BC000822221102A9421E0821A91088114910402
:103BD00071F7E8C0843611F0893641F5F80137FEF7
:103BE00007C060817181828193810C5F1F4F08C083
:103BF00060817181072E000C880B990B0E5F1F4F9F
:103C0000F32DFF763F2E97FF09C090958095709514
:103C100061957F4F8F4F9F4FF0683F2E2AE030E035
:103C2000A3010E94BE22882E861845C0853731F434
:103C3000232D2F7EB22E2AE030E025C0932D997FD0
:103C4000B92E8F36C1F018F4883579F0B5C08037B9
:103C500019F0883721F0B0C0E92FE061BE2EB4FE24
:103C60000DC0FB2DF460BF2E09C034FE0AC0292F01
:103C70002660B22E06C028E030E005C020E130E02A
:103C800002C020E132E0F801B7FE07C06081718117
:103C9000828193810C5F1F4F06C06081718180E03B
:103CA00090E00E5F1F4FA3010E94BE22882E86184F
:103CB000FB2DFF773F2E36FE0DC0232D2E7FA22E2B
:103CC000891458F434FE0BC032FC09C0832D8E7E5B
:103CD000A82E05C0B82CA32C03C0B82C01C0B92C49
:103CE000A4FE0FC0FE01E80DF11D8081803321F498
:103CF0009A2D997EA92E09C0A2FE06C0B394B39452
:103D000004C08A2D867809F0B394A3FC11C0A0FEEC
:103D100006C0B21488F4280C922C9B180EC0B21462
:103D200060F4B60180E290E00E948222B394F7CF63
:103D3000B21418F42B1802C0982C212CA4FE10C029
:103D4000B60180E390E00E948222A2FE17C0A1FC8F
:103D500003C088E790E002C088E590E0B6010CC09F
:103D60008A2D867859F0A1FE02C08BE201C080E264
:103D7000A7FC8DE2B60190E00E948222891438F4FB
:103D8000B60180E390E00E9482229A94F7CF8A9451
:103D9000F301E80DF11D8081B60190E00E948222BE
:103DA0008110F5CF222009F442CEB60180E290E0E6
:103DB0000E9482222A94F6CFF6018681978102C062
:103DC0008FEF9FEF2B96E2E10C9438230F931F9314
:103DD000CF93DF93869F8001879F100D969F100DD4
:103DE0001124C8010E945C20EC01009729F0A80171
:103DF00060E070E00E946022CE01DF91CF911F91C0
:103E00000F910895A9E0B0E0E8E0FFE10C942223CF
:103E10006A01122FB02E2BE3201720F0FF24F39419
:103E2000F00E02C02CE3F22E0F2D27E0AE014F5F03
:103E30005F4F0E947D21BC014981842F89708130B0
:103E400031F0E1FC06C0E0FE06C090E205C09DE254
:103E500003C09BE201C090E05E2D507143FF3CC067
:103E6000911102C083E001C084E0811718F4212F72
:103E7000281B01C020E051110BC0F601822F30E257
:103E8000882319F031938150FBCFC20ED11C20E062
:103E9000992329F0D6019C93F60131966F01C60152
:103EA0000396E2FE0AC03EE4D6013C9341E411963B
:103EB0004C93119712963C9306C03EE6F601308370
:103EC00041E641833283FC01322F40E2332309F47F
:103ED00042C041933150FACF42FF44C0911102C019
:103EE00083E001C084E0811718F4212F281B01C052
:103EF00020E051110BC0F601822F30E2882319F027
:103F000031938150FBCFC20ED11C20E0992329F0C0
:103F1000D6019C93F60131966F01C6010396E2FE2D
:103F20000BC039E4D6013C933EE411963C931197C3
:103F300036E412963C9307C039E6F60130833EE63C
:103F4000318336E63283FC01322F40E2332319F00D
:103F500041933150FBCFFC01E20FF11D10828EEF37
:103F60009FEFA6C021E030E0911102C020E030E0D8
:103F7000161617061CF4FB01319602C0E1E0F0E0D2
:103F80002E0F3F1FBB2021F0EB2DF0E0319602C039
:103F9000E0E0F0E02E0F3F1FE12FF0E02E173F078B
:103FA0001CF4121B212F01C020E08E2D887159F4C2
:103FB000F601822F30E2882319F031938150FBCF34
:103FC000C20ED11C20E0992329F0D6019C93F60162
:103FD00031966F0151110BC0F601822F90E38823B7
:103FE00019F091938150FBCFC20ED11C20E00F2D10
:103FF000060F9A81342F307144FF03C0913309F4C6
:104000000150101624F4093018F008E001C001E056
:10401000AB0177FF02C040E050E0FB01E41BF50B71
:10402000A1E0B0E0AC0FBD1FEA0FFB1F8EE2A82E8F
:104030004B01801A91080B2D10E011950195110983
:104040004F3FBFEF5B0721F4D601AC9211966D0193
:10405000641775072CF08416950614F4818101C04D
:1040600080E3415051093196D60111967D014017E8
:10407000510724F0D6018C936701E2CF64177507CE
:1040800039F4963320F4953319F4311101C081E3EA
:10409000F6018083F701822F90E2882319F0919333
:1040A0008150FBCFF701E20FF11D108280E090E01C
:1040B0002996ECE00C943E230F931F93CF93DF934C
:1040C0008230910510F482E090E0E0919A05F09141
:1040D0009B0520E030E0A0E0B0E0309719F140818E
:1040E00051810281138148175907C8F08417950739
:1040F00069F4109731F012960C93129713961C9353
:1041000027C000939A0510939B0522C02115310505
:1041100019F04217530718F49A01BD01EF01DF01AE
:10412000F801DBCF21153105F9F0281B390B2430BC
:10413000310580F48A819B816115710521F0FB01B5
:104140009383828304C090939B0580939A05FE011C
:10415000329644C0FE01E20FF31F819391932250E7
:104160003109398328833AC0209198053091990507
:10417000232B41F420917C0130917D0130939905EE
:104180002093980520917A0130917B01211531050A
:1041900041F42DB73EB740917E0150917F01241B21
:1041A000350BE0919805F0919905E217F307A0F41B
:1041B0002E1B3F0B2817390778F0AC014E5F5F4F7D
:1041C0002417350748F04E0F5F1F50939905409311
:1041D00098058193919302C0E0E0F0E0CF01DF9178
:1041E000CF911F910F910895CF93DF93009709F41A
:1041F00081C0FC01329713821282A0919A05B0917E
:104200009B05109781F420813181820F931F2091AB
:104210009805309199052817390751F5F0939905BC
:10422000E093980567C0ED0120E030E0CE17DF078E
:1042300040F44A815B819E0141155105F1F0EA018C
:10424000F5CFD383C28340815181840F951FC81756
:10425000D90759F488819981840F951F029691831B
:1042600080838A819B81938382832115310529F480
:10427000F0939B05E0939A053DC0E901FB83EA8337
:1042800049915991C40FD51FEC17FD0761F4808146
:104290009181840F951F0296E90199838883828119
:1042A00093819B838A83E0E0F0E012968D919C914C
:1042B0001397009719F0FD01DC01F7CF8D919C91C8
:1042C00011979D012E5F3F4F820F931F20919805FC
:1042D000309199052817390769F4309729F410921D
:1042E0009B0510929A0502C013821282B093990521
:1042F000A0939805DF91CF910895283008F027E02A
:104300003327DA01990F311D87FD91600096610511
:10431000710539F432602E5F3D9330E32A95E1F761
:1043200008959F3F30F080387105610509F03C5FCA
:104330003C5F3D93913008F08068911DDF93CF93EF
:104340001F930F93FF92EF92192F987F9695E92F65
:1043500096959695E90FFF27E652FF4F9927332749
:10436000EE24FF24A701E70105900894079428F4A0
:10437000360FE71EF81E491F511D660F771F881F55
:10438000991F0694A1F70590079428F4E70EF81EEC
:10439000491F561FC11D770F881F991F661F06945E
:1043A000A1F70590079428F4F80E491F561FC71F60
:1043B000D11D880F991F661F771F0694A1F70590DE
:1043C000079420F4490F561FC71FD81F990F661F67
:1043D000771F881F0694A9F784911095177041F0F4
:1043E000D695C79557954795F794E7941A95C1F7D1
:1043F000E0E8F0E0689415901591359165919591FC
:1044000005907FE27395E118F10A430B560BC90B37
:10441000D009C0F7E10CF11E431F561FC91FD01D64
:104420007EF4703311F48A95E6CFE894015030F0B1
:10443000080F0AF40027021708F4202F2395022FF3
:104440007A3328F079E37D932A95E9F710C07D93BC
:104450002A9589F606949795679537951795179439
:10446000E118F10A430B560BC90BD00998F02395BC
:104470007E9173957A3308F070E37C932013B8F73C
:104480007E9170617D9330F0839571E37D9370E34D
:104490002A95E1F71124EF90FF900F911F91CF9192
:1044A000DF91992787FD90950895FC010590615053
:1044B00070400110D8F7809590958E0F9F1F08953A
:1044C000DC0101C06D9341505040E0F70895FC01BC
:1044D0006150704001900110D8F7809590958E0F33
:1044E0009F1F0895DC01FC01672F71917723E1F78D
:1044F000329704C07C916D9370836291AE17BF07B1
:10450000C8F308950F931F93CF93DF93FB0123818B
:1045100021FD03C08FEF9FEF2CC022FF16C0468104
:104520005781248135814217530744F4A081B1811A
:104530009D012F5F3F4F318320838C9326813781EC
:104540002F5F3F4F3783268314C08B01EC01FB01A3
:104550000084F185E02D0995892BE1F6D8011696A6
:104560008D919C911797019617969C938E93169711
:10457000CE01DF91CF911F910F910895FA01AA27E3
:10458000283051F1203181F1E8946F936E7F6E5F96
:104590007F4F8F4F9F4FAF4FB1E03ED0B4E03CD044
:1045A000670F781F891F9A1FA11D680F791F8A1F27
:1045B000911DA11D6A0F711D811D911DA11D20D08E
:1045C00009F468943F912AE0269F11243019305D48
:1045D0003193DEF6CF010895462F4770405D419339
:1045E000B3E00FD0C9F7F6CF462F4F70405D4A3386
:1045F00018F0495D31FD4052419302D0A9F7EACF4E
:10460000B4E0A6959795879577956795BA95C9F77C
:1046100000976105710508959B01AC010A2E06946F
:104620005795479537952795BA95C9F7620F731F28
:10463000841F951FA01D08952F923F924F925F9265
:104640006F927F928F929F92AF92BF92CF92DF92A2
:10465000EF92FF920F931F93CF93DF93CDB7DEB707
:10466000CA1BDB0B0FB6F894DEBF0FBECDBF09949B
:104670002A88398848885F846E847D848C849B84F2
:10468000AA84B984C884DF80EE80FD800C811B8100
:10469000AA81B981CE0FD11D0FB6F894DEBF0FBE2F
:1046A000CDBFED010895A1E21A2EAA1BBB1BFD018F
:1046B0000DC0AA1FBB1FEE1FFF1FA217B307E40701
:1046C000F50720F0A21BB30BE40BF50B661F771F59
:1046D000881F991F1A9469F7609570958095909539
:1046E0009B01AC01BD01CF010895EE0FFF1F0590A6
:1046F000F491E02D0994A0E0B0E0E1E8F3E20C943D
:104700002023EC01009721F4CB010E945C20B4C06F
:10471000FC01E60FF71F9C0122503109E217F30755
:1047200008F4A8C0D9010D911C911197061717071D
:10473000B0F00530110508F49BC0C8010497861736
:10474000970708F495C002501109061B170B019337
:1047500011936D937C93CF010E94F42089C05B017B
:10476000A01AB10A4C01800E911EA0919A05B09139
:104770009B05612C712CE12CF12C109709F446C09B
:104780008D919C911197A815B905B1F56C0142E086
:10479000C40ED11CCA14DB0478F14C018A189B08A2
:1047A000640142E0C40ED11C1296BC90129713967D
:1047B000AC91B5E0CB16D10440F0B282A3839182D4
:1047C0008082D9016D937C9309C00E5F1F4F800FCB
:1047D000911FF90191838083EB2DFA2FE114F104ED
:1047E00031F0D7011396FC93EE93129741C0F093EA
:1047F0009B05E0939A053CC06816790608F43C01D5
:104800007D0112960D90BC91A02DB7CF8091980597
:104810009091990588169906E1F466167706C8F412
:1048200080917A0190917B01009741F48DB79EB7FA
:1048300040917E0150917F01841B950BE817F90789
:10484000C8F4F0939905E0939805F90171836083AA
:104850000FC0CB010E945C207C01009759F0A80199
:10486000BE010E944624CE010E94F420C70104C06C
:10487000CE0102C080E090E0CDB7DEB7EEE00C9450
:104880003C2381E090E0F8940C947924FB01DC0156
:1048900002C001900D9241505040D8F70895FB019D
:1048A000DC018D91019080190110D9F3990B0895C5
:1048B000FB01DC0101900D920020E1F70895FB015E
:1048C00051915523A9F0BF01DC014D9145174111CC
:1048D000E1F759F4CD010190002049F04D914015C8
:1048E0004111C9F3FB014111EFCF81E090E0019745
:1048F000089511E0C5EDD1E004C0FE010E947523CA
:0C4900002196C63DD107C9F7F894FFCFFF
:10490C000000000000000000005A65726F000000FB
:10491C00000000000000000000000000000000008B
:10492C000000000000005A65726F000000000000DB
:10493C00000000000000000000000000000000006B
:10494C000000005A65726F000000000000000000BB
:10495C0000000000000000546F5F426F6D62610048
:10496C00004765745F496E666F0000444F0000009D
:10497C007EFF06000000000000EF00009C052000F8
:10498C0000000000B10F270E3810B00F01101710E7
:10499C00980F00000000BA0E270E510E070F820E62
:1049AC00600E740E7B732E642E6E3A007B732E6435
:1049BC002E743A007B732E642E633A007B692E6250
:1049CC002E6E3A415544494F7D007B732E722E6FEB
:1049DC003A00546F5F426F6D6261005365745F53B0
:1049EC00746174005365745F506173730053657424
:1049FC005F54696D6572004765745F496E666F0040
:104A0C007B732E622E6F3A317D007B732E622E6F7C
:104A1C003A307D007B732E622E763A007B732E62C9
:104A2C002E733A00546F5F446F64656B004F706572
:104A3C006E00577570007B732E646F2E6F3A317D4C
:104A4C00007B732E646F2E6F3A307D007B732E6467
:104A5C006F2E763A007B732E702E733A002F005B0C
:104A6C00003D0045525200706C5F3100706C5F323B
:104A7C0000706C5F3300706C5F3400766C5F3100DB
:104A8C00766C5F3200766C5F3300766C5F3400734B
:104A9C00745F310073745F320073745F330073742E
:104AAC005F34006F745F6B736B00546F5F4B61739B
:104ABC006B61005365745F4C6564006F745F626D6D
:104ACC007373006F745F626D7370006F745F626DEF
:104ADC007374006F745F6F706E006F745F777570B6
:104AEC00006F745F636B7264005374617274696EEF
:104AFC00672043617272696572204F75740053743C
:104B0C006F7070696E672043617272696572204FB5
:104B1C007574007B722E632E003A6E6F745F65782D
:104B2C006973747D0A003A636F6D706C65746564AB
:064B3C007D0A000D0A00D5
:107E0000112484B714BE81FFF0D085E080938100F7
:107E100082E08093C00088E18093C10086E0809377
:107E2000C20080E18093C4008EE0C9D0259A86E02C
:107E300020E33CEF91E0309385002093840096BBD3
:107E4000B09BFECF1D9AA8958150A9F7CC24DD24C4
:107E500088248394B5E0AB2EA1E19A2EF3E0BF2EE7
:107E6000A2D0813461F49FD0082FAFD0023811F036
:107E7000013811F484E001C083E08DD089C08234E0
:107E800011F484E103C0853419F485E0A6D080C0E4
:107E9000853579F488D0E82EFF2485D0082F10E0AE
:107EA000102F00270E291F29000F111F8ED06801E7
:107EB0006FC0863521F484E090D080E0DECF843638
:107EC00009F040C070D06FD0082F6DD080E0C81688
:107ED00080E7D80618F4F601B7BEE895C0E0D1E017
:107EE00062D089930C17E1F7F0E0CF16F0E7DF06D8
:107EF00018F0F601B7BEE89568D007B600FCFDCFD4
:107F0000A601A0E0B1E02C9130E011968C91119780
:107F100090E0982F8827822B932B1296FA010C0160
:107F200087BEE89511244E5F5F4FF1E0A038BF0790
:107F300051F7F601A7BEE89507B600FCFDCF97BE46
:107F4000E89526C08437B1F42ED02DD0F82E2BD052
:107F50003CD0F601EF2C8F010F5F1F4F84911BD097
:107F6000EA94F801C1F70894C11CD11CFA94CF0C13
:107F7000D11C0EC0853739F428D08EE10CD085E9AC
:107F80000AD08FE07ACF813511F488E018D01DD067
:107F900080E101D065CF982F8091C00085FFFCCF94
:107FA0009093C60008958091C00087FFFCCF809118
:107FB000C00084FD01C0A8958091C6000895E0E648
:107FC000F0E098E1908380830895EDDF803219F02E
:107FD00088E0F5DFFFCF84E1DECF1F93182FE3DFCA
:107FE0001150E9F7F2DF1F91089580E0E8DFEE27F6
:047FF000FF270994CA
:027FFE00040479
:0400000300007E007B
:00000001FF
