:100000000C94D4010C94FC010C94FC010C945D073D
:100010000C945D070C945D070C94FC010C94FC019E
:100020000C94FC010C94FC010C94FC010C94FC015C
:100030000C94FC010C94FC010C94FC010C94FC014C
:100040000C940C070C94FC010C94D4050C94AE0594
:100050000C94FC010C94FC010C94FC010C94FC012C
:100060000C94FC010C94FC01341243124E125712F2
:100070005A126512EA121E134913AF1300407A1088
:10008000F35A00A0724E18090010A5D4E80000E849
:100090007648170000E40B54020000CA9A3B0000A7
:1000A00000E1F505000080969800000040420F0036
:1000B0000000A08601000000102700000000E803F7
:1000C000000000006400000000000A0000000000C2
:1000D0000100000000002C76D888DC674F0823DF81
:1000E000C1DFAE59E1B1B796E5E3E453C63AE65154
:1000F000997696E8E6C28426EB898C9B62ED407C7B
:100100006FFCEFBC9C9F40F2BAA56FA5F490055A16
:100110002AF75C936B6CF9676DC11BFCE0E40D473B
:10012000FEF520E6B500D0ED902E0300943577055E
:100130000080841E080000204E0A000000C80C3316
:100140003333330F986E12831141EF8D2114893BA5
:10015000E65516CFFEE6DB18D1844B381BF77C1D25
:10016000901DA4BBE424203284725E228100C9F178
:1001700024ECA1E53D273D2050415F4D4158003D15
:100180002050415F48494748003D2050415F4C4F57
:1001900057003D2050415F4D494E003D20313620F3
:1001A00062697473003D20382062697473003D20D9
:1001B00044697361626C6564006E524632344C303F
:1001C000312B006E524632344C3031003D203235F6
:1001D00030204B425053003D2032204D42505300BE
:1001E0003D2031204D425053005354415455530942
:1001F000093D203078253032782052585F44523DF6
:1002000025782054585F44533D2578204D41585F50
:1002100052543D25782052585F505F4E4F3D25780F
:100220002054585F46554C4C3D25780D0A004152EC
:100230004309093D2025640D0A00504120506F7785
:1002400065720925530D0A00920189017F0176012B
:10025000435243204C656E6774680925530D0A00AC
:10026000AE01A5019B014D6F64656C09093D202518
:10027000530D0A00C301B9014461746120526174D5
:10028000650925530D0A00E001D701CC0144594E00
:1002900050442F4645415455524500434F4E464920
:1002A00047090052465F53455455500052465F433C
:1002B000480900454E5F52584144445200454E5F44
:1002C0004141090052585F50575F50302D3600545D
:1002D000585F41444452090052585F414444525FC0
:1002E00050322D350052585F414444525F50302DFA
:1002F00031005350492053706565647A093D2025CB
:1003000064204D687A0A000A0D524632342F65780F
:10031000616D706C65732F7363616E6E65722F0013
:100320002D00000000080002010000030407000087
:1003300000000000000000000000240027002A0048
:100340000D0A002530327800203078002553093D11
:10035000000D0A0020307825303278002553093D01
:10036000000001020304050000000023002600290C
:100370000000000000250028002B000404040404F1
:100380000404040202020202020303030303030142
:100390000204081020408001020408102001020419
:1003A00008102000301AD81811241FBECFEFD8E053
:1003B000DEBFCDBF12E0A0E0B1E0E0E6F6E402C0AF
:1003C00005900D92A63DB107D9F725E0A6EDB2E064
:1003D00001C01D92A833B207E1F711E0C3EDD1E0EF
:1003E00004C02197FE010E941F22C23DD107C9F718
:1003F0000E949E100C9423230C9400000895CF9229
:10040000DF92EF92FF920F931F93CF93DF936C01D4
:100410007A018B01C0E0D0E0CE15DF0581F0D80174
:100420006D918D01D601ED91FC910190F081E02D4F
:10043000C6010995892B11F02196EECF7E01C701E7
:10044000DF91CF911F910F91FF90EF90DF90CF90B0
:100450000895FC01538D448D252F30E0842F90E0CA
:10046000821B930B541710F0CF96089501970895AF
:10047000FC01918D828D981761F0828DDF01A80FAC
:10048000B11D5D968C91928D9F5F9F73928F90E0CE
:1004900008958FEF9FEF0895FC01918D828D98173D
:1004A00031F0828DE80FF11D858D90E008958FEF7A
:1004B0009FEF0895FC01918D228D892F90E0805C43
:1004C0009F4F821B91098F739927089580EF93E0C6
:1004D0000E945A0221E0892B09F420E0822F08951E
:1004E000FC01848DDF01A80FB11DA35ABF4F2C91D1
:1004F000848D90E001968F739927848FA689B789A0
:100500002C93A089B1898C91837080648C93938D96
:10051000848D981306C00288F389E02D80818F7D39
:1005200080830895EF92FF920F931F93CF93DF93F1
:10053000EC0181E0888F9B8D8C8D981305C0E88934
:10054000F989808185FD26C0F62E0B8D10E00F5FA6
:100550001F4F0F731127E02E8C8DE8120CC00FB6C1
:1005600007FCFACFE889F989808185FFF5CFCE01B4
:100570000E947002F1CF8B8DFE01E80FF11DE35A4E
:10058000FF4FF0829FB7F8940B8FEA89FB89808137
:1005900080620AC09FB7F894EE89FF896083E8897A
:1005A000F98980818370806480839FBF81E090E0BF
:1005B000DF91CF911F910F91FF90EF900895CF930E
:1005C000DF93EC01888D8823C9F0EA89FB8980815B
:1005D00085FD05C0A889B9898C9186FD0FC00FB62D
:1005E00007FCF5CF808185FFF2CFA889B9898C916E
:1005F00085FFEDCFCE010E947002E7CFDF91CF9152
:10060000089580E090E0892B29F00E946602811114
:100610000C9400000895833081F028F4813099F023
:100620008230A1F008958730A9F08830B9F0843085
:10063000D1F4809180008F7D03C0809180008F77FE
:1006400080938000089584B58F7702C084B58F7D34
:1006500084BD08958091B0008F7703C08091B00071
:100660008F7D8093B00008953FB7F8948091E503A3
:100670009091E603A091E703B091E80326B5A89B0B
:1006800005C02F3F19F00196A11DB11D3FBFBA2F24
:10069000A92F982F8827820F911DA11DB11DBC0184
:1006A000CD0142E0660F771F881F991F4A95D1F749
:1006B0000895CF93DF93C3E5D1E08091EE0390914D
:1006C000EF036991DC01ED91FC910190F081E02D47
:1006D0000995B1E0CD35DB0781F7DF91CF91089522
:1006E0002091EC033091ED032817390771F49091B4
:1006F000EA038091EB03981741F0E091EA03F0E000
:10070000E056FC4F808190E008958FEF9FEF0895B1
:1007100008951F93CF93DF93DC015C968D919C919C
:100720005D97009739F421E030E013963C932E93C7
:1007300012973BC05196ED91FC91529750962C9197
:100740005097322F30951FB75E964C915E97742F5D
:10075000727041FD6095F8944081772311F0422B2F
:1007600001C043234083EC012197F1F748E0508119
:1007700060FF02C0522B01C053235083EC0121972C
:10078000F1F76695415099F78081772319F083231B
:10079000808302C0282B20831FBF5C968D919C9183
:1007A0005D970197F1F781E090E0DF91CF911F9184
:1007B00008952091EC033091ED032817390761F477
:1007C0008091EB032091EA0390E0805C9F4F821BB5
:1007D00091098F739927089580E090E00895209102
:1007E000EC033091ED0328173907B9F49091EA032F
:1007F0008091EB03981789F0E091EA03F0E0E0566E
:10080000FC4F80812091EA0330E02F5F3F4F2F7330
:1008100033272093EA0390E008958FEF9FEF089528
:1008200080E090E00895CF93C82F682F80EF93E089
:100830000E9492028C2FCC0F990BCF9108950E94A9
:10084000EB220F931F93CF93DF93EC018881998163
:10085000009729F02A813B812617370788F48B01FE
:100860006F5F7F4F0E942522009761F099838883F4
:100870001B830A832C813D81232B11F4FC01108200
:1008800081E001C080E0DF91CF911F910F91089529
:10089000FC0124813581232B31F421E061157105A0
:1008A000A1F0FB0108C0FC018081918161157105F7
:1008B00031F421E0FC018081882339F005C00E94D9
:1008C000F92221E0892B09F020E0822F0895EF9290
:1008D000FF920F931F93CF93DF936115710511F46E
:1008E00080E01CC041155105C1F07B01EC018C81F9
:1008F0009D818A01080F191FB801CE010E942104B1
:10090000882371F3288139818C819D81B701820F01
:10091000931F0E9402231D830C8381E0DF91CF91FE
:100920001F910F91FF90EF9008950F931F93CF9316
:10093000DF938C01EB01FC0180819181009739F0FC
:100940006881798161157105A1F40E949E1F8881DB
:100950009981F801918380838A819B81938382832B
:100960008C819D8195838483198218821B821A82CF
:100970000FC0F801428153812C813D8142175307FA
:1009800020F30E9402238C819D81F801958384834A
:100990001D821C82DF91CF911F910F910895CF93FB
:1009A000DF93EC0188819981009711F00E949E1FCE
:1009B000198218821D821C821B821A82DF91CF91BC
:1009C0000895CF93DF93EC016115710561F0FB0190
:1009D00001900020E9F73197AF01461B570B0E94A9
:1009E0006704811103C0CE010E94CF04CE01DF91C4
:1009F000CF910895EF92FF920F931F93CF93DF93C0
:100A0000EC017B018A01BA010E942104811104C01A
:100A1000CE010E94CF0407C01D830C83B7018881DB
:100A200099810E940223CE01DF91CF911F910F91F6
:100A3000FF90EF900895CF93DF93EC01611571055E
:100A400059F0FB0101900020E9F73197AF01461BF7
:100A5000570B0E94FA0402C00E94CF04CE01DF911E
:100A6000CF910895FC0180819181009711F00C9441
:100A70009E1F0895FB01DC0111961C921E92139695
:100A80001C921E92129715961C921E92149786170E
:100A9000970749F0608171816115710521F04481EA
:100AA00055810C94FA040895FC011182108213827E
:100AB0001282158214826115710551F0FB010190BB
:100AC0000020E9F73197AF01461B570B0C94FA044D
:100AD0000895BF92CF92DF92EF92FF920F931F93F0
:100AE000CF93DF937C016B018A01E901241735075D
:100AF00020F4812F8901C42FD82F65ED72E0C70142
:100B00000E945405D60114968D919C911597081753
:100B10001907C8F48C179D0708F4EC01D601ED9174
:100B2000FC911197EC0FFD1FB08010826D917C91AC
:100B3000600F711FC7010E941B05D601ED91FC914A
:100B4000EC0FFD1FB082C701DF91CF911F910F9174
:100B5000FF90EF90DF90CF90BF9008951F920F927B
:100B60000FB60F9211242F933F934F935F936F9380
:100B70007F938F939F93AF93BF93EF93FF9380EFF8
:100B800093E00E947002FF91EF91BF91AF919F910E
:100B90008F917F916F915F914F913F912F910F9026
:100BA0000FBE0F901F9018951F920F920FB60F92C5
:100BB00011242F938F939F93EF93FF93E091000461
:100BC000F09101048081E0910604F091070482FD18
:100BD00012C09081809109048F5F8F7320910A0465
:100BE000821751F0E0910904F0E0E051FC4F958F3D
:100BF0008093090401C08081FF91EF919F918F91B3
:100C00002F910F900FBE0F901F901895CF93DF93E9
:100C1000282F30E0F901EE5DFC4F8491F901E15796
:100C2000FC4FD491F901E558FC4FC491CC2391F0CD
:100C300081110E940B03EC2FF0E0EE0FFF1FE9592A
:100C4000FC4FA591B491EC91ED2381E090E021F46B
:100C500080E002C080E090E0DF91CF9108951F9383
:100C6000CF93DF93282F30E0F901EE5DFC4F8491A4
:100C7000F901E157FC4FD491F901E558FC4FC491BB
:100C8000CC23C1F0162F81110E940B03EC2FF0E052
:100C9000EE0FFF1FEF58FC4FA591B4919FB7F8944A
:100CA000111104C08C91D095D82302C0EC91DE2B99
:100CB000DC939FBFDF91CF911F910895CF93DF9376
:100CC00090E0FC01E157FC4F2491FC01E558FC4FFA
:100CD0008491882361F190E0880F991FFC01EA5C00
:100CE000FC4FC591D491FC01EF58FC4FA591B491F4
:100CF000611109C09FB7F894888120958223888369
:100D0000EC912E230BC0623061F49FB7F894888178
:100D1000322F309583238883EC912E2B2C939FBF09
:100D200006C08FB7F894E8812E2B28838FBFDF9100
:100D3000CF9108958F929F92AF92BF92CF92DF9200
:100D4000EF92FF926B017C010E9434034B015C0126
:100D5000C114D104E104F104F1F00E943403DC0178
:100D6000CB0188199909AA09BB09883E9340A105BE
:100D7000B10570F321E0C21AD108E108F10888EE4C
:100D8000880E83E0981EA11CB11CC114D104E1049B
:100D9000F10419F7DDCFFF90EF90DF90CF90BF9077
:100DA000AF909F908F900895CF93DF9365E070E0B0
:100DB00080E090E00E949A068091EE039091EF030C
:100DC000DC01ED91FC910084F185E02D09950A97F5
:100DD00014F480E012C0CAE0D0E08091EE0390915C
:100DE000EF03DC01ED91FC910284F385E02D099580
:100DF000019679F3219789F781E0DF91CF910895EA
:100E00002FB7F8946091E1037091E2038091E303BE
:100E10009091E4032FBF08951F920F920FB60F9287
:100E200011242F933F938F939F93AF93BF93809100
:100E3000E1039091E203A091E303B091E4033091C8
:100E4000E00323E0230F2D3720F40196A11DB11DEF
:100E500005C026E8230F0296A11DB11D2093E003D3
:100E60008093E1039093E203A093E303B093E40340
:100E70008091E5039091E603A091E703B091E80328
:100E80000196A11DB11D8093E5039093E603A09305
:100E9000E703B093E803BF91AF919F918F913F918A
:100EA0002F910F900FBE0F901F9018958EBD0000D0
:100EB0000DB407FEFDCF8EB508951F920F920FB6A9
:100EC0000F9211242F933F934F935F936F937F93D0
:100ED0008F939F93AF93BF93EF93FF93E091EC03B6
:100EE000F091ED03309709F451C0968DA685B78532
:100EF000858591FF04C09C91892329F447C09C916A
:100F0000892309F043C0A389B4899C918589809580
:100F100089238C93868997890197F1F7608D718D6C
:100F2000A685B785558538E020E0CB010197F1F71C
:100F3000822F90E095958795282F4C91452309F0B5
:100F40002068315091F7868D81FD20958091EB03CB
:100F500090E001968F7399273091EA03381749F092
:100F6000A091EB03B0E0A056BC4F2C938093EB0311
:100F700003C0868D8160868F828D938D0197F1F7F6
:100F8000A389B4899C918589892B8C93FF91EF91DA
:100F9000BF91AF919F918F917F916F915F914F9191
:100FA0003F912F910F900FBE0F901F901895E091D9
:100FB000EC03F091ED03E817F90769F4A389B4890C
:100FC0009C918589809589238C931092ED031092D2
:100FD000EC0381E0089580E00895CF93DF93EC0166
:100FE0008230910571F02CF4019791F48DE894E032
:100FF0000DC08330910541F0049751F48AEE94E0DE
:1010000005C08CEA94E002C08BEC94E00E940C0FC7
:1010100060E070E086E10E94950E64E670E080E09A
:1010200090E00E949A06CC0FDD1FCC52DD4F198252
:101030001882DF91CF910895CF93DF93EB01823037
:10104000910571F02CF4019791F48DE894E00DC0B6
:101050008330910541F0049751F48AEE94E005C085
:101060008CEA94E002C08BEC94E00E940C0FBE016D
:1010700086E00E94950E64E670E080E090E0DF91EB
:10108000CF910C949A06EF92FF920F931F93CF93F8
:10109000DF937C01EB0182E0E816F10499F03CF467
:1010A00081E0E816F104A9F48DE894E010C083E033
:1010B000E816F10451F084E0E816F10451F48AEEE8
:1010C00094E005C08CEA94E002C08BEC94E00E94AE
:1010D0000C0FC63F8BE0D80709F4A4C20CF012C174
:1010E000CD3C8BE0D80709F458C20CF089C0CE3B48
:1010F0008BE0D80709F430C20CF045C0CF3E83E046
:10110000D80709F417C2ECF4CB3E83E0D80709F402
:1011100008C26CF4C93E83E0D80709F40DC3CA3E87
:1011200083E0D80709F00AC302E010E007C3CD3E10
:1011300083E0D80709F4F8C10CF0F9C104E010E02D
:10114000FDC2CA3B8BE0D80709F4FDC194F4C23D4F
:1011500087E0D80709F4F1C1C93B8BE0D80709F44F
:10116000EFC1C13D87E0D80709F0E8C208E010E010
:10117000E5C2CC3B8BE0D80709F4E8C10CF0E9C12B
:101180000CE010E0DBC2C53C8BE0D80709F4F3C1EA
:10119000ECF4C13C8BE0D80709F4E4C16CF4CF3B1C
:1011A0008BE0D80709F4DBC1C03C8BE0D80709F01D
:1011B000C5C201E110E0C2C2C33C8BE0D80709F40C
:1011C000D4C10CF0D5C103E110E0B8C2C93C8BE03A
:1011D000D80709F4D9C154F4C73C8BE0D80709F407
:1011E000CDC10CF0CEC107E110E0A8C2CB3C8BE032
:1011F000D80709F4CCC10CF0CDC10BE110E09EC2C0
:10120000CC3D8BE0D80709F4E9C1ECF5C43D8BE097
:10121000D80709F4D1C1ECF4C03D8BE0D80709F43C
:10122000C2C16CF4CE3C8BE0D80709F4B9C1CF3C05
:101230008BE0D80709F082C200E210E07FC2C23D15
:101240008BE0D80709F4B2C10CF0B3C102E210E0A0
:1012500075C2C83D8BE0D80709F4B7C154F4C63D48
:101260008BE0D80709F4ABC10CF0ACC106E210E08A
:1012700065C2CA3D8BE0D80709F4AAC10CF0ABC126
:101280000AE210E05BC2CE3E8BE0D80709F4B8C199
:10129000FCF4CA3E8BE0D80709F4A9C17CF4CE3D2A
:1012A0008BE0D80709F4A0C10CF49BC1CF3D8BE0C3
:1012B000D80709F043C200E310E040C2CC3E8BE007
:1012C000D80709F497C10CF098C102E310E036C2C8
:1012D000C23F8BE0D80709F49CC154F4C03F8BE0B7
:1012E000D80709F490C10CF091C106E310E026C2C2
:1012F000C43F8BE0D80709F48FC10CF090C10AE31A
:1013000010E01CC2C5318CE0D80709F4D0C10CF044
:101310007DC0C5308CE0D80709F4A5C1ECF5CD3F00
:101320008BE0D80709F48DC1ECF4C93F8BE0D807F6
:1013300009F47EC16CF4C73F8BE0D80709F475C18E
:10134000C83F8BE0D80709F0F9C10FE310E0F6C100
:10135000CB3F8BE0D80709F46EC10CF06FC101E4FC
:1013600010E0ECC1C1308CE0D80709F473C154F42B
:10137000CF3F8BE0D80709F467C10CF068C105E4E2
:1013800010E0DCC1C3308CE0D80709F466C10CF072
:1013900067C109E410E0D2C1CD308CE0D80709F470
:1013A00074C1D4F4C9308CE0D80709F465C154F491
:1013B000C7308CE0D80709F459C10CF05AC10DE4CC
:1013C00010E0BCC1CB308CE0D80709F458C10CF058
:1013D00059C101E510E0B2C1C1318CE0D80709F470
:1013E0005DC154F4CF308CE0D80709F451C10CF042
:1013F00052C105E510E0A2C1C3318CE0D80709F461
:1014000050C10CF051C109E510E098C1C03B8FE01C
:10141000D80709F46DC10CF042C0C73A8FE0D80775
:1014200009F454C1ECF4C33A8FE0D80709F445C17C
:101430006CF4C13A8FE0D80709F43CC1C23A8FE09E
:10144000D80709F07BC10EE510E078C1C53A8FE0FE
:10145000D80709F435C10CF036C100E610E06EC1C2
:10146000CB3A8FE0D80709F43AC154F4C93A8FE077
:10147000D80709F42EC10CF02FC104E610E05EC1BC
:10148000CE3A8FE0D80709F42DC10CF02EC1CC3A2A
:101490008FE0D80709F052C108E610E04FC1C83B01
:1014A0008FE0D80709F436C1D4F4C43B8FE0D807E5
:1014B00009F427C154F4C23B8FE0D80709F41BC1DB
:1014C0000CF01CC10CE610E039C1C63B8FE0D80718
:1014D00009F41AC10CF01BC100E710E02FC1CC3B8E
:1014E0008FE0D80709F41FC154F4CA3B8FE0D80736
:1014F00009F413C10CF014C104E710E01FC1CB388C
:1015000083E1D80709F412C1CC3883E1D80709F484
:1015100010C1CD3B8FE0D80709F010C108E710E0FB
:101520000DC103E010E00AC105E010E007C106E0CC
:1015300010E004C107E010E001C109E010E0FEC0C6
:101540000AE010E0FBC00BE010E0F8C00DE010E096
:10155000F5C00EE010E0F2C00FE010E0EFC000E1D7
:1015600010E0ECC002E110E0E9C004E110E0E6C0E8
:1015700005E110E0E3C006E110E0E0C008E110E0A2
:10158000DDC009E110E0DAC00AE110E0D7C00CE1EB
:1015900010E0D4C00DE110E0D1C00EE110E0CEC0EB
:1015A0000FE110E0CBC001E210E0C8C003E210E0A0
:1015B000C5C004E210E0C2C005E210E0BFC007E20F
:1015C00010E0BCC008E210E0B9C009E210E0B6C00B
:1015D0000BE210E0B3C00CE210E0B0C00DE210E08E
:1015E000ADC00EE210E0AAC00FE210E0A7C001E318
:1015F00010E0A4C003E310E0A1C004E310E09EC02B
:1016000005E310E09BC007E310E098C008E310E09A
:1016100095C009E310E092C00BE310E08FC00CE32B
:1016200010E08CC00DE310E089C00EE310E086C02E
:1016300000E410E083C002E410E080C003E410E0A6
:101640007DC004E410E07AC006E410E077C007E44F
:1016500010E074C008E410E071C00AE410E06EC04D
:101660000BE410E06BC00CE410E068C00EE410E086
:1016700065C00FE410E062C000E510E05FC002E565
:1016800010E05CC003E510E059C004E510E056C06E
:1016900006E510E053C007E510E050C008E510E093
:1016A0004DC00AE510E04AC00BE510E047C00CE56C
:1016B00010E044C00DE510E041C00FE510E03EC071
:1016C00001E610E03BC002E610E038C003E610E09F
:1016D00035C005E610E032C006E610E02FC007E690
:1016E00010E02CC009E610E029C00AE610E026C090
:1016F0000BE610E023C00DE610E020C00EE610E07F
:101700001DC00FE610E01AC001E710E017C002E7A5
:1017100010E014C003E710E011C005E710E00EC0B0
:1017200006E710E00BC007E710E008C009E710E08B
:1017300005C00AE710E002C001E010E0B80182E154
:101740000E94950E68EE73E080E090E00E949A0699
:10175000F701EE0FFF1FEC52FD4FD183C083DF91E5
:10176000CF911F910F91FF90EF9008956091180510
:1017700061FD0AC062606093180580E00E947C10E1
:101780008BE19EE40197F1F708950E94341080E503
:101790000E9456078093110583E70E9456070C9418
:1017A000311080E00E94951080911F0590912005D6
:1017B0008230910538F0880F991F880F991F05977F
:1017C0000197F1F780911B0581110E948F106091A4
:1017D00018056E7F6093180580E00E947C1082E0FF
:1017E0000E945D10E1E6F3E0E49161E070E001C089
:1017F000660FEA95EAF7682B82E00C947C10FF9262
:101800000F931F93CF93DF93182FF62ED72FC42F4C
:101810000E943410812F80620E9456078093110528
:101820000F2D1D2FCC2339F0F80181918F010E94DB
:101830005607C150F7CFDF91CF911F910F91FF90C5
:101840000C9431100E94B60B609118056160609392
:10185000180580E00E947C1060E787E00E947C1001
:1018600081E00E94951080911A05882339F04091FB
:101870001C0563E175E08AE00C94FF0B82E00E9496
:101880005D10E1E6F3E0E49121E030E001C0220FD9
:10189000EA95EAF72095622F682382E00E947C1087
:1018A00010921A0508958D3710F4682F01C06DE766
:1018B00085E00C947C10CF93C82F86E00E945D10C9
:1018C000887F9C2FC43008F093E0990F9F5F692FA9
:1018D000682B86E0CF910C947C10CF9386E00E9419
:1018E0005D10C82FC77D85E590E0A0E0B0E0809353
:1018F0001F0590932005A0932105B09322056C2F1E
:1019000086E00E947C1086E00E945D1091E0C81382
:1019100090E0892FCF910895CF93CFB7F89480911D
:10192000E903811127C0E5E8F3E08491E9E9F3E0F8
:101930009491E82FF0E0EE0FFF1FEA5CFC4FA591B9
:10194000B491EC91E92321F461E08AE00E942F0632
:1019500061E08AE00E945E068CB580618CBD8CB52A
:1019600080648CBD61E08DE00E945E0661E08BE0EA
:101970000E945E068091E9038F5F8093E903CFBFE9
:1019800080910B058F3F09F470C090910C059F3F2B
:1019900009F46BC0891741F061E00E945E0661E0C6
:1019A00080910C050E945E0680E00E94951081E007
:1019B0000E941D1065E070E080E090E00E949A06B1
:1019C0006FE584E00E947C100E946D0C8DE10E9406
:1019D0005D10C82F0E94C50B8DE10E945D1091E043
:1019E000C81390E090931905811141C010921B0516
:1019F00060E08CE10E947C1010921D056FE381E095
:101A00000E947C1063E082E00E947C1080E2809360
:101A10001205C1E1609112058C2F0E947C10CF5FEE
:101A2000C731C1F763E083E00E947C1085E08093BA
:101A30001C058CE40E94530C60E787E00E947C1038
:101A400082EE0E946F100E948F106CE080E00E9476
:101A50007C1080E00E945D10809318050E94B60BF8
:101A600081E0909118059E3059F080E009C0C813BC
:101A700002C00E94C50B60E08DE10E947C10B6CFD1
:101A8000CF910895EF92FF920F931F93CF93DF931F
:101A90007C0180911D05811108C0C0911205DC2FC9
:101AA000CE3108F0DDE1CD1B02C0C0E0DDE10E94D7
:101AB000341081E60E945607809311058701D150AA
:101AC00038F08FEF0E945607F80181938F01F7CF0E
:101AD000CC2329F08FEF0E945607C150F9CF0E9406
:101AE000311060E487E0DF91CF911F910F91FF905B
:101AF000EF900C947C10CF92DF92EF92FF920F93B5
:101B00001F93CF93DF9380911D05811108C0C09171
:101B10001205DC2FCA3108F0D9E1CD1B02C0C0E0AC
:101B2000D9E10E94341080EA0E9456078093110583
:101B30000AE311E0D15030F0F80181918F010E9449
:101B40005607F8CFCC2329F080E00E945607C150F9
:101B5000F9CF0E94311081E00E9495100E94000789
:101B60006B017C018FEF0E946F10809111058073D3
:101B700089F40E940007DC01CB018C199D09AE0994
:101B8000BF0980369105A105B10560F381E080931E
:101B90001E050DC080E00E94951060E787E00E945E
:101BA0007C108091110584FF04C00E948F1080E09A
:101BB00001C081E0DF91CF911F910F91FF90EF90D5
:101BC000DF90CF90089580911B05811115C08DE1A4
:101BD0000E945D10682F66608DE10E947C108CE190
:101BE0000E945D10682F63608CE10E947C1081E090
:101BF00080931D0580931B050895FC0180819181D0
:101C0000009711F00C94BB1A60E070E0CB010895CE
:101C10000F931F930E9400076093F8037093F903DA
:101C20008093FA039093FB0380EF93E00E943802C5
:101C300097FF1FC00E9400070091F8031091F9035D
:101C40002091FA033091FB03DC01CB01801B910B47
:101C5000A20BB30B0091F4031091F5032091F6034E
:101C60003091F70380179107A207B307E8F28FEFCF
:101C70009FEF1F910F9108950F931F93CF93DF93C1
:101C8000CDB7DEB762970FB6F894DEBF0FBECDBFFB
:101C90008C01CB01F801118210821382128215820D
:101CA00014824AE0BE016F5F7F4F0E94E21ABE01BC
:101CB0006F5F7F4FC8010E941B0562960FB6F894B4
:101CC000DEBF0FBECDBFDF91CF911F910F91089561
:101CD0000F931F93CF93DF93CDB7DEB7A1970FB6C6
:101CE000F894DEBF0FBECDBF8C01CB01BA01F80165
:101CF0001182108213821282158214822AE0AE01B0
:101D00004F5F5F4F0E94021BBE016F5F7F4FC80194
:101D10000E941B05A1960FB6F894DEBF0FBECDBF83
:101D2000DF91CF911F910F9108958F929F92AF9263
:101D3000BF92CF92DF92EF92FF92CF93DF93D82F93
:101D4000C62F0E9400076B017C01809029059090AE
:101D50002A05A0902B05B0902C05681579058A05F9
:101D60009B0549F00E940007DC01CB018819990905
:101D7000AA09BB090AC00E940007A7019601261BF9
:101D8000370B480B590BDA01C90182339105A105C4
:101D9000B10578F422E3C22ED12CE12CF12CA7015D
:101DA0009601281B390B4A0B5B0BCA01B9010E9433
:101DB0009A06D093560110925801C0935901E4E558
:101DC000F1E02AE531E080E090E04191840F911D3F
:101DD0002E173F07D1F791958195910990935A015C
:101DE00080935B01E0912705F091280509950E94F9
:101DF00000076093290570932A0580932B05909323
:101E00002C05DF91CF91FF90EF90DF90CF90BF90A6
:101E1000AF909F908F9008959093EF038093EE037F
:101E200089E593E090932805809327050895FC01A8
:101E3000448155816081718180EF93E00C94FF01B2
:101E4000CF93DF93FC01138E128E118E108E178AA2
:101E5000168A8DE991E0958F848F9485963108F0EC
:101E60004EC02DEB30E0378B268B2BE931E0318FE4
:101E7000208F2CE231E0338F228F30916800983030
:101E800058F021E09E3008F420E091E0892F01C055
:101E9000880F2A95EAF701C084E0832B80936800BD
:101EA0009485983038F09E3040F0963148F020E02C
:101EB00030E008C02DE630E005C02BE630E002C07F
:101EC0002CE630E0348B238B983030F481E001C075
:101ED000880F9A95EAF70EC0292F30E09E3018F44B
:101EE0002850310902C02E50310981E001C0880F0D
:101EF0002A95EAF7858B848D958D0197F1F7828D70
:101F0000938D892BE9F08091EC039091ED03E81714
:101F1000F907B1F0EF01009711F00E94D7078E8DFD
:101F20008E7F8E8F1092EB031092EA03D093ED0315
:101F3000C093EC03EB89FC8990818D89892B808388
:101F4000DF91CF910895CF93DF93EC01FB014481A2
:101F50005581608171810E946704811103C0CE01A7
:101F60000E94CF04CE01DF91CF910895009769F0D0
:101F7000FC0101900020E9F73197AF01481B590B94
:101F8000BC0180EF93E00C94FF0180E090E00895A5
:101F90000F931F93CF93DF938C01C0E0D0E0F80143
:101FA000EC0FFD1F6491662341F080EF93E00E94E7
:101FB0009202892B11F02196F2CFCE01DF91CF91C1
:101FC0001F910F9108950F931F93CF93DF93CDB778
:101FD000DEB7A1970FB6F894DEBF0FBECDBFAC0140
:101FE000990F660B770B19A2CE0181968A019B018E
:101FF0000F7011272227332724E076956795579590
:1020000047952A95D1F701970A3014F4005D01C075
:10201000095CFC010083411551056105710531F72B
:102020000E94B60FA1960FB6F894DEBF0FBECDBFCB
:10203000DF91CF911F910F910895682F80910C052A
:102040000E942F06809123059091240582309105EE
:1020500038F0880F991F880F991F05970197F1F79E
:10206000089581E00C941D100F931F9300910D05AE
:1020700010910E0520910F053091100540E052E1BE
:102080006AE770E090E0041715072607370740F469
:1020900076956795579547959F5F9630A1F797E09E
:1020A00081E08927982F906A969581709CBD8DBD9F
:1020B00080E01F910F910C941D10CF93C82F0E94A8
:1020C00034108C2F0E945607809311058FEF0E94C9
:1020D0005607C82F0E9431108C2FCF910895CF93AF
:1020E000C82F0E9434108C2F80620E945607809364
:1020F0001105CF910C943110CF93DF93D82FC62FB9
:102100000E9434108D2F80620E9456078093110523
:102110008C2F0E945607DF91CF910C94311081EEE5
:102120000E946F10809111050895682F80910B0512
:1021300090910C0589130C942F060895CF93DF938B
:10214000CDB7DEB7C354D1090FB6F894DEBF0FBECA
:10215000CDBF789484B5826084BD84B5816084BD30
:1021600085B5826085BD85B5816085BD80916E0035
:10217000816080936E001092810080918100826066
:1021800080938100809181008160809381008091A3
:1021900080008160809380008091B1008460809392
:1021A000B1008091B00081608093B00080917A008E
:1021B000846080937A0080917A00826080937A00B4
:1021C00080917A00816080937A0080917A008068A3
:1021D00080937A001092C100E0910004F091010414
:1021E00082E08083E0910004F09101041082E0918C
:1021F000FC03F091FD031082E091FE03F091FF03D8
:1022000080E1808310920804E0910404F0910504B9
:1022100086E08083E0910204F09103048081806174
:102220008083E0910204F0910304808188608083C0
:10223000E0910204F0910304808180688083E09142
:102240000204F091030480818F7D808388EC90E00C
:10225000A0E0B0E08093F4039093F503A093F6031D
:10226000B093F70364ED72E0CE0101960E9454052D
:10227000CE0101960E94170FCE0101960E943205F1
:1022800060E070E083E194E00E943E1B8DE894E002
:102290000E94200F8CEA94E00E94200F8BEC94E0C7
:1022A0000E94200F8AEE94E00E94200F60E081E1FE
:1022B0000E945E0660E080E10E945E0660E08FE0C2
:1022C0000E945E0660E08EE00E945E066EE170E0B5
:1022D00081E090E00E941C086EE170E082E090E0F6
:1022E0000E941C086EE170E083E090E00E941C08F0
:1022F0006EE170E084E090E00E941C0881E090E0D4
:102300000E94ED0782E090E00E94ED0783E090E0FC
:102310000E94ED0784E090E00E94ED07A0E48A2E81
:10232000A2E49A2EAFE0AA2EB12C80919F038823BD
:1023300071F08091D8029091D902892B41F41092CA
:102340009F036EE170E081E090E00E941C088091A4
:102350009B0390919C03A0919D03B0919E030196D5
:10236000A11DB11D80939B0390939C03A0939D039B
:10237000B0939E0380919303811109C065ED72E0D3
:102380008DE893E00E94540581E08093930380914F
:102390008503811109C065ED72E08FE793E00E942B
:1023A000540581E08093850380917703811109C0F2
:1023B00065ED72E081E793E00E94540581E080932F
:1023C000770380916903811109C065ED72E083E6AE
:1023D00093E00E94540581E0809369030E94000706
:1023E00000915F03109160032091610330916203BB
:1023F000DC01CB01801B910BA20BB30B853F9140FD
:10240000A105B10508F4C7C181E10E94060621E0DB
:10241000892B09F020E02EAF80E10E94060621E022
:10242000892B09F020E02FAF8FE00E94060621E003
:10243000892B09F020E021962FAF21978EE00E9492
:10244000060621E0892B09F020E022962FAF229783
:10245000E0915D03F0915E03EA30F10508F09BC165
:10246000EC5CFF4F0C941F2240919B0350919C0306
:1024700060919D0370919E03CE01C2960E94680EEA
:1024800067E871E0E3C00E940007AB01BC01CE0128
:10249000C2960E94680E6FE871E0D8C06DE873E0E4
:1024A000CE01C2960E943A0567E971E0CFC06FE99C
:1024B00071E03FC10E948C0C682F70E0CE01C29683
:1024C0000E943C0E6DEA71E0C1C065EB71E08AE3E9
:1024D00091E00E94022365ED72E08FE793E00E9495
:1024E000480481110BC06EEB71E084E491E00E941E
:1024F000022360917F037091800325C065ED72E037
:1025000081E793E00E94480481110BC067EC71E001
:1025100084E491E00E940223609171037091720340
:1025200012C065ED72E083E693E00E9448048111D9
:102530000DC060ED71E084E491E00E94022360919F
:102540006303709164038EE491E004C06AED71E06E
:1025500084E491E00E94022384E60E94530C0E94CE
:102560006D0C82E00E945B0C0E94E30D81E18AA762
:102570008DED8BA78CEC8CA78BEB8DA78AEA8EA7B1
:102580001FA618AA19AA40911C05BE01665D7F4FBF
:102590008AE00E94FF0B40911C05BE01665D7F4FE3
:1025A00080E10E94FF0B64E670E080E090E00E9412
:1025B0009A060E947B0D8FEF0E946F10809111058B
:1025C00090E0959587958770863008F4B3C56FEBDA
:1025D00072E0AFC0609122017091230180912401CB
:1025E000909125011BAA1AAA1DAA1CAA1FAA1EAAFD
:1025F0008E010F5F1F4F22E044E00E949B1ABC0136
:10260000CE01C2960E941B0563EE71E0CE01C89612
:102610000E945405BE016E5C7F4FCE01C8960E9499
:10262000A30F67EC72E00E94E104BC01C8010E94A4
:102630003A05C8010E94170FC80122C066E271E086
:10264000CE01C2960E9454056BEE71E0CE01C89691
:102650000E945405BE016E5C7F4FCE01C8960E9459
:10266000A30F67EC72E00E94E104BC01CE01019669
:102670000E943A05CE0101960E94170FCE010196E5
:102680000E943205CE01C8960E943205CE01C29644
:102690005AC063EF71E0CE0101960E945405CE014D
:1026A00001960E94170FCE0101960E943205E6EDB9
:1026B000EE2EE2E0FE2E8E01025C1F4FC12CD12CCB
:1026C000F70180819181892B31F0D8018C918111A2
:1026D00002C011821082B2E0EB0EF11C60817181A8
:1026E000CE0101960E943C0ECE0101960E94170F6A
:1026F000CE0101960E943205E3E0CE16D10471F0BE
:102700006BEF71E0CE0101960E945405CE01019657
:102710000E94170FCE0101960E943205FFEFCF1ADB
:10272000DF0A0F5F1F4F24E0C216D10449F667ECA1
:1027300072E0CE0101960E945405CE0101960E94DE
:10274000170FCE0101960E94320580915D03909192
:102750005E03019690935E0380935D031CC064ED5D
:1027600072E0CE0101960E945405CE0101960E94AE
:10277000170FCE0101960E94320510925E0310924F
:102780005D030E94000760935F0370936003809372
:1027900061039093620380EF93E00E945A0218163F
:1027A00019060CF0C4C41E0131E2230E311C65ED84
:1027B00072E0CE01CE960E9454050E94080E97FD4D
:1027C0000FC08D35910561F089831A8241E050E098
:1027D000BE016F5F7F4FCE01CE960E946704EDCFA2
:1027E00065ED72E0CE01C8960E94540524968EAD28
:1027F0009FAD2497892B09F488C421E030E040E0A4
:1028000050E0BE01625C7F4FCE0101960E946905D7
:102810006DEF71E0CE0101960E944804182FCE01A1
:1028200001960E943205112309F478C424962EAD36
:102830003FAD249741E050E0BE01625C7F4FCE0186
:1028400001960E946905BE016F5F7F4FCE01CE9653
:102850000E949504CE0101960E9432056EAD7FADB7
:102860006115710549F024964EAD5FAD24978DE852
:1028700093E00E94FA0404C08DE893E00E94CF0424
:102880006FEF71E0CE0101960E94540524968EAD43
:102890009FAD24972D813E818C01021B130B2115C6
:1028A000310541F1009731F18217930718F10817AC
:1028B000190718F08C0101501109CEACDFAC69800A
:1028C0007A80C60144244A9455245A947601E00E35
:1028D000F11EE816F90688F0B3010E94092300975B
:1028E00061F09C012C193D090217130708F029011A
:1028F0000196EFCF0FEF1FEF01C08201CE010196CD
:102900000E94320517FD2EC024962EAD3FAD2497B0
:10291000A8014F5F5F4FBE01625C7F4FCE01019601
:102920000E946905BE016F5F7F4FCE01C8960E946D
:102930009504CE0101960E943205980140E050E0D6
:10294000BE01625C7F4FCE0101960E946905BE0107
:102950006F5F7F4FCE01CE960E949504CE01019607
:102960000E94320561E072E0CE01CE960E944804DA
:102970008823A9F0CE01C8960E94FD0D2091D602B1
:102980003091D7028901330F220B330B061717073B
:102990002807390709F497C381E090E03FC066E05B
:1029A00072E0CE01CE960E9448048823D9F0CE0171
:1029B000C8960E94FD0D2091D8023091D90289015C
:1029C000330F220B330B061717072807390721F09F
:1029D00082E090E00E94430881E080939F0364E1DD
:1029E00070E048C06BE072E0CE01CE960E944804D1
:1029F0008823B9F0CE01C8960E94FD0D2091DA021D
:102A00003091DB028901330F220B330B06171707B6
:102A10002807390709F457C383E090E00E94430870
:102A200052C360E172E0CE01CE960E944804882332
:102A3000A9F0CE01C8960E94FD0D2091DC023091D4
:102A4000DD028901330F220B330B06171707280706
:102A5000390709F438C384E090E0E0CF65E172E023
:102A6000CE01CE960E944804882349F0CE01C89634
:102A70000E94FD0D81E090E00E941C0824C36AE1E1
:102A800072E0CE01CE960E944804882339F0CE0130
:102A9000C8960E94FD0D82E090E0EECF6FE172E0FB
:102AA000CE01CE960E944804882339F0CE01C89604
:102AB0000E94FD0D83E090E0DFCF64E272E0CE0182
:102AC000CE960E944804882339F0CE01C8960E9411
:102AD000FD0D84E090E0D0CF69E272E0CE01CE96A9
:102AE0000E944804882319F081E090E020C06EE243
:102AF00072E0CE01CE960E944804882319F082E04D
:102B000090E015C063E372E0CE01CE960E944804C7
:102B1000882319F083E090E00AC068E372E0CE01F8
:102B2000CE960E944804882329F084E090E00E9419
:102B3000ED07C9C26DE372E0CE01CE960E94480453
:102B4000882309F45AC064E472E08AE391E00E94A9
:102B500002236DE472E084E491E00E94022368ADF8
:102B600079AD8EE491E00E9402230AE010E032E2A7
:102B7000F32E4DEDE42E5CECD52E6BEBC62E7AEAEF
:102B8000772E0E948C0C84E60E94530C0E946D0CE0
:102B900082E00E945B0C0E94E30DFAA2EBA2DCA291
:102BA000CDA27EA21FA218A619A640911C05BE01A7
:102BB0006E5D7F4F8AE00E94FF0B40911C05BE01B5
:102BC0006E5D7F4F80E10E94FF0B64E670E080E065
:102BD00090E00E949A060E947B0D8FEF0E946F107A
:102BE0008091110590E0959587958770863008F45F
:102BF000DAC20150110929F666C265E572E0CE011C
:102C0000CE960E944804882329F068AD79AD8FE7FD
:102C100093E019C06DE572E0CE01CE960E944804A3
:102C2000882329F068AD79AD81E793E00CC065E6B3
:102C300072E0CE01CE960E944804882339F068AD38
:102C400079AD83E693E00E941B053DC26DE672E01C
:102C5000CE01CE960E944804882309F412C287E070
:102C600093E00E94C80F0E94971A0E948C0C0E9449
:102C7000FE180E94220C0E94D10B60910D057091EC
:102C80000E0580910F0590911005A50194010E94F9
:102C9000FD211F922F9382EF92E09F938F930E94CA
:102CA000891B8FEF0E946F1080911105282F30E053
:102CB000982F91701F929F933595279527703327F2
:102CC0003F932F9384FB992790F91F929F9385FB45
:102CD000992790F91F929F9386FB992790F91F924D
:102CE0009F931F928F9389EE91E09F938F930E9401
:102CF000891B42E06AE085EE92E00E94491944E0B7
:102D00006CE088ED92E00E94111941E060E18FECE7
:102D100092E00E94491946E061E184EC92E00E9451
:102D2000111941E061E08DEB92E00E94111941E040
:102D300062E083EB92E00E94111941E065E08CEAC9
:102D400092E00E94111941E066E083EA92E00E945D
:102D5000111941E060E08BE992E00E94111942E014
:102D60006CE18DE892E00E94111986E00E945D10EE
:102D700088720FB6F894DEBF0FBECDBF803241F02F
:102D800021E090E0883009F020E0E22FF92F02C026
:102D9000E2E0F0E0EE0FFF1FE957FD4F85919491BF
:102DA0009F938F9388E792E09F938F930E94891B54
:102DB000E0911905F0E0EE0FFF1FEC58FD4F8591F3
:102DC00094919F938F9386E692E09F938F930E94B6
:102DD000891B81E00E945D10182F80E00E945D1029
:102DE000809318050FB6F894DEBF0FBECDBF83FDEC
:102DF00002C0112329F082FD06C0E1E0F0E005C029
:102E0000E0E0F0E002C0E2E0F0E0EE0FFF1FE05A89
:102E1000FD4F859194919F938F9380E592E09F93CE
:102E20008F930E94891B86E00E945D108670E82FB8
:102E3000F0E0E85BFD4F859194919F938F938AE337
:102E400092E09F938F930E94891B88E00E945D10FF
:102E50008F701F928F938EE292E09F938F930E94C8
:102E6000891B0FB6F894DEBF0FBECDBF00E010E0A7
:102E7000C80154E0959587955A95E1F70E94E30FB4
:102E80000F5F1F4F0E37110599F70E94971A00E048
:102E900010E0C8018F7099270E94E30F0F5F1F4F4A
:102EA0000E371105B1F70E94971A25E0E22EF12C9A
:102EB0003EED632E32E0732E4EE7442E80EF93E01A
:102EC0000E945A02892B09F48CC080EF93E00E9483
:102ED0003802873609F065C031E030935C030E9408
:102EE000D10B62E070E080E090E00E949A0685E7F6
:102EF00092E00E94B60F0E94971A0E94D10B86E0C2
:102F00000E945D10682F606986E00E947C108091AD
:102F10001905882311F10E94FE1860E084E00E94E8
:102F20007C10FE0131968F018FEF8193E215F3053E
:102F3000D9F745E0B80180E10E94FF0B0E948F1095
:102F400040E2B80180EA0E94FF0B60911805677F9C
:102F50006093180580E00E947C1081E00E945B0C69
:102F600088E20E94530C81E00E949510809119051F
:102F70008823B9F161E070E080E090E00E949A0659
:102F800080E00E94951060E187E00E947C1083EE53
:102F90000E946F1080E00E94951081E00E949510C1
:102FA00020C08536F1F410925C0380E00E949510F9
:102FB000609118056D7F6093180580E00E947C1079
:102FC00086E00E945D10682F6F7686E00E947C107C
:102FD00080E00E9495108AE892E00E94B60F0E945D
:102FE000971A80915C03811146C0D301E42D1D9294
:102FF000EA95E9F795E6C92ED12CF1E0CF1AD10870
:1030000001F10BE513E08DE7582E852D0E94530C3E
:103010000E94220C8BEF91E00197F1F70E94D10BF7
:1030200089E00E945D1080FD07C05A94015011098B
:103030002FEF5212EACFE1CFD8018C918F5F8C93A2
:10304000F4CF0EED12E0F80181918F01882349F051
:10305000803110F490E002C08FE090E00E94E30F16
:1030600004C080E293E00E94C80FF3E00C351F0714
:1030700051F70E94971A21E0E21AF10809F01ECFD9
:1030800022C06FE972E0CE01C2960E9454056DE83D
:1030900073E0CE01C2960E94A30F65EA72E00E941F
:1030A000E104BC01CE0101960E943A05CE010196D1
:1030B0000E94170FCE0101960E943205CE01C296E2
:1030C0000E94320522C06FE972E0CE01C2960E94D2
:1030D00054056DE873E0CE01C2960E94A30F62EB27
:1030E00072E00E94E104BC01CE0101960E943A0503
:1030F000CE0101960E94170FCE0101960E94320563
:10310000CE01C2960E94320509C0CE01C8960E9427
:103110003205CE01CE960E94320509C0CE01C89676
:103120000E943205CE01CE960E94320540CB0E940D
:103130000103FBC869EC72E0CE0101960E945405C0
:10314000CE0101960E94170FCE0101960E94320512
:103150008DE191E00E94420D65ED72E08FE793E012
:103160000E944804811105C065ED72E08FE793E08D
:1031700017C065ED72E081E793E00E94480465EDB9
:1031800072E0811103C081E793E00AC083E693E017
:103190000E9448048111D9CA65ED72E083E693E08C
:1031A0000E941B05D2CA80E091E00E94420D21CD11
:1031B000CF93DF93C7E6D1E0D0938E04C0938D0404
:1031C0008DE894E00E94D707D093AD04C093AC047F
:1031D0008CEA94E00E94D707D093CC04C093CB0430
:1031E0008BEC94E00E94D707D093EB04C093EA04E1
:1031F0008AEE94E0DF91CF910C94D70760E081E0F4
:103200000E947C1080911B05882351F08DE10E9463
:103210005D10682F6D7F8DE10E947C1010921B0560
:103220000895FF920F931F93CF93DF93C62FD42F50
:103230009F938F938CE593E09F938F930E94891BBC
:10324000DC0F0F900F900F900F9004E513E0CD1757
:1032500091F0FF24F394FC0E8C2F0E945D101F92BE
:103260008F931F930F930E94891B0F900F900F90C5
:103270000F90CF2DECCF81E593E09F938F930E9429
:10328000891B0F900F90DF91CF911F910F91FF90AD
:1032900008958F929F92AF92BF92CF92DF92EF925A
:1032A000FF920F931F93CF93DF93D62FB42E9F934C
:1032B0008F938CE493E09F938F930E94891BBD0EA4
:1032C0000F900F900F900F9088E4E82E83E0F82E77
:1032D00093E4C92E93E0D92EDB1509F447C0C091C1
:1032E0001C058C2F90E0009711F481E090E00E9483
:1032F000061F8C01AA24A394AD0E0E9434108D2FBA
:103300008F710E945607809311054801CC2341F02C
:103310008FEF0E945607F40181934F01C150F6CF01
:103320000E943110FF92EF920E94891B80911C0530
:10333000E801C80FD11D0F900F902197C017D1073A
:1033400060F088811F928F93DF92CF920E94891B39
:103350000F900F900F900F90F0CF0115110511F401
:10336000DA2DBACFC8010E949E1FFACF80E493E005
:103370009F938F930E94891B0F900F90DF91CF91A5
:103380001F910F91FF90EF90DF90CF90BF90AF9083
:103390009F908F9008950F931F93CF93DF93EC012D
:1033A000162F042F1B821A8288EE93E0A0E0B0E073
:1033B0008C839D83AE83BF8387E691E09983888366
:1033C0001F8A1E8A198E188E1B8E1A8E1D8E1C8EB9
:1033D0006E8D6E7F6D7F6E8F6695617081E0682760
:1033E000842F0E942F0661E0802F0E945E06802FAE
:1033F00090E0FC01E157FC4FE491E88BFC01E558BB
:10340000FC4FE491F0E0EE0FFF1FEF58FC4F859169
:1034100094919A8B898B60E0812F0E945E068E8D3D
:1034200081FD04C061E0812F0E942F061C87812F3F
:1034300090E0FC01E157FC4FE491ED87FC01E55879
:10344000FC4FE491F0E0EE0FFF1FE959FC4F85912E
:1034500094919F878E87DF91CF911F910F9108954F
:10346000E0EFF3E01382128288EE93E0A0E0B0E098
:1034700084839583A683B78389E791E091838083D2
:1034800085EC90E09587848784EC90E09787868729
:1034900080EC90E0918B808B81EC90E0938B828B21
:1034A00082EC90E0958B848B86EC90E0978B868BFA
:1034B000118E128E138E148EE9E0F5E08AE082837D
:1034C00082E1838380E896E9A8E9B0E0848395836C
:1034D000A683B78380E28187108A118A85E0838B77
:1034E00081E0848B85E090E0A0E0B0E0828F938F54
:1034F000A48FB58F8DE295E091838083128642E0A0
:1035000063E08AEE94E00E94CB1944E065E08BEC26
:1035100094E00E94CB1946E067E08CEA94E00E94B8
:10352000CB1948E069E08DE894E00C94CB1983ED69
:1035300092E00C94B60FEF920F931F93CF93DF930B
:10354000E80147FD02C034E001C034E1042E000C64
:10355000550B57FF03C0519541955109E32E022F9A
:10356000242FAE010E94AC1DCE01DF91CF911F919F
:103570000F91EF9008951F93FC0199278827BC01B4
:10358000E89411911032E9F3193010F01E30C8F3AD
:103590001B3251F01D3249F4689406C00E94ED1AA6
:1035A000610F711D811D911D119110531A30B0F3DF
:1035B0003EF490958095709561957F4F8F4F9F4F0A
:1035C0001F910895BB274A3031F4992322F4BDE2BC
:1035D000909581959F4F0C94251B592F482F372F7D
:1035E000262F660F771F881F991F660F771F881F6A
:1035F000991F620F731F841F951F660F771F881F07
:10360000991F0895BB27FA01A62F6217710581053E
:103610009105330B30FB66F0AA27660F771F881FD2
:10362000991FAA1FA21710F0A21B63953850A9F783
:10363000A05DAA3308F0A95DA19336F7B111B1934B
:103640001082CA010C941C21BB27FB015527AA2715
:10365000880F991FAA1FA41710F0A41B839550511F
:10366000B9F7A05DAA3308F0A95DA193009779F797
:10367000B111B1931192CB010C941C210F931F93A4
:10368000CF93DF93009731F46115710519F480E051
:1036900090E03AC08B01EC016EE070E081E090E0D8
:1036A0000E94901DFC01892B91F380E88383011512
:1036B000110571F01387028781E8838380912E05BD
:1036C00090912F05892B21F4F0932F05E0932E057F
:1036D0002097C9F0D187C0878381826083838091DE
:1036E000300590913105892B71F4F0933105E09309
:1036F00030058091320590913305892B21F4F093A8
:103700003305E0933205CF01DF91CF911F910F91E7
:103710000895A0E0B0E0EFE8FBE10C94D421AE0105
:10372000495F5F4FDA016D917D91AD010EE215E0C9
:10373000F80182819381DC0113962C911397286004
:1037400013962C930E94AF1BD8011296ED91FC9119
:1037500013972381277F2383E4E00C94F021ABE0CF
:10376000B0E0E5EBFBE10C94C6216C017B018A0122
:10377000FC0117821682838181FFCCC1CE010196A4
:103780003C01F6019381F70193FD859193FF8191AF
:103790007F01882309F4BAC1853239F493FD8591FC
:1037A00093FF81917F01853229F4B60190E00E9458
:1037B0002C21E7CF912C212C312CFFE1F315D8F0EF
:1037C0008B3279F038F4803279F08332A1F4232DF2
:1037D00020611DC08D3261F0803369F4232D21609A
:1037E00016C0832D8260382EE32DE4603E2E2AC061
:1037F000F32DF8601DC037FC2DC020ED280F2A30B6
:1038000040F08E32B9F436FC81C1232D2064322E73
:1038100019C036FE06C08AE0989E200D1124922E13
:1038200011C0EAE02E9E200D1124222EF32DF0620D
:103830003F2E08C08C3621F4832D8068382E02C0BC
:10384000883641F4F70193FD859193FF81917F01C3
:103850008111B3CF982F9F7D9554933028F40C5F3E
:103860001F4F9FE399830DC0833631F0833771F08A
:10387000833509F059C021C0F801808189830E5F2A
:103880001F4F88248394912C530113C02801F2E028
:103890004F0E511CF801A080B18036FE03C0692D87
:1038A00070E002C06FEF7FEFC5010E9411214C0153
:1038B0008201F32DFF773F2E16C0280122E0420E31
:1038C000511CF801A080B18036FE03C0692D70E064
:1038D00002C06FEF7FEFC5010E94FF204C01F32D66
:1038E000F0683F2E820133FC1BC0822D90E08816C9
:1038F0009906B0F4B60180E290E00E942C212A944F
:10390000F4CFF50137FC859137FE81915F01B60157
:1039100090E00E942C2121102A9421E0821A910823
:103920008114910471F7E8C0843611F0893641F5AD
:10393000F80137FE07C060817181828193810C5F3D
:103940001F4F08C060817181072E000C880B990BF6
:103950000E5F1F4FF32DFF763F2E97FF09C0909506
:103960008095709561957F4F8F4F9F4FF0683F2EE8
:103970002AE030E0A3010E946821882E861845C005
:10398000853731F4232D2F7EB22E2AE030E025C07A
:10399000932D997FB92E8F36C1F018F4883579F0C0
:1039A000B5C0803719F0883721F0B0C0E92FE06149
:1039B000BE2EB4FE0DC0FB2DF460BF2E09C034FE38
:1039C0000AC0292F2660B22E06C028E030E005C0CC
:1039D00020E130E002C020E132E0F801B7FE07C08C
:1039E00060817181828193810C5F1F4F06C060816D
:1039F000718180E090E00E5F1F4FA3010E9468215B
:103A0000882E8618FB2DFF773F2E36FE0DC0232D06
:103A10002E7FA22E891458F434FE0BC032FC09C04C
:103A2000832D8E7EA82E05C0B82CA32C03C0B82CE5
:103A300001C0B92CA4FE0FC0FE01E80DF11D80816C
:103A4000803321F49A2D997EA92E09C0A2FE06C0CA
:103A5000B394B39404C08A2D867809F0B394A3FC80
:103A600011C0A0FE06C0B21488F4280C922C9B183A
:103A70000EC0B21460F4B60180E290E00E942C21E6
:103A8000B394F7CFB21418F42B1802C0982C212C41
:103A9000A4FE10C0B60180E390E00E942C21A2FE9B
:103AA00017C0A1FC03C088E790E002C088E590E061
:103AB000B6010CC08A2D867859F0A1FE02C08BE2B7
:103AC00001C080E2A7FC8DE2B60190E00E942C21AB
:103AD000891438F4B60180E390E00E942C219A9476
:103AE000F7CF8A94F301E80DF11D8081B60190E0D3
:103AF0000E942C218110F5CF222009F442CEB6017C
:103B000080E290E00E942C212A94F6CFF601868173
:103B1000978102C08FEF9FEF2B96E2E10C94E22198
:103B20000F931F93CF93DF93869F8001879F100D84
:103B3000969F100D1124C8010E94061FEC010097EA
:103B400029F0A80160E070E00E940A21CE01DF9117
:103B5000CF911F910F910895A9E0B0E0E2EBFDE154
:103B60000C94CC216A01122FB02E2BE3201720F0E9
:103B7000FF24F394F00E02C02CE3F22E0F2D27E069
:103B8000AE014F5F5F4F0E942720BC014981842F07
:103B90008970813031F0E1FC06C0E0FE06C090E2A1
:103BA00005C09DE203C09BE201C090E05E2D507114
:103BB00043FF3CC0911102C083E001C084E0811743
:103BC00018F4212F281B01C020E051110BC0F60171
:103BD000822F30E2882319F031938150FBCFC20E3F
:103BE000D11C20E0992329F0D6019C93F60131964F
:103BF0006F01C6010396E2FE0AC03EE4D6013C9383
:103C000041E411964C93119712963C9306C03EE600
:103C1000F601308341E641833283FC01322F40E2DA
:103C2000332309F442C041933150FACF42FF44C0DC
:103C3000911102C083E001C084E0811718F4212FA4
:103C4000281B01C020E051110BC0F601822F30E289
:103C5000882319F031938150FBCFC20ED11C20E094
:103C6000992329F0D6019C93F60131966F01C60184
:103C70000396E2FE0BC039E4D6013C933EE4119674
:103C80003C93119736E412963C9307C039E6F6014F
:103C900030833EE6318336E63283FC01322F40E248
:103CA000332319F041933150FBCFFC01E20FF11D9A
:103CB00010828EEF9FEFA6C021E030E0911102C08C
:103CC00020E030E0161617061CF4FB01319602C006
:103CD000E1E0F0E02E0F3F1FBB2021F0EB2DF0E0E4
:103CE000319602C0E0E0F0E02E0F3F1FE12FF0E040
:103CF0002E173F071CF4121B212F01C020E08E2D30
:103D0000887159F4F601822F30E2882319F031933B
:103D10008150FBCFC20ED11C20E0992329F0D6019F
:103D20009C93F60131966F0151110BC0F601822F61
:103D300090E3882319F091938150FBCFC20ED11CE0
:103D400020E00F2D060F9A81342F307144FF03C0FD
:103D5000913309F40150101624F4093018F008E0EA
:103D600001C001E0AB0177FF02C040E050E0FB0181
:103D7000E41BF50BA1E0B0E0AC0FBD1FEA0FFB1F89
:103D80008EE2A82E4B01801A91080B2D10E01195A0
:103D9000019511094F3FBFEF5B0721F4D601AC92AB
:103DA00011966D01641775072CF08416950614F4AE
:103DB000818101C080E3415051093196D6011196AD
:103DC0007D014017510724F0D6018C936701E2CFA3
:103DD0006417750739F4963320F4953319F43111CB
:103DE00001C081E3F6018083F701822F90E28823EE
:103DF00019F091938150FBCFF701E20FF11D108272
:103E000080E090E02996ECE00C94E8210F931F935A
:103E1000CF93DF938230910510F482E090E0E0913F
:103E20003605F091370520E030E0A0E0B0E03097B3
:103E300019F1408151810281138148175907C8F057
:103E40008417950769F4109731F012960C93129726
:103E500013961C9327C0009336051093370522C094
:103E60002115310519F04217530718F49A01BD01C5
:103E7000EF01DF01F801DBCF21153105F9F0281B37
:103E8000390B2430310580F48A819B8161157105DD
:103E900021F0FB019383828304C0909337058093C4
:103EA0003605FE01329644C0FE01E20FF31F8193F6
:103EB000919322503109398328833AC020913405E7
:103EC00030913505232B41F420915F013091600141
:103ED000309335052093340520915D0130915E01CA
:103EE0002115310541F42DB73EB740916101509144
:103EF0006201241B350BE0913405F0913505E21782
:103F0000F307A0F42E1B3F0B2817390778F0AC01FC
:103F10004E5F5F4F2417350748F04E0F5F1F5093D9
:103F20003505409334058193919302C0E0E0F0E0C1
:103F3000CF01DF91CF911F910F910895CF93DF9320
:103F4000009709F481C0FC01329713821282A0917C
:103F50003605B0913705109781F420813181820FA9
:103F6000931F20913405309135052817390751F5F5
:103F7000F0933505E093340567C0ED0120E030E0B3
:103F8000CE17DF0740F44A815B819E014115510540
:103F9000F1F0EA01F5CFD383C28340815181840FD0
:103FA000951FC817D90759F488819981840F951FE7
:103FB0000296918380838A819B81938382832115DA
:103FC000310529F4F0933705E09336053DC0E9014A
:103FD000FB83EA8349915991C40FD51FEC17FD0764
:103FE00061F480819181840F951F0296E901998384
:103FF0008883828193819B838A83E0E0F0E012963C
:104000008D919C911397009719F0FD01DC01F7CF7A
:104010008D919C9111979D012E5F3F4F820F931FB1
:1040200020913405309135052817390769F4309708
:1040300029F4109237051092360502C013821282BD
:10404000B0933505A0933405DF91CF9108952830C2
:1040500008F027E03327DA01990F311D87FD9160C1
:1040600000966105710539F432602E5F3D9330E3AF
:104070002A95E1F708959F3F30F08038710561057A
:1040800009F03C5F3C5F3D93913008F08068911DE2
:10409000DF93CF931F930F93FF92EF92192F987F87
:1040A0009695E92F96959695E90FFF27EA52FF4FCF
:1040B00099273327EE24FF24A701E70105900894F0
:1040C000079428F4360FE71EF81E491F511D660F8E
:1040D000771F881F991F0694A1F70590079428F46D
:1040E000E70EF81E491F561FC11D770F881F991F25
:1040F000661F0694A1F70590079428F4F80E491F4F
:10410000561FC71FD11D880F991F661F771F069462
:10411000A1F70590079420F4490F561FC71FD81F19
:10412000990F661F771F881F0694A9F78491109531
:10413000177041F0D695C79557954795F794E79432
:104140001A95C1F7ECE7F0E0689415901591359158
:104150006591959105907FE27395E118F10A430B03
:10416000560BC90BD009C0F7E10CF11E431F561FB7
:10417000C91FD01D7EF4703311F48A95E6CFE89400
:10418000015030F0080F0AF40027021708F4202F1E
:104190002395022F7A3328F079E37D932A95E9F766
:1041A00010C07D932A9589F6069497956795379563
:1041B00017951794E118F10A430B560BC90BD00958
:1041C00098F023957E9173957A3308F070E37C9391
:1041D0002013B8F77E9170617D9330F0839571E381
:1041E0007D9370E32A95E1F71124EF90FF900F91F2
:1041F0001F91CF91DF91992787FD90950895FC013C
:104200000590615070400110D8F7809590958E0F01
:104210009F1F0895DC0101C06D9341505040E0F7AD
:104220000895FC016150704001900110D8F780950D
:1042300090958E0F9F1F0895DC01FC01672F7191EF
:104240007723E1F7329704C07C916D93708362917C
:10425000AE17BF07C8F308950F931F93CF93DF9353
:10426000FB01238121FD03C08FEF9FEF2CC022FFB4
:1042700016C046815781248135814217530744F483
:10428000A081B1819D012F5F3F4F318320838C93AB
:10429000268137812F5F3F4F3783268314C08B01E0
:1042A000EC01FB010084F185E02D0995892BE1F6F5
:1042B000D80116968D919C911797019617969C930D
:1042C0008E931697CE01DF91CF911F910F91089594
:1042D000FA01AA27283051F1203181F1E8946F9337
:1042E0006E7F6E5F7F4F8F4F9F4FAF4FB1E03ED0DD
:1042F000B4E03CD0670F781F891F9A1FA11D680F7B
:10430000791F8A1F911DA11D6A0F711D811D911DAD
:10431000A11D20D009F468943F912AE0269F112422
:104320003019305D3193DEF6CF010895462F477086
:10433000405D4193B3E00FD0C9F7F6CF462F4F70E1
:10434000405D4A3318F0495D31FD4052419302D03F
:10435000A9F7EACFB4E0A6959795879577956795E5
:10436000BA95C9F700976105710508959B01AC01E5
:104370000A2E06945795479537952795BA95C9F70C
:10438000620F731F841F951FA01D08952F923F92E7
:104390004F925F926F927F928F929F92AF92BF9255
:1043A000CF92DF92EF92FF920F931F93CF93DF9301
:1043B000CDB7DEB7CA1BDB0B0FB6F894DEBF0FBE5E
:1043C000CDBF09942A88398848885F846E847D84AB
:1043D0008C849B84AA84B984C884DF80EE80FD80AD
:1043E0000C811B81AA81B981CE0FD11D0FB6F89423
:1043F000DEBF0FBECDBFED010895A1E21A2EAA1BAC
:10440000BB1BFD010DC0AA1FBB1FEE1FFF1FA21784
:10441000B307E407F50720F0A21BB30BE40BF50B81
:10442000661F771F881F991F1A9469F7609570950A
:10443000809590959B01AC01BD01CF010895EE0FD1
:10444000FF1F0590F491E02D0994A0E0B0E0EBE2AD
:10445000F2E20C94CA21EC01009721F4CB010E94F6
:10446000061FB4C0FC01E60FF71F9C012250310962
:10447000E217F30708F4A8C0D9010D911C91119718
:1044800006171707B0F00530110508F49BC0C801E6
:1044900004978617970708F495C002501109061B68
:1044A000170B019311936D937C93CF010E949E1F74
:1044B00089C05B01A01AB10A4C01800E911EA09127
:1044C0003605B0913705612C712CE12CF12C109739
:1044D00009F446C08D919C911197A815B905B1F5C5
:1044E0006C0142E0C40ED11CCA14DB0478F14C010B
:1044F0008A189B08640142E0C40ED11C1296BC903D
:1045000012971396AC91B5E0CB16D10440F0B2826D
:10451000A38391828082D9016D937C9309C00E5F41
:104520001F4F800F911FF90191838083EB2DFA2F8C
:10453000E114F10431F0D7011396FC93EE93129736
:1045400041C0F0933705E09336053CC06816790604
:1045500008F43C017D0112960D90BC91A02DB7CFBF
:10456000809134059091350588169906E1F4661618
:104570007706C8F480915D0190915E01009741F447
:104580008DB79EB74091610150916201841B950BDC
:10459000E817F907C8F4F0933505E0933405F901FD
:1045A000718360830FC0CB010E94061F7C010097BE
:1045B00059F0A801BE010E94F022CE010E949E1F68
:1045C000C70104C0CE0102C080E090E0CDB7DEB7E5
:1045D000EEE00C94E62181E090E0F8940C94232323
:1045E000FB01DC0102C001900D9241505040D8F710
:1045F0000895FB01DC018D91019080190110D9F320
:10460000990B0895FB01DC0101900D920020E1F768
:104610000895FB0151915523A9F0BF01DC014D9193
:1046200045174111E1F759F4CD010190002049F0FF
:104630004D9140154111C9F3FB014111EFCF81E0CC
:1046400090E00197089511E0C3EDD1E004C0FE01B0
:104650000E941F222196C43DD107C9F7F894FFCFCD
:104660000000000000000000005A65726F000000AA
:10467000000000000000000000000000000000003A
:104680000000000000005A65726F0000000000008A
:1046900000000000000000000000546F5F426F6DDA
:1046A000626100004765745F496E666F0000444FA9
:1046B0000000007EFF06000000000000EF00003850
:1046C000052000000000008903FF0110048803D9C1
:1046D00003EF037003000000009202FF012902DFD4
:1046E000025A0238024C027B732E642E6E3A007B13
:1046F000732E642E743A007B732E642E633A007B13
:10470000692E622E6E3A415544494F7D007B732ECF
:10471000722E6F3A00546F5F426F6D626100536595
:10472000745F53746174005365745F5061737300F8
:104730005365745F54696D6572004765745F496EB7
:10474000666F007B732E622E763A007B732E622E8C
:10475000733A007B732E702E733A002F005B003D7E
:1047600000706C5F3100706C5F3200706C5F330002
:10477000706C5F3400766C5F3100766C5F3200766F
:104780006C5F3300766C5F340073745F3100737458
:104790005F320073745F330073745F34006F745F53
:1047A0006B736B00546F5F4B61736B610053657487
:1047B0005F4C6564006F745F626D7373006F745F4C
:1047C000626D7370006F745F626D7374006F745FFD
:1047D000636B7264005374617274696E6720436125
:1047E0007272696572204F75740053746F707069CE
:1047F0006E672043617272696572204F7574007B29
:10480000722E632E003A6E6F745F65786973747DE3
:104810000A003A636F6D706C657465647D0A007B95
:10482000732E622E6F3A307D007B732E622E6F3AAC
:06483000317D000D0A00BD
:00000001FF
