:100000000C9445010C946D010C946D010C946D01E0
:100010000C946D010C946D010C946D010C946D01A8
:100020000C946D010C946D010C946D010C946D0198
:100030000C946D010C946D010C946D010C946D0188
:100040000C9458040C946D010C9464030C943E03BE
:100050000C946D010C946D010C946D010C946D0168
:100060000C94A9040C946D013D2050415F4D415802
:10007000003D2050415F48494748003D2050415FC6
:100080004C4F57003D2050415F4D494E003D2031BF
:10009000362062697473003D2038206269747300F1
:1000A0003D2044697361626C6564006E524632346F
:1000B0004C30312B006E524632344C3031003D20F2
:1000C000323530204B425053003D2032204D4250BB
:1000D00053003D2031204D425053000000000800E5
:1000E00002010000030407000000000000000000FF
:1000F000010203040553544154555309093D20306E
:1001000078253032782052585F44523D257820546B
:10011000585F44533D2578204D41585F52543D254A
:10012000782052585F505F4E4F3D25782054585FDD
:1001300046554C4C3D25780D0A0041524309093D76
:100140002025640D0A00504120506F776572092503
:10015000530D0A0084007B00710068004352432065
:100160004C656E6774680925530D0A00A00097005E
:100170008D004D6F64656C09093D2025530D0A0003
:10018000B500AB0044617461205261746509255368
:100190000D0A00D200C900BE0044594E50442F46FB
:1001A00045415455524500434F4E46494709005278
:1001B000465F53455455500052465F434809004539
:1001C0004E5F52584144445200454E5F4141090040
:1001D00052585F50575F50302D360054585F41449D
:1001E0004452090052585F414444525F50322D3509
:1001F0000052585F414444525F50302D31005350FB
:10020000492053706565647A093D202564204D6856
:100210007A0A0052462D4E414E4F2076332E302022
:1002200053656E642054657374000000000025005F
:1002300028002B0000000000240027002A000404EE
:10024000040404040404020202020202030303037E
:10025000030301020408102040800102040810205A
:100260000102040810200D0A0025303278002030E9
:1002700078002553093D000D0A00203078253032E2
:1002800078002553093D00002A0B11241FBECFEF33
:10029000D8E0DEBFCDBF11E0A0E0B1E0EAE2F2E2DB
:1002A00002C005900D92A836B107D9F722E0A8E662
:1002B000B1E001C01D92A73BB207E1F711E0C5E430
:1002C000D1E004C02197FE010E940811C434D10777
:1002D000C9F70E948F070C9413110C940000CF9261
:1002E000DF92EF92FF920F931F93CF93DF936C01F6
:1002F0007A018B01C0E0D0E0CE15DF0581F0D80196
:100300006D918D01D601ED91FC910190F081E02D70
:10031000C6010995892B11F02196EECF7E01C70108
:10032000DF91CF911F910F91FF90EF90DF90CF90D1
:100330000895FC01538D448D252F30E0842F90E0EB
:10034000821B930B541710F0CF96089501970895D0
:10035000FC01918D828D981761F0828DDF01A80FCD
:10036000B11D5D968C91928D9F5F9F73928F90E0EF
:1003700008958FEF9FEF0895FC01918D828D98175E
:1003800031F0828DE80FF11D858D90E008958FEF9B
:100390009FEF0895FC01918D228D892F90E0805C64
:1003A0009F4F821B91098F739927089585EE91E0E5
:1003B0000E94CA0121E0892B09F420E0822F0895D0
:1003C000FC01848DDF01A80FB11DA35ABF4F2C91F2
:1003D000848D90E001968F739927848FA689B789C1
:1003E0002C93A089B1898C91837080648C93938DB8
:1003F000848D981306C00288F389E02D80818F7D5B
:1004000080830895EF92FF920F931F93CF93DF9312
:10041000EC0181E0888F9B8D8C8D981305C0E88955
:10042000F989808185FD26C0F62E0B8D10E00F5FC7
:100430001F4F0F731127E02E8C8DE8120CC00FB6E2
:1004400007FCFACFE889F989808185FFF5CFCE01D5
:100450000E94E001F1CF8B8DFE01E80FF11DE35A00
:10046000FF4FF0829FB7F8940B8FEA89FB89808158
:1004700080620AC09FB7F894EE89FF896083E8899B
:10048000F98980818370806480839FBF81E090E0E0
:10049000DF91CF911F910F91FF90EF900895CF932F
:1004A000DF93EC01888D8823C9F0EA89FB8980817C
:1004B00085FD05C0A889B9898C9186FD0FC00FB64E
:1004C00007FCF5CF808185FFF2CFA889B9898C918F
:1004D00085FFEDCFCE010E94E001E7CFDF91CF9104
:1004E000089580E090E0892B29F00E94D6018111C7
:1004F0000C94000008953FB7F8948091DA01909130
:10050000DB01A091DC01B091DD0126B5A89B05C0FF
:100510002F3F19F00196A11DB11D3FBFBA2FA92F82
:10052000982F8827820F911DA11DB11DBC01CD01FF
:1005300042E0660F771F881F991F4A95D1F70895EB
:100540008F929F92AF92BF92CF92DF92EF92FF92E3
:100550006B017C010E947B024B015C01C114D10440
:10056000E104F104F1F00E947B02DC01CB01881967
:100570009909AA09BB09883E9340A105B10570F30A
:1005800021E0C21AD108E108F10888EE880E83E064
:10059000981EA11CB11CC114D104E104F10419F787
:1005A000DDCFFF90EF90DF90CF90BF90AF909F9006
:1005B0008F90089540918F01262F30E0240F311D38
:1005C00021323105DCF42091B3012430C9F4FC015F
:1005D00080E090E0861758F430918F012191DC0182
:1005E000A159BE4FA30FB11D2C930196F3CF80915B
:1005F0008F01680F60938F0180E0089581E0089576
:1006000082E0089508958FEF9FEF08958FEF9FEF99
:1006100008958091680190E09195819591090895E0
:10062000CF93DF93CB01EA01642F0E94DA02CE015F
:10063000DF91CF910895CF93DF931F92CDB7DEB7AF
:10064000698361E0CE0101960E94DA0281E090E0C8
:100650000F90DF91CF910895089580E090E0089584
:10066000CF93C82F682F85EE91E00E9402028C2F55
:10067000CC0F990BCF9108950E940E111F920F92EB
:100680000FB60F9211242F933F934F935F936F9365
:100690007F938F939F93AF93BF93EF93FF9385EED9
:1006A00091E00E94E001FF91EF91BF91AF919F9186
:1006B0008F917F916F915F914F913F912F910F900B
:1006C0000FBE0F901F9018951F920F920FB60F92AA
:1006D00011242F938F939F93EF93FF93E091F50154
:1006E000F091F6018081E091FB01F091FC0182FD27
:1006F00012C090818091FE018F5F8F732091FF0166
:10070000821751F0E091FE01F0E0EB51FE4F958F22
:100710008093FE0101C08081FF91EF919F918F91A5
:100720002F910F900FBE0F901F90189590E0FC0135
:10073000E552FF4F2491FC01EE5AFD4F3491FC012C
:10074000E25CFD4FE491EE2309F43CC0222339F131
:10075000233091F038F42130A9F0223001F584B52E
:100760008F7D12C0273091F02830A1F02430B9F4E9
:10077000809180008F7D03C0809180008F7780936F
:1007800080000DC084B58F7784BD09C08091B00012
:100790008F7703C08091B0008F7D8093B000F0E030
:1007A000EE0FFF1FE65DFD4FA591B4919FB7F89442
:1007B000611104C08C913095382302C0EC913E2B1E
:1007C0003C939FBF08951F93CF93DF9385ED809354
:1007D000BC0080916B0190916C01A0916D01B09172
:1007E0006E010796A11DB11D23E0B695A7959795BB
:1007F00087952A95D1F72091BC0024FF53C04091E2
:100800006B0150916C0160916D0170916E01452BEF
:10081000462B472B81F30097A105B10541F02AE251
:100820002A95F1F700C00197A109B109E4CF8091A1
:100830006A01C1E0C09369018823B1F1D091B80089
:100840001091BA008091BC008A7B8093BC0060E06C
:1008500082E10E94960360E083E10E949603109279
:10086000B301C093B5011092B40161E082E10E942E
:10087000960361E083E10E9496038091B9008E7F28
:100880008093B9008091B9008D7F8093B90088E48E
:100890008093B80085E48093BC001093BA00D09395
:1008A000B80002C01092B301DF91CF911F9108955B
:1008B0001F920F920FB60F9211242F933F938F9395
:1008C0009F93AF93BF938091DF019091E001A0913E
:1008D000E101B091E2013091D90123E0230F2D37DE
:1008E00020F40196A11DB11D05C026E8230F029634
:1008F000A11DB11D2093D9018093DF019093E001E8
:10090000A093E101B093E2018091DA019091DB01C3
:10091000A091DC01B091DD010196A11DB11D809374
:10092000DA019093DB01A093DC01B093DD01BF916C
:10093000AF919F918F913F912F910F900FBE0F908C
:100940001F9018958EBD00000DB407FEFDCF8EB52B
:1009500008951F920F920FB60F9211242F933F9379
:100960004F935F936F937F938F939F93AF93BF93B7
:10097000EF93FF938091B900887F803609F49CC083
:1009800068F5883209F45BC090F4803109F454C0F2
:1009900038F4882309F4F2C0883009F44DC0F2C05D
:1009A000883109F44CC0803209F45DC0EBC080345A
:1009B00009F468C048F4803309F455C0883309F05D
:1009C000E1C08093B201D4C0803509F44FC08835AE
:1009D00009F45DC0883409F0D5C0D2C0883909F463
:1009E000C3C0A8F4883709F467C038F4883609F41E
:1009F00063C0803709F460C0C5C0883809F4B4C04A
:100A0000803909F45FC0803809F0BCC05BC0803B0E
:100A100009F484C038F4803A09F466C0883A09F4CD
:100A20007DC0B0C0803C09F4A3C0883C09F4A0C0DC
:100A3000883B09F486C0A6C08091D80110C090916F
:100A4000D7018091D601981770F5E091D70181E028
:100A50008E0F8093D701F0E0EA54FE4F808180939F
:100A6000BB0085EC82C08093B2018AC0E091D701BF
:100A700081E08E0F8093D7018091BB00F0E0EA54B3
:100A8000FE4F80839091D7018091D6016AC0E0919A
:100A9000D70181E08E0F8093D7018091BB00F0E0F9
:100AA000EA54FE4F80838091B501811169C081E0D5
:100AB0008093B40184EA5DC083E08093B301109217
:100AC000B101CFCF8091B101803208F04DC0E091EB
:100AD000B10181E08E0F8093B1018091BB00F0E005
:100AE000EF56FE4F8083BDCF85EC8093BC00109203
:100AF000B3018091B101803230F4E091B101F0E0B6
:100B0000EF56FE4F10826091B10170E081E991E0F3
:100B1000E0E0F0E009951092B10134C084E08093E8
:100B2000B3011092900110928F01E0E0F0E009957E
:100B300080918F01811105C081E080938F01109217
:100B40006F01E091900181E08E0F80939001F0E0C1
:100B5000E159FE4F80818093BB009091900180917C
:100B60008F01981708F47DCF85E88093BC000AC0F8
:100B700085EC8093BC001092B30104C01092B201C6
:100B80000E94E303FF91EF91BF91AF919F918F91ED
:100B90007F916F915F914F913F912F910F900FBE79
:100BA0000F901F901895009769F0FC0101900020AC
:100BB000E9F73197AF01481B590BBC0185EE91E075
:100BC0000C946F0180E090E00895682F809184027A
:100BD0009091850289130C9496030895682F809153
:100BE00085020E94960380919C0290919D02823022
:100BF000910538F0880F991F880F991F0597019765
:100C0000F1F7089581E00C94EE050F931F93009186
:100C1000860210918702209188023091890240E07B
:100C200052E16AE770E090E00417150726073707DE
:100C300040F476956795579547959F5F9630A1F755
:100C400097E081E08927982F906A969581709CBDE6
:100C50008DBD80E01F910F910C94EE05CF93C82FAE
:100C60000E9405068C2F80620E94A20480938A0253
:100C7000CF910C940206CF93DF93D82FC62F0E94FA
:100C800005068D2F80620E94A20480938A028C2F19
:100C90000E94A204DF91CF910C940206FF920F9361
:100CA0001F93CF93DF93182FF62ED72FC42F0E94B8
:100CB0000506812F80620E94A20480938A020F2D74
:100CC0001D2FCC2339F0F80181918F010E94A204DD
:100CD000C150F7CFDF91CF911F910F91FF900C94EE
:100CE0000206CF93C82F0E9405068C2F0E94A204F3
:100CF00080938A028FEF0E94A204C82F0E940206EE
:100D00008C2FCF910895FF920F931F93CF93DF9372
:100D1000C62FD42F9F938F9382E892E09F938F9357
:100D20000E94730CDC0F0F900F900F900F900AE74A
:100D300012E0CD1791F0FF24F394FC0E8C2F0E944B
:100D400071061F928F931F930F930E94730C0F9045
:100D50000F900F900F90CF2DECCF87E792E09F93ED
:100D60008F930E94730C0F900F90DF91CF911F9182
:100D70000F91FF9008958F929F92AF92BF92CF9262
:100D8000DF92EF92FF920F931F93CF93DF93D62FB3
:100D9000B42E9F938F9382E792E09F938F930E944C
:100DA000730CBD0E0F900F900F900F908EE6E82EF3
:100DB00082E0F82E99E6C92E92E0D92EDB1509F4CF
:100DC00047C0C09195028C2F90E0009711F481E00C
:100DD00090E00E94960E8C01AA24A394AD0E0E946E
:100DE00005068D2F8F710E94A20480938A0248010C
:100DF000CC2341F08FEF0E94A204F40181934F01B4
:100E0000C150F6CF0E940206FF92EF920E94730C2F
:100E100080919502E801C80FD11D0F900F90219786
:100E2000C017D10760F088811F928F93DF92CF9215
:100E30000E94730C0F900F900F900F90F0CF011540
:100E4000110511F4DA2DBACFC8010E942E0FFACF86
:100E500086E692E09F938F930E94730C0F900F9001
:100E6000DF91CF911F910F91FF90EF90DF90CF9086
:100E7000BF90AF909F908F900895CF9386E00E948F
:100E80007106C82FC77D85E590E0A0E0B0E08093B3
:100E9000980290939902A0939A02B0939B026C2FB0
:100EA00086E00E943B0686E00E94710691E0C8132E
:100EB00090E0892FCF91089563E083E00E943B0684
:100EC00085E08093950208950E94050680E50E94C2
:100ED000A20480938A0283E70E94A2040C94020673
:100EE00090E0FC01EE5AFD4F2491FC01E25CFD4FC5
:100EF0008491882399F090E0880F991FFC01EC5CA5
:100F0000FD4FA591B491FC01E65DFD4F8591949153
:100F10008FB7F894EC91E22BEC938FBF0895CF93A9
:100F2000DF93CDB7DEB7E1970FB6F894DEBF0FBE03
:100F3000CDBF789484B5826084BD84B5816084BD62
:100F400085B5826085BD85B5816085BD80916E0067
:100F5000816080936E001092810080918100826098
:100F600080938100809181008160809381008091D5
:100F700080008160809380008091B10084608093C4
:100F8000B1008091B00081608093B00080917A00C0
:100F9000846080937A0080917A00826080937A00E6
:100FA00080917A00816080937A0080917A008068D5
:100FB00080937A001092C100E091F501F091F60162
:100FC00082E08083E091F101F091F2011082E091E2
:100FD000F301F091F40180E180831092FD01E09132
:100FE000F901F091FA0186E08083E091F701F09138
:100FF000F801808180618083E091F701F091F80130
:10100000808188608083E091F701F091F801808110
:1010100080688083E091F701F091F80180818F7DF5
:10102000808360E070E080E393E00E94280C03E19D
:1010300012E0F801649161110BC08EE291E00E9410
:10104000D3051FB7F8948091DE01882351F02DC09D
:1010500085EE91E00E9402020F5F1F4F892B49F736
:10106000ECCFE8E4F2E08491ECE5F2E09491E82F33
:10107000F0E0EE0FFF1FEC5CFD4FA591B491EC91F9
:10108000E92321F461E08AE00E9496038AE00E944D
:1010900070078CB580618CBD8CB580648CBD8DE093
:1010A0000E9470078BE00E9470078091DE018F5FC5
:1010B0008093DE011FBF809184028F3F09F471C0CD
:1010C000909185029F3F09F46CC0891731F00E940E
:1010D0007007809185020E94700780E00E94E505FC
:1010E00081E00E94EE0565E070E080E090E00E9403
:1010F000A0026FE584E00E943B060E943D078DE15F
:101100000E947106182F0E9464078DE10E947106EB
:1011100091E0181390E090939202811192C2109284
:10112000940260E08CE10E943B06109296026FE30D
:1011300081E00E943B0663E082E00E943B0680E281
:1011400080938B0211E160918B02812F0E943B06FC
:101150001F5F1731C1F70E945C076CE485E00E94B5
:101160003B0660E787E00E943B0682EE0E942E0667
:1011700081EE0E942E066CE080E00E943B0680E03B
:101180000E9471068093910281FD0BC0682F6260FE
:101190006093910280E00E943B068BE19EE4019700
:1011A000F1F70E945C0786E68AA780EF8BA78CA7E1
:1011B0008DA78EA71FA618AA19AA40919502BE0155
:1011C000665D7F4F8AE00E944E0640919502BE0107
:1011D000665D7F4F80E10E944E0663E785E00E94D6
:1011E0003B0686E00E947106682F676086E00E94D9
:1011F0003B060E943D0780E00E94E5058091980231
:10120000909199028230910538F0880F991F880FCC
:10121000991F05970197F1F780919402882319F09F
:1012200081EE0E942E06609191026E7F6093910282
:1012300080E00E943B0682E00E947106EFEEF0E043
:10124000E49161E070E001C0660FEA95EAF7682B6F
:1012500082E00E943B0681E391E00E94D305609109
:10126000860270918702809188029091890220E421
:1012700032E44FE050E00E94D7101F922F938EEF80
:1012800091E09F938F930E94730C8FEF0E942E0624
:1012900080918A02282F30E0982F91701F929F939F
:1012A00035952795277033273F932F9384FB9927F4
:1012B00090F91F929F9385FB992790F91F929F9316
:1012C00086FB992790F91F929F931F928F9385EF2A
:1012D00090E09F938F930E94730C42E06AE081EF4D
:1012E00091E00E94BB0644E06CE084EE91E00E9435
:1012F000830641E060E18BED91E00E94BB0646E091
:1013000061E180ED91E00E94830641E061E089ECBB
:1013100091E00E94830641E062E08FEB91E00E9441
:10132000830641E065E088EB91E00E94830641E09E
:1013300066E08FEA91E00E94830641E060E087EA80
:1013400091E00E94830642E06CE189E991E00E940D
:10135000830686E00E94710688720FB6F894DEBF9D
:101360000FBECDBF803241F021E090E0883009F01F
:1013700020E0E22FF92F02C0E2E0F0E0EE0FFF1FC5
:10138000ED56FE4F859194919F938F9384E891E061
:101390009F938F930E94730CE0919202F0E0EE0F06
:1013A000FF1FE058FE4F859194919F938F9382E7A2
:1013B00091E09F938F930E94730C81E00E947106CD
:1013C000182F80E00E947106809391020FB6F89466
:1013D000DEBF0FBECDBF83FD02C0112329F082FD09
:1013E00006C0E1E0F0E005C0E0E0F0E002C0E2E0CD
:1013F000F0E0EE0FFF1FE459FE4F859194919F930B
:101400008F938CE591E09F938F930E94730C86E0FD
:101410000E9471068670E82FF0E0EC5AFE4F85912D
:1014200094919F938F9386E491E09F938F930E9472
:10143000730C88E00E9471068F701F928F938AE36D
:1014400091E09F938F930E94730C64EF71E080E0B2
:1014500090E00E94A0020FB6F894DEBF0FBECDBF91
:10146000412C512C32014A9436E6332E10EF4AE0DB
:10147000842E912CA12CB12C0E94D10BA30192019E
:101480000E946E107093E4016093E3013AA21BA3E3
:101490001CA31DA31EA31FA218A619A64091950266
:1014A000BE016E5D7F4F8AE00E944E06409195021C
:1014B000BE016E5D7F4F80E10E944E0680919602D4
:1014C000811109C080918B02082F833008F002E05F
:1014D000D82ED01A02C0D12C02E00E94050680EA64
:1014E0000E94A20480938A0283EEE82E81E0F82E07
:1014F000015010F4FD2C06C0F70181917F010E947C
:10150000A204F6CFFF2029F080E00E94A204FA9402
:10151000F9CF0E94020681E00E94E5058FB7F8949A
:10152000C090DF01D090E001E090E101F090E20195
:101530008FBF8FEF0E942E0680918A028073C1F4C4
:101540002FB7F8948091DF019091E001A091E10123
:10155000B091E2012FBF8C199D09AE09BF098036F9
:101560009105A105B10528F381E0809397020EC093
:1015700080E00E94E50560E787E00E943B068091DD
:101580008A0284FF03C081EE0E942E0688E491E067
:101590000E94D30582E591E00E94D305C090E3014B
:1015A000D090E4010D2C000CEE08FF08F7FE20C0DF
:1015B0006DE285EE91E00E94020222273327A90105
:1015C0002C193D094E095F0919A2CE0181967C01B3
:1015D000CA01B901A50194010E94D710605DF7010D
:1015E00062937F01211531054105510589F715C029
:1015F000A701960119A2CE0181967C01CA01B90109
:10160000A50194010E94D710605DF70162937F01EC
:10161000211531054105510589F7C7010E94D30500
:101620008EE291E00E94D3058CE591E00E94D30503
:1016300068EE73E080E090E00E94A0020E947102D8
:101640001BCF181302C00E94640760E08DE10E9466
:101650003B0665CDE5EEF1E01382128288EE93E061
:10166000A0E0B0E084839583A683B7832EE031E0C9
:101670003183208325EC30E03587248724EC30E06B
:101680003787268720EC30E0318B208B21EC30E04F
:10169000338B228B22EC30E0358B248B26EC30E030
:1016A000378B268B118E128E138E148EE0EAF2E0A9
:1016B0001382128284839583A683B78380E291E0AC
:1016C00091838083E2E8F2E08AE0828382E183838F
:1016D00080E896E9A8E9B0E084839583A683B78380
:1016E00080E28187108A118A85E0838B81E0848B78
:1016F00085E090E0A0E0B0E0828F938FA48FB58F5B
:101700008CEA92E091838083128608958F929F9253
:10171000AF92BF92CF92DF92EF92FF92CF93DF937F
:10172000EC01688179818A819B8161157105810550
:10173000910521F464E279ED8BE597E02DE133EF3B
:1017400041E050E00E946E1049015A019B01AC013A
:10175000A7EAB1E40E948D106B017C01ACEEB4EFFE
:10176000A50194010E949B10DC01CB018C0D9D1DF5
:10177000AE1DBF1DB7FF03C00197A109B048888304
:101780009983AA83BB83BC01CD019F77DF91CF9161
:10179000FF90EF90DF90CF90BF90AF909F908F9091
:1017A00008958F929F92AF92BF92CF92DF92EF9265
:1017B000FF9260910001709101018091020190916E
:1017C0000301611571058105910521F464E279ED4C
:1017D0008BE597E02DE133EF41E050E00E946E1081
:1017E00049015A019B01AC01A7EAB1E40E948D10A6
:1017F0006B017C01ACEEB4EFA50194010E949B103B
:10180000DC01CB018C0D9D1DAE1DBF1DB7FF03C0BC
:101810000197A109B0488093000190930101A09322
:101820000201B0930301BC01CD019F77FF90EF90BF
:10183000DF90CF90BF90AF909F908F90089560936E
:1018400000017093010180930201909303010895B8
:101850000F931F93CF93DF93009731F461157105B8
:1018600019F480E090E03AC08B01EC016EE070E08A
:1018700081E090E00E947A0EFC01892B91F380E8D0
:1018800083830115110571F01387028781E8838333
:101890008091AD029091AE02892B21F4F093AE02BB
:1018A000E093AD022097C9F0D187C0878381826021
:1018B00083838091AF029091B002892B71F4F093F1
:1018C000B002E093AF028091B1029091B202892BF5
:1018D00021F4F093B202E093B102CF01DF91CF91F6
:1018E0001F910F910895A0E0B0E0E9E7FCE00C94AF
:1018F000AE10AE01495F5F4FDA016D917D91AD0190
:101900000DEA12E0F80182819381DC0113962C919B
:101910001397286013962C930E94990CD801129665
:10192000ED91FC9113972381277F2383E4E00C94AE
:10193000CA10ABE0B0E0EFE9FCE00C94A0106C0141
:101940007B018A01FC0117821682838181FFCCC151
:10195000CE0101963C01F6019381F70193FD85913B
:1019600093FF81917F01882309F4BAC1853239F44C
:1019700093FD859193FF81917F01853229F4B60112
:1019800090E00E94D40FE7CF912C212C312CFFE165
:10199000F315D8F08B3279F038F4803279F0833255
:1019A000A1F4232D20611DC08D3261F0803369F4D4
:1019B000232D216016C0832D8260382EE32DE46034
:1019C0003E2E2AC0F32DF8601DC037FC2DC020ED3F
:1019D000280F2A3040F08E32B9F436FC81C1232D15
:1019E0002064322E19C036FE06C08AE0989E200D73
:1019F0001124922E11C0EAE02E9E200D1124222ED9
:101A0000F32DF0623F2E08C08C3621F4832D8068C0
:101A1000382E02C0883641F4F70193FD859193FF7B
:101A200081917F018111B3CF982F9F7D9554933081
:101A300028F40C5F1F4F9FE399830DC0833631F06C
:101A4000833771F0833509F059C021C0F8018081D6
:101A500089830E5F1F4F88248394912C530113C0F8
:101A60002801F2E04F0E511CF801A080B18036FE33
:101A700003C0692D70E002C06FEF7FEFC5010E94C7
:101A8000C90F4C018201F32DFF773F2E16C02801AC
:101A900022E0420E511CF801A080B18036FE03C046
:101AA000692D70E002C06FEF7FEFC5010E94B70F94
:101AB0004C01F32DF0683F2E820133FC1BC0822DB8
:101AC00090E088169906B0F4B60180E290E00E949A
:101AD000D40F2A94F4CFF50137FC859137FE81911C
:101AE0005F01B60190E00E94D40F21102A9421E0FA
:101AF000821A91088114910471F7E8C0843611F0BC
:101B0000893641F5F80137FE07C060817181828115
:101B100093810C5F1F4F08C060817181072E000CFC
:101B2000880B990B0E5F1F4FF32DFF763F2E97FF0B
:101B300009C090958095709561957F4F8F4F9F4F0D
:101B4000F0683F2E2AE030E0A3010E941010882E9A
:101B5000861845C0853731F4232D2F7EB22E2AE01A
:101B600030E025C0932D997FB92E8F36C1F018F43F
:101B7000883579F0B5C0803719F0883721F0B0C0CA
:101B8000E92FE061BE2EB4FE0DC0FB2DF460BF2E28
:101B900009C034FE0AC0292F2660B22E06C028E0F4
:101BA00030E005C020E130E002C020E132E0F80181
:101BB000B7FE07C060817181828193810C5F1F4FE6
:101BC00006C06081718180E090E00E5F1F4FA3012D
:101BD0000E941010882E8618FB2DFF773F2E36FEB0
:101BE0000DC0232D2E7FA22E891458F434FE0BC075
:101BF00032FC09C0832D8E7EA82E05C0B82CA32CE4
:101C000003C0B82C01C0B92CA4FE0FC0FE01E80D22
:101C1000F11D8081803321F49A2D997EA92E09C06F
:101C2000A2FE06C0B394B39404C08A2D867809F04E
:101C3000B394A3FC11C0A0FE06C0B21488F4280C13
:101C4000922C9B180EC0B21460F4B60180E290E0B2
:101C50000E94D40FB394F7CFB21418F42B1802C01B
:101C6000982C212CA4FE10C0B60180E390E00E94C5
:101C7000D40FA2FE17C0A1FC03C088E790E002C009
:101C800088E590E0B6010CC08A2D867859F0A1FE57
:101C900002C08BE201C080E2A7FC8DE2B60190E0B9
:101CA0000E94D40F891438F4B60180E390E00E94BA
:101CB000D40F9A94F7CF8A94F301E80DF11D808137
:101CC000B60190E00E94D40F8110F5CF222009F4D4
:101CD00042CEB60180E290E00E94D40F2A94F6CF63
:101CE000F6018681978102C08FEF9FEF2B96E2E18C
:101CF0000C94BC100F931F93CF93DF93869F8001AA
:101D0000879F100D969F100D1124C8010E94960EFA
:101D1000EC01009729F0A80160E070E00E94C20F7A
:101D2000CE01DF91CF911F910F9108950F931F93D3
:101D3000CF93DF938230910510F482E090E0E09140
:101D4000B502F091B60220E030E0A0E0B0E03097BC
:101D500019F1408151810281138148175907C8F058
:101D60008417950769F4109731F012960C93129727
:101D700013961C9327C00093B5021093B60222C09D
:101D80002115310519F04217530718F49A01BD01C6
:101D9000EF01DF01F801DBCF21153105F9F0281B38
:101DA000390B2430310580F48A819B8161157105DE
:101DB00021F0FB019383828304C09093B602809349
:101DC000B502FE01329644C0FE01E20FF31F81937B
:101DD000919322503109398328833AC02091B3026C
:101DE0003091B402232B41F4209106013091070178
:101DF0003093B4022093B302209104013091050185
:101E00002115310541F42DB73EB74091080150919D
:101E10000901241B350BE091B302F091B402E217E3
:101E2000F307A0F42E1B3F0B2817390778F0AC01FD
:101E30004E5F5F4F2417350748F04E0F5F1F5093DA
:101E4000B4024093B3028193919302C0E0E0F0E0CA
:101E5000CF01DF91CF911F910F910895CF93DF9321
:101E6000009709F481C0FC01329713821282A0917D
:101E7000B502B091B602109781F420813181820FB2
:101E8000931F2091B3023091B4022817390751F5FE
:101E9000F093B402E093B30267C0ED0120E030E0BC
:101EA000CE17DF0740F44A815B819E014115510541
:101EB000F1F0EA01F5CFD383C28340815181840FD1
:101EC000951FC817D90759F488819981840F951FE8
:101ED0000296918380838A819B81938382832115DB
:101EE000310529F4F093B602E093B5023DC0E90153
:101EF000FB83EA8349915991C40FD51FEC17FD0765
:101F000061F480819181840F951F0296E901998384
:101F10008883828193819B838A83E0E0F0E012963C
:101F20008D919C911397009719F0FD01DC01F7CF7B
:101F30008D919C9111979D012E5F3F4F820F931FB2
:101F40002091B3023091B4022817390769F4309711
:101F500029F41092B6021092B50202C013821282C6
:101F6000B093B402A093B302DF91CF910895FC0126
:101F70000590615070400110D8F7809590958E0FB4
:101F80009F1F0895DC0101C06D9341505040E0F760
:101F90000895FC016150704001900110D8F78095C0
:101FA00090958E0F9F1F08950F931F93CF93DF93EC
:101FB000FB01238121FD03C08FEF9FEF2CC022FF87
:101FC00016C046815781248135814217530744F456
:101FD000A081B1819D012F5F3F4F318320838C937E
:101FE000268137812F5F3F4F3783268314C08B01B3
:101FF000EC01FB010084F185E02D0995892BE1F6C8
:10200000D80116968D919C911797019617969C93DF
:102010008E931697CE01DF91CF911F910F91089566
:10202000FA01AA27283051F1203181F1E8946F9309
:102030006E7F6E5F7F4F8F4F9F4FAF4FB1E03ED0AF
:10204000B4E03CD0670F781F891F9A1FA11D680F4D
:10205000791F8A1F911DA11D6A0F711D811D911D80
:10206000A11D20D009F468943F912AE0269F1124F5
:102070003019305D3193DEF6CF010895462F477059
:10208000405D4193B3E00FD0C9F7F6CF462F4F70B4
:10209000405D4A3318F0495D31FD4052419302D012
:1020A000A9F7EACFB4E0A6959795879577956795B8
:1020B000BA95C9F700976105710508959B01AC01B8
:1020C0000A2E06945795479537952795BA95C9F7DF
:1020D000620F731F841F951FA01D0895052E97FB87
:1020E0001EF400940E94851057FD07D00E94D7105F
:1020F00007FC03D04EF40C94851050954095309514
:1021000021953F4F4F4F5F4F089590958095709563
:1021100061957F4F8F4F9F4F08950E94F910A59FA3
:10212000900DB49F900DA49F800D911D11240895D2
:10213000B7FF0C948D100E948D10821B930B089595
:102140002F923F924F925F926F927F928F929F92C7
:10215000AF92BF92CF92DF92EF92FF920F931F93B5
:10216000CF93DF93CDB7DEB7CA1BDB0B0FB6F89466
:10217000DEBF0FBECDBF09942A88398848885F84A6
:102180006E847D848C849B84AA84B984C884DF8017
:10219000EE80FD800C811B81AA81B981CE0FD11DFB
:1021A0000FB6F894DEBF0FBECDBFED010895A1E2DA
:1021B0001A2EAA1BBB1BFD010DC0AA1FBB1FEE1FC1
:1021C000FF1FA217B307E407F50720F0A21BB30B0C
:1021D000E40BF50B661F771F881F991F1A9469F788
:1021E00060957095809590959B01AC01BD01CF01E4
:1021F0000895A29FB001B39FC001A39F700D811DE0
:102200001124911DB29F700D811D1124911D0895FF
:10221000EE0FFF1F0590F491E02D099481E090E00E
:0A222000F8940C941311F894FFCF0A
:10222A00010000000000B7022000000000000202C6
:10223A006F0199014F02CA01A801BC010000000008
:10224A001B0310032D0302030903060303030D0AEC
:10225A000053656E6420536574757020496E697405
:10226A0069616C697A65640057726974654461745E
:10227A0061002E2E2E2E2E2E2E2E2E0057726974AF
:08228A0065206461746100002D
:00000001FF
