:100000000C9463000C948B000C948B000C940C04E7
:100010000C940C040C940C040C948B000C948B002A
:100020000C948B000C948B000C948B000C948B0024
:100030000C948B000C948B000C948B000C948B0014
:100040000C94C2030C948B000C9490030C946A03E0
:100050000C948B000C948B000C948B000C948B00F4
:100060000C948B000C948B0000000008000201002F
:100070000003040700000000000000000000000072
:1000800023002600290000000000240027002A0089
:1000900000000000250028002B00040404040404D0
:1000A0000404020202020202030303030303010227
:1000B00004081020408001020408102001020408F6
:1000C0001020D304F50611241FBECFEFD8E0DEBF09
:1000D000CDBF11E0A0E0B1E0E2E5FEE002C0059096
:1000E0000D92AE32B107D9F722E0AEE2B1E001C025
:1000F0001D92AF33B207E1F710E0C2E6D0E004C0D2
:100100002197FE010E941107C136D107C9F70E944D
:10011000B5050C941C070C940000CF93DF93C0E04E
:10012000D1E080917701909178016991DC01ED91A6
:10013000FC910190F081E02D0995B1E0CA30DB0718
:1001400081F7DF91CF910895CF92DF92EF92FF92E6
:100150000F931F93CF93DF936C017A018B01C0E063
:10016000D0E0CE15DF0581F0D8016D918D01D6016B
:10017000ED91FC910190F081E02DC6010995892B4C
:1001800011F02196EECF7E01C701DF91CF911F9133
:100190000F91FF90EF90DF90CF900895FC01538D69
:1001A000448D252F30E0842F90E0821B930B541751
:1001B00010F0CF96089501970895FC01918D828DDE
:1001C000981761F0828DDF01A80FB11D5D968C91AB
:1001D000928D9F5F9F73928F90E008958FEF9FEFB6
:1001E0000895FC01918D828D981731F0828DE80F72
:1001F000F11D858D90E008958FEF9FEF0895FC012C
:10020000918D228D892F90E0805C9F4F821B9109F8
:100210008F739927089583E891E00E94FF0021E001
:10022000892B09F420E0822F0895FC01848DDF01E1
:10023000A80FB11DA35ABF4F2C91848D90E0019659
:100240008F739927848FA689B7892C93A089B18948
:100250008C91837080648C93938D848D981306C0E9
:100260000288F389E02D80818F7D80830895EF924D
:10027000FF920F931F93CF93DF93EC0181E0888F60
:100280009B8D8C8D981305C0E889F989808185FD47
:1002900026C0F62E0B8D10E00F5F1F4F0F73112736
:1002A000E02E8C8DE8120CC00FB607FCFACFE8895F
:1002B000F989808185FFF5CFCE010E941501F1CF2C
:1002C0008B8DFE01E80FF11DE35AFF4FF0829FB7BF
:1002D000F8940B8FEA89FB89808180620AC09FB7FE
:1002E000F894EE89FF896083E889F98980818370B9
:1002F000806480839FBF81E090E0DF91CF911F9168
:100300000F91FF90EF900895CF93DF93EC01888DCC
:100310008823C9F0EA89FB89808185FD05C0A88909
:10032000B9898C9186FD0FC00FB607FCF5CF80818F
:1003300085FFF2CFA889B9898C9185FFEDCFCE01D9
:100340000E941501E7CFDF91CF91089580E090E002
:10035000892B29F00E940B0181110C940000089553
:100360003FB7F89480916F0190917001A091710155
:10037000B091720126B5A89B05C02F3F19F00196D8
:10038000A11DB11D3FBFBA2FA92F982F8827820F1B
:10039000911DA11DB11DBC01CD0142E0660F771F6B
:1003A000881F991F4A95D1F708958F929F92AF9217
:1003B000BF92CF92DF92EF92FF926B017C010E947D
:1003C000B0014B015C01C114D104E104F104F1F06E
:1003D0000E94B001DC01CB0188199909AA09BB0967
:1003E000883E9340A105B10570F321E0C21AD108FF
:1003F000E108F10888EE880E83E0981EA11CB11C6C
:10040000C114D104E104F10419F7DDCFFF90EF909E
:10041000DF90CF90BF90AF909F908F9008950F93F3
:100420001F93CF93DF93D82FC62F8FB7F8944091A7
:10043000790150917A0160917B0170917C018FBFAD
:1004400080917F0190918001A0918101B091820102
:100450002FB784179507A607B70799F0F8948091EE
:10046000790190917A01A0917B01B0917C012FBF1D
:1004700040917F01509180016091810170918201D2
:100480000AC0F8944091790150917A0160917B0102
:1004900070917C012FBF841B950BA60BB70B823389
:1004A0009105A105B10570F442E350E060E070E011
:1004B0008A019B01081B190B2A0B3B0BC901B801D0
:1004C0000E94D501D093030110920501C09306014B
:1004D000E1E0F1E027E031E080E090E04191840F3D
:1004E000911D2E173F07D1F7919581959109909312
:1004F000070180930801E0917D01F0917E0109954B
:100500002FB7F8948091790190917A01A0917B01A5
:10051000B0917C012FBF80937F0190938001A093C5
:100520008101B0938201DF91CF911F910F910895C6
:10053000CF93DF9365E070E080E090E00E94D5010A
:100540008091770190917801DC01ED91FC9100841C
:10055000F185E02D09950A9714F480E012C0CAE0F5
:10056000D0E08091770190917801DC01ED91FC91D0
:100570000284F385E02D0995019679F3219789F797
:1005800081E0DF91CF91089520917501309176013E
:100590002817390771F490917301809174019817AD
:1005A00041F0E0917301F0E0E25DFE4F808190E068
:1005B00008958FEF9FEF089508951F93CF93DF93D2
:1005C000DC015C968D919C915D97009739F421E058
:1005D00030E013963C932E9312973BC05196ED91C9
:1005E000FC91529750962C915097322F30951FB70F
:1005F0005E964C915E97742F727041FD6095F894F1
:100600004081772311F0422B01C043234083EC014A
:100610002197F1F748E0508160FF02C0522B01C0E2
:1006200053235083EC012197F1F76695415099F7D8
:100630008081772319F08323808302C0282B2083B5
:100640001FBF5C968D919C915D970197F1F781E0BA
:1006500090E0DF91CF911F91089520917501309125
:1006600076012817390761F4809174012091730194
:1006700090E0805C9F4F821B91098F7399270895AA
:1006800080E090E00895209175013091760128175F
:100690003907B9F49091730180917401981789F02A
:1006A000E0917301F0E0E25DFE4F808120917301E3
:1006B00030E02F5F3F4F2F7333272093730190E07B
:1006C00008958FEF9FEF0895089580E090E00895DA
:1006D0000E9417071F920F920FB60F9211242F93AB
:1006E0003F934F935F936F937F938F939F93AF93BA
:1006F000BF93EF93FF9383E891E00E941501FF9170
:10070000EF91BF91AF919F918F917F916F915F9189
:100710004F913F912F910F900FBE0F901F90189502
:100720001F920F920FB60F9211242F938F939F93C6
:10073000EF93FF93E0919301F09194018081E09118
:100740009901F0919A0182FD12C0908180919C01E3
:100750008F5F8F7320919D01821751F0E0919C0172
:10076000F0E0ED57FE4F958F80939C0101C0808192
:10077000FF91EF919F918F912F910F900FBE0F904E
:100780001F9018951F920F920FB60F9211242F935E
:100790003F938F939F93AF93BF93809179019091F3
:1007A0007A01A0917B01B0917C0130916E0123E030
:1007B000230F2D3720F40196A11DB11D05C026E899
:1007C000230F0296A11DB11D20936E018093790124
:1007D00090937A01A0937B01B0937C0180916F018B
:1007E00090917001A0917101B09172010196A11DCB
:1007F000B11D80936F0190937001A0937101B0932C
:100800007201BF91AF919F918F913F912F910F9066
:100810000FBE0F901F9018951F920F920FB60F9258
:1008200011242F933F934F935F936F937F938F93F5
:100830009F93AF93BF93EF93FF93E0917501F09176
:100840007601309709F451C0968DA685B7858585C8
:1008500091FF04C09C91892329F447C09C9189236E
:1008600009F043C0A389B4899C9185898095892327
:100870008C93868997890197F1F7608D718DA68594
:10088000B785558538E020E0CB010197F1F7822F3D
:1008900090E095958795282F4C91452309F0206885
:1008A000315091F7868D81FD20958091740190E003
:1008B00001968F73992730917301381749F0A091F1
:1008C0007401B0E0A25DBE4F2C938093740103C00D
:1008D000868D8160868F828D938D0197F1F7A38934
:1008E000B4899C918589892B8C93FF91EF91BF915D
:1008F000AF919F918F917F916F915F914F913F91B8
:100900002F910F900FBE0F901F90189590E0FC0153
:10091000E859FF4F2491FC01E255FF4F3491FC014F
:10092000E656FF4FE491EE2309F43CC0222339F14F
:10093000233091F038F42130A9F0223001F584B54C
:100940008F7D12C0273091F02830A1F02430B9F407
:10095000809180008F7D03C0809180008F7780938D
:1009600080000DC084B58F7784BD09C08091B00030
:100970008F7703C08091B0008F7D8093B000F0E04E
:10098000EE0FFF1FE057FF4FA591B4919FB7F8946A
:10099000611104C08C913095382302C0EC913E2B3C
:1009A0003C939FBF0895CF93DF93109286011092DE
:1009B000850188EE93E0A0E0B0E0809387019093FA
:1009C0008801A0938901B0938A012EE031E0309331
:1009D00084012093830125EC30E030939001209333
:1009E0008F0124EC30E0309392012093910120ECB0
:1009F00030E0309394012093930121EC30E0309368
:100A000096012093950122EC30E0309398012093D9
:100A1000970126EC30E030939A01209399011092CF
:100A20009C0110929D0110929E0110929F011092C4
:100A30002302109222028093240290932502A09315
:100A40002602B093270280E291E0909321028093E6
:100A50002002109237021092360210923902109240
:100A6000380210923B0210923A0210923D0210920C
:100A70003C0260913E026E7F6D7F60933E02669500
:100A8000617081E0682788E00E948604E6EBF0E070
:100A90002491E2EAF0E08491882399F090E0880FB5
:100AA000991FFC01EA57FF4FA591B491FC01E05753
:100AB000FF4F859194918FB7F894EC91E22BEC93D2
:100AC0008FBFE6EBF0E0E491E0933002E2EAF0E081
:100AD000E491F0E0EE0FFF1FE057FF4F85919491F6
:100AE0009093320280933102E7EBF0E02491E3EA45
:100AF000F0E084918823C1F090E0880F991FFC01F9
:100B0000EA57FF4FC591D491FC01E057FF4FA591E3
:100B1000B4919FB7F8948881E22FE0958E23888363
:100B20008C91E823EC939FBF80913E0281FD04C02D
:100B300061E089E00E94860489E080932C02E7EB63
:100B4000F0E0E491E0932D02E3EAF0E0E491F0E0DC
:100B5000EE0FFF1FE458FF4F8591949190932F0261
:100B600080932E02DF91CF910895789484B58260AE
:100B700084BD84B5816084BD85B5826085BD85B541
:100B8000816085BD80916E00816080936E001092BF
:100B9000810080918100826080938100809181003A
:100BA00081608093810080918000816080938000CB
:100BB0008091B10084608093B1008091B000816029
:100BC0008093B00080917A00846080937A00809155
:100BD0007A00826080937A0080917A0081608093AD
:100BE0007A0080917A00806880937A001092C10028
:100BF000E0919301F091940182E08083E0918F0174
:100C0000F09190011082E0919101F09192018FECAE
:100C1000808310929B01E0919701F091980186E00A
:100C20008083E0919501F0919601808180618083BD
:100C3000E0919501F0919601808188608083E09138
:100C40009501F0919601808180688083E091950103
:100C5000F091960180818F7D808310923B021092EB
:100C60003A02109239021092380210923702109212
:100C700036028DE991E090933D0280933C02909181
:100C80002C02963108F058C02DEB30E0309337023B
:100C9000209336022BE931E0309339022093380259
:100CA0002CE231E030933B0220933A0240916800FD
:100CB000983058F031E09E3008F430E021E0822F87
:100CC00001C0880F3A95EAF701C084E0842B809335
:100CD0006800983038F09E3040F0963148F020E0BF
:100CE00030E008C02DE630E005C02BE630E002C061
:100CF0002CE630E03093340220933302983030F405
:100D000081E001C0880F9A95EAF70EC0292F30E0E4
:100D10009E3018F42850310902C02E50310981E06C
:100D200001C0880F2A95EAF78093350280913C0232
:100D300090913D020197F1F780913A0290913B0228
:100D4000892B49F1E0917501F091760182E0E03262
:100D5000F80709F1309739F0A389B4899C91858906
:100D6000809589238C9380913E028E7F80933E02F2
:100D7000109274011092730180E292E090937601D8
:100D800080937501E0913302F0913402908180915B
:100D90003502892B808380E292E0909378018093E2
:100DA00077018DE890E090937E0180937D016EE164
:100DB00070E086E00E940F026AEB7BE082E10E9415
:100DC0000F0260E777E180E090E00E94D50160E0EB
:100DD00070E081E00E940F0260E777E180E090E040
:100DE0000E94D5010E94A601E7CF80E291E0909396
:100DF00021028093200280917501909176018052AA
:100E0000924071F4E0913302F0913402908180912C
:100E100035028095892380831092760110927501A6
:100E20000895EE0FFF1F0590F491E02D099481E0E5
:100E300090E0F8940C941C0710E0C2E6D0E004C0E7
:100E4000FE010E9411072196C336D107C9F7F89415
:020E5000FFCFD2
:100E52007EFF06000000000000EF000000003701E6
:100E6200A400CE008401FF00DD00F10000000000BC
:0E0E7200DD02A4006503DC022D034303C4026D
:00000001FF
