:100000000C9463000C948B000C948B000C940C04E7
:100010000C940C040C940C040C948B000C948B002A
:100020000C948B000C948B000C948B000C948B0024
:100030000C948B000C948B000C948B000C948B0014
:100040000C94C2030C948B000C9490030C946A03E0
:100050000C948B000C948B000C948B000C948B00F4
:100060000C948B000C948B0000000008000201002F
:100070000003040700000000000000000000000072
:1000800023002600290000000000240027002A0089
:1000900000000000250028002B00040404040404D0
:1000A0000404020202020202030303030303010227
:1000B00004081020408001020408102001020408F6
:1000C0001020D304FD0611241FBECFEFD8E0DEBF01
:1000D000CDBF11E0A0E0B1E0E2E6FEE002C0059095
:1000E0000D92AA33B107D9F722E0AAE3B1E001C02B
:1000F0001D92AB34B207E1F710E0C2E6D0E004C0D5
:100100002197FE010E941907C136D107C9F70E9445
:10011000B5050C9424070C940000CF93DF93C0E046
:10012000D1E080918301909184016991DC01ED918E
:10013000FC910190F081E02D0995B1E0CA30DB0718
:1001400081F7DF91CF910895CF92DF92EF92FF92E6
:100150000F931F93CF93DF936C017A018B01C0E063
:10016000D0E0CE15DF0581F0D8016D918D01D6016B
:10017000ED91FC910190F081E02DC6010995892B4C
:1001800011F02196EECF7E01C701DF91CF911F9133
:100190000F91FF90EF90DF90CF900895FC01538D69
:1001A000448D252F30E0842F90E0821B930B541751
:1001B00010F0CF96089501970895FC01918D828DDE
:1001C000981761F0828DDF01A80FB11D5D968C91AB
:1001D000928D9F5F9F73928F90E008958FEF9FEFB6
:1001E0000895FC01918D828D981731F0828DE80F72
:1001F000F11D858D90E008958FEF9FEF0895FC012C
:10020000918D228D892F90E0805C9F4F821B9109F8
:100210008F73992708958FE891E00E94FF0021E0F5
:10022000892B09F420E0822F0895FC01848DDF01E1
:10023000A80FB11DA35ABF4F2C91848D90E0019659
:100240008F739927848FA689B7892C93A089B18948
:100250008C91837080648C93938D848D981306C0E9
:100260000288F389E02D80818F7D80830895EF924D
:10027000FF920F931F93CF93DF93EC0181E0888F60
:100280009B8D8C8D981305C0E889F989808185FD47
:1002900026C0F62E0B8D10E00F5F1F4F0F73112736
:1002A000E02E8C8DE8120CC00FB607FCFACFE8895F
:1002B000F989808185FFF5CFCE010E941501F1CF2C
:1002C0008B8DFE01E80FF11DE35AFF4FF0829FB7BF
:1002D000F8940B8FEA89FB89808180620AC09FB7FE
:1002E000F894EE89FF896083E889F98980818370B9
:1002F000806480839FBF81E090E0DF91CF911F9168
:100300000F91FF90EF900895CF93DF93EC01888DCC
:100310008823C9F0EA89FB89808185FD05C0A88909
:10032000B9898C9186FD0FC00FB607FCF5CF80818F
:1003300085FFF2CFA889B9898C9185FFEDCFCE01D9
:100340000E941501E7CFDF91CF91089580E090E002
:10035000892B29F00E940B0181110C940000089553
:100360003FB7F89480917B0190917C01A0917D0131
:10037000B0917E0126B5A89B05C02F3F19F00196CC
:10038000A11DB11D3FBFBA2FA92F982F8827820F1B
:10039000911DA11DB11DBC01CD0142E0660F771F6B
:1003A000881F991F4A95D1F708958F929F92AF9217
:1003B000BF92CF92DF92EF92FF926B017C010E947D
:1003C000B0014B015C01C114D104E104F104F1F06E
:1003D0000E94B001DC01CB0188199909AA09BB0967
:1003E000883E9340A105B10570F321E0C21AD108FF
:1003F000E108F10888EE880E83E0981EA11CB11C6C
:10040000C114D104E104F10419F7DDCFFF90EF909E
:10041000DF90CF90BF90AF909F908F9008950F93F3
:100420001F93CF93DF93D82FC62F8FB7F8944091A7
:1004300085015091860160918701709188018FBF7D
:1004400080918B0190918C01A0918D01B0918E01D2
:100450002FB784179507A607B70799F0F8948091EE
:10046000850190918601A0918701B09188012FBFED
:1004700040918B0150918C0160918D0170918E01A2
:100480000AC0F894409185015091860160918701DE
:10049000709188012FBF841B950BA60BB70B82337D
:1004A0009105A105B10570F442E350E060E070E011
:1004B0008A019B01081B190B2A0B3B0BC901B801D0
:1004C0000E94D501D093030110920501C09306014B
:1004D000E1E0F1E027E031E080E090E04191840F3D
:1004E000911D2E173F07D1F7919581959109909312
:1004F000070180930801E0918901F0918A01099533
:100500002FB7F8948091850190918601A091870181
:10051000B09188012FBF80938B0190938C01A093A1
:100520008D01B0938E01DF91CF911F910F910895AE
:10053000CF93DF9365E070E080E090E00E94D5010A
:100540008091830190918401DC01ED91FC91008404
:10055000F185E02D09950A9714F480E012C0CAE0F5
:10056000D0E08091830190918401DC01ED91FC91B8
:100570000284F385E02D0995019679F3219789F797
:1005800081E0DF91CF910895209181013091820126
:100590002817390771F490917F0180918001981795
:1005A00041F0E0917F01F0E0E65CFE4F808190E059
:1005B00008958FEF9FEF089508951F93CF93DF93D2
:1005C000DC015C968D919C915D97009739F421E058
:1005D00030E013963C932E9312973BC05196ED91C9
:1005E000FC91529750962C915097322F30951FB70F
:1005F0005E964C915E97742F727041FD6095F894F1
:100600004081772311F0422B01C043234083EC014A
:100610002197F1F748E0508160FF02C0522B01C0E2
:1006200053235083EC012197F1F76695415099F7D8
:100630008081772319F08323808302C0282B2083B5
:100640001FBF5C968D919C915D970197F1F781E0BA
:1006500090E0DF91CF911F91089520918101309119
:1006600082012817390761F48091800120917F0170
:1006700090E0805C9F4F821B91098F7399270895AA
:1006800080E090E008952091810130918201281747
:100690003907B9F490917F0180918001981789F012
:1006A000E0917F01F0E0E65CFE4F808120917F01C8
:1006B00030E02F5F3F4F2F73332720937F0190E06F
:1006C00008958FEF9FEF0895089580E090E00895DA
:1006D0000E941F071F920F920FB60F9211242F93A3
:1006E0003F934F935F936F937F938F939F93AF93BA
:1006F000BF93EF93FF938FE891E00E941501FF9164
:10070000EF91BF91AF919F918F917F916F915F9189
:100710004F913F912F910F900FBE0F901F90189502
:100720001F920F920FB60F9211242F938F939F93C6
:10073000EF93FF93E0919F01F091A0018081E09100
:10074000A501F091A60182FD12C090818091A801BF
:100750008F5F8F732091A901821751F0E091A8015A
:10076000F0E0E157FE4F958F8093A80101C0808192
:10077000FF91EF919F918F912F910F900FBE0F904E
:100780001F9018951F920F920FB60F9211242F935E
:100790003F938F939F93AF93BF93809185019091E7
:1007A0008601A0918701B091880130917A0123E000
:1007B000230F2D3720F40196A11DB11D05C026E899
:1007C000230F0296A11DB11D20937A01809385010C
:1007D00090938601A0938701B093880180917B015B
:1007E00090917C01A0917D01B0917E010196A11DA7
:1007F000B11D80937B0190937C01A0937D01B09308
:100800007E01BF91AF919F918F913F912F910F905A
:100810000FBE0F901F9018951F920F920FB60F9258
:1008200011242F933F934F935F936F937F938F93F5
:100830009F93AF93BF93EF93FF93E0918101F0916A
:100840008201309709F451C0968DA685B7858585BC
:1008500091FF04C09C91892329F447C09C9189236E
:1008600009F043C0A389B4899C9185898095892327
:100870008C93868997890197F1F7608D718DA68594
:10088000B785558538E020E0CB010197F1F7822F3D
:1008900090E095958795282F4C91452309F0206885
:1008A000315091F7868D81FD20958091800190E0F7
:1008B00001968F73992730917F01381749F0A091E5
:1008C0008001B0E0A65CBE4F2C938093800103C0F2
:1008D000868D8160868F828D938D0197F1F7A38934
:1008E000B4899C918589892B8C93FF91EF91BF915D
:1008F000AF919F918F917F916F915F914F913F91B8
:100900002F910F900FBE0F901F90189590E0FC0153
:10091000E859FF4F2491FC01E255FF4F3491FC014F
:10092000E656FF4FE491EE2309F43CC0222339F14F
:10093000233091F038F42130A9F0223001F584B54C
:100940008F7D12C0273091F02830A1F02430B9F407
:10095000809180008F7D03C0809180008F7780938D
:1009600080000DC084B58F7784BD09C08091B00030
:100970008F7703C08091B0008F7D8093B000F0E04E
:10098000EE0FFF1FE057FF4FA591B4919FB7F8946A
:10099000611104C08C913095382302C0EC913E2B3C
:1009A0003C939FBF0895CF93DF93109292011092D2
:1009B000910188EE93E0A0E0B0E0809393019093E2
:1009C0009401A0939501B09396012EE031E030930D
:1009D000900120938F0125EC30E030939C0120930F
:1009E0009B0124EC30E030939E0120939D0120EC8C
:1009F00030E03093A00120939F0121EC30E0309350
:100A0000A2012093A10122EC30E03093A4012093B5
:100A1000A30126EC30E03093A6012093A5011092AB
:100A2000A8011092A9011092AA011092AB01109294
:100A30002F0210922E028093300290933102A093E5
:100A40003202B093330280E291E090932D028093C2
:100A50002C02109243021092420210924502109210
:100A600044021092470210924602109249021092DC
:100A7000480260914A026E7F6D7F60934A026695DC
:100A8000617081E0682788E00E948604E6EBF0E070
:100A90002491E2EAF0E08491882399F090E0880FB5
:100AA000991FFC01EA57FF4FA591B491FC01E05753
:100AB000FF4F859194918FB7F894EC91E22BEC93D2
:100AC0008FBFE6EBF0E0E491E0933C02E2EAF0E075
:100AD000E491F0E0EE0FFF1FE057FF4F85919491F6
:100AE00090933E0280933D02E7EBF0E02491E3EA2D
:100AF000F0E084918823C1F090E0880F991FFC01F9
:100B0000EA57FF4FC591D491FC01E057FF4FA591E3
:100B1000B4919FB7F8948881E22FE0958E23888363
:100B20008C91E823EC939FBF80914A0281FD04C021
:100B300061E089E00E94860489E080933802E7EB57
:100B4000F0E0E491E0933902E3EAF0E0E491F0E0D0
:100B5000EE0FFF1FE458FF4F8591949190933B0255
:100B600080933A02DF91CF910895789484B58260A2
:100B700084BD84B5816084BD85B5826085BD85B541
:100B8000816085BD80916E00816080936E001092BF
:100B9000810080918100826080938100809181003A
:100BA00081608093810080918000816080938000CB
:100BB0008091B10084608093B1008091B000816029
:100BC0008093B00080917A00846080937A00809155
:100BD0007A00826080937A0080917A0081608093AD
:100BE0007A0080917A00806880937A001092C10028
:100BF000E0919F01F091A00182E08083E0919B0150
:100C0000F0919C011082E0919D01F0919E018FEC8A
:100C100080831092A701E091A301F091A40186E0E6
:100C20008083E091A101F091A201808180618083A5
:100C3000E091A101F091A201808188608083E09120
:100C4000A101F091A201808180688083E091A101DF
:100C5000F091A20180818F7D8083109247021092D3
:100C600046021092450210924402109243021092E2
:100C700042028DE991E0909349028093480290915D
:100C80003802963108F058C02DEB30E03093430223
:100C9000209342022BE931E0309345022093440235
:100CA0002CE231E0309347022093460240916800E5
:100CB000983058F031E09E3008F430E021E0822F87
:100CC00001C0880F3A95EAF701C084E0842B809335
:100CD0006800983038F09E3040F0963148F020E0BF
:100CE00030E008C02DE630E005C02BE630E002C061
:100CF0002CE630E03093400220933F02983030F4ED
:100D000081E001C0880F9A95EAF70EC0292F30E0E4
:100D10009E3018F42850310902C02E50310981E06C
:100D200001C0880F2A95EAF780934102809148021A
:100D3000909149020197F1F7809146029091470204
:100D4000892B49F1E0918101F091820182E0EC323E
:100D5000F80709F1309739F0A389B4899C91858906
:100D6000809589238C9380914A028E7F80934A02DA
:100D70001092800110927F018CE292E090938201A8
:100D800080938101E0913F02F09140029081809137
:100D90004102892B80838CE292E0909384018093BE
:100DA00083018DE890E090938A01809389016EE140
:100DB00070E086E00E940F026AEB7BE082E10E9415
:100DC0000F024AE050E06EE271E08FE891E00E948D
:100DD000A40060E777E180E090E00E94D50160E048
:100DE00070E081E00E940F0260E777E180E090E030
:100DF0000E94D5010E94A601DFCF80E291E090938E
:100E00002D0280932C0280918101909182018C525D
:100E1000924071F4E0913F02F09140029081809104
:100E20004102809589238083109282011092810172
:100E30000895EE0FFF1F0590F491E02D099481E0D5
:100E400090E0F8940C94240710E0C2E6D0E004C0CF
:100E5000FE010E9419072196C336D107C9F7F894FD
:020E6000FFCFC2
:100E62007EFF06000000000000EF000000003701D6
:100E7200A400CE008401FF00DD00F10000000000AC
:100E8200DD02A4006503DC022D034303C402506C9F
:0A0E9200617920736F756E64000033
:00000001FF
