:100000000C94CA010C94F2010C94F2010C94D70FD9
:100010000C94D70F0C94D70F0C94F2010C94F201AE
:100020000C94F2010C94F2010C94F2010C94F20184
:100030000C94F2010C94F2010C94F2010C94F20174
:100040000C94350F0C94F2010C94A50F0C947F0FB7
:100050000C94F2010C94F2010C94F2010C94F20154
:100060000C94F2010C94F20100407A10F35A00A0B3
:10007000724E18090010A5D4E80000E87648170071
:1000800000E40B54020000CA9A3B000000E1F505B1
:10009000000080969800000040420F000000A086FB
:1000A00001000000102700000000E803000000002D
:1000B0006400000000000A000000000001000000D1
:1000C00000002C76D888DC674F0823DFC1DFAE59EB
:1000D000E1B1B796E5E3E453C63AE651997696E87E
:1000E000E6C28426EB898C9B62ED407C6FFCEFBC02
:1000F0009C9F40F2BAA56FA5F490055A2AF75C932D
:100100006B6CF9676DC11BFCE0E40D47FEF520E662
:10011000B500D0ED902E0300943577050080841E45
:10012000080000204E0A000000C80C333333330FA0
:10013000986E12831141EF8D2114893BE65516CF3D
:10014000FEE6DB18D1844B381BF77C1D901DA4BB49
:10015000E424203284725E228100C9F124ECA1E5FE
:100160003D273D2050415F4D4158003D2050415FAB
:1001700048494748003D2050415F4C4F57003D20C3
:1001800050415F4D494E003D203136206269747305
:10019000003D20382062697473003D20446973611A
:1001A000626C6564006E524632344C30312B006E06
:1001B000524632344C3031003D20323530204B42F3
:1001C0005053003D2032204D425053003D203120FD
:1001D0004D4250530053544154555309093D20306A
:1001E00078253032782052585F44523D257820548B
:1001F000585F44533D2578204D41585F52543D256A
:10020000782052585F505F4E4F3D25782054585FFC
:1002100046554C4C3D25780D0A0041524309093D95
:100220002025640D0A00504120506F776572092522
:10023000530D0A007E0175016B0162014352432098
:100240004C656E6774680925530D0A009A01910187
:1002500087014D6F64656C09093D2025530D0A0027
:10026000AF01A50144617461205261746509255391
:100270000D0A00CC01C301B80144594E50442F4629
:1002800045415455524500434F4E46494709005297
:10029000465F53455455500052465F434809004558
:1002A0004E5F52584144445200454E5F414109005F
:1002B00052585F50575F50302D360054585F4144BC
:1002C0004452090052585F414444525F50322D3528
:1002D0000052585F414444525F50302D310053501A
:1002E000492053706565647A093D202564204D6876
:1002F0007A0A000A0D524632342F6578616D706CAF
:1003000065732F7363616E6E65722F002D000000A0
:1003100000080002010000030407000000000000C4
:10032000000000000000240027002A000D0A00251C
:1003300030327800203078002553093D000D0A0046
:1003400020307825303278002553093D0000010225
:10035000030405000000002300260029000000001F
:1003600000250028002B00040404040404040402F3
:100370000202020202030303030303010204081042
:10038000204080010204081020010204081020000F
:10039000B410261A11241FBECFEFD8E0DEBFCDBFA8
:1003A00012E0A0E0B1E0ECE8F5E402C005900D92A7
:1003B000A63DB107D9F725E0A6EDB2E001C01D9238
:1003C000A833B207E1F711E0C9ECD1E004C02197EE
:1003D000FE010E94C321C83CD107C9F70E941B112E
:1003E0000C94B9220C940000833081F028F4813001
:1003F00099F08230A9F008958730A9F08830C9F0CB
:100400008430B1F4809180008F7D03C080918000A2
:100410008F7780938000089584B58F7784BD089589
:1004200084B58F7DFBCF8091B0008F778093B00033
:1004300008958091B0008F7DF9CFCF93DF93282F5F
:1004400030E0F901E25FFC4F8491F901E558FC4F7F
:10045000D491F901E959FC4FC491CC23A1F0811149
:100460000E94F401EC2FF0E0EE0FFF1FED5AFC4F5D
:10047000A591B491EC91ED2381E090E009F480E046
:10048000DF91CF91089580E090E0FACF1F93CF9352
:10049000DF93282F30E0F901E25FFC4F8491F901EE
:1004A000E558FC4FD491F901E959FC4FC491CC2394
:1004B000A9F0162F81110E94F401EC2FF0E0EE0F4D
:1004C000FF1FE35AFC4FA591B4918FB7F894EC91BC
:1004D000111108C0D095DE23DC938FBFDF91CF913F
:1004E0001F910895DE2BF8CF682F809113050E948D
:1004F000460280912A0590912B058230910538F0B3
:10050000880F991F880F991F05970197F1F7089594
:1005100081E00C947402682F80911205909113056C
:1005200089130C9446020895CF93DF9390E0FC0169
:10053000E558FC4F249189599C4FFC0184918823F4
:10054000D1F090E0880F991FFC01EE5DFC4FA59162
:10055000B491FC01E35AFC4FC591D49161110EC0D6
:100560009FB7F8948C91E22FE0958E238C9328818D
:10057000E223E8839FBFDF91CF9108958FB7F8946E
:10058000EC91E22BEC938FBFF6CF3FB7F8948091BC
:10059000E7039091E803A091E903B091EA0326B53F
:1005A000A89B05C02F3F19F00196A11DB11D3FBFAB
:1005B000BA2FA92F982F8827BC01CD01620F711D7A
:1005C000811D911D42E0660F771F881F991F4A9574
:1005D000D1F708958F929F92AF92BF92CF92DF9200
:1005E000EF92FF924B015C010E94C5026B017C01FE
:1005F0000E94C5026C197D098E099F09683E7340EF
:1006000081059105A8F321E0821A9108A108B1089B
:1006100088EEC80E83E0D81EE11CF11C8114910401
:10062000A104B10429F7FF90EF90DF90CF90BF9025
:10063000AF909F908F9008952FB7F8946091E30347
:100640007091E4038091E5039091E6032FBF089534
:100650008F929F92AF92BF92CF92DF92EF92FF92D2
:10066000CF93DF93D82FC62F0E941C036B017C0110
:100670008090F2039090F303A090F403B090F50300
:10068000C814D904EA04FB0409F453C00E941C03F3
:10069000DC01CB0188199909AA09BB0982339105AC
:1006A000A105B10578F422E3C22ED12CE12CF12C66
:1006B000A7019601281B390B4A0B5B0BCA01B90134
:1006C0000E94EA02D093560110925801C09359013A
:1006D0008091540190915501890F9927991F8D0F91
:1006E000911D60915701680F792F711D6C0F711D5D
:1006F00071956195710970935A0160935B01E09166
:10070000F003F091F10309950E941C036093F2033A
:100710007093F3038093F4039093F503DF91CF91EB
:10072000FF90EF90DF90CF90BF90AF909F908F9011
:1007300008950E941C03A7019601261B370B480B46
:10074000590BDA01C901AACF0895AF92BF92CF9297
:10075000DF92EF92FF920F931F93CF93DF936C0181
:100760007B018B01040F151FEB015E01AE18BF0862
:10077000C017D10759F06991D601ED91FC91019014
:10078000F081E02DC6010995892B79F7C501DF912C
:10079000CF911F910F91FF90EF90DF90CF90BF907E
:1007A000AF900895FC01538D448D252F30E0842FA8
:1007B00090E0821B930B541710F0CF960895019789
:1007C0000895FC01918D828D981761F0A28DAE0F76
:1007D000BF2FB11D5D968C91928D9F5F9F73928FFD
:1007E00090E008958FEF9FEF08950F931F930E945D
:1007F0001C036093FE037093FF03809300049093A7
:10080000010486EF93E00E94E10397FF1DC00E9460
:100810001C030091FE031091FF032091000430910E
:100820000104601B710B820B930B0091FA03109172
:10083000FB032091FC033091FD03601771078207D1
:100840009307F8F28FEF9FEF1F910F910895FC012E
:10085000918D828D981731F0828DE80FF11D858D75
:1008600090E008958FEF9FEF0895FC01918D228D08
:10087000892F90E0805C9F4F821B91098F7399278D
:10088000089586EF93E00E94350421E0892B09F456
:1008900020E0822F089580E090E0892B29F00E94CB
:1008A000410481110C9400000895FC01A48DA80F4F
:1008B000B92FB11DA35ABF4F2C91848D90E00196A2
:1008C0008F739927848FA689B7892C93A089B189C2
:1008D0008C91837080648C93938D848D981306C063
:1008E0000288F389E02D80818F7D80830895EF92C7
:1008F000FF920F931F93CF93DF93EC0181E0888FDA
:100900009B8D8C8D98131AC0E889F989808185FFA9
:1009100015C09FB7F894EE89FF896083E889F9894B
:1009200080818370806480839FBF81E090E0DF914D
:10093000CF911F910F91FF90EF900895F62E0B8DA0
:1009400010E00F5F1F4F0F731127E02E8C8D8E115B
:100950000CC00FB607FCFACFE889F989808185FFC2
:10096000F5CFCE010E945504F1CFEB8DEC0FFD2F9A
:10097000F11DE35AFF4FF0829FB7F8940B8FEA897D
:10098000FB8980818062CFCF0F931F93CF93DF933A
:100990008C01D0E0C0E0F801EC0FFD1F64916623EC
:1009A00041F086EF93E00E947704892B11F02196A5
:1009B000F2CFCE01DF91CF911F910F910895CF9388
:1009C000DF93EC01888D8823B9F0AA89BB89E88977
:1009D000F9898C9185FD03C0808186FD0DC00FB61D
:1009E00007FCF7CF8C9185FFF2CF808185FFEDCF9B
:1009F000CE010E945504E9CFDF91CF9108958EBDBD
:100A000000000DB407FEFDCF8EB508959093170337
:100A10008093160381E195E09093F1038093F003B6
:100A20000895CF93DF93C3E5D1E0809116039091B1
:100A300017036991DC01ED91FC910190F081E02DAB
:100A40000995B1E0CD35DB0781F7DF91CF910895AE
:100A5000CF93DF9365E070E080E090E00E94EA02CF
:100A60008091160390911703DC01ED91FC910084B5
:100A7000F185E02D09950A979CF0CAE0D0E08091BD
:100A8000160390911703DC01ED91FC910284F3852C
:100A9000E02D0995019621F0219789F781E001C0A9
:100AA00080E0DF91CF9108952091EE033091EF0324
:100AB0002817390771F49091EC038091ED03981792
:100AC00041F0E091EC03F0E0EA52FD4F808190E0CC
:100AD00008958FEF9FEF08950895EF92FF920F937F
:100AE0001F93CF93DF93DC015C96ED90FC905D97B4
:100AF000E114F10479F481E090E013969C938E93D5
:100B0000129790E080E0DF91CF911F910F91FF90BD
:100B1000EF9008955196ED91FC91529750968C91DB
:100B20005097982F90950FB75E962C915E97122F45
:100B3000127021FD6095F8942081112319F1282B62
:100B40002083E7012197F1F728E0462F50E030811C
:100B500060FF1AC0382B3083E7012197F1F7BA0103
:100B600075956795215089F7112381F0808189233C
:100B700080830FBF5C968D919C910197F1F781E086
:100B800090E0C1CF2923DCCF3923E5CF9081892B99
:100B9000EFCF2091EE033091EF032817390761F46E
:100BA0008091ED032091EC0390E0805C9F4F821BCD
:100BB00091098F739927089590E080E0089520911E
:100BC000EE033091EF0328173907B9F49091EC0345
:100BD0008091ED03981789F0E091EC03F0E0EA5280
:100BE000FD4F80812091EC0330E02F5F3F4F2F734A
:100BF00033272093EC0390E008958FEF9FEF089543
:100C0000E091EE03F091EF03E817F90769F4A38987
:100C1000B4899C918589809589238C931092EF03E8
:100C20001092EE0381E0089580E00895CF93DF9362
:100C3000EC011B8E1A8E198E188E1F8A1E8A8DE962
:100C400091E09D8F8C8F8C858631E0F52DEB30E027
:100C50003F8B2E8B2BE931E0398F288F2CE231E04E
:100C60003B8F2A8F90916800883008F44EC021E0B5
:100C70008E3008F420E081E001C0880F2A95EAF761
:100C8000892B809368009C852DE630E0983050F0E9
:100C90002BE630E09E3030F02CE630E0963110F05C
:100CA00030E020E03C8B2B8B292F30E0983078F51A
:100CB00081E001C0880F9A95EAF78D8B8C8D9D8D10
:100CC0000197F1F78A8D9B8D892BE1F08091EE03DE
:100CD0009091EF03C817D907A9F0009711F00E946F
:100CE00000068E8D8E7F8E8F1092ED031092EC0396
:100CF000D093EF03C093EE03EB89FC8980819D893B
:100D0000892B8083DF91CF91089584E0B9CF9E3005
:100D100040F42850310981E001C0880F2A95EAF794
:100D2000CCCF2E503109F7CF90E080E00895FC0140
:100D3000448155816081718186EF93E00C94A50315
:100D4000CF93DF93EC0182ED94E0C330D10561F0E5
:100D500081EF94E0C430D10539F084E994E0C230E9
:100D6000D10511F483EB94E00E94060570E060E089
:100D700086E10E94280364E670E080E090E00E9433
:100D8000EA02CC0FDD1FC952DC4F19821882DF91B5
:100D9000CF910895CF93DF93EB0183309105C1F09C
:100DA00084309105C1F0029781F084E994E00E94BB
:100DB0000605BE0186E00E94280364E670E080E03C
:100DC00090E0DF91CF910C94EA0283EB94E0EFCFB7
:100DD00082ED94E0ECCF81EF94E0E9CFEF92FF92C7
:100DE0000F931F93CF93DF937C01EB0183E0E81611
:100DF000F10409F455C084E0E816F10409F453C085
:100E000082E0E816F10409F448C084E994E00E9405
:100E10000605C63F8BE0D80709F42FC30CF083C149
:100E2000CD3C8BE0D80709F40DC30CF0CBC0CE3B12
:100E30008BE0D80709F4FAC20CF070C0CF3E83E013
:100E4000D80709F4E7C20CF040C0CB3E83E0D807D6
:100E500009F4DDC25CF5C93E83E0D80709F4D4C2C9
:100E6000CA3E83E0D80709F4CCC2B80182E10E94EF
:100E7000280368EE73E080E090E00E94EA02F70148
:100E8000EE0FFF1FE952FC4FD183C083DF91CF915A
:100E90001F910F91FF90EF90089583EB94E0B7CFEF
:100EA00082ED94E0B4CF81EF94E0B1CF05E010E0A3
:100EB000CD3E83E0D807C9F204E010E0CE3E83E0E7
:100EC000D8079CF206E010E0D0CFCA3B8BE0D807F1
:100ED00009F4A9C294F4C23D87E0D80709F49DC281
:100EE000C93B8BE0D80709F49BC2C13D87E0D80716
:100EF00009F0BBCF08E010E0B8CF0DE010E0CC3B2C
:100F00008BE0D80709F4B1CF0CE010E0CD3B8BE0CB
:100F1000D8070CF4AACF0EE010E0A7CFC53C8BE0B9
:100F2000D80709F48CC224F5C13C8BE0D80709F43A
:100F300083C26CF4CF3B8BE0D80709F47AC2C03C83
:100F40008BE0D80709F091CF01E110E08ECF04E1EA
:100F500010E0C33C8BE0D80709F487CF03E110E031
:100F6000C43C8BE0D8070CF480CF05E110E07DCFC6
:100F70000AE110E0C93C8BE0D80709F476CF8CF485
:100F800008E110E0C73C8BE0D80709F46ECF07E119
:100F900010E0C83C8BE0D8070CF467CF09E110E003
:100FA00064CF0CE110E0CB3C8BE0D80709F45DCFB7
:100FB0000BE110E0CC3C8BE0D8070CF456CF0DE1F0
:100FC00010E053CFCC3D8BE0D80709F447C20CF0BA
:100FD00054C0C43D8BE0D80709F43DC224F5C03DA0
:100FE0008BE0D80709F434C26CF4CE3C8BE0D80710
:100FF00009F42BC2CF3C8BE0D80709F036CF00E2D2
:1010000010E033CF03E210E0C23D8BE0D80709F4D3
:101010002CCF02E210E0C33D8BE0D8070CF425CFC3
:1010200004E210E022CF09E210E0C83D8BE0D807CF
:1010300009F41BCF8CF407E210E0C63D8BE0D80723
:1010400009F413CF06E210E0C73D8BE0D8070CF49B
:101050000CCF08E210E009CF0BE210E0CA3D8BE0B4
:10106000D80709F402CF0AE210E0CB3D8BE0D807A5
:101070000CF4FBCE0CE210E0F8CECE3E8BE0D807AD
:1010800009F4F8C134F5CA3E8BE0D80709F4EFC182
:101090007CF4CE3D8BE0D80709F4E6C10CF4E1C145
:1010A000CF3D8BE0D80709F0E0CE00E310E0DDCEC5
:1010B00003E310E0CC3E8BE0D80709F4D6CE02E380
:1010C00010E0CD3E8BE0D8070CF4CFCE04E310E067
:1010D000CCCE09E310E0C23F8BE0D80709F4C5CEBF
:1010E0008CF407E310E0C03F8BE0D80709F4BDCED5
:1010F00006E310E0C13F8BE0D8070CF4B6CE08E35E
:1011000010E0B3CE0BE310E0C43F8BE0D80709F446
:10111000ACCE0AE310E0C53F8BE0D8070CF4A5CEB7
:101120000CE310E0A2CEC5318CE0D80709F4B4C1BD
:101130000CF0B7C0C5308CE0D80709F4AAC10CF098
:1011400054C0CD3F8BE0D80709F4A0C124F5C93FB6
:101150008BE0D80709F497C16CF4C73F8BE0D80740
:1011600009F48EC1C83F8BE0D80709F07ECE0FE3AB
:1011700010E07BCE02E410E0CB3F8BE0D80709F40F
:1011800074CE01E410E0CC3F8BE0D8070CF46DCEB8
:1011900003E410E06ACE08E410E0C1308CE0D80728
:1011A00009F463CE8CF406E410E0CF3F8BE0D8075F
:1011B00009F45BCE05E410E0C1158CE0D8070CF40F
:1011C00054CE07E410E051CE0AE410E0C3308CE0C6
:1011D000D80709F44ACE09E410E0C4308CE0D807FF
:1011E0000CF443CE0BE410E040CE04E510E0CD302B
:1011F0008CE0D80709F439CE54F500E510E0C93089
:101200008CE0D80709F431CE8CF40EE410E0C7303E
:101210008CE0D80709F429CE0DE410E0C8308CE04A
:10122000D8070CF422CE0FE410E01FCE02E510E048
:10123000CB308CE0D80709F418CE01E510E0CC30B3
:101240008CE0D8070CF411CE03E510E00ECE08E5D3
:1012500010E0C1318CE0D80709F407CE8CF406E524
:1012600010E0CF308CE0D80709F4FFCD05E510E0A1
:10127000C0318CE0D8070CF4F8CD07E510E0F5CDCF
:101280000AE510E0C3318CE0D80709F4EECD09E59A
:1012900010E0C4318CE0D8070CF4E7CD0BE510E08A
:1012A000E4CDC03B8FE0D80709F40BC10CF050C06F
:1012B000C73A8FE0D80709F4F8C024F5C33A8FE0A5
:1012C000D80709F4EFC06CF4C13A8FE0D80709F4ED
:1012D000E6C0C23A8FE0D80709F0C7CD0EE510E0AE
:1012E000C4CD01E610E0C53A8FE0D80709F4BDCDC2
:1012F00000E610E0C63A8FE0D8070CF4B6CD02E65F
:1013000010E0B3CDCB3A8FE0D80709F4D1C08CF40C
:1013100005E610E0C93A8FE0D80709F4A6CD04E647
:1013200010E0CA3A8FE0D8070CF49FCD06E610E033
:101330009CCDCE3A8FE0D80709F4BDC00CF0BEC0FA
:10134000CC3A8FE0D80709F090CD08E610E08DCDBB
:10135000C83B8FE0D80709F4B7C054F50FE610E09A
:10136000C43B8FE0D80709F480CD8CF40DE610E083
:10137000C23B8FE0D80709F478CD0CE610E0C33B00
:101380008FE0D8070CF471CD0EE610E06ECD01E7CA
:1013900010E0C63B8FE0D80709F467CD00E710E006
:1013A000C73B8FE0D8070CF460CD02E710E05DCDBD
:1013B000CC3B8FE0D80709F48AC08CF405E710E035
:1013C000CA3B8FE0D80709F450CD04E710E0CB3BCF
:1013D0008FE0D8070CF449CD06E710E046CDCB38B6
:1013E00083E1D80709F476C0CC3883E1D80709F443
:1013F00074C0CD3B8FE0D80709F037CD08E710E087
:1014000034CD02E010E031CD01E010E02ECD03E05C
:1014100010E02BCD07E010E028CD09E010E025CD4D
:101420000AE010E022CD0BE010E01FCD0FE010E04D
:101430001CCD00E110E019CD02E110E016CD06E16F
:1014400010E013CD0EE110E010CD0FE110E00DCD56
:1014500001E210E00ACD05E210E007CD0DE210E058
:1014600004CD0EE210E001CD0FE210E0FECC01E36E
:1014700010E0FBCC05E310E0F8CC0DE310E0F5CC78
:101480000EE310E0F2CC00E410E0EFCC04E410E056
:10149000ECCC0CE410E0E9CC0CE510E0E6CC0DE57A
:1014A00010E0E3CC0FE510E0E0CC03E610E0DDCC8B
:1014B00007E610E0DACC09E610E0D7CC0AE610E047
:1014C000D4CC0BE610E0D1CC03E710E0CECC07E79C
:1014D00010E0CBCC09E710E0C8CC0AE710E0C5CC9F
:1014E000CF93C82F682F86EF93E00E9477048C2F4C
:1014F000CC0F990BCF910895FC0101900020E9F7E2
:101500003197AF01481B590BBC0186EF93E00C9457
:10151000A503CF93DF93CDB7DEB7A1970FB6F894AD
:10152000DEBF0FBECDBF19A28A307CF4805D88A3D8
:10153000CE0180960E947C0AA1960FB6F894DEBF79
:101540000FBECDBFDF91CF910895895CF0CF0F938F
:101550001F930091140510911505209116053091E7
:10156000170540E052E16AE770E080E004171507D4
:101570002607370740F476956795579547958F5F0F
:101580008630A1F787E0982F906A969580958170B4
:101590009CBD8DBD80E01F910F910C947402CF9380
:1015A000C82F0E94A70A8C2F0E94FF048093180561
:1015B0008FEF0E94FF04C82F0E9488028C2FCF91CA
:1015C0000895CF93C82F0E94A70A8C2F80620E9493
:1015D000FF0480931805CF910C94880281EE0E943D
:1015E000E10A809118050895CF93DF93D82FC62F75
:1015F0000E94A70A8D2F80620E94FF048093180525
:101600008C2F0E94FF04DF91CF910C94880280E020
:101610000E948B02809126059091270582309105CA
:1016200038F0880F991F880F991F05970197F1F7D8
:101630008091220581110E94EE0A60911F056E7F44
:1016400060931F0580E00E94F40A82E00E94CF0AA6
:10165000EDE4F3E0E49161E070E001C0660FEA952B
:10166000EAF7682B82E00C94F40A60911F0561FD93
:101670000AC0626060931F0580E00E94F40A8BE15B
:101680009EE40197F1F708958D3708F08DE7682FF4
:1016900085E00C94F40ACF93C82F86E00E94CF0A0D
:1016A000887F6C2FC43008F063E0660F6F5F682B93
:1016B00086E0CF910C94F40ACF9386E00E94CF0A83
:1016C000C82FC77D85E590E0A0E0B0E080932605B7
:1016D00090932705A0932805B09329056C2F86E0E9
:1016E0000E94F40A86E00E94CF0A91E0C81390E0BD
:1016F000892FCF91089580912205811115C08DE128
:101700000E94CF0A682F66608DE10E94F40A8CE186
:101710000E94CF0A682F63608CE10E94F40A81E086
:1017200080932405809322050895FF920F931F93C1
:10173000CF93DF93C82FF62E072F142F0E94A70AEE
:101740008C2F80620E94FF0480931805CF2DD02F2C
:10175000115020F089910E94FF04FACFDF91CF91C0
:101760001F910F91FF900C9488020E94350B60919D
:101770001F05616060931F0580E00E94F40A60E726
:1017800087E00E94F40A81E00E948B02809121058B
:10179000882339F0409123056AE175E08AE00C94D2
:1017A000950B82E00E94CF0AEDE4F3E0E49121E0A2
:1017B00030E001C0220FEA95EAF72095622F6823F6
:1017C00082E00E94F40A1092210508950E94A70A5F
:1017D00080E50E94FF048093180583E70E94FF04C0
:1017E0000C948802CF93CFB7F8948091EB038111CA
:1017F00027C0E1E7F3E08491E5E8F3E09491E82F76
:10180000F0E0EE0FFF1FEE5DFC4FA591B491EC915F
:10181000E92321F461E08AE00E94460261E08AE067
:101820000E9494028CB580618CBD8CB580648CBDA7
:1018300061E08DE00E94940261E08BE00E949402DE
:101840008091EB038F5F8093EB03CFBF80911205F4
:101850008F3F09F478C0909113059F3F09F473C03E
:10186000891741F061E00E94940261E080911305C4
:101870000E94940280E00E948B0281E00E94740228
:1018800065E070E080E090E00E94EA026FE584E0AD
:101890000E94F40A0E945C0B8DE10E94CF0AC82FBF
:1018A0000E94E60B8DE10E94CF0A91E0C81390E000
:1018B00090932005882341F0C81302C00E94E60BD4
:1018C00060E08DE10E94F40A1092220560E08CE154
:1018D0000E94F40A109224056FE381E00E94F40A4A
:1018E00063E082E00E94F40A80E280931905C1E17E
:1018F000609119058C2F0E94F40ACF5FC731C1F7A0
:1019000063E083E00E94F40A85E0809323058CE481
:101910000E94440B60E787E00E94F40A82EE0E9476
:10192000E10A0E94EE0A6CE080E00E94F40A80E086
:101930000E94CF0A80931F050E94350B81E0909191
:101940001F059E3009F080E0CF910895EF92FF923D
:101950000F931F93CF93DF937C0180912405C0E008
:10196000DDE1811107C0C0911905DC2FCE3108F0EF
:10197000DDE1CD1B0E94A70A81E60E94FF0480934F
:1019800018058701D15038F08FEF0E94FF04F8014D
:1019900081938F01F7CFC15020F08FEF0E94FF0499
:1019A000FACF0E94880260E487E0DF91CF911F9117
:1019B0000F91FF90EF900C94F40ACF92DF92EF9288
:1019C000FF920F931F93CF93DF9380912405C0E084
:1019D000D9E1811107C0C0911905DC2FCA3108F087
:1019E000D9E1CD1B0E94A70A80EA0E94FF048093E0
:1019F00018050AE311E0D15030F0F80181918F0110
:101A00000E94FF04F8CFC15020F080E00E94FF0444
:101A1000FACF0E94880281E00E948B020E941C0380
:101A20006B017C018FEF0E94E10A809118058073A1
:101A3000C1F40E941C036C197D098E099F09603650
:101A400071058105910570F381E08093250580E0A3
:101A5000DF91CF911F910F91FF90EF90DF90CF908A
:101A6000089580E00E948B0260E787E00E94F40AFC
:101A70008091180584FF03C00E94EE0AE8CF81E040
:101A8000E7CFCF93DF93EC0188819981009711F024
:101A90000E944E1F198218821D821C821B821A828C
:101AA000DF91CF910895FC0180819181009711F021
:101AB0000C944E1F08950F931F93CF93DF938C01C7
:101AC000EB01FC01808191810097E1F068817981CF
:101AD00061157105A9F0428153812C813D81421726
:101AE000530770F00E9498228C819D81F8019583A4
:101AF00084831D821C82DF91CF911F910F910895E5
:101B00000E944E1F88819981F801918380838A8188
:101B10009B81938382838C819D81958384831982A9
:101B200018821B821A82E5CFFC0180819181009787
:101B300011F00C946A1A60E070E0CB010895FC018A
:101B400024813581232B39F421E0FB018081882316
:101B500049F020E007C0808191810E948F2221E01E
:101B6000892BB9F7822F08950F931F93CF93DF939B
:101B7000EC0188819981009759F02A813B812617D1
:101B8000370730F081E0DF91CF911F910F910895D9
:101B90008B016F5F7F4F0E94C921009759F0998395
:101BA00088831B830A832C813D81232B59F7FC01F9
:101BB0001082E8CF80E0E7CFEF92FF920F931F9360
:101BC000CF93DF936115710541F480E0DF91CF91F0
:101BD0001F910F91FF90EF90089541155105B1F0BD
:101BE0007B01EC010C811D81040F151FB8010E94BF
:101BF000B40D882351F3288139818C819D81B701EF
:101C0000820F931F0E9498221D830C8381E0DECFF8
:101C1000CF93DF93EC01FB0101900020E9F73197AE
:101C2000AF01461B570B0E94DC0D811103C0CE0192
:101C30000E94410DCE01DF91CF910895CF93DF93A4
:101C4000EC01FB0144815581608171810E94DC0DB2
:101C5000811103C0CE010E94410DCE01DF91CF91D1
:101C60000895EF92FF920F931F93CF93DF93EC01B0
:101C70007B018A01BA010E94B40D81110BC0CE0113
:101C80000E94410DCE01DF91CF911F910F91FF90E6
:101C9000EF9008951D830C83B701888199810E947C
:101CA0009822F0CFFB0101900020E9F73197AF01B6
:101CB000461B570B0C94310E0F931F93CF93DF935A
:101CC000CDB7DEB762970FB6F894DEBF0FBECDBFBB
:101CD0008C01CB01F80111821082138212821582CD
:101CE00014824AE0BE016F5F7F4F0E94911ABE01CD
:101CF0006F5F7F4FC8010E94520E62960FB6F89434
:101D0000DEBF0FBECDBFDF91CF911F910F91089520
:101D10000F931F93CF93DF93CDB7DEB7A1970FB685
:101D2000F894DEBF0FBECDBF8C01CB01BA01F80124
:101D30001182108213821282158214822AE0AE016F
:101D40004F5F5F4F0E94B11ABE016F5F7F4FC801A6
:101D50000E94520EA1960FB6F894DEBF0FBECDBF03
:101D6000DF91CF911F910F910895CF93DF93EC01F5
:101D70006115710531F00E94520ECE01DF91CF91B5
:101D800008950E94410DF9CFFB01DC0111961C92D0
:101D90001E9213961C921E92129715961C921E92DA
:101DA00014978617970749F0608171816115710555
:101DB00021F0448155810C94310E0895FC0111826B
:101DC00010821382128215821482FB01019000207E
:101DD000E9F73197AF01461B570B0C94310EAF92C8
:101DE000BF92CF92DF92EF92FF920F931F93CF9308
:101DF000DF935C016B017A0189012417350720F418
:101E00008F2D7901042F182F69E871E0C5010E9418
:101E1000DE0ED6011496CD91DC91EC16FD06C8F4C9
:101E20000C171D0708F4E801D601ED91FC911197FC
:101E3000EC0FFD1F108110826D917C916E0D7F1D46
:101E4000C5010E94B50EF60180819181C80FD91F8E
:101E50001883C501DF91CF911F910F91FF90EF90F3
:101E6000DF90CF90BF90AF9008951F920F920FB662
:101E70000F9211242F933F938F939F93AF93BF9310
:101E80008091E3039091E403A091E503B091E60310
:101E90003091E20323E0230F2D3758F50196A11D61
:101EA000B11D2093E2038093E3039093E403A09396
:101EB000E503B093E6038091E7039091E803A091D6
:101EC000E903B091EA030196A11DB11D8093E703D8
:101ED0009093E803A093E903B093EA03BF91AF9115
:101EE0009F918F913F912F910F900FBE0F901F9058
:101EF000189526E8230F0296A11DB11DD2CF1F927F
:101F00000F920FB60F9211242F933F934F935F932D
:101F10006F937F938F939F93AF93BF93EF93FF93B1
:101F200086EF93E00E945504FF91EF91BF91AF912E
:101F30009F918F917F916F915F914F913F912F91E1
:101F40000F900FBE0F901F9018951F920F920FB613
:101F50000F9211242F938F939F93EF93FF93E09110
:101F60000604F09107048081E0910C04F0910D04C7
:101F700082FD1BC0908180910F048F5F8F73209131
:101F80001004821741F0E0910F04F0E0EA50FC4F9A
:101F9000958F80930F04FF91EF919F918F912F91D7
:101FA0000F900FBE0F901F9018958081F4CF1F9255
:101FB0000F920FB60F9211242F933F934F935F937D
:101FC0006F937F938F939F93AF93BF93EF93FF9301
:101FD000E091EE03F091EF03309749F0A685B785C5
:101FE0008585968D91FF14C09C918923A1F4FF9162
:101FF000EF91BF91AF919F918F917F916F915F9181
:102000004F913F912F910F900FBE0F901F901895F9
:102010009C91892361F7A389B4899C9185898095D6
:1020200089238C93868997890197F1F7608D718D4B
:10203000A685B785558538E020E0CB010197F1F7FB
:10204000822F90E095958795282F4C91452309F094
:102050002068315091F7868D81FD20958091ED03A8
:1020600090E001968F7399273091EC03381799F01F
:10207000A091ED03B0E0AA52BD4F2C938093ED03E5
:10208000828D938D0197F1F7A389B4898C919589FD
:10209000892B8C93ACCF868D8160868FF1CF0F9387
:1020A0001F93CF93DF93EC01162F042F1B821A820C
:1020B00088EE93E0A0E0B0E08C839D83AE83BF8385
:1020C00087E691E0998388831F8A1E8A198E188E6D
:1020D0001B8E1A8E1D8E1C8E6E8D6E7F6D7F6E8F89
:1020E0006695617081E06827842F0E94460261E056
:1020F000802F0E949402802F90E0FC01E558FC4F55
:10210000E491E88BFC01E959FC4FE491F0E0EE0F1B
:10211000FF1FE35AFC4F859194919A8B898B60E065
:10212000812F0E9494028E8D81FD04C061E0812F79
:102130000E9446021C87812F90E0FC01E558FC4F6D
:10214000E491ED87FC01E959FC4FE491F0E0EE0FDA
:10215000FF1FED5AFC4F859194919F878E87DF91E9
:10216000CF911F910F910895E6EFF3E01382128251
:1021700088EE93E0A0E0B0E084839583A683B783E4
:1021800089E791E09183808385EC90E0958784874F
:1021900084EC90E09787868780EC90E0918B808B31
:1021A00081EC90E0938B828B82EC90E0958B848B1A
:1021B00086EC90E0978B868B118E128E138E148E88
:1021C000E0E1F5E089E082838AE0838380E896E9B4
:1021D000A8E9B0E084839583A683B78380E28187F2
:1021E000108A118A85E0838B81E0848B85E090E002
:1021F000A0E0B0E0828F938FA48FB58F83E994E045
:1022000091838083128642E063E081EF94E00E9434
:102210004F1044E065E082ED94E00E944F1046E0EC
:1022200067E083EB94E00E944F1048E069E084E9A6
:1022300094E00C944F10CF93DF93CDB7DEB7C35427
:10224000D1090FB6F894DEBF0FBECDBF789484B528
:10225000826084BD84B5816084BD85B5826085BDA2
:1022600085B5816085BD80916E00816080936E0030
:102270001092810080918100826080938100809122
:1022800081008160809381008091800081608093D3
:1022900080008091B10084608093B1008091B00093
:1022A00081608093B00080917A00846080937A008E
:1022B00080917A00826080937A0080917A008160B8
:1022C00080937A0080917A00806880937A001092DF
:1022D000C100E0910604F091070482E08083E09160
:1022E0000604F09107041082E0910204F0910304C7
:1022F0001082E0910404F091050480E18083109243
:102300000E04E0910A04F0910B0486E08083E091D2
:102310000804F0910904808180618083E0910804C1
:10232000F0910904808188608083E0910804F09135
:102330000904808180688083E0910804F091090499
:1023400080818F7D808388EC90E0A0E0B0E0809376
:10235000FA039093FB03A093FC03B093FD0368E89A
:1023600071E0CE0101960E94DE0ECE0101960E9420
:102370009706CE0101960E94530D70E060E080E761
:102380009AE00E94ED1A84E994E00E94160683EB1D
:1023900094E00E94160682ED94E00E94160681EFFA
:1023A00094E00E94160660E081E10E94940260E0E1
:1023B00080E10E94940260E08FE00E94940260E05D
:1023C0008EE00E9494026EE170E081E090E00E9455
:1023D000CA066EE170E082E090E00E94CA066EE1FB
:1023E00070E083E090E00E94CA066EE170E084E055
:1023F00090E00E94CA0681E090E00E94A00682E080
:1024000090E00E94A00683E090E00E94A00684E095
:1024100090E00E94A006F0E44F2EF2E45F2EFFE071
:102420006F2E712C1E0121E2220E311C8091E103DE
:10243000882371F08091DB039091DC03892B41F4B8
:102440001092E1036EE170E081E090E00E94CA0624
:10245000C090D503D090D603E090D703F090D80376
:102460003FEFC31AD30AE30AF30AC092D503D0920E
:10247000D603E092D703F092D8038091CD03811167
:1024800009C069E871E087EC93E00E94DE0E81E00C
:102490008093CD038091BF03811109C069E871E089
:1024A00089EB93E00E94DE0E81E08093BF03809170
:1024B000B103811109C069E871E08BEA93E00E94E1
:1024C000DE0E81E08093B1038091A303811109C0E6
:1024D00069E871E08DE993E00E94DE0E81E080936F
:1024E000A3030E941C030091990310919A03209169
:1024F0009B0330919C03601B710B820B930B653F18
:1025000071408105910508F40BC181E10E941D0213
:1025100021E0892B09F020E02EAF80E10E941D020E
:1025200021E0892B09F020E02FAF8FE00E941D02EF
:1025300021E0892B09F020E021962FAF21978EE032
:102540000E941D0221E0892B09F020E022962FAF86
:102550002297E0919703F0919803EA30F10508F093
:10256000DFC0EB54FD4E0C94C321BF12E212ED12FA
:10257000F61203130E13F31331143A148814B7012F
:10258000A601CE01C2960E94880E6AE871E0CE01D3
:10259000C8960E94DE0EBE016E5C7F4FCE01C896CB
:1025A0000E941E0E6EEE71E00E94080EBC01CE016C
:1025B00001960E94C40ECE0101960E949706CE019C
:1025C000019644C10E941C03AB01BC01CE01C2961E
:1025D0000E94880E62E971E0DACF67EC73E0CE0109
:1025E000C2960E94C40E6AE971E0D1CF62EA71E03E
:1025F000CE0101960E94DE0ECE0101960E94970642
:10260000CE0101962BC10E94F20B682F70E0CE0123
:10261000C2960E945C0E60EB71E0B9CF68EB71E08E
:102620008AE391E00E94982269E871E089EB93E0E7
:102630000E949F0D811196C061EC71E084E491E0ED
:102640000E9498226091B9037091BA038EE491E0E0
:102650000E94982284E60E94440B0E945C0B82E058
:102660000E944B0B0E947B0B81E18AA78DED8BA70B
:102670008CEC8CA78BEB8DA78AEA8EA71FA618AAD5
:1026800019AA40912305BE01665D7F4F8AE00E9432
:10269000950B40912305BE01665D7F4F80E10E944E
:1026A000950B64E670E080E090E00E94EA020E94F0
:1026B000DD0C8FEF0E94E10A8091180590E095955E
:1026C0008795877066EE71E0863008F091CF60EFF5
:1026D00071E0CE0101960E94DE0ECE0101960E94AD
:1026E0009706CE0101960E94530D8DE191E00E9464
:1026F000A60C69E871E089EB93E00E949F0D69E800
:1027000071E081115AC089EB93E00E94520E8091D2
:102710009703909198030196909398038093970361
:1027200086EF93E00E943504181619060CF0B2C526
:1027300069E871E0CE01CE960E94DE0E0E94F5039C
:1027400097FD03C18D35910509F4FFC089831A8275
:1027500041E050E0BE016F5F7F4FCE01CE960E94F8
:10276000DC0DECCF69E871E08BEA93E00E949F0DED
:1027700081110BC06AEC71E084E491E00E94982220
:102780006091AB037091AC0361CF69E871E08DE9B2
:1027900093E00E949F0D81110BC063ED71E084E412
:1027A00091E00E94982260919D0370919E034ECF0C
:1027B0006DED71E084E491E04BCF8BEA93E00E94F1
:1027C0009F0D69E871E0811103C08BEA93E09DCF12
:1027D0008DE993E00E949F0D811199CF69E871E026
:1027E0008DE993E092CF6091220170912301809155
:1027F0002401909125011BAA1AAA1DAA1CAA1FAA8E
:102800001EAA8E010F5F1F4F22E044E00E944C1A67
:10281000BC01CE01C2960E94B50E6AEF71E0CE01F6
:10282000C8960E94DE0EBE016E5C7F4FCE01C89638
:102830000E941E0E6EEE71E00E94080EBC01C801DF
:102840000E94C40EC8010E949706C8010E94530D41
:10285000CE01C8960E94530DCE01C2960E94530D20
:1028600056CF66E271E0CE01C2960E94DE0E62E0B3
:1028700072E08DCE6AE072E0CE0101960E94DE0E1B
:10288000CE0101960E949706CE0101960E94530D3B
:1028900009ED13E0F12CE12CF80180819181892B65
:1028A00059F0AEE3B0E0AC0FBD1FAE0DBF1D8C9173
:1028B000811102C0118210820E5F1F4F60817181F1
:1028C000CE0101960E945C0ECE0101960E949706F1
:1028D000CE0101960E94530DB3E0EB16F10471F0A6
:1028E00062E172E0CE0101960E94DE0ECE010196F9
:1028F0000E949706CE0101960E94530DEFEFEE1A4B
:10290000FE0AF4E0EF16F10439F66EEE71E070CED7
:1029100068E871E0CE0101960E94DE0ECE010196BC
:102920000E949706CE0101960E94530D10929803C3
:10293000109297030E941C036093990370939A036B
:1029400080939B0390939C03EBCE69E871E0CE01EA
:10295000C8960E94DE0E24968EAD9FAD2497892BDB
:1029600009F490C421E030E050E040E0BE01625C38
:102970007F4FCE0101960E94EF0E64E172E0CE011E
:1029800001960E949F0D182FCE0101960E94530DB3
:10299000111109C0CE01C8960E94530DCE01CE96EA
:1029A0000E94530DC5CE24962EAD3FAD249741E035
:1029B00050E0BE01625C7F4FCE0101960E94EF0E97
:1029C000BE016F5F7F4FCE01CE960E945B0DCE01A0
:1029D00001960E94530D6EAD7FAD6115710509F42E
:1029E00042C024964EAD5FAD249787EC93E00E94E1
:1029F000310E66E172E0CE0101960E94DE0E249651
:102A00008EAD9FAD24972D813E817C01E21AF30AA1
:102A10002115310569F1009759F18217930740F1AB
:102A2000E816F90620F07C0121E0E21AF108CEACAC
:102A3000DFACA980BA80C6010FEF1FEF46018E0CF4
:102A40009F1C88169906B0F0B5010E949F2200973E
:102A500089F09C012C193D09E216F30608F498014F
:102A600001968901EECF87EC93E00E94410DC1CF22
:102A70000FEF1FEFCE0101960E94530D17FD2EC0E0
:102A800024962EAD3FAD2497A8014F5F5F4FBE0146
:102A9000625C7F4FCE0101960E94EF0EBE016F5F18
:102AA0007F4FCE01C8960E945B0DCE0101960E9419
:102AB000530D980150E040E0BE01625C7F4FCE01B3
:102AC00001960E94EF0EBE016F5F7F4FCE01CE9642
:102AD0000E945B0DCE0101960E94530D68E172E0E9
:102AE000CE01CE960E949F0D8823B9F1CE01C896E3
:102AF0000E94940D2091D9033091DA038901330F9C
:102B0000220B330B061717072807390721F081E03E
:102B100090E00E94EE0666EB72E0CE01C2960E9443
:102B2000DE0E67EC73E0CE01C2960E941E0E69ECC9
:102B300072E00E94080EBC01CE0101960E94C40EF4
:102B4000CE0101960E949706CE0101960E94530D78
:102B5000CE01C2960E94530D1DCF6DE172E0CE01F1
:102B6000CE960E949F0D8823F9F0CE01C8960E9450
:102B7000940D2091DB033091DC038901330F220B8C
:102B8000330B061717072807390721F082E090E07A
:102B90000E94EE0681E08093E10364E170E081E051
:102BA00090E00E94CA06B7CF62E272E0CE01CE96F4
:102BB0000E949F0D8823A9F0CE01C8960E94940D13
:102BC0002091DD033091DE038901330F220B330B9B
:102BD000061717072807390709F49DCF83E090E00F
:102BE00098CF67E272E0CE01CE960E949F0D8823B7
:102BF000A9F0CE01C8960E94940D2091DF03309178
:102C0000E0038901330F220B330B06171707280740
:102C1000390709F480CF84E090E07BCF6CE272E06A
:102C2000CE01CE960E949F0D882329F0CE01C89632
:102C30000E94940DB4CF61E372E0CE01CE960E9463
:102C40009F0D882339F0CE01C8960E94940D82E032
:102C500090E0A7CF66E372E0CE01CE960E949F0D72
:102C6000882339F0CE01C8960E94940D83E090E04D
:102C700098CF6BE372E0CE01CE960E949F0D882321
:102C800039F0CE01C8960E94940D84E090E089CF7F
:102C900060E472E0CE01CE960E949F0D882329F059
:102CA00081E090E00E94A00636CF65E472E0CE019C
:102CB000CE960E949F0D882319F082E090E0F2CF1B
:102CC0006AE472E0CE01CE960E949F0D882319F02F
:102CD00083E090E0E7CF6FE472E0CE01CE960E94F1
:102CE0009F0D882319F084E090E0DCCF64E572E06A
:102CF000CE01CE960E949F0D882309F45EC06BE53D
:102D000072E08AE391E00E94982264E672E084E433
:102D100091E00E94982268AD79AD8EE491E00E9426
:102D200098220AE010E032E2B32E4DEDF42E5CEC76
:102D3000E52E6BEBD62E7AEAC72E0E94F20B84E6C4
:102D40000E94440B0E945C0B82E00E944B0B0E948D
:102D50007B0BBAA2FBA2ECA2DDA2CEA21FA218A6F8
:102D600019A640912305BE016E5D7F4F8AE00E9447
:102D7000950B40912305BE016E5D7F4F80E10E945F
:102D8000950B64E670E080E090E00E94EA020E9409
:102D9000DD0C8FEF0E94E10A8091180590E0959577
:102DA00087958770863020F480E091E00E94A60C21
:102DB0000150110909F0C1CFAECE6CE672E0CE0130
:102DC000CE960E949F0D882339F068AD79AD89EBCE
:102DD00093E00E94B50E9FCE64E772E0CE01CE96DE
:102DE0000E949F0D882329F068AD79AD8BEA93E0AE
:102DF000F0CF6CE772E0CE01CE960E949F0D882343
:102E000029F068AD79AD8DE993E0E3CF64E872E035
:102E1000CE01CE960E949F0D882309F412C283EF43
:102E200092E00E94C4040E9457190E94F20B0E9473
:102E30005B190E94B50B0E94070B609114057091FD
:102E400015058091160590911705A30192010E9426
:102E5000A1211F922F938EED92E09F938F930E945A
:102E6000381B8FEF0E94E10A40911805842F90E0F3
:102E7000242F21701F922F939C0135952795277041
:102E800033273F932F9344FB992790F91F929F93E9
:102E900045FB992790F91F929F9346FB882780F95D
:102EA0001F928F931F924F9385ED91E09F938F9385
:102EB0000E94381B42E06AE081ED92E00E94A61970
:102EC00044E06CE084EC92E00E946E1941E060E125
:102ED0008BEB92E00E94A61946E061E180EB92E064
:102EE0000E946E1941E061E089EA92E00E946E1949
:102EF00041E062E08FE992E00E946E1941E065E0F6
:102F000088E992E00E946E1941E066E08FE892E065
:102F10000E946E1941E060E087E892E00E946E191D
:102F200042E06CE189E792E00E946E1986E00E941F
:102F3000CF0A88720FB6F894DEBF0FBECDBFE2E0B5
:102F4000F0E0803239F021E090E0883009F020E0B4
:102F5000E22FF92FEE0FFF1FED58FD4F8591949151
:102F60009F938F9384E692E09F938F930E94381BE8
:102F7000E0912005F0E0EE0FFF1FE05AFD4F859134
:102F800094919F938F9382E592E09F938F930E94F9
:102F9000381B81E00E94CF0A182F80E00E94CF0AE0
:102FA00080931F050FB6F894DEBF0FBECDBF83FD23
:102FB00004C0F0E0E0E0112331F0E2E0F0E082FD57
:102FC00002C0E1E0F0E0EE0FFF1FE45BFD4F8591F2
:102FD00094919F938F938CE392E09F938F930E94A1
:102FE000381B86E00E94CF0AE82FF0E0F595E795C0
:102FF000E370F0E0EE0FFF1FEC5CFD4F85919491C4
:103000009F938F9386E292E09F938F930E94381B49
:1030100088E00E94CF0A8F701F928F938AE192E01E
:103020009F938F930E94381B0FB6F894DEBF0FBE9C
:10303000CDBF10E000E0C80144E0959587954A9522
:10304000E1F70E94890A0F5F1F4F0E37110599F7AC
:103050000E94571910E000E0C8018F7099270E9464
:10306000890A0F5F1F4F0E371105B1F70E945719DC
:1030700025E0E22EF12C8824839499249A943EE74B
:10308000A32E86EF93E00E943504892B09F469C0D2
:1030900086EF93E00E94E103873609F093C08092A7
:1030A00096030E94070B62E070E080E090E00E94CF
:1030B000EA028CE892E00E947C0A0E9457190E9462
:1030C000070B86E00E94CF0A682F606986E00E94A5
:1030D000F40A80912005882309F10E945B1960E0C1
:1030E00084E00E94F40AFE0131968F019192E2156C
:1030F000F305E1F745E0B80180E10E94950B0E94DD
:10310000EE0A40E2B80180EA0E94950B60911F052B
:10311000677F60931F0580E00E94F40A81E00E94AF
:103120004B0B88E20E94440B81E00E948B0280914D
:1031300020058823B1F061E070E080E090E00E941B
:10314000EA0280E00E948B0260E187E00E94F40ABC
:1031500083EE0E94E10A80E00E948B0281E00E94DF
:103160008B0280919603811161C0A8E1B3E0EA2D42
:103170001D92EA95E9F795E6C92ED12CF1E0CF1A18
:10318000D10809F440C005E913E08DE7B82E8B2D76
:103190000E94440B0E94B50B8BEF91E00197F1F771
:1031A0000E94070B89E00E94CF0A80FF04C0D8016B
:1031B0008C918F5F8C9301501109BA942FEFB2124A
:1031C000E6CFDCCF853669F61092960380E00E9448
:1031D0008B0260911F056D7F60931F0580E00E9448
:1031E000F40A86E00E94CF0A682F6F7686E00E947C
:1031F000F40A80E00E948B0281EA92E00E947C0A3D
:103200000E945719AECF08E113E0F80181918F01B8
:10321000882391F0803108F08FE090E00E94890AC5
:10322000F3E006391F0789F70E94571921E0E21AD7
:10323000F10809F026CF6FCC8CE093E00E94C40423
:10324000EFCF66EB72E0CE01C2960E94DE0E67EC15
:1032500073E0CE01C2960E941E0E6CEB72E00E94DB
:10326000080EBC01CE0101960E94C40ECE0101964B
:103270000E949706CE0101960E94530DCE01C29680
:103280000E94530DCE01C8960E94530DCE01CE96DA
:103290000E94530D80E090E0892B09F4C7C80E947A
:1032A0004104882309F4C2C80E940000BFC887E80F
:1032B00091E00C947C0A60E081E00E94F40A809125
:1032C0002205882351F08DE10E94CF0A682F6D7F7F
:1032D0008DE10E94F40A109222050895FF920F9347
:1032E0001F93CF93DF93C62FD42F9F938F9388E4A0
:1032F00093E09F938F930E94381BDC0F0F900F90E9
:103300000F900F9000E413E0CD1791F0FF24F39499
:10331000FC0E8C2F0E94CF0A1F928F931F930F9346
:103320000E94381B0F900F900F900F90CF2DECCF75
:103330008DE393E09F938F930E94381B0F900F9023
:10334000DF91CF911F910F91FF9008958F929F92DF
:10335000AF92BF92CF92DF92EF92FF920F931F93A3
:10336000CF93DF93C62FB42E9F938F9388E393E080
:103370009F938F930E94381BBC0E0F900F900F905D
:103380000F9084E3E82E83E0F82E9FE2C92E93E0AD
:10339000D92EBC1609F445C0D09123058D2F90E09D
:1033A000009711F481E090E00E94B21E8C01AA24E3
:1033B000A394AC0E0E94A70A8C2F8F710E94FF0469
:1033C000809318054801D15038F08FEF0E94FF0418
:1033D000F40181934F01F7CF0E948802FF92EF9290
:1033E0000E94381BC0912305C00FD12FD11D0F9013
:1033F0000F902197C017D10760F088811F928F939B
:10340000DF92CF920E94381B0F900F900F900F9079
:10341000F0CF0115110519F0C8010E944E1FCA2DE9
:10342000B8CF8CE293E09F938F930E94381B0F904C
:103430000F90DF91CF911F910F91FF90EF90DF9050
:10344000CF90BF90AF909F908F900895CF93DF93D0
:10345000C7E6D1E0D0939504C093940484E994E046
:103460000E940006D093B404C093B30483EB94E0AD
:103470000E940006D093D304C093D20482ED94E05E
:103480000E940006D093F204C093F10481EF94E00F
:10349000DF91CF910C940006EF920F931F93CF937F
:1034A000DF93E80134E047FD34E1042E000C550BB6
:1034B00057FF03C0519541955109E32E022F242F48
:1034C000AE010E94531DCE01DF91CF911F910F914C
:1034D000EF9008951F93FC0199278827BC01E89479
:1034E00011911032E9F3193010F01E30C8F31B327D
:1034F00051F01D3249F4689406C00E949C1A610F75
:10350000711D811D911D119110531A30B0F33EF4BD
:1035100090958095709561957F4F8F4F9F4F1F912C
:103520000895BB274A3031F4992322F4BDE29095E7
:1035300081959F4F0C94D41A592F482F372F262F3F
:10354000660F771F881F991F660F771F881F991FA7
:10355000620F731F841F951F660F771F881F991FA7
:103560000895BB27FA01A62F621771058105910501
:10357000330B30FB66F0AA27660F771F881F991F51
:10358000AA1FA21710F0A21B63953850A9F7A05DDF
:10359000AA3308F0A95DA19336F7B111B193108257
:1035A000CA010C94CC20BB27FB015527AA27880F02
:1035B000991FAA1FA41710F0A41B83955051B9F7A7
:1035C000A05DAA3308F0A95DA193009779F7B11126
:1035D000B1931192CB010C94CC200F931F93CF93F6
:1035E000DF93009759F46115710541F4F0E0E0E0D4
:1035F000CF01DF91CF911F910F9108958B01EC01C5
:103600006EE070E081E090E00E94371DFC01892BA4
:1036100069F380E883830115110571F01387028730
:1036200081E8838380912E0590912F05892B21F4C9
:10363000F0932F05E0932E052097D1F2D187C08714
:103640008381826083838091300590913105892B3D
:1036500079F6F0933105E093300580913205909131
:103660003305892B29F6F0933305E0933205C0CF5B
:10367000B0E0A0E0EEE3FBE10C947821AE01495FFD
:103680005F4FDA016D917D91AD010EE215E0F80119
:1036900082819381DC0113962C91139728601396F5
:1036A0002C930E945D1BD8011296ED91FC91238111
:1036B000277F2383E4E00C949421ABE0B0E0E3E6C1
:1036C000FBE10C946A217C013B018A01FC01178219
:1036D0001682838181FFC8C1CE0101965C01F7018A
:1036E0009381F30193FD859193FF81913F0188239D
:1036F00009F453C1853239F493FD859193FF81918B
:103700003F01853229F4B70190E00E94DC20E7CF29
:10371000912C212C312CFFE1F31538F08B3211F173
:1037200090F4803209F1833229F137FC3CC020ED5E
:10373000280F2A3050F536FE20C08AE0989E200DD2
:103740001124922E06C08D3291F0803371F7689467
:1037500030F8F30193FD859193FF81913F01811131
:10376000DACF21C0689431F8689432F8F2CF6894C7
:1037700033F8EFCF689434F8ECCFEAE02E9E200DBA
:103780001124222E689435F8E4CF8E3229F436FCC9
:1037900004C1689436F8DDCF8C3619F4689437F894
:1037A000D8CF8836B1F2982F9F7D95549330E0F0B2
:1037B0008336A1F18337C1F1833509F063C0280155
:1037C000F2E04F0E511CF801C080D180692D70E0ED
:1037D00036FC02C06FEF7FEFC6010E94AF204C01A4
:1037E000689437F882010AC00C5F1F4FFFE3F9832A
:1037F00088248394912C6501E89437F833FE2DC01A
:10380000522C8114910471F5552009F468CFB70149
:1038100080E290E00E94DC205A94F6CFF80180818B
:1038200089830E5F1F4FE4CF2801F2E04F0E511C39
:10383000F801C080D180692D70E036FC02C06FEFC6
:103840007FEFC6010E94C1204C018201D5CFB70194
:1038500080E290E00E94DC202A942814190409F0E8
:10386000B0F7CECFF60137FC859137FE81916F011D
:10387000B70190E00E94DC2051105A94F1E08F1AB9
:103880009108BFCF843619F0893609F077C0F80166
:1038900037FE6BC060817181828193810C5F1F4F05
:1038A000F32DFF763F2E97FF09C090958095709578
:1038B00061957F4F8F4F9F4F689437F82AE030E033
:1038C000A5010E940C21C82ECA188C2C432C36FE50
:1038D0000CC0E89440F8C91440F434FE05C032FC32
:1038E00003C0F32DFE7E4F2E892C44FE95C0FE01B1
:1038F000EC0DF11D8081803309F087C0242D297ED5
:10390000422E842D8870582E43FC95C040FE8FC0F7
:103910009C2C821418F42C0C922C981844FE91C004
:10392000B70180E390E00E94DC2042FE09C088E7F6
:1039300090E041FE02C088E590E0B7010E94DC20E3
:10394000C91408F48AC0CA94D12C9FEFC91AD90AA5
:10395000CA0CDB1CF60182916F01B70190E00E9456
:10396000DC20AC14BD04B1F74FCF60817181072E0C
:10397000000C880B990B0E5F1F4F92CFD32CE8944D
:10398000D4F82AE030E0853739F1232D297FD22E73
:103990008F3601F148F48835A9F0F70186819781C7
:1039A0002B96E2E10C948621803749F08837A9F7FD
:1039B000D4FE02C06894D2F820E130E00DC06894D3
:1039C000D4F8F6CF34FE03C0822F8660D82E20E1D3
:1039D00032E002C028E030E0F801D7FE0FC060817D
:1039E0007181828193810C5F1F4FA5010E940C2180
:1039F000C82ECA183D2CE89437F867CF60817181D2
:103A000090E080E00E5F1F4FF0CF42FC02C0839435
:103A100078CF8394839475CF842D867809F471CF01
:103A2000F6CFB70180E290E00E94DC2083948214FC
:103A3000C0F3512C73CF522C5818821408F46ECF57
:103A4000F8CF842D867809F47BCF8BE241FE80E2AB
:103A500047FC8DE2B70190E071CFB70180E390E0C1
:103A60000E94DC209A946CCF8FEF9FEF99CF0F9339
:103A70001F93CF93DF93869F8001879F100D969FA2
:103A8000100D1124C8010E94B21EEC01009729F00C
:103A9000A80170E060E00E94BA20CE01DF91CF91D2
:103AA0001F910F910895A9E0B0E0E9E5FDE10C94C4
:103AB00070216A01F22EB02E102FFBE3AF2EA0165C
:103AC00008F41BE31F5F012F27E0AE014F5F5F4F3C
:103AD0000E94D71FBC018981982F9970913009F4F9
:103AE0003FC09BE2E1FC04C09E2D9170E0FC3AC017
:103AF0005E2D5071E82FE87083FF46C084E091117D
:103B000001C083E0EF2DE81B8F1508F0E0E0D6013F
:103B10008E2F20E2552351F1992329F0D6019C9351
:103B2000C60101966C0196012D5F3F4FE2FE24C055
:103B30008EE4D6018C9391E411969C931197129682
:103B40008C93D9018E2F90E281111BC0E20FF32FCD
:103B5000F11D10828EEF9FEF2996ECE00C948C21E2
:103B60009DE2C6CF90E2C4CF2D9381508111FCCF4E
:103B7000CE0ED11CE0E0D0CF8EE6D6018C9391E63C
:103B8000DBCF9D938150E0CF482F447082FF3DC032
:103B900084E0911101C083E08F1510F4EF2DE81B34
:103BA000D6018E2F20E2552309F1992329F0D60161
:103BB0009C93C60101966C0196012D5F3F4FE2FE7A
:103BC0001BC089E4D6018C938EE411968C931197D7
:103BD00086E412968C93D9018E2F90E2882309F403
:103BE000B5CF9D938150FACF2D9381508111FCCF99
:103BF000CE0ED11CE0E0D9CF89E6D6018C938EE6BB
:103C000011968C93119786E6E4CF9B0177FF02C053
:103C100030E020E0A1E0B0E0911102C0B0E0A0E00F
:103C2000F9013196AE0FBF1F8B2C912CBB2009F4EC
:103C300061C05401EFEFAE1ABE0AAA0DBB1DFA1601
:103C40001B0619F014F04F2D4A1B511188C0E3FCDC
:103C500059C07601A42FB0E2A1114FC0C40ED11CEF
:103C6000992309F45BC040E0D6011196F6019083D8
:103C70006D01552309F448C0012F060F9A81582F72
:103C8000507184FF03C0913309F4015010160CF0F9
:103C900047C0093008F008E0EEE2FE2E5B01A01AF2
:103CA000B10885019194819491082F3F320729F43E
:103CB000D601FC92F60131966F016217730794F1F9
:103CC000021713077CF5DB01A21BB30BAA24A394F4
:103CD000B12CAC0EBD1EAA0DBB1D11968C912150AE
:103CE0003109D601119628153905F4F0F6018083C3
:103CF0006D01DBCFB12CA12CA0CFF701B1937F01D7
:103D0000A150AACF9111B0CFD601942F50E302C099
:103D10005D9391509111FCCFC40ED11C40E0ACCF0B
:103D200001E0BACF80E3DBCF6217730731F496333B
:103D300088F4953311F4552369F0F6018083FD0171
:103D4000842F90E2811108C0A40FB11D1C9290E055
:103D500080E002CF81E3F1CF91938150F3CF9111B5
:103D600083CF8ACF0F931F93CF93DF938230910538
:103D700010F482E090E0E0913605F091370530E0F4
:103D800020E0B0E0A0E0309799F42115310509F466
:103D90004AC0281B390B24303105D8F58A819B8114
:103DA0006115710589F1FB0193838283FE0111C0C6
:103DB000408151810281138148175907E0F048176B
:103DC000590799F4109761F012960C931297139675
:103DD0001C933296CF01DF91CF911F910F910895DF
:103DE0000093360510933705F4CF2115310551F0B6
:103DF0004217530738F0A901DB019A01BD01DF0129
:103E0000F801C1CFEF01F9CF9093370580933605C4
:103E1000CDCFFE01E20FF31F819391932250310920
:103E200039832883D7CF2091340530913505232B52
:103E300041F420915F01309160013093350520936A
:103E4000340520915D0130915E012115310541F469
:103E50002DB73EB74091610150916201241B350B93
:103E6000E0913405F0913505E217F307A0F42E1B1D
:103E70003F0B2817390778F0AC014E5F5F4F2417CE
:103E8000350748F04E0F5F1F5093350540933405BA
:103E9000819391939FCFF0E0E0E09CCFCF93DF93AD
:103EA0000097E9F0FC01329713821282A091360547
:103EB000B0913705ED0130E020E01097A1F42081AA
:103EC0003181820F931F20913405309135052817D9
:103ED000390709F061C0F0933505E0933405DF91AF
:103EE000CF910895EA01CE17DF07E8F54A815B819B
:103EF0009E0141155105B1F7E901FB83EA83499120
:103F00005991C40FD51FEC17FD0761F48081918191
:103F10000296840F951FE90199838883828193819A
:103F20009B838A83F0E0E0E012968D919C91139739
:103F30000097B9F52D913C911197CD010296820F12
:103F4000931F20913405309135052817390739F62C
:103F5000309751F51092370510923605B09335051C
:103F6000A0933405BCCFD383C28340815181840F99
:103F7000951FC817D90761F44E5F5F4F88819981FB
:103F8000480F591F518340838A819B819383828389
:103F90002115310509F0B0CFF0933705E0933605D0
:103FA0009ECFFD01DC01C0CF13821282D7CF283013
:103FB00008F027E03327DA01990F311D87FD916062
:103FC00000966105710539F432602E5F3D9330E350
:103FD0002A95E1F708959F3F30F08038710561051B
:103FE00009F03C5F3C5F3D93913008F08068911D83
:103FF000DF93CF931F930F93FF92EF92192F987F28
:104000009695E92F96959695E90FFF27EE53FF4F6A
:1040100099273327EE24FF24A701E7010590089490
:10402000079428F4360FE71EF81E491F511D660F2E
:10403000771F881F991F0694A1F70590079428F40D
:10404000E70EF81E491F561FC11D770F881F991FC5
:10405000661F0694A1F70590079428F4F80E491FEF
:10406000561FC71FD11D880F991F661F771F069403
:10407000A1F70590079420F4490F561FC71FD81FBA
:10408000990F661F771F881F0694A9F784911095D2
:10409000177041F0D695C79557954795F794E794D3
:1040A0001A95C1F7E8E6F0E06894159015913591FE
:1040B0006591959105907FE27395E118F10A430BA4
:1040C000560BC90BD009C0F7E10CF11E431F561F58
:1040D000C91FD01D7EF4703311F48A95E6CFE894A1
:1040E000015030F0080F0AF40027021708F4202FBF
:1040F0002395022F7A3328F079E37D932A95E9F707
:1041000010C07D932A9589F6069497956795379503
:1041100017951794E118F10A430B560BC90BD009F8
:1041200098F023957E9173957A3308F070E37C9331
:104130002013B8F77E9170617D9330F0839571E321
:104140007D9370E32A95E1F71124EF90FF900F9192
:104150001F91CF91DF91992787FD90950895FC01DC
:104160000590615070400110D8F7809590958E0FA2
:104170009F1F0895DC0101C06D9341505040E0F74E
:104180000895FC016150704001900110D8F78095AE
:1041900090958E0F9F1F0895DC01FC01672F719190
:1041A0007723E1F7329704C07C916D93708362911D
:1041B000AE17BF07C8F308950F931F93CF93DF93F4
:1041C000182F092FEB018B8181FD09C01FEF0FEF25
:1041D000812F902FDF91CF911F910F91089582FF32
:1041E00014C02E813F818C819D81281739073CF4B2
:1041F000E881F981CF0101969983888310838E81AC
:104200009F8101969F838E83E3CFE885F985812F77
:104210000995892BA1F3DACFFA01AA27283051F1A9
:10422000203181F1E8946F936E7F6E5F7F4F8F4FE7
:104230009F4FAF4FB1E03ED0B4E03CD0670F781F46
:10424000891F9A1FA11D680F791F8A1F911DA11D2B
:104250006A0F711D811D911DA11D20D009F4689464
:104260003F912AE0269F11243019305D3193DEF60C
:10427000CF010895462F4770405D4193B3E00FD0C2
:10428000C9F7F6CF462F4F70405D4A3318F0495DAD
:1042900031FD4052419302D0A9F7EACFB4E0A69590
:1042A0009795879577956795BA95C9F700976105B2
:1042B000710508959B01AC010A2E06945795479508
:1042C00037952795BA95C9F7620F731F841F951FFD
:1042D000A01D08952F923F924F925F926F927F920E
:1042E0008F929F92AF92BF92CF92DF92EF92FF9206
:1042F0000F931F93CF93DF93CDB7DEB7CA1BDB0BB2
:104300000FB6F894DEBF0FBECDBF09942A88398856
:1043100048885F846E847D848C849B84AA84B9845D
:10432000C884DF80EE80FD800C811B81AA81B98169
:10433000CE0FD11D0FB6F894DEBF0FBECDBFED017D
:104340000895A1E21A2EAA1BBB1BFD010DC0AA1FD6
:10435000BB1FEE1FFF1FA217B307E407F50720F0EE
:10436000A21BB30BE40BF50B661F771F881F991F69
:104370001A9469F760957095809590959B01AC01B2
:10438000BD01CF010895EE0FFF1F0590F491E02DC0
:104390000994B0E0A0E0EFECF1E20C946C218C0108
:1043A000009751F4CB010E94B21E8C01C801CDB719
:1043B000DEB7E0E10C948821FC01E60FF71F9C01B9
:1043C00022503109E217F30708F49DC0D901CD91BD
:1043D000DC911197C617D70798F0C530D10530F397
:1043E000CE0104978617970708F3C61BD70B2297B1
:1043F000C193D1936D937C93CF010E944E1FD6CF72
:104400005B01AC1ABD0A4C018C0E9D1EA0913605B5
:10441000B0913705512C412CF12CE12C109731F53E
:1044200080913405909135058815990509F05CC097
:104430004616570608F058C080915D0190915E01C4
:10444000009741F48DB79EB7409161015091620190
:10445000841B950BE817F90708F055C0F093350554
:10446000E0933405F90171836083A0CF8D919C9115
:10447000119712966C90129713967C901397A8152B
:10448000B90559F56C0142E0C40ED11CCA14DB0415
:1044900020F1AC014A195B09DA011296159780F0F8
:1044A0006282738251834083D9016D937C93E114BE
:1044B000F10471F0D7011396FC93EE93129776CF27
:1044C00022968C0F9D1FF90191838083F301EFCF1A
:1044D000F0933705E093360569CF4816590608F47E
:1044E0002C017D01D3019ACFCB010E94B21E7C0129
:1044F000009749F0AE01B8010E948622C8010E94CF
:104500004E1F870153CF10E000E050CFFB01DC01CC
:1045100002C001900D9241505040D8F70895FB0120
:10452000DC018D91019080190110D9F3990B089548
:10453000FB01DC0101900D920020E1F70895FB01E1
:1045400051915523A9F0BF01DC014D91451741114F
:10455000E1F759F4CD010190002049F04D9140154B
:104560004111C9F3FB014111EFCF81E090E00197C8
:10457000089511E0C9ECD1E004C0FE010E94C321FE
:0C4580002196CA3CD107C9F7F894FFCF80
:10458C000000000000000000005A65726F0000007F
:10459C00000000000000000000000000000000000F
:1045AC000000000000005A65726F0000000000005F
:1045BC0000000000000000000000546F5F426F6DAF
:1045CC00626100004765745F496E666F0000444F7E
:1045DC000000007EFF06000000000000EF00003825
:1045EC00058000000000006D05A50394066C05C94C
:1045FC0005DF055405000000007704A503D203DF96
:10460C00043504E10327040D0A007B732E642E6E1F
:10461C003A007B732E642E743A007B732E642E63E7
:10462C003A007B692E622E6E3A415544494F7D000B
:10463C007B732E722E6F3A00546F5F426F6D626106
:10464C00005365745F53746174005365745F5061FB
:10465C007373005365745F54696D657200476574BC
:10466C005F496E666F007B732E622E6F3A307D0051
:10467C007B732E622E6F3A317D007B732E622E7609
:10468C003A007B732E622E733A007B732E702E735E
:10469C003A002F005B003D00706C5F3100706C5F66
:1046AC003200706C5F3300706C5F3400766C5F317D
:1046BC0000766C5F3200766C5F3300766C5F340092
:1046CC0073745F310073745F320073745F33007303
:1046DC00745F34006F745F6B736B00546F5F4B616E
:1046EC00736B61005365745F4C6564006F745F623B
:1046FC006D7373006F745F626D7370006F745F62C3
:10470C006D7374006F745F636B72640053746172C9
:10471C0074696E672043617272696572204F75749B
:10472C000053746F7070696E6720436172726965B3
:10473C0072204F7574007B722E632E003A6E6F746C
:10474C005F65786973747D0A003A636F6D706C6590
:06475C007465647D0A0093
:00000001FF
