:020000040000FA
:100000000C9449010C9471010C9471010C947101D0
:100010000C9471010C9471010C9471010C94710198
:100020000C9471010C9471010C9471010C94710188
:100030000C9471010C9471010C9471010C94710178
:100040000C94B6050C9471010C9426060C940006D1
:100050000C9471010C9471010C9471010C94710158
:100060000C9458060C9471013D2050415F4D41584D
:10007000003D2050415F48494748003D2050415FC6
:100080004C4F57003D2050415F4D494E003D2031BF
:10009000362062697473003D2038206269747300F1
:1000A0003D2044697361626C6564006E524632346F
:1000B0004C30312B006E524632344C3031003D20F2
:1000C000323530204B425053003D2032204D4250BB
:1000D00053003D2031204D425053000A0B0C0D0EB1
:1000E0000F00010203040553544154555309093DBF
:1000F000203078253032782052585F44523D2578A0
:100100002054585F44533D2578204D41585F525448
:100110003D25782052585F505F4E4F3D2578205442
:10012000585F46554C4C3D25780D0A004152430915
:10013000093D2025640D0A00504120506F776572FB
:100140000925530D0A0084007B00710068004352AA
:1001500043204C656E6774680925530D0A00A000A2
:1001600097008D004D6F64656C09093D2025530D86
:100170000A00B500AB0044617461205261746509E6
:1001800025530D0A00D200C900BE0044594E504408
:100190002F4645415455524500434F4E4649470965
:1001A0000052465F53455455500052465F4348093C
:1001B00000454E5F52584144445200454E5F414114
:1001C000090052585F50575F50302D360054585F29
:1001D00041444452090052585F414444525F5032F6
:1001E0002D350052585F414444525F50302D31004C
:1001F0005350492053706565647A093D2025642079
:100200004D687A0A0052462D4E414E4F2076332ECD
:10021000302052656365697665205465737400000B
:1002200000000800020100000304070000000000B5
:1002300000000000000000250028002B0000000046
:1002400000240027002A0004040404040404040217
:100250000202020202030303030303010204081063
:100260002040800102040810200102040810200D23
:100270000A002530327800203078002553093D00EF
:100280000D0A0020307825303278002553093D00D2
:10029000730711241FBECFEFD8E0DEBFCDBF11E042
:1002A000A0E0B1E0E8E2FFE102C005900D92A834C1
:1002B000B107D9F722E0A8E4B1E001C01D92A93A44
:1002C000B207E1F711E0C9E4D1E004C02197FE01D3
:1002D0000E948C0FC834D107C9F70E94C3070C9441
:1002E000920F0C94000090E0FC01E55AFD4F249120
:1002F000895B9D4FFC018491882399F090E0880FE1
:10030000991FFC01E35CFD4FA591B491FC01ED5CEC
:10031000FD4F859194918FB7F894EC91E22BEC937B
:100320008FBF089590E0FC01E15EFD4F2491FC0138
:10033000E55AFD4F3491FC01E95BFD4FE491EE235A
:10034000C9F0222339F0233001F1A8F4213019F14A
:10035000223029F1F0E0EE0FFF1FED5CFD4FA5917B
:10036000B4918FB7F894EC91611126C030953E237B
:100370003C938FBF08952730A9F02830C9F024306E
:1003800049F7809180008F7D03C0809180008F7736
:1003900080938000DFCF84B58F7784BDDBCF84B5B9
:1003A0008F7DFBCF8091B0008F778093B000D2CF4C
:1003B0008091B0008F7DF9CF3E2BDACF682F8091EE
:1003C00084020E94920180919B0290919C02823053
:1003D000910538F0880F991F880F991F059701978D
:1003E000F1F7089581E00C94DE013FB7F894809115
:1003F000DF019091E001A091E101B091E20126B509
:10040000A89B05C02F3F19F00196A11DB11D3FBF4C
:10041000BA2FA92F982F8827BC01CD01620F711D1B
:10042000811D911D42E0660F771F881F991F4A9515
:10043000D1F708958F929F92AF92BF92CF92DF92A1
:10044000EF92FF924B015C010E94F5016B017C0170
:100450000E94F5016C197D098E099F09683E734061
:1004600081059105A8F321E0821A9108A108B1083D
:1004700088EEC80E83E0D81EE11CF11C81149104A3
:10048000A104B10429F7FF90EF90DF90CF90BF90C7
:10049000AF909F908F900895AF92BF92CF92DF92CE
:1004A000EF92FF920F931F93CF93DF936C017B0129
:1004B0008B01040F151FEB015E01AE18BF08C017BA
:1004C000D10759F06991D601ED91FC910190F0812D
:1004D000E02DC6010995892B79F7C501DF91CF91F0
:1004E0001F910F91FF90EF90DF90CF90BF90AF9052
:1004F0000895FC01538D448D252F30E0842F90E02A
:10050000821B930B541710F0CF960895019708950E
:10051000FC01918D828D981761F0A28DAE0FBF2FD7
:10052000B11D5D968C91928D9F5F9F73928F90E02D
:1005300008958FEF9FEF0895FC01918D828D98179C
:1005400031F0828DE80FF11D858D90E008958FEFD9
:100550009FEF0895FC01918D228D892F90E0805CA2
:100560009F4F821B91098F739927089583EE91E025
:100570000E94AA0221E0892B09F420E0822F08952D
:1005800080E090E0892B29F00E94B60281110C9442
:1005900000000895FC01A48DA80FB92FB11DA35A26
:1005A000BF4F2C91848D90E001968F739927848F93
:1005B000A689B7892C93A089B1898C9183708064B6
:1005C0008C93938D848D981306C00288F389E02D57
:1005D00080818F7D80830895EF92FF920F931F9308
:1005E000CF93DF93EC0181E0888F9B8D8C8D9813E6
:1005F0001AC0E889F989808185FF15C09FB7F894F2
:10060000EE89FF896083E889F9898081837080643D
:1006100080839FBF81E090E0DF91CF911F910F9188
:10062000FF90EF900895F62E0B8D10E00F5F1F4F97
:100630000F731127E02E8C8D8E110CC00FB607FCA6
:10064000FACFE889F989808185FFF5CFCE010E9434
:10065000CA02F1CFEB8DEC0FFD2FF11DE35AFF4FD6
:10066000F0829FB7F8940B8FEA89FB8980818062C2
:10067000CFCFCF93DF93EC01888D8823B9F0AA897F
:10068000BB89E889F9898C9185FD03C0808186FD4D
:100690000DC00FB607FCF7CF8C9185FFF2CF80819C
:1006A00085FFEDCFCE010E94CA02E9CFDF91CF9145
:1006B00008958EBD00000DB407FEFDCF8EB50895E0
:1006C00020916F01260F3327331F21323105ECF4BF
:1006D00020919301FC0190E080E0243069F082E0F9
:1006E0000895A0916F012191AC01415B5E4FA40F71
:1006F000B52FB11D2C930196861798F380916F0149
:10070000680F60936F0180E0089581E00895089577
:100710008FEF9FEF08958FEF9FEF0895809148012D
:1007200090E09195819591090895CF93DF93CB0146
:10073000EA01642F0E946003CE01DF91CF910895FA
:10074000CF93DF931F92CDB7DEB7698361E0CE010F
:1007500001960E94600381E090E00F90DF91CF91BD
:10076000089590E080E00895CF93C82F682F83EE1E
:1007700091E00E94EC028C2FCC0F990BCF91089541
:100780000F931F930091850210918602209187029A
:100790003091880240E052E16AE770E080E004179F
:1007A00015072607370740F47695679557954795BF
:1007B0008F5F8630A1F787E0982F906A9695809595
:1007C00081709CBD8DBD80E01F910F910C94DE0166
:1007D000CF93C82F0E94C0038C2F80620E945903C0
:1007E00080938902CF910C94F201CF93C82F0E947D
:1007F000C0038C2F0E945903809389028FEF0E94BF
:100800005903C82F0E94F2018C2FCF910895FF92B7
:100810000F931F93CF93DF93C82FF62E072F142F1C
:100820000E94C0038C2F80620E945903809389022A
:10083000CF2DD02F115020F089910E945903FACF6B
:10084000DF91CF911F910F91FF900C94F2010E94C4
:10085000C00380E50E9459038093890283E70E94C8
:1008600059030C94F201CF93DF93D82FC62F0E9427
:10087000C0038D2F80620E945903809389028C2FC0
:100880000E945903DF91CF910C94F2016091900284
:1008900061FD0AC062606093900280E00E943304B0
:1008A0008BE19EE40197F1F70895CF9386E00E94D3
:1008B000F503C82FC77D85E590E0A0E0B0E0809308
:1008C000970290939802A0939902B0939A026C2F8A
:1008D00086E00E94330486E00E94F50391E0C8138D
:1008E00090E0892FCF91089563E083E00E94330464
:1008F00085E0809394020895FC0101900020E9F7BF
:100900003197AF01481B590BBC0183EE91E00C9469
:100910004C02FF920F931F93CF93DF93C62FD42FD8
:100920009F938F938BE892E09F938F930E94480B45
:10093000DC0F0F900F900F900F9003E812E0CD178F
:1009400091F0FF24F394FC0E8C2F0E94F5031F926C
:100950008F931F930F930E94480B0F900F900F904F
:100960000F90CF2DECCF80E892E09F938F930E9461
:10097000480B0F900F90DF91CF911F910F91FF9037
:1009800008958F929F92AF92BF92CF92DF92EF9293
:10099000FF920F931F93CF93DF93C62FB42E9F9395
:1009A0008F938BE792E09F938F930E94480BBC0E2E
:1009B0000F900F900F900F9087E7E82E82E0F82EAF
:1009C00092E7C92E92E0D92EBC1609F445C0D09109
:1009D00094028D2F90E0009711F481E090E00E9446
:1009E000630D8C01AA24A394AC0E0E94C0038C2F2B
:1009F0008F710E945903809389024801D15038F0C9
:100A00008FEF0E945903F40181934F01F7CF0E94A9
:100A1000F201FF92EF920E94480BC0919402C00F26
:100A2000D12FD11D0F900F902197C017D10760F0E3
:100A300088811F928F93DF92CF920E94480B0F9074
:100A40000F900F900F90F0CF0115110519F0C8010C
:100A50000E94FF0DCA2DB8CF8FE692E09F938F932F
:100A60000E94480B0F900F90DF91CF911F910F9133
:100A7000FF90EF90DF90CF90BF90AF909F908F90BE
:100A800008951F93CF93DF9385ED8093BC008091F1
:100A90004B0190914C01A0914D01B0914E010796F0
:100AA000A11DB11D23E0B695A795979587952A9529
:100AB000D1F72091BC0024FD03C01092930152C0D5
:100AC00040914B0150914C0160914D0170914E014C
:100AD000452B462B472B69F30097A105B10541F043
:100AE0002AE22A95F1F700C00197A109B109E1CFE7
:100AF00080914A01C1E0C0934901882399F1D091C6
:100B0000B8001091BA008091BC008A7B8093BC0031
:100B100060E082E10E94920160E083E10E94920124
:100B200010929301C09395011092940161E082E1CB
:100B30000E94920161E083E10E9492018091B900DC
:100B40008E7F8093B9008091B9008D7F8093B9002A
:100B500088E48093B80085E48093BC001093BA00C9
:100B6000D093B800DF91CF911F9108951F920F92FB
:100B70000FB60F9211242F933F938F939F93AF93B0
:100B8000BF938091DB019091DC01A091DD01B091D8
:100B9000DE013091DA0123E0230F2D3758F501965D
:100BA000A11DB11D2093DA018093DB019093DC013C
:100BB000A093DD01B093DE018091DF019091E0010F
:100BC000A091E101B091E2010196A11DB11D8093B8
:100BD000DF019093E001A093E101B093E201BF91A6
:100BE000AF919F918F913F912F910F900FBE0F90DA
:100BF0001F90189526E8230F0296A11DB11DD2CF94
:100C00001F920F920FB60F9211242F933F934F9381
:100C10005F936F937F938F939F93AF93BF93EF9364
:100C2000FF9383EE91E00E94CA02FF91EF91BF9182
:100C3000AF919F918F917F916F915F914F913F9174
:100C40002F910F900FBE0F901F9018951F920F922B
:100C50000FB60F9211242F938F939F93EF93FF93CF
:100C6000E091F301F091F4018081E091F901F091BC
:100C7000FA0182FD1BC090818091FC018F5F8F7310
:100C80002091FD01821741F0E091FC01F0E0ED516F
:100C9000FE4F958F8093FC01FF91EF919F918F9173
:100CA0002F910F900FBE0F901F9018958081F4CF59
:100CB0001F920F920FB60F9211242F933F934F93D1
:100CC0005F936F937F938F939F93AF93BF93EF93B4
:100CD000FF938091B900887F803609F44AC0F0F50F
:100CE000883209F4A5C018F5803109F499C0B8F428
:100CF000882309F4F5C0883009F492C0FF91EF9180
:100D0000BF91AF919F918F917F916F915F914F9123
:100D10003F912F910F900FBE0F901F901895883123
:100D200009F486C0803251F78093920114C0803458
:100D300009F49BC040F48033B9F38833F9F680930B
:100D4000920185ECAEC0803509F483C0883509F482
:100D500094C0883499F60E944105D0CF883909F4AF
:100D60008AC038F5883729F050F4883611F080377A
:100D700029F683E0809393011092910155C0883841
:100D800009F479C0803919F0803809F0B7CF809123
:100D90009101803208F06FC0E091910181E08E0FE7
:100DA000809391018091BB00F0E0EF58FE4F80836B
:100DB0003BC0803B39F0D0F4803A09F477C0883AE0
:100DC00009F09CCF84E080939301109270011092FF
:100DD0006F01F0E0E0E0099580916F0181110FC093
:100DE00081E080936F0110924F0109C0803C09F4AB
:100DF000A8CF883C09F4A5CF883B09F07FCFE091CC
:100E0000700181E08E0F80937001F0E0E15BFE4F96
:100E100080818093BB009091700180916F0129C007
:100E20008091B8018093BB0085EC8093BC0066CFB5
:100E30009091B7018091B601981758F5E091B701EC
:100E400081E08E0F8093B701F0E0EA56FE4F80817B
:100E5000E9CFE091B70181E08E0F8093B7018091D7
:100E6000BB00F0E0EA56FE4F80839091B70180917D
:100E7000B6019817C8F285E8D8CFE091B70181E0B4
:100E80008E0F8093B7018091BB00F0E0EA56FE4FD1
:100E900080838091950181115ECF81E080939401E0
:100EA00084EA8093BC001092930128CF85EC809354
:100EB000BC001092930180919101803230F4E09156
:100EC0009101F0E0EF58FE4F10826091910170E0C7
:100ED00081E791E0F0E0E0E00995109291010ECFFA
:100EE0001092920138CFE3EEF1E01382128288EE85
:100EF00093E0A0E0B0E084839583A683B7838AE083
:100F000091E09183808385EC90E09587848784ECE1
:100F100090E09787868780EC90E0918B808B81ECC6
:100F200090E0938B828B82EC90E0958B848B86ECA7
:100F300090E0978B868B118E128E138E148EE1E8C3
:100F4000F2E089E082838AE0838380E896E9A8E979
:100F5000B0E084839583A683B78380E28187108A7B
:100F6000118A85E0838B81E0848B85E090E0A0E0AE
:100F7000B0E0828F938FA48FB58F80E892E0918349
:100F8000808312860895CF93DF93CDB7DEB7A997FC
:100F90000FB6F894DEBF0FBECDBF789484B58260E3
:100FA00084BD84B5816084BD85B5826085BD85B50D
:100FB000816085BD80916E00816080936E0010928B
:100FC0008100809181008260809381008091810006
:100FD0008160809381008091800081608093800097
:100FE0008091B10084608093B1008091B0008160F5
:100FF0008093B00080917A00846080937A00809121
:101000007A00826080937A0080917A008160809378
:101010007A0080917A00806880937A001092C100F3
:10102000E091F301F091F40182E08083E091EF011F
:10103000F091F0011082E091F101F091F20180E174
:1010400080831092FB01E091F701F091F80186E0B6
:101050008083E091F501F091F601808180618083C9
:10106000E091F501F091F601808188608083E09144
:10107000F501F091F601808180688083E091F501AF
:10108000F091F60180818F7D808370E060E084EBD9
:1010900093E00E94FD0A05E012E0F80164916623E6
:1010A00041F083EE91E00E94EC020F5F1F4F892B0D
:1010B000A1F788E191E00E947C041FB7F894809129
:1010C000B901811124C0E1E5F2E08491E5E6F2E0A6
:1010D0009491E82FF0E0EE0FFF1FE35CFD4FA59128
:1010E000B491EC91E92321F461E08AE00E9492013D
:1010F0008AE00E9473018CB580618CBD8CB58064E0
:101100008CBD8DE00E9473018BE00E947301809181
:10111000B9018F5F8093B9011FBF809183028F3F18
:1011200009F474C0909184029F3F09F46FC089173D
:1011300031F00E947301809184020E9473018091BA
:10114000830290918402891719F060E00E94920155
:1011500081E00E94DE0165E070E080E090E00E94A6
:101160001A026FE584E00E9433040E9455048DE169
:101170000E94F503182F0E9427048DE10E94F503B9
:1011800091E0181390E090939102882341F0181396
:1011900002C00E94270460E08DE10E943304109297
:1011A000930260E08CE10E943304109295026FE399
:1011B00081E00E94330463E082E00E94330480E215
:1011C00080938A0211E160918A02812F0E94330488
:1011D0001F5F1731C1F70E9474046CE485E00E9420
:1011E000330460E787E00E94330482EE0E94E80344
:1011F00081EE0E94E8036CE080E00E94330480E00E
:101200000E94F503809390020E9446040E94740499
:1012100086E68AA380EF8BA38CA38DA38EA31FA247
:1012200018A619A6ECEDF0E0849140919402BE015D
:101230006E5D7F4F0E94070482E00E94F503E2EE9C
:10124000F0E0E49161E070E001C0660FEA95EAF732
:10125000682B82E00E94330463E785E00E94330438
:1012600086E00E94F503682F676086E00E943304E1
:101270000E9455040E944604609190026160609350
:10128000900280E00E94330460E787E00E9433040C
:101290008091830290918402891719F061E00E9485
:1012A000920180919202882309F44EC140919402E8
:1012B0006BE872E08AE00E9407048BE191E00E94F3
:1012C0007C0488E191E00E947C0460918502709129
:1012D0008602809187029091880220E432E44FE0F8
:1012E00050E00E946A0F1F922F9380EF91E09F932E
:1012F0008F930E94480B8FEF0E94E8034091890270
:10130000842F90E0242F21701F922F939C013595FC
:101310002795277033273F932F9344FB992790F904
:101320001F929F9345FB992790F91F929F9346FB2D
:10133000882780F91F928F931F924F9387EE90E03A
:101340009F938F930E94480B42E06AE083EE91E006
:101350000E94C10444E06CE086ED91E00E948904A3
:1013600041E060E18DEC91E00E94C10446E061E162
:1013700082EC91E00E94890441E061E08BEB91E016
:101380000E94890441E062E081EB91E00E948904BF
:1013900041E065E08AEA91E00E94890441E066E06C
:1013A00081EA91E00E94890441E060E089E991E0EE
:1013B0000E94890442E06CE18BE891E00E9489047C
:1013C00086E00E94F50388720FB6F894DEBF0FBE68
:1013D000CDBFE2E0F0E0803239F021E090E08830EB
:1013E00009F020E0E22FF92FEE0FFF1FEB57FE4F21
:1013F000859194919F938F9386E791E09F938F932C
:101400000E94480BE0919102F0E0EE0FFF1FEE58B2
:10141000FE4F859194919F938F9384E691E09F93E3
:101420008F930E94480B81E00E94F503182F80E003
:101430000E94F503809390020FB6F894DEBF0FBEB2
:10144000CDBF83FD04C0F0E0E0E0112331F0E2E025
:10145000F0E082FD02C0E1E0F0E0EE0FFF1FE25A93
:10146000FE4F859194919F938F938EE491E09F938B
:101470008F930E94480B86E00E94F503E82FF0E06E
:10148000F595E795E370F0E0EE0FFF1FEA5BFE4F86
:10149000859194919F938F9388E391E09F938F938D
:1014A0000E94480B88E00E94F5038F701F928F9373
:1014B0008CE291E09F938F930E94480B64EF71E060
:1014C00080E090E00E941A020FB6F894DEBF0FBED3
:1014D000CDBF7AE0C72ED12CE12CF12C00E010E03A
:1014E0008FEF0E94E8038091890290E0959587959F
:1014F0008770863008F067C08FEF0E94E803809104
:10150000890290E0959587958770863090F5B09028
:101510008A0280919502811162C00E94C00381E617
:101520000E945903809389028AEB882E81E0982ECD
:10153000BA94EFEFBE1609F459C08FEF0E94590319
:10154000F40181934F01F4CF82E00E94F503E1EEB4
:10155000F0E0E49121E030E001C0220FEA95EAF7E3
:101560002095622F682382E00E9433041092920239
:10157000A4CE85E391E00E947C048EE391E00E947A
:101580007C042091BA0130E050E040E019A25E01F5
:1015900081E2A80EB11CCA01B901A70196010E94FF
:1015A0006A0F605DF50162935F0121153105410508
:1015B000510589F7309719F0CF010E947C0488E12A
:1015C00091E00E947C040115110509F489CF0E9465
:1015D000B602882309F484CF0E94000081CF90E2F4
:1015E0009B1508F09ACF90E2B92E97CF0E94F20196
:1015F00060E487E00E9433047FCF0F931F93CF9363
:10160000DF93009759F46115710541F4F0E0E0E0D3
:10161000CF01DF91CF911F910F9108958B01EC01C4
:101620006EE070E081E090E00E94470DFC01892BA4
:1016300069F380E883830115110571F01387028730
:1016400081E8838380919F029091A002892B21F4ED
:10165000F093A002E0939F022097D1F2D187C08738
:101660008381826083838091A1029091A202892B61
:1016700079F6F093A202E093A1028091A3029091E7
:10168000A402892B29F6F093A402E093A302C0CF11
:10169000B0E0A0E0EEE4FBE00C94410FAE01495F46
:1016A0005F4FDA016D917D91AD010FE912E0F80114
:1016B00082819381DC0113962C91139728601396F5
:1016C0002C930E946D0BD8011296ED91FC91238111
:1016D000277F2383E4E00C945D0FABE0B0E0E3E709
:1016E000FBE00C94330F7C013B018A01FC01178263
:1016F0001682838181FFC8C1CE0101965C01F7018A
:101700009381F30193FD859193FF81913F0188239C
:1017100009F453C1853239F493FD859193FF81918A
:101720003F01853229F4B70190E00E94A50EE7CF72
:10173000912C212C312CFFE1F31538F08B3211F173
:1017400090F4803209F1833229F137FC3CC020ED5E
:10175000280F2A3050F536FE20C08AE0989E200DD2
:101760001124922E06C08D3291F0803371F7689467
:1017700030F8F30193FD859193FF81913F01811131
:10178000DACF21C0689431F8689432F8F2CF6894C7
:1017900033F8EFCF689434F8ECCFEAE02E9E200DBA
:1017A0001124222E689435F8E4CF8E3229F436FCC9
:1017B00004C1689436F8DDCF8C3619F4689437F894
:1017C000D8CF8836B1F2982F9F7D95549330E0F0B2
:1017D0008336A1F18337C1F1833509F063C0280155
:1017E000F2E04F0E511CF801C080D180692D70E0ED
:1017F00036FC02C06FEF7FEFC6010E94880E4C01DD
:10180000689437F882010AC00C5F1F4FFFE3F98329
:1018100088248394912C6501E89437F833FE2DC019
:10182000522C8114910471F5552009F468CFB70149
:1018300080E290E00E94A50E5A94F6CFF8018081D4
:1018400089830E5F1F4FE4CF2801F2E04F0E511C39
:10185000F801C080D180692D70E036FC02C06FEFC6
:101860007FEFC6010E949A0E4C018201D5CFB701CD
:1018700080E290E00E94A50E2A942814190409F031
:10188000B0F7CECFF60137FC859137FE81916F011D
:10189000B70190E00E94A50E51105A94F1E08F1A02
:1018A0009108BFCF843619F0893609F077C0F80166
:1018B00037FE6BC060817181828193810C5F1F4F05
:1018C000F32DFF763F2E97FF09C090958095709578
:1018D00061957F4F8F4F9F4F689437F82AE030E033
:1018E000A5010E94D50EC82ECA188C2C432C36FE9A
:1018F0000CC0E89440F8C91440F434FE05C032FC32
:1019000003C0F32DFE7E4F2E892C44FE95C0FE01B0
:10191000EC0DF11D8081803309F087C0242D297ED4
:10192000422E842D8870582E43FC95C040FE8FC0F7
:101930009C2C821418F42C0C922C981844FE91C004
:10194000B70180E390E00E94A50E42FE09C088E73F
:1019500090E041FE02C088E590E0B7010E94A50E2C
:10196000C91408F48AC0CA94D12C9FEFC91AD90AA5
:10197000CA0CDB1CF60182916F01B70190E00E9456
:10198000A50EAC14BD04B1F74FCF60817181072E55
:10199000000C880B990B0E5F1F4F92CFD32CE8944D
:1019A000D4F82AE030E0853739F1232D297FD22E73
:1019B0008F3601F148F48835A9F0F70186819781C7
:1019C0002B96E2E10C944F0F803749F08837A9F746
:1019D000D4FE02C06894D2F820E130E00DC06894D3
:1019E000D4F8F6CF34FE03C0822F8660D82E20E1D3
:1019F00032E002C028E030E0F801D7FE0FC060817D
:101A00007181828193810C5F1F4FA5010E94D50EC9
:101A1000C82ECA183D2CE89437F867CF60817181D1
:101A200090E080E00E5F1F4FF0CF42FC02C0839435
:101A300078CF8394839475CF842D867809F471CF01
:101A4000F6CFB70180E290E00E94A50E8394821445
:101A5000C0F3512C73CF522C5818821408F46ECF57
:101A6000F8CF842D867809F47BCF8BE241FE80E2AB
:101A700047FC8DE2B70190E071CFB70180E390E0C1
:101A80000E94A50E9A946CCF8FEF9FEF99CF0F9382
:101A90001F93CF93DF93869F8001879F100D969FA2
:101AA000100D1124C8010E94630DEC01009729F06C
:101AB000A80170E060E00E94930ECE01DF91CF910B
:101AC0001F910F9108950F931F93CF93DF9382304F
:101AD000910510F482E090E0E091A702F091A80255
:101AE00030E020E0B0E0A0E0309799F42115310516
:101AF00009F44AC0281B390B24303105D8F58A81F6
:101B00009B816115710589F1FB0193838283FE013D
:101B100011C0408151810281138148175907E0F0BB
:101B20004817590799F4109761F012960C93129781
:101B300013961C933296CF01DF91CF911F910F9195
:101B400008950093A7021093A802F4CF2115310540
:101B500051F04217530738F0A901DB019A01BD018A
:101B6000DF01F801C1CFEF01F9CF9093A802809374
:101B7000A702CDCFFE01E20FF31F81939193225074
:101B8000310939832883D7CF2091A5023091A6024D
:101B9000232B41F420910201309103013093A602DE
:101BA0002093A502209100013091010121153105FA
:101BB00041F42DB73EB74091040150910501241B1B
:101BC000350BE091A502F091A602E217F307A0F40D
:101BD0002E1B3F0B2817390778F0AC014E5F5F4F83
:101BE0002417350748F04E0F5F1F5093A60240930D
:101BF000A502819391939FCFF0E0E0E09CCFCF933B
:101C0000DF930097E9F0FC01329713821282A091D2
:101C1000A702B091A802ED0130E020E01097A1F4F6
:101C200020813181820F931F2091A5023091A6025D
:101C30002817390709F061C0F093A602E093A502C6
:101C4000DF91CF910895EA01CE17DF07E8F54A81C9
:101C50005B819E0141155105B1F7E901FB83EA83E0
:101C600049915991C40FD51FEC17FD0761F480818C
:101C700091810296840F951FE9019983888382815F
:101C800093819B838A83F0E0E0E012968D919C9192
:101C900013970097B9F52D913C911197CD010296BC
:101CA000820F931F2091A5023091A60228173907B1
:101CB00039F6309751F51092A8021092A702B0930E
:101CC000A602A093A502BCCFD383C28340815181D9
:101CD000840F951FC817D90761F44E5F5F4F888145
:101CE0009981480F591F518340838A819B81938337
:101CF00082832115310509F0B0CFF093A802E0935B
:101D0000A7029ECFFD01DC01C0CF13821282D7CF84
:101D1000FC010590615070400110D8F780959095B6
:101D20008E0F9F1F0895DC0101C06D9341505040FC
:101D3000E0F70895FC016150704001900110D8F760
:101D4000809590958E0F9F1F08950F931F93CF93AB
:101D5000DF93182F092FEB018B8181FD09C01FEF45
:101D60000FEF812F902FDF91CF911F910F91089549
:101D700082FF14C02E813F818C819D8128173907F5
:101D80003CF4E881F981CF0101969983888310831F
:101D90008E819F8101969F838E83E3CFE885F985AD
:101DA000812F0995892BA1F3DACFFA01AA272830D0
:101DB00051F1203181F1E8946F936E7F6E5F7F4F18
:101DC0008F4F9F4FAF4FB1E03ED0B4E03CD0670F94
:101DD000781F891F9A1FA11D680F791F8A1F911DE7
:101DE000A11D6A0F711D811D911DA11D20D009F437
:101DF00068943F912AE0269F11243019305D319379
:101E0000DEF6CF010895462F4770405D4193B3E061
:101E10000FD0C9F7F6CF462F4F70405D4A3318F008
:101E2000495D31FD4052419302D0A9F7EACFB4E0B9
:101E3000A6959795879577956795BA95C9F7009771
:101E40006105710508959B01AC010A2E0694579512
:101E5000479537952795BA95C9F7620F731F841F69
:101E6000951FA01D08952F923F924F925F926F92FF
:101E70007F928F929F92AF92BF92CF92DF92EF921A
:101E8000FF920F931F93CF93DF93CDB7DEB7CA1B9B
:101E9000DB0B0FB6F894DEBF0FBECDBF09942A88C6
:101EA000398848885F846E847D848C849B84AA846E
:101EB000B984C884DF80EE80FD800C811B81AA81FB
:101EC000B981CE0FD11D0FB6F894DEBF0FBECDBFC6
:101ED000ED010895A1E21A2EAA1BBB1BFD010DC046
:101EE000AA1FBB1FEE1FFF1FA217B307E407F507CA
:101EF00020F0A21BB30BE40BF50B661F771F881FA6
:101F0000991F1A9469F760957095809590959B013B
:101F1000AC01BD01CF010895EE0FFF1F0590F491B4
:101F2000E02D0994F894FFCF0000A9028000000082
:101F30000000EC024C0279023903AA0288029C02DA
:101F40000D0A005265636569766520536574757086
:101F500020496E697469616C697A656400526561D3
:101F60006444617461002E2E2E2E2E2E2E2E2E00F5
:107E0000112484B714BE81FFF0D085E080938100F7
:107E100082E08093C00088E18093C10086E0809377
:107E2000C20080E18093C4008EE0C9D0259A86E02C
:107E300020E33CEF91E0309385002093840096BBD3
:107E4000B09BFECF1D9AA8958150A9F7CC24DD24C4
:107E500088248394B5E0AB2EA1E19A2EF3E0BF2EE7
:107E6000A2D0813461F49FD0082FAFD0023811F036
:107E7000013811F484E001C083E08DD089C08234E0
:107E800011F484E103C0853419F485E0A6D080C0E4
:107E9000853579F488D0E82EFF2485D0082F10E0AE
:107EA000102F00270E291F29000F111F8ED06801E7
:107EB0006FC0863521F484E090D080E0DECF843638
:107EC00009F040C070D06FD0082F6DD080E0C81688
:107ED00080E7D80618F4F601B7BEE895C0E0D1E017
:107EE00062D089930C17E1F7F0E0CF16F0E7DF06D8
:107EF00018F0F601B7BEE89568D007B600FCFDCFD4
:107F0000A601A0E0B1E02C9130E011968C91119780
:107F100090E0982F8827822B932B1296FA010C0160
:107F200087BEE89511244E5F5F4FF1E0A038BF0790
:107F300051F7F601A7BEE89507B600FCFDCF97BE46
:107F4000E89526C08437B1F42ED02DD0F82E2BD052
:107F50003CD0F601EF2C8F010F5F1F4F84911BD097
:107F6000EA94F801C1F70894C11CD11CFA94CF0C13
:107F7000D11C0EC0853739F428D08EE10CD085E9AC
:107F80000AD08FE07ACF813511F488E018D01DD067
:107F900080E101D065CF982F8091C00085FFFCCF94
:107FA0009093C60008958091C00087FFFCCF809118
:107FB000C00084FD01C0A8958091C6000895E0E648
:107FC000F0E098E1908380830895EDDF803219F02E
:107FD00088E0F5DFFFCF84E1DECF1F93182FE3DFCA
:107FE0001150E9F7F2DF1F91089580E0E8DFEE27F6
:047FF000FF270994CA
:027FFE00040479
:00000001FF
