:1000000026C1000055C1000053C1000051C10000CD
:100010004FC100004DC100004BC1000049C10000AC
:1000200047C100000C948F130C948F130C948F1302
:100030003FC100003DC100003BC1000039C10000CC
:1000400037C1000035C1000033C1000031C10000DC
:100050002FC100002DC100002BC100000C94CD0A5F
:1000600027C100000C949C090C94730921C1000065
:100070001FC100001DC100001BC1000019C100000C
:1000800017C1000015C1000013C1000011C100001C
:100090000FC100000DC100000BC100000C94700BDB
:1000A00007C1000005C1000003C1000001C100003C
:1000B000FFC00000FDC00000FBC00000F9C0000050
:1000C000F7C00000F5C00000F3C00000F1C0000060
:1000D000EFC00000EDC00000EBC00000E9C0000070
:1000E000E7C00000150224025A0262026502800283
:1000F0009B02480357037203B603C5035D046C04F7
:10010000BF04D704E6040B090E09FD08010907091D
:100110004509120916091C09200924092A092E0972
:100120003209450938093C09400900002100240032
:1001300027002A002D0030003300010100000401D7
:1001400007010A0100000A0B02090C0D0E08070343
:10015000040100000000000000000000000000009A
:10016000000000000000000000000000000000008F
:10017000121110000000000000000000000000004C
:10018000000000000000000000000000200023002C
:10019000260029002C002F0032000001000003017E
:1001A0000601090100002200250028002B002E0076
:1001B0003100340002010000050108010B010505B2
:1001C0000505070508080808020202020A0A0808CD
:1001D00004040404010101010101010103030303FB
:1001E00003030303040707070C0C0C0C0C0C0C0C8A
:1001F0000202020206060606060606060B0B0B0B9B
:100200000B0B0B0B010210202008081020401020BF
:1002100040800201020108040201010204081020CA
:1002200040808040201008040201800402018040C8
:100230002010080402010804020101020408102031
:10024000408001020408102040808C1658171124A9
:100250001FBECFEFD1E2DEBFCDBF00E00CBF13E089
:10026000A0E0B2E0EAE0F8E300E00BBF02C00790D4
:100270000D92A038B107D9F725E0A0E8B3E001C09E
:100280001D92A038B207E1F711E0C6E2D1E000E02C
:1002900006C021970109802FFE010E94A019C532D6
:1002A000D10780E00807A9F70E940D140C94F41BF5
:1002B000A7CE8F929F92AF92BF92CF92DF92EF9292
:1002C000FF920F931F93CF93DF93CDB7DEB7E697DF
:1002D0000FB6F894DEBF0FBECDBF8091A603882372
:1002E00099F086E10E94D209892B41F486E30E94AD
:1002F000D209892B19F461E086E1D2C587E10E9419
:10030000D209892B09F4C5C580919E03811108C0CB
:100310006CE372E088E993E0D2D781E080939E039A
:100320006CE372E088E993E00E94E60C81113AC028
:1003300087E30E94D209892B41F461E088E10E94A1
:10034000FA0961E089E10E94FA0987E30E94D20973
:10035000892BB9F061E472E088E993E00E94E60C31
:10036000882319F060E089E10AC067E472E088E957
:1003700093E00E94E60C882321F060E088E10E946F
:10038000FA0988E10E94D209892B31F48EE30E9498
:10039000D209892B09F490C589E10E94D209892BE1
:1003A00009F482C580918E0390918F03A0919003F0
:1003B000B09191030196A11DB11D80938E0390937E
:1003C0008F03A0939003B0939103809186038111D2
:1003D00008C068E773E082E993E071D781E0809319
:1003E00086030E94C10A0091820310918303209129
:1003F000840330918503DC01CB01801B910BA20BA0
:10040000B30B853F9140A105B10508F4F9C2E09115
:100410008003F0918103E131F10508F0F1C28827F2
:10042000EE58FF4F8F4F0C94A01940918E035091BE
:100430008F036091900370919103CE0107960E9403
:10044000D90D6CE472E00AC00E94C10AAB01BC0184
:10045000CE0107960E94D90D64E572E0CE010196A7
:100460002ED7BE01695F7F4FCE0101960E94940D89
:100470006DE773E00E947D0DBC01CE010D9606D79D
:10048000CE010D960E94790ECE010D960E94050EAA
:10049000CE0101960E94050ECE0107960E94050E20
:1004A00080918003909181030196909381038093C2
:1004B0008003A6C262E973E0CE010796E7D66CE539
:1004C00072E0CCCF64E672E005C58AE36BD761E0E9
:1004D00070E0892B11F060E070E0CE010D960E9473
:1004E000B31086E35FD761E070E0892B11F060E024
:1004F00070E0CE0107960E94B31064E772E00CC171
:1005000082E450D761E070E0892B11F060E070E088
:10051000CE010D960E94B3108EE344D761E070E0E7
:10052000892B11F060E070E0CE0107960E94B310B5
:100530006DE772E0F1C084E435D761E070E0892BAB
:1005400011F060E070E0CE018B960E94B31080E461
:1005500029D761E070E0892B11F060E070E0CE01F6
:1005600085960E94B3108CE31DD761E070E0892B63
:1005700011F060E070E0CE014F960E94B31088E366
:1005800011D761E070E0892B11F060E070E0CE01DE
:1005900049960E94B31083E405D761E070E0892B8F
:1005A00011F060E070E0CE0143960E94B3108FE33B
:1005B000F9D661E070E0892B11F060E070E0CE01C7
:1005C0000D960E94B3108BE3EDD661E070E0892BAD
:1005D00011F060E070E0CE0107960E94B31066E86B
:1005E00072E0CE0101966BD6BE01695F7F4FCE01EE
:1005F00001960E94940DBE01635F7F4F0E94940D8F
:10060000BE016D5E7F4F0E94940DBE01675E7F4FFD
:100610000E94940DBE01615E7F4F0E94940DBE0149
:100620006B5D7F4F0E94940DBE01655D7F4F0E9400
:10063000940D6DE773E00E947D0DBC01CE01C19663
:1006400025D6CE01C1960E94790ECE01C1960E9498
:10065000050ECE0101960E94050ECE0107960E945E
:10066000050ECE010D960E94050ECE0143960E9406
:10067000050ECE0149960E94050ECE014F960E94AE
:10068000050ECE0185960E94050ECE018B9606CFF3
:100690008DE388D661E070E0892B11F060E070E0B6
:1006A000CE0107960E94B3106FE872E0D7CE8DE1BD
:1006B00079D661E070E0892B11F060E070E0CE0146
:1006C0000D960E94B3108CE16DD661E070E0892B2D
:1006D00011F060E070E0CE0107960E94B31068E967
:1006E00072E01AC081E25ED661E070E0892B11F001
:1006F00060E070E0CE010D960E94B31080E252D609
:1007000061E070E0892B11F060E070E0CE010796A7
:100710000E94B31061EA72E0CE010196D0D5BE010D
:10072000695F7F4FCE0101960E94940DBE01635F09
:100730007F4F0E94940D6DE773E00E947D0DBC0118
:10074000CE014396A3D5CE0143960E94790ECE01E9
:1007500043960E94050ECE0101960E94050ECE0121
:1007600007960E94050ECE010D9698CE84E21AD609
:1007700061E070E0892B11F060E070E0CE01079637
:100780000E94B31069EA72E069CE80E30BD661E0A3
:1007900070E0892B11F060E070E0CE0185960E9438
:1007A000B3108EE2FFD561E070E0892B11F060E0BC
:1007B00070E0CE014F960E94B3108EE0F3D561E059
:1007C00070E0892B11F060E070E0CE0149960E9444
:1007D000B3108AE2E7D561E070E0892B11F060E0A8
:1007E00070E0CE0143960E94B31088E2DBD561E051
:1007F00070E0892B11F060E070E0CE010D960E9450
:10080000B31086E2CFD561E070E0892B11F060E093
:1008100070E0CE0107960E94B31062EB72E0CE0149
:1008200001964DD5BE01695F7F4FCE0101960E94B2
:10083000940DBE01635F7F4F0E94940DBE016D5EFB
:100840007F4F0E94940DBE01675E7F4F0E94940D02
:10085000BE01615E7F4F0E94940DBE016B5D7F4FB4
:100860000E94940D6DE773E00E947D0DBC01CE01E6
:100870008B960CD5CE018B960E94790ECE018B966D
:100880000E94050ECE0101960E94050ECE0107962C
:100890000E94050ECE010D960E94050ECE014396D4
:1008A0000E94050ECE0149960E94050ECE014F967C
:1008B0000E94050ECE018596F1CD87E273D561E0E9
:1008C00070E0892B11F060E070E0CE0107960E9485
:1008D000B3106BEB72E0C2CD8091F804811102C0BD
:1008E0000E94DD0F84E10E94CA0C8C0186E10E9407
:1008F000CA0C7C0188E10E94CA0C8AE10E94CA0CE1
:100900008091FB0420E031E0281B31094CE0429F3C
:10091000C001439F900D112465E070E00E948D1985
:100920006F5F7F4F072E000C880B990BF2D50115D6
:100930001105C9F0B70180E090E00E9403186B0137
:100940007C01B80180E090E00E9403189B01AC019B
:10095000C701B6010E94F41820E030E04FE753E4ED
:100960000E94401803C060E070E0CB010E945C1957
:10097000CE0107960E94B31064EC72E06FCD6CEC70
:1009800072E0CE0101969BD4CE0101960E94790EB1
:10099000CE0101960E94050E89E304D5892B09F446
:1009A00094C28FE2FFD4892B09F48FC291C281E3F4
:1009B000F9D461E070E0892B11F060E070E0CE01C5
:1009C00007960E94B31066ED72E048CD67E773E0CA
:1009D000CE01019674D4CE0101960E94790ECE010B
:1009E00001960E94050E1092810310928003C9D5D2
:1009F00060938203709383038093840390938503B1
:100A00008CEF94E00E94F511181619060CF09DC2A7
:100A100068E773E0CE01079652D40E94821097FDDA
:100A20000EC08D35910559F089831A8241E050E05E
:100A3000BE016F5F7F4FCE010796E7D7EECF68E725
:100A400073E0CE0101963BD48B859C85892B09F4FC
:100A500012C221E030E040E050E0BE01695F7F4F0C
:100A6000CE010D960E940D0E6FED72E0CE010D9637
:100A7000ADD7182FCE010D960E94050E112309F453
:100A800001C22B853C8541E050E0BE01695F7F4F8C
:100A9000CE010D960E940D0EBE01635F7F4FCE0109
:100AA0000796E0D7CE010D960E94050E6F817885DE
:100AB0006115710539F04B855C8582E993E00E94F0
:100AC000A50D04C082E993E00E946B0D61EE72E017
:100AD000CE010D96F4D38B859C8529893A898C01AA
:100AE000021B130B2115310541F1009731F18217DB
:100AF000930718F10817190718F08C010150110914
:100B0000EF80F884CD84DE84C70188248A949924F8
:100B10009A945701A00EB11EA816B90688F0B60126
:100B20000E94DA1B009761F09C012E193F09021701
:100B3000130708F049010196EFCF0FEF1FEF01C037
:100B40008401CE010D960E94050E17FD2AC02B854B
:100B50003C85A8014F5F5F4FBE01695F7F4FCE01AB
:100B60000D960E940D0EBE01635F7F4FCE01019670
:100B700079D7CE010D960E94050E980140E050E015
:100B8000BE01695F7F4FCE010D960E940D0EBE0122
:100B9000635F7F4FCE01079665D7CE010D960E9409
:100BA000050E63EE72E0CE01079610D7882369F038
:100BB000CE0101960E94781021E0672B682B692BEB
:100BC00009F020E0622F8AE113C06BEE72E0CE01E3
:100BD0000796FCD6882371F0CE0101960E9478100A
:100BE00021E0672B682B692B09F020E0622F8EE152
:100BF00001D426C163EF72E0CE010796E7D68823C1
:100C000069F0CE0101960E94781021E0672B682BD5
:100C1000692B09F020E0622F8FE1EACF6BEF72E0E1
:100C2000CE010796D3D6882369F0CE0101960E94A3
:100C3000781021E0672B682B692B09F020E0622FE8
:100C400082E2D6CF63E073E0CE010796BFD6882359
:100C500069F0CE0101960E94781021E0672B682B85
:100C6000692B09F020E0622F85E2C2CF6BE073E0D0
:100C7000CE010796ABD6882369F0CE0101960E947B
:100C8000781021E0672B682B692B09F020E0622F98
:100C900083E3AECF63E173E0CE01079697D6882356
:100CA00031F160E082E3A6D360E084E3A3D360E0A7
:100CB00083E2A0D3CE0101960E94781061307105C5
:100CC0008105910519F461E082E392CF62307105EC
:100CD0008105910519F461E084E38ACF63307105E1
:100CE0008105910509F0ACC061E083E281CF6BE141
:100CF00073E0CE0107966AD6882369F0CE0101968B
:100D00000E94781021E0672B682B692B09F020E006
:100D1000622F87E06DCF63E273E0CE01079656D66F
:100D2000882369F0CE0101960E94781021E0672B9C
:100D3000682B692B09F420E0622F8BE259CF6BE21C
:100D400073E0CE01079642D6882331F0CE0101969A
:100D50000E94781089E24CCF63E373E0CE010796DE
:100D600035D6882399F0CE0101960E947810672B22
:100D7000682B692B09F05BC08AE314D3892B09F433
:100D800056C061E086E136D360E0B6C06BE373E045
:100D9000CE0107961BD6882349F061E086E12AD36D
:100DA00061E087E127D31092A6034AC066E473E0AE
:100DB000CE0107960BD6882379F0CE0101960E94CA
:100DC0007810672B682B692B09F09CC082E4EAD26B
:100DD000892B09F0AEC096C06EE473E0CE01079691
:100DE000F5D5882349F061E088E104D361E089E129
:100DF00001D36CE372E0A5C069E573E0CE010D9606
:100E00005ED262E973E0CE010D968ED66FE573E097
:100E100074D6BC01CE01439639D2CE01439669D730
:100E2000CE014396F2D6CE010D96EFD624C0CE0168
:100E300001960E947810672B682B692B09F053C02C
:100E400069E573E0CE010D963AD262E973E0CE0116
:100E50000D966AD66CE673E050D6BC01CE0143967F
:100E600015D2CE01439645D7CE014396CED6CE01BC
:100E70000D96CBD607C0CE010196C7D6CE010796F8
:100E8000C4D663C0CE010196C0D6CE010796BDD6AA
:100E9000BFCD8AE387D2892B09F036CA61E087E1AA
:100EA000A9D21092A60330CA82E47CD2892B09F021
:100EB00079CA61E089E102C061E088E19BD26CE31C
:100EC00072E088E993E060D66DCA69E773E002C01A
:100ED0006CE773E0CE010196F2D1CE01019609D7FD
:100EE000CE010196DBCA86E35DD2892B09F4A8CF37
:100EF00060E086E17FD261E087E17CD281E080938F
:100F0000A6039ECFCE0101960E947810672B682B16
:100F1000692B09F495CF8EE345D2892B09F490CF44
:100F200060E088E167D261E089E164D267E472E061
:100F300008C061E088E15ED260E089E15BD261E4F3
:100F400072E088E993E020D67BCFE6960FB6F8945E
:100F5000DEBF0FBECDBFDF91CF911F910F91FF90EC
:100F6000EF90DF90CF90BF90AF909F908F900895BB
:100F70000895CF92DF92EF92FF920F931F93CF933A
:100F8000DF936C017A018B01C0E0D0E0CE15DF0564
:100F900081F0D8016D918D01D601ED91FC91019008
:100FA000F081E02DC6011995892B11F02196EECF25
:100FB0007E01C701DF91CF911F910F91FF90EF90BC
:100FC000DF90CF900895FC01538D448D252F30E0A4
:100FD000842F90E0821B930B541710F0CF96089546
:100FE00001970895FC01918D828D981761F0828D93
:100FF000DF01A80FB11D5D968C91928D9F5F9F734D
:10100000928F90E008958FEF9FEF0895FC01918DEE
:10101000828D981731F0828DE80FF11D858D90E05B
:1010200008958FEF9FEF0895FC01918D228D892FF8
:1010300090E0805C9F4F821B91098F7399270895E0
:101040008DE494E0F1DF21E0892B09F420E0822F88
:101050000895FC01848DDF01A80FB11DA35ABF4F75
:101060002C91848D90E001968F739927848FA689A7
:10107000B7892C93A089B1898C91837080648C93FB
:10108000938D848D981306C00288F389E02D8081AA
:101090008F7D80830895EF92FF920F931F93CF93DC
:1010A000DF93EC0181E0888F9B8D8C8D981305C0B8
:1010B000E889F989808185FD25C0F62E0B8D10E029
:1010C0000F5F1F4F0F731127E02E8C8DE8120BC09E
:1010D0000FB607FCFACFE889F989808185FFF5CF43
:1010E000CE01B7DFF2CF8B8DFE01E80FF11DE35A81
:1010F000FF4FF0829FB7F8940B8FEA89FB898081BC
:1011000080620AC09FB7F894EE89FF896083E889FE
:10111000F98980818370806480839FBF81E090E043
:10112000DF91CF911F910F91FF90EF900895CF9392
:10113000DF93EC01888D8823C1F0EA89FB898081E7
:1011400085FD05C0A889B9898C9186FD0EC00FB6B2
:1011500007FCF5CF808185FFF2CFA889B9898C91F2
:1011600085FFEDCFCE0175DFE8CFDF91CF910895F8
:1011700080E090E0892B19F063DF811125C080E0C9
:1011800090E0892B41F080E090E0892B21F00E94D3
:10119000000081111CC080E090E0892B41F080E0CC
:1011A00090E0892B21F00E940000811113C080E0A3
:1011B00090E0892BA1F080E090E0892B81F00E94E3
:1011C000000081110AC008950E940000D8CF0E943B
:1011D0000000E1CF0E940000EACF0C9400000895C7
:1011E00090E0FC013197E231F10508F04EC088270C
:1011F000ED57FF4F8F4F0C94A019809180008F778F
:1012000003C0809180008F7D80938000089580913D
:101210008000877FF9CF84B58F7702C084B58F7D3A
:1012200084BD08958091B0008F7703C08091B00095
:101230008F7D8093B0000895809190008F7707C0D4
:10124000809190008F7D03C080919000877F809374
:10125000900008958091A0008F7707C08091A00032
:101260008F7D03C08091A000877F8093A0000895A8
:10127000809120018F7707C0809120018F7D03C06E
:1012800080912001877F809320010895FB01DC017C
:1012900011961C921E9213961C921E9212971596EE
:1012A0001C921E9214978617970741F060817181F6
:1012B0006115710519F04481558147C40895FC01F9
:1012C00011821082138212821582148261157105B7
:1012D00049F0FB0101900020E9F73197AF01461B6F
:1012E000570B33C408951F920F920FB60F9211241B
:1012F0000BB60F922F933F934F935F936F937F9310
:101300008F939F93AF93BF93EF93FF938DE494E0FC
:10131000A0DEFF91EF91BF91AF919F918F917F914F
:101320006F915F914F913F912F910F900BBE0F9056
:101330000FBE0F901F9018951F920F920FB60F922D
:1013400011240BB60F922F938F939F93EF93FF93DC
:10135000E0915D04F0915E048081E0916304F0917E
:10136000640482FD12C09081809166048F5F8F7348
:1013700020916704821751F0E0916604F0E0E35B8E
:10138000FB4F958F8093660401C08081FF91EF91A0
:101390009F918F912F910F900BBE0F900FBE0F90CA
:1013A0001F901895CF93DF93282F30E0F901EC5B65
:1013B000FE4F8491F901EC5FFD4FD491F901E254A5
:1013C000FE4FC491CC2389F081110ADFEC2FF0E0AD
:1013D000EE0FFF1FE657FE4FA591B491EC91ED2360
:1013E00081E090E021F480E002C080E090E0DF91B5
:1013F000CF9108951F93CF93DF93282F30E0F90109
:10140000EC5BFE4F8491F901EC5FFD4FD491F90143
:10141000E254FE4FC491CC23B9F0162F8111E0DEC7
:10142000EC2FF0E0EE0FFF1FEC55FE4FA591B491AD
:101430009FB7F894111104C08C91D095D82302C0A5
:10144000EC91DE2BDC939FBFDF91CF911F9108952C
:10145000CF93DF9390E0FC01EC5FFD4F2491FC0102
:10146000E254FE4F8491882361F190E0880F991F28
:10147000FC01E65DFE4FC591D491FC01EC55FE4F99
:10148000A591B491611109C09FB7F8948881209506
:1014900082238883EC912E230BC0623061F49FB7C6
:1014A000F8948881322F309583238883EC912E2BFA
:1014B0002C939FBF06C08FB7F894E8812E2B28830A
:1014C0008FBFDF91CF9108953FB7F8948091EF03DC
:1014D0009091F003A091F103B091F20326B5A89B7F
:1014E00005C02F3F19F00196A11DB11D3FBFBA2FB6
:1014F000A92F982F8827820F911DA11DB11DBC0116
:10150000CD0142E0660F771F881F991F4A95D1F7DA
:1015100008958F929F92AF92BF92CF92DF92EF92F7
:10152000FF926B017C01D0DF4B015C01C114D1043F
:10153000E104F104E9F0C8DFDC01CB018819990965
:10154000AA09BB09883E9340A105B10578F321E0C3
:10155000C21AD108E108F10888EE880E83E0981ECF
:10156000A11CB11CC114D104E104F10421F7DECFA8
:10157000FF90EF90DF90CF90BF90AF909F908F90B3
:1015800008952FB7F8946091EB037091EC0380916C
:10159000ED039091EE032FBF08951F920F920FB6A7
:1015A0000F9211242F933F938F939F93AF93BF93E9
:1015B0008091EB039091EC03A091ED03B091EE03C9
:1015C0003091EA0323E0230F2D3720F40196A11D6B
:1015D000B11D05C026E8230F0296A11DB11D209361
:1015E000EA038093EB039093EC03A093ED03B09395
:1015F000EE038091EF039091F003A091F103B0917D
:10160000F2030196A11DB11D8093EF039093F003A7
:10161000A093F103B093F203BF91AF919F918F918B
:101620003F912F910F900FBE0F901F901895FF9232
:101630000F931F93CF93DF93EC018A01F22E8981E0
:101640009A81DC01ED91FC910280F381E02D1995E6
:101650000817190731F46F2D89819A8175D791E0A8
:10166000811190E0892FDF91CF911F910F91FF9011
:101670000895CF93DF93EC018B8181111CC01092F0
:1016800028041092270410924A0410924904E7D6C5
:1016900085E091E19093FA038093F90386E091E16C
:1016A0009093F8038093F70381E08B83CE01E1DF11
:1016B000982F882389F0888191E090934C0480933F
:1016C0004B0410924A041092490461E089819A8186
:1016D0003BD791E0811190E0892FDF91CF91089560
:1016E0001F920F920FB60F9211240BB60F922F93E9
:1016F0003F934F935F936F937F938F939F93AF939A
:10170000BF93EF93FF938091B900887F803609F4EF
:101710009CC068F5883209F45BC090F4803109F40C
:1017200054C038F4882309F4F6C0883009F44DC059
:10173000F5C0883109F44CC0803209F45DC0EEC0B8
:10174000803409F468C048F4803309F455C0883304
:1017500009F0E4C080931F04D8C0803509F44FC05D
:10176000883509F45DC0883409F0D8C0D6C08839FE
:1017700009F4C7C0A8F4883709F467C038F488367C
:1017800009F463C0803709F460C0C8C0883809F420
:10179000B8C0803909F45FC0803809F0BFC05BC0B1
:1017A000803B09F486C038F4803A09F466C0883A70
:1017B00009F47FC0B3C0803C09F4A7C0883C09F499
:1017C000A4C0883B09F48AC0A9C080911C0410C041
:1017D00090911E0480911D04981770F5E0911E04ED
:1017E00081E08E0F80931E04F0E0E550FC4F808175
:1017F0008093BB0085EC86C080931F048EC0E0916F
:101800001E0481E08E0F80931E048091BB00F0E0E7
:10181000E550FC4F808390911E0480911D046EC0A2
:10182000E0911E0481E08E0F80931E048091BB0026
:10183000F0E0E550FC4F80838091200481116DC061
:1018400081E080931B0484EA61C083E080932104DB
:101850001092E903CFCF8091E903803208F051C0A4
:10186000E091E90381E08E0F8093E9038091BB0052
:10187000F0E0E753FC4F8083BDCF85EC8093BC0044
:10188000109221048091E903803230F4E091E90361
:10189000F0E0E753FC4F10826091E90370E0E091C3
:1018A000F703F091F80389EC93E019951092E9039E
:1018B00035C084E0809321041092C8031092C703BE
:1018C000E091F903F091FA0319958091C703811112
:1018D00005C081E08093C7031092A703E091C8037D
:1018E00081E08E0F8093C803F0E0E955FC4F8081C2
:1018F0008093BB009091C8038091C703981708F4A8
:1019000079CF85E88093BC0009C085EC8093BC004A
:101910001092210403C010921F04DFD5FF91EF91B4
:10192000BF91AF919F918F917F916F915F914F91F7
:101930003F912F910F900BBE0F900FBE0F901F90F5
:1019400018950E94BD1B0F931F93CF93DF93EC015B
:1019500088819981009729F02A813B8126173707D2
:1019600088F48B016F5F7F4F0E94DD1A009761F052
:10197000998388831B830A832C813D81232B11F457
:10198000FC01108281E001C080E0DF91CF911F91C6
:101990000F910895CF93DF931F921F92CDB7DEB7BB
:1019A0001A8219828068898322E030E0AE014F5F9D
:1019B0005F4FBA018091F6049091F704ACD1898110
:1019C0009A810F900F90DF91CF910895FC012481AF
:1019D0003581232B31F421E061157105A1F0FB0164
:1019E00008C0FC01808191816115710531F421E00D
:1019F000FC018081882339F005C00E94CA1B21E0C8
:101A0000892B09F020E0822F0895EF92FF920F9327
:101A10001F93CF93DF936115710511F480E01BC014
:101A200041155105B9F07B01EC018C819D818A0142
:101A3000080F191FB801CE0186DF882379F32881AA
:101A400039818C819D81B701820F931F0E94D31B26
:101A50001D830C8381E0DF91CF911F910F91FF9047
:101A6000EF9008950F931F93CF93DF938C01EB01B9
:101A7000FC01808191810097B1F0688179816115C5
:101A8000710579F0428153812C813D8142175307C2
:101A900040F00E94D31B8C819D81F8019583848343
:101AA00013C00E94541A88819981F8019183808320
:101AB0008A819B81938382838C819D81958384839A
:101AC000198218821B821A821D821C82DF91CF919B
:101AD0001F910F910895CF93DF93EC018881998135
:101AE000009711F00E94541A198218821D821C82DC
:101AF0001B821A82DF91CF910895CF93DF93EC017F
:101B00006115710559F0FB0101900020E9F731974B
:101B1000AF01461B570B79DF811102C0CE01DBDF1D
:101B2000CE01DF91CF910895CF93DF93EC01FB01BC
:101B3000448155816081718168DF811102C0CE01CD
:101B4000CADFCE01DF91CF910895EF92FF920F93FC
:101B50001F93CF93DF93EC017B018A01BA01F3DE7F
:101B6000811103C0CE01B7DF07C01D830C83B7010D
:101B7000888199810E94D31BCE01DF91CF911F9163
:101B80000F91FF90EF900895CF93DF93EC016115D3
:101B9000710551F0FB0101900020E9F73197AF0189
:101BA000461B570BD2DF01C096DFCE01DF91CF91EC
:101BB00008950F931F93CF93DF93CDB7DEB7A1970F
:101BC0000FB6F894DEBF0FBECDBF8C01CB01BA01BA
:101BD000F8011182108213821282158214822AE087
:101BE000AE014F5F5F4F0E94B917BE016F5F7F4F1D
:101BF000C801CADFA1960FB6F894DEBF0FBECDBFF5
:101C0000DF91CF911F910F910895FC018081918107
:101C1000009711F00C94541A0895BF92CF92DF925E
:101C2000EF92FF920F931F93CF93DF937C016B0191
:101C30008A01E9012417350720F4812F8901C42F77
:101C4000D82F68E773E0C7013ADBD60114968D916F
:101C50009C91159708171907C0F48C179D0708F475
:101C6000EC01D601ED91FC911197EC0FFD1FB080B6
:101C700010826D917C91600F711FC70185DFD601C5
:101C8000ED91FC91EC0FFD1FB082C701DF91CF9168
:101C90001F910F91FF90EF90DF90CF90BF9008952C
:101CA000CF93DF931F921F92CDB7DEB780688983F1
:101CB0006A838091F6049091F704FC0124813581B8
:101CC0002230310588F0208131E030934C0420939C
:101CD0004B0410924A041092490421E042E050E083
:101CE000BE016F5F7F4FA3DC0F900F90DF91CF910C
:101CF0000895CF93DF93EC0161E08AE07BDB4C81B8
:101D00005D81688179818CEF94E033D960E08AE06D
:101D1000DF91CF916FCB2F923F924F925F926F9254
:101D20007F928F929F92AF92BF92CF92DF92EF926B
:101D3000FF920F931F93CF93DF9300D0CDB7DEB701
:101D4000DC011496ED91FC911597EF2B09F419C164
:101D500069011A019B838A83FC01808191E0909341
:101D60004C0480934B0410924A041092490420E0E2
:101D700041E050E0CD015BDCE82E882309F401C18D
:101D800000E010E0882483940C151D0508F0FEC0C7
:101D9000AA81BB8114968D919C9115975601A01A2A
:101DA000B10A8A159B0508F45C01EA81FB81F08188
:101DB000F9838ADB2B013C0190902104992029F1C1
:101DC0008091230490912404A0912504B0912604CD
:101DD000892B8A2B8B2B81F377DB20912304309185
:101DE00024044091250450912604DC01CB01841980
:101DF0009509A609B709281739074A075B07E0F6CE
:101E0000809122044AD3912C98C0FA2C80E28A1542
:101E100010F480E2F82E8092210421E0C6018A1994
:101E20009B090817190708F420E020932004AFEF5E
:101E3000A0931F0410921E048FEF8F0D80931D043A
:101E400080921C0480911C049981990F892B8093A6
:101E50001C0480911B04813089F510921B0434DB33
:101E60002B013C0180911C048093BB0080912304D2
:101E700090912404A0912504B0912604892B8A2BEB
:101E80008B2BA1F021DB209123043091240440917D
:101E9000250450912604DC01CB0184199509A6097B
:101EA000B709281739074A075B0790F18091BC00F2
:101EB00083FDD8CFB5ECB093BC0003C0E5EEE09352
:101EC000BC0002DB2B013C0180912104813021F513
:101ED0008091230490912404A0912504B0912604BC
:101EE000892B8A2B8B2B81F3EFDA209123043091FD
:101EF00024044091250450912604DC01CB0184196F
:101F00009509A609B709281739074A075B07E0F6BC
:101F100080912204C2D211C080911E048F1510F44A
:101F2000F0901E04EBEFF3E0A9E2B4E0912C9F14D3
:101F300021F081918D939394FACF1092280490927E
:101F40002704692C712C6A147B04D9F42101400EFA
:101F5000511E5201C501841995098615970598F4FB
:101F6000AA81BB8111968D919C911297DC01ED9114
:101F7000FC910284F385E02D1995F50181935F01B1
:101F8000E9CFE12C03C0060D171DFECE8E2D0F905C
:101F90000F900F90DF91CF911F910F91FF90EF90D5
:101FA000DF90CF90BF90AF909F908F907F906F9079
:101FB0005F904F903F902F900895FF920F931F9343
:101FC000CF93DF931F92CDB7DEB78091F604909147
:101FD000F704009711F00E94541A86E090E00E94E6
:101FE000BC198C0189E2F80180838AEE94E0928327
:101FF0008183138280E290E0958384831093F704B9
:102000000093F604109228041092270410924A04B8
:102010001092490424D285E091E19093FA038093D1
:10202000F90386E091E19093F8038093F70381E050
:10203000F8018383C8011DDB182F811102C010E055
:102040004FC082E9898321E030E0AE014F5F5F4FEE
:10205000BA018091F6049091F7045DDE89818D3498
:1020600021F0843411F0803151F781E08093F8043D
:102070000091FB04602F14DE0093FB040091F9042F
:10208000F090FA048091F804811101C096DF602F6E
:102090008FE006DE0093F904F092FA0461E080E03C
:1020A000FFDD63E070E080E090E033DA63E080E041
:1020B000F7DD8091FB0420E031E0281B31094CE082
:1020C000429FC001439F900D112465E070E00E9483
:1020D0008D196F5F7F4F072E000C880B990B19DA53
:1020E000812F0F90DF91CF911F910F91FF90089555
:1020F000FC0180819181009709F0F6C660E070E0F4
:10210000CB0108950F931F933CDA609304057093FD
:10211000050580930605909307058CEF94E07BD12D
:1021200097FF1EC02EDA009104051091050520913D
:10213000060530910705DC01CB01801B910BA20B3A
:10214000B30B00910005109101052091020530911B
:10215000030580179107A207B307F8F28FEF9FEFEF
:102160001F910F9108950F931F93CF93DF93CDB7D6
:10217000DEB762970FB6F894DEBF0FBECDBF8C01FD
:10218000CB01F8011182108213821282158214820F
:102190004AE0BE016F5F7F4FCDD6BE016F5F7F4FBC
:1021A000C801F2DC62960FB6F894DEBF0FBECDBF59
:1021B000DF91CF911F910F9108954091C703262F72
:1021C00030E0240F311D21323105DCF4209121044F
:1021D0002430C9F4FC0180E090E0861758F4309177
:1021E000C7032191DC01A955BC4FA30FB11D2C934E
:1021F0000196F3CF8091C703680F6093C70380E017
:10220000089581E0089582E008950895089508955D
:10221000E091280480912704E81730F4F0E0E75DAE
:10222000FB4F808190E008958FEF9FEF089590918C
:10223000280480912704981750F4E92FF0E0E75D17
:10224000FB4F208130E09F5F9093280402C02FEF66
:102250003FEFC90108958091270490E02091280460
:10226000821B91090895CF92DF92EF92FF920F9314
:102270001F93CF93DF937C01CB018A0120914C0403
:10228000222389F0EB016B01C40ED51ECC15DD05B0
:1022900061F06991D701ED91FC910190F081E02D01
:1022A000C7011995F3CF642F88DFC801DF91CF9163
:1022B0001F910F91FF90EF90DF90CF900895CF93F3
:1022C000DF931F92CDB7DEB7698320914C042223A0
:1022D000D1F020914904203240F021E030E0FC01AF
:1022E0003383228380E090E014C080914A04E82F79
:1022F000F0E0E55AFA4F998190838F5F80934A040A
:102300008093490404C061E0CE01019656DF81E06C
:1023100090E00F90DF91CF9108952091F5033091D7
:10232000F6032817390771F49091F3038091F403B1
:10233000981741F0E091F303F0E0E55EFA4F8081F9
:1023400090E008958FEF9FEF08951F93CF93DF9351
:10235000DC015C968D919C915D97009739F421E0AA
:1023600030E013963C932E9312973BC05196ED911B
:10237000FC91529750962C915097322F30951FB761
:102380005E964C915E97742F727041FD6095F89443
:102390004081772311F0422B01C043234083EC019D
:1023A0002197F1F748E0508160FF02C0522B01C035
:1023B00053235083EC012197F1F76695415099F72B
:1023C0008081772319F08323808302C0282B208308
:1023D0001FBF5C968D919C915D970197F1F781E00D
:1023E00090E0DF91CF911F9108952091F5033091F6
:1023F000F6032817390761F48091F4032091F30361
:1024000090E0805C9F4F821B91098F7399270895FC
:1024100080E090E008952091F5033091F6032817AD
:102420003907B9F49091F3038091F403981789F078
:10243000E091F303F0E0E55EFA4F80812091F30331
:1024400030E02F5F3F4F2F7333272093F30390E04B
:1024500008958FEF9FEF089580E090E00895109227
:10246000210481E08093200410921B0461E084E148
:102470000E94FA0961E085E10E94FA09E9EBF0E0C7
:1024800080818E7F808380818D7F808388E48093AC
:10249000B80085E48093BC000895CF93DF9391E06A
:1024A00090937B058823B1F0C091B800D091BA0019
:1024B0008091BC008A7B8093BC0060E084E10E9434
:1024C000FA0960E085E10E94FA09C9DFD093BA00F9
:1024D000C093B800DF91CF91089585ED8093BC0043
:1024E0008091230490912404A0912504B0912604A6
:1024F0000796A11DB11D23E0B695A79597958795E1
:102500002A95D1F72091BC0024FF1BC040912304E1
:10251000509124046091250470912604452B462B8C
:10252000472B81F30097A105B10541F02AE22A95D6
:10253000F1F700C00197A109B109E4CF809122040D
:10254000ACCF1092210408958F929F92AF92BF92C8
:10255000CF92DF92EF92FF920F931F93CF93DF936F
:1025600010914904113208F0C1C0062FD0914B04DC
:102570000E94640A6B017C01C0912104CC2311F1FB
:102580008091230490912404A0912504B091260405
:10259000892B8A2B8B2B81F30E94640A8090230461
:1025A00090902404A0902504B0902604DC01CB0177
:1025B0008C199D09AE09BF0988169906AA06BB06A3
:1025C000D8F681C082E080932104009320048FEF2D
:1025D00080931F0410921E0410931D04ABE5B5E018
:1025E000EBEFF3E080E0181721F09D9191938F5F5E
:1025F000FACF10921C0490911C048D2F880F892B08
:1026000080931C0480911B04813089F510921B0477
:102610000E94640A6B017C0180911C048093BB00C2
:102620008091230490912404A0912504B091260464
:10263000892B8A2B8B2BA9F00E94640A009123041A
:10264000109124042091250430912604DC01CB0153
:102650008C199D09AE09BF09081719072A073B07FE
:1026600090F18091BC0083FDD7CF85EC01C085EE51
:102670008093BC000E94640A6B017C01809121045C
:10268000823031F58091230490912404A091250497
:10269000B0912604892B8A2B8B2B81F30E94640A2C
:1026A00000912304109124042091250430912604E4
:1026B000DC01CB018C199D09AE09BF090817190768
:1026C0002A073B07D8F680912204E7DEC5E013C055
:1026D00080911F048F3F79F080911F04803241F078
:1026E00080911F04803331F0C4E005C0C1E003C015
:1026F000C2E001C0C3E010924A0410924904109253
:102700004C048C2FDF91CF911F910F91FF90EF9090
:10271000DF90CF90BF90AF909F908F9008951F92C1
:102720000F920FB60F9211240BB60F922F933F9377
:102730004F935F936F937F938F939F93AF93BF93C9
:10274000EF93FF93E091F503F091F603309709F4CE
:1027500051C0968DA685B785858591FF04C09C9153
:10276000892329F447C09C91892309F043C0A38998
:10277000B4899C918589809589238C9386899789D2
:102780000197F1F7608D718DA685B785558538E085
:1027900020E0CB010197F1F7822F90E09595879586
:1027A000282F4C91452309F02068315091F7868DF0
:1027B00081FD20958091F40390E001968F73992715
:1027C0003091F303381749F0A091F403B0E0A55E0F
:1027D000BA4F2C938093F40303C0868D8160868F5B
:1027E000828D938D0197F1F7A389B4899C91858996
:1027F000892B8C93FF91EF91BF91AF919F918F9116
:102800007F916F915F914F913F912F910F900BBEF0
:102810000F900FBE0F901F901895CF93DF9300D0AD
:1028200000D0CDB7DEB7789484B5826084BD84B51E
:10283000816084BD85B5826085BD85B5816085BDBB
:1028400080916E00816080936E0010928100809173
:1028500081008260809381008091810081608093FB
:102860008100809180008160809380008091B10020
:1028700084608093B1008091B00081608093B0004B
:10288000809191008260809391008091910081609D
:10289000809391008091900081608093900080915E
:1028A000A10082608093A1008091A100816080934B
:1028B000A1008091A00081608093A00080912101FF
:1028C00082608093210180912101816080932101A8
:1028D0008091200181608093200180917A00846042
:1028E00080937A0080917A00826080937A00809150
:1028F0007A00816080937A0080917A00806880936A
:102900007A001092C100E0915D04F0915E0482E0D3
:102910008083E0915904F0915A041082E0915B04A5
:10292000F0915C048FEC808310926504E091610467
:10293000F091620486E08083E0915F04F09160048E
:10294000808180618083E0915F04F09160048081E8
:1029500088608083E0915F04F091600480818068EA
:102960008083E0915F04F091600480818F7D80839B
:102970001092170510921605109215051092140565
:10298000109213051092120582E490E090931905BD
:10299000809318058091080596EF980F943048F0C1
:1029A0002EEC280F243028F022EC280F283008F0D5
:1029B00072C02FE030E0309313052093120520E41D
:1029C00030E0309315052093140527E230E0309372
:1029D000170520931605943060F02EEC280F243054
:1029E00040F022EC280F283008F08EC1A8E6B0E0B5
:1029F0008DC1A8E6B0E0E8E6F0E02081943048F030
:102A00009EEC980F943028F08E53883010F484E0B8
:102A100001C081E0822B8C938091080596EF980F7E
:102A2000943058F02EEC280F243038F022EC280F88
:102A3000283030F020E030E005C02BE630E002C066
:102A40002DE630E03093100520930F05943010F4FC
:102A50009AEF0BC0823381F0833381F0843381F0AD
:102A600092EC980F983070F492EC980F81E001C0CE
:102A7000880F9A95EAF707C088E005C084E003C094
:102A800082E001C081E0809311058091180590914A
:102A900019050197F1F78091160590911705892B7B
:102AA00049F1E091F503F091F60384E0EC3FF8077B
:102AB00009F1309739F0A389B4899C918589809573
:102AC00089238C9380911A058E7F80931A0510922A
:102AD000F4031092F3038CEF94E09093F603809349
:102AE000F503E0910F05F09110059081809111059B
:102AF000892B808388EC90E0A0E0B0E08093000513
:102B000090930105A0930205B093030561E08AE06C
:102B10000E94280A60E08AE00E94FA0967E773E0F1
:102B2000CE0101960E945F09CE010196E2D8CE0146
:102B300001966BD842DA61E086E10E94280A61E0E2
:102B400086E10E94FA0961E087E10E94280A61E0BB
:102B500087E10E94FA0962E086E30E94280A62E0A7
:102B60008AE30E94280A61E088E10E94280A61E065
:102B700088E10E94FA0961E089E10E94280A61E087
:102B800089E10E94FA0962E08EE30E94280A62E06D
:102B900082E40E94280A62E087E30E94280A62E039
:102BA0008BE30E94280A62E08FE30E94280A62E019
:102BB00083E40E94280A62E088E30E94280A62E017
:102BC0008CE30E94280A62E080E40E94280A62E006
:102BD00084E40E94280A61E082E00E94280A60E002
:102BE00082E00E94FA0961E08AE10E94280A61E01D
:102BF0008AE10E94FA0962E08DE30E94280A62E0FD
:102C000089E30E94280A62E08CE10E94280A62E0BF
:102C10008DE10E94280A61E08EE10E94280A61E0AD
:102C20008EE10E94FA0961E08FE10E94280A61E0CA
:102C30008FE10E94FA0962E080E20E94280A62E0C5
:102C400081E20E94280A61E082E20E94280A61E093
:102C500082E20E94FA0962E084E20E94280A62E0AD
:102C600086E20E94280A62E088E20E94280A62E066
:102C70008AE20E94280A62E08EE00E94280A62E04E
:102C80008EE20E94280A62E080E30E94280A61E046
:102C900082E30E94280A61E084E30E94280A61E03E
:102CA00083E20E94280A61E085E20E94280A61E02E
:102CB00085E20E94FA0962E087E20E94280A61E048
:102CC00089E20E94280A61E08BE20E94280A61E002
:102CD00087E00E94280A61E087E00E94FA0962E02A
:102CE0008FE20E94280A61E083E30E94280A61E0E3
:102CF00083E30E94FA0962E081E30E94280A0E94AD
:102D000059010E94B808FBCFA0E0B0E0283008F4D9
:102D100072CEE0E0F0E071CE1092500410924F04B9
:102D200088EE93E0A0E0B0E08093510490935204C9
:102D3000A0935304B09354042AE032E030934E043D
:102D400020934D0425EC30E030935A04209359042D
:102D500024EC30E030935C0420935B0420EC30E002
:102D600030935E0420935D0421EC30E030936004E6
:102D700020935F0422EC30E03093620420936104DE
:102D800026EC30E0309364042093630410926604D0
:102D90001092670410926804109269041092ED0476
:102DA0001092EC048093EE049093EF04A093F0044F
:102DB000B093F1042CE132E03093EB042093EA0469
:102DC0001092FF041092FE04809300059093010579
:102DD000A0930205B09303058EE292E09093FD0468
:102DE0008093FC04109213051092120510921505A1
:102DF00010921405109217051092160510921905DD
:102E00001092180560911A056E7F6D7F60931A0508
:102E10006695617081E068278BE00E94FA0961E0A5
:102E20008BE00E94280AEFE0F2E0E491E0930C05C9
:102E3000E9ECF1E0E491F0E0EE0FFF1FEC55FE4FFE
:102E40008591949190930E0580930D0560E08CE040
:102E50000E94280A80911A0581FD04C061E08CE07F
:102E60000E94FA098CE080930805E0E1F2E0E49129
:102E7000E0930905EAECF1E0E491F0E0EE0FFF1FCA
:102E8000E657FE4F8591949190930B0580930A0528
:102E90001092F7041092F6041092F8048BEE8093CF
:102EA000FB0482E090E09093FA048093F904089583
:102EB0008EE292E09093FD048093FC048091F503F0
:102EC0009091F6038C5F944071F4E0910F05F091BE
:102ED000100590818091110580958923808310923F
:102EE000F6031092F50308951F93FC019927882794
:102EF000BC01E89411911032E9F3193010F01E3042
:102F0000C8F31B3249F01D3241F4689405C01CD04F
:102F1000610F711D811D911D119110531A30B8F36D
:102F20003EF490958095709561957F4F8F4F9F4FA0
:102F30001F910895BB274A3031F4992322F4BDE252
:102F4000909581959F4F37C0592F482F372F262FA7
:102F5000660F771F881F991F660F771F881F991F9D
:102F6000620F731F841F951F660F771F881F991F9D
:102F70000895BB27FA01A62F6217710581059105F7
:102F8000330B30FB66F0AA27660F771F881F991F47
:102F9000AA1FA21710F0A21B63953850A9F7A05DD5
:102FA000AA3308F0A95DA19336F7B111B19310824D
:102FB000CA0119C0BB27FB015527AA27880F991FF3
:102FC000AA1FA41710F0A41B83955051B9F7A05D58
:102FD000AA3308F0A95DA193009779F7B111B193D5
:102FE0001192CB0100C0DC01FC01672F71917723A6
:102FF000E1F7329704C07C916D9370836291AE17B4
:10300000BF07C8F30895E89409C097FB3EF4909574
:103010008095709561957F4F8F4F9F4F9923A9F0B1
:10302000F92F96E9BB279395F69587957795679540
:10303000B795F111F8CFFAF4BB0F11F460FF1BC084
:103040006F5F7F4F8F4F9F4F16C0882311F096E917
:1030500011C0772321F09EE8872F762F05C06623C5
:1030600071F096E8862F70E060E02AF09A95660F7E
:10307000771F881FDAF7880F9695879597F9089537
:103080000BD078C069D028F06ED018F0952309F0E5
:103090005AC05FC01124A2C07ED0A0F3959FD1F387
:1030A000950F50E0551F629FF001729FBB27F00DF6
:1030B000B11D639FAA27F00DB11DAA1F649F66274B
:1030C000B00DA11D661F829F2227B00DA11D621F9A
:1030D000739FB00DA11D621F839FA00D611D221F54
:1030E000749F3327A00D611D231F849F600D211D38
:1030F000822F762F6A2F11249F5750408AF0E1F0DB
:1031000088234AF0EE0FFF1FBB1F661F771F881F23
:1031100091505040A9F79E3F510570F014C05EC019
:103120005F3FECF3983EDCF3869577956795B7950E
:10313000F795E7959F5FC1F7FE2B880F911D969538
:10314000879597F9089597F99F6780E870E060E0A8
:1031500008959FEF80EC089500240A941616170630
:1031600018060906089500240A9412161306140678
:1031700005060895092E0394000C11F4882352F0DB
:10318000BB0F40F4BF2B11F460FF04C06F5F7F4F93
:103190008F4F9F4F089557FD9058440F551F59F07A
:1031A0005F3F71F04795880F97FB991F61F09F3F34
:1031B00079F087950895121613061406551FF2CF5D
:1031C0004695F1DF08C0161617061806991FF1CFAD
:1031D00086957105610508940895E894BB276627D4
:1031E0007727CB0197F908950CD0C4CFBCDF40F00E
:1031F000B3DF30F021F45F3F19F0A5CF5111EECFCE
:10320000A8CFC9DF98F39923C9F35523B1F3951BD0
:10321000550BBB27AA2762177307840738F09F5FF7
:103220005F4F220F331F441FAA1FA9F333D00E2E66
:103230003AF0E0E830D091505040E695001CCAF7D3
:1032400029D0FE2F27D0660F771F881FBB1F261798
:1032500037074807AB07B0E809F0BB0B802DBF016B
:10326000FF2793585F4F2AF09E3F510568F06BCFC0
:10327000B5CF5F3FECF3983EDCF386957795679585
:10328000B795F7959F5FC9F7880F911D969587951C
:1032900097F90895E1E0660F771F881FBB1F62173B
:1032A00073078407BA0720F0621B730B840BBA0BF9
:1032B000EE1F88F7E095089504D06894B1118ECF81
:1032C000089571DF88F09F5790F0B92F9927B75173
:1032D000A0F0D1F0660F771F881F991F1AF0BA95DA
:1032E000C9F712C0B13081F078DFB1E0089575CF31
:1032F000672F782F8827B85F39F0B93FCCF38695D0
:1033000077956795B395D9F73EF49095809570952C
:1033100061957F4F8F4F9F4F089597FB072E16F4AF
:10332000009406D077FD08D013D007FC05D03EF4FA
:10333000909581959F4F0895709561957F4F089561
:10334000EE0FFF1F881F8BBF0790F691E02D199499
:10335000AA1BBB1B51E107C0AA1FBB1FA617B707BB
:1033600010F0A61BB70B881F991F5A95A9F78095D7
:103370009095BC01CD0108950F931F93CF93DF93D8
:103380008230910510F482E090E0E0917E05F091AA
:103390007F0520E030E0A0E0B0E0309719F14081F7
:1033A00051810281138148175907C8F08417950786
:1033B00069F4109731F012960C93129713961C93A0
:1033C00027C000937E0510937F0522C0211531058B
:1033D00019F04217530718F49A01BD01EF01DF01FC
:1033E000F801DBCF21153105F9F0281B390B24300A
:1033F000310580F48A819B816115710521F0FB0103
:103400009383828304C090937F0580937E05FE01A1
:10341000329644C0FE01E20FF31F81939193225034
:103420003109398328833AC020917C0530917D058C
:10343000232B41F4209102023091030230937D0549
:1034400020937C0520910002309101022115310565
:1034500041F42DB73EB74091040250910502241B60
:10346000350BE0917C05F0917D05E217F307A0F4A0
:103470002E1B3F0B2817390778F0AC014E5F5F4FCA
:103480002417350748F04E0F5F1F50937D0540937A
:103490007C058193919302C0E0E0F0E0CF01DF91E1
:1034A000CF911F910F910895CF93DF93009709F467
:1034B00081C0FC01329713821282A0917E05B091E7
:1034C0007F05109781F420813181820F931F209115
:1034D0007C0530917D052817390751F5F0937D055E
:1034E000E0937C0567C0ED0120E030E0CE17DF07F8
:1034F00040F44A815B819E0141155105F1F0EA01DA
:10350000F5CFD383C28340815181840F951FC817A3
:10351000D90759F488819981840F951F0296918368
:1035200080838A819B81938382832115310529F4CD
:10353000F0937F05E0937E053DC0E901FB83EA83BC
:1035400049915991C40FD51FEC17FD0761F4808193
:103550009181840F951F0296E90199838883828166
:1035600093819B838A83E0E0F0E012968D919C9199
:103570001397009719F0FD01DC01F7CF8D919C9115
:1035800011979D012E5F3F4F820F931F20917C0565
:1035900030917D052817390769F4309729F4109286
:1035A0007F0510927E0502C013821282B0937D05C2
:1035B000A0937C05DF91CF9108956F927F928F92B7
:1035C0009F92AF92BF92CF92DF92EF92FF920F93B2
:1035D0001F93CF93DF93009781F4CB01DF91CF91BD
:1035E0001F910F91FF90EF90DF90CF90BF90AF9021
:1035F0009F908F907F906F90BFCEFC01E60FF71FDA
:103600009C0122503109E217F30708F4A5C0EC0130
:10361000D9010D911C91119706171707A8F00530D5
:10362000110508F497C0C80104978617970708F496
:1036300091C002501109061B170B019311936D9352
:103640007C93CF0131DF86C05B01A01AB10A4C0127
:10365000800E911EA0917E05B0917F05612C712C8A
:10366000E12CF12C109709F446C08D919C91119793
:10367000A815B905B1F56C0142E0C40ED11CCA14FD
:10368000DB0478F14C018A189B08640142E0C40E07
:10369000D11C1296BC9012971396AC91B5E0CB1644
:1036A000D10440F0B282A38391828082D9016D93CC
:1036B0007C9309C00E5F1F4F800F911FF90191830A
:1036C0008083EB2DFA2FE114F10431F0D70113962A
:1036D000FC93EE9312973EC0F0937F05E0937E0536
:1036E00039C06816790608F43C017D0112960D90E8
:1036F000BC91A02DB7CF80917C0590917D05881657
:103700009906E1F466167706C8F48091000290915C
:103710000102009741F48DB79EB740910402509189
:103720000502841B950BE817F907B0F4F0937D05AB
:10373000E0937C05F901718360830CC0CB011CDE32
:103740007C01009749F0A801BE011BD0CE01ACDE80
:10375000C70104C0CE0102C080E090E0DF91CF91AC
:103760001F910F91FF90EF90DF90CF90BF90AF909F
:103770009F908F907F906F90089581E090E0F894F3
:1037800033C0FB01DC0102C001900D92415050405A
:10379000D8F70895FB01DC018D910190801901108B
:1037A000D9F3990B0895FB01DC0101900D920020E3
:1037B000E1F70895FB0151915523A9F0BF01DC0108
:1037C0004D9145174111E1F759F4CD0101900020C9
:1037D00049F04D9140154111C9F3FB014111EFCF63
:1037E00081E090E00197089511E0C6E2D1E000E0A9
:1037F00005C0802FFE01A4DD2196011DC732D1072F
:0A38000080E00807B1F7F894FFCF4D
:10380A00000080052000000000004B08B907E3070C
:10381A0097081408F2070608000000005F11331128
:10382A002C1207112B111711081100000000A51105
:10383A00B9072C120711F5110B128D1153746F7001
:10384A0000436C6F7365004F70656E007B732E6466
:10385A002E6E3A007B732E642E743A007B732E64AC
:10386A002E633A007B692E622E6E3A4D4547415FC0
:10387A0034357D007B732E64642E733A007B732E7D
:10388A0064772E733A007B732E73702E733A007B23
:10389A00732E74642E733A007B732E70682E733AFB
:1038AA00007B732E682E733A007B732E63622E732D
:1038BA003A007B732E6D722E733A007B732E6D6401
:1038CA002E733A007B732E722E633A007B732E623C
:1038DA00746E2E733A007B732E66642E733A005B05
:1038EA00003D00646D5F6676647200646D5F686EA9
:1038FA00743100646D5F686E743200646D5F637466
:10390A00627800646D5F6D6E627800646D5F6578E1
:10391A006472006C645F6D6E7264006C645F34354F
:10392A00726D006C645F70687262006C645F7064D0
:10393A007473006D645F6465726D006D645F6465C5
:10394A00726D5F7374006D645F6465776C006D649B
:10395A005F6465776C5F7374007B722E632E003A26
:10396A006E6F745F65786973747D0A003A636F6D70
:10397A00706C657465647D0A00317D00307D0000DD
:00000001FF
