:100000000C9474000C949C000C949C000C949C0028
:100010000C949C000C949C000C9404090C94EA032E
:100020000C949C000C949C000C949C000C949C00E0
:100030000C949C000C949C000C949C000C949C00D0
:100040000C9415050C949C000C9432030C940C0336
:100050000C949C000C949C000C949C000C949C00B0
:100060000C94D6050C949C0095098409970986097F
:1000700088098A098C098E09900992090A0B0C0DCE
:100080000E0F0001020304050000000023002600FB
:10009000290000000008000201000003040700001E
:1000A000000000000000010204081020408001024E
:1000B00004081020010204081020000000002500A0
:1000C00028002B00040404040404040402020202B5
:1000D00002020303030303030200000000240027BD
:1000E000002A0000201F1A1F11241FBECFEFD8E0E6
:1000F000DEBFCDBF12E0A0E0B1E0E2E3FCE402C06D
:1001000005900D92A631B107D9F724E0A6E1B2E03F
:1001100001C01D92A638B207E1F710E0C3E7D0E0B6
:1001200004C02197FE010E940E25C237D107C9F7EE
:100130000E94F5140C940C260C940000CF92DF92D0
:10014000EF92FF920F931F93CF93DF936C017A018D
:100150008B01C0E0D0E0CE15DF0581F0D8016D91B4
:100160008D01D601ED91FC910190F081E02DC60149
:100170000995892B11F02196EECF7E01C701DF9101
:10018000CF911F910F91FF90EF90DF90CF90089546
:10019000FC01538D448D252F30E0842F90E0821B8D
:1001A000930B541710F0CF96089501970895FC0112
:1001B000918D828D981761F0828DDF01A80FB11D9E
:1001C0005D968C91928D9F5F9F73928F90E00895C2
:1001D0008FEF9FEF0895FC01918D828D981731F07C
:1001E000828DE80FF11D858D90E008958FEF9FEFD0
:1001F0000895FC01918D228D892F90E0805C9F4FA6
:10020000821B91098F73992708958EE093E00E94D5
:10021000F90021E0892B09F420E0822F0895FC01E8
:10022000848DDF01A80FB11DA35ABF4F2C91848D7F
:1002300090E001968F739927848FA689B7892C93B4
:10024000A089B1898C91837080648C93938D848D07
:10025000981306C00288F389E02D80818F7D80830A
:100260000895EF92FF920F931F93CF93DF93EC01CA
:1002700081E0888F9B8D8C8D981305C0E889F98962
:10028000808185FD26C0F62E0B8D10E00F5F1F4F7D
:100290000F731127E02E8C8DE8120CC00FB607FCEF
:1002A000FACFE889F989808185FFF5CFCE010E94D8
:1002B0000F01F1CF8B8DFE01E80FF11DE35AFF4FC7
:1002C000F0829FB7F8940B8FEA89FB898081806266
:1002D0000AC09FB7F894EE89FF896083E889F9899D
:1002E00080818370806480839FBF81E090E0DF9194
:1002F000CF911F910F91FF90EF900895CF93DF93CF
:10030000EC01888D8823C9F0EA89FB89808185FD0D
:1003100005C0A889B9898C9186FD0FC00FB607FC6E
:10032000F5CF808185FFF2CFA889B9898C9185FFAF
:10033000EDCFCE010E940F01E7CFDF91CF9108955D
:1003400080E090E0892B29F00E94050181110C9436
:1003500000000895833081F028F4813099F08230D4
:10036000A1F008958730A9F08830B9F08430D1F435
:10037000809180008F7D03C0809180008F77809373
:100380008000089584B58F7702C084B58F7D84BDC9
:1003900008958091B0008F7703C08091B0008F7D69
:1003A0008093B00008954091D902262F30E0240FA9
:1003B000311D21323105DCF4209141022430C9F491
:1003C000FC0180E090E0861758F43091D902219129
:1003D000DC01A754BD4FA30FB11D2C930196F3CFA1
:1003E0008091D902680F6093D90280E0089581E07E
:1003F000089582E00895089508950895E0914802CF
:1004000080914702E81730F4F0E0E75BFD4F808110
:1004100090E008958FEF9FEF0895909148028091AA
:100420004702981750F4E92FF0E0E75BFD4F208179
:1004300030E09F5F9093480202C02FEF3FEFC90169
:1004400008958091470290E020914802821B910913
:100450000895CF92DF92EF92FF920F931F93CF9365
:10046000DF937C01CB018A0120917A04222389F059
:10047000EB016B01C40ED51ECC15DD0569F0699149
:10048000D701ED91FC910190F081E02DC701099514
:10049000F3CF642F0E94D301C801DF91CF911F9148
:1004A0000F91FF90EF90DF90CF900895CF93DF935F
:1004B0001F92CDB7DEB7698320917A042223D1F051
:1004C00020917704203240F021E030E0FC013383BA
:1004D000228380E090E015C080917804E82FF0E05E
:1004E000E856FD4F998190838F5F809378048093C5
:1004F000770405C061E0CE0101960E94D30181E03E
:1005000090E00F90DF91CF910895089580E090E002
:100510000895CF93C82F682F8EE093E00E94310199
:100520008C2FCC0F990BCF9108950E94EE25FC01E2
:1005300024813581232B31F421E061157105A1F06F
:10054000FB0108C0FC01808191816115710531F4C6
:1005500021E0FC018081882339F005C00E94FC2540
:1005600021E0892B09F020E0822F0895FC01808191
:100570009181009711F00C9406220895EF92FF925A
:100580000F931F93CF93DF93EC01198218821B8284
:100590001A821D821C8261157105B9F17B01FB0174
:1005A00001900020E9F731978F01061B170BB80166
:1005B0006F5F7F4F80E090E00E942825009759F000
:1005C000998388831B830A832C813D81232B81F4AB
:1005D000FC0110820DC088819981009711F00E9462
:1005E0000622198218821D821C821B821A820DC06B
:1005F0001D830C83B70188819981DF91CF911F9171
:100600000F91FF90EF900C940526DF91CF911F91F1
:100610000F91FF90EF9008951F920F920FB60F92D7
:1006200011242F933F934F935F936F937F938F93F7
:100630009F93AF93BF93EF93FF938EE093E00E945D
:100640000F01FF91EF91BF91AF919F918F917F919A
:100650006F915F914F913F912F910F900FBE0F902F
:100660001F9018951F920F920FB60F9211242F937F
:100670008F939F93EF93FF93E0911E03F0911F03DD
:100680008081E0912403F091250382FD12C09081C6
:10069000809127038F5F8F7320912803821751F079
:1006A000E0912703F0E0E25FFC4F958F80932703F2
:1006B00001C08081FF91EF919F918F912F910F90B9
:1006C0000FBE0F901F901895CF93DF93282F30E027
:1006D000F901EE56FF4F8491F901EA55FF4FD4918D
:1006E000F901EC53FF4FC491CC2391F081110E948A
:1006F000AA01EC2FF0E0EE0FFF1FE857FF4FA59186
:10070000B491EC91ED2381E090E021F480E002C00F
:1007100080E090E0DF91CF910895862F0C946403E0
:100720001F93CF93DF93282F30E0F901EE56FF4F50
:100730008491F901EA55FF4FD491F901EC53FF4F31
:10074000C491CC23C1F0162F81110E94AA01EC2F75
:10075000F0E0EE0FFF1FE654FF4FA591B4919FB755
:10076000F894111104C08C91D095D82302C0EC915B
:10077000DE2BDC939FBFDF91CF911F910895909165
:100780002301891324C0E8EDF0E0E4919FEF9093FA
:100790002301E130B9F098F0E230C9F49091700093
:1007A0009D7F9093700091E09093B0009091B10084
:1007B000987F94609093B1001092B30008C010929B
:1007C0006E0005C090916F009D7F90936F0060E078
:1007D0000C9490031F920F920FB60F9211242F9337
:1007E0003F934F935F936F937F938F939F93AF93B9
:1007F000BF93EF93FF9380910A0390910B03A09115
:100800000C03B0910D03892B8A2B8B2B51F1909106
:100810000703E0910803F091090380818927808311
:1008200080910A0390910B03A0910C03B0910D03EA
:10083000181619061A061B06C4F480910A03909133
:100840000B03A0910C03B0910D030197A109B1090D
:1008500080930A0390930B03A0930C03B0930D03B2
:1008600004C0809123010E94BF03FF91EF91BF91CB
:10087000AF919F918F917F916F915F914F913F9138
:100880002F910F900FBE0F901F901895862F642FF9
:100890000C949003CF93DF9390E0FC01EA55FF4F57
:1008A0002491FC01EC53FF4F8491882361F190E087
:1008B000880F991FFC01E752FF4FC591D491FC01AD
:1008C000E654FF4FA591B491611109C09FB7F89408
:1008D0008881209582238883EC912E230BC062307F
:1008E00061F49FB7F8948881322F309583238883F1
:1008F000EC912E2B2C939FBF06C08FB7F894E88104
:100900002E2B28838FBFDF91CF910895862F642FE0
:100910000C944A048E3008F08E5087708064809367
:100920007C0080917A00806480937A0080917A00C4
:1009300086FDFCCF809178009091790008958230F7
:10094000910538F0880F991F880F991F0597019717
:10095000F1F708953FB7F8948091FD029091FE025F
:10096000A091FF02B091000326B5A89B05C02F3FC0
:1009700019F00196A11DB11D3FBFBA2FA92F982FC5
:100980008827820F911DA11DB11DBC01CD0142E040
:10099000660F771F881F991F4A95D1F708958F9288
:1009A0009F92AF92BF92CF92DF92EF92FF926B0134
:1009B0007C010E94AA044B015C01C114D104E10432
:1009C000F104F1F00E94AA04DC01CB018819990915
:1009D000AA09BB09883E9340A105B10570F321E047
:1009E000C21AD108E108F10888EE880E83E0981E4B
:1009F000A11CB11CC114D104E104F10419F7DDCF2D
:100A0000FF90EF90DF90CF90BF90AF909F908F902E
:100A100008952FB7F8946091690270916A028091ED
:100A20006B0290916C022FBF08951F920F920FB628
:100A30000F9211242F933F938F939F93AF93BF9364
:100A40008091690290916A02A0916B02B0916C0250
:100A50003091FC0223E0230F2D3720F40196A11DD5
:100A6000B11D05C026E8230F0296A11DB11D2093DC
:100A7000FC028093690290936A02A0936B02B09388
:100A80006C028091FD029091FE02A091FF02B09154
:100A900000030196A11DB11D8093FD029093FE02FB
:100AA000A093FF02B0930003BF91AF919F918F91EC
:100AB0003F912F910F900FBE0F901F90189510929D
:100AC000410281E08093400210923B0261E082E1AA
:100AD0000E94900361E083E10E949003E9EBF0E063
:100AE00080818E7F808380818D7F808388E4809366
:100AF000B80085E48093BC000895CF93DF9391E024
:100B00009093B8028823B9F0C091B800D091BA0090
:100B10008091BC008A7B8093BC0060E082E10E94EF
:100B2000900360E083E10E9490030E945F05D093F0
:100B3000BA00C093B800DF91CF91089585ED8093FE
:100B4000BC008091430290914402A0914502B09173
:100B500046020796A11DB11D23E0B695A79597956E
:100B600087952A95D1F72091BC0024FF1CC04091A5
:100B70004302509144026091450270914602452B18
:100B8000462B472B81F30097A105B10541F02AE2DE
:100B90002A95F1F700C00197A109B109E4CF80912E
:100BA00042020C947D051092410208951F920F920B
:100BB0000FB60F9211242F933F934F935F936F9330
:100BC0007F938F939F93AF93BF93EF93FF93809106
:100BD000B900887F803609F49CC068F5883209F432
:100BE0005BC090F4803109F454C038F4882309F4D0
:100BF000F6C0883009F44DC0F6C0883109F44CC005
:100C0000803209F45DC0EFC0803409F468C048F454
:100C1000803309F455C0883309F0E5C080933F0262
:100C2000D8C0803509F44FC0883509F45DC08834D8
:100C300009F0D9C0D6C0883909F4C7C0A8F48837EC
:100C400009F467C038F4883609F463C0803709F4C2
:100C500060C0C9C0883809F4B8C0803909F45FC0E1
:100C6000803809F0C0C05BC0803B09F486C038F40E
:100C7000803A09F466C0883A09F47FC0B4C0803C69
:100C800009F4A7C0883C09F4A4C0883B09F48AC0D1
:100C9000AAC080913C0210C090913E0280913D021A
:100CA000981770F5E0913E0281E08E0F80933E022E
:100CB000F0E0E55EFD4F80818093BB0085EC86C04F
:100CC00080933F028EC0E0913E0281E08E0F8093C0
:100CD0003E028091BB00F0E0E55EFD4F8083909185
:100CE0003E0280913D026EC0E0913E0281E08E0F97
:100CF00080933E028091BB00F0E0E55EFD4F808373
:100D00008091400281116DC081E080933B0284EAB2
:100D100061C083E0809341021092FB02CFCF8091AB
:100D2000FB02803208F051C0E091FB0281E08E0F9F
:100D30008093FB028091BB00F0E0E552FD4F808381
:100D4000BDCF85EC8093BC00109241028091FB02E4
:100D5000803230F4E091FB02F0E0E552FD4F10826A
:100D60006091FB0270E0E0911702F09118028BEDA8
:100D700092E009951092FB0236C084E08093410214
:100D80001092DA021092D902E0911902F0911A023F
:100D900009958091D902811105C081E08093D90223
:100DA0001092B902E091DA0281E08E0F8093DA02AC
:100DB000F0E0E754FD4F80818093BB009091DA0210
:100DC0008091D902981708F479CF85E88093BC0008
:100DD0000AC085EC8093BC001092410204C01092BE
:100DE0003F020E949E05FF91EF91BF91AF919F91AD
:100DF0008F917F916F915F914F913F912F910F90C4
:100E00000FBE0F901F9018958F929F92AF92BF9236
:100E1000CF92DF92EF92FF920F931F93CF93DF93C6
:100E200010917704113208F0C2C0062FD0917904D6
:100E30000E94AA046B017C01C0914102CC2311F1F4
:100E40008091430290914402A0914502B0914602E4
:100E5000892B8A2B8B2B81F30E94AA04809043025A
:100E600090904402A0904502B0904602DC01CB0174
:100E70008C199D09AE09BF0988169906AA06BB06FA
:100E8000D8F681C082E080934102009340028FEF48
:100E900080933F0210923E0210933D02A8E9B2E017
:100EA000EBE1F2E080E0181721F09D9191938F5FC4
:100EB000FACF10923C0290913C028D2F880F892B23
:100EC00080933C0280913B02813089F510923B0275
:100ED0000E94AA046B017C0180913C028093BB00BC
:100EE0008091430290914402A0914502B091460244
:100EF000892B8A2B8B2BA9F00E94AA040091430214
:100F0000109144022091450230914602DC01CB0150
:100F10008C199D09AE09BF09081719072A073B0755
:100F200090F18091BC0083FDD7CF85EC01C085EEA8
:100F30008093BC000E94AA046B017C018091410255
:100F4000823039F58091430290914402A09145028C
:100F5000B0914602892B8A2B8B2B81F30E94AA0425
:100F600000914302109144022091450230914602C3
:100F7000DC01CB018C199D09AE09BF0908171907BF
:100F80002A073B07D8F6809142020E947D05C5E002
:100F900013C080913F028F3F79F080913F028032F1
:100FA00041F080913F02803331F0C4E005C0C1E0E0
:100FB00003C0C2E001C0C3E010927804109277042D
:100FC00010927A048C2FDF91CF911F910F91FF9097
:100FD000EF90DF90CF90BF90AF909F908F9008954B
:100FE000AF92BF92CF92DF92EF92FF920F931F9337
:100FF000CF93DF93EC0188819981892B31F06EBD0D
:101000000DB407FEFDCFAEB496C088859985892BB7
:1010100011F010E801C011E0BB24B394862F8123A6
:1010200009F0B12C062F2C813D814E815F8160E259
:1010300071EA87E090E00E942324F22EA02EE12C9A
:10104000C22ED12CFF2019F0C6010E949F048A8570
:10105000877FB9F58D858F3FB9F0902F912381E07F
:1010600009F480E0B81681F0EF85F8898F8999231B
:1010700031F09081892B8083BB24B39405C090818B
:10108000809589238083B12CE989FA899081898DA3
:10109000892B8083FF2019F0C6010E949F048E8552
:1010A0008F3F39F0EB89FC899081888D892309F085
:1010B000E12AE989FA899081898D80958923808345
:1010C0002CC0E989FA899081898D892B8083FF2042
:1010D00019F0C6010E949F048D858F3F69F0EF854E
:1010E000F8898F89902F912319F09081892B03C063
:1010F0009081809589238083E989FA899081898DFF
:101100008095892380838E858F3F39F0EB89FC8918
:101110009081888D892309F0E12A8E858F3F09F01F
:10112000AE2C88859985892B21F4110F11118ACF56
:1011300002C01695FBCF8A2DDF91CF911F910F91A1
:10114000FF90EF90DF90CF90BF90AF900895FF9207
:101150000F931F93CF93DF93EC018A01F22E8981C5
:101160009A81DC01ED91FC910280F381E02D0995DB
:101170000817190739F46F2D89819A810E94040795
:1011800091E0811190E0892FDF91CF911F910F9114
:10119000FF900895CF93DF93EC018B8181111EC0E6
:1011A000109248021092470210927804109277042D
:1011B0000E945F058BEF91E090931A0280931902D1
:1011C0008CEF91E0909318028093170281E08B835B
:1011D000CE010E94CA08982F882391F0888191E05F
:1011E00090937A0480937904109278041092770493
:1011F00061E089819A810E94040791E0811190E069
:10120000892FDF91CF9108951F920F920FB60F9201
:1012100011248F9381E0809316028F910F900FBE5F
:101220000F901F9018958FB7F894809197028FBFF9
:101230000895FC0183858F3F19F061E00C949003C1
:1012400008958EBD00000DB407FEFDCF8EB5089544
:101250008CBD9DBD0895CF93DF93EC01888199816A
:10126000892B31F0EA81FB81808191810E942809DC
:101270008B858F3F29F060E0DF91CF910C94900334
:10128000DF91CF9108958F929F92AF92BF92CF92AC
:10129000DF92EF92FF920F931F93CF93DF937C0126
:1012A0005B016A0149010E942B09E401080D191D27
:1012B000C017D10729F06991C7010E94F007F8CF44
:1012C000E501CA0CDB1CCC15DD0529F06991C701CD
:1012D0000E94F007F8CFC7010E94190981E0DF9151
:1012E000CF911F910F91FF90EF90DF90CF90BF9023
:1012F000AF909F908F9008958A309105A8F4FC01DB
:10130000EC5CFF4F0C940E2586E008958FE4089561
:1013100086E608958DE608958DE7089587E008959F
:101320008FE708958FE6089508958FE308958BE57C
:1013300008950F931F93CF93DF930E9409050091A7
:101340007502109176022091770230917802DC01CB
:10135000CB01801B910BA20BB30B853F9140A105E4
:10136000B10508F4C2C00E9409056093750270932C
:101370007602809377029093780220919602809172
:10138000050390910603222309F444C010929602AB
:101390008230910579F17CF4009739F1019709F0D9
:1013A000A4C080916D0290916E020E947C0920E0A1
:1013B00040E068E094C08330910509F044C080911A
:1013C0007102909172020E947C09D82F80916F0265
:1013D000909170020E947C09C82F80916D029091BB
:1013E0006E020E947C0928E078C020E040E060E0C6
:1013F00088E075C080916F02909170020E947C0914
:10140000C82F80916D0290916E020E947C0920E0AD
:1014100048E064C021E02093960282309105C1F13A
:101420007CF4009781F1019709F05FC080916D0213
:1014300090916E020E947C0920E040E060E04FC085
:1014400083309105A9F1049709F04FC08091730290
:10145000909174020E947C09182F809171029091E2
:1014600072020E947C09D82F80916F0290917002C5
:101470000E947C09C82F80916D0290916E020E949B
:101480007C09212F2AC020E040E060E080E027C0F6
:1014900080916F02909170020E947C09C82F809108
:1014A0006D0290916E020E947C0920E040E016C01F
:1014B00080917102909172020E947C09D82F8091D4
:1014C0006F02909170020E947C09C82F80916D027A
:1014D00090916E020E947C0920E04D2F6C2FDF91CD
:1014E000CF911F910F910C941810DF91CF911F9104
:1014F0000F9108957F928F929F92AF92BF92CF9259
:10150000DF92EF92FF920F931F93CF93DF93EC0143
:1015100080E497E7ABE1B0E080931F019093200156
:10152000A0932101B09322016CEA71E0CE010E94E8
:101530009702882369F00E949F12109249040E942A
:10154000B2126CEA71E08BE091E00E940526BAC20B
:101550006AEB71E0CE010E949702882369F06AEB82
:1015600071E08BE091E00E9405260E949F1210928C
:1015700049040E94B212A6C26AEC71E0CE010E9438
:101580009702882309F4FDC16AEC71E08BE091E0D9
:101590000E9405260E949F1268EC70E080E090E0B7
:1015A0000E94CF0420E041E060E080E00E9418103B
:1015B00064E670E080E090E00E94CF044EE150E0ED
:1015C00060E070E084E690E00E942D1021E041E0B0
:1015D00060E080E00E94181064E670E080E090E037
:1015E0000E94CF044EE150E060E070E084E690E0BD
:1015F0000E942D1023E041E060E080E00E9418107E
:1016000064E670E080E090E00E94CF044EE150E09C
:1016100060E070E084E690E00E942D1027E041E059
:1016200060E080E00E94181064E670E080E090E0E6
:101630000E94CF044EE150E060E070E084E690E06C
:101640000E942D102FE041E060E080E00E94181021
:1016500064E670E080E090E00E94CF044EE150E04C
:1016600060E070E084E690E00E942D102FE049E0F9
:1016700060E080E00E94181064E670E080E090E096
:101680000E94CF044EE150E060E070E084E690E01C
:101690000E942D102FE049E068E080E00E941810C1
:1016A00064E670E080E090E00E94CF044EE150E0FC
:1016B00060E070E084E690E00E942D102FE049E0A9
:1016C00068E088E00E94181064E670E080E090E036
:1016D0000E94CF044EE150E060E070E084E690E0CC
:1016E0000E942D102FE049E068E088E10E94181068
:1016F00064E670E080E090E00E94CF044EE150E0AC
:1017000060E070E084E690E00E942D102FE049E058
:1017100068E088E30E94181064E670E080E090E0E2
:101720000E94CF044EE150E060E070E084E690E07B
:101730000E942D102FE049E068E089E30E94181014
:1017400064E670E080E090E00E94CF044EE150E05B
:1017500060E070E084E690E00E942D102FE049E008
:1017600069E089E30E94181064E670E080E090E090
:101770000E94CF044EE150E060E070E084E690E02B
:101780000E942D102FE048E069E089E30E941810C4
:1017900064E670E080E090E00E94CF044EE150E00B
:1017A00060E070E084E690E00E942D102EE048E0BA
:1017B00069E089E30E94181064E670E080E090E040
:1017C0000E94CF044EE150E060E070E084E690E0DB
:1017D0000E942D102CE048E069E089E30E94181077
:1017E00064E670E080E090E00E94CF044EE150E0BB
:1017F00060E070E084E690E00E942D1028E048E070
:1018000069E089E30E94181064E670E080E090E0EF
:101810000E94CF044EE150E060E070E084E690E08A
:101820000E942D1020E048E069E089E30E94181032
:1018300064E670E080E090E00E94CF044EE150E06A
:1018400060E070E084E690E00E942D1020E040E02F
:1018500069E089E30E94181064E670E080E090E09F
:101860000E94CF044EE150E060E070E084E690E03A
:101870000E942D1020E040E061E089E30E941810F2
:1018800064E670E080E090E00E94CF044EE150E01A
:1018900060E070E084E690E00E942D1020E040E0DF
:1018A00061E081E30E94181064E670E080E090E05F
:1018B0000E94CF044EE150E060E070E084E690E0EA
:1018C0000E942D1020E040E061E081E20E941810AB
:1018D00064E670E080E090E00E94CF044EE150E0CA
:1018E00060E070E084E690E00E942D1020E040E08F
:1018F00061E081E00E94181064E670E080E090E012
:101900000E94CF044EE150E060E070E084E690E099
:101910000E942D1020E040E061E080E00E9418105D
:1019200064E670E080E090E00E94CF044EE150E079
:1019300060E070E084E690E00E942D1020E040E03E
:1019400060E080E00E94181064E670E080E090E0C3
:101950000E94CF044EE150E060E070E084E690E049
:101960000E942D100E949F124EE150E060E070E056
:1019700080ED97E00E942D1010920603109205034F
:10198000A1C06EED71E0CE010E949702882309F498
:101990007AC06EED71E08BE091E00E94052680E850
:1019A000809349040E94B21203E610E02AE0C22E9E
:1019B000D12C30ED832E37E0932EA12CB12CC80111
:1019C000B6010E94FA247B010E947C09782EC7018F
:1019D0000E947C092FE64FE6672D0E9418100E9496
:1019E0008A20A50194010E94BA23CB018C509E4FFE
:1019F00041E050E060E070E00E942D106AE070E08D
:101A000080E090E00E94CF0401501109C1F603E686
:101A100010E08AE0C82ED12C90ED892E97E0992E07
:101A2000A12CB12C80913C0190913D010817190720
:101A30000CF448C0C801B6010E94FA247B010E9440
:101A40007C09782EC7010E947C09272D482F6FE35F
:101A50008FE30E9418100E948A20A50194010E9421
:101A6000BA23CB018C509E4F41E050E060E070E023
:101A70000E942D106AE070E080E090E00E94CF04A8
:101A800001501109CFCF63EF71E0CE010E949702A0
:101A90008823C1F063EF71E08BE091E00E9405269E
:101AA0000E9409056093010370930203809303036E
:101AB0009093040380913C0190913D0190936B04BD
:101AC00080936A0468EF71E0CE010E949702882338
:101AD00049F168EF71E08BE091E00E94052640E05B
:101AE00050E0BA0180ED97E00E942D1068EE73E09F
:101AF00080E090E00E94CF048FE00E94BF030E942C
:101B00009F1210924904DF91CF911F910F91FF9086
:101B1000EF90DF90CF90BF90AF909F908F907F908D
:101B20000C94B212DF91CF911F910F91FF90EF9023
:101B3000DF90CF90BF90AF909F908F907F9008954F
:101B4000CF93DF93CCE4D4E0682F8B810E94900385
:101B50008A8D9B8DDF91CF910C949F0481E00C9432
:101B6000A00D0F931F9300915004109151042091E8
:101B700052043091530440E052E16AE770E090E093
:101B8000041715072607370740F47695679557958C
:101B900047959F5F9630A1F797E081E09827892FBE
:101BA000806A869591700E94280980E01F910F91AC
:101BB0000C94A00D0F931F93CF93DF9380915E043D
:101BC000882361F180916004811108C0C09155049F
:101BD000DC2FCE3108F0DDE1CD1B02C0C0E0DDE13D
:101BE0000E94B10D89EA0E9421098093540402E009
:101BF00011E0D15030F0F80181918F010E9421094C
:101C0000F8CFCC2329F080E00E942109C150F9CF00
:101C10000E94AE0D8091540480958170DF91CF9128
:101C20001F910F910895009769F0FC010190002029
:101C3000E9F73197AF01481B590BBC018EE093E0E7
:101C40000C949E0080E090E008958F929F92AF9256
:101C5000BF920F931F93CF93DF93CDB7DEB7A197BA
:101C60000FB6F894DEBF0FBECDBF19A2423008F404
:101C70004AE08E010F5D1F4F842E912CA12CB12CB8
:101C8000A50194010E942324E62FB901CA01015045
:101C90001109EA3014F4E05D01C0E95CD801EC936D
:101CA000232B242B252B61F7C8010E94130EA1962C
:101CB0000FB6F894DEBF0FBECDBFDF91CF911F915D
:101CC0000F91BF90AF909F908F900895CF92DF9229
:101CD000EF92FF92CF93DF936C01990FEE08FF080C
:101CE000F7FE13C06DE28EE093E00E943101EC013B
:101CF00066277727CB016C197D098E099F094AE079
:101D00000E94250EC80FD91F06C04AE0C701B601C0
:101D10000E94250EEC0186EA91E00E94130E8C0FC2
:101D20009D1FDF91CF91FF90EF90DF90CF900895AE
:101D3000CF93C82F0E94B10D8C2F80620E94210981
:101D400080935404CF910C94AE0DCF93DF93D82F92
:101D5000C62F0E94B10D8D2F80620E9421098093B1
:101D600054048C2F0E942109DF91CF910C94AE0D69
:101D7000CF93C82F0E94B10D8C2F0E942109809310
:101D800054048FEF0E942109C82F0E94AE0D8C2FA2
:101D9000CF910895FF920F931F93CF93DF93182F46
:101DA000F62ED72FC42F0E94B10D812F80620E9482
:101DB0002109809354040F2D1D2FCC2339F0F801F5
:101DC00081918F010E942109C150F7CFDF91CF91FE
:101DD0001F910F91FF900C94AE0D60915B0461FD1B
:101DE0000AC0626060935B0480E00E94A50E8BE1F4
:101DF0009EE40197F1F70895CF9386E00E94B80E14
:101E0000C82FC77D85E590E0A0E0B0E08093620434
:101E100090936304A0936404B09365046C2F86E0F0
:101E20000E94A50E86E00E94B80E91E0C81390E0D3
:101E3000892FCF910895CF93DF93C2E4D4E060E07F
:101E400088850E94900360E089850E94900361E08C
:101E500088850E94900361E08985DF91CF910C9481
:101E60009003CF93DF93C2E4D4E061E088850E94C1
:101E7000900361E089850E94900360E089850E945B
:101E8000900360E08885DF91CF910C9490030F93CD
:101E90001F93CF93DF93D82FC8E060E080914A046E
:101EA0000E949003D0FF02C061E001C060E0809119
:101EB0004B040E949003D59561E080914A040E94F2
:101EC0009003C15051F760E080914A040E94900352
:101ED00061E080914B040E94900361E080914A048C
:101EE0000E94900360E080914B040E944A0483ECBE
:101EF00090E00197F1F780914B040E9464038C01FC
:101F000081110AC061E080914B040E944A0460E0A4
:101F100080914B040E949003C3ECD0E0CE01019766
:101F2000F1F761E080914B040E944A042197F1F798
:101F3000C8019927DF91CF911F910F910895EF92DA
:101F4000FF920F931F93CF93DF9300D000D0CDB7B4
:101F5000DEB74091490462E474E0DC018E010F5F5A
:101F60001F4F9801CD015D91FB015193BF01FC0111
:101F70009081940FF90191939F01F4E066347F07FB
:101F800089F70E94310F80E40E94470F0E941B0FC7
:101F90000E94310F809147040E94470F7E0185E027
:101FA000E80EF11CF80181918F010E94470F0E1578
:101FB0001F05C1F70E941B0F0E94310F809148043A
:101FC0000E94470F0F900F900F900F90DF91CF91CD
:101FD0001F910F91FF90EF900C941B0F0F931F9385
:101FE000CF93DF93182FC2E4D4E0E82FF0E0EE5B4C
:101FF000FB4F10820F810E94310F84E40E94470F33
:102000000E941B0F0E94310F812F806C0E94470F8E
:10201000802F0E94470F0E941B0F0E94310F8E815C
:102020000E94470FDF91CF911F910F910C941B0FCE
:10203000CF93DF9300D000D0CDB7DEB789836A831A
:102040004B832C83CE0101960E949F0F0F900F901F
:102050000F900F90DF91CF9108954F925F926F9202
:102060007F928F929F92AF92BF92CF92DF92EF9228
:10207000FF920F931F93CF93DF9300D000D01F9256
:10208000CDB7DEB78C012A013B01809123018F304F
:1020900021F08F3F09F03DC205C0E8EDF0E024914A
:1020A0002D8372C08FE080932301E8EDF0E08491EE
:1020B0008D838F3F09F42DC2813009F441C038F17E
:1020C000823009F061C01092B0001092B10080918E
:1020D000B00082608093B0008091B10081608093F5
:1020E000B100E3EDF0E0E491F0E0EE0FFF1FE65405
:1020F000FF4F859194919093090380930803E5EB3A
:10210000F0E0E491E093070322E02D83FDC114BCCD
:1021100015BC84B5826084BD85B5816085BDE3ED65
:10212000F0E0E491F0E0EE0FFF1FE654FF4F8591E1
:102130009491E5EBF0E0E491E0936D041D82E4C13D
:1021400010928000109281008091810088608093BD
:10215000810080918100816080938100E3EDF0E057
:10216000E491F0E0EE0FFF1FE654FF4F859194914C
:10217000E5EBF0E0E491E0936C0461E08FE00E9415
:102180004A0491E09D838AC08D8187FDC2C161E0D0
:102190008FE00E944A048D818D7F09F07FC0480145
:1021A000A12CB12C60E072E18AE790E0A5019401D6
:1021B0000E94BA2329833A834B835C8369017A01A5
:1021C00091E0C91AD108E108F1082FEFC216D10435
:1021D000E104F10409F008F44EC060E472E48FE019
:1021E00090E0A50194010E94BA2369017A0181E07F
:1021F000C81AD108E108F1089D81923009F52FEF46
:10220000C216D104E104F10409F008F444C160E904
:1022100070ED83E090E0A50194010E94BA2369016A
:102220007A0181E0C81AD108E108F1089FEFC916C8
:10223000D104E104F10411F008F0BAC083E027C032
:102240002FEFC216D104E104F104B9F0B0F068E454
:1022500078EE81E090E0A50194010E94BA23690123
:102260007A0181E0C81AD108E108F1089D8199231B
:1022700009F413C1DCC081E001C082E09D819111AD
:1022800006C095B5987F892B85BD44C085E09091A7
:10229000B100987F892B8093B1003CC04801A12CEC
:1022A000B12C60E072E18AE790E0A50194010E9400
:1022B000BA2369017A0181E0C81AD108E108F1085E
:1022C000C114D10491E0E906F10488F068E478EEE5
:1022D00081E090E0A50194010E94BA2369017A018E
:1022E00081E0C81AD108E108F10883E001C081E06B
:1022F0009D81913079F490918100987F892B809312
:102300008100411451046104710449F42FEF3FEF3F
:10231000A9012CC0411451046104710471F0D80169
:10232000AA0FBB1FA30192010E94D92328EE33E01C
:1023300040E050E00E94232403C02FEF3FEFA901AB
:102340008D81813099F0823019F18111E2C0C7BCD2
:102350002093720430937304409374045093750473
:1023600080916E00826080936E00D3C0D09289000D
:10237000C092880020936E0430936F0440937004E1
:102380005093710480916F00826080936F00C1C090
:10239000C092B30020930A0330930B0340930C03C5
:1023A00050930D0380917000826080937000B1C0E3
:1023B00068E478EE81E090E0A50194010E94BA23E0
:1023C00069017A0191E0C91AD108E108F1082FEFFB
:1023D000C216D104E104F10441F138F164E274EF72
:1023E00080E090E0A50194010E94BA2369017A017E
:1023F00081E0C81AD108E108F1089FEFC916D1049D
:10240000E104F10409F008F441CF62E17AE780E0E9
:1024100090E0A50194010E94BA2369017A0181E04C
:10242000C81AD108E108F10819C084E030CF2FEFB5
:10243000C216D104E104F10409F008F463C062E1BA
:102440007AE780E090E0A50194010E94BA23690137
:102450007A0191E0C91AD108E108F1088FEFC81696
:10246000D104E104F104A9F0A0F089819A81AB8143
:10247000BC812AE0B595A795979587952A95D1F7C0
:102480006C017D0121E0C21AD108E108F10887E062
:10249000FECE86E0FCCE82E0FACE8FEFC816D104E5
:1024A000E104F10469F160F162E17AE780E090E033
:1024B000A50194010E94BA2369017A0191E0C91A29
:1024C000D108E108F1082FEFC216D104E104F104AC
:1024D000A9F0A0F089819A81AB81BC813AE0B595E1
:1024E000A795979587953A95D1F76C017D0121E0E5
:1024F000C21AD108E108F10885E0C3CE84E0C1CE5C
:1025000083E0BFCE84E0BACE61E08FE00E944A044F
:1025100046CE0F900F900F900F900F90DF91CF91BC
:102520001F910F91FF90EF90DF90CF90BF90AF90F1
:102530009F908F907F906F905F904F90089580E074
:102540000E94EE0F81E00E94EE0F82E00E94EE0FEB
:1025500083E00E94EE0FE2E4F4E010821182128226
:102560001382089582E494E00C949F0F96E0899F73
:10257000D0011124AD53BC4F90967C936E935F971E
:1025800091E091969C93919790912F04E091300463
:10259000F0913104992339F0309751F0811108C03E
:1025A0008091DF0304C0309719F05C968C910994F8
:1025B00008950E94B10D80E50E9421098093540482
:1025C00083E70E9421090C94AE0DCF93CFB7F89406
:1025D00080917B04811127C0EEECF0E08491E0EB68
:1025E000F0E09491E82FF0E0EE0FFF1FE752FF4F6D
:1025F000A591B491EC91E92321F461E08AE00E9475
:10260000900361E08AE00E944A048CB580618CBD31
:102610008CB580648CBD61E08DE00E944A0461E06D
:102620008BE00E944A0480917B048F5F80937B043F
:10263000CFBF80914E048F3F09F477C090914F0433
:102640009F3F09F472C0891741F061E00E944A047B
:1026500061E080914F040E944A0480914E04909161
:102660004F04891719F060E00E94900381E00E94F6
:10267000A00D65E070E080E090E00E94CF046FE57F
:1026800084E00E94A50E0E94FC0E8DE10E94B80E0F
:10269000C82F0E94D9128DE10E94B80E91E0C81394
:1026A00090E090935C04811142C010925E0460E05F
:1026B0008CE10E94A50E109260046FE381E00E94FD
:1026C000A50E63E082E00E94A50E80E2809355048F
:1026D000C1E1609155048C2F0E94A50ECF5FC731D8
:1026E000C1F763E083E00E94A50E85E080935F045C
:1026F0006CE40E94A50E60E787E00E94A50E82EEC2
:102700000E94980E81EE0E94980E6CE080E00E947C
:10271000A50E80E00E94B80E80935B040E94ED0E2F
:1027200081E090915B049E3059F080E009C0C813AD
:1027300002C00E94D91260E08DE10E94A50EB5CFC3
:10274000CF91089583FD02C098E001C098E28770A0
:10275000982B88E10FB6F894A895809360000FBE7F
:102760009093600080916000806480936000A895E1
:1027700008958091640080FD08C080917A0080688F
:1027800080937A0080B78F7780BF1092B803089546
:102790000F931F93CF93DF93C82FD62F86E0C89F48
:1027A000F0011124ED53FC4F11A2878D90A18130CF
:1027B0009105D9F040F082309105A9F10397F1F528
:1027C00060E070E034C06623C9F161E070E08C2FF6
:1027D0000E94B6120E94090560931B0470931C04AA
:1027E00080931D0490931E0429C00E940905009146
:1027F0001B0410911C0420911D0430911E04AB0198
:10280000BC01401B510B620B730B80912D04909106
:102810002E04A0E0B0E084179507A607B70718F4C8
:1028200062E070E004C0D11109C063E070E08C2F59
:10283000DF91CF911F910F910C94B612DF91CF9140
:102840001F910F9108958F929F92AF92BF92CF9256
:10285000DF92EF92FF920F931F93CF93DF937C0150
:102860004B016A0159010E942B09E401C80CD91CD3
:10287000CC15DD0529F06991C7010E94F007F8CF5A
:10288000E5010A0D1B1DC017D10731F06FEFC7011D
:102890000E94F0078993F7CFC7010E94190981E0D0
:1028A000DF91CF911F910F91FF90EF90DF90CF902C
:1028B000BF90AF909F908F900895CF92DF92EF924C
:1028C000FF920F931F93CF93DF9300D0CDB7DEB766
:1028D000FC014787508B618B728B8285882311F0B6
:1028E000448701C04387452F562F672F77278823BA
:1028F00011F0438701C044877F018BE0E80EF11C93
:102900009681878199838A83C080D180C114D10444
:10291000B1F1018510E098012E5F3F4FD60114966A
:102920008D919C9115978217930710F480E052C007
:10293000F601808191E090937A048093790410925B
:102940007804109277040115110541F421E042E06A
:1029500050E0B701C6010E94A7083CC08181928166
:10296000DC01ED91FC910280F381E02DA801BE0114
:102970006F5F7F4F099508171907C1F6E7CFA2814E
:10298000B381109799F22481358101852330310577
:1029900039F48E7F89839A8310E00F5F1F4F11C037
:1029A0002115310511F49F770AC02230310511F449
:1029B000906805C02130310519F49F7790649983A0
:1029C00010E09E012F5F3F4F42E050E0B701CD0184
:1029D0000E9443090F900F90DF91CF911F910F91AB
:1029E000FF90EF90DF90CF900895CF93DF93CDB716
:1029F000DEB7E6970FB6F894DEBF0FBECDBF789472
:102A000084B5826084BD84B5816084BD85B58260F3
:102A100085BD85B5816085BD80916E0081608093A4
:102A20006E0010928100809181008260809381000D
:102A3000809181008160809381008091800081601D
:102A4000809380008091B10084608093B100809178
:102A5000B00081608093B00080917A0084608093A0
:102A60007A0080917A00826080937A0080917A0067
:102A7000816080937A0080917A00806880937A00E8
:102A80001092C100E0911E03F0911F0382E0808349
:102A9000E0911E03F0911F031082E0911A03F09160
:102AA0001B031082E0911C03F0911D0380E18083E1
:102AB00010922603E0912203F091230386E08083A5
:102AC000E0912003F0912103808180618083E09177
:102AD0002003F0912103808188608083E0912003AE
:102AE000F0912103808180688083E0912003F09140
:102AF000210380818F7D808360E070E089E892E02F
:102B00000E9407210E949F1280E48093460480EC7B
:102B1000809347048BE8809348040E94B21261E0DE
:102B20008EE00E944A0461E08EE00E9490031092C1
:102B300016020E94AA046B017C0180E00E94A2138D
:102B4000809116028823E1F30FB6F894A89580913E
:102B50006000886180936000109260000FBE0E9448
:102B6000AA046C197D097093BD036093BC03809126
:102B7000320490913304892BA9F486E090E00E94FE
:102B80006E21FC018091350480838BEA93E092836F
:102B90008183138280E290E095838483F0933304F1
:102BA000E0933204009132041091330410924802F1
:102BB0001092470210927804109277040E945F05E9
:102BC0008BEF91E090931A02809319028CEF91E0C1
:102BD0009093180280931702FF24F394D801139660
:102BE000FC92C8010E94CA08882309F45BC080E0F7
:102BF00090E1A0E0B0E08093360490933704A09376
:102C00003804B09339048AE090E0A0E0B0E080930B
:102C10003A0490933B04A0933C04B0933D0480E0BD
:102C200090E0A0E0B0E480933E0490933F04A09332
:102C30004004B093410480913204909133041BA26C
:102C40001CA21DA21EA29D8B8C8B1F8A1E8AFD8E2C
:102C5000A5E0B0E0BB8FAA8FFE8E12E01C8F40E093
:102C600050E160E070E0CE0144960E945D148091D6
:102C7000320490913304188A198A1A8A1B8A9A831B
:102C800089831C821B82FA8618861F82FB8619871D
:102C90004FE959E360E070E0CE0101960E945D14B7
:102CA0008093340480E090E2A0E0B0E080933604AA
:102CB00090933704A0933804B093390484E190E0F2
:102CC000A0E0B0E080933A0490933B04A0933C04CE
:102CD000B0933D0480E090E0A0E8BFE380933E0421
:102CE00090933F04A0934004B09341048091320438
:102CF000909133041BA21CA21DA21EA29D8B8C8B43
:102D00001F8A1E8A11E01D8FA5E0B0E0BB8FAA8F3D
:102D10001E8F02E00C8F40E050E260E070E0CE01D8
:102D200044960E945D148091320490913304188A75
:102D3000198A1A8A1B8A9A8389831C821B821A87A2
:102D400018861F821B8709874FE951E060E070E019
:102D5000CE0101960E945D148093340420903204C9
:102D600030903304188A198A1A8A1B8A3A82298277
:102D70001C821B821A8782E090E098878F831B87D2
:102D800009870C8B1D8A2114310409F421C1F1013A
:102D900084819581892B09F41BC1808110937A0469
:102DA00080937904109278041092770420E041E037
:102DB00050E0BE016C5E7F4FC1010E94A708B82E93
:102DC000882309F405C1C12CD12CAA24A394D101D4
:102DD00014968D919C911597A2E0EA2EF12CEC1897
:102DE000FD088E159F0508F47C01F10190800E947A
:102DF000AA042B013C0110914102112339F1809169
:102E0000430290914402A0914502B0914602892B61
:102E10008A2B8B2B81F30E94AA040091430210910C
:102E200044022091450230914602DC01CB01841915
:102E30009509A609B709081719072A073B07D8F605
:102E4000809142020E947D0510E09BC00E2D013250
:102E500008F000E2A092410221E082E090E08E19A9
:102E60009F09C816D90608F420E020934002FFEF1E
:102E7000F0933F0210923E028FEF800F80933D024D
:102E8000A0923C0280913C02990C982A90923C02BC
:102E900080913B02813099F510923B020E94AA0476
:102EA0002B013C0180913C028093BB008091430246
:102EB00090914402A0914502B0914602892B8A2B41
:102EC0008B2BA9F00E94AA04209143023091440266
:102ED0004091450250914602DC01CB0184199509CD
:102EE000A609B709281739074A075B07A0F180919F
:102EF000BC0083FDD7CF25EC2093BC0003C035EE8A
:102F00003093BC000E94AA042B013C018091410235
:102F1000813031F58091430290914402A0914502A5
:102F2000B0914602892B8A2B8B2B81F30E94AA0435
:102F30002091430230914402409145025091460253
:102F4000DC01CB0184199509A609B70928173907AF
:102F50004A075B07D8F6809142020E947D0511C0A6
:102F600080913E02801710F400913E02EBE1F2E006
:102F7000A9E4B2E010E0101721F081918D931F5F5A
:102F8000FACF1092480210934702812F90E0E81682
:102F9000F906F1F401E010E00C0F1D1F0C0D1D1DD2
:102FA0004801C801881999098E159F0598F4D10127
:102FB00011968D919C911297DC01ED91FC91028408
:102FC000F385E02D0995F80183870F5F1F4FE9CF47
:102FD000B12C09C0CE0CDF1C22E0C216D10408F4CB
:102FE000F6CEB11025C5B09234046DA97EA9E3E0F8
:102FF00076956795EA95E1F7660F771F660F771F5D
:10300000072E000C880B990B0E949D222FE632E1BF
:1030100043E85AE30E94FC226B017C014B015C01F6
:1030200060930701709308018093090190930A014E
:103030009B01AC010E94F524882319F086E791E0FA
:103040001AC026013701E89477F82FEF3FEF4FE7DA
:103050005FE7C301B2010E94F52481110FC02FEF79
:103060003FEF4FE75FE7C301B2010E9496221816B7
:103070002CF48AE791E00E94130E78C02FEF3FEF07
:103080004FE75FE4C701B6010E94F02418161CF454
:103090008EE791E0F0CF2FEF3FEF4FE75FECC701F6
:1030A000B6010E94962287FDF3CF20E030E0A9010F
:1030B000C701B6010E94962287FF0BC06DE28EE029
:1030C00093E00E94310146015701B7FAB094B7F876
:1030D000B0942AE037ED43EA5BE3C501B4010E94F6
:1030E00055244B015C010E94C1246B017C010E94AC
:1030F0009B229B01AC01C501B4010E9454244B01E9
:103100005C014AE0C701B6010E94250E6EE28EE026
:1031100093E00E94310120E030E040E251E4C5013B
:10312000B4010E94FC224B015C010E94C1246B018E
:10313000E12CF12C4AE0C701B6010E94250EC7011F
:10314000B6010E949B229B01AC01C501B4010E9403
:10315000542420E030E040E251E40E94FC220E942E
:10316000C12480E090E04AE00E94250E0E94E51212
:103170000E94E51290E00E94660E64E685E00E94DF
:10318000A50E0E94FC0E86E00E94B80E682F6760B4
:1031900086E00E94A50E80915E04811115C08DE12C
:1031A0000E94B80E682F66608DE10E94A50E8CE12A
:1031B0000E94B80E682F63608CE10E94A50E81E02A
:1031C0008093600480935E0481E18FA38DED88A7D6
:1031D0008CEC89A78BEB8AA78AEA8BA71CA61DA675
:1031E0001EA6EDE7F0E0849140915F04BE01695DA9
:1031F0007F4F0E94CA0E82E00E94B80EE3E8F0E022
:10320000E49161E070E001C0660FEA95EAF7682B8F
:1032100082E00E94A50E0E94ED0E60915B04616049
:1032200060935B0480E00E94A50E60E787E00E9447
:10323000A50E80914E0490914F04891719F061E01A
:103240000E94900380915D04882341F040915F04C7
:1032500066E574E08AE00E94CA0E14C082E00E9413
:10326000B80EE2E8F0E0E49121E030E001C0220F86
:10327000EA95EAF72095622F682382E00E94A50E66
:1032800010925D040E94DA0D64E670E080E090E048
:103290000E94CF048FEF0E94980E8091540490E01A
:1032A000959587958770863008F4CFC319C00E9422
:1032B000AE0D60E487E00E94A50E69E772E0CE01E2
:1032C00001960E94BE0262E871E0CE0101960E9462
:1032D0009702182FCE0101960E94B6021111E2C387
:1032E0006BE071E0CE0101960E94BE026AEB71E0D4
:1032F000CE0101960E94970281112AC06BE071E015
:10330000CE0144960E94BE0268EF71E0CE01449661
:103310000E949702811116C06BE071E0CE018F967A
:103320000E94BE026CEA71E0CE018F960E94970265
:10333000811125C585E10E94640311E0892B09F004
:103340001FC51DC510E0CE0144960E94B60201C003
:1033500010E0CE0101960E94B602112371F06AEBD3
:1033600071E0CE0101960E94BE02CE0101960E943C
:103370007A0ACE0101960E94B6026BE071E0CE019E
:1033800001960E94BE026AEB71E0CE0101960E9496
:103390009702882331F085E10E948A0411E0892B8D
:1033A00009F010E0CE0101960E94B602112371F0DF
:1033B0006AEC71E0CE0101960E94BE02CE01019638
:1033C0000E947A0ACE0101960E94B6026BE071E07B
:1033D000CE0101960E94BE026AEC71E0CE01019618
:1033E0000E949702182FCE0101960E94B602112367
:1033F00009F4A3C10E94990981E080932F040E94DF
:10340000090500911F04109120042091210430919E
:103410002204AB01BC01401B510B620B730B80916A
:103420002B0490912C04A0E0B0E084179507A60728
:10343000B70708F0EAC010E080912904181710F0CF
:10344000912C42C0E0912504F0912604E10FF11D7A
:1034500062E080810E944A041F5FEECF082D10E0D9
:10346000E0912504F0912604E00FF11F80810E9475
:1034700064030C5F1F4F000F111FF801ED53FC4F49
:10348000892B09F04DC0808191818A299B299183E4
:103490008083839480912904881600F3E0912704A7
:1034A000F0912804EE0DFF1D61E080810E949003E1
:1034B0008091270490912804FC01EE0DFF1D60E02F
:1034C00080810E944A04939480912A04981668F59A
:1034D000E92CF12CE0912704F0912804EE0DFF1D5A
:1034E00061E080810E944A04E0912704F091280461
:1034F000EE0DFF1D60E080810E94900381E090E06E
:10350000A0E0B0E0092C04C0880F991FAA1FBB1FC0
:103510000A94D2F75C016C01C094D094812CBACF8C
:10352000808191818C219D21B2CF33ECE32E33E059
:10353000F32E8FEF93E0F701278D30A1232B31F489
:10354000148EAFEFBFEFB68FA58F11A236968E17F0
:103550009F0791F7D12C26E0B22E80912904D8162E
:1035600058F5C12C0D2D10E0000F111F05531C4FF5
:1035700020912A04C216F0F4F801408151810C2CEC
:1035800002C0569547950A94E2F7642F6170D29E67
:10359000900111242C0D311DE3ECF3E080E0A58DAA
:1035A000B68D2A173B0709F40CC48F5F36968A3014
:1035B000B1F7EBC3D394D1CF10E0D70191968C91A2
:1035C000811111E0B6E0EB0EF11CEFEFEE16E3E037
:1035D000FE0699F70E94090560931F04709320046A
:1035E0008093210490932204112379F08091E403C5
:1035F000882359F08091E2039091E303019729F425
:103600001091DF03111104C098C010922F0495C0CF
:103610000E948A2024EF31E040E050E00E94BA236B
:10362000CB018C509E4F42E350E060E070E00E947E
:103630002D10812F110F990BC09720910503309108
:103640000603A9014F5F5F4F5093060340930503A4
:103650001092750210927602109277021092780200
:103660002130310599F03CF4232BD1F490936E0274
:1036700080936D0262C02230310569F0233031053C
:1036800079F490937402809373020EC09093700249
:1036900080936F0252C090937202809371024DC06A
:1036A000443051050CF449C040916D0250916E02B6
:1036B00088EE93E0489F9001499F300D589F300D50
:1036C000112440916F025091700264E6649FC00122
:1036D000659F900D1124820F931F409171025091AC
:1036E00072026AE0649F9001659F300D1124820F81
:1036F000931F2091730230917402820F931F2091C7
:103700000001309101018217930709F464C30E94FC
:10371000990940E050E0BA018AE090E00E942D1043
:1037200068EE73E080E090E00E94CF048FE00E949A
:10373000BF0310920603109205036BE071E0CE0107
:1037400001960E94BE026EED71E0CE0101960E94CC
:103750009702882331F084E10E948A0411E0892BCA
:1037600009F010E0CE0101960E94B602112371F01B
:1037700063EF71E0CE0101960E94BE02CE01019678
:103780000E947A0ACE0101960E94B6026BE071E0B7
:10379000CE0101960E94BE0263EF71E0CE01019658
:1037A0000E949702182FCE0101960E94B6021123A3
:1037B00009F473C00E940905DC01CB01845F9140CC
:1037C000A109B109009101031091020320910303A3
:1037D00030910403081719072A073B0728F480E8EB
:1037E000809349040E94B2120E940905DC01CB01BA
:1037F000885E9340A109B109009101031091020371
:103800002091030330910403081719072A073B0787
:1038100080F50E9409056093010370930203809371
:1038200003039093040344E650E060E070E080ED11
:1038300097E00E942D1080916A0490916B0401978B
:1038400090936B0480936A046AE070E00E94FA240B
:103850008B010E947C09F82EC8010E947C092F2D43
:10386000482F6FE38FE30E941810109249040E94C2
:10387000B21280916A0490916B04892B71F468EF05
:1038800071E0CE0101960E94BE02CE0101960E9417
:103890007A0ACE0101960E94B6020E9409050091A3
:1038A0009202109193022091940230919502DC01D2
:1038B000CB01801B910BA20BB30B00911F01109148
:1038C00020012091210130912201081719072A07B0
:1038D0003B0708F0AAC00E9409056093920270930A
:1038E0009302809394029093950280E69AEEA0E072
:1038F000B0E080931F0190932001A0932101B09329
:10390000220160E08EE00E9490031092B7031092B3
:10391000C10381E08093B8038091BB038D7F41F0A8
:1039200080917A008F7780937A0080B7806880BF1B
:1039300088EDC82E86EDD82EE12CF12C8091BE03A7
:103940009091BF03A0E0B0E08C159D05AE05BF05CA
:1039500008F046C08091C2038A3010F40E94A2137E
:1039600083B7817F9091BB03892B83BF83B781602D
:1039700083BF8091BA03811106C0F89485B7806631
:1039800085BF8F7D85BF789488950FB6F894A895EC
:1039900080916000886180936000109260000FBE8B
:1039A000A89583B78E7F83BF8091BE039091BF039C
:1039B000C81AD90AE108F1089091C1038091C003A7
:1039C000890F8D3730F0F1E0CF1AD108E108F10806
:1039D0008D578093C1038091B703882309F4AECF3C
:1039E0008091B9038823D9F02FB7F89480916902A8
:1039F00090916A02A0916B02B0916C028852994238
:103A0000AF4FBF4F8C199D09AE09BF098093690262
:103A100090936A02A0936B02B0936C022FBF0E9436
:103A2000B91361E08EE00E9490030E94A0019FC83C
:103A30002B858C859D85211103C09EAB8DABD3CA90
:103A4000382F292F3EAB2DABCECA80916004811157
:103A50000AC080915504E82E8A3110F069E1E62E03
:103A6000F82EFE1803C0F12C59E1E52E0E94B10D8D
:103A700081E60E9421098093540409E712E0EA9448
:103A80003FEFE31639F08FEF0E942109D8018D93A3
:103A90008D01F5CFFF2009F40ACC8FEF0E94210998
:103AA000FA94F8CF83E892E00E94130E8BE891E03D
:103AB0000E94130E80910001909101010E94660EF8
:103AC00063E872E0CE0101960E94BE026DE871E0EB
:103AD000CE0101960E949702182FCE0101960E94F6
:103AE000B60211110E94DA0D63E872E0CE01019670
:103AF0000E94BE0266E971E0CE0101960E94970223
:103B0000182FCE0101960E94B602112309F4FBC0C2
:103B10006DE872E0CE0101960E94BE0263EA71E098
:103B2000CE0101960E949702182FCE0101960E94A5
:103B3000B6021123B1F08FE991E00E94130E86EADC
:103B400091E00E94130E0E94DA0D80E497E7ABE14A
:103B5000B0E080931F0190932001A0932101B093C6
:103B600022016DE872E0CE0101960E94BE0269EA70
:103B700071E0CE0101960E949702182FCE010196A6
:103B80000E94B602112381F00E94DA0D6CEA71E006
:103B9000CE0101960E94BE02CE0101960E947A0AD1
:103BA000CE0101960E94B6026DE872E0CE01019648
:103BB0000E94BE0267EB71E0CE0101960E9497025F
:103BC000182FCE0101960E94B602112381F00E94A7
:103BD000DA0D6AEB71E0CE0101960E94BE02CE01C1
:103BE00001960E947A0ACE0101960E94B6026DE803
:103BF00072E0CE0101960E94BE0266EC71E0CE0139
:103C000001960E949702182FCE0101960E94B602DB
:103C1000112381F00E94DA0D6AEC71E0CE01019669
:103C20000E94BE02CE0101960E947A0ACE01019640
:103C30000E94B6026DE872E0CE0101960E94BE02BB
:103C40006AED71E0CE0101960E949702182FCE0115
:103C500001960E94B602112381F00E94DA0D6EEDEA
:103C600071E0CE0101960E94BE02CE0101960E9433
:103C70007A0ACE0101960E94B6026DE872E0CE018A
:103C800001960E94BE026FEE71E0CE0101960E9485
:103C90009702182FCE0101960E94B602112381F0DF
:103CA0000E94DA0D63EF71E0CE0101960E94BE0220
:103CB000CE0101960E947A0ACE0101960E94B602B8
:103CC0006DE872E0CE0101960E94BE0260EF71E0E5
:103CD000CE0101960E949702182FCE0101960E94F4
:103CE000B602112381F00E94DA0D68EF71E0CE0177
:103CF00001960E94BE02CE0101960E947A0ACE0170
:103D000001960E94B60263E872E0CE0101960E941D
:103D1000BE0262E072E0CE0101960E949702182F67
:103D2000CE0101960E94B602112351F00E94DA0DD5
:103D30008DE892E00E94E1209093010180930001C0
:103D400063E872E0CE0101960E94BE026BE072E071
:103D5000CE0101960E949702182FCE0101960E9473
:103D6000B602112309F4BCCA0E94DA0D8DE892E074
:103D70000E94E12090933D0180933C01B1CA10E084
:103D8000CE018F960E94B602DECA40FF1CC0E3EC53
:103D9000F3E080E090E0448D411117C0E0912304EE
:103DA000F0912404E20FF31F4081B89EF001B99E08
:103DB000F00D1124ED53FC4F448F368F258F10A248
:103DC000178E0E94C813C394D3CB019636968A30BF
:103DD000910509F7F8CF40E050E0BA0184EF91E097
:103DE0000E942D1064E670E080E090E00E94CF0415
:103DF0008FE00E94BF0340E050E0BA0188EE93E0FC
:103E00000E942D1064E670E080E090E00E94CF04F4
:103E10008FE00E94BF036EED71E0CE0101960E941B
:103E2000BE02CE0101960E947A0ACE0101960E943E
:103E3000B60283CC80913204909133040C94062214
:103E4000109211031092100388EE93E0A0E0B0E00E
:103E50008093120390931303A0931403B09315035C
:103E60002CE431E030930F0320930E0325EC30E077
:103E700030931B0320931A0324EC30E030931D038E
:103E800020931C0320EC30E030931F0320931E038B
:103E900021EC30E0309321032093200322EC30E02A
:103EA000309323032093220326EC30E03093250344
:103EB00020932403109227031092280310922903C1
:103EC00010922A031092AE031092AD038093AF03B9
:103ED0009093B003A093B103B093B2038EE591E049
:103EE0009093AC038093AB03E7EBF3E08CE0DF014E
:103EF0001D928A95E9F71092B7031092B80381E0FA
:103F00008093B90392E09093BB0320E83EE33093A3
:103F1000BD032093BC0320E830E03093BF0320931F
:103F2000BE0393E09093C20320913C0130913D0188
:103F300030936B0420936A0499E090934E049AE0C6
:103F400090934F0440E856E968E970E040935004CC
:103F500050935104609352047093530490E29093F1
:103F6000550410925C0410925D0495E090935F04F8
:103F70008093600485E090E0A0E0B0E08093660468
:103F800090936704A0936804B093690486E794E073
:103F900090934D0480934C041092560481E18093D9
:103FA0004A0480E180934B0461E081E10E944A046D
:103FB00061E080914B040E944A04109233041092F5
:103FC000320480E48093350410923A0410923B044A
:103FD00010923C0410923D0410923E0410923F0453
:103FE00010924004109241041092C5031092C9032C
:103FF0001092C8031092CA0380E791E09093C40323
:104000008093C303E3ECF3E0148E10A2178E11A289
:104010003696B3E0EF3FFB07B9F788E291E0909363
:1040200026048093250484E291E0909328048093F1
:10403000270484E08093290480932A048CE291E091
:1040400090932404809323048AE090E090932C04BE
:1040500080932B0484EF91E090932E0480932D04A1
:10406000109231041092300410921F041092200418
:10407000109221041092220410922F0408958F921E
:104080009F92AF92BF92CF92DF92EF92FF92CF9327
:10409000DF93EC01688179818A819B8161157105CB
:1040A0008105910521F464E279ED8BE597E02DE13E
:1040B00033EF41E050E00E94BA2349015A019B01CD
:1040C000AC01A7EAB1E40E94D9236B017C01ACEEFC
:1040D000B4EFA50194010E94E723DC01CB018C0D14
:1040E0009D1DAE1DBF1DB7FF03C00197A109B048BC
:1040F00088839983AA83BB83BC01CD019F77DF911D
:10410000CF91FF90EF90DF90CF90BF90AF909F90B6
:104110008F9008958F929F92AF92BF92CF92DF922D
:10412000EF92FF9260913E0170913F0180914001BA
:1041300090914101611571058105910521F464E2B9
:1041400079ED8BE597E02DE133EF41E050E00E94FF
:10415000BA2349015A019B01AC01A7EAB1E40E94CC
:10416000D9236B017C01ACEEB4EFA50194010E9450
:10417000E723DC01CB018C0D9D1DAE1DBF1DB7FFDC
:1041800003C00197A109B04880933E0190933F017D
:10419000A0934001B0934101BC01CD019F77FF90F6
:1041A000EF90DF90CF90BF90AF909F908F90089549
:1041B00060933E0170933F018093400190934101D1
:1041C0000895FC0188279927E89421912032E9F38A
:1041D000293010F02E30C8F32B3241F02D3239F453
:1041E000689404C00E94FF20820F911D21912053EA
:1041F0002A30C0F31EF4909581959F4F08957AE080
:10420000979F902D879F802D910D112408950F93D6
:104210001F93CF93DF93009731F46115710519F463
:1042200080E090E03AC08B01EC016EE070E081E04C
:1042300090E00E945221FC01892B91F380E8838356
:104240000115110571F01387028781E8838380913E
:104250007C0490917D04892B21F4F0937D04E093FC
:104260007C042097C9F0D187C087838182608383D3
:1042700080917E0490917F04892B71F4F0937F04E8
:10428000E0937E048091800490918104892B21F435
:10429000F0938104E0938004CF01DF91CF911F91CF
:1042A0000F9108950F931F93CF93DF93869F800103
:1042B000879F100D969F100D1124C8010E946E213A
:1042C000EC01009729F0A80160E070E00E948F22C5
:1042D000CE01DF91CF911F910F9108950F931F93FE
:1042E000CF93DF938230910510F482E090E0E0916B
:1042F0008404F091850420E030E0A0E0B0E0309745
:1043000019F1408151810281138148175907C8F082
:104310008417950769F4109731F012960C93129751
:1043200013961C9327C0009384041093850422C025
:104330002115310519F04217530718F49A01BD01F0
:10434000EF01DF01F801DBCF21153105F9F0281B62
:10435000390B2430310580F48A819B816115710508
:1043600021F0FB019383828304C0909385048093A2
:104370008404FE01329644C0FE01E20FF31F8193D4
:10438000919322503109398328833AC020918204C5
:1043900030918304232B41F4209144013091450155
:1043A0003093830420938204209142013091430191
:1043B0002115310541F42DB73EB74091460150918A
:1043C0004701241B350BE0918204F0918304E2172E
:1043D000F307A0F42E1B3F0B2817390778F0AC0128
:1043E0004E5F5F4F2417350748F04E0F5F1F509305
:1043F0008304409382048193919302C0E0E0F0E053
:10440000CF01DF91CF911F910F910895CF93DF934B
:10441000009709F481C0FC01329713821282A091A7
:104420008404B0918504109781F420813181820F3A
:10443000931F20918204309183042817390751F586
:10444000F0938304E093820467C0ED0120E030E044
:10445000CE17DF0740F44A815B819E01411551056B
:10446000F1F0EA01F5CFD383C28340815181840FFB
:10447000951FC817D90759F488819981840F951F12
:104480000296918380838A819B8193838283211505
:10449000310529F4F0938504E09384043DC0E901DB
:1044A000FB83EA8349915991C40FD51FEC17FD078F
:1044B00061F480819181840F951F0296E9019983AF
:1044C0008883828193819B838A83E0E0F0E0129667
:1044D0008D919C911397009719F0FD01DC01F7CFA6
:1044E0008D919C9111979D012E5F3F4F820F931FDD
:1044F00020918204309183042817390769F430979A
:1045000029F4109285041092840402C0138212824E
:10451000B0938304A0938204DF91CF910895DC01CE
:1045200001C06D9341505040E0F708950E94D82299
:1045300008F481E00895E89409C097FB3EF4909553
:104540008095709561957F4F8F4F9F4F9923A9F06C
:10455000F92F96E9BB279395F695879577956795FB
:10456000B795F111F8CFFAF4BB0F11F460FF1BC03F
:104570006F5F7F4F8F4F9F4F16C0882311F096E9D2
:1045800011C0772321F09EE8872F762F05C0662380
:1045900071F096E8862F70E060E02AF09A95660F39
:1045A000771F881FDAF7880F9695879597F90895F2
:1045B000990F0008550FAA0BE0E8FEEF1616170634
:1045C000E807F907C0F012161306E407F50798F09C
:1045D000621B730B840B950B39F40A2661F0232BB5
:1045E000242B252B21F408950A2609F4A140A69531
:1045F0008FEF811D811D08950E940F230C9480234D
:104600000E94722338F00E94792320F0952311F044
:104610000C9469230C946F2311240C94B4230E94EE
:10462000912370F3959FC1F3950F50E0551F629F42
:10463000F001729FBB27F00DB11D639FAA27F00DFB
:10464000B11DAA1F649F6627B00DA11D661F829F22
:104650002227B00DA11D621F739FB00DA11D621F07
:10466000839FA00D611D221F749F3327A00D611D24
:10467000231F849F600D211D822F762F6A2F112406
:104680009F5750409AF0F1F088234AF0EE0FFF1F39
:10469000BB1F661F771F881F91505040A9F79E3F90
:1046A000510580F00C9469230C94B4235F3FE4F32C
:1046B000983ED4F3869577956795B795F795E795E6
:1046C0009F5FC1F7FE2B880F911D9695879597F9EF
:1046D000089597F99F6780E870E060E008959FEF84
:1046E00080EC089500240A94161617061806090689
:1046F000089500240A941216130614060506089558
:10470000092E0394000C11F4882352F0BB0F40F4DF
:10471000BF2B11F460FF04C06F5F7F4F8F4F9F4F1F
:10472000089557FD9058440F551F59F05F3F71F0A1
:104730004795880F97FB991F61F09F3F79F0879508
:104740000895121613061406551FF2CF4695F1DF91
:1047500008C0161617061806991FF1CF8695710521
:10476000610508940895E894BB2766277727CB0155
:1047700097F90895052E97FB1EF400940E94D1230B
:1047800057FD07D00E94232407FC03D04EF40C945D
:10479000D12350954095309521953F4F4F4F5F4F16
:1047A000089590958095709561957F4F8F4F9F4F9D
:1047B00008950E944524A59F900DB49F900DA49F3D
:1047C000800D911D11240895B7FF0C94D9230E94E8
:1047D000D923821B930B08952F923F924F925F92A1
:1047E0006F927F928F929F92AF92BF92CF92DF9201
:1047F000EF92FF920F931F93CF93DF93CDB7DEB766
:10480000CA1BDB0B0FB6F894DEBF0FBECDBF0994F9
:104810002A88398848885F846E847D848C849B8450
:10482000AA84B984C884DF80EE80FD800C811B815E
:10483000AA81B981CE0FD11D0FB6F894DEBF0FBE8D
:10484000CDBFED010895A1E21A2EAA1BBB1BFD01ED
:104850000DC0AA1FBB1FEE1FFF1FA217B307E4075F
:10486000F50720F0A21BB30BE40BF50B661F771FB7
:10487000881F991F1A9469F7609570958095909597
:104880009B01AC01BD01CF010895A29FB001B39F70
:10489000C001A39F700D811D1124911DB29F700D49
:1048A000811D1124911D08955058BB27AA270E94ED
:1048B0006C240C9480230E94722338F00E94792388
:1048C00020F039F49F3F19F426F40C946F230EF472
:1048D000E095E7FB0C946923E92F0E94912358F39C
:1048E000BA17620773078407950720F079F4A6F5D5
:1048F0000C94B3230EF4E0950B2EBA2FA02D0B01D0
:10490000B90190010C01CA01A0011124FF27591B14
:1049100099F0593F50F4503E68F11A16F040A22F1A
:10492000232F342F4427585FF3CF4695379527958B
:10493000A795F0405395C9F77EF41F16BA0B620B8A
:10494000730B840BBAF09150A1F0FF0FBB1F661FD1
:10495000771F881FC2F70EC0BA0F621F731F841F14
:1049600048F4879577956795B795F7959E3F08F03A
:10497000B0CF9395880F08F09927EE0F97958795FC
:1049800008950E94992388F09F5798F0B92F99278E
:10499000B751B0F0E1F0660F771F881F991F1AF02A
:1049A000BA95C9F714C0B13091F00E94B323B1E0B9
:1049B00008950C94B323672F782F8827B85F39F0B8
:1049C000B93FCCF3869577956795B395D9F73EF4C3
:1049D00090958095709561957F4F8F4F9F4F08956B
:1049E0000E94D82208F48FEF08950E94D822880BE5
:1049F000990B089597FB072E16F4009407D077FDC6
:104A000009D00E94142507FC05D03EF490958195AD
:104A10009F4F0895709561957F4F0895EE0FFF1F8A
:104A20000590F491E02D0994AA1BBB1B51E107C02E
:104A3000AA1FBB1FA617B70710F0A61BB70B881F2E
:104A4000991F5A95A9F780959095BC01CD010895BD
:104A5000A0E0B0E0EEE2F5E20C94F023EC01009768
:104A600021F4CB010E946E21B4C0FC01E60FF71FB8
:104A70009C0122503109E217F30708F4A8C0D901BC
:104A80000D911C91119706171707B0F0053011050D
:104A900008F49BC0C80104978617970708F495C0CF
:104AA00002501109061B170B019311936D937C9310
:104AB000CF010E94062289C05B01A01AB10A4C01F5
:104AC000800E911EA0918404B0918504612C712CFC
:104AD000E12CF12C109709F446C08D919C9111970F
:104AE000A815B905B1F56C0142E0C40ED11CCA1479
:104AF000DB0478F14C018A189B08640142E0C40E83
:104B0000D11C1296BC9012971396AC91B5E0CB16BF
:104B1000D10440F0B282A38391828082D9016D9347
:104B20007C9309C00E5F1F4F800F911FF901918385
:104B30008083EB2DFA2FE114F10431F0D7011396A5
:104B4000FC93EE93129741C0F0938504E0938404A4
:104B50003CC06816790608F43C017D0112960D9060
:104B6000BC91A02DB7CF80918204909183048816C8
:104B70009906E1F466167706C8F480914201909197
:104B80004301009741F48DB79EB740914601509183
:104B90004701841B950BE817F907C8F4F0938304C9
:104BA000E0938204F901718360830FC0CB010E94FE
:104BB0006E217C01009759F0A801BE010E94F325E7
:104BC000CE010E940622C70104C0CE0102C080E0CF
:104BD00090E0CDB7DEB7EEE00C940C2481E090E0DD
:104BE000F8940C940C26FB01DC0102C001900D929C
:104BF00041505040D8F70895FB01DC018D910190A0
:104C000080190110D9F3990B0895FB01DC01019083
:104C10000D920020E1F7089510E0C3E7D0E004C052
:104C2000FE010E940E252196C437D107C9F7F894DA
:024C3000FFCFB4
:104C3200D204426F6D62610000000044696E616DD2
:104C42006F5F4F6666000000000000000000006019
:104C5200EA0000FF05040302060708093134372A77
:104C6200323538303336392341424344140001008F
:104C720000000000860420000000000031019E00B8
:104C8200C8007E01F900D700EB00000000005602C8
:104C920029028602FD0121020D02FE010000000030
:104CA200860446048D036E616E00696E66006F763F
:104CB2006600546F5F426F6D626100200047657449
:104CC2005F496E666F005365745F53746174004789
:104CD2004554205755000D0A00444F0044696E6147
:104CE2006D6F5F4F66660057470057686169745F72
:104CF2004761796B610057434500576169745F43AF
:104D02006F64655F456E7465720057545300576156
:104D120069745F54696D65725F5374617274005790
:104D2200544500576169745F54696D65725F456EE1
:104D320064005365745F50617373005365745F540C
:064D4200696D65720000BE
:00000001FF
