:100000000C9474000C949C000C949C000C949C0028
:100010000C949C000C949C000C9404090C94EA032E
:100020000C949C000C949C000C949C000C949C00E0
:100030000C949C000C949C000C949C000C949C00D0
:100040000C9415050C949C000C9432030C940C0336
:100050000C949C000C949C000C949C000C949C00B0
:100060000C94D6050C949C0095098409970986097F
:1000700088098A098C098E099009920900000000FC
:10008000240027002A000A0B0C0D0E0F00010203AA
:1000900004050000000023002600290000000008DD
:1000A000000201000003040700000000000000003F
:1000B00001020408102040800102040810200102FF
:1000C0000408102000000000250028002B00040474
:1000D00004040404040402020202020203030303F0
:1000E000030302003C1E361E11241FBECFEFD8E0D2
:1000F000DEBFCDBF12E0A0E0B1E0ECECF8E402C05E
:1001000005900D92A630B107D9F724E0A6E0B2E041
:1001100001C01D92A637B207E1F710E0C3E7D0E0B7
:1001200004C02197FE010E945B23C237D107C9F7A3
:100130000E94C5130C9459240C940000CF92DF92B6
:10014000EF92FF920F931F93CF93DF936C017A018D
:100150008B01C0E0D0E0CE15DF0581F0D8016D91B4
:100160008D01D601ED91FC910190F081E02DC60149
:100170000995892B11F02196EECF7E01C701DF9101
:10018000CF911F910F91FF90EF90DF90CF90089546
:10019000FC01538D448D252F30E0842F90E0821B8D
:1001A000930B541710F0CF96089501970895FC0112
:1001B000918D828D981761F0828DDF01A80FB11D9E
:1001C0005D968C91928D9F5F9F73928F90E00895C2
:1001D0008FEF9FEF0895FC01918D828D981731F07C
:1001E000828DE80FF11D858D90E008958FEF9FEFD0
:1001F0000895FC01918D228D892F90E0805C9F4FA6
:10020000821B91098F739927089583E093E00E94E0
:10021000F90021E0892B09F420E0822F0895FC01E8
:10022000848DDF01A80FB11DA35ABF4F2C91848D7F
:1002300090E001968F739927848FA689B7892C93B4
:10024000A089B1898C91837080648C93938D848D07
:10025000981306C00288F389E02D80818F7D80830A
:100260000895EF92FF920F931F93CF93DF93EC01CA
:1002700081E0888F9B8D8C8D981305C0E889F98962
:10028000808185FD26C0F62E0B8D10E00F5F1F4F7D
:100290000F731127E02E8C8DE8120CC00FB607FCEF
:1002A000FACFE889F989808185FFF5CFCE010E94D8
:1002B0000F01F1CF8B8DFE01E80FF11DE35AFF4FC7
:1002C000F0829FB7F8940B8FEA89FB898081806266
:1002D0000AC09FB7F894EE89FF896083E889F9899D
:1002E00080818370806480839FBF81E090E0DF9194
:1002F000CF911F910F91FF90EF900895CF93DF93CF
:10030000EC01888D8823C9F0EA89FB89808185FD0D
:1003100005C0A889B9898C9186FD0FC00FB607FC6E
:10032000F5CF808185FFF2CFA889B9898C9185FFAF
:10033000EDCFCE010E940F01E7CFDF91CF9108955D
:1003400080E090E0892B29F00E94050181110C9436
:1003500000000895833081F028F4813099F08230D4
:10036000A1F008958730A9F08830B9F08430D1F435
:10037000809180008F7D03C0809180008F77809373
:100380008000089584B58F7702C084B58F7D84BDC9
:1003900008958091B0008F7703C08091B0008F7D69
:1003A0008093B00008954091CA02262F30E0240FB8
:1003B000311D21323105DCF4209131022430C9F4A1
:1003C000FC0180E090E0861758F43091CA02219138
:1003D000DC01A655BD4FA30FB11D2C930196F3CFA1
:1003E0008091CA02680F6093CA0280E0089581E09C
:1003F000089582E00895089508950895E0913802DF
:1004000080913702E81730F4F0E0E75CFD4F80811F
:1004100090E008958FEF9FEF0895909138028091BA
:100420003702981750F4E92FF0E0E75CFD4F208188
:1004300030E09F5F9093380202C02FEF3FEFC90179
:1004400008958091370290E020913802821B910933
:100450000895CF92DF92EF92FF920F931F93CF9365
:10046000DF937C01CB018A012091F502222389F0E0
:10047000EB016B01C40ED51ECC15DD0569F0699149
:10048000D701ED91FC910190F081E02DC701099514
:10049000F3CF642F0E94D301C801DF91CF911F9148
:1004A0000F91FF90EF90DF90CF900895CF93DF935F
:1004B0001F92CDB7DEB769832091F5022223D1F0D8
:1004C0002091F202203240F021E030E0FC01338341
:1004D000228380E090E015C08091F302E82FF0E0E5
:1004E000E757FD4F998190838F5F8093F30280934C
:1004F000F20205C061E0CE0101960E94D30181E0C5
:1005000090E00F90DF91CF910895089580E090E002
:100510000895CF93C82F682F83E093E00E943101A4
:100520008C2FCC0F990BCF9108950E943B24FC0196
:1005300024813581232B31F421E061157105A1F06F
:10054000FB0108C0FC01808191816115710531F4C6
:1005500021E0FC018081882339F005C00E944924F4
:1005600021E0892B09F020E0822F0895FC01808191
:100570009181009711F00C9422210895EF92FF923F
:100580000F931F93CF93DF93EC01198218821B8284
:100590001A821D821C8261157105B9F17B01FB0174
:1005A00001900020E9F731978F01061B170BB80166
:1005B0006F5F7F4F80E090E00E947523009759F0B5
:1005C000998388831B830A832C813D81232B81F4AB
:1005D000FC0110820DC088819981009711F00E9462
:1005E0002221198218821D821C821B821A820DC050
:1005F0001D830C83B70188819981DF91CF911F9171
:100600000F91FF90EF900C945224DF91CF911F91A6
:100610000F91FF90EF9008951F920F920FB60F92D7
:1006200011242F933F934F935F936F937F938F93F7
:100630009F93AF93BF93EF93FF9383E093E00E9468
:100640000F01FF91EF91BF91AF919F918F917F919A
:100650006F915F914F913F912F910F900FBE0F902F
:100660001F9018951F920F920FB60F9211242F937F
:100670008F939F93EF93FF93E0911303F0911403F3
:100680008081E0911903F0911A0382FD12C09081DC
:1006900080911C038F5F8F7320911D03821751F08F
:1006A000E0911C03F0E0ED5FFC4F958F80931C03FD
:1006B00001C08081FF91EF919F918F912F910F90B9
:1006C0000FBE0F901F901895CF93DF93282F30E027
:1006D000F901E456FF4F8491F901E055FF4FD491A1
:1006E000F901E253FF4FC491CC2391F081110E9494
:1006F000AA01EC2FF0E0EE0FFF1FEE56FF4FA59181
:10070000B491EC91ED2381E090E021F480E002C00F
:1007100080E090E0DF91CF910895862F0C946403E0
:100720001F93CF93DF93282F30E0F901E456FF4F5A
:100730008491F901E055FF4FD491F901E253FF4F45
:10074000C491CC23C1F0162F81110E94AA01EC2F75
:10075000F0E0EE0FFF1FEC53FF4FA591B4919FB750
:10076000F894111104C08C91D095D82302C0EC915B
:10077000DE2BDC939FBFDF91CF911F910895909165
:100780002301891324C0E2EEF0E0E4919FEF9093FF
:100790002301E130B9F098F0E230C9F49091700093
:1007A0009D7F9093700091E09093B0009091B10084
:1007B000987F94609093B1001092B30008C010929B
:1007C0006E0005C090916F009D7F90936F0060E078
:1007D0000C9490031F920F920FB60F9211242F9337
:1007E0003F934F935F936F937F938F939F93AF93B9
:1007F000BF93EF93FF938091FF0290910003A0912C
:100800000103B0910203892B8A2B8B2B51F190911C
:10081000FC02E091FD02F091FE0280818927808335
:100820008091FF0290910003A0910103B091020317
:10083000181619061A061B06C4F48091FF0290913F
:100840000003A0910103B09102030197A109B1092E
:100850008093FF0290930003A0930103B0930203DF
:1008600004C0809123010E94BF03FF91EF91BF91CB
:10087000AF919F918F917F916F915F914F913F9138
:100880002F910F900FBE0F901F901895862F642FF9
:100890000C949003CF93DF9390E0FC01E055FF4F61
:1008A0002491FC01E253FF4F8491882361F190E091
:1008B000880F991FFC01E458FF4FC591D491FC01AA
:1008C000EC53FF4FA591B491611109C09FB7F89403
:1008D0008881209582238883EC912E230BC062307F
:1008E00061F49FB7F8948881322F309583238883F1
:1008F000EC912E2B2C939FBF06C08FB7F894E88104
:100900002E2B28838FBFDF91CF910895862F642FE0
:100910000C944A048E3008F08E5087708064809367
:100920007C0080917A00806480937A0080917A00C4
:1009300086FDFCCF809178009091790008958230F7
:10094000910538F0880F991F880F991F0597019717
:10095000F1F708953FB7F8948091EE029091EF027D
:10096000A091F002B091F10226B5A89B05C02F3FDF
:1009700019F00196A11DB11D3FBFBA2FA92F982FC5
:100980008827820F911DA11DB11DBC01CD0142E040
:10099000660F771F881F991F4A95D1F708958F9288
:1009A0009F92AF92BF92CF92DF92EF92FF926B0134
:1009B0007C010E94AA044B015C01C114D104E10432
:1009C000F104F1F00E94AA04DC01CB018819990915
:1009D000AA09BB09883E9340A105B10570F321E047
:1009E000C21AD108E108F10888EE880E83E0981E4B
:1009F000A11CB11CC114D104E104F10419F7DDCF2D
:100A0000FF90EF90DF90CF90BF90AF909F908F902E
:100A100008952FB7F8946091590270915A0280910D
:100A20005B0290915C022FBF08951F920F920FB648
:100A30000F9211242F933F938F939F93AF93BF9364
:100A40008091590290915A02A0915B02B0915C0290
:100A50003091ED0223E0230F2D3720F40196A11DE4
:100A6000B11D05C026E8230F0296A11DB11D2093DC
:100A7000ED028093590290935A02A0935B02B093C7
:100A80005C028091EE029091EF02A091F002B09191
:100A9000F1020196A11DB11D8093EE029093EF0229
:100AA000A093F002B093F102BF91AF919F918F910B
:100AB0003F912F910F900FBE0F901F90189510929D
:100AC000310281E08093300210922B0261E082E1DA
:100AD0000E94900361E083E10E949003E9EBF0E063
:100AE00080818E7F808380818D7F808388E4809366
:100AF000B80085E48093BC000895CF93DF9391E024
:100B00009093A9028823B9F0C091B800D091BA009F
:100B10008091BC008A7B8093BC0060E082E10E94EF
:100B2000900360E083E10E9490030E945F05D093F0
:100B3000BA00C093B800DF91CF91089585ED8093FE
:100B4000BC008091330290913402A0913502B091A3
:100B500036020796A11DB11D23E0B695A79597957E
:100B600087952A95D1F72091BC0024FF1CC04091A5
:100B70003302509134026091350270913602452B58
:100B8000462B472B81F30097A105B10541F02AE2DE
:100B90002A95F1F700C00197A109B109E4CF80912E
:100BA00032020C947D051092310208951F920F922B
:100BB0000FB60F9211242F933F934F935F936F9330
:100BC0007F938F939F93AF93BF93EF93FF93809106
:100BD000B900887F803609F49CC068F5883209F432
:100BE0005BC090F4803109F454C038F4882309F4D0
:100BF000F6C0883009F44DC0F6C0883109F44CC005
:100C0000803209F45DC0EFC0803409F468C048F454
:100C1000803309F455C0883309F0E5C080932F0272
:100C2000D8C0803509F44FC0883509F45DC08834D8
:100C300009F0D9C0D6C0883909F4C7C0A8F48837EC
:100C400009F467C038F4883609F463C0803709F4C2
:100C500060C0C9C0883809F4B8C0803909F45FC0E1
:100C6000803809F0C0C05BC0803B09F486C038F40E
:100C7000803A09F466C0883A09F47FC0B4C0803C69
:100C800009F4A7C0883C09F4A4C0883B09F48AC0D1
:100C9000AAC080912C0210C090912E0280912D024A
:100CA000981770F5E0912E0281E08E0F80932E024E
:100CB000F0E0E55FFD4F80818093BB0085EC86C04E
:100CC00080932F028EC0E0912E0281E08E0F8093E0
:100CD0002E028091BB00F0E0E55FFD4F8083909194
:100CE0002E0280912D026EC0E0912E0281E08E0FC7
:100CF00080932E028091BB00F0E0E55FFD4F808382
:100D00008091300281116DC081E080932B0284EAD2
:100D100061C083E0809331021092EC02CFCF8091CA
:100D2000EC02803208F051C0E091EC0281E08E0FBD
:100D30008093EC028091BB00F0E0E453FD4F808390
:100D4000BDCF85EC8093BC00109231028091EC0203
:100D5000803230F4E091EC02F0E0E453FD4F108279
:100D60006091EC0270E0E0910702F09108028CECD7
:100D700092E009951092EC0236C084E08093310233
:100D80001092CB021092CA02E0910902F0910A027D
:100D900009958091CA02811105C081E08093CA0241
:100DA0001092AA02E091CB0281E08E0F8093CB02D9
:100DB000F0E0E655FD4F80818093BB009091CB021F
:100DC0008091CA02981708F479CF85E88093BC0017
:100DD0000AC085EC8093BC001092310204C01092CE
:100DE0002F020E949E05FF91EF91BF91AF919F91BD
:100DF0008F917F916F915F914F913F912F910F90C4
:100E00000FBE0F901F9018958F929F92AF92BF9236
:100E1000CF92DF92EF92FF920F931F93CF93DF93C6
:100E20001091F202113208F0C2C0062FD091F402E4
:100E30000E94AA046B017C01C0913102CC2311F104
:100E40008091330290913402A0913502B091360224
:100E5000892B8A2B8B2B81F30E94AA04809033026A
:100E600090903402A0903502B0903602DC01CB01A4
:100E70008C199D09AE09BF0988169906AA06BB06FA
:100E8000D8F681C082E080933102009330028FEF68
:100E900080932F0210922E0210932D02A9E8B2E047
:100EA000EBE0F2E080E0181721F09D9191938F5FC5
:100EB000FACF10922C0290912C028D2F880F892B43
:100EC00080932C0280912B02813089F510922B02A5
:100ED0000E94AA046B017C0180912C028093BB00CC
:100EE0008091330290913402A0913502B091360284
:100EF000892B8A2B8B2BA9F00E94AA040091330224
:100F0000109134022091350230913602DC01CB0180
:100F10008C199D09AE09BF09081719072A073B0755
:100F200090F18091BC0083FDD7CF85EC01C085EEA8
:100F30008093BC000E94AA046B017C018091310265
:100F4000823039F58091330290913402A0913502BC
:100F5000B0913602892B8A2B8B2B81F30E94AA0435
:100F60000091330210913402209135023091360203
:100F7000DC01CB018C199D09AE09BF0908171907BF
:100F80002A073B07D8F6809132020E947D05C5E012
:100F900013C080912F028F3F79F080912F02803211
:100FA00041F080912F02803331F0C4E005C0C1E0F0
:100FB00003C0C2E001C0C3E01092F3021092F2023B
:100FC0001092F5028C2FDF91CF911F910F91FF901E
:100FD000EF90DF90CF90BF90AF909F908F9008954B
:100FE000AF92BF92CF92DF92EF92FF920F931F9337
:100FF000CF93DF93EC0188819981892B31F06EBD0D
:101000000DB407FEFDCFAEB496C088859985892BB7
:1010100011F010E801C011E0BB24B394862F8123A6
:1010200009F0B12C062F2C813D814E815F8160E259
:1010300071EA87E090E00E941623F22EA02EE12CA8
:10104000C22ED12CFF2019F0C6010E949F048A8570
:10105000877FB9F58D858F3FB9F0902F912381E07F
:1010600009F480E0B81681F0EF85F8898F8999231B
:1010700031F09081892B8083BB24B39405C090818B
:10108000809589238083B12CE989FA899081898DA3
:10109000892B8083FF2019F0C6010E949F048E8552
:1010A0008F3F39F0EB89FC899081888D892309F085
:1010B000E12AE989FA899081898D80958923808345
:1010C0002CC0E989FA899081898D892B8083FF2042
:1010D00019F0C6010E949F048D858F3F69F0EF854E
:1010E000F8898F89902F912319F09081892B03C063
:1010F0009081809589238083E989FA899081898DFF
:101100008095892380838E858F3F39F0EB89FC8918
:101110009081888D892309F0E12A8E858F3F09F01F
:10112000AE2C88859985892B21F4110F11118ACF56
:1011300002C01695FBCF8A2DDF91CF911F910F91A1
:10114000FF90EF90DF90CF90BF90AF900895FF9207
:101150000F931F93CF93DF93EC018A01F22E8981C5
:101160009A81DC01ED91FC910280F381E02D0995DB
:101170000817190739F46F2D89819A810E94040795
:1011800091E0811190E0892FDF91CF911F910F9114
:10119000FF900895CF93DF93EC018B8181111EC0E6
:1011A00010923802109237021092F3021092F2025B
:1011B0000E945F058BEF91E090930A0280930902F1
:1011C0008CEF91E0909308028093070281E08B837B
:1011D000CE010E94CA08982F882391F0888191E05F
:1011E0009093F5028093F4021092F3021092F202AF
:1011F00061E089819A810E94040791E0811190E069
:10120000892FDF91CF9108951F920F920FB60F9201
:1012100011248F9381E0809306028F910F900FBE6F
:101220000F901F9018958FB7F894809188028FBF08
:101230000895FC0183858F3F19F061E00C949003C1
:1012400008958EBD00000DB407FEFDCF8EB5089544
:101250008CBD9DBD0895CF93DF93EC01888199816A
:10126000892B31F0EA81FB81808191810E942809DC
:101270008B858F3F29F060E0DF91CF910C94900334
:10128000DF91CF9108958F929F92AF92BF92CF92AC
:10129000DF92EF92FF920F931F93CF93DF937C0126
:1012A0005B016A0149010E942B09E401080D191D27
:1012B000C017D10729F06991C7010E94F007F8CF44
:1012C000E501CA0CDB1CCC15DD0529F06991C701CD
:1012D0000E94F007F8CFC7010E94190981E0DF9151
:1012E000CF911F910F91FF90EF90DF90CF90BF9023
:1012F000AF909F908F9008958A309105A8F4FC01DB
:10130000EC5CFF4F0C945B2386E008958FE4089516
:1013100086E608958DE608958DE7089587E008959F
:101320008FE708958FE6089508958FE308958BE57C
:1013300008950F931F93CF93DF930E9409050091A7
:101340006502109166022091670230916802DC010B
:10135000CB01801B910BA20BB30B853F9140A105E4
:10136000B10508F4C2C00E9409056093650270933C
:1013700066028093670290936802209187028091B1
:10138000FA029091FB02222309F444C010928702D2
:101390008230910579F17CF4009739F1019709F0D9
:1013A000A4C080915D0290915E020E947C0920E0C1
:1013B00040E068E094C08330910509F044C080911A
:1013C0006102909162020E947C09D82F80915F0295
:1013D000909160020E947C09C82F80915D029091DB
:1013E0005E020E947C0928E078C020E040E060E0D6
:1013F00088E075C080915F02909160020E947C0934
:10140000C82F80915D0290915E020E947C0920E0CD
:1014100048E064C021E02093870282309105C1F149
:101420007CF4009781F1019709F05FC080915D0223
:1014300090915E020E947C0920E040E060E04FC095
:1014400083309105A9F1049709F04FC080916302A0
:10145000909164020E947C09182F80916102909102
:1014600062020E947C09D82F80915F0290916002F5
:101470000E947C09C82F80915D0290915E020E94BB
:101480007C09212F2AC020E040E060E080E027C0F6
:1014900080915F02909160020E947C09C82F809128
:1014A0005D0290915E020E947C0920E040E016C03F
:1014B00080916102909162020E947C09D82F8091F4
:1014C0005F02909160020E947C09C82F80915D02AA
:1014D00090915E020E947C0920E04D2F6C2FDF91DD
:1014E000CF911F910F910C942711DF91CF911F91F4
:1014F0000F91089596E0899FD0011124A854BC4F04
:1015000090967C936E935F9791E091969C939197C0
:1015100090912404E0912504F0912604992339F058
:10152000309751F0811108C08091D40304C03097E6
:1015300019F05C968C91099408957F928F929F92F6
:10154000AF92BF92CF92DF92EF92FF920F931F93D1
:10155000CF93DF93EC0180E497E7ABE1B0E08093B9
:101560001F0190932001A0932101B09322016CE907
:1015700071E0CE010E949702882369F00E94AE13A9
:1015800010923E040E94C1136CE971E08BE091E07F
:101590000E945224BAC26AEA71E0CE010E94970208
:1015A000882369F06AEA71E08BE091E00E9452249E
:1015B0000E94AE1310923E040E94C113A6C26AEBB1
:1015C00071E0CE010E949702882309F4FDC16AEB05
:1015D00071E08BE091E00E9452240E94AE1368EC0F
:1015E00070E080E090E00E94CF0420E041E060E005
:1015F00080E00E94271164E670E080E090E00E94A5
:10160000CF044EE150E060E070E084E690E00E949C
:101610003C1121E041E060E080E00E94271164E697
:1016200070E080E090E00E94CF044EE150E060E086
:1016300070E084E690E00E943C1123E041E060E02D
:1016400080E00E94271164E670E080E090E00E9454
:10165000CF044EE150E060E070E084E690E00E944C
:101660003C1127E041E060E080E00E94271164E641
:1016700070E080E090E00E94CF044EE150E060E036
:1016800070E084E690E00E943C112FE041E060E0D1
:1016900080E00E94271164E670E080E090E00E9404
:1016A000CF044EE150E060E070E084E690E00E94FC
:1016B0003C112FE049E060E080E00E94271164E6E1
:1016C00070E080E090E00E94CF044EE150E060E0E6
:1016D00070E084E690E00E943C112FE049E068E071
:1016E00080E00E94271164E670E080E090E00E94B4
:1016F000CF044EE150E060E070E084E690E00E94AC
:101700003C112FE049E068E088E00E94271164E680
:1017100070E080E090E00E94CF044EE150E060E095
:1017200070E084E690E00E943C112FE049E068E020
:1017300088E10E94271164E670E080E090E00E945A
:10174000CF044EE150E060E070E084E690E00E945B
:101750003C112FE049E068E088E30E94271164E62D
:1017600070E080E090E00E94CF044EE150E060E045
:1017700070E084E690E00E943C112FE049E068E0D0
:1017800089E30E94271164E670E080E090E00E9407
:10179000CF044EE150E060E070E084E690E00E940B
:1017A0003C112FE049E069E089E30E94271164E6DB
:1017B00070E080E090E00E94CF044EE150E060E0F5
:1017C00070E084E690E00E943C112FE048E069E080
:1017D00089E30E94271164E670E080E090E00E94B7
:1017E000CF044EE150E060E070E084E690E00E94BB
:1017F0003C112EE048E069E089E30E94271164E68D
:1018000070E080E090E00E94CF044EE150E060E0A4
:1018100070E084E690E00E943C112CE048E069E032
:1018200089E30E94271164E670E080E090E00E9466
:10183000CF044EE150E060E070E084E690E00E946A
:101840003C1128E048E069E089E30E94271164E642
:1018500070E080E090E00E94CF044EE150E060E054
:1018600070E084E690E00E943C1120E048E069E0EE
:1018700089E30E94271164E670E080E090E00E9416
:10188000CF044EE150E060E070E084E690E00E941A
:101890003C1120E040E069E089E30E94271164E602
:1018A00070E080E090E00E94CF044EE150E060E004
:1018B00070E084E690E00E943C1120E040E061E0AE
:1018C00089E30E94271164E670E080E090E00E94C6
:1018D000CF044EE150E060E070E084E690E00E94CA
:1018E0003C1120E040E061E081E30E94271164E6C2
:1018F00070E080E090E00E94CF044EE150E060E0B4
:1019000070E084E690E00E943C1120E040E061E05D
:1019100081E20E94271164E670E080E090E00E947E
:10192000CF044EE150E060E070E084E690E00E9479
:101930003C1120E040E061E081E00E94271164E674
:1019400070E080E090E00E94CF044EE150E060E063
:1019500070E084E690E00E943C1120E040E061E00D
:1019600080E00E94271164E670E080E090E00E9431
:10197000CF044EE150E060E070E084E690E00E9429
:101980003C1120E040E060E080E00E94271164E626
:1019900070E080E090E00E94CF044EE150E060E013
:1019A00070E084E690E00E943C110E94AE134EE18C
:1019B00050E060E070E080ED97E00E943C111092F2
:1019C000FB021092FA02A1C06EEC71E0CE010E94FF
:1019D0009702882309F47AC06EEC71E08BE091E005
:1019E0000E94522480E880933E040E94C11303E6C3
:1019F00010E02AE0C22ED12C30ED832E37E0932E5A
:101A0000A12CB12CC801B6010E9447237B010E9482
:101A10007C09782EC7010E947C092FE64FE6672DCE
:101A20000E9427110E94A61FA50194010E94AD22C9
:101A3000CB018C509E4F41E050E060E070E00E948E
:101A40003C116AE070E080E090E00E94CF04015019
:101A50001109C1F603E610E08AE0C82ED12C90ED02
:101A6000892E97E0992EA12CB12C80913C01909168
:101A70003D01081719070CF448C0C801B6010E94BF
:101A800047237B010E947C09782EC7010E947C09B4
:101A9000272D482F6FE38FE30E9427110E94A61F76
:101AA000A50194010E94AD22CB018C509E4F41E0D4
:101AB00050E060E070E00E943C116AE070E080E07D
:101AC00090E00E94CF0401501109CFCF63EE71E086
:101AD000CE010E9497028823C1F063EE71E08BE093
:101AE00091E00E9452240E9409056093F6027093CF
:101AF000F7028093F8029093F90280913C01909153
:101B00003D019093600480935F0468EE71E0CE0124
:101B10000E949702882349F168EE71E08BE091E022
:101B20000E94522440E050E0BA0180ED97E00E940C
:101B30003C1168EE73E080E090E00E94CF048FE0FB
:101B40000E94BF030E94AE1310923E04DF91CF911A
:101B50001F910F91FF90EF90DF90CF90BF90AF90CB
:101B60009F908F907F900C94C113DF91CF911F9124
:101B70000F91FF90EF90DF90CF90BF90AF909F902C
:101B80008F907F900895CF93DF93C1E4D4E0682FC6
:101B90008B810E9490038A8D9B8DDF91CF910C9455
:101BA0009F0481E00C94C30D0F931F930091450493
:101BB00010914604209147043091480440E052E1DE
:101BC0006AE770E090E0041715072607370740F42E
:101BD00076956795579547959F5F9630A1F797E063
:101BE00081E09827892F806A869591700E94280944
:101BF00080E01F910F910C94C30DCF93C82F0E94CA
:101C0000D40D8C2F80620E94210980934904CF91CA
:101C10000C94D10DCF93DF93D82FC62F0E94D40DF3
:101C20008D2F80620E942109809349048C2F0E948D
:101C30002109DF91CF910C94D10D009769F0FC013F
:101C400001900020E9F73197AF01481B590BBC0107
:101C500083E093E00C949E0080E090E008950F9361
:101C60001F93CF93DF9380915304882361F1809178
:101C70005504811108C0C0914A04DC2FCE3108F010
:101C8000DDE1CD1B02C0C0E0DDE10E94D40D89EA98
:101C90000E9421098093490402E011E0D15030F004
:101CA000F80181918F010E942109F8CFCC2329F0FE
:101CB00080E00E942109C150F9CF0E94D10D80918E
:101CC000490480958170DF91CF911F910F91089504
:101CD000CF93C82F0E94D40D8C2F0E94210980938E
:101CE00049048FEF0E942109C82F0E94D10D8C2F2B
:101CF000CF910895FF920F931F93CF93DF93182FE7
:101D0000F62ED72FC42F0E94D40D812F80620E94FF
:101D10002109809349040F2D1D2FCC2339F0F801A0
:101D200081918F010E942109C150F7CFDF91CF919E
:101D30001F910F91FF900C94D10D6091500461FDA3
:101D40000AC062606093500480E00E940A0E8BE13A
:101D50009EE40197F1F70895CF9386E00E94680E04
:101D6000C82FC77D85E590E0A0E0B0E080935704E0
:101D700090935804A0935904B0935A046C2F86E0B2
:101D80000E940A0E86E00E94680E91E0C81390E05F
:101D9000892FCF9108950E94D40D80E50E942109DA
:101DA0008093490483E70E9421090C94D10D83FD9F
:101DB00002C098E001C098E28770982B88E10FB6C6
:101DC000F894A895809360000FBE90936000809176
:101DD0006000806480936000A895089580916400FD
:101DE00080FD08C080917A00806880937A0080B777
:101DF0008F7780BF1092AD0308950F931F93CF93F9
:101E0000DF93C82FD62F86E0C89FF0011124E85435
:101E1000FC4F11A2878D90A181309105D9F040F03F
:101E200082309105A9F10397F1F560E070E034C0CC
:101E30006623C9F161E070E08C2F0E947A0A0E944B
:101E40000905609310047093110480931204909319
:101E5000130429C00E940905009110041091110477
:101E60002091120430911304AB01BC01401B510BB3
:101E7000620B730B8091220490912304A0E0B0E0E8
:101E800084179507A607B70718F462E070E004C04E
:101E9000D11109C063E070E08C2FDF91CF911F91C9
:101EA0000F910C947A0ADF91CF911F910F910895B1
:101EB0008F929F92AF92BF92CF92DF92EF92FF925A
:101EC0000F931F93CF93DF937C014B016A0159015C
:101ED0000E942B09E401C80CD91CCC15DD0529F0A2
:101EE0006991C7010E94F007F8CFE5010A0D1B1D9B
:101EF000C017D10731F06FEFC7010E94F007899337
:101F0000F7CFC7010E94190981E0DF91CF911F919E
:101F10000F91FF90EF90DF90CF90BF90AF909F9088
:101F20008F900895CF92DF92EF92FF920F931F93BD
:101F3000CF93DF9300D0CDB7DEB7FC014787508B3E
:101F4000618B728B8285882311F0448701C043879F
:101F5000452F562F672F7727882311F0438701C01D
:101F600044877F018BE0E80EF11C9681878199837D
:101F70008A83C080D180C114D104B1F1018510E001
:101F800098012E5F3F4FD60114968D919C91159725
:101F90008217930710F480E052C0F601808191E02F
:101FA0009093F5028093F4021092F3021092F202E1
:101FB0000115110541F421E042E050E0B701C601EE
:101FC0000E94A7083CC081819281DC01ED91FC91C7
:101FD0000280F381E02DA801BE016F5F7F4F09955C
:101FE00008171907C1F6E7CFA281B381109799F2BC
:101FF0002481358101852330310539F48E7F898331
:102000009A8310E00F5F1F4F11C02115310511F4A5
:102010009F770AC02230310511F4906805C0213045
:10202000310519F49F779064998310E09E012F5F2A
:102030003F4F42E050E0B701CD010E9443090F90AD
:102040000F90DF91CF911F910F91FF90EF90DF9054
:10205000CF900895CF93DF93C7E3D4E060E0888505
:102060000E94900360E089850E94900361E088856A
:102070000E94900361E08985DF91CF910C949003D9
:10208000CF93DF93C7E3D4E061E088850E9490039B
:1020900061E089850E94900360E089850E94900339
:1020A00060E08885DF91CF910C9490030F931F938C
:1020B000CF93DF93D82FC8E060E080913F040E9467
:1020C0009003D0FF02C061E001C060E08091400455
:1020D0000E949003D59561E080913F040E94900397
:1020E000C15051F760E080913F040E94900361E08D
:1020F000809140040E94900361E080913F040E941F
:10210000900360E0809140040E944A0483EC90E0D8
:102110000197F1F7809140040E9464038C018111C2
:102120000AC061E0809140040E944A0460E080910E
:1021300040040E949003C3ECD0E0CE010197F1F778
:1021400061E0809140040E944A042197F1F7C801A0
:102150009927DF91CF911F910F910895EF92FF92F0
:102160000F931F93CF93DF9300D000D0CDB7DEB78E
:1021700040913E0467E374E0DC018E010F5F1F4F66
:102180009801CD015D91FB015193BF01FC0190814C
:10219000940FF90191939F01F4E06B337F0789F766
:1021A0000E94401080E40E9456100E942A100E9453
:1021B000401080913C040E9456107E0185E0E80E9C
:1021C000F11CF80181918F010E9456100E151F0518
:1021D000C1F70E942A100E94401080913D040E9485
:1021E00056100F900F900F900F90DF91CF911F918D
:1021F0000F91FF90EF900C942A100F931F93CF93A1
:10220000DF93182FC7E3D4E0E82FF0E0E95CFB4F41
:1022100010820F810E94401084E40E9456100E9498
:102220002A100E944010812F806C0E945610802F2F
:102230000E9456100E942A100E9440108E810E9417
:102240005610DF91CF911F910F910C942A10CF93CC
:10225000DF9300D000D0CDB7DEB789836A834B838C
:102260002C83CE0101960E94AE100F900F900F901C
:102270000F90DF91CF9108954F925F926F927F926E
:102280008F929F92AF92BF92CF92DF92EF92FF9286
:102290000F931F93CF93DF9300D000D01F92CDB741
:1022A000DEB78C012A013B01809123018F3021F0A0
:1022B0008F3F09F03DC205C0E2EEF0E024912D838E
:1022C00072C08FE080932301E2EEF0E084918D8371
:1022D0008F3F09F42DC2813009F441C038F18230BA
:1022E00009F061C01092B0001092B1008091B0006E
:1022F00082608093B0008091B10081608093B100D2
:10230000EDEDF0E0E491F0E0EE0FFF1FEC53FF4F36
:10231000859194919093FE028093FD02EFEBF0E0A3
:10232000E491E093FC0222E02D83FDC114BC15BCB6
:1023300084B5826084BD85B5816085BDEDEDF0E03A
:10234000E491F0E0EE0FFF1FEC53FF4F8591949165
:10235000EFEBF0E0E491E09362041D82E4C110929F
:1023600080001092810080918100886080938100BC
:1023700080918100816080938100EDEDF0E0E49137
:10238000F0E0EE0FFF1FEC53FF4F85919491EFEBC0
:10239000F0E0E491E093610461E08FE00E944A0480
:1023A00091E09D838AC08D8187FDC2C161E08FE08D
:1023B0000E944A048D818D7F09F07FC04801A12CC5
:1023C000B12C60E072E18AE790E0A50194010E94DF
:1023D000AD2229833A834B835C8369017A0191E0C2
:1023E000C91AD108E108F1082FEFC216D104E1049F
:1023F000F10409F008F44EC060E472E48FE090E06C
:10240000A50194010E94AD2269017A0181E0C81AF8
:10241000D108E108F1089D81923009F52FEFC2162D
:10242000D104E104F10409F008F444C160E970ED5D
:1024300083E090E0A50194010E94AD2269017A0138
:1024400081E0C81AD108E108F1089FEFC916D1044C
:10245000E104F10411F008F0BAC083E027C02FEFC7
:10246000C216D104E104F104B9F0B0F068E478EEEA
:1024700081E090E0A50194010E94AD2269017A01FA
:1024800081E0C81AD108E108F1089D81992309F477
:1024900013C1DCC081E001C082E09D81911106C0C2
:1024A00095B5987F892B85BD44C085E09091B1009A
:1024B000987F892B8093B1003CC04801A12CB12C9E
:1024C00060E072E18AE790E0A50194010E94AD22EC
:1024D00069017A0181E0C81AD108E108F108C11444
:1024E000D10491E0E906F10488F068E478EE81E037
:1024F00090E0A50194010E94AD2269017A0181E07A
:10250000C81AD108E108F10883E001C081E09D818B
:10251000913079F490918100987F892B809381008C
:10252000411451046104710449F42FEF3FEFA901F4
:102530002CC0411451046104710471F0D801AA0F38
:10254000BB1FA30192010E94CC2228EE33E040E0A1
:1025500050E00E94162303C02FEF3FEFA9018D81A9
:10256000813099F0823019F18111E2C0C7BC20930B
:102570006704309368044093690450936A0480911F
:102580006E00826080936E00D3C0D0928900C092AA
:10259000880020936304309364044093650450934F
:1025A000660480916F00826080936F00C1C0C0920A
:1025B000B3002093FF023093000340930103509334
:1025C000020380917000826080937000B1C068E463
:1025D00078EE81E090E0A50194010E94AD226901AE
:1025E0007A0191E0C91AD108E108F1082FEFC2166B
:1025F000D104E104F10441F138F164E274EF80E0C8
:1026000090E0A50194010E94AD2269017A0181E068
:10261000C81AD108E108F1089FEFC916D104E104F6
:10262000F10409F008F441CF62E17AE780E090E03C
:10263000A50194010E94AD2269017A0181E0C81AC6
:10264000D108E108F10819C084E030CF2FEFC2169D
:10265000D104E104F10409F008F463C062E17AE70F
:1026600080E090E0A50194010E94AD2269017A0109
:1026700091E0C91AD108E108F1088FEFC816D1041A
:10268000E104F104A9F0A0F089819A81AB81BC81B9
:102690002AE0B595A795979587952A95D1F76C016E
:1026A0007D0121E0C21AD108E108F10887E0FECEE1
:1026B00086E0FCCE82E0FACE8FEFC816D104E104AA
:1026C000F10469F160F162E17AE780E090E0A50150
:1026D00094010E94AD2269017A0191E0C91AD108E2
:1026E000E108F1082FEFC216D104E104F104A9F0CA
:1026F000A0F089819A81AB81BC813AE0B595A7951C
:10270000979587953A95D1F76C017D0121E0C21A22
:10271000D108E108F10885E0C3CE84E0C1CE83E0B2
:10272000BFCE84E0BACE61E08FE00E944A0446CE7C
:102730000F900F900F900F900F90DF91CF911F91FE
:102740000F91FF90EF90DF90CF90BF90AF909F9050
:102750008F907F906F905F904F90089580E00E94DF
:10276000FD1081E00E94FD1082E00E94FD1083E0D8
:102770000E94FD10E7E3F4E01082118212821382BE
:10278000089587E394E00C94AE10CF93DF93CDB718
:10279000DEB7C454D1090FB6F894DEBF0FBECDBF6B
:1027A000789484B5826084BD84B5816084BD85B52C
:1027B000826085BD85B5816085BD80916E00816038
:1027C00080936E00109281008091810082608093DE
:1027D00081008091810081608093810080918000E0
:1027E0008160809380008091B10084608093B1000B
:1027F0008091B00081608093B00080917A00846005
:1028000080937A0080917A00826080937A00809130
:102810007A00816080937A0080917A00806880934A
:102820007A001092C100E0911303F091140382E04A
:102830008083E0911303F09114031082E0910F0361
:10284000F09110031082E0911103F091120380E1E6
:10285000808310921B03E0911703F091180386E028
:102860008083E0911503F09116038081806180835D
:10287000E0911503F0911603808188608083E091D8
:102880001503F0911603808180688083E091150321
:10289000F091160380818F7D808360E070E089E88D
:1028A00092E00E9423200E94AE1380E480933B04B8
:1028B00080EC80933C048BE880933D040E94C1131C
:1028C00061E08EE00E944A0461E08EE00E94900385
:1028D000109206020E94AA046B017C0180E00E9413
:1028E000D70E809106028823E1F30FB6F894A895DD
:1028F00080916000886180936000109260000FBE3C
:102900000E94AA046C197D097093B2036093B1030D
:102910008091270490912804892BA9F486E090E007
:102920000E948A20FC0180912A04808380EA93E03F
:1029300092838183138280E290E095838483F09375
:102940002804E09327040091270410912804109292
:102950003802109237021092F3021092F2020E9493
:102960005F058BEF91E090930A02809309028CEF50
:1029700091E09093080280930702FF24F394D8011A
:102980001396FC92C8010E94CA08882309F45BC010
:1029900080E090E1A0E0B0E080932B0490932C04C1
:1029A000A0932D04B0932E048AE090E0A0E0B0E064
:1029B00080932F0490933004A0933104B093320499
:1029C00080E090E0A0E0B0E480933304909334047E
:1029D000A0933504B0933604809127049091280485
:1029E00019AA1AAA1BAA1CAA9BA38AA31DA21CA2ED
:1029F000FBA6A5E0B0E0B9A7A8A7FCA612E01AA71D
:102A000040E050E160E070E0CE0182960E94920FBB
:102A10008091270490912804188A198A1A8A1B8A9F
:102A20009A8389831C821B82FA8618861F82FB8602
:102A300019874FE959E360E070E0CE0101960E94EA
:102A4000920F8093290480E090E2A0E0B0E08093B0
:102A50002B0490932C04A0932D04B0932E0484E1B6
:102A600090E0A0E0B0E080932F0490933004A09316
:102A70003104B093320480E090E0A0E8BFE380939B
:102A8000330490933404A0933504B09336048091BA
:102A900027049091280419AA1AAA1BAA1CAA9BA36E
:102AA0008AA31DA21CA211E01BA7A5E0B0E0B9A754
:102AB000A8A71CA702E00AA740E050E260E070E08F
:102AC000CE0182960E94920F809127049091280453
:102AD000188A198A1A8A1B8A9A8389831C821B8204
:102AE0001A8718861F821B8709874FE951E060E02B
:102AF00070E0CE0101960E94920F809329042090ED
:102B0000270430902804188A198A1A8A1B8A3A8264
:102B100029821C821B821A8782E090E098878F832B
:102B20001B8709870AA31BA22114310409F421C1C0
:102B3000F10184819581892B09F41BC18081109357
:102B4000F5028093F4021092F3021092F20220E058
:102B500041E050E0BE016E5D7F4FC1010E94A708B9
:102B6000B82E882309F405C1C12CD12CAA24A39422
:102B7000D10114968D919C91159702E0E02EF12CD5
:102B8000EC18FD088E159F0508F47C01F10190807A
:102B90000E94AA042B013C0110913102112339F14A
:102BA0008091330290913402A0913502B0913602A7
:102BB000892B8A2B8B2B81F30E94AA04009133026C
:102BC000109134022091350230913602DC01CB01A4
:102BD00084199509A609B709081719072A073B0799
:102BE000D8F6809132020E947D0510E09BC00E2D28
:102BF000013208F000E2A092310221E082E090E090
:102C00008E199F09C816D90608F420E020933002D7
:102C1000FFEFF0932F0210922E028FEF800F809320
:102C20002D02A0922C0280912C02990C982A90924D
:102C30002C0280912B02813099F510922B020E9478
:102C4000AA042B013C0180912C028093BB0080914F
:102C5000330290913402A0913502B0913602892B53
:102C60008A2B8B2BA9F00E94AA0420913302309169
:102C700034024091350250913602DC01CB018419B7
:102C80009509A609B709281739074A075B07A0F174
:102C90008091BC0083FDD7CF25EC2093BC0003C0FE
:102CA00035EE3093BC000E94AA042B013C018091B8
:102CB0003102813031F58091330290913402A0913C
:102CC0003502B0913602892B8A2B8B2B81F30E941F
:102CD000AA04209133023091340240913502509180
:102CE0003602DC01CB0184199509A609B70928171A
:102CF00039074A075B07D8F6809132020E947D05AA
:102D000011C080912E02801710F400912E02EBE08A
:102D1000F2E0A9E3B2E010E0101721F081918D9369
:102D20001F5FFACF1092380210933702812F90E084
:102D3000E816F906F1F401E010E00C0F1D1F0C0D70
:102D40001D1D4801C801881999098E159F0598F421
:102D5000D10111968D919C911297DC01ED91FC911E
:102D60000284F385E02D0995F80183870F5F1F4FDB
:102D7000E9CFB12C09C0CE0CDF1C22E0C216D10471
:102D800008F4F6CEB11027C5B092290425966EAD91
:102D90007FAD2597B3E076956795BA95E1F7660F15
:102DA000771F660F771F072E000C880B990B0E9468
:102DB000B4212FE632E143E85AE30E94EF21609309
:102DC0000701709308018093090190930A011FB7CE
:102DD000F89480916902811127C0E8EDF0E08491B8
:102DE000EAEBF0E09491E82FF0E0EE0FFF1FE458DB
:102DF000FF4FA591B491EC91E92321F461E08AE0C1
:102E00000E94900361E08AE00E944A048CB58061D0
:102E10008CBD8CB580648CBD61E08DE00E944A045D
:102E200061E08BE00E944A04809169028F5F809389
:102E300069021FBF809143048F3F09F472C09091D3
:102E400044049F3F09F46DC0891741F061E00E947E
:102E50004A0461E0809144040E944A048091430442
:102E600090914404891719F060E00E94900381E07A
:102E70000E94C30D65E070E080E090E00E94CF0406
:102E80006FE584E00E940A0E0E94AC0E8DE10E9464
:102E9000680E182F0E94CB0E8DE10E94680E91E003
:102EA000181390E0909351048111A6C4109253041A
:102EB00060E08CE10E940A0E109255046FE381E0FD
:102EC0000E940A0E63E082E00E940A0E80E2809374
:102ED0004A0411E160914A04812F0E940A0E1F5F8B
:102EE0001731C1F763E083E00E940A0E85E080930A
:102EF00054046CE40E940A0E60E787E00E940A0E08
:102F000082EE0E94FD0D81EE0E94FD0D6CE080E0DE
:102F10000E940A0E80E00E94680E809350040E9476
:102F20009D0E64E685E00E940A0E0E94AC0E86E0CB
:102F30000E94680E682F676086E00E940A0E8091EA
:102F40005304811115C08DE10E94680E682F6660E0
:102F50008DE10E940A0E8CE10E94680E682F63606A
:102F60008CE10E940A0E81E0809355048093530403
:102F700081E18DAB8DED8EAB8CEC8FAB8BEB88AFA5
:102F80008AEA89AF1AAE1BAE1CAEE7E8F0E0849186
:102F900040915404BE016B5C7F4F0E947A0E82E028
:102FA0000E94680EEDE8F0E0E49161E070E001C09D
:102FB000660FEA95EAF7682B82E00E940A0E0E94EB
:102FC0009D0E6091500461606093500480E00E9407
:102FD0000A0E60E787E00E940A0E809143049091F8
:102FE0004404891719F061E00E9490038091520413
:102FF000882341F0409154046BE474E08AE00E941D
:103000007A0E14C082E00E94680EECE8F0E0E491D1
:1030100021E030E001C0220FEA95EAF72095622F07
:10302000682382E00E940A0E109252040E942F0E22
:1030300064E670E080E090E00E94CF048FEF0E9491
:10304000FD0D8091490490E09595879587708630B5
:1030500008F4DBC319C00E94D10D60E487E00E9430
:103060000A0E6AE672E0CE0101960E94BE0266E791
:1030700071E0CE0101960E949702182FCE010196B1
:103080000E94B6021111EEC36BE071E0CE01019611
:103090000E94BE026AEA71E0CE0101960E94970288
:1030A00081112AC06BE071E0CE0182960E94BE02BF
:1030B00068EE71E0CE0182960E949702811116C0DF
:1030C0006BE071E0CE01CD960E94BE026CE971E02A
:1030D000CE01CD960E94970281116DC585E10E94B7
:1030E000640311E0892B09F067C565C510E0CE01C6
:1030F00082960E94B60201C010E0CE0101960E94A5
:10310000B602112371F06AEA71E0CE0101960E94C5
:10311000BE02CE0101960E949D0ACE0101960E9438
:10312000B6026BE071E0CE0101960E94BE026AEA2F
:1031300071E0CE0101960E949702882331F085E16B
:103140000E948A0411E0892B09F010E0CE0101965B
:103150000E94B602112371F06AEB71E0CE01019674
:103160000E94BE02CE0101960E949D0ACE010196E8
:103170000E94B6026BE071E0CE0101960E94BE0291
:103180006AEB71E0CE0101960E949702182FCE01E2
:1031900001960E94B602112309F4A2C10E94990966
:1031A00081E0809324040E94090500911404109189
:1031B00015042091160430911704AB01BC01401B8B
:1031C000510B620B730B8091200490912104A0E0BD
:1031D000B0E084179507A607B70708F0E9C010E02C
:1031E00080911E04181710F0912C42C0E0911A042F
:1031F000F0911B04E10FF11D62E080810E944A04FE
:103200001F5FEECF082D10E0E0911A04F0911B042F
:10321000E00FF11F80810E9464030C5F1F4F000FBD
:10322000111FF801E854FC4F892B09F04DC0808133
:1032300091818A299B2991838083839480911E04A4
:10324000881600F3E0911C04F0911D04EE0DFF1DA3
:1032500061E080810E94900380911C0490911D0484
:10326000FC01EE0DFF1D60E080810E944A049394F2
:1032700080911F04981668F5E92CF12CE0911C044C
:10328000F0911D04EE0DFF1D61E080810E944A0453
:10329000E0911C04F0911D04EE0DFF1D60E08081A3
:1032A0000E94900381E090E0A0E0B0E0092C04C00F
:1032B000880F991FAA1FBB1F0A94D2F75C016C01EB
:1032C000C094D094812CBACF808191818C219D2192
:1032D000B2CF38EBE32E33E0F32EF701878D90A1C8
:1032E000892B31F4148EAFEFBFEFB68FA58F11A2EB
:1032F0003696B3E0E43FFB0789F7D12C26E0B22EE7
:1033000080911E04D81658F5C12C0D2D10E0000F29
:10331000111F00541C4F20911F04C216F0F4F80135
:10332000408151810C2C02C0569547950A94E2F7D2
:10333000642F6170D29E900111242C0D311DE8EB99
:10334000F3E080E0A58DB68D2A173B0709F455C43C
:103350008F5F36968A30B1F734C4D394D1CF10E062
:10336000D70191968C91811111E0B6E0EB0EF11C22
:10337000E4EFEE16E3E0FE0699F70E94090560937C
:10338000140470931504809316049093170411236A
:1033900079F08091D903882359F08091D7039091D7
:1033A000D803019729F41091D403111104C098C0D7
:1033B0001092240495C00E94A61F24EF31E040E043
:1033C00050E00E94AD22CB018C509E4F42E350E072
:1033D00060E070E00E943C11812F110F990BC097A3
:1033E0002091FA023091FB02A9014F5F5F4F509389
:1033F000FB024093FA02109265021092660210924C
:103400006702109268022130310599F03CF4232BB9
:10341000D1F490935E0280935D0262C02230310548
:1034200069F02330310579F490936402809363024C
:103430000EC09093600280935F0252C0909362022C
:10344000809361024DC0443051050CF449C0409155
:103450005D0250915E0288EE93E0489F9001499F83
:10346000300D589F300D112440915F025091600241
:1034700064E6649FC001659F900D1124820F931F25
:1034800040916102509162026AE0649F9001659FE1
:10349000300D1124820F931F20916302309164023A
:1034A000820F931F20910001309101018217930731
:1034B00009F4ADC30E94990940E050E0BA018AE0E6
:1034C00090E00E943C1168EE73E080E090E00E9482
:1034D000CF048FE00E94BF031092FB021092FA0209
:1034E0006BE071E0CE0101960E94BE026EEC71E0CD
:1034F000CE0101960E949702882331F084E10E9458
:103500008A0411E0892B09F010E0CE0101960E9497
:10351000B602112371F063EE71E0CE0101960E94B4
:10352000BE02CE0101960E949D0ACE0101960E9424
:10353000B6026BE071E0CE0101960E94BE0263EE1E
:1035400071E0CE0101960E949702182FCE010196DC
:103550000E94B602112309F473C00E940905DC0120
:10356000CB01845F9140A109B1090091F60210914D
:10357000F7022091F8023091F902081719072A077B
:103580003B0728F480E880933E040E94C1130E9408
:103590000905DC01CB01885E9340A109B1090091C6
:1035A000F6021091F7022091F8023091F902081703
:1035B00019072A073B0780F50E9409056093F60268
:1035C0007093F7028093F8029093F90244E650E07A
:1035D00060E070E080ED97E00E943C1180915F0414
:1035E0009091600401979093600480935F046AE077
:1035F00070E00E9447238B010E947C09F82EC801CD
:103600000E947C092F2D482F6FE38FE30E94271122
:1036100010923E040E94C11380915F049091600457
:10362000892B71F468EE71E0CE0101960E94BE0212
:10363000CE0101960E949D0ACE0101960E94B6021B
:103640000E94090500918302109184022091850255
:1036500030918602DC01CB01801B910BA20BB30BD6
:1036600000911F0110912001209121013091220130
:10367000081719072A073B0708F0AAC00E94090586
:1036800060938302709384028093850290938602F4
:1036900080E69AEEA0E0B0E080931F0190932001B5
:1036A000A0932101B093220160E08EE00E9490037C
:1036B0001092AC031092B60381E08093AD03809129
:1036C000B0038D7F41F080917A008F7780937A00EC
:1036D00080B7806880BF88EDC82E86EDD82EE12C9B
:1036E000F12C8091B3039091B403A0E0B0E08C156D
:1036F0009D05AE05BF0508F046C08091B7038A302E
:1037000010F40E94D70E83B7817F9091B003892B6C
:1037100083BF83B7816083BF8091AF03811106C0EF
:10372000F89485B7806685BF8F7D85BF789488952E
:103730000FB6F894A895809160008861809360002E
:10374000109260000FBEA89583B78E7F83BF8091D3
:10375000B3039091B403C81AD90AE108F108909113
:10376000B6038091B503890F8D3730F0F1E0CF1AA1
:10377000D108E108F1088D578093B6038091AC031E
:10378000882309F4AECF8091AE038823D9F02FB7F8
:10379000F8948091590290915A02A0915B02B091E5
:1037A0005C0288529942AF4FBF4F8C199D09AE09F8
:1037B000BF098093590290935A02A0935B02B09381
:1037C0005C022FBF0E94EE0E61E08EE00E9490032B
:1037D0000E94A0019DC82B858C859D85211105C067
:1037E00025969FAF8EAF2597CFCA382F292F2596C4
:1037F0003FAF2EAF2597C8CA181302C00E94CB0E48
:1038000060E08DE10E940A0E51CB80915504811138
:103810000AC080914A04E82E8A3110F069E1E62E50
:10382000F82EFE1803C0F12C59E1E52E0E94D40DAC
:1038300081E60E942109809349040AE612E0EA9495
:103840003FEFE31639F08FEF0E942109D8018D93E5
:103850008D01F5CFFF2009F4FECB8FEF0E942109E7
:10386000FA94F8CF84E792E00E941D0E8FE791E072
:103870000E941D0EC0900001D09001010D2C000C83
:10388000EE08FF08F7FE22C06DE283E093E00E949D
:10389000310122273327A9012C193D094E095F095F
:1038A00019A28E010F5D1F4FCA01B9012AE030E055
:1038B00040E050E00E941623605DF80162938F01A2
:1038C000211531054105510579F717C0A70196016A
:1038D00019A28E010F5D1F4FCA01B9012AE030E025
:1038E00040E050E00E941623605DD8016E938D0188
:1038F000211531054105510579F7C8010E941D0EBA
:1039000081E891E00E941D0E64E772E0CE0101960D
:103910000E94BE0264E871E0CE0101960E94970207
:10392000182FCE0101960E94B60211110E942F0E8F
:1039300064E772E0CE0101960E94BE026DE871E07C
:10394000CE0101960E949702182FCE0101960E9487
:10395000B602112309F4F3C06EE772E0CE010196BE
:103960000E94BE0266E971E0CE0101960E949702B4
:10397000182FCE0101960E94B602112371F00E9409
:103980002F0E80E497E7ABE1B0E080931F019093A6
:103990002001A0932101B09322016EE772E0CE01D5
:1039A00001960E94BE0269E971E0CE0101960E9473
:1039B0009702182FCE0101960E94B602112381F0C2
:1039C0000E942F0E6CE971E0CE0101960E94BE02AA
:1039D000CE0101960E949D0ACE0101960E94B60278
:1039E0006EE772E0CE0101960E94BE0267EA71E0C6
:1039F000CE0101960E949702182FCE0101960E94D7
:103A0000B602112381F00E942F0E6AEA71E0CE0106
:103A100001960E94BE02CE0101960E949D0ACE012F
:103A200001960E94B6026EE772E0CE0101960E94F6
:103A3000BE0266EB71E0CE0101960E949702182F3C
:103A4000CE0101960E94B602112381F00E942F0E32
:103A50006AEB71E0CE0101960E94BE02CE01019692
:103A60000E949D0ACE0101960E94B6026EE772E0A6
:103A7000CE0101960E94BE026AEC71E0CE01019671
:103A80000E949702182FCE0101960E94B6021123C0
:103A900081F00E942F0E6EEC71E0CE0101960E9423
:103AA000BE02CE0101960E949D0ACE0101960E949F
:103AB000B6026EE772E0CE0101960E94BE026FED83
:103AC00071E0CE0101960E949702182FCE01019657
:103AD0000E94B602112381F00E942F0E63EE71E066
:103AE000CE0101960E94BE02CE0101960E949D0A5F
:103AF000CE0101960E94B6026EE772E0CE010196F9
:103B00000E94BE0260EE71E0CE0101960E94970213
:103B1000182FCE0101960E94B602112381F00E9457
:103B20002F0E68EE71E0CE0101960E94BE02CE011A
:103B300001960E949D0ACE0101960E94B60264E79A
:103B400072E0CE0101960E94BE0262EF71E0CE01EA
:103B500001960E949702182FCE0101960E94B6028C
:103B6000112351F00E942F0E8EE792E00E94FD1F5C
:103B7000909301018093000164E772E0CE01019609
:103B80000E94BE026BEF71E0CE0101960E94970287
:103B9000182FCE0101960E94B602112309F474CAAF
:103BA0000E942F0E8EE792E00E94FD1F90933D0130
:103BB00080933C0169CA10E0CE01CD960E94B60206
:103BC00096CA40FF1CC0E8EBF3E080E090E0448D33
:103BD000411117C0E0911804F0911904E20FF31F8E
:103BE0004081B89EF001B99EF00D1124E854FC4FBD
:103BF000448F368F258F10A2178E0E94FD0EC3941E
:103C00008ACB019636968A30910509F7F8CF40E0C5
:103C100050E0BA0184EF91E00E943C1164E670E04C
:103C200080E090E00E94CF048FE00E94BF0340E05C
:103C300050E0BA0188EE93E00E943C1164E670E027
:103C400080E090E00E94CF048FE00E94BF036EEC02
:103C500071E0CE0101960E94BE02CE0101960E9443
:103C60009D0ACE0101960E94B6023ACC80912704AB
:103C7000909128040C9422211092060310920503BF
:103C800088EE93E0A0E0B0E08093070390930803F0
:103C9000A0930903B0930A032CE431E030930403AA
:103CA0002093030325EC30E03093100320930F039F
:103CB00024EC30E0309312032093110320EC30E029
:103CC000309314032093130321EC30E03093160358
:103CD0002093150322EC30E0309318032093170350
:103CE00026EC30E030931A032093190310921C0342
:103CF00010921D0310921E0310921F031092A30333
:103D00001092A2038093A4039093A503A093A6030B
:103D1000B093A7038EE591E09093A1038093A00355
:103D2000ECEAF3E08CE0DF011D928A95E9F710924E
:103D3000AC031092AD0381E08093AE0392E09093C8
:103D4000B00320E83EE33093B2032093B10320E8B0
:103D500030E03093B4032093B30393E09093B70320
:103D600020913C0130913D013093600420935F0429
:103D700099E0909343049AE09093440440E856E914
:103D800068E970E04093450450934604609347040B
:103D90007093480490E290934A0410925104109258
:103DA000520495E0909354048093550485E090E08C
:103DB000A0E0B0E080935B0490935C04A0935D046A
:103DC000B0935E048BE694E09093420480934104A8
:103DD00010924B0481E180933F0480E18093400482
:103DE00061E081E10E944A0461E0809140040E9408
:103DF0004A04109228041092270480E480932A0435
:103E000010922F0410923004109231041092320458
:103E10001092330410923404109235041092360438
:103E20001092BA031092BE031092BD031092BF030A
:103E300080E791E09093B9038093B803E8EBF3E057
:103E4000148E10A2178E11A23696B3E0E43FFB0742
:103E5000B9F788E291E090931B0480931A0484E2FE
:103E600091E090931D0480931C0484E080931E04D1
:103E700080931F048CE291E09093190480931804BE
:103E80008AE090E0909321048093200484EF91E0F5
:103E90009093230480932204109226041092250408
:103EA0001092140410921504109216041092170424
:103EB0001092240408958F929F92AF92BF92CF9256
:103EC000DF92EF92FF92CF93DF93EC0168817981CB
:103ED0008A819B81611571058105910521F464E258
:103EE00079ED8BE597E02DE133EF41E050E00E9462
:103EF000AD2249015A019B01AC01A7EAB1E40E943D
:103F0000CC226B017C01ACEEB4EFA50194010E94C0
:103F1000DA22DC01CB018C0D9D1DAE1DBF1DB7FF4C
:103F200003C00197A109B04888839983AA83BB8302
:103F3000BC01CD019F77DF91CF91FF90EF90DF9093
:103F4000CF90BF90AF909F908F9008958F929F9247
:103F5000AF92BF92CF92DF92EF92FF9260913E01BB
:103F600070913F018091400190914101611571056F
:103F70008105910521F464E279ED8BE597E02DE16F
:103F800033EF41E050E00E94AD2249015A019B010C
:103F9000AC01A7EAB1E40E94CC226B017C01ACEE3B
:103FA000B4EFA50194010E94DA22DC01CB018C0D53
:103FB0009D1DAE1DBF1DB7FF03C00197A109B048ED
:103FC00080933E0190933F01A0934001B093410143
:103FD000BC01CD019F77FF90EF90DF90CF90BF9015
:103FE000AF909F908F90089560933E0170933F0132
:103FF00080934001909341010895FC0188279927FF
:10400000E89421912032E9F3293010F02E30C8F3E2
:104010002B3241F02D3239F4689404C00E941B20E9
:10402000820F911D219120532A30C0F31EF49095E8
:1040300081959F4F08957AE0979F902D879F802DBF
:10404000910D112408950F931F93CF93DF93009741
:1040500031F46115710519F480E090E03AC08B01EC
:10406000EC016EE070E081E090E00E946E20FC01C7
:10407000892B91F380E883830115110571F0138773
:10408000028781E8838380916C0490916D04892B71
:1040900021F4F0936D04E0936C042097C9F0D1876C
:1040A000C08783818260838380916E0490916F04C6
:1040B000892B71F4F0936F04E0936E048091700487
:1040C00090917104892B21F4F0937104E0937004B2
:1040D000CF01DF91CF911F910F9108950F931F93FF
:1040E000CF93DF93869F8001879F100D969F100DC1
:1040F0001124C8010E948A20EC01009729F0A80130
:1041000060E070E00E94AB21CE01DF91CF911F9162
:104110000F9108950F931F93CF93DF9382309105F2
:1041200010F482E090E0E0917404F091750420E0D6
:1041300030E0A0E0B0E0309719F140815181028178
:10414000138148175907C8F08417950769F4109729
:1041500031F012960C93129713961C9327C000937C
:1041600074041093750422C02115310519F042170B
:10417000530718F49A01BD01EF01DF01F801DBCF0D
:1041800021153105F9F0281B390B2430310580F455
:104190008A819B816115710521F0FB0193838283E4
:1041A00004C09093750480937404FE01329644C059
:1041B000FE01E20FF31F819391932250310939835D
:1041C00028833AC02091720430917304232B41F468
:1041D000209144013091450130937304209372047F
:1041E00020914201309143012115310541F42DB751
:1041F0003EB74091460150914701241B350BE09199
:104200007204F0917304E217F307A0F42E1B3F0B26
:104210002817390778F0AC014E5F5F4F2417350738
:1042200048F04E0F5F1F50937304409372048193C4
:10423000919302C0E0E0F0E0CF01DF91CF911F91B8
:104240000F910895CF93DF93009709F481C0FC018B
:10425000329713821282A0917404B0917504109762
:1042600081F420813181820F931F2091720430915B
:1042700073042817390751F5F0937304E09372041F
:1042800067C0ED0120E030E0CE17DF0740F44A813F
:104290005B819E0141155105F1F0EA01F5CFD38311
:1042A000C28340815181840F951FC817D90759F4E3
:1042B00088819981840F951F0296918380838A81DA
:1042C0009B81938382832115310529F4F093750432
:1042D000E09374043DC0E901FB83EA83499159915D
:1042E000C40FD51FEC17FD0761F480819181840F05
:1042F000951F0296E90199838883828193819B832C
:104300008A83E0E0F0E012968D919C9113970097DC
:1043100019F0FD01DC01F7CF8D919C9111979D0162
:104320002E5F3F4F820F931F2091720430917304D0
:104330002817390769F4309729F410927504109200
:10434000740402C013821282B0937304A0937204A7
:10435000DF91CF910895DC0101C06D934150504031
:10436000E0F70895E89409C097FB3EF49095809596
:10437000709561957F4F8F4F9F4F9923A9F0F92F2B
:1043800096E9BB279395F695879577956795B795A9
:10439000F111F8CFFAF4BB0F11F460FF1BC06F5F8F
:1043A0007F4F8F4F9F4F16C0882311F096E911C0A1
:1043B000772321F09EE8872F762F05C0662371F0C2
:1043C00096E8862F70E060E02AF09A95660F771FD6
:1043D000881FDAF7880F9695879597F908950E94B8
:1043E00002220C9473220E94652238F00E946C22F3
:1043F00020F0952311F00C945C220C94622211247D
:104400000C94A7220E94842270F3959FC1F3950F0C
:1044100050E0551F629FF001729FBB27F00DB11D48
:10442000639FAA27F00DB11DAA1F649F6627B00DD8
:10443000A11D661F829F2227B00DA11D621F739FC1
:10444000B00DA11D621F839FA00D611D221F749FCF
:104450003327A00D611D231F849F600D211D822F16
:10446000762F6A2F11249F5750409AF0F1F088233D
:104470004AF0EE0FFF1FBB1F661F771F881F91506A
:104480005040A9F79E3F510580F00C945C220C949B
:10449000A7225F3FE4F3983ED4F38695779567951E
:1044A000B795F795E7959F5FC1F7FE2B880F911D94
:1044B0009695879597F9089597F99F6780E870E03A
:1044C00060E008959FEF80EC089500240A9416168A
:1044D000170618060906089500240A9412161306F2
:1044E000140605060895092E0394000C11F4882380
:1044F00052F0BB0F40F4BF2B11F460FF04C06F5F9C
:104500007F4F8F4F9F4F089557FD9058440F551F71
:1045100059F05F3F71F04795880F97FB991F61F045
:104520009F3F79F087950895121613061406551FBC
:10453000F2CF4695F1DF08C0161617061806991F28
:10454000F1CF86957105610508940895E894BB271D
:1045500066277727CB0197F90895052E97FB1EF460
:1045600000940E94C42257FD07D00E94162307FC26
:1045700003D04EF40C94C42250954095309521956B
:104580003F4F4F4F5F4F089590958095709561957F
:104590007F4F8F4F9F4F08950E943823A59F900D06
:1045A000B49F900DA49F800D911D11240895B7FF15
:1045B0000C94CC220E94CC22821B930B08952F9244
:1045C0003F924F925F926F927F928F929F92AF92A3
:1045D000BF92CF92DF92EF92FF920F931F93CF93F0
:1045E000DF93CDB7DEB7CA1BDB0B0FB6F894DEBF87
:1045F0000FBECDBF09942A88398848885F846E84AD
:104600007D848C849B84AA84B984C884DF80EE80F6
:10461000FD800C811B81AA81B981CE0FD11D0FB6FF
:10462000F894DEBF0FBECDBFED010895A1E21A2EB2
:10463000AA1BBB1BFD010DC0AA1FBB1FEE1FFF1F46
:10464000A217B307E407F50720F0A21BB30BE40B96
:10465000F50B661F771F881F991F1A9469F76095DD
:104660007095809590959B01AC01BD01CF01089597
:10467000A29FB001B39FC001A39F700D811D1124A3
:10468000911DB29F700D811D1124911D089597FBFE
:10469000072E16F4009407D077FD09D00E946123FD
:1046A00007FC05D03EF4909581959F4F0895709535
:1046B00061957F4F0895EE0FFF1F0590F491E02D57
:1046C0000994AA1BBB1B51E107C0AA1FBB1FA61759
:1046D000B70710F0A61BB70B881F991F5A95A9F7AB
:1046E00080959095BC01CD010895A0E0B0E0EBE786
:1046F000F3E20C94E322EC01009721F4CB010E9439
:104700008A20B4C0FC01E60FF71F9C01225031093A
:10471000E217F30708F4A8C0D9010D911C91119775
:1047200006171707B0F00530110508F49BC0C80143
:1047300004978617970708F495C002501109061BC5
:10474000170B019311936D937C93CF010E9422214B
:1047500089C05B01A01AB10A4C01800E911EA09184
:104760007404B0917504612C712CE12CF12C10971C
:1047700009F446C08D919C911197A815B905B1F522
:104780006C0142E0C40ED11CCA14DB0478F14C0168
:104790008A189B08640142E0C40ED11C1296BC909A
:1047A00012971396AC91B5E0CB16D10440F0B282CB
:1047B000A38391828082D9016D937C9309C00E5F9F
:1047C0001F4F800F911FF90191838083EB2DFA2FEA
:1047D000E114F10431F0D7011396FC93EE93129794
:1047E00041C0F0937504E09374043CC068167906E8
:1047F00008F43C017D0112960D90BC91A02DB7CF1D
:10480000809172049091730488169906E1F46616FB
:104810007706C8F48091420190914301009741F4DA
:104820008DB79EB74091460150914701841B950B6F
:10483000E817F907C8F4F0937304E0937204F901E0
:10484000718360830FC0CB010E948A207C01009796
:1048500059F0A801BE010E944024CE010E942221ED
:10486000C70104C0CE0102C080E090E0CDB7DEB742
:10487000EEE00C94FF2281E090E0F8940C9459242F
:10488000FB01DC0102C001900D9241505040D8F76D
:104890000895FB01DC018D91019080190110D9F37D
:1048A000990B0895FB01DC0101900D920020E1F7C6
:1048B000089510E0C3E7D0E004C0FE010E945B232E
:0C48C0002196C437D107C9F7F894FFCF48
:1048CC00D204426F6D62610000000044696E616D3C
:1048DC006F5F4F6666000000000000000000006083
:1048EC00EA0000FF05040302060708093134372AE1
:1048FC0032353830333639234142434414000100F9
:10490C0000000000760420000000000031019E0031
:10491C00C8007E01F900D700EB0000000000560231
:10492C0029028602FD0121020D02FE010000000099
:10493C00860446048D03546F5F426F6D62610020E4
:10494C00000D0A004765745F496E666F005365740D
:10495C005F5374617400575500444F0044696E6195
:10496C006D6F5F4F66660057470057686169745FEB
:10497C004761796B610057434500576169745F4328
:10498C006F64655F456E74657200575453005761D0
:10499C0069745F54696D65725F537461727400570A
:1049AC00544500576169745F54696D65725F456E5B
:1049BC0064005365745F50617373005365745F5486
:0649CC00696D6572000038
:00000001FF
