:100000000C9474000C949C000C949C000C949C0028
:100010000C949C000C949C000C9404090C94EA032E
:100020000C949C000C949C000C949C000C949C00E0
:100030000C949C000C949C000C949C000C949C00D0
:100040000C9415050C949C000C9432030C940C0336
:100050000C949C000C949C000C949C000C949C00B0
:100060000C94D6050C949C0095098409970986097F
:1000700088098A098C098E09900992090A0B0C0DCE
:100080000E0F0001020304050000000023002600FB
:10009000290000000008000201000003040700001E
:1000A000000000000000010204081020408001024E
:1000B00004081020010204081020000000002500A0
:1000C00028002B00040404040404040402020202B5
:1000D00002020303030303030200000000240027BD
:1000E000002A0000251F1F1F11241FBECFEFD8E0DC
:1000F000DEBFCDBF12E0A0E0B1E0ECE3FCE402C063
:1001000005900D92A032B107D9F724E0A0E2B2E049
:1001100001C01D92A039B207E1F710E0C3E7D0E0BB
:1001200004C02197FE010E941325C237D107C9F7E9
:100130000E94F5140C9411260C940000CF92DF92CB
:10014000EF92FF920F931F93CF93DF936C017A018D
:100150008B01C0E0D0E0CE15DF0581F0D8016D91B4
:100160008D01D601ED91FC910190F081E02DC60149
:100170000995892B11F02196EECF7E01C701DF9101
:10018000CF911F910F91FF90EF90DF90CF90089546
:10019000FC01538D448D252F30E0842F90E0821B8D
:1001A000930B541710F0CF96089501970895FC0112
:1001B000918D828D981761F0828DDF01A80FB11D9E
:1001C0005D968C91928D9F5F9F73928F90E00895C2
:1001D0008FEF9FEF0895FC01918D828D981731F07C
:1001E000828DE80FF11D858D90E008958FEF9FEFD0
:1001F0000895FC01918D228D892F90E0805C9F4FA6
:10020000821B91098F739927089588E193E00E94DA
:10021000F90021E0892B09F420E0822F0895FC01E8
:10022000848DDF01A80FB11DA35ABF4F2C91848D7F
:1002300090E001968F739927848FA689B7892C93B4
:10024000A089B1898C91837080648C93938D848D07
:10025000981306C00288F389E02D80818F7D80830A
:100260000895EF92FF920F931F93CF93DF93EC01CA
:1002700081E0888F9B8D8C8D981305C0E889F98962
:10028000808185FD26C0F62E0B8D10E00F5F1F4F7D
:100290000F731127E02E8C8DE8120CC00FB607FCEF
:1002A000FACFE889F989808185FFF5CFCE010E94D8
:1002B0000F01F1CF8B8DFE01E80FF11DE35AFF4FC7
:1002C000F0829FB7F8940B8FEA89FB898081806266
:1002D0000AC09FB7F894EE89FF896083E889F9899D
:1002E00080818370806480839FBF81E090E0DF9194
:1002F000CF911F910F91FF90EF900895CF93DF93CF
:10030000EC01888D8823C9F0EA89FB89808185FD0D
:1003100005C0A889B9898C9186FD0FC00FB607FC6E
:10032000F5CF808185FFF2CFA889B9898C9185FFAF
:10033000EDCFCE010E940F01E7CFDF91CF9108955D
:1003400080E090E0892B29F00E94050181110C9436
:1003500000000895833081F028F4813099F08230D4
:10036000A1F008958730A9F08830B9F08430D1F435
:10037000809180008F7D03C0809180008F77809373
:100380008000089584B58F7702C084B58F7D84BDC9
:1003900008958091B0008F7703C08091B0008F7D69
:1003A0008093B00008954091E302262F30E0240F9F
:1003B000311D21323105DCF420914B022430C9F487
:1003C000FC0180E090E0861758F43091E30221911F
:1003D000DC01AD53BD4FA30FB11D2C930196F3CF9C
:1003E0008091E302680F6093E30280E0089581E06A
:1003F000089582E00895089508950895E0915202C5
:1004000080915102E81730F4F0E0ED5AFD4F808101
:1004100090E008958FEF9FEF0895909152028091A0
:100420005102981750F4E92FF0E0ED5AFD4F20816A
:1004300030E09F5F9093520202C02FEF3FEFC9015F
:1004400008958091510290E020915202821B9109FF
:100450000895CF92DF92EF92FF920F931F93CF9365
:10046000DF937C01CB018A0120918404222389F04F
:10047000EB016B01C40ED51ECC15DD0569F0699149
:10048000D701ED91FC910190F081E02DC701099514
:10049000F3CF642F0E94D301C801DF91CF911F9148
:1004A0000F91FF90EF90DF90CF900895CF93DF935F
:1004B0001F92CDB7DEB76983209184042223D1F047
:1004C00020918104203240F021E030E0FC013383B0
:1004D000228380E090E015C080918204E82FF0E054
:1004E000EE55FD4F998190838F5F809382048093B6
:1004F000810405C061E0CE0101960E94D30181E034
:1005000090E00F90DF91CF910895089580E090E002
:100510000895CF93C82F682F88E193E00E9431019E
:100520008C2FCC0F990BCF9108950E94F325FC01DD
:1005300024813581232B31F421E061157105A1F06F
:10054000FB0108C0FC01808191816115710531F4C6
:1005500021E0FC018081882339F005C00E9401263A
:1005600021E0892B09F020E0822F0895FC01808191
:100570009181009711F00C940B220895EF92FF9255
:100580000F931F93CF93DF93EC01198218821B8284
:100590001A821D821C8261157105B9F17B01FB0174
:1005A00001900020E9F731978F01061B170BB80166
:1005B0006F5F7F4F80E090E00E942D25009759F0FB
:1005C000998388831B830A832C813D81232B81F4AB
:1005D000FC0110820DC088819981009711F00E9462
:1005E0000B22198218821D821C821B821A820DC066
:1005F0001D830C83B70188819981DF91CF911F9171
:100600000F91FF90EF900C940A26DF91CF911F91EC
:100610000F91FF90EF9008951F920F920FB60F92D7
:1006200011242F933F934F935F936F937F938F93F7
:100630009F93AF93BF93EF93FF9388E193E00E9462
:100640000F01FF91EF91BF91AF919F918F917F919A
:100650006F915F914F913F912F910F900FBE0F902F
:100660001F9018951F920F920FB60F9211242F937F
:100670008F939F93EF93FF93E0912803F0912903C9
:100680008081E0912E03F0912F0382FD12C09081B2
:10069000809131038F5F8F7320913203821751F065
:1006A000E0913103F0E0E85EFC4F958F80933103D9
:1006B00001C08081FF91EF919F918F912F910F90B9
:1006C0000FBE0F901F901895CF93DF93282F30E027
:1006D000F901EE56FF4F8491F901EA55FF4FD4918D
:1006E000F901EC53FF4FC491CC2391F081110E948A
:1006F000AA01EC2FF0E0EE0FFF1FE857FF4FA59186
:10070000B491EC91ED2381E090E021F480E002C00F
:1007100080E090E0DF91CF910895862F0C946403E0
:100720001F93CF93DF93282F30E0F901EE56FF4F50
:100730008491F901EA55FF4FD491F901EC53FF4F31
:10074000C491CC23C1F0162F81110E94AA01EC2F75
:10075000F0E0EE0FFF1FE654FF4FA591B4919FB755
:10076000F894111104C08C91D095D82302C0EC915B
:10077000DE2BDC939FBFDF91CF911F910895909165
:100780002301891324C0E8EDF0E0E4919FEF9093FA
:100790002301E130B9F098F0E230C9F49091700093
:1007A0009D7F9093700091E09093B0009091B10084
:1007B000987F94609093B1001092B30008C010929B
:1007C0006E0005C090916F009D7F90936F0060E078
:1007D0000C9490031F920F920FB60F9211242F9337
:1007E0003F934F935F936F937F938F939F93AF93B9
:1007F000BF93EF93FF938091140390911503A09101
:100800001603B0911703892B8A2B8B2B51F19091F2
:100810001103E0911203F0911303808189278083F3
:100820008091140390911503A0911603B0911703C2
:10083000181619061A061B06C4F480911403909129
:100840001503A0911603B09117030197A109B109EF
:100850008093140390931503A0931603B09317038A
:1008600004C0809123010E94BF03FF91EF91BF91CB
:10087000AF919F918F917F916F915F914F913F9138
:100880002F910F900FBE0F901F901895862F642FF9
:100890000C949003CF93DF9390E0FC01EA55FF4F57
:1008A0002491FC01EC53FF4F8491882361F190E087
:1008B000880F991FFC01E752FF4FC591D491FC01AD
:1008C000E654FF4FA591B491611109C09FB7F89408
:1008D0008881209582238883EC912E230BC062307F
:1008E00061F49FB7F8948881322F309583238883F1
:1008F000EC912E2B2C939FBF06C08FB7F894E88104
:100900002E2B28838FBFDF91CF910895862F642FE0
:100910000C944A048E3008F08E5087708064809367
:100920007C0080917A00806480937A0080917A00C4
:1009300086FDFCCF809178009091790008958230F7
:10094000910538F0880F991F880F991F0597019717
:10095000F1F708953FB7F894809107039091080349
:10096000A0910903B0910A0326B5A89B05C02F3FAB
:1009700019F00196A11DB11D3FBFBA2FA92F982FC5
:100980008827820F911DA11DB11DBC01CD0142E040
:10099000660F771F881F991F4A95D1F708958F9288
:1009A0009F92AF92BF92CF92DF92EF92FF926B0134
:1009B0007C010E94AA044B015C01C114D104E10432
:1009C000F104F1F00E94AA04DC01CB018819990915
:1009D000AA09BB09883E9340A105B10570F321E047
:1009E000C21AD108E108F10888EE880E83E0981E4B
:1009F000A11CB11CC114D104E104F10419F7DDCF2D
:100A0000FF90EF90DF90CF90BF90AF909F908F902E
:100A100008952FB7F89460917302709174028091D9
:100A20007502909176022FBF08951F920F920FB614
:100A30000F9211242F933F938F939F93AF93BF9364
:100A40008091730290917402A0917502B091760228
:100A50003091060323E0230F2D3720F40196A11DCA
:100A6000B11D05C026E8230F0296A11DB11D2093DC
:100A700006038093730290937402A0937502B0935F
:100A800076028091070390910803A0910903B09129
:100A90000A030196A11DB11D8093070390930803DB
:100AA000A0930903B0930A03BF91AF919F918F91D7
:100AB0003F912F910F900FBE0F901F90189510929D
:100AC0004B0281E080934A021092450261E082E18C
:100AD0000E94900361E083E10E949003E9EBF0E063
:100AE00080818E7F808380818D7F808388E4809366
:100AF000B80085E48093BC000895CF93DF9391E024
:100B00009093C2028823B9F0C091B800D091BA0086
:100B10008091BC008A7B8093BC0060E082E10E94EF
:100B2000900360E083E10E9490030E945F05D093F0
:100B3000BA00C093B800DF91CF91089585ED8093FE
:100B4000BC0080914D0290914E02A0914F02B09155
:100B500050020796A11DB11D23E0B695A795979564
:100B600087952A95D1F72091BC0024FF1CC04091A5
:100B70004D0250914E0260914F0270915002452BF0
:100B8000462B472B81F30097A105B10541F02AE2DE
:100B90002A95F1F700C00197A109B109E4CF80912E
:100BA0004C020C947D0510924B0208951F920F92F7
:100BB0000FB60F9211242F933F934F935F936F9330
:100BC0007F938F939F93AF93BF93EF93FF93809106
:100BD000B900887F803609F49CC068F5883209F432
:100BE0005BC090F4803109F454C038F4882309F4D0
:100BF000F6C0883009F44DC0F6C0883109F44CC005
:100C0000803209F45DC0EFC0803409F468C048F454
:100C1000803309F455C0883309F0E5C08093490258
:100C2000D8C0803509F44FC0883509F45DC08834D8
:100C300009F0D9C0D6C0883909F4C7C0A8F48837EC
:100C400009F467C038F4883609F463C0803709F4C2
:100C500060C0C9C0883809F4B8C0803909F45FC0E1
:100C6000803809F0C0C05BC0803B09F486C038F40E
:100C7000803A09F466C0883A09F47FC0B4C0803C69
:100C800009F4A7C0883C09F4A4C0883B09F48AC0D1
:100C9000AAC08091460210C09091480280914702FC
:100CA000981770F5E091480281E08E0F809348021A
:100CB000F0E0EB5DFD4F80818093BB0085EC86C04A
:100CC000809349028EC0E091480281E08E0F8093AC
:100CD00048028091BB00F0E0EB5DFD4F8083909176
:100CE0004802809147026EC0E091480281E08E0F79
:100CF000809348028091BB00F0E0EB5DFD4F808364
:100D000080914A0281116DC081E08093450284EA9E
:100D100061C083E080934B0210920503CFCF809196
:100D20000503803208F051C0E091050381E08E0F89
:100D3000809305038091BB00F0E0EB51FD4F808371
:100D4000BDCF85EC8093BC0010924B0280910503CF
:100D5000803230F4E0910503F0E0EB51FD4F10825A
:100D60006091050370E0E0912102F091220285EE8E
:100D700092E009951092050336C084E080934B02FF
:100D80001092E4021092E302E0912302F091240217
:100D900009958091E302811105C081E08093E3020F
:100DA0001092C302E091E40281E08E0F8093E4028E
:100DB000F0E0ED53FD4F80818093BB009091E40201
:100DC0008091E302981708F479CF85E88093BC00FE
:100DD0000AC085EC8093BC0010924B0204C01092B4
:100DE00049020E949E05FF91EF91BF91AF919F91A3
:100DF0008F917F916F915F914F913F912F910F90C4
:100E00000FBE0F901F9018958F929F92AF92BF9236
:100E1000CF92DF92EF92FF920F931F93CF93DF93C6
:100E200010918104113208F0C2C0062FD0918304C2
:100E30000E94AA046B017C01C0914B02CC2311F1EA
:100E400080914D0290914E02A0914F02B0915002BC
:100E5000892B8A2B8B2B81F30E94AA0480904D0250
:100E600090904E02A0904F02B0905002DC01CB0156
:100E70008C199D09AE09BF0988169906AA06BB06FA
:100E8000D8F681C082E080934B0200934A028FEF34
:100E9000809349021092480210934702A2EAB2E0FE
:100EA000E5E2F2E080E0181721F09D9191938F5FC9
:100EB000FACF10924602909146028D2F880F892B0F
:100EC0008093460280914502813089F51092450257
:100ED0000E94AA046B017C01809146028093BB00B2
:100EE00080914D0290914E02A0914F02B09150021C
:100EF000892B8A2B8B2BA9F00E94AA0400914D020A
:100F000010914E0220914F0230915002DC01CB0132
:100F10008C199D09AE09BF09081719072A073B0755
:100F200090F18091BC0083FDD7CF85EC01C085EEA8
:100F30008093BC000E94AA046B017C0180914B024B
:100F4000823039F580914D0290914E02A0914F026E
:100F5000B0915002892B8A2B8B2B81F30E94AA041B
:100F600000914D0210914E0220914F02309150029B
:100F7000DC01CB018C199D09AE09BF0908171907BF
:100F80002A073B07D8F680914C020E947D05C5E0F8
:100F900013C0809149028F3F79F0809149028032DD
:100FA00041F080914902803331F0C4E005C0C1E0D6
:100FB00003C0C2E001C0C3E0109282041092810419
:100FC000109284048C2FDF91CF911F910F91FF908D
:100FD000EF90DF90CF90BF90AF909F908F9008954B
:100FE000AF92BF92CF92DF92EF92FF920F931F9337
:100FF000CF93DF93EC0188819981892B31F06EBD0D
:101000000DB407FEFDCFAEB496C088859985892BB7
:1010100011F010E801C011E0BB24B394862F8123A6
:1010200009F0B12C062F2C813D814E815F8160E259
:1010300071EA87E090E00E942824F22EA02EE12C95
:10104000C22ED12CFF2019F0C6010E949F048A8570
:10105000877FB9F58D858F3FB9F0902F912381E07F
:1010600009F480E0B81681F0EF85F8898F8999231B
:1010700031F09081892B8083BB24B39405C090818B
:10108000809589238083B12CE989FA899081898DA3
:10109000892B8083FF2019F0C6010E949F048E8552
:1010A0008F3F39F0EB89FC899081888D892309F085
:1010B000E12AE989FA899081898D80958923808345
:1010C0002CC0E989FA899081898D892B8083FF2042
:1010D00019F0C6010E949F048D858F3F69F0EF854E
:1010E000F8898F89902F912319F09081892B03C063
:1010F0009081809589238083E989FA899081898DFF
:101100008095892380838E858F3F39F0EB89FC8918
:101110009081888D892309F0E12A8E858F3F09F01F
:10112000AE2C88859985892B21F4110F11118ACF56
:1011300002C01695FBCF8A2DDF91CF911F910F91A1
:10114000FF90EF90DF90CF90BF90AF900895FF9207
:101150000F931F93CF93DF93EC018A01F22E8981C5
:101160009A81DC01ED91FC910280F381E02D0995DB
:101170000817190739F46F2D89819A810E94040795
:1011800091E0811190E0892FDF91CF911F910F9114
:10119000FF900895CF93DF93EC018B8181111EC0E6
:1011A0001092520210925102109282041092810405
:1011B0000E945F058BEF91E09093240280932302BD
:1011C0008CEF91E0909322028093210281E08B8347
:1011D000CE010E94CA08982F882391F0888191E05F
:1011E000909384048093830410928204109281046B
:1011F00061E089819A810E94040791E0811190E069
:10120000892FDF91CF9108951F920F920FB60F9201
:1012100011248F9381E0809320028F910F900FBE55
:101220000F901F9018958FB7F8948091A1028FBFEF
:101230000895FC0183858F3F19F061E00C949003C1
:1012400008958EBD00000DB407FEFDCF8EB5089544
:101250008CBD9DBD0895CF93DF93EC01888199816A
:10126000892B31F0EA81FB81808191810E942809DC
:101270008B858F3F29F060E0DF91CF910C94900334
:10128000DF91CF9108958F929F92AF92BF92CF92AC
:10129000DF92EF92FF920F931F93CF93DF937C0126
:1012A0005B016A0149010E942B09E401080D191D27
:1012B000C017D10729F06991C7010E94F007F8CF44
:1012C000E501CA0CDB1CCC15DD0529F06991C701CD
:1012D0000E94F007F8CFC7010E94190981E0DF9151
:1012E000CF911F910F91FF90EF90DF90CF90BF9023
:1012F000AF909F908F9008958A309105A8F4FC01DB
:10130000EC5CFF4F0C94132586E008958FE408955C
:1013100086E608958DE608958DE7089587E008959F
:101320008FE708958FE6089508958FE308958BE57C
:1013300008950F931F93CF93DF930E9409050091A7
:101340007F02109180022091810230918202DC01A3
:10135000CB01801B910BA20BB30B853F9140A105E4
:10136000B10508F4C2C00E94090560937F02709322
:10137000800280938102909382022091A00280914A
:101380000F0390911003222309F444C01092A0028D
:101390008230910579F17CF4009739F1019709F0D9
:1013A000A4C080917702909178020E947C0920E08D
:1013B00040E068E094C08330910509F044C080911A
:1013C0007B0290917C020E947C09D82F8091790247
:1013D00090917A020E947C09C82F809177029091A7
:1013E00078020E947C0928E078C020E040E060E0BC
:1013F00088E075C08091790290917A020E947C0900
:10140000C82F80917702909178020E947C0920E099
:1014100048E064C021E02093A00282309105C1F130
:101420007CF4009781F1019709F05FC08091770209
:10143000909178020E947C0920E040E060E04FC07B
:1014400083309105A9F1049709F04FC080917D0286
:1014500090917E020E947C09182F80917B029091CE
:101460007C020E947C09D82F8091790290917A02A7
:101470000E947C09C82F80917702909178020E9487
:101480007C09212F2AC020E040E060E080E027C0F6
:101490008091790290917A020E947C09C82F8091F4
:1014A0007702909178020E947C0920E040E016C00B
:1014B00080917B0290917C020E947C09D82F8091C0
:1014C000790290917A020E947C09C82F809177025C
:1014D000909178020E947C0920E04D2F6C2FDF91C3
:1014E000CF911F910F910C941810DF91CF911F9104
:1014F0000F9108957F928F929F92AF92BF92CF9259
:10150000DF92EF92FF920F931F93CF93DF93EC0143
:1015100080E497E7ABE1B0E080931F019093200156
:10152000A0932101B093220167EB71E0CE010E94EC
:101530009702882369F00E949F12109253040E9420
:10154000B21267EB71E08BE091E00E940A26BAC20A
:1015500065EC71E0CE010E949702882369F065EC8A
:1015600071E08BE091E00E940A260E949F12109287
:1015700053040E94B212A6C265ED71E0CE010E9432
:101580009702882309F4FDC165ED71E08BE091E0DD
:101590000E940A260E949F1268EC70E080E090E0B2
:1015A0000E94CF0420E041E060E080E00E9418103B
:1015B00064E670E080E090E00E94CF044EE150E0ED
:1015C00060E070E084E690E00E942D1021E041E0B0
:1015D00060E080E00E94181064E670E080E090E037
:1015E0000E94CF044EE150E060E070E084E690E0BD
:1015F0000E942D1023E041E060E080E00E9418107E
:1016000064E670E080E090E00E94CF044EE150E09C
:1016100060E070E084E690E00E942D1027E041E059
:1016200060E080E00E94181064E670E080E090E0E6
:101630000E94CF044EE150E060E070E084E690E06C
:101640000E942D102FE041E060E080E00E94181021
:1016500064E670E080E090E00E94CF044EE150E04C
:1016600060E070E084E690E00E942D102FE049E0F9
:1016700060E080E00E94181064E670E080E090E096
:101680000E94CF044EE150E060E070E084E690E01C
:101690000E942D102FE049E068E080E00E941810C1
:1016A00064E670E080E090E00E94CF044EE150E0FC
:1016B00060E070E084E690E00E942D102FE049E0A9
:1016C00068E088E00E94181064E670E080E090E036
:1016D0000E94CF044EE150E060E070E084E690E0CC
:1016E0000E942D102FE049E068E088E10E94181068
:1016F00064E670E080E090E00E94CF044EE150E0AC
:1017000060E070E084E690E00E942D102FE049E058
:1017100068E088E30E94181064E670E080E090E0E2
:101720000E94CF044EE150E060E070E084E690E07B
:101730000E942D102FE049E068E089E30E94181014
:1017400064E670E080E090E00E94CF044EE150E05B
:1017500060E070E084E690E00E942D102FE049E008
:1017600069E089E30E94181064E670E080E090E090
:101770000E94CF044EE150E060E070E084E690E02B
:101780000E942D102FE048E069E089E30E941810C4
:1017900064E670E080E090E00E94CF044EE150E00B
:1017A00060E070E084E690E00E942D102EE048E0BA
:1017B00069E089E30E94181064E670E080E090E040
:1017C0000E94CF044EE150E060E070E084E690E0DB
:1017D0000E942D102CE048E069E089E30E94181077
:1017E00064E670E080E090E00E94CF044EE150E0BB
:1017F00060E070E084E690E00E942D1028E048E070
:1018000069E089E30E94181064E670E080E090E0EF
:101810000E94CF044EE150E060E070E084E690E08A
:101820000E942D1020E048E069E089E30E94181032
:1018300064E670E080E090E00E94CF044EE150E06A
:1018400060E070E084E690E00E942D1020E040E02F
:1018500069E089E30E94181064E670E080E090E09F
:101860000E94CF044EE150E060E070E084E690E03A
:101870000E942D1020E040E061E089E30E941810F2
:1018800064E670E080E090E00E94CF044EE150E01A
:1018900060E070E084E690E00E942D1020E040E0DF
:1018A00061E081E30E94181064E670E080E090E05F
:1018B0000E94CF044EE150E060E070E084E690E0EA
:1018C0000E942D1020E040E061E081E20E941810AB
:1018D00064E670E080E090E00E94CF044EE150E0CA
:1018E00060E070E084E690E00E942D1020E040E08F
:1018F00061E081E00E94181064E670E080E090E012
:101900000E94CF044EE150E060E070E084E690E099
:101910000E942D1020E040E061E080E00E9418105D
:1019200064E670E080E090E00E94CF044EE150E079
:1019300060E070E084E690E00E942D1020E040E03E
:1019400060E080E00E94181064E670E080E090E0C3
:101950000E94CF044EE150E060E070E084E690E049
:101960000E942D100E949F124EE150E060E070E056
:1019700080ED97E00E942D101092100310920F033B
:10198000A1C069EE71E0CE010E949702882309F49C
:101990007AC069EE71E08BE091E00E940A2680E84F
:1019A000809353040E94B21203E610E02AE0C22E94
:1019B000D12C30ED832E37E0932EA12CB12CC80111
:1019C000B6010E94FF247B010E947C09782EC7018A
:1019D0000E947C092FE64FE6672D0E9418100E9496
:1019E0008F20A50194010E94BF23CB018C509E4FF4
:1019F00041E050E060E070E00E942D106AE070E08D
:101A000080E090E00E94CF0401501109C1F603E686
:101A100010E08AE0C82ED12C90ED892E97E0992E07
:101A2000A12CB12C80913C0190913D010817190720
:101A30000CF448C0C801B6010E94FF247B010E943B
:101A40007C09782EC7010E947C09272D482F6FE35F
:101A50008FE30E9418100E948F20A50194010E941C
:101A6000BF23CB018C509E4F41E050E060E070E01E
:101A70000E942D106AE070E080E090E00E94CF04A8
:101A800001501109CFCF6EEF71E0CE010E94970295
:101A90008823C1F06EEF71E08BE091E00E940A268E
:101AA0000E94090560930B0370930C0380930D0350
:101AB00090930E0380913C0190913D0190937504A9
:101AC0008093740463E072E0CE010E949702882341
:101AD00049F163E072E08BE091E00E940A2640E069
:101AE00050E0BA0180ED97E00E942D1068EE73E09F
:101AF00080E090E00E94CF048FE00E94BF030E942C
:101B00009F1210925304DF91CF911F910F91FF907C
:101B1000EF90DF90CF90BF90AF909F908F907F908D
:101B20000C94B212DF91CF911F910F91FF90EF9023
:101B3000DF90CF90BF90AF909F908F907F9008954F
:101B4000CF93DF93C6E5D4E0682F8B810E9490038A
:101B50008A8D9B8DDF91CF910C949F0481E00C9432
:101B6000A00D0F931F9300915A0410915B042091D4
:101B70005C0430915D0440E052E16AE770E090E07F
:101B8000041715072607370740F47695679557958C
:101B900047959F5F9630A1F797E081E09827892FBE
:101BA000806A869591700E94280980E01F910F91AC
:101BB0000C94A00D0F931F93CF93DF938091680433
:101BC000882361F180916A04811108C0C0915F048B
:101BD000DC2FCE3108F0DDE1CD1B02C0C0E0DDE13D
:101BE0000E94B10D89EA0E94210980935E0402E0FF
:101BF00011E0D15030F0F80181918F010E9421094C
:101C0000F8CFCC2329F080E00E942109C150F9CF00
:101C10000E94AE0D80915E0480958170DF91CF911E
:101C20001F910F910895009769F0FC010190002029
:101C3000E9F73197AF01481B590BBC0188E193E0EC
:101C40000C949E0080E090E008958F929F92AF9256
:101C5000BF920F931F93CF93DF93CDB7DEB7A197BA
:101C60000FB6F894DEBF0FBECDBF19A2423008F404
:101C70004AE08E010F5D1F4F842E912CA12CB12CB8
:101C8000A50194010E942824E62FB901CA01015040
:101C90001109EA3014F4E05D01C0E95CD801EC936D
:101CA000232B242B252B61F7C8010E94130EA1962C
:101CB0000FB6F894DEBF0FBECDBFDF91CF911F915D
:101CC0000F91BF90AF909F908F900895CF92DF9229
:101CD000EF92FF92CF93DF936C01990FEE08FF080C
:101CE000F7FE13C06DE288E193E00E943101EC0140
:101CF00066277727CB016C197D098E099F094AE079
:101D00000E94250EC80FD91F06C04AE0C701B601C0
:101D10000E94250EEC0185E891E00E94130E8C0FC5
:101D20009D1FDF91CF91FF90EF90DF90CF900895AE
:101D3000CF93C82F0E94B10D8C2F80620E94210981
:101D400080935E04CF910C94AE0DCF93DF93D82F88
:101D5000C62F0E94B10D8D2F80620E9421098093B1
:101D60005E048C2F0E942109DF91CF910C94AE0D5F
:101D7000CF93C82F0E94B10D8C2F0E942109809310
:101D80005E048FEF0E942109C82F0E94AE0D8C2F98
:101D9000CF910895FF920F931F93CF93DF93182F46
:101DA000F62ED72FC42F0E94B10D812F80620E9482
:101DB000210980935E040F2D1D2FCC2339F0F801EB
:101DC00081918F010E942109C150F7CFDF91CF91FE
:101DD0001F910F91FF900C94AE0D6091650461FD11
:101DE0000AC062606093650480E00E94A50E8BE1EA
:101DF0009EE40197F1F70895CF9386E00E94B80E14
:101E0000C82FC77D85E590E0A0E0B0E080936C042A
:101E100090936D04A0936E04B0936F046C2F86E0D2
:101E20000E94A50E86E00E94B80E91E0C81390E0D3
:101E3000892FCF910895CF93DF93CCE4D4E060E075
:101E400088850E94900360E089850E94900361E08C
:101E500088850E94900361E08985DF91CF910C9481
:101E60009003CF93DF93CCE4D4E061E088850E94B7
:101E7000900361E089850E94900360E089850E945B
:101E8000900360E08885DF91CF910C9490030F93CD
:101E90001F93CF93DF93D82FC8E060E08091540464
:101EA0000E949003D0FF02C061E001C060E0809119
:101EB00055040E949003D59561E0809154040E94DE
:101EC0009003C15051F760E0809154040E94900348
:101ED00061E0809155040E94900361E08091540478
:101EE0000E94900360E0809155040E944A0483ECB4
:101EF00090E00197F1F7809155040E9464038C01F2
:101F000081110AC061E0809155040E944A0460E09A
:101F1000809155040E949003C3ECD0E0CE0101975C
:101F2000F1F761E0809155040E944A042197F1F78E
:101F3000C8019927DF91CF911F910F910895EF92DA
:101F4000FF920F931F93CF93DF9300D000D0CDB7B4
:101F5000DEB7409153046CE474E0DC018E010F5F46
:101F60001F4F9801CD015D91FB015193BF01FC0111
:101F70009081940FF90191939F01F4E060357F0700
:101F800089F70E94310F80E40E94470F0E941B0FC7
:101F90000E94310F809151040E94470F7E0185E01D
:101FA000E80EF11CF80181918F010E94470F0E1578
:101FB0001F05C1F70E941B0F0E94310F8091520430
:101FC0000E94470F0F900F900F900F90DF91CF91CD
:101FD0001F910F91FF90EF900C941B0F0F931F9385
:101FE000CF93DF93182FCCE4D4E0E82FF0E0E45B4C
:101FF000FB4F10820F810E94310F84E40E94470F33
:102000000E941B0F0E94310F812F806C0E94470F8E
:10201000802F0E94470F0E941B0F0E94310F8E815C
:102020000E94470FDF91CF911F910F910C941B0FCE
:10203000CF93DF9300D000D0CDB7DEB789836A831A
:102040004B832C83CE0101960E949F0F0F900F901F
:102050000F900F90DF91CF9108954F925F926F9202
:102060007F928F929F92AF92BF92CF92DF92EF9228
:10207000FF920F931F93CF93DF9300D000D01F9256
:10208000CDB7DEB78C012A013B01809123018F304F
:1020900021F08F3F09F03DC205C0E8EDF0E024914A
:1020A0002D8372C08FE080932301E8EDF0E08491EE
:1020B0008D838F3F09F42DC2813009F441C038F17E
:1020C000823009F061C01092B0001092B10080918E
:1020D000B00082608093B0008091B10081608093F5
:1020E000B100E3EDF0E0E491F0E0EE0FFF1FE65405
:1020F000FF4F859194919093130380931203E5EB26
:10210000F0E0E491E093110322E02D83FDC114BCC3
:1021100015BC84B5826084BD85B5816085BDE3ED65
:10212000F0E0E491F0E0EE0FFF1FE654FF4F8591E1
:102130009491E5EBF0E0E491E09377041D82E4C133
:1021400010928000109281008091810088608093BD
:10215000810080918100816080938100E3EDF0E057
:10216000E491F0E0EE0FFF1FE654FF4F859194914C
:10217000E5EBF0E0E491E093760461E08FE00E940B
:102180004A0491E09D838AC08D8187FDC2C161E0D0
:102190008FE00E944A048D818D7F09F07FC0480145
:1021A000A12CB12C60E072E18AE790E0A5019401D6
:1021B0000E94BF2329833A834B835C8369017A01A0
:1021C00091E0C91AD108E108F1082FEFC216D10435
:1021D000E104F10409F008F44EC060E472E48FE019
:1021E00090E0A50194010E94BF2369017A0181E07A
:1021F000C81AD108E108F1089D81923009F52FEF46
:10220000C216D104E104F10409F008F444C160E904
:1022100070ED83E090E0A50194010E94BF23690165
:102220007A0181E0C81AD108E108F1089FEFC916C8
:10223000D104E104F10411F008F0BAC083E027C032
:102240002FEFC216D104E104F104B9F0B0F068E454
:1022500078EE81E090E0A50194010E94BF2369011E
:102260007A0181E0C81AD108E108F1089D8199231B
:1022700009F413C1DCC081E001C082E09D819111AD
:1022800006C095B5987F892B85BD44C085E09091A7
:10229000B100987F892B8093B1003CC04801A12CEC
:1022A000B12C60E072E18AE790E0A50194010E9400
:1022B000BF2369017A0181E0C81AD108E108F10859
:1022C000C114D10491E0E906F10488F068E478EEE5
:1022D00081E090E0A50194010E94BF2369017A0189
:1022E00081E0C81AD108E108F10883E001C081E06B
:1022F0009D81913079F490918100987F892B809312
:102300008100411451046104710449F42FEF3FEF3F
:10231000A9012CC0411451046104710471F0D80169
:10232000AA0FBB1FA30192010E94DE2328EE33E017
:1023300040E050E00E94282403C02FEF3FEFA901A6
:102340008D81813099F0823019F18111E2C0C7BCD2
:1023500020937C0430937D0440937E0450937F044B
:1023600080916E00826080936E00D3C0D09289000D
:10237000C0928800209378043093790440937A04C3
:1023800050937B0480916F00826080936F00C1C086
:10239000C092B300209314033093150340931603A7
:1023A0005093170380917000826080937000B1C0D9
:1023B00068E478EE81E090E0A50194010E94BF23DB
:1023C00069017A0191E0C91AD108E108F1082FEFFB
:1023D000C216D104E104F10441F138F164E274EF72
:1023E00080E090E0A50194010E94BF2369017A0179
:1023F00081E0C81AD108E108F1089FEFC916D1049D
:10240000E104F10409F008F441CF62E17AE780E0E9
:1024100090E0A50194010E94BF2369017A0181E047
:10242000C81AD108E108F10819C084E030CF2FEFB5
:10243000C216D104E104F10409F008F463C062E1BA
:102440007AE780E090E0A50194010E94BF23690132
:102450007A0191E0C91AD108E108F1088FEFC81696
:10246000D104E104F104A9F0A0F089819A81AB8143
:10247000BC812AE0B595A795979587952A95D1F7C0
:102480006C017D0121E0C21AD108E108F10887E062
:10249000FECE86E0FCCE82E0FACE8FEFC816D104E5
:1024A000E104F10469F160F162E17AE780E090E033
:1024B000A50194010E94BF2369017A0191E0C91A24
:1024C000D108E108F1082FEFC216D104E104F104AC
:1024D000A9F0A0F089819A81AB81BC813AE0B595E1
:1024E000A795979587953A95D1F76C017D0121E0E5
:1024F000C21AD108E108F10885E0C3CE84E0C1CE5C
:1025000083E0BFCE84E0BACE61E08FE00E944A044F
:1025100046CE0F900F900F900F900F90DF91CF91BC
:102520001F910F91FF90EF90DF90CF90BF90AF90F1
:102530009F908F907F906F905F904F90089580E074
:102540000E94EE0F81E00E94EE0F82E00E94EE0FEB
:1025500083E00E94EE0FECE4F4E01082118212821C
:10256000138208958CE494E00C949F0F96E0899F69
:10257000D0011124A353BC4F90967C936E935F9728
:1025800091E091969C93919790913904E0913A044F
:10259000F0913B04992339F0309751F0811108C034
:1025A0008091E90304C0309719F05C968C910994EE
:1025B00008950E94B10D80E50E94210980935E0478
:1025C00083E70E9421090C94AE0DCF93CFB7F89406
:1025D00080918504811127C0EEECF0E08491E0EB5E
:1025E000F0E09491E82FF0E0EE0FFF1FE752FF4F6D
:1025F000A591B491EC91E92321F461E08AE00E9475
:10260000900361E08AE00E944A048CB580618CBD31
:102610008CB580648CBD61E08DE00E944A0461E06D
:102620008BE00E944A04809185048F5F809385042B
:10263000CFBF809158048F3F09F477C0909159041F
:102640009F3F09F472C0891741F061E00E944A047B
:1026500061E0809159040E944A048091580490914D
:102660005904891719F060E00E94900381E00E94EC
:10267000A00D65E070E080E090E00E94CF046FE57F
:1026800084E00E94A50E0E94FC0E8DE10E94B80E0F
:10269000C82F0E94D9128DE10E94B80E91E0C81394
:1026A00090E090936604811142C01092680460E04B
:1026B0008CE10E94A50E10926A046FE381E00E94F3
:1026C000A50E63E082E00E94A50E80E280935F0485
:1026D000C1E160915F048C2F0E94A50ECF5FC731CE
:1026E000C1F763E083E00E94A50E85E08093690452
:1026F0006CE40E94A50E60E787E00E94A50E82EEC2
:102700000E94980E81EE0E94980E6CE080E00E947C
:10271000A50E80E00E94B80E809365040E94ED0E25
:1027200081E0909165049E3059F080E009C0C813A3
:1027300002C00E94D91260E08DE10E94A50EB5CFC3
:10274000CF91089583FD02C098E001C098E28770A0
:10275000982B88E10FB6F894A895809360000FBE7F
:102760009093600080916000806480936000A895E1
:1027700008958091640080FD08C080917A0080688F
:1027800080937A0080B78F7780BF1092C20308953C
:102790000F931F93CF93DF93C82FD62F86E0C89F48
:1027A000F0011124E353FC4F11A2878D90A18130D9
:1027B0009105D9F040F082309105A9F10397F1F528
:1027C00060E070E034C06623C9F161E070E08C2FF6
:1027D0000E94B6120E940905609325047093260496
:1027E000809327049093280429C00E940905009132
:1027F0002504109126042091270430912804AB0170
:10280000BC01401B510B620B730B809137049091FC
:102810003804A0E0B0E084179507A607B70718F4BE
:1028200062E070E004C0D11109C063E070E08C2F59
:10283000DF91CF911F910F910C94B612DF91CF9140
:102840001F910F9108958F929F92AF92BF92CF9256
:10285000DF92EF92FF920F931F93CF93DF937C0150
:102860004B016A0159010E942B09E401C80CD91CD3
:10287000CC15DD0529F06991C7010E94F007F8CF5A
:10288000E5010A0D1B1DC017D10731F06FEFC7011D
:102890000E94F0078993F7CFC7010E94190981E0D0
:1028A000DF91CF911F910F91FF90EF90DF90CF902C
:1028B000BF90AF909F908F900895CF92DF92EF924C
:1028C000FF920F931F93CF93DF9300D0CDB7DEB766
:1028D000FC014787508B618B728B8285882311F0B6
:1028E000448701C04387452F562F672F77278823BA
:1028F00011F0438701C044877F018BE0E80EF11C93
:102900009681878199838A83C080D180C114D10444
:10291000B1F1018510E098012E5F3F4FD60114966A
:102920008D919C9115978217930710F480E052C007
:10293000F601808191E09093840480938304109247
:102940008204109281040115110541F421E042E056
:1029500050E0B701C6010E94A7083CC08181928166
:10296000DC01ED91FC910280F381E02DA801BE0114
:102970006F5F7F4F099508171907C1F6E7CFA2814E
:10298000B381109799F22481358101852330310577
:1029900039F48E7F89839A8310E00F5F1F4F11C037
:1029A0002115310511F49F770AC02230310511F449
:1029B000906805C02130310519F49F7790649983A0
:1029C00010E09E012F5F3F4F42E050E0B701CD0184
:1029D0000E9443090F900F90DF91CF911F910F91AB
:1029E000FF90EF90DF90CF900895CF93DF93CDB716
:1029F000DEB7E6970FB6F894DEBF0FBECDBF789472
:102A000084B5826084BD84B5816084BD85B58260F3
:102A100085BD85B5816085BD80916E0081608093A4
:102A20006E0010928100809181008260809381000D
:102A3000809181008160809381008091800081601D
:102A4000809380008091B10084608093B100809178
:102A5000B00081608093B00080917A0084608093A0
:102A60007A0080917A00826080937A0080917A0067
:102A7000816080937A0080917A00806880937A00E8
:102A80001092C100E0912803F091290382E0808335
:102A9000E0912803F09129031082E0912403F09142
:102AA00025031082E0912603F091270380E18083C3
:102AB00010923003E0912C03F0912D0386E0808387
:102AC000E0912A03F0912B03808180618083E09163
:102AD0002A03F0912B03808188608083E0912A0390
:102AE000F0912B03808180688083E0912A03F0912C
:102AF0002B0380818F7D808304E610E086E791E0E0
:102B00000E94130E85E891E00E94130E01501109F6
:102B1000A9F760E070E089E892E00E940C210E9431
:102B20009F1280E48093500480EC809351048BE8E2
:102B3000809352040E94B21261E08EE00E944A0427
:102B400061E08EE00E949003109220020E94AA048D
:102B50006B017C0180E00E94A213809120028823F7
:102B6000E1F30FB6F894A895809160008861809396
:102B70006000109260000FBE0E94AA046C197D09CB
:102B80007093C7036093C60380913C0490913D0409
:102B9000892BA9F486E090E00E947321FC018091CA
:102BA0003F04808385EB93E092838183138280E2EC
:102BB00090E095838483F0933D04E0933C0400917E
:102BC0003C0410913D041092520210925102109256
:102BD0008204109281040E945F058BEF91E0909334
:102BE0002402809323028CEF91E090932202809341
:102BF0002102FF24F394D8011396FC92C8010E948D
:102C0000CA08882309F45BC080E090E1A0E0B0E04E
:102C10008093400490934104A0934204B0934304F2
:102C20008AE090E0A0E0B0E08093440490934504F3
:102C3000A0934604B093470480E090E0A0E0B0E4A5
:102C40008093480490934904A0934A04B0934B04A2
:102C500080913C0490913D041BA21CA21DA21EA2C7
:102C60009D8B8C8B1F8A1E8AFD8EA5E0B0E0BB8FEA
:102C7000AA8FFE8E12E01C8F40E050E160E070E011
:102C8000CE0144960E945D1480913C0490913D04D5
:102C9000188A198A1A8A1B8A9A8389831C821B8242
:102CA000FA8618861F82FB8619874FE959E360E090
:102CB00070E0CE0101960E945D1480933E0480E096
:102CC00090E2A0E0B0E08093400490934104A09390
:102CD0004204B093430484E190E0A0E0B0E080932C
:102CE000440490934504A0934604B093470480E0C5
:102CF00090E0A0E8BFE38093480490934904A09338
:102D00004A04B0934B0480913C0490913D041BA273
:102D10001CA21DA21EA29D8B8C8B1F8A1E8A11E0F5
:102D20001D8FA5E0B0E0BB8FAA8F1E8F02E00C8F35
:102D300040E050E260E070E0CE0144960E945D14F5
:102D400080913C0490913D04188A198A1A8A1B8A42
:102D50009A8389831C821B821A8718861F821B878D
:102D600009874FE951E060E070E0CE0101960E94D2
:102D70005D1480933E0420903C0430903D04188AFA
:102D8000198A1A8A1B8A3A8229821C821B821A8714
:102D900082E090E098878F831B8709870C8B1D8AC0
:102DA0002114310409F421C1F10184819581892B19
:102DB00009F41BC1808110938404809383041092D2
:102DC00082041092810420E041E050E0BE016C5E7C
:102DD0007F4FC1010E94A708B82E882309F405C1BE
:102DE000C12CD12CAA24A394D10114968D919C912D
:102DF0001597A2E0EA2EF12CEC18FD088E159F0520
:102E000008F47C01F10190800E94AA042B013C018E
:102E100010914B02112339F180914D0290914E0295
:102E2000A0914F02B0915002892B8A2B8B2B81F3FA
:102E30000E94AA0400914D0210914E0220914F026F
:102E400030915002DC01CB0184199509A609B7091C
:102E5000081719072A073B07D8F680914C020E94F1
:102E60007D0510E09BC00E2D013208F000E2A0921B
:102E70004B0221E082E090E08E199F09C816D90626
:102E800008F420E020934A02FFEFF09349021092E9
:102E900048028FEF800F80934702A09246028091F4
:102EA0004602990C982A9092460280914502813000
:102EB00099F5109245020E94AA042B013C018091D1
:102EC00046028093BB0080914D0290914E02A091EA
:102ED0004F02B0915002892B8A2B8B2BA9F00E94B4
:102EE000AA0420914D0230914E0240914F02509120
:102EF0005002DC01CB0184199509A609B7092817EE
:102F000039074A075B07A0F18091BC0083FDD7CF4A
:102F100025EC2093BC0003C035EE3093BC000E942A
:102F2000AA042B013C0180914B02813031F5809144
:102F30004D0290914E02A0914F02B0915002892B08
:102F40008A2B8B2B81F30E94AA0420914D02309191
:102F50004E0240914F0250915002DC01CB01841986
:102F60009509A609B709281739074A075B07D8F654
:102F700080914C020E947D0511C08091480280170B
:102F800010F400914802E5E2F2E0A3E5B2E010E0BF
:102F9000101721F081918D931F5FFACF109252028A
:102FA00010935102812F90E0E816F906F1F401E048
:102FB00010E00C0F1D1F0C0D1D1D4801C8018819C4
:102FC00099098E159F0598F4D10111968D919C91C8
:102FD0001297DC01ED91FC910284F385E02D0995B7
:102FE000F80183870F5F1F4FE9CFB12C09C0CE0CCA
:102FF000DF1C22E0C216D10408F4F6CEB11025C5BC
:10300000B0923E046DA97EA9E3E076956795EA95B6
:10301000E1F7660F771F660F771F072E000C880BEE
:10302000990B0E94A2222FE632E143E85AE30E9464
:1030300001236B017C014B015C01609307017093DC
:1030400008018093090190930A019B01AC010E9441
:10305000FA24882319F088E891E01AC02601370184
:10306000E89477F82FEF3FEF4FE75FE7C301B20136
:103070000E94FA2481110FC02FEF3FEF4FE75FE767
:10308000C301B2010E949B2218162CF48CE891E037
:103090000E94130E78C02FEF3FEF4FE75FE4C701A8
:1030A000B6010E94F52418161CF480E991E0F0CFD7
:1030B0002FEF3FEF4FE75FECC701B6010E949B2265
:1030C00087FDF3CF20E030E0A901C701B6010E94DF
:1030D0009B2287FF0BC06DE288E193E00E943101E3
:1030E00046015701B7FAB094B7F8B0942AE037ED2B
:1030F00043EA5BE3C501B4010E945A244B015C0121
:103100000E94C6246B017C010E94A0229B01AC019D
:10311000C501B4010E9459244B015C014AE0C7017A
:10312000B6010E94250E6EE288E193E00E94310113
:1031300020E030E040E251E4C501B4010E940123E7
:103140004B015C010E94C6246B01E12CF12C4AE08A
:10315000C701B6010E94250EC701B6010E94A02238
:103160009B01AC01C501B4010E94592420E030E06C
:1031700040E251E40E9401230E94C62480E090E0D6
:103180004AE00E94250E0E94E5120E94E51290E09E
:103190000E94660E64E685E00E94A50E0E94FC0E69
:1031A00086E00E94B80E682F676086E00E94A50E38
:1031B00080916804811115C08DE10E94B80E682FBE
:1031C00066608DE10E94A50E8CE10E94B80E682F0A
:1031D00063608CE10E94A50E81E080936A04809375
:1031E000680481E18FA38DED88A78CEC89A78BEB18
:1031F0008AA78AEA8BA71CA61DA61EA6EDE7F0E00B
:10320000849140916904BE01695D7F4F0E94CA0E9E
:1032100082E00E94B80EE3E8F0E0E49161E070E043
:1032200001C0660FEA95EAF7682B82E00E94A50EBE
:103230000E94ED0E6091650461606093650480E01A
:103240000E94A50E60E787E00E94A50E80915804B9
:1032500090915904891719F061E00E9490038091C0
:103260006704882341F04091690460E674E08AE0D5
:103270000E94CA0E14C082E00E94B80EE2E8F0E09C
:10328000E49121E030E001C0220FEA95EAF72095B1
:10329000622F682382E00E94A50E109267040E94AC
:1032A000DA0D64E670E080E090E00E94CF048FEFDA
:1032B0000E94980E80915E0490E0959587958770A6
:1032C000863008F4CFC319C00E94AE0D60E487E0D9
:1032D0000E94A50E63E872E0CE0101960E94BE0234
:1032E00064E971E0CE0101960E949702182FCE0189
:1032F00001960E94B6021111E2C36BE071E0CE01AB
:1033000001960E94BE0265EC71E0CE0101960E941A
:10331000970281112AC06BE071E0CE0144960E94B1
:10332000BE0263E072E0CE0144960E9497028111D2
:1033300016C06BE071E0CE018F960E94BE0267EB73
:1033400071E0CE018F960E94970281111DC585E123
:103350000E94640311E0892B09F017C515C510E020
:10336000CE0144960E94B60201C010E0CE01019643
:103370000E94B602112371F065EC71E0CE01019656
:103380000E94BE02CE0101960E947A0ACE010196E9
:103390000E94B6026BE071E0CE0101960E94BE026F
:1033A00065EC71E0CE0101960E949702882331F00E
:1033B00085E10E948A0411E0892B09F010E0CE011A
:1033C00001960E94B602112371F065ED71E0CE0105
:1033D00001960E94BE02CE0101960E947A0ACE0199
:1033E00001960E94B6026BE071E0CE0101960E9448
:1033F000BE0265ED71E0CE0101960E949702182F82
:10340000CE0101960E94B602112309F4A3C10E94C5
:10341000990981E0809339040E94090500912904EB
:1034200010912A0420912B0430912C04AB01BC0193
:10343000401B510B620B730B809135049091360445
:10344000A0E0B0E084179507A607B70708F0EAC028
:1034500010E080913304181710F0912C42C0E091D5
:103460002F04F0913004E10FF11D62E080810E9491
:103470004A041F5FEECF082D10E0E0912F04F09179
:103480003004E00FF11F80810E9464030C5F1F4F26
:10349000000F111FF801E353FC4F892B09F04DC0B9
:1034A000808191818A299B29918380838394809153
:1034B0003304881600F3E0913104F0913204EE0DEC
:1034C000FF1D61E080810E94900380913104909102
:1034D0003204FC01EE0DFF1D60E080810E944A0471
:1034E000939480913404981668F5E92CF12CE091BE
:1034F0003104F0913204EE0DFF1D61E080810E94E5
:103500004A04E0913104F0913204EE0DFF1D60E0B9
:1035100080810E94900381E090E0A0E0B0E0092C5F
:1035200004C0880F991FAA1FBB1F0A94D2F75C0121
:103530006C01C094D094812CBACF808191818C2170
:103540009D21B2CF3DECE32E33E0F32E89E094E0F1
:10355000F701278D30A1232B31F4148EAFEFBFEF8D
:10356000B68FA58F11A236968E179F0791F7D12C93
:1035700026E0B22E80913304D81658F5C12C0D2DBB
:1035800010E0000F111F0B521C4F20913404C21683
:10359000F0F4F801408151810C2C02C056954795FA
:1035A0000A94E2F7642F6170D29E900111242C0DD1
:1035B000311DEDECF3E080E0A58DB68D2A173B07B9
:1035C00009F404C48F5F36968A30B1F7E3C3D3940D
:1035D000D1CF10E0D70191968C91811111E0B6E026
:1035E000EB0EF11CE9E0EE16E4E0FE0699F70E940E
:1035F00009056093290470932A0480932B04909307
:103600002C04112379F08091EE03882359F08091E6
:10361000EC039091ED03019729F41091E903111146
:1036200004C098C01092390495C00E948F2024EFE6
:1036300031E040E050E00E94BF23CB018C509E4F10
:1036400042E350E060E070E00E942D10812F110FE6
:10365000990BC09720910F0330911003A9014F5F80
:103660005F4F5093100340930F0310927F0210920C
:10367000800210928102109282022130310599F06D
:103680003CF4232BD1F4909378028093770262C0AC
:103690002230310569F02330310579F490937E02B0
:1036A00080937D020EC090937A028093790252C07B
:1036B00090937C0280937B024DC0443051050CF402
:1036C00049C0409177025091780288EE93E0489F7C
:1036D0009001499F300D589F300D1124409179027F
:1036E00050917A0264E6649FC001659F900D112499
:1036F000820F931F40917B0250917C026AE0649F8D
:103700009001659F300D1124820F931F20917D023F
:1037100030917E02820F931F2091000130910101B0
:103720008217930709F45CC30E94990940E050E0B6
:10373000BA018AE090E00E942D1068EE73E080E00C
:1037400090E00E94CF048FE00E94BF03109210030C
:1037500010920F036BE071E0CE0101960E94BE0251
:1037600069EE71E0CE0101960E949702882331F044
:1037700084E10E948A0411E0892B09F010E0CE0157
:1037800001960E94B602112371F06EEF71E0CE0136
:1037900001960E94BE02CE0101960E947A0ACE01D5
:1037A00001960E94B6026BE071E0CE0101960E9484
:1037B000BE026EEF71E0CE0101960E949702182FB3
:1037C000CE0101960E94B602112309F473C00E9433
:1037D0000905DC01CB01845F9140A109B109009189
:1037E0000B0310910C0320910D0330910E03081769
:1037F00019072A073B0728F480E8809353040E94A6
:10380000B2120E940905DC01CB01885E9340A10938
:10381000B10900910B0310910C0320910D0330911D
:103820000E03081719072A073B0780F50E940905B0
:1038300060930B0370930C0380930D0390930E031E
:1038400044E650E060E070E080ED97E00E942D10CB
:1038500080917404909175040197909375048093FE
:1038600074046AE070E00E94FF248B010E947C09CE
:10387000F82EC8010E947C092F2D482F6FE38FE39B
:103880000E941810109253040E94B2128091740486
:1038900090917504892B71F463E072E0CE0101967A
:1038A0000E94BE02CE0101960E947A0ACE010196C4
:1038B0000E94B6020E94090500919C0210919D028F
:1038C00020919E0230919F02DC01CB01801B910B65
:1038D000A20BB30B00911F01109120012091210137
:1038E00030912201081719072A073B0708F0AAC0E0
:1038F0000E94090560939C0270939D0280939E0232
:1039000090939F0280E69AEEA0E0B0E080931F01C2
:1039100090932001A0932101B093220160E08EE0FA
:103920000E9490031092C1031092CB0381E0809318
:10393000C2038091C5038D7F41F080917A008F771B
:1039400080937A0080B7806880BF88EDC82E86EDAE
:10395000D82EE12CF12C8091C8039091C903A0E0EE
:10396000B0E08C159D05AE05BF0508F046C08091FE
:10397000CC038A3010F40E94A21383B7817F909108
:10398000C503892B83BF83B7816083BF8091C40344
:10399000811106C0F89485B7806685BF8F7D85BF8D
:1039A000789488950FB6F894A89580916000886106
:1039B00080936000109260000FBEA89583B78E7F41
:1039C00083BF8091C8039091C903C81AD90AE1083E
:1039D000F1089091CB038091CA03890F8D3730F0A5
:1039E000F1E0CF1AD108E108F1088D578093CB039D
:1039F0008091C103882309F4AECF8091C30388234B
:103A0000D9F02FB7F8948091730290917402A0912D
:103A10007502B091760288529942AF4FBF4F8C1910
:103A20009D09AE09BF098093730290937402A0931D
:103A30007502B09376022FBF0E94B91361E08EE049
:103A40000E9490030E94A0019FC82B858C859D85B4
:103A5000211103C09EAB8DABD3CA382F292F3EABAB
:103A60002DABCECA80916A0481110AC080915F0497
:103A7000E82E8A3110F069E1E62EF82EFE1803C018
:103A8000F12C59E1E52E0E94B10D81E60E94210939
:103A900080935E0403E812E0EA943FEFE31639F006
:103AA0008FEF0E942109D8018D938D01F5CFFF2062
:103AB00009F40ACC8FEF0E942109FA94F8CF8DE81F
:103AC00092E00E94130E8DE991E00E94130E809106
:103AD0000001909101010E94660E6DE872E0CE0136
:103AE00001960E94BE026FE971E0CE0101960E942C
:103AF0009702182FCE0101960E94B60211110E9462
:103B0000DA0D6DE872E0CE0101960E94BE0268EA0D
:103B100071E0CE0101960E949702182FCE01019606
:103B20000E94B602112309F4F3C067E972E0CE01E6
:103B300001960E94BE0261EB71E0CE0101960E94E7
:103B40009702182FCE0101960E94B602112371F040
:103B50000E94DA0D80E497E7ABE1B0E080931F01AB
:103B600090932001A0932101B093220167E972E0B4
:103B7000CE0101960E94BE0264EB71E0CE01019677
:103B80000E949702182FCE0101960E94B6021123BF
:103B900081F00E94DA0D67EB71E0CE0101960E9480
:103BA000BE02CE0101960E947A0ACE0101960E94C1
:103BB000B60267E972E0CE0101960E94BE0262EC95
:103BC00071E0CE0101960E949702182FCE01019656
:103BD0000E94B602112381F00E94DA0D65EC71E0BB
:103BE000CE0101960E94BE02CE0101960E947A0A81
:103BF000CE0101960E94B60267E972E0CE010196FD
:103C00000E94BE0261ED71E0CE0101960E94970212
:103C1000182FCE0101960E94B602112381F00E9456
:103C2000DA0D65ED71E0CE0101960E94BE02CE0173
:103C300001960E947A0ACE0101960E94B60267E9B7
:103C400072E0CE0101960E94BE0265EE71E0CE01E7
:103C500001960E949702182FCE0101960E94B6028B
:103C6000112381F00E94DA0D69EE71E0CE01019618
:103C70000E94BE02CE0101960E947A0ACE010196F0
:103C80000E94B60267E972E0CE0101960E94BE0270
:103C90006AEF71E0CE0101960E949702182FCE01C3
:103CA00001960E94B602112381F00E94DA0D6EEF98
:103CB00071E0CE0101960E94BE02CE0101960E94E3
:103CC0007A0ACE0101960E94B60267E972E0CE013F
:103CD00001960E94BE026BEF71E0CE0101960E9438
:103CE0009702182FCE0101960E94B602112381F08F
:103CF0000E94DA0D63E072E0CE0101960E94BE02DE
:103D0000CE0101960E947A0ACE0101960E94B60267
:103D10006DE872E0CE0101960E94BE026DE072E095
:103D2000CE0101960E949702182FCE0101960E94A3
:103D3000B602112351F00E94DA0D87E992E00E9449
:103D4000E62090930101809300016DE872E0CE01BE
:103D500001960E94BE0266E172E0CE0101960E94C9
:103D60009702182FCE0101960E94B602112309F482
:103D7000C4CA0E94DA0D87E992E00E94E62090937F
:103D80003D0180933C01B9CA10E0CE018F960E949C
:103D9000B602E6CA40FF1CC0EDECF3E080E090E024
:103DA000448D411117C0E0912D04F0912E04E20FD3
:103DB000F31F4081B89EF001B99EF00D1124E3532A
:103DC000FC4F448F368F258F10A2178E0E94C81388
:103DD000C394DBCB019636968A30910509F7F8CF6C
:103DE00040E050E0BA0184EF91E00E942D1064E6BB
:103DF00070E080E090E00E94CF048FE00E94BF035B
:103E000040E050E0BA0188EE93E00E942D1064E695
:103E100070E080E090E00E94CF048FE00E94BF033A
:103E200069EE71E0CE0101960E94BE02CE010196BC
:103E30000E947A0ACE0101960E94B6028BCC809134
:103E40003C0490913D040C940B2210921B031092A1
:103E50001A0388EE93E0A0E0B0E080931C039093F7
:103E60001D03A0931E03B0931F032CE431E0309395
:103E700019032093180325EC30E030932503209399
:103E8000240324EC30E0309327032093260320EC16
:103E900030E0309329032093280321EC30E0309365
:103EA0002B0320932A0322EC30E030932D03209340
:103EB0002C0326EC30E030932F0320932E03109236
:103EC0003103109232031092330310923403109294
:103ED000B8031092B7038093B9039093BA03A093E9
:103EE000BB03B093BC038EE591E09093B60380933F
:103EF000B503E1ECF3E08CE0DF011D928A95E9F770
:103F00001092C1031092C20381E08093C30392E038
:103F10009093C50320E83EE33093C7032093C60384
:103F200020E830E03093C9032093C80393E09093D6
:103F3000CC0320913C0130913D01309375042093D6
:103F4000740499E0909358049AE09093590440E8DF
:103F500056E968E970E040935A0450935B0460931B
:103F60005C0470935D0490E290935F041092660489
:103F70001092670495E09093690480936A0485E049
:103F800090E0A0E0B0E08093700490937104A0935F
:103F90007204B093730480E894E090935704809384
:103FA00056041092600481E18093540480E1809370
:103FB000550461E081E10E944A0461E0809155046A
:103FC0000E944A0410923D0410923C0480E48093C5
:103FD0003F0410924404109245041092460410923B
:103FE0004704109248041092490410924A04109217
:103FF0004B041092CF031092D3031092D20310926D
:10400000D40380E791E09093CE038093CD03EDEC51
:10401000F3E0148E10A2178E11A23696B4E0E930A8
:10402000FB07B9F788E291E09093300480932F0466
:1040300084E291E0909332048093310484E0809391
:104040003304809334048CE291E090932E048093A7
:104050002D048AE090E0909336048093350484EF39
:1040600091E0909338048093370410923B041092AF
:104070003A041092290410922A0410922B041092F0
:104080002C041092390408958F929F92AF92BF92A0
:10409000CF92DF92EF92FF92CF93DF93EC01688192
:1040A00079818A819B81611571058105910521F4D2
:1040B00064E279ED8BE597E02DE133EF41E050E0EC
:1040C0000E94BF2349015A019B01AC01A7EAB1E458
:1040D0000E94DE236B017C01ACEEB4EFA5019401DC
:1040E0000E94EC23DC01CB018C0D9D1DAE1DBF1D7C
:1040F000B7FF03C00197A109B04888839983AA83B9
:10410000BB83BC01CD019F77DF91CF91FF90EF90F2
:10411000DF90CF90BF90AF909F908F9008958F9237
:104120009F92AF92BF92CF92DF92EF92FF926091F7
:104130003E0170913F0180914001909141016115D4
:1041400071058105910521F464E279ED8BE597E035
:104150002DE133EF41E050E00E94BF2349015A01B5
:104160009B01AC01A7EAB1E40E94DE236B017C0154
:10417000ACEEB4EFA50194010E94EC23DC01CB016D
:104180008C0D9D1DAE1DBF1DB7FF03C00197A1097A
:10419000B04880933E0190933F01A0934001B093BB
:1041A0004101BC01CD019F77FF90EF90DF90CF9050
:1041B000BF90AF909F908F90089560933E01709351
:1041C0003F0180934001909341010895FC018827AD
:1041D0009927E89421912032E9F3293010F02E300C
:1041E000C8F32B3241F02D3239F4689404C00E9498
:1041F0000421820F911D219120532A30C0F31EF417
:10420000909581959F4F08957AE0979F902D879F75
:10421000802D910D112408950F931F93CF93DF9359
:10422000009731F46115710519F480E090E03AC00F
:104230008B01EC016EE070E081E090E00E9457217C
:10424000FC01892B91F380E883830115110571F03E
:104250001387028781E88383809186049091870485
:10426000892B21F4F0938704E09386042097C9F00A
:10427000D187C087838182608383809188049091F5
:104280008904892B71F4F0938904E0938804809168
:104290008A0490918B04892B21F4F0938B04E09392
:1042A0008A04CF01DF91CF911F910F9108950F9351
:1042B0001F93CF93DF93869F8001879F100D969F5A
:1042C000100D1124C8010E947321EC01009729F000
:1042D000A80160E070E00E949422CE01DF91CF91AE
:1042E0001F910F9108950F931F93CF93DF93823007
:1042F000910510F482E090E0E0918E04F0918F043B
:1043000020E030E0A0E0B0E0309719F14081518129
:104310000281138148175907C8F08417950769F47B
:10432000109731F012960C93129713961C9327C096
:1043300000938E0410938F0422C02115310519F0CB
:104340004217530718F49A01BD01EF01DF01F8018C
:10435000DBCF21153105F9F0281B390B243031054D
:1043600080F48A819B816115710521F0FB019383A3
:10437000828304C090938F0480938E04FE01329652
:1043800044C0FE01E20FF31F819391932250310943
:10439000398328833AC020918C0430918D04232BDB
:1043A00041F4209144013091450130938D042093D4
:1043B0008C0420914201309143012115310541F4D3
:1043C0002DB73EB74091460150914701241B350B54
:1043D000E0918C04F0918D04E217F307A0F42E1BFA
:1043E0003F0B2817390778F0AC014E5F5F4F241759
:1043F000350748F04E0F5F1F50938D0440938C0497
:104400008193919302C0E0E0F0E0CF01DF91CF9182
:104410001F910F910895CF93DF93009709F481C006
:10442000FC01329713821282A0918E04B0918F0406
:10443000109781F420813181820F931F20918C0489
:1044400030918D042817390751F5F0938D04E093CE
:104450008C0467C0ED0120E030E0CE17DF0740F4A8
:104460004A815B819E0141155105F1F0EA01F5CFCA
:10447000D383C28340815181840F951FC817D90708
:1044800059F488819981840F951F029691838083C6
:104490008A819B81938382832115310529F4F093CE
:1044A0008F04E0938E043DC0E901FB83EA834991C8
:1044B0005991C40FD51FEC17FD0761F480819181DC
:1044C000840F951F0296E9019983888382819381E5
:1044D0009B838A83E0E0F0E012968D919C91139784
:1044E000009719F0FD01DC01F7CF8D919C91119798
:1044F0009D012E5F3F4F820F931F20918C043091BE
:104500008D042817390769F4309729F410928F0425
:1045100010928E0402C013821282B0938D04A09375
:104520008C04DF91CF910895DC0101C06D9341505F
:104530005040E0F708950E94DD2208F481E00895DC
:10454000E89409C097FB3EF490958095709561952D
:104550007F4F8F4F9F4F9923A9F0F92F96E9BB27E3
:104560009395F695879577956795B795F111F8CF5F
:10457000FAF4BB0F11F460FF1BC06F5F7F4F8F4FCA
:104580009F4F16C0882311F096E911C0772321F0C0
:104590009EE8872F762F05C0662371F096E8862F58
:1045A00070E060E02AF09A95660F771F881FDAF7AF
:1045B000880F9695879597F90895990F0008550FDC
:1045C000AA0BE0E8FEEF16161706E807F907C0F099
:1045D00012161306E407F50798F0621B730B840BA1
:1045E000950B39F40A2661F0232B242B252B21F47B
:1045F00008950A2609F4A140A6958FEF811D811D1B
:1046000008950E9414230C9485230E94772338F088
:104610000E947E2320F0952311F00C946E230C94BD
:10462000742311240C94B9230E94962370F3959F50
:10463000C1F3950F50E0551F629FF001729FBB2799
:10464000F00DB11D639FAA27F00DB11DAA1F649F35
:104650006627B00DA11D661F829F2227B00DA11DE8
:10466000621F739FB00DA11D621F839FA00D611D6E
:10467000221F749F3327A00D611D231F849F600D8F
:10468000211D822F762F6A2F11249F5750409AF0B8
:10469000F1F088234AF0EE0FFF1FBB1F661F771F44
:1046A000881F91505040A9F79E3F510580F00C940F
:1046B0006E230C94B9235F3FE4F3983ED4F38695C0
:1046C00077956795B795F795E7959F5FC1F7FE2BAF
:1046D000880F911D9695879597F9089597F99F678B
:1046E00080E870E060E008959FEF80EC089500247A
:1046F0000A941616170618060906089500240A9447
:1047000012161306140605060895092E0394000CCC
:1047100011F4882352F0BB0F40F4BF2B11F460FF5B
:1047200004C06F5F7F4F8F4F9F4F089557FD905884
:10473000440F551F59F05F3F71F04795880F97FB65
:10474000991F61F09F3F79F087950895121613061F
:104750001406551FF2CF4695F1DF08C0161617064E
:104760001806991FF1CF8695710561050894089583
:10477000E894BB2766277727CB0197F90895052E84
:1047800097FB1EF400940E94D62357FD07D00E9489
:10479000282407FC03D04EF40C94D6235095409562
:1047A000309521953F4F4F4F5F4F089590958095DD
:1047B000709561957F4F8F4F9F4F08950E944A24B7
:1047C000A59F900DB49F900DA49F800D911D112465
:1047D0000895B7FF0C94DE230E94DE23821B930B07
:1047E00008952F923F924F925F926F927F928F9295
:1047F0009F92AF92BF92CF92DF92EF92FF920F9370
:104800001F93CF93DF93CDB7DEB7CA1BDB0B0FB679
:10481000F894DEBF0FBECDBF09942A883988488836
:104820005F846E847D848C849B84AA84B984C884CC
:10483000DF80EE80FD800C811B81AA81B981CE0FC3
:10484000D11D0FB6F894DEBF0FBECDBFED010895A8
:10485000A1E21A2EAA1BBB1BFD010DC0AA1FBB1F84
:10486000EE1FFF1FA217B307E407F50720F0A21BF6
:10487000B30BE40BF50B661F771F881F991F1A9463
:1048800069F760957095809590959B01AC01BD018D
:10489000CF010895A29FB001B39FC001A39F700DE7
:1048A000811D1124911DB29F700D811D1124911D38
:1048B00008955058BB27AA270E9471240C94852381
:1048C0000E94772338F00E947E2320F039F49F3F26
:1048D00019F426F40C9474230EF4E095E7FB0C9481
:1048E0006E23E92F0E94962358F3BA1762077307C5
:1048F0008407950720F079F4A6F50C94B8230EF4FC
:10490000E0950B2EBA2FA02D0B01B90190010C01DF
:10491000CA01A0011124FF27591B99F0593F50F4F7
:10492000503E68F11A16F040A22F232F342F44274F
:10493000585FF3CF469537952795A795F040539547
:10494000C9F77EF41F16BA0B620B730B840BBAF017
:104950009150A1F0FF0FBB1F661F771F881FC2F782
:104960000EC0BA0F621F731F841F48F48795779596
:104970006795B795F7959E3F08F0B0CF9395880F50
:1049800008F09927EE0F9795879508950E949E232A
:1049900088F09F5798F0B92F9927B751B0F0E1F000
:1049A000660F771F881F991F1AF0BA95C9F714C0B0
:1049B000B13091F00E94B823B1E008950C94B8236F
:1049C000672F782F8827B85F39F0B93FCCF38695E9
:1049D00077956795B395D9F73EF490958095709546
:1049E00061957F4F8F4F9F4F08950E94DD2208F4FD
:1049F0008FEF08950E94DD22880B990B089597FB95
:104A0000072E16F4009407D077FD09D00E941925CF
:104A100007FC05D03EF4909581959F4F08957095C1
:104A200061957F4F0895EE0FFF1F0590F491E02DE3
:104A30000994AA1BBB1B51E107C0AA1FBB1FA617E5
:104A4000B70710F0A61BB70B881F991F5A95A9F737
:104A500080959095BC01CD010895A0E0B0E0E3E31E
:104A6000F5E20C94F523EC01009721F4CB010E94B0
:104A70007321B4C0FC01E60FF71F9C0122503109DD
:104A8000E217F30708F4A8C0D9010D911C91119702
:104A900006171707B0F00530110508F49BC0C801D0
:104AA00004978617970708F495C002501109061B52
:104AB000170B019311936D937C93CF010E940B22EE
:104AC00089C05B01A01AB10A4C01800E911EA09111
:104AD0008E04B0918F04612C712CE12CF12C109775
:104AE00009F446C08D919C911197A815B905B1F5AF
:104AF0006C0142E0C40ED11CCA14DB0478F14C01F5
:104B00008A189B08640142E0C40ED11C1296BC9026
:104B100012971396AC91B5E0CB16D10440F0B28257
:104B2000A38391828082D9016D937C9309C00E5F2B
:104B30001F4F800F911FF90191838083EB2DFA2F76
:104B4000E114F10431F0D7011396FC93EE93129720
:104B500041C0F0938F04E0938E043CC06816790640
:104B600008F43C017D0112960D90BC91A02DB7CFA9
:104B700080918C0490918D0488169906E1F4661654
:104B80007706C8F48091420190914301009741F467
:104B90008DB79EB74091460150914701841B950BFC
:104BA000E817F907C8F4F0938D04E0938C04F90139
:104BB000718360830FC0CB010E9473217C01009739
:104BC00059F0A801BE010E94F825CE010E940B22D7
:104BD000C70104C0CE0102C080E090E0CDB7DEB7CF
:104BE000EEE00C94112481E090E0F8940C941126EE
:104BF000FB01DC0102C001900D9241505040D8F7FA
:104C00000895FB01DC018D91019080190110D9F309
:104C1000990B0895FB01DC0101900D920020E1F752
:104C2000089510E0C3E7D0E004C0FE010E94132500
:0C4C30002196C437D107C9F7F894FFCFD4
:104C3C00D204426F6D62610000000044696E616DC8
:104C4C006F5F4F666600000000000000000000600F
:104C5C00EA0000FF05040302060708093134372A6D
:104C6C003235383033363923414243441400010085
:104C7C0000000000900420000000000031019E00A4
:104C8C00C8007E01F900D700EB00000000005602BE
:104C9C0029028602FD0121020D02FE010000000026
:104CAC00860446048D03424F4D42412053544152D9
:104CBC0054205550000D0A006E616E00696E66003E
:104CCC006F766600546F5F426F6D62610020004723
:104CDC0065745F496E666F005365745F53746174DD
:104CEC0000575500444F0044696E616D6F5F4F660D
:104CFC00660057470057686169745F4761796B615B
:104D0C000057434500576169745F436F64655F45A5
:104D1C006E7465720057545300576169745F54691F
:104D2C006D65725F5374617274005754450057611E
:104D3C0069745F54696D65725F456E640053657488
:104D4C005F50617373005365745F54696D657200D5
:00000001FF
