:100000000C9474000C949C000C949C000C949C0028
:100010000C949C000C949C000C9404090C94EA032E
:100020000C949C000C949C000C949C000C949C00E0
:100030000C949C000C949C000C949C000C949C00D0
:100040000C9415050C949C000C9432030C940C0336
:100050000C949C000C949C000C949C000C949C00B0
:100060000C94D6050C949C0095098409970986097F
:1000700088098A098C098E099009920900000000FC
:10008000240027002A000A0B0C0D0E0F00010203AA
:1000900004050000000023002600290000000008DD
:1000A000000201000003040700000000000000003F
:1000B00001020408102040800102040810200102FF
:1000C0000408102000000000250028002B00040474
:1000D00004040404040402020202020203030303F0
:1000E00003030200011FFB1E11241FBECFEFD8E047
:1000F000DEBFCDBF12E0A0E0B1E0E4EFFBE402C060
:1001000005900D92AC31B107D9F724E0ACE1B2E033
:1001100001C01D92AC38B207E1F710E0C3E7D0E0B0
:1001200004C02197FE010E94EF24C237D107C9F70E
:100130000E9406140C94ED250C940000CF92DF92DF
:10014000EF92FF920F931F93CF93DF936C017A018D
:100150008B01C0E0D0E0CE15DF0581F0D8016D91B4
:100160008D01D601ED91FC910190F081E02DC60149
:100170000995892B11F02196EECF7E01C701DF9101
:10018000CF911F910F91FF90EF90DF90CF90089546
:10019000FC01538D448D252F30E0842F90E0821B8D
:1001A000930B541710F0CF96089501970895FC0112
:1001B000918D828D981761F0828DDF01A80FB11D9E
:1001C0005D968C91928D9F5F9F73928F90E00895C2
:1001D0008FEF9FEF0895FC01918D828D981731F07C
:1001E000828DE80FF11D858D90E008958FEF9FEFD0
:1001F0000895FC01918D228D892F90E0805C9F4FA6
:10020000821B91098F739927089585E193E00E94DD
:10021000F90021E0892B09F420E0822F0895FC01E8
:10022000848DDF01A80FB11DA35ABF4F2C91848D7F
:1002300090E001968F739927848FA689B7892C93B4
:10024000A089B1898C91837080648C93938D848D07
:10025000981306C00288F389E02D80818F7D80830A
:100260000895EF92FF920F931F93CF93DF93EC01CA
:1002700081E0888F9B8D8C8D981305C0E889F98962
:10028000808185FD26C0F62E0B8D10E00F5F1F4F7D
:100290000F731127E02E8C8DE8120CC00FB607FCEF
:1002A000FACFE889F989808185FFF5CFCE010E94D8
:1002B0000F01F1CF8B8DFE01E80FF11DE35AFF4FC7
:1002C000F0829FB7F8940B8FEA89FB898081806266
:1002D0000AC09FB7F894EE89FF896083E889F9899D
:1002E00080818370806480839FBF81E090E0DF9194
:1002F000CF911F910F91FF90EF900895CF93DF93CF
:10030000EC01888D8823C9F0EA89FB89808185FD0D
:1003100005C0A889B9898C9186FD0FC00FB607FC6E
:10032000F5CF808185FFF2CFA889B9898C9185FFAF
:10033000EDCFCE010E940F01E7CFDF91CF9108955D
:1003400080E090E0892B29F00E94050181110C9436
:1003500000000895833081F028F4813099F08230D4
:10036000A1F008958730A9F08830B9F08430D1F435
:10037000809180008F7D03C0809180008F77809373
:100380008000089584B58F7702C084B58F7D84BDC9
:1003900008958091B0008F7703C08091B0008F7D69
:1003A0008093B00008954091E002262F30E0240FA2
:1003B000311D21323105DCF4209147022430C9F48B
:1003C000FC0180E090E0861758F43091E002219122
:1003D000DC01A054BD4FA30FB11D2C930196F3CFA8
:1003E0008091E002680F6093E00280E0089581E070
:1003F000089582E00895089508950895E0914E02C9
:1004000080914D02E81730F4F0E0E15BFD4F808110
:1004100090E008958FEF9FEF089590914E028091A4
:100420004D02981750F4E92FF0E0E15BFD4F208179
:1004300030E09F5F90934E0202C02FEF3FEFC90163
:10044000089580914D0290E020914E02821B910907
:100450000895CF92DF92EF92FF920F931F93CF9365
:10046000DF937C01CB018A0120918104222389F052
:10047000EB016B01C40ED51ECC15DD0569F0699149
:10048000D701ED91FC910190F081E02DC701099514
:10049000F3CF642F0E94D301C801DF91CF911F9148
:1004A0000F91FF90EF90DF90CF900895CF93DF935F
:1004B0001F92CDB7DEB76983209181042223D1F04A
:1004C00020917E04203240F021E030E0FC013383B3
:1004D000228380E090E015C080917F04E82FF0E057
:1004E000E156FD4F998190838F5F80937F048093C5
:1004F0007E0405C061E0CE0101960E94D30181E037
:1005000090E00F90DF91CF910895089580E090E002
:100510000895CF93C82F682F85E193E00E943101A1
:100520008C2FCC0F990BCF9108950E94CF25FC0101
:1005300024813581232B31F421E061157105A1F06F
:10054000FB0108C0FC01808191816115710531F4C6
:1005500021E0FC018081882339F005C00E94DD255F
:1005600021E0892B09F020E0822F0895FC01808191
:100570009181009711F00C94E7210895EF92FF927A
:100580000F931F93CF93DF93EC01198218821B8284
:100590001A821D821C8261157105B9F17B01FB0174
:1005A00001900020E9F731978F01061B170BB80166
:1005B0006F5F7F4F80E090E00E940925009759F01F
:1005C000998388831B830A832C813D81232B81F4AB
:1005D000FC0110820DC088819981009711F00E9462
:1005E000E721198218821D821C821B821A820DC08B
:1005F0001D830C83B70188819981DF91CF911F9171
:100600000F91FF90EF900C94E625DF91CF911F9111
:100610000F91FF90EF9008951F920F920FB60F92D7
:1006200011242F933F934F935F936F937F938F93F7
:100630009F93AF93BF93EF93FF9385E193E00E9465
:100640000F01FF91EF91BF91AF919F918F917F919A
:100650006F915F914F913F912F910F900FBE0F902F
:100660001F9018951F920F920FB60F9211242F937F
:100670008F939F93EF93FF93E0912503F0912603CF
:100680008081E0912B03F0912C0382FD12C09081B8
:1006900080912E038F5F8F7320912F03821751F06B
:1006A000E0912E03F0E0EB5EFC4F958F80932E03DC
:1006B00001C08081FF91EF919F918F912F910F90B9
:1006C0000FBE0F901F901895CF93DF93282F30E027
:1006D000F901E456FF4F8491F901E055FF4FD491A1
:1006E000F901E253FF4FC491CC2391F081110E9494
:1006F000AA01EC2FF0E0EE0FFF1FEE56FF4FA59181
:10070000B491EC91ED2381E090E021F480E002C00F
:1007100080E090E0DF91CF910895862F0C946403E0
:100720001F93CF93DF93282F30E0F901E456FF4F5A
:100730008491F901E055FF4FD491F901E253FF4F45
:10074000C491CC23C1F0162F81110E94AA01EC2F75
:10075000F0E0EE0FFF1FEC53FF4FA591B4919FB750
:10076000F894111104C08C91D095D82302C0EC915B
:10077000DE2BDC939FBFDF91CF911F910895909165
:100780002301891324C0E2EEF0E0E4919FEF9093FF
:100790002301E130B9F098F0E230C9F49091700093
:1007A0009D7F9093700091E09093B0009091B10084
:1007B000987F94609093B1001092B30008C010929B
:1007C0006E0005C090916F009D7F90936F0060E078
:1007D0000C9490031F920F920FB60F9211242F9337
:1007E0003F934F935F936F937F938F939F93AF93B9
:1007F000BF93EF93FF938091110390911203A09107
:100800001303B0911403892B8A2B8B2B51F19091F8
:100810000E03E0910F03F0911003808189278083FC
:100820008091110390911203A0911303B0911403CE
:10083000181619061A061B06C4F48091110390912C
:100840001203A0911303B09114030197A109B109F8
:100850008093110390931203A0931303B093140396
:1008600004C0809123010E94BF03FF91EF91BF91CB
:10087000AF919F918F917F916F915F914F913F9138
:100880002F910F900FBE0F901F901895862F642FF9
:100890000C949003CF93DF9390E0FC01E055FF4F61
:1008A0002491FC01E253FF4F8491882361F190E091
:1008B000880F991FFC01E458FF4FC591D491FC01AA
:1008C000EC53FF4FA591B491611109C09FB7F89403
:1008D0008881209582238883EC912E230BC062307F
:1008E00061F49FB7F8948881322F309583238883F1
:1008F000EC912E2B2C939FBF06C08FB7F894E88104
:100900002E2B28838FBFDF91CF910895862F642FE0
:100910000C944A048E3008F08E5087708064809367
:100920007C0080917A00806480937A0080917A00C4
:1009300086FDFCCF809178009091790008958230F7
:10094000910538F0880F991F880F991F0597019717
:10095000F1F708953FB7F89480910403909105034F
:10096000A0910603B091070326B5A89B05C02F3FB1
:1009700019F00196A11DB11D3FBFBA2FA92F982FC5
:100980008827820F911DA11DB11DBC01CD0142E040
:10099000660F771F881F991F4A95D1F708958F9288
:1009A0009F92AF92BF92CF92DF92EF92FF926B0134
:1009B0007C010E94AA044B015C01C114D104E10432
:1009C000F104F1F00E94AA04DC01CB018819990915
:1009D000AA09BB09883E9340A105B10570F321E047
:1009E000C21AD108E108F10888EE880E83E0981E4B
:1009F000A11CB11CC114D104E104F10419F7DDCF2D
:100A0000FF90EF90DF90CF90BF90AF909F908F902E
:100A100008952FB7F89460916F02709170028091E1
:100A20007102909172022FBF08951F920F920FB61C
:100A30000F9211242F933F938F939F93AF93BF9364
:100A400080916F0290917002A0917102B091720238
:100A50003091030323E0230F2D3720F40196A11DCD
:100A6000B11D05C026E8230F0296A11DB11D2093DC
:100A7000030380936F0290937002A0937102B0936E
:100A800072028091040390910503A0910603B09136
:100A900007030196A11DB11D8093040390930503E4
:100AA000A0930603B0930703BF91AF919F918F91DD
:100AB0003F912F910F900FBE0F901F90189510929D
:100AC000470281E0809346021092410261E082E198
:100AD0000E94900361E083E10E949003E9EBF0E063
:100AE00080818E7F808380818D7F808388E4809366
:100AF000B80085E48093BC000895CF93DF9391E024
:100B00009093BF028823B9F0C091B800D091BA0089
:100B10008091BC008A7B8093BC0060E082E10E94EF
:100B2000900360E083E10E9490030E945F05D093F0
:100B3000BA00C093B800DF91CF91089585ED8093FE
:100B4000BC008091490290914A02A0914B02B09161
:100B50004C020796A11DB11D23E0B695A795979568
:100B600087952A95D1F72091BC0024FF1CC04091A5
:100B7000490250914A0260914B0270914C02452B00
:100B8000462B472B81F30097A105B10541F02AE2DE
:100B90002A95F1F700C00197A109B109E4CF80912E
:100BA00048020C947D051092470208951F920F92FF
:100BB0000FB60F9211242F933F934F935F936F9330
:100BC0007F938F939F93AF93BF93EF93FF93809106
:100BD000B900887F803609F49CC068F5883209F432
:100BE0005BC090F4803109F454C038F4882309F4D0
:100BF000F6C0883009F44DC0F6C0883109F44CC005
:100C0000803209F45DC0EFC0803409F468C048F454
:100C1000803309F455C0883309F0E5C0809345025C
:100C2000D8C0803509F44FC0883509F45DC08834D8
:100C300009F0D9C0D6C0883909F4C7C0A8F48837EC
:100C400009F467C038F4883609F463C0803709F4C2
:100C500060C0C9C0883809F4B8C0803909F45FC0E1
:100C6000803809F0C0C05BC0803B09F486C038F40E
:100C7000803A09F466C0883A09F47FC0B4C0803C69
:100C800009F4A7C0883C09F4A4C0883B09F48AC0D1
:100C9000AAC08091420210C0909144028091430208
:100CA000981770F5E091440281E08E0F8093440222
:100CB000F0E0EF5DFD4F80818093BB0085EC86C046
:100CC000809345028EC0E091440281E08E0F8093B4
:100CD00044028091BB00F0E0EF5DFD4F8083909176
:100CE0004402809143026EC0E091440281E08E0F85
:100CF000809344028091BB00F0E0EF5DFD4F808364
:100D00008091460281116DC081E08093410284EAA6
:100D100061C083E08093470210920203CFCF80919D
:100D20000203803208F051C0E091020381E08E0F8F
:100D3000809302038091BB00F0E0EE51FD4F808371
:100D4000BDCF85EC8093BC001092470280910203D6
:100D5000803230F4E0910203F0E0EE51FD4F10825A
:100D60006091020370E0E0911D02F0911E0282EE9C
:100D700092E009951092020336C084E08093470206
:100D80001092E1021092E002E0911F02F091200225
:100D900009958091E002811105C081E08093E00215
:100DA0001092C002E091E10281E08E0F8093E10297
:100DB000F0E0E054FD4F80818093BB009091E10210
:100DC0008091E002981708F479CF85E88093BC0001
:100DD0000AC085EC8093BC001092470204C01092B8
:100DE00045020E949E05FF91EF91BF91AF919F91A7
:100DF0008F917F916F915F914F913F912F910F90C4
:100E00000FBE0F901F9018958F929F92AF92BF9236
:100E1000CF92DF92EF92FF920F931F93CF93DF93C6
:100E200010917E04113208F0C2C0062FD0918004C8
:100E30000E94AA046B017C01C0914702CC2311F1EE
:100E40008091490290914A02A0914B02B0914C02CC
:100E5000892B8A2B8B2B81F30E94AA048090490254
:100E600090904A02A0904B02B0904C02DC01CB0162
:100E70008C199D09AE09BF0988169906AA06BB06FA
:100E8000D8F681C082E080934702009346028FEF3C
:100E9000809345021092440210934302AFE9B2E0FE
:100EA000E1E2F2E080E0181721F09D9191938F5FCD
:100EB000FACF10924202909142028D2F880F892B17
:100EC0008093420280914102813089F51092410263
:100ED0000E94AA046B017C01809142028093BB00B6
:100EE0008091490290914A02A0914B02B0914C022C
:100EF000892B8A2B8B2BA9F00E94AA04009149020E
:100F000010914A0220914B0230914C02DC01CB013E
:100F10008C199D09AE09BF09081719072A073B0755
:100F200090F18091BC0083FDD7CF85EC01C085EEA8
:100F30008093BC000E94AA046B017C01809147024F
:100F4000823039F58091490290914A02A0914B027A
:100F5000B0914C02892B8A2B8B2B81F30E94AA041F
:100F60000091490210914A0220914B0230914C02AB
:100F7000DC01CB018C199D09AE09BF0908171907BF
:100F80002A073B07D8F6809148020E947D05C5E0FC
:100F900013C0809145028F3F79F0809145028032E5
:100FA00041F080914502803331F0C4E005C0C1E0DA
:100FB00003C0C2E001C0C3E010927F0410927E041F
:100FC000109281048C2FDF91CF911F910F91FF9090
:100FD000EF90DF90CF90BF90AF909F908F9008954B
:100FE000AF92BF92CF92DF92EF92FF920F931F9337
:100FF000CF93DF93EC0188819981892B31F06EBD0D
:101000000DB407FEFDCFAEB496C088859985892BB7
:1010100011F010E801C011E0BB24B394862F8123A6
:1010200009F0B12C062F2C813D814E815F8160E259
:1010300071EA87E090E00E940424F22EA02EE12CB9
:10104000C22ED12CFF2019F0C6010E949F048A8570
:10105000877FB9F58D858F3FB9F0902F912381E07F
:1010600009F480E0B81681F0EF85F8898F8999231B
:1010700031F09081892B8083BB24B39405C090818B
:10108000809589238083B12CE989FA899081898DA3
:10109000892B8083FF2019F0C6010E949F048E8552
:1010A0008F3F39F0EB89FC899081888D892309F085
:1010B000E12AE989FA899081898D80958923808345
:1010C0002CC0E989FA899081898D892B8083FF2042
:1010D00019F0C6010E949F048D858F3F69F0EF854E
:1010E000F8898F89902F912319F09081892B03C063
:1010F0009081809589238083E989FA899081898DFF
:101100008095892380838E858F3F39F0EB89FC8918
:101110009081888D892309F0E12A8E858F3F09F01F
:10112000AE2C88859985892B21F4110F11118ACF56
:1011300002C01695FBCF8A2DDF91CF911F910F91A1
:10114000FF90EF90DF90CF90BF90AF900895FF9207
:101150000F931F93CF93DF93EC018A01F22E8981C5
:101160009A81DC01ED91FC910280F381E02D0995DB
:101170000817190739F46F2D89819A810E94040795
:1011800091E0811190E0892FDF91CF911F910F9114
:10119000FF900895CF93DF93EC018B8181111EC0E6
:1011A00010924E0210924D0210927F0410927E0413
:1011B0000E945F058BEF91E09093200280931F02C5
:1011C0008CEF91E090931E0280931D0281E08B834F
:1011D000CE010E94CA08982F882391F0888191E05F
:1011E000909381048093800410927F0410927E0477
:1011F00061E089819A810E94040791E0811190E069
:10120000892FDF91CF9108951F920F920FB60F9201
:1012100011248F9381E080931C028F910F900FBE59
:101220000F901F9018958FB7F89480919E028FBFF2
:101230000895FC0183858F3F19F061E00C949003C1
:1012400008958EBD00000DB407FEFDCF8EB5089544
:101250008CBD9DBD0895CF93DF93EC01888199816A
:10126000892B31F0EA81FB81808191810E942809DC
:101270008B858F3F29F060E0DF91CF910C94900334
:10128000DF91CF9108958F929F92AF92BF92CF92AC
:10129000DF92EF92FF920F931F93CF93DF937C0126
:1012A0005B016A0149010E942B09E401080D191D27
:1012B000C017D10729F06991C7010E94F007F8CF44
:1012C000E501CA0CDB1CCC15DD0529F06991C701CD
:1012D0000E94F007F8CFC7010E94190981E0DF9151
:1012E000CF911F910F91FF90EF90DF90CF90BF9023
:1012F000AF909F908F9008958A309105A8F4FC01DB
:10130000EC5CFF4F0C94EF2486E008958FE4089581
:1013100086E608958DE608958DE7089587E008959F
:101320008FE708958FE6089508958FE308958BE57C
:1013300008950F931F93CF93DF930E9409050091A7
:101340007B0210917C0220917D0230917E02DC01B3
:10135000CB01801B910BA20BB30B853F9140A105E4
:10136000B10508F4C2C00E94090560937B02709326
:101370007C0280937D0290937E0220919D02809159
:101380000C0390910D03222309F444C010929D0296
:101390008230910579F17CF4009739F1019709F0D9
:1013A000A4C080917302909174020E947C0920E095
:1013B00040E068E094C08330910509F044C080911A
:1013C0007702909178020E947C09D82F8091750253
:1013D000909176020E947C09C82F809173029091AF
:1013E00074020E947C0928E078C020E040E060E0C0
:1013F00088E075C080917502909176020E947C0908
:10140000C82F80917302909174020E947C0920E0A1
:1014100048E064C021E020939D0282309105C1F133
:101420007CF4009781F1019709F05FC0809173020D
:10143000909174020E947C0920E040E060E04FC07F
:1014400083309105A9F1049709F04FC0809179028A
:1014500090917A020E947C09182F809177029091D6
:1014600078020E947C09D82F8091750290917602B3
:101470000E947C09C82F80917302909174020E948F
:101480007C09212F2AC020E040E060E080E027C0F6
:1014900080917502909176020E947C09C82F8091FC
:1014A0007302909174020E947C0920E040E016C013
:1014B00080917702909178020E947C09D82F8091C8
:1014C0007502909176020E947C09C82F8091730268
:1014D000909174020E947C0920E04D2F6C2FDF91C7
:1014E000CF911F910F910C94D010DF91CF911F914C
:1014F0000F91089596E0899FD0011124A653BC4F07
:1015000090967C936E935F9791E091969C939197C0
:1015100090913604E0913704F0913804992339F022
:10152000309751F0811108C08091E60304C03097D4
:1015300019F05C968C91099408957F928F929F92F6
:10154000AF92BF92CF92DF92EF92FF920F931F93D1
:10155000CF93DF93EC0180E497E7ABE1B0E08093B9
:101560001F0190932001A0932101B09322016DEA05
:1015700071E0CE010E949702882369F00E94571300
:10158000109250040E946A136DEA71E08BE091E0C2
:101590000E94E625BAC26BEB71E0CE010E94970271
:1015A000882369F06BEB71E08BE091E00E94E62507
:1015B0000E945713109250040E946A13A6C26BEC4B
:1015C00071E0CE010E949702882309F4FDC16BEC03
:1015D00071E08BE091E00E94E6250E94571368ECD1
:1015E00070E080E090E00E94CF0420E041E060E005
:1015F00080E00E94D01064E670E080E090E00E94FD
:10160000CF044EE150E060E070E084E690E00E949C
:10161000E51021E041E060E080E00E94D01064E647
:1016200070E080E090E00E94CF044EE150E060E086
:1016300070E084E690E00E94E51023E041E060E085
:1016400080E00E94D01064E670E080E090E00E94AC
:10165000CF044EE150E060E070E084E690E00E944C
:10166000E51027E041E060E080E00E94D01064E6F1
:1016700070E080E090E00E94CF044EE150E060E036
:1016800070E084E690E00E94E5102FE041E060E029
:1016900080E00E94D01064E670E080E090E00E945C
:1016A000CF044EE150E060E070E084E690E00E94FC
:1016B000E5102FE049E060E080E00E94D01064E691
:1016C00070E080E090E00E94CF044EE150E060E0E6
:1016D00070E084E690E00E94E5102FE049E068E0C9
:1016E00080E00E94D01064E670E080E090E00E940C
:1016F000CF044EE150E060E070E084E690E00E94AC
:10170000E5102FE049E068E088E00E94D01064E630
:1017100070E080E090E00E94CF044EE150E060E095
:1017200070E084E690E00E94E5102FE049E068E078
:1017300088E10E94D01064E670E080E090E00E94B2
:10174000CF044EE150E060E070E084E690E00E945B
:10175000E5102FE049E068E088E30E94D01064E6DD
:1017600070E080E090E00E94CF044EE150E060E045
:1017700070E084E690E00E94E5102FE049E068E028
:1017800089E30E94D01064E670E080E090E00E945F
:10179000CF044EE150E060E070E084E690E00E940B
:1017A000E5102FE049E069E089E30E94D01064E68B
:1017B00070E080E090E00E94CF044EE150E060E0F5
:1017C00070E084E690E00E94E5102FE048E069E0D8
:1017D00089E30E94D01064E670E080E090E00E940F
:1017E000CF044EE150E060E070E084E690E00E94BB
:1017F000E5102EE048E069E089E30E94D01064E63D
:1018000070E080E090E00E94CF044EE150E060E0A4
:1018100070E084E690E00E94E5102CE048E069E08A
:1018200089E30E94D01064E670E080E090E00E94BE
:10183000CF044EE150E060E070E084E690E00E946A
:10184000E51028E048E069E089E30E94D01064E6F2
:1018500070E080E090E00E94CF044EE150E060E054
:1018600070E084E690E00E94E51020E048E069E046
:1018700089E30E94D01064E670E080E090E00E946E
:10188000CF044EE150E060E070E084E690E00E941A
:10189000E51020E040E069E089E30E94D01064E6B2
:1018A00070E080E090E00E94CF044EE150E060E004
:1018B00070E084E690E00E94E51020E040E061E006
:1018C00089E30E94D01064E670E080E090E00E941E
:1018D000CF044EE150E060E070E084E690E00E94CA
:1018E000E51020E040E061E081E30E94D01064E672
:1018F00070E080E090E00E94CF044EE150E060E0B4
:1019000070E084E690E00E94E51020E040E061E0B5
:1019100081E20E94D01064E670E080E090E00E94D6
:10192000CF044EE150E060E070E084E690E00E9479
:10193000E51020E040E061E081E00E94D01064E624
:1019400070E080E090E00E94CF044EE150E060E063
:1019500070E084E690E00E94E51020E040E061E065
:1019600080E00E94D01064E670E080E090E00E9489
:10197000CF044EE150E060E070E084E690E00E9429
:10198000E51020E040E060E080E00E94D01064E6D6
:1019900070E080E090E00E94CF044EE150E060E013
:1019A00070E084E690E00E94E5100E9457134EE13B
:1019B00050E060E070E080ED97E00E94E51010924A
:1019C0000D0310920C03A1C06FED71E0CE010E94D7
:1019D0009702882309F47AC06FED71E08BE091E003
:1019E0000E94E62580E8809350040E946A1303E673
:1019F00010E02AE0C22ED12C30ED832E37E0932E5A
:101A0000A12CB12CC801B6010E94DB247B010E94ED
:101A10007C09782EC7010E947C092FE64FE6672DCE
:101A20000E94D0100E946B20A50194010E949B236C
:101A3000CB018C509E4F41E050E060E070E00E948E
:101A4000E5106AE070E080E090E00E94CF04015071
:101A50001109C1F603E610E08AE0C82ED12C90ED02
:101A6000892E97E0992EA12CB12C80913C01909168
:101A70003D01081719070CF448C0C801B6010E94BF
:101A8000DB247B010E947C09782EC7010E947C091F
:101A9000272D482F6FE38FE30E94D0100E946B2008
:101AA000A50194010E949B23CB018C509E4F41E0E5
:101AB00050E060E070E00E94E5106AE070E080E0D5
:101AC00090E00E94CF0401501109CFCF64EF71E084
:101AD000CE010E9497028823C1F064EF71E08BE091
:101AE00091E00E94E6250E94090560930803709327
:101AF000090380930A0390930B0380913C0190911A
:101B00003D01909372048093710469EF71E0CE01FE
:101B10000E949702882349F169EF71E08BE091E020
:101B20000E94E62540E050E0BA0180ED97E00E9477
:101B3000E51068EE73E080E090E00E94CF048FE053
:101B40000E94BF030E94571310925004DF91CF915F
:101B50001F910F91FF90EF90DF90CF90BF90AF90CB
:101B60009F908F907F900C946A13DF91CF911F917B
:101B70000F91FF90EF90DF90CF90BF90AF909F902C
:101B80008F907F900895CF93DF93C3E5D4E0682FC3
:101B90008B810E9490038A8D9B8DDF91CF910C9455
:101BA0009F0481E00C94C30D0F931F930091570481
:101BB000109158042091590430915A0440E052E1A8
:101BC0006AE770E090E0041715072607370740F42E
:101BD00076956795579547959F5F9630A1F797E063
:101BE00081E09827892F806A869591700E94280944
:101BF00080E01F910F910C94C30DCF93C82F0E94CA
:101C0000D40D8C2F80620E94210980935B04CF91B8
:101C10000C94D10DCF93DF93D82FC62F0E94D40DF3
:101C20008D2F80620E94210980935B048C2F0E947B
:101C30002109DF91CF910C94D10D009769F0FC013F
:101C400001900020E9F73197AF01481B590BBC0107
:101C500085E193E00C949E0080E090E008958F92DF
:101C60009F92AF92BF920F931F93CF93DF93CDB705
:101C7000DEB7A1970FB6F894DEBF0FBECDBF19A295
:101C8000423008F44AE08E010F5D1F4F842E912CE4
:101C9000A12CB12CA50194010E940424E62FB901C6
:101CA000CA0101501109EA3014F4E05D01C0E95C99
:101CB000D801EC93232B242B252B61F7C8010E941C
:101CC0001D0EA1960FB6F894DEBF0FBECDBFDF91FB
:101CD000CF911F910F91BF90AF909F908F900895DB
:101CE0000F931F93CF93DF9380916504882361F155
:101CF00080916704811108C0C0915C04DC2FCE3153
:101D000008F0DDE1CD1B02C0C0E0DDE10E94D40D92
:101D100089EA0E94210980935B0402E011E0D1501E
:101D200030F0F80181918F010E942109F8CFCC2376
:101D300029F080E00E942109C150F9CF0E94D10D05
:101D400080915B0480958170DF91CF911F910F91FD
:101D50000895CF93C82F0E94D40D8C2F0E94210983
:101D600080935B048FEF0E942109C82F0E94D10D40
:101D70008C2FCF910895FF920F931F93CF93DF93F2
:101D8000182FF62ED72FC42F0E94D40D812F8062DA
:101D90000E94210980935B040F2D1D2FCC2339F065
:101DA000F80181918F010E942109C150F7CFDF9185
:101DB000CF911F910F91FF900C94D10D609162040F
:101DC00061FD0AC062606093620480E00E940A0EB6
:101DD0008BE19EE40197F1F70895CF9386E00E948E
:101DE000A90EC82FC77D85E590E0A0E0B0E0809304
:101DF000690490936A04A0936B04B0936C046C2FF5
:101E000086E00E940A0E86E00E94A90E91E0C813A7
:101E100090E0892FCF9108950E94D40D80E50E9413
:101E2000210980935B0483E70E9421090C94D10D62
:101E300083FD02C098E001C098E28770982B88E18A
:101E40000FB6F894A895809360000FBE9093600041
:101E500080916000806480936000A89508958091CF
:101E6000640080FD08C080917A00806880937A00C9
:101E700080B78F7780BF1092BF0308950F931F9391
:101E8000CF93DF93C82FD62F86E0C89FF00111248F
:101E9000E653FC4F11A2878D90A181309105D9F0B6
:101EA00040F082309105A9F10397F1F560E070E010
:101EB00034C06623C9F161E070E08C2F0E947A0A79
:101EC0000E940905609322047093230480932404E4
:101ED0009093250429C00E940905009122041091C5
:101EE00023042091240430912504AB01BC01401B44
:101EF000510B620B730B8091340490913504A0E078
:101F0000B0E084179507A607B70718F462E070E001
:101F100004C0D11109C063E070E08C2FDF91CF9134
:101F20001F910F910C947A0ADF91CF911F910F911D
:101F300008958F929F92AF92BF92CF92DF92EF92CD
:101F4000FF920F931F93CF93DF937C014B016A01A4
:101F500059010E942B09E401C80CD91CCC15DD05E0
:101F600029F06991C7010E94F007F8CFE5010A0D39
:101F70001B1DC017D10731F06FEFC7010E94F0079A
:101F80008993F7CFC7010E94190981E0DF91CF91B2
:101F90001F910F91FF90EF90DF90CF90BF90AF9087
:101FA0009F908F900895CF93DF93C9E4D4E060E0D1
:101FB00088850E94900360E089850E94900361E01B
:101FC00088850E94900361E08985DF91CF910C9410
:101FD0009003CF93DF93C9E4D4E061E088850E9449
:101FE000900361E089850E94900360E089850E94EA
:101FF000900360E08885DF91CF910C9490030F935C
:102000001F93CF93DF93D82FC8E060E080915104F5
:102010000E949003D0FF02C061E001C060E08091A7
:1020200052040E949003D59561E0809151040E9472
:102030009003C15051F760E0809151040E949003D9
:1020400061E0809152040E94900361E0809151040C
:102050000E94900360E0809152040E944A0483EC45
:1020600090E00197F1F7809152040E9464038C0183
:1020700081110AC061E0809152040E944A0460E02C
:10208000809152040E949003C3ECD0E0CE010197EE
:10209000F1F761E0809152040E944A042197F1F720
:1020A000C8019927DF91CF911F910F910895EF9269
:1020B000FF920F931F93CF93DF9300D000D0CDB743
:1020C000DEB74091500469E474E0DC018E010F5FDB
:1020D0001F4F9801CD015D91FB015193BF01FC01A0
:1020E0009081940FF90191939F01F4E06D347F0783
:1020F00089F70E94E90F80E40E94FF0F0E94D30F2E
:102100000E94E90F80914E040E94FF0F7E0185E03E
:10211000E80EF11CF80181918F010E94FF0F0E154E
:102120001F05C1F70E94D30F0E94E90F80914F0451
:102130000E94FF0F0F900F900F900F90DF91CF91A3
:102140001F910F91FF90EF900C94D30F0F931F935B
:10215000CF93DF93182FC9E4D4E0E82FF0E0E75BDA
:10216000FB4F10820F810E94E90F84E40E94FF0F51
:102170000E94D30F0E94E90F812F806C0E94FF0FF5
:10218000802F0E94FF0F0E94D30F0E94E90F8E81C3
:102190000E94FF0FDF91CF911F910F910C94D30FED
:1021A000CF93DF9300D000D0CDB7DEB789836A83A9
:1021B0004B832C83CE0101960E9457100F900F90F5
:1021C0000F900F90DF91CF9108954F925F926F9291
:1021D0007F928F929F92AF92BF92CF92DF92EF92B7
:1021E000FF920F931F93CF93DF9300D000D01F92E5
:1021F000CDB7DEB78C012A013B01809123018F30DE
:1022000021F08F3F09F03DC205C0E2EEF0E02491DD
:102210002D8372C08FE080932301E2EEF0E0849181
:102220008D838F3F09F42DC2813009F441C038F10C
:10223000823009F061C01092B0001092B10080911C
:10224000B00082608093B0008091B1008160809383
:10225000B100EDEDF0E0E491F0E0EE0FFF1FEC5384
:10226000FF4F859194919093100380930F03EFEBB0
:10227000F0E0E491E0930E0322E02D83FDC114BC55
:1022800015BC84B5826084BD85B5816085BDEDEDEA
:10229000F0E0E491F0E0EE0FFF1FEC53FF4F85916B
:1022A0009491EFEBF0E0E491E09374041D82E4C1BB
:1022B000109280001092810080918100886080934C
:1022C000810080918100816080938100EDEDF0E0DC
:1022D000E491F0E0EE0FFF1FEC53FF4F85919491D6
:1022E000EFEBF0E0E491E093730461E08FE00E9493
:1022F0004A0491E09D838AC08D8187FDC2C161E05F
:102300008FE00E944A048D818D7F09F07FC04801D3
:10231000A12CB12C60E072E18AE790E0A501940164
:102320000E949B2329833A834B835C8369017A0152
:1023300091E0C91AD108E108F1082FEFC216D104C3
:10234000E104F10409F008F44EC060E472E48FE0A7
:1023500090E0A50194010E949B2369017A0181E02C
:10236000C81AD108E108F1089D81923009F52FEFD4
:10237000C216D104E104F10409F008F444C160E993
:1023800070ED83E090E0A50194010E949B23690118
:102390007A0181E0C81AD108E108F1089FEFC91657
:1023A000D104E104F10411F008F0BAC083E027C0C1
:1023B0002FEFC216D104E104F104B9F0B0F068E4E3
:1023C00078EE81E090E0A50194010E949B236901D1
:1023D0007A0181E0C81AD108E108F1089D819923AA
:1023E00009F413C1DCC081E001C082E09D8191113C
:1023F00006C095B5987F892B85BD44C085E0909136
:10240000B100987F892B8093B1003CC04801A12C7A
:10241000B12C60E072E18AE790E0A50194010E948E
:102420009B2369017A0181E0C81AD108E108F1080B
:10243000C114D10491E0E906F10488F068E478EE73
:1024400081E090E0A50194010E949B2369017A013B
:1024500081E0C81AD108E108F10883E001C081E0F9
:102460009D81913079F490918100987F892B8093A0
:102470008100411451046104710449F42FEF3FEFCE
:10248000A9012CC0411451046104710471F0D801F8
:10249000AA0FBB1FA30192010E94BA2328EE33E0CA
:1024A00040E050E00E94042403C02FEF3FEFA90159
:1024B0008D81813099F0823019F18111E2C0C7BC61
:1024C0002093790430937A0440937B0450937C04E6
:1024D00080916E00826080936E00D3C0D09289009C
:1024E000C09288002093750430937604409377045B
:1024F0005093780480916F00826080936F00C1C018
:10250000C092B3002093110330931203409313033E
:102510005093140380917000826080937000B1C06A
:1025200068E478EE81E090E0A50194010E949B238D
:1025300069017A0191E0C91AD108E108F1082FEF89
:10254000C216D104E104F10441F138F164E274EF00
:1025500080E090E0A50194010E949B2369017A012B
:1025600081E0C81AD108E108F1089FEFC916D1042B
:10257000E104F10409F008F441CF62E17AE780E078
:1025800090E0A50194010E949B2369017A0181E0FA
:10259000C81AD108E108F10819C084E030CF2FEF44
:1025A000C216D104E104F10409F008F463C062E149
:1025B0007AE780E090E0A50194010E949B236901E5
:1025C0007A0191E0C91AD108E108F1088FEFC81625
:1025D000D104E104F104A9F0A0F089819A81AB81D2
:1025E000BC812AE0B595A795979587952A95D1F74F
:1025F0006C017D0121E0C21AD108E108F10887E0F1
:10260000FECE86E0FCCE82E0FACE8FEFC816D10473
:10261000E104F10469F160F162E17AE780E090E0C1
:10262000A50194010E949B2369017A0191E0C91AD6
:10263000D108E108F1082FEFC216D104E104F1043A
:10264000A9F0A0F089819A81AB81BC813AE0B5956F
:10265000A795979587953A95D1F76C017D0121E073
:10266000C21AD108E108F10885E0C3CE84E0C1CEEA
:1026700083E0BFCE84E0BACE61E08FE00E944A04DE
:1026800046CE0F900F900F900F900F90DF91CF914B
:102690001F910F91FF90EF90DF90CF90BF90AF9080
:1026A0009F908F907F906F905F904F90089580E003
:1026B0000E94A61081E00E94A61082E00E94A6104F
:1026C00083E00E94A610E9E4F4E0108211821282F5
:1026D0001382089589E494E00C945710CF92DF920E
:1026E000EF92FF920F931F93CF93DF9300D0CDB75C
:1026F000DEB7FC014787508B618B728B8285882304
:1027000011F0448701C04387452F562F672F772745
:10271000882311F0438701C044877F018BE0E80ED6
:10272000F11C9681878199838A83C080D180C114EE
:10273000D104B1F1018510E098012E5F3F4FD60121
:1027400014968D919C9115978217930710F480E051
:1027500052C0F601808191E09093810480938004BF
:1027600010927F0410927E040115110541F421E0BE
:1027700042E050E0B701C6010E94A7083CC0818139
:102780009281DC01ED91FC910280F381E02DA801A2
:10279000BE016F5F7F4F099508171907C1F6E7CF94
:1027A000A281B381109799F224813581018523306C
:1027B000310539F48E7F89839A8310E00F5F1F4FB4
:1027C00011C02115310511F49F770AC0223031055F
:1027D00011F4906805C02130310519F49F77906499
:1027E000998310E09E012F5F3F4F42E050E0B70118
:1027F000CD010E9443090F900F90DF91CF911F915F
:102800000F91FF90EF90DF90CF900895CF93DF93DB
:10281000CDB7DEB7E6970FB6F894DEBF0FBECDBFDB
:10282000789484B5826084BD84B5816084BD85B5AB
:10283000826085BD85B5816085BD80916E008160B7
:1028400080936E001092810080918100826080935D
:10285000810080918100816080938100809180005F
:102860008160809380008091B10084608093B1008A
:102870008091B00081608093B00080917A00846084
:1028800080937A0080917A00826080937A008091B0
:102890007A00816080937A0080917A0080688093CA
:1028A0007A001092C100E0912503F091260382E0A6
:1028B0008083E0912503F09126031082E0912103AB
:1028C000F09122031082E0912303F091240380E130
:1028D000808310922D03E0912903F0912A0386E072
:1028E0008083E0912703F0912803808180618083B9
:1028F000E0912703F0912803808188608083E09134
:102900002703F0912803808180688083E09127036A
:10291000F091280380818F7D808360E070E089E8FA
:1029200092E00E94E8200E94571380E480934D04B7
:1029300080EC80934E048BE880934F040E946A13CE
:1029400061E08EE00E944A0461E08EE00E94900304
:1029500010921C020E94AA046B017C0180E00E947C
:10296000180F80911C028823E1F30FB6F894A89504
:1029700080916000886180936000109260000FBEBB
:102980000E94AA046C197D097093C4036093C30369
:1029900086E791E00E941D0E8BE791E00E941D0EDC
:1029A0008091390490913A04892BA9F486E090E053
:1029B0000E944F21FC0180913C04808382EB93E0D4
:1029C00092838183138280E290E095838483F093E5
:1029D0003A04E09339040091390410913A041092BA
:1029E0004E0210924D0210927F0410927E040E94BB
:1029F0005F058BEF91E09093200280931F028CEF94
:102A000091E090931E0280931D02FF24F394D8015D
:102A10001396FC92C8010E94CA08882309F45BC07F
:102A200080E090E1A0E0B0E080933D0490933E040C
:102A3000A0933F04B09340048AE090E0A0E0B0E0AF
:102A40008093410490934204A0934304B0934404C0
:102A500080E090E0A0E0B0E48093450490934604C9
:102A6000A0934704B09348048091390490913A04AC
:102A70001BA21CA21DA21EA29D8B8C8B1F8A1E8ACC
:102A8000FD8EA5E0B0E0BB8FAA8FFE8E12E01C8FFA
:102A900040E050E160E070E0CE0144960E946E1389
:102AA0008091390490913A04188A198A1A8A1B8AEB
:102AB0009A8389831C821B82FA8618861F82FB8672
:102AC00019874FE959E360E070E0CE0101960E945A
:102AD0006E1380933B0480E090E2A0E0B0E080932E
:102AE0003D0490933E04A0933F04B093400484E1DE
:102AF00090E0A0E0B0E08093410490934204A09362
:102B00004304B093440480E090E0A0E8BFE38093E6
:102B1000450490934604A0934704B09348048091E1
:102B2000390490913A041BA21CA21DA21EA29D8BE7
:102B30008C8B1F8A1E8A11E01D8FA5E0B0E0BB8F31
:102B4000AA8F1E8F02E00C8F40E050E260E070E040
:102B5000CE0144960E946E138091390490913A04FC
:102B6000188A198A1A8A1B8A9A8389831C821B8273
:102B70001A8718861F821B8709874FE951E060E09A
:102B800070E0CE0101960E946E1380933B0420906A
:102B9000390430903A04188A198A1A8A1B8A3A82B0
:102BA00029821C821B821A8782E090E098878F839B
:102BB0001B8709870C8B1D8A2114310409F421C15C
:102BC000F10184819581892B09F41BC180811093C7
:102BD00081048093800410927F0410927E0420E090
:102BE00041E050E0BE016C5E7F4FC1010E94A7082A
:102BF000B82E882309F405C1C12CD12CAA24A39492
:102C0000D10114968D919C91159702E0E02EF12C44
:102C1000EC18FD088E159F0508F47C01F1019080E9
:102C20000E94AA042B013C0110914702112339F1A3
:102C30008091490290914A02A0914B02B0914C02BE
:102C4000892B8A2B8B2B81F30E94AA0400914902C5
:102C500010914A0220914B0230914C02DC01CB01D1
:102C600084199509A609B709081719072A073B0708
:102C7000D8F6809148020E947D0510E09BC00E2D81
:102C8000013208F000E2A092470221E082E090E0E9
:102C90008E199F09C816D90608F420E02093460231
:102CA000FFEFF0934502109244028FEF800F809364
:102CB0004302A092420280914202990C982A90927B
:102CC000420280914102813099F5109241020E94A6
:102CD000AA042B013C01809142028093BB008091A9
:102CE000490290914A02A0914B02B0914C02892B6B
:102CF0008A2B8B2BA9F00E94AA04209149023091C3
:102D00004A0240914B0250914C02DC01CB018419E4
:102D10009509A609B709281739074A075B07A0F1E3
:102D20008091BC0083FDD7CF25EC2093BC0003C06D
:102D300035EE3093BC000E94AA042B013C01809127
:102D40004702813031F58091490290914A02A09169
:102D50004B02B0914C02892B8A2B8B2B81F30E9462
:102D6000AA042091490230914A0240914B025091AD
:102D70004C02DC01CB0184199509A609B709281773
:102D800039074A075B07D8F6809148020E947D0503
:102D900011C080914402801710F400914402E1E2D6
:102DA000F2E0AFE4B2E010E0101721F081918D93D2
:102DB0001F5FFACF10924E0210934D02812F90E0C8
:102DC000E816F906F1F401E010E00C0F1D1F0C0DE0
:102DD0001D1D4801C801881999098E159F0598F491
:102DE000D10111968D919C911297DC01ED91FC918E
:102DF0000284F385E02D0995F80183870F5F1F4F4B
:102E0000E9CFB12C09C0CE0CDF1CF2E0CF16D10403
:102E100008F4F6CEB110D1C5B0923B046DA97EA9DD
:102E2000B3E076956795BA95E1F7660F771F660F61
:102E3000771F072E000C880B990B0E947E222FE62D
:102E400032E143E85AE30E94DD226B017C014B0131
:102E50005C016093070170930801809309019093CE
:102E60000A019B01AC010E94D624882319F08EE749
:102E700091E01AC026013701E89477F82FEF3FEF71
:102E80004FE75FE7C301B2010E94D62481110FC052
:102E90002FEF3FEF4FE75FE7C301B2010E947722B8
:102EA00018162CF482E891E00E941D0E78C02FEFD6
:102EB0003FEF4FE75FE4C701B6010E94D124181627
:102EC0001CF486E891E0F0CF2FEF3FEF4FE75FEC87
:102ED000C701B6010E94772287FDF3CF20E030E0E2
:102EE000A901C701B6010E94772287FF0BC06DE2DE
:102EF00085E193E00E94310146015701B7FAB09491
:102F0000B7F8B0942AE037ED43EA5BE3C501B401BA
:102F10000E9436244B015C010E94A2246B017C01BB
:102F20000E947C229B01AC01C501B4010E943524A2
:102F30004B015C014AE0C701B6010E942F0E6EE210
:102F400085E193E00E94310120E030E040E251E46D
:102F5000C501B4010E94DD224B015C010E94A22444
:102F60006B01E12CF12C4AE0C701B6010E942F0E43
:102F7000C701B6010E947C229B01AC01C501B401CE
:102F80000E94352420E030E040E251E40E94DD223E
:102F90000E94A22480E090E04AE00E942F0E1FB71A
:102FA000F89480917F02811127C0E8EDF0E08491D0
:102FB000EAEBF0E09491E82FF0E0EE0FFF1FE45809
:102FC000FF4FA591B491EC91E92321F461E08AE0EF
:102FD0000E94900361E08AE00E944A048CB58061FF
:102FE0008CBD8CB580648CBD61E08DE00E944A048C
:102FF00061E08BE00E944A0480917F028F5F8093A2
:103000007F021FBF809155048F3F09F472C09091D9
:1030100056049F3F09F46DC0891741F061E00E949A
:103020004A0461E0809156040E944A04809155044C
:1030300090915604891719F060E00E94900381E096
:103040000E94C30D65E070E080E090E00E94CF0434
:103050006FE584E00E940A0E0E94ED0E8DE10E9451
:10306000A90E182F0E940C0F8DE10E94A90E91E06D
:10307000181390E0909363048111ACC4109265041E
:1030800060E08CE10E940A0E109267046FE381E019
:103090000E940A0E63E082E00E940A0E80E28093A2
:1030A0005C0411E160915C04812F0E940A0E1F5F95
:1030B0001731C1F763E083E00E940A0E85E0809338
:1030C00066046CE40E940A0E60E787E00E940A0E24
:1030D00082EE0E94FD0D81EE0E94FD0D6CE080E00D
:1030E0000E940A0E80E00E94A90E809362040E9452
:1030F000DE0E64E685E00E940A0E0E94ED0E86E078
:103100000E94A90E682F676086E00E940A0E8091D7
:103110006504811115C08DE10E94A90E682F6660BB
:103120008DE10E940A0E8CE10E94A90E682F636057
:103130008CE10E940A0E81E080936704809365040D
:1031400081E18FA38DED88A78CEC89A78BEB8AA7F3
:103150008AEA8BA71CA61DA61EA6E7E8F0E08491CC
:1031600040916604BE01695D7F4F0E94BB0E82E004
:103170000E94A90EEDE8F0E0E49161E070E001C08A
:10318000660FEA95EAF7682B82E00E940A0E0E9419
:10319000DE0E6091620461606093620480E00E94D0
:1031A0000A0E60E787E00E940A0E80915504909114
:1031B0005604891719F061E00E949003809164041D
:1031C000882341F0409166046DE574E08AE00E9436
:1031D000BB0E14C082E00E94A90EECE8F0E0E4917E
:1031E00021E030E001C0220FEA95EAF72095622F36
:1031F000682382E00E940A0E109264040E94700EFE
:1032000064E670E080E090E00E94CF048FEF0E94BF
:10321000FD0D80915B0490E09595879587708630D1
:1032200008F4E1C319C00E94D10D60E487E00E9458
:103230000A0E60E872E0CE0101960E94BE026AE8C2
:1032400071E0CE0101960E949702182FCE010196DF
:103250000E94B6021111F4C36BE071E0CE01019639
:103260000E94BE026BEB71E0CE0101960E949702B4
:1032700081112AC06BE071E0CE0144960E94BE022B
:1032800069EF71E0CE0144960E949702811116C049
:103290006BE071E0CE018F960E94BE026DEA71E094
:1032A000CE018F960E94970281114AC585E10E9446
:1032B000640311E0892B09F044C542C510E0CE013A
:1032C00044960E94B60201C010E0CE0101960E9411
:1032D000B602112371F06BEB71E0CE0101960E94F2
:1032E000BE02CE0101960E949D0ACE0101960E9467
:1032F000B6026BE071E0CE0101960E94BE026BEB5C
:1033000071E0CE0101960E949702882331F085E199
:103310000E948A0411E0892B09F010E0CE01019689
:103320000E94B602112371F06BEC71E0CE010196A0
:103330000E94BE02CE0101960E949D0ACE01019616
:103340000E94B6026BE071E0CE0101960E94BE02BF
:103350006BEC71E0CE0101960E949702182FCE010E
:1033600001960E94B602112309F4A3C10E94990993
:1033700081E0809336040E94090500912604109193
:1033800027042091280430912904AB01BC01401B83
:10339000510B620B730B8091320490913304A0E0C7
:1033A000B0E084179507A607B70708F0EAC010E059
:1033B00080913004181710F0912C42C0E0912C0439
:1033C000F0912D04E10FF11D62E080810E944A041A
:1033D0001F5FEECF082D10E0E0912C04F0912D043A
:1033E000E00FF11F80810E9464030C5F1F4F000FEC
:1033F000111FF801E653FC4F892B09F04DC0808165
:1034000091818A299B2991838083839480913004C0
:10341000881600F3E0912E04F0912F04EE0DFF1DAD
:1034200061E080810E94900380912E0490912F048E
:10343000FC01EE0DFF1D60E080810E944A04939420
:1034400080913104981668F5E92CF12CE0912E0456
:10345000F0912F04EE0DFF1D61E080810E944A046F
:10346000E0912E04F0912F04EE0DFF1D60E08081AD
:103470000E94900381E090E0A0E0B0E0092C04C03D
:10348000880F991FAA1FBB1F0A94D2F75C016C0119
:10349000C094D094812CBACF808191818C219D21C0
:1034A000B2CF3AECE32E33E0F32E46E0C42E44E0F4
:1034B000D42EF701878D90A1892B31F4148EAFEFB4
:1034C000BFEFB68FA58F11A23696CE16DF0691F705
:1034D000B12C26E0922E80913004B81658F5A12C1C
:1034E0000B2D10E0000F111F0E521C4F20913104C4
:1034F000A216F0F4F801408151810A2C02C05695C1
:1035000047950A94E2F7642F6170B29E90011124EE
:103510002A0D311DEAECF3E080E0A58DB68D2A1767
:103520003B0709F42FC48F5F36968A30B1F70EC47B
:10353000B394D1CF10E0D70191968C91811111E015
:10354000B6E0EB0EF11CCE14DF04A9F70E940905CA
:103550006093260470932704809328049093290491
:10356000112379F08091EB03882359F08091E903CE
:103570009091EA03019729F41091E603111104C018
:1035800098C01092360495C00E946B2024EF31E061
:1035900040E050E00E949B23CB018C509E4F42E3C1
:1035A00050E060E070E00E94E510812F110F990B50
:1035B000C09720910C0330910D03A9014F5F5F4F1D
:1035C00050930D0340930C0310927B0210927C02E7
:1035D00010927D0210927E022130310599F03CF468
:1035E000232BD1F4909374028093730262C0223033
:1035F000310569F02330310579F490937A02809394
:1036000079020EC0909376028093750252C0909317
:103610007802809377024DC0443051050CF449C0C4
:10362000409173025091740288EE93E0489F90019C
:10363000499F300D589F300D1124409175025091D3
:10364000760264E6649FC001659F900D1124820F8D
:10365000931F40917702509178026AE0649F900135
:10366000659F300D1124820F931F209179023091B4
:103670007A02820F931F209100013091010182177D
:10368000930709F489C30E94990940E050E0BA0108
:103690008AE090E00E94E51068EE73E080E090E040
:1036A0000E94CF048FE00E94BF0310920D0310927E
:1036B0000C036BE071E0CE0101960E94BE026FED3B
:1036C00071E0CE0101960E949702882331F084E1D7
:1036D0000E948A0411E0892B09F010E0CE010196C6
:1036E0000E94B602112371F064EF71E0CE010196E1
:1036F0000E94BE02CE0101960E949D0ACE01019653
:103700000E94B6026BE071E0CE0101960E94BE02FB
:1037100064EF71E0CE0101960E949702182FCE014E
:1037200001960E94B602112309F473C00E94090594
:10373000DC01CB01845F9140A109B109009108032C
:103740001091090320910A0330910B030817190700
:103750002A073B0728F480E8809350040E946A13EC
:103760000E940905DC01CB01885E9340A109B109E3
:10377000009108031091090320910A0330910B0373
:10378000081719072A073B0780F50E94090560936F
:1037900008037093090380930A0390930B0344E694
:1037A00050E060E070E080ED97E00E94E5108091CD
:1037B0007104909172040197909372048093710444
:1037C0006AE070E00E94DB248B010E947C09F82EE5
:1037D000C8010E947C092F2D482F6FE38FE30E94C0
:1037E000D010109250040E946A138091710490913D
:1037F0007204892B71F469EF71E0CE0101960E9489
:10380000BE02CE0101960E949D0ACE0101960E9441
:10381000B6020E9409050091990210919A02209126
:103820009B0230919C02DC01CB01801B910BA20B0F
:10383000B30B00911F0110912001209121013091C3
:103840002201081719072A073B0708F0B2C086E1D2
:1038500092E00E941D0E8BE791E00E941D0E0E94D7
:1038600009056093990270939A0280939B0290934A
:103870009C0280E69AEEA0E0B0E080931F01909356
:103880002001A0932101B093220160E08EE00E940C
:1038900090031092BE031092C80381E08093BF038F
:1038A0008091C2038D7F41F080917A008F77809361
:1038B0007A0080B7806880BF88EDC82E86EDD82E4C
:1038C000E12CF12C8091C5039091C603A0E0B0E0FB
:1038D0008C159D05AE05BF0508F046C08091C90353
:1038E0008A3010F40E94180F83B7817F9091C20331
:1038F000892B83BF83B7816083BF8091C10381110E
:1039000006C0F89485B7806685BF8F7D85BF7894A3
:1039100088950FB6F894A89580916000886180938F
:103920006000109260000FBEA89583B78E7F83BFA2
:103930008091C5039091C603C81AD90AE108F1081D
:103940009091C8038091C703890F8D3730F0E1E073
:10395000CE1AD108E108F1088D578093C8038091F1
:10396000BE03882309F4AECF8091C0038823D9F029
:103970002FB7F89480916F0290917002A09171021C
:10398000B091720288529942AF4FBF4F8C199D0976
:10399000AE09BF0980936F0290937002A0937102E9
:1039A000B09372022FBF0E942F0F61E08EE00E9441
:1039B00090030E94A0010C94C8142B858C859D85D2
:1039C000211103C09EAB8DAB27CA382F292F3EABE8
:1039D0002DAB22CA181302C00E940C0F60E08DE1CB
:1039E0000E940A0E4BCB8091670481110AC080911E
:1039F0005C04E82E8A3110F079E1E72EF82EFE18EB
:103A000003C0F12C69E1E62E0E94D40D81E60E94EC
:103A1000210980935B0400E812E0EA943FEFE3168B
:103A200039F08FEF0E942109D8018D938D01F5CFD8
:103A3000FF2009F4F8CB8FEF0E942109FA94F8CF08
:103A40008AE892E00E941D0E83E991E00E941D0E1B
:103A5000C0900001D09001010D2C000CEE08FF0871
:103A6000F7FE0EC06DE285E193E00E94310166270A
:103A70007727CB016C197D098E099F094AE003C0A5
:103A80004AE0C701B6010E942F0E8BE791E00E9429
:103A90001D0E6AE872E0CE0101960E94BE0265E941
:103AA00071E0CE0101960E949702182FCE01019677
:103AB0000E94B60211110E94700E6AE872E0CE01F7
:103AC00001960E94BE026EE971E0CE0101960E944D
:103AD0009702182FCE0101960E94B602112309F415
:103AE000F3C064E972E0CE0101960E94BE0267EA6B
:103AF00071E0CE0101960E949702182FCE01019627
:103B00000E94B602112371F00E94700E80E497E7C4
:103B1000ABE1B0E080931F0190932001A0932101BD
:103B2000B093220164E972E0CE0101960E94BE02C8
:103B30006AEA71E0CE0101960E949702182FCE0129
:103B400001960E94B602112381F00E94700E6DEA68
:103B500071E0CE0101960E94BE02CE0101960E9444
:103B60009D0ACE0101960E94B60264E972E0CE0180
:103B700001960E94BE0268EB71E0CE0101960E94A0
:103B80009702182FCE0101960E94B602112381F0F0
:103B90000E94700E6BEB71E0CE0101960E94BE0296
:103BA000CE0101960E949D0ACE0101960E94B602A6
:103BB00064E972E0CE0101960E94BE0267EC71E0FA
:103BC000CE0101960E949702182FCE0101960E9405
:103BD000B602112381F00E94700E6BEC71E0CE01F1
:103BE00001960E94BE02CE0101960E949D0ACE015E
:103BF00001960E94B60264E972E0CE0101960E942D
:103C0000BE026BED71E0CE0101960E949702182F63
:103C1000CE0101960E94B602112381F00E94700E1F
:103C20006FED71E0CE0101960E94BE02CE010196B9
:103C30000E949D0ACE0101960E94B60264E972E0DC
:103C4000CE0101960E94BE0260EF71E0CE010196A6
:103C50000E949702182FCE0101960E94B6021123EE
:103C600081F00E94700E64EF71E0CE0101960E9417
:103C7000BE02CE0101960E949D0ACE0101960E94CD
:103C8000B60264E972E0CE0101960E94BE0261EFC5
:103C900071E0CE0101960E949702182FCE01019685
:103CA0000E94B602112381F00E94700E69EF71E04C
:103CB000CE0101960E94BE02CE0101960E949D0A8D
:103CC000CE0101960E94B6026AE872E0CE0101962A
:103CD0000E94BE0263E072E0CE0101960E9497024C
:103CE000182FCE0101960E94B602112351F00E94B6
:103CF000700E84E992E00E94C220909301018093AB
:103D000000016AE872E0CE0101960E94BE026CE0FA
:103D100072E0CE0101960E949702182FCE01019603
:103D20000E94B602112309F497CA0E94700E84E91A
:103D300092E00E94C22090933D0180933C018CCA86
:103D400010E0CE018F960E94B602B9CA40FF1CC097
:103D5000EAECF3E080E090E0448D411117C0E0917F
:103D60002A04F0912B04E20FF31F4081989EF0018A
:103D7000999EF00D1124E653FC4F448F368F258F0A
:103D800010A2178E0E943E0FA394B0CB01963696D8
:103D90008A30910509F7F8CF40E050E0BA0184EF8E
:103DA00091E00E94E51064E670E080E090E00E94FF
:103DB000CF048FE00E94BF0340E050E0BA0188EEDC
:103DC00093E00E94E51064E670E080E090E00E94DD
:103DD000CF048FE00E94BF036FED71E0CE0101962A
:103DE0000E94BE02CE0101960E949D0ACE0101965C
:103DF0000E94B6025ECC8091390490913A040C94F2
:103E0000E721109218031092170388EE93E0A0E0C8
:103E1000B0E08093190390931A03A0931B03B0930F
:103E20001C032CE431E0309316032093150325EC9A
:103E300030E0309322032093210324EC30E03093D0
:103E400024032093230320EC30E0309326032093B7
:103E5000250321EC30E0309328032093270322EC44
:103E600030E030932A032093290326EC30E030938E
:103E70002C0320932B0310922E0310922F031092E9
:103E80003003109231031092B5031092B403809363
:103E9000B6039093B703A093B803B093B9038EE52C
:103EA00091E09093B3038093B203EEEBF3E08CE0E8
:103EB000DF011D928A95E9F71092BE031092BF03AD
:103EC00081E08093C00392E09093C20320E83EE338
:103ED0003093C4032093C30320E830E03093C6033B
:103EE0002093C50393E09093C90320913C01309146
:103EF0003D01309372042093710499E0909355042E
:103F00009AE09093560440E856E968E970E04093DF
:103F10005704509358046093590470935A0490E2E4
:103F200090935C04109263041092640495E0909363
:103F300066048093670485E090E0A0E0B0E08093A1
:103F40006D0490936E04A0936F04B09370048DE79A
:103F500094E0909354048093530410925D0481E1A3
:103F60008093510480E18093520461E081E10E94DA
:103F70004A0461E0809152040E944A0410923A047B
:103F80001092390480E480933C0410924104109212
:103F9000420410924304109244041092450410927B
:103FA000460410924704109248041092CC031092D9
:103FB000D0031092CF031092D10380E791E0909349
:103FC000CB038093CA03EAECF3E0148E10A2178EA1
:103FD00011A23696B4E0E630FB07B9F788E291E02B
:103FE00090932D0480932C0484E291E090932F040D
:103FF00080932E0484E080933004809331048CE21B
:1040000091E090932B0480932A048AE090E09093AF
:1040100033048093320484EF91E0909335048093CD
:10402000340410923804109237041092260410922F
:10403000270410922804109229041092360408953F
:104040008F929F92AF92BF92CF92DF92EF92FF92A8
:10405000CF93DF93EC01688179818A819B8161151F
:1040600071058105910521F464E279ED8BE597E016
:104070002DE133EF41E050E00E949B2349015A01BA
:104080009B01AC01A7EAB1E40E94BA236B017C0159
:10409000ACEEB4EFA50194010E94C823DC01CB0172
:1040A0008C0D9D1DAE1DBF1DB7FF03C00197A1095B
:1040B000B04888839983AA83BB83BC01CD019F77D5
:1040C000DF91CF91FF90EF90DF90CF90BF90AF90B6
:1040D0009F908F9008958F929F92AF92BF92CF92B0
:1040E000DF92EF92FF9260913E0170913F018091CB
:1040F000400190914101611571058105910521F4FF
:1041000064E279ED8BE597E02DE133EF41E050E09B
:104110000E949B2349015A019B01AC01A7EAB1E42B
:104120000E94BA236B017C01ACEEB4EFA5019401AF
:104130000E94C823DC01CB018C0D9D1DAE1DBF1D4F
:10414000B7FF03C00197A109B04880933E01909347
:104150003F01A0934001B0934101BC01CD019F7785
:10416000FF90EF90DF90CF90BF90AF909F908F9097
:10417000089560933E0170933F01809340019093B6
:1041800041010895FC0188279927E8942191203264
:10419000E9F3293010F02E30C8F32B3241F02D32E4
:1041A00039F4689404C00E94E020820F911D21918F
:1041B00020532A30C0F31EF4909581959F4F0895A7
:1041C0007AE0979F902D879F802D910D112408955F
:1041D0000F931F93CF93DF93009731F4611571050F
:1041E00019F480E090E03AC08B01EC016EE070E0E1
:1041F00081E090E00E943321FC01892B91F380E85B
:1042000083830115110571F01387028781E8838389
:104210008091820490918304892B21F4F09383048C
:10422000E09382042097C9F0D187C08783818260A0
:1042300083838091840490918504892B71F4F09399
:104240008504E09384048091860490918704892BEF
:1042500021F4F0938704E0938604CF01DF91CF919E
:104260001F910F9108950F931F93CF93DF93869F14
:104270008001879F100D969F100D1124C8010E9488
:104280004F21EC01009729F0A80160E070E00E9446
:104290007022CE01DF91CF911F910F9108950F935E
:1042A0001F93CF93DF938230910510F482E090E06A
:1042B000E0918A04F0918B0420E030E0A0E0B0E0CF
:1042C000309719F1408151810281138148175907B4
:1042D000C8F08417950769F4109731F012960C9383
:1042E000129713961C9327C000938A0410938B0493
:1042F00022C02115310519F04217530718F49A010D
:10430000BD01EF01DF01F801DBCF21153105F9F027
:10431000281B390B2430310580F48A819B8161157B
:10432000710521F0FB019383828304C090938B0479
:1043300080938A04FE01329644C0FE01E20FF31F0F
:104340008193919322503109398328833AC0209177
:10435000880430918904232B41F420914401309149
:1043600045013093890420938804209142013091C3
:1043700043012115310541F42DB73EB74091460167
:1043800050914701241B350BE0918804F09189047A
:10439000E217F307A0F42E1B3F0B2817390778F01C
:1043A000AC014E5F5F4F2417350748F04E0F5F1F7B
:1043B00050938904409388048193919302C0E0E074
:1043C000F0E0CF01DF91CF911F910F910895CF932E
:1043D000DF93009709F481C0FC01329713821282A7
:1043E000A0918A04B0918B04109781F420813181CF
:1043F000820F931F20918804309189042817390770
:1044000051F5F0938904E093880467C0ED0120E042
:1044100030E0CE17DF0740F44A815B819E014115F1
:104420005105F1F0EA01F5CFD383C2834081518178
:10443000840F951FC817D90759F488819981840F73
:10444000951F0296918380838A819B8193838283C7
:104450002115310529F4F0938B04E0938A043DC0C3
:10446000E901FB83EA8349915991C40FD51FEC17E9
:10447000FD0761F480819181840F951F0296E90107
:1044800099838883828193819B838A83E0E0F0E033
:1044900012968D919C911397009719F0FD01DC0104
:1044A000F7CF8D919C9111979D012E5F3F4F820F09
:1044B000931F20918804309189042817390769F4E3
:1044C000309729F410928B0410928A0402C0138250
:1044D0001282B0938904A0938804DF91CF9108954C
:1044E000DC0101C06D9341505040E0F708950E94F7
:1044F000B92208F481E00895E89409C097FB3EF4DE
:1045000090958095709561957F4F8F4F9F4F992320
:10451000A9F0F92F96E9BB279395F695879577959E
:104520006795B795F111F8CFFAF4BB0F11F460FF5E
:104530001BC06F5F7F4F8F4F9F4F16C0882311F0B6
:1045400096E911C0772321F09EE8872F762F05C0CA
:10455000662371F096E8862F70E060E02AF09A9565
:10456000660F771F881FDAF7880F9695879597F95A
:104570000895990F0008550FAA0BE0E8FEEF1616F4
:104580001706E807F907C0F012161306E407F50747
:1045900098F0621B730B840B950B39F40A2661F0BB
:1045A000232B242B252B21F408950A2609F4A1405E
:1045B000A6958FEF811D811D08950E94F0220C9415
:1045C00061230E94532338F00E945A2320F0952340
:1045D00011F00C944A230C94502311240C9495232D
:1045E0000E94722370F3959FC1F3950F50E0551F01
:1045F000629FF001729FBB27F00DB11D639FAA2738
:10460000F00DB11DAA1F649F6627B00DA11D661F86
:10461000829F2227B00DA11D621F739FB00DA11DA7
:10462000621F839FA00D611D221F749F3327A00D61
:10463000611D231F849F600D211D822F762F6A2FFD
:1046400011249F5750409AF0F1F088234AF0EE0F62
:10465000FF1FBB1F661F771F881F91505040A9F78F
:104660009E3F510580F00C944A230C9495235F3FA4
:10467000E4F3983ED4F3869577956795B795F795CB
:10468000E7959F5FC1F7FE2B880F911D9695879543
:1046900097F9089597F99F6780E870E060E00895C2
:1046A0009FEF80EC089500240A941616170618064A
:1046B0000906089500240A94121613061406050626
:1046C0000895092E0394000C11F4882352F0BB0FB7
:1046D00040F4BF2B11F460FF04C06F5F7F4F8F4F1A
:1046E0009F4F089557FD9058440F551F59F05F3F55
:1046F00071F04795880F97FB991F61F09F3F79F004
:1047000087950895121613061406551FF2CF469585
:10471000F1DF08C0161617061806991FF1CF869507
:104720007105610508940895E894BB2766277727EB
:10473000CB0197F90895052E97FB1EF400940E9473
:10474000B22357FD07D00E94042407FC03D04EF487
:104750000C94B22350954095309521953F4F4F4F83
:104760005F4F089590958095709561957F4F8F4F1D
:104770009F4F08950E942624A59F900DB49F900DF1
:10478000A49F800D911D11240895B7FF0C94BA23A6
:104790000E94BA23821B930B08952F923F924F924F
:1047A0005F926F927F928F929F92AF92BF92CF92C1
:1047B000DF92EF92FF920F931F93CF93DF93CDB7CA
:1047C000DEB7CA1BDB0B0FB6F894DEBF0FBECDBF42
:1047D00009942A88398848885F846E847D848C8413
:1047E0009B84AA84B984C884DF80EE80FD800C811C
:1047F0001B81AA81B981CE0FD11D0FB6F894DEBFFF
:104800000FBECDBFED010895A1E21A2EAA1BBB1B5E
:10481000FD010DC0AA1FBB1FEE1FFF1FA217B3078C
:10482000E407F50720F0A21BB30BE40BF50B661FA2
:10483000771F881F991F1A9469F760957095809566
:1048400090959B01AC01BD01CF010895A29FB001DD
:10485000B39FC001A39F700D811D1124911DB29FB4
:10486000700D811D1124911D08955058BB27AA2752
:104870000E944D240C9461230E94532338F00E941F
:104880005A2320F039F49F3F19F426F40C94502356
:104890000EF4E095E7FB0C944A23E92F0E94722363
:1048A00058F3BA17620773078407950720F079F465
:1048B000A6F50C9494230EF4E0950B2EBA2FA02DA0
:1048C0000B01B90190010C01CA01A0011124FF27BD
:1048D000591B99F0593F50F4503E68F11A16F040B8
:1048E000A22F232F342F4427585FF3CF46953795B7
:1048F0002795A795F0405395C9F77EF41F16BA0B7C
:10490000620B730B840BBAF09150A1F0FF0FBB1F29
:10491000661F771F881FC2F70EC0BA0F621F731F72
:10492000841F48F4879577956795B795F7959E3FCF
:1049300008F0B0CF9395880F08F09927EE0F979560
:10494000879508950E947A2388F09F5798F0B92F91
:104950009927B751B0F0E1F0660F771F881F991FB4
:104960001AF0BA95C9F714C0B13091F00E9494239F
:10497000B1E008950C949423672F782F8827B85FAF
:1049800039F0B93FCCF3869577956795B395D9F70C
:104990003EF490958095709561957F4F8F4F9F4F16
:1049A00008950E94B92208F48FEF08950E94B92259
:1049B000880B990B089597FB072E16F4009407D0E7
:1049C00077FD09D00E94F52407FC05D03EF49095B0
:1049D00081959F4F0895709561957F4F0895EE0FD3
:1049E000FF1F0590F491E02D0994AA1BBB1B51E118
:1049F00007C0AA1FBB1FA617B70710F0A61BB70B4F
:104A0000881F991F5A95A9F780959095BC01CD01F3
:104A10000895A0E0B0E0EFE0F5E20C94D123EC01C2
:104A2000009721F4CB010E944F21B4C0FC01E60F96
:104A3000F71F9C0122503109E217F30708F4A8C0C0
:104A4000D9010D911C91119706171707B0F0053089
:104A5000110508F49BC0C80104978617970708F44E
:104A600095C002501109061B170B019311936D930A
:104A70007C93CF010E94E72189C05B01A01AB10A93
:104A80004C01800E911EA0918A04B0918B04612C80
:104A9000712CE12CF12C109709F446C08D919C915A
:104AA0001197A815B905B1F56C0142E0C40ED11CEF
:104AB000CA14DB0478F14C018A189B08640142E0B7
:104AC000C40ED11C1296BC9012971396AC91B5E00F
:104AD000CB16D10440F0B282A38391828082D901A7
:104AE0006D937C9309C00E5F1F4F800F911FF901DA
:104AF00091838083EB2DFA2FE114F10431F0D7017B
:104B00001396FC93EE93129741C0F0938B04E093BD
:104B10008A043CC06816790608F43C017D011296AF
:104B20000D90BC91A02DB7CF8091880490918904FD
:104B300088169906E1F466167706C8F4809142015A
:104B400090914301009741F48DB79EB74091460183
:104B500050914701841B950BE817F907C8F4F093AF
:104B60008904E0938804F901718360830FC0CB014D
:104B70000E944F217C01009759F0A801BE010E94BC
:104B8000D425CE010E94E721C70104C0CE0102C096
:104B900080E090E0CDB7DEB7EEE00C94ED2381E04D
:104BA00090E0F8940C94ED25FB01DC0102C001902B
:104BB0000D9241505040D8F70895FB01DC018D91D2
:104BC000019080190110D9F3990B0895FB01DC01C4
:104BD00001900D920020E1F7089510E0C3E7D0E0C6
:104BE00004C0FE010E94EF242196C437D107C9F703
:044BF000F894FFCF67
:104BF400D204426F6D62610000000044696E616D11
:104C04006F5F4F6666000000000000000000006057
:104C1400EA0000FF05040302060708093134372AB5
:104C240032353830333639234142434414000100CD
:104C3400000000008C0420000000000031019E00F0
:104C4400C8007E01F900D700EB0000000000560206
:104C540029028602FD0121020D02FE01000000006E
:104C6400860446048D035449434B000D0A006E61CB
:104C74006E00696E66006F766600546F5F426F6DFA
:104C840062610020004765745F496E666F0053657A
:104C9400745F5374617400575500444F0044696E47
:104CA400616D6F5F4F6666005747005768616974AE
:104CB4005F4761796B610057434500576169745FD1
:104CC400436F64655F456E746572005754530057B3
:104CD4006169745F54696D65725F537461727400C5
:104CE40057544500576169745F54696D65725F4537
:104CF4006E64005365745F50617373005365745F31
:0C4D040054696D657200504F5745520015
:00000001FF
