:100000000C9474000C949C000C949C000C949C0028
:100010000C949C000C949C000C9404090C94EA032E
:100020000C949C000C949C000C949C000C949C00E0
:100030000C949C000C949C000C949C000C949C00D0
:100040000C9415050C949C000C9432030C940C0336
:100050000C949C000C949C000C949C000C949C00B0
:100060000C94D6050C949C0095098409970986097F
:1000700088098A098C098E099009920900000000FC
:10008000240027002A000A0B0C0D0E0F00010203AA
:1000900004050000000023002600290000000008DD
:1000A000000201000003040700000000000000003F
:1000B00001020408102040800102040810200102FF
:1000C0000408102000000000250028002B00040474
:1000D00004040404040402020202020203030303F0
:1000E00003030200611E5B1E11241FBECFEFD8E088
:1000F000DEBFCDBF12E0A0E0B1E0E6E1F9E402C06E
:1001000005900D92A831B107D9F724E0A8E1B2E03B
:1001100001C01D92A838B207E1F710E0C3E7D0E0B4
:1001200004C02197FE010E948023C237D107C9F77E
:100130000E94D3130C947E240C940000CF92DF9283
:10014000EF92FF920F931F93CF93DF936C017A018D
:100150008B01C0E0D0E0CE15DF0581F0D8016D91B4
:100160008D01D601ED91FC910190F081E02DC60149
:100170000995892B11F02196EECF7E01C701DF9101
:10018000CF911F910F91FF90EF90DF90CF90089546
:10019000FC01538D448D252F30E0842F90E0821B8D
:1001A000930B541710F0CF96089501970895FC0112
:1001B000918D828D981761F0828DDF01A80FB11D9E
:1001C0005D968C91928D9F5F9F73928F90E00895C2
:1001D0008FEF9FEF0895FC01918D828D981731F07C
:1001E000828DE80FF11D858D90E008958FEF9FEFD0
:1001F0000895FC01918D228D892F90E0805C9F4FA6
:10020000821B91098F739927089581E193E00E94E1
:10021000F90021E0892B09F420E0822F0895FC01E8
:10022000848DDF01A80FB11DA35ABF4F2C91848D7F
:1002300090E001968F739927848FA689B7892C93B4
:10024000A089B1898C91837080648C93938D848D07
:10025000981306C00288F389E02D80818F7D80830A
:100260000895EF92FF920F931F93CF93DF93EC01CA
:1002700081E0888F9B8D8C8D981305C0E889F98962
:10028000808185FD26C0F62E0B8D10E00F5F1F4F7D
:100290000F731127E02E8C8DE8120CC00FB607FCEF
:1002A000FACFE889F989808185FFF5CFCE010E94D8
:1002B0000F01F1CF8B8DFE01E80FF11DE35AFF4FC7
:1002C000F0829FB7F8940B8FEA89FB898081806266
:1002D0000AC09FB7F894EE89FF896083E889F9899D
:1002E00080818370806480839FBF81E090E0DF9194
:1002F000CF911F910F91FF90EF900895CF93DF93CF
:10030000EC01888D8823C9F0EA89FB89808185FD0D
:1003100005C0A889B9898C9186FD0FC00FB607FC6E
:10032000F5CF808185FFF2CFA889B9898C9185FFAF
:10033000EDCFCE010E940F01E7CFDF91CF9108955D
:1003400080E090E0892B29F00E94050181110C9436
:1003500000000895833081F028F4813099F08230D4
:10036000A1F008958730A9F08830B9F08430D1F435
:10037000809180008F7D03C0809180008F77809373
:100380008000089584B58F7702C084B58F7D84BDC9
:1003900008958091B0008F7703C08091B0008F7D69
:1003A0008093B00008954091DC02262F30E0240FA6
:1003B000311D21323105DCF4209143022430C9F48F
:1003C000FC0180E090E0861758F43091DC02219126
:1003D000DC01A454BD4FA30FB11D2C930196F3CFA4
:1003E0008091DC02680F6093DC0280E0089581E078
:1003F000089582E00895089508950895E0914A02CD
:1004000080914902E81730F4F0E0E55BFD4F808110
:1004100090E008958FEF9FEF089590914A028091A8
:100420004902981750F4E92FF0E0E55BFD4F208179
:1004300030E09F5F90934A0202C02FEF3FEFC90167
:1004400008958091490290E020914A02821B91090F
:100450000895CF92DF92EF92FF920F931F93CF9365
:10046000DF937C01CB018A0120917D04222389F056
:10047000EB016B01C40ED51ECC15DD0569F0699149
:10048000D701ED91FC910190F081E02DC701099514
:10049000F3CF642F0E94D301C801DF91CF911F9148
:1004A0000F91FF90EF90DF90CF900895CF93DF935F
:1004B0001F92CDB7DEB7698320917D042223D1F04E
:1004C00020917A04203240F021E030E0FC013383B7
:1004D000228380E090E015C080917B04E82FF0E05B
:1004E000E556FD4F998190838F5F80937B048093C5
:1004F0007A0405C061E0CE0101960E94D30181E03B
:1005000090E00F90DF91CF910895089580E090E002
:100510000895CF93C82F682F81E193E00E943101A5
:100520008C2FCC0F990BCF9108950E946024FC0171
:1005300024813581232B31F421E061157105A1F06F
:10054000FB0108C0FC01808191816115710531F4C6
:1005500021E0FC018081882339F005C00E946E24CF
:1005600021E0892B09F020E0822F0895FC01808191
:100570009181009711F00C9447210895EF92FF921A
:100580000F931F93CF93DF93EC01198218821B8284
:100590001A821D821C8261157105B9F17B01FB0174
:1005A00001900020E9F731978F01061B170BB80166
:1005B0006F5F7F4F80E090E00E949A23009759F090
:1005C000998388831B830A832C813D81232B81F4AB
:1005D000FC0110820DC088819981009711F00E9462
:1005E0004721198218821D821C821B821A820DC02B
:1005F0001D830C83B70188819981DF91CF911F9171
:100600000F91FF90EF900C947724DF91CF911F9181
:100610000F91FF90EF9008951F920F920FB60F92D7
:1006200011242F933F934F935F936F937F938F93F7
:100630009F93AF93BF93EF93FF9381E193E00E9469
:100640000F01FF91EF91BF91AF919F918F917F919A
:100650006F915F914F913F912F910F900FBE0F902F
:100660001F9018951F920F920FB60F9211242F937F
:100670008F939F93EF93FF93E0912103F0912203D7
:100680008081E0912703F091280382FD12C09081C0
:1006900080912A038F5F8F7320912B03821751F073
:1006A000E0912A03F0E0EF5EFC4F958F80932A03E0
:1006B00001C08081FF91EF919F918F912F910F90B9
:1006C0000FBE0F901F901895CF93DF93282F30E027
:1006D000F901E456FF4F8491F901E055FF4FD491A1
:1006E000F901E253FF4FC491CC2391F081110E9494
:1006F000AA01EC2FF0E0EE0FFF1FEE56FF4FA59181
:10070000B491EC91ED2381E090E021F480E002C00F
:1007100080E090E0DF91CF910895862F0C946403E0
:100720001F93CF93DF93282F30E0F901E456FF4F5A
:100730008491F901E055FF4FD491F901E253FF4F45
:10074000C491CC23C1F0162F81110E94AA01EC2F75
:10075000F0E0EE0FFF1FEC53FF4FA591B4919FB750
:10076000F894111104C08C91D095D82302C0EC915B
:10077000DE2BDC939FBFDF91CF911F910895909165
:100780002301891324C0E2EEF0E0E4919FEF9093FF
:100790002301E130B9F098F0E230C9F49091700093
:1007A0009D7F9093700091E09093B0009091B10084
:1007B000987F94609093B1001092B30008C010929B
:1007C0006E0005C090916F009D7F90936F0060E078
:1007D0000C9490031F920F920FB60F9211242F9337
:1007E0003F934F935F936F937F938F939F93AF93B9
:1007F000BF93EF93FF9380910D0390910E03A0910F
:100800000F03B0911003892B8A2B8B2B51F1909100
:100810000A03E0910B03F0910C0380818927808308
:1008200080910D0390910E03A0910F03B0911003DE
:10083000181619061A061B06C4F480910D03909130
:100840000E03A0910F03B09110030197A109B10904
:1008500080930D0390930E03A0930F03B0931003A6
:1008600004C0809123010E94BF03FF91EF91BF91CB
:10087000AF919F918F917F916F915F914F913F9138
:100880002F910F900FBE0F901F901895862F642FF9
:100890000C949003CF93DF9390E0FC01E055FF4F61
:1008A0002491FC01E253FF4F8491882361F190E091
:1008B000880F991FFC01E458FF4FC591D491FC01AA
:1008C000EC53FF4FA591B491611109C09FB7F89403
:1008D0008881209582238883EC912E230BC062307F
:1008E00061F49FB7F8948881322F309583238883F1
:1008F000EC912E2B2C939FBF06C08FB7F894E88104
:100900002E2B28838FBFDF91CF910895862F642FE0
:100910000C944A048E3008F08E5087708064809367
:100920007C0080917A00806480937A0080917A00C4
:1009300086FDFCCF809178009091790008958230F7
:10094000910538F0880F991F880F991F0597019717
:10095000F1F708953FB7F894809100039091010357
:10096000A0910203B091030326B5A89B05C02F3FB9
:1009700019F00196A11DB11D3FBFBA2FA92F982FC5
:100980008827820F911DA11DB11DBC01CD0142E040
:10099000660F771F881F991F4A95D1F708958F9288
:1009A0009F92AF92BF92CF92DF92EF92FF926B0134
:1009B0007C010E94AA044B015C01C114D104E10432
:1009C000F104F1F00E94AA04DC01CB018819990915
:1009D000AA09BB09883E9340A105B10570F321E047
:1009E000C21AD108E108F10888EE880E83E0981E4B
:1009F000A11CB11CC114D104E104F10419F7DDCF2D
:100A0000FF90EF90DF90CF90BF90AF909F908F902E
:100A100008952FB7F89460916B0270916C028091E9
:100A20006D0290916E022FBF08951F920F920FB624
:100A30000F9211242F933F938F939F93AF93BF9364
:100A400080916B0290916C02A0916D02B0916E0248
:100A50003091FF0223E0230F2D3720F40196A11DD2
:100A6000B11D05C026E8230F0296A11DB11D2093DC
:100A7000FF0280936B0290936C02A0936D02B0937F
:100A80006E028091000390910103A0910203B09146
:100A900003030196A11DB11D8093000390930103F0
:100AA000A0930203B0930303BF91AF919F918F91E5
:100AB0003F912F910F900FBE0F901F90189510929D
:100AC000430281E08093420210923D0261E082E1A4
:100AD0000E94900361E083E10E949003E9EBF0E063
:100AE00080818E7F808380818D7F808388E4809366
:100AF000B80085E48093BC000895CF93DF9391E024
:100B00009093BB028823B9F0C091B800D091BA008D
:100B10008091BC008A7B8093BC0060E082E10E94EF
:100B2000900360E083E10E9490030E945F05D093F0
:100B3000BA00C093B800DF91CF91089585ED8093FE
:100B4000BC008091450290914602A0914702B0916D
:100B500048020796A11DB11D23E0B695A79597956C
:100B600087952A95D1F72091BC0024FF1CC04091A5
:100B70004502509146026091470270914802452B10
:100B8000462B472B81F30097A105B10541F02AE2DE
:100B90002A95F1F700C00197A109B109E4CF80912E
:100BA00044020C947D051092430208951F920F9207
:100BB0000FB60F9211242F933F934F935F936F9330
:100BC0007F938F939F93AF93BF93EF93FF93809106
:100BD000B900887F803609F49CC068F5883209F432
:100BE0005BC090F4803109F454C038F4882309F4D0
:100BF000F6C0883009F44DC0F6C0883109F44CC005
:100C0000803209F45DC0EFC0803409F468C048F454
:100C1000803309F455C0883309F0E5C08093410260
:100C2000D8C0803509F44FC0883509F45DC08834D8
:100C300009F0D9C0D6C0883909F4C7C0A8F48837EC
:100C400009F467C038F4883609F463C0803709F4C2
:100C500060C0C9C0883809F4B8C0803909F45FC0E1
:100C6000803809F0C0C05BC0803B09F486C038F40E
:100C7000803A09F466C0883A09F47FC0B4C0803C69
:100C800009F4A7C0883C09F4A4C0883B09F48AC0D1
:100C9000AAC080913E0210C09091400280913F0214
:100CA000981770F5E091400281E08E0F809340022A
:100CB000F0E0E35EFD4F80818093BB0085EC86C051
:100CC000809341028EC0E091400281E08E0F8093BC
:100CD00040028091BB00F0E0E35EFD4F8083909185
:100CE000400280913F026EC0E091400281E08E0F91
:100CF000809340028091BB00F0E0E35EFD4F808373
:100D00008091420281116DC081E080933D0284EAAE
:100D100061C083E0809343021092FE02CFCF8091A6
:100D2000FE02803208F051C0E091FE0281E08E0F99
:100D30008093FE028091BB00F0E0E252FD4F808381
:100D4000BDCF85EC8093BC00109243028091FE02DF
:100D5000803230F4E091FE02F0E0E252FD4F10826A
:100D60006091FE0270E0E0911902F0911A028EED9E
:100D700092E009951092FE0236C084E0809343020F
:100D80001092DD021092DC02E0911B02F0911C0235
:100D900009958091DC02811105C081E08093DC021D
:100DA0001092BC02E091DD0281E08E0F8093DD02A3
:100DB000F0E0E454FD4F80818093BB009091DD0210
:100DC0008091DC02981708F479CF85E88093BC0005
:100DD0000AC085EC8093BC001092430204C01092BC
:100DE00041020E949E05FF91EF91BF91AF919F91AB
:100DF0008F917F916F915F914F913F912F910F90C4
:100E00000FBE0F901F9018958F929F92AF92BF9236
:100E1000CF92DF92EF92FF920F931F93CF93DF93C6
:100E200010917A04113208F0C2C0062FD0917C04D0
:100E30000E94AA046B017C01C0914302CC2311F1F2
:100E40008091450290914602A0914702B0914802DC
:100E5000892B8A2B8B2B81F30E94AA048090450258
:100E600090904602A0904702B0904802DC01CB016E
:100E70008C199D09AE09BF0988169906AA06BB06FA
:100E8000D8F681C082E080934302009342028FEF44
:100E9000809341021092400210933F02ABE9B2E00E
:100EA000EDE1F2E080E0181721F09D9191938F5FC2
:100EB000FACF10923E0290913E028D2F880F892B1F
:100EC00080933E0280913D02813089F510923D026F
:100ED0000E94AA046B017C0180913E028093BB00BA
:100EE0008091450290914602A0914702B09148023C
:100EF000892B8A2B8B2BA9F00E94AA040091450212
:100F0000109146022091470230914802DC01CB014A
:100F10008C199D09AE09BF09081719072A073B0755
:100F200090F18091BC0083FDD7CF85EC01C085EEA8
:100F30008093BC000E94AA046B017C018091430253
:100F4000823039F58091450290914602A091470286
:100F5000B0914802892B8A2B8B2B81F30E94AA0423
:100F600000914502109146022091470230914802BB
:100F7000DC01CB018C199D09AE09BF0908171907BF
:100F80002A073B07D8F6809144020E947D05C5E000
:100F900013C0809141028F3F79F0809141028032ED
:100FA00041F080914102803331F0C4E005C0C1E0DE
:100FB00003C0C2E001C0C3E010927B0410927A0427
:100FC00010927D048C2FDF91CF911F910F91FF9094
:100FD000EF90DF90CF90BF90AF909F908F9008954B
:100FE000AF92BF92CF92DF92EF92FF920F931F9337
:100FF000CF93DF93EC0188819981892B31F06EBD0D
:101000000DB407FEFDCFAEB496C088859985892BB7
:1010100011F010E801C011E0BB24B394862F8123A6
:1010200009F0B12C062F2C813D814E815F8160E259
:1010300071EA87E090E00E943B23F22EA02EE12C83
:10104000C22ED12CFF2019F0C6010E949F048A8570
:10105000877FB9F58D858F3FB9F0902F912381E07F
:1010600009F480E0B81681F0EF85F8898F8999231B
:1010700031F09081892B8083BB24B39405C090818B
:10108000809589238083B12CE989FA899081898DA3
:10109000892B8083FF2019F0C6010E949F048E8552
:1010A0008F3F39F0EB89FC899081888D892309F085
:1010B000E12AE989FA899081898D80958923808345
:1010C0002CC0E989FA899081898D892B8083FF2042
:1010D00019F0C6010E949F048D858F3F69F0EF854E
:1010E000F8898F89902F912319F09081892B03C063
:1010F0009081809589238083E989FA899081898DFF
:101100008095892380838E858F3F39F0EB89FC8918
:101110009081888D892309F0E12A8E858F3F09F01F
:10112000AE2C88859985892B21F4110F11118ACF56
:1011300002C01695FBCF8A2DDF91CF911F910F91A1
:10114000FF90EF90DF90CF90BF90AF900895FF9207
:101150000F931F93CF93DF93EC018A01F22E8981C5
:101160009A81DC01ED91FC910280F381E02D0995DB
:101170000817190739F46F2D89819A810E94040795
:1011800091E0811190E0892FDF91CF911F910F9114
:10119000FF900895CF93DF93EC018B8181111EC0E6
:1011A00010924A021092490210927B0410927A0423
:1011B0000E945F058BEF91E090931C0280931B02CD
:1011C0008CEF91E090931A028093190281E08B8357
:1011D000CE010E94CA08982F882391F0888191E05F
:1011E00090937D0480937C0410927B0410927A0487
:1011F00061E089819A810E94040791E0811190E069
:10120000892FDF91CF9108951F920F920FB60F9201
:1012100011248F9381E0809318028F910F900FBE5D
:101220000F901F9018958FB7F89480919A028FBFF6
:101230000895FC0183858F3F19F061E00C949003C1
:1012400008958EBD00000DB407FEFDCF8EB5089544
:101250008CBD9DBD0895CF93DF93EC01888199816A
:10126000892B31F0EA81FB81808191810E942809DC
:101270008B858F3F29F060E0DF91CF910C94900334
:10128000DF91CF9108958F929F92AF92BF92CF92AC
:10129000DF92EF92FF920F931F93CF93DF937C0126
:1012A0005B016A0149010E942B09E401080D191D27
:1012B000C017D10729F06991C7010E94F007F8CF44
:1012C000E501CA0CDB1CCC15DD0529F06991C701CD
:1012D0000E94F007F8CFC7010E94190981E0DF9151
:1012E000CF911F910F91FF90EF90DF90CF90BF9023
:1012F000AF909F908F9008958A309105A8F4FC01DB
:10130000EC5CFF4F0C94802386E008958FE40895F1
:1013100086E608958DE608958DE7089587E008959F
:101320008FE708958FE6089508958FE308958BE57C
:1013300008950F931F93CF93DF930E9409050091A7
:101340007702109178022091790230917A02DC01C3
:10135000CB01801B910BA20BB30B853F9140A105E4
:10136000B10508F4C2C00E9409056093770270932A
:1013700078028093790290937A0220919902809169
:10138000080390910903222309F444C010929902A2
:101390008230910579F17CF4009739F1019709F0D9
:1013A000A4C080916F02909170020E947C0920E09D
:1013B00040E068E094C08330910509F044C080911A
:1013C0007302909174020E947C09D82F809171025F
:1013D000909172020E947C09C82F80916F029091B7
:1013E00070020E947C0928E078C020E040E060E0C4
:1013F00088E075C080917102909172020E947C0910
:10140000C82F80916F02909170020E947C0920E0A9
:1014100048E064C021E02093990282309105C1F137
:101420007CF4009781F1019709F05FC080916F0211
:10143000909170020E947C0920E040E060E04FC083
:1014400083309105A9F1049709F04FC0809175028E
:10145000909176020E947C09182F809173029091DE
:1014600074020E947C09D82F8091710290917202BF
:101470000E947C09C82F80916F02909170020E9497
:101480007C09212F2AC020E040E060E080E027C0F6
:1014900080917102909172020E947C09C82F809104
:1014A0006F02909170020E947C0920E040E016C01B
:1014B00080917302909174020E947C09D82F8091D0
:1014C0007102909172020E947C09C82F80916F0274
:1014D000909170020E947C0920E04D2F6C2FDF91CB
:1014E000CF911F910F910C949D10DF91CF911F917F
:1014F0000F91089596E0899FD0011124AA53BC4F03
:1015000090967C936E935F9791E091969C939197C0
:1015100090913204E0913304F0913404992339F02E
:10152000309751F0811108C08091E20304C03097D8
:1015300019F05C968C91099408957F928F929F92F6
:10154000AF92BF92CF92DF92EF92FF920F931F93D1
:10155000CF93DF93EC0180E497E7ABE1B0E08093B9
:101560001F0190932001A0932101B093220168EA0A
:1015700071E0CE010E949702882369F00E94241333
:1015800010924C040E94371368EA71E08BE091E0FE
:101590000E947724BAC266EB71E0CE010E949702E6
:1015A000882369F066EB71E08BE091E00E9477247C
:1015B0000E94241310924C040E943713A6C266ECBA
:1015C00071E0CE010E949702882309F4FDC166EC08
:1015D00071E08BE091E00E9477240E94241368EC74
:1015E00070E080E090E00E94CF0420E041E060E005
:1015F00080E00E949D1064E670E080E090E00E9430
:10160000CF044EE150E060E070E084E690E00E949C
:10161000B21021E041E060E080E00E949D1064E6AD
:1016200070E080E090E00E94CF044EE150E060E086
:1016300070E084E690E00E94B21023E041E060E0B8
:1016400080E00E949D1064E670E080E090E00E94DF
:10165000CF044EE150E060E070E084E690E00E944C
:10166000B21027E041E060E080E00E949D1064E657
:1016700070E080E090E00E94CF044EE150E060E036
:1016800070E084E690E00E94B2102FE041E060E05C
:1016900080E00E949D1064E670E080E090E00E948F
:1016A000CF044EE150E060E070E084E690E00E94FC
:1016B000B2102FE049E060E080E00E949D1064E6F7
:1016C00070E080E090E00E94CF044EE150E060E0E6
:1016D00070E084E690E00E94B2102FE049E068E0FC
:1016E00080E00E949D1064E670E080E090E00E943F
:1016F000CF044EE150E060E070E084E690E00E94AC
:10170000B2102FE049E068E088E00E949D1064E696
:1017100070E080E090E00E94CF044EE150E060E095
:1017200070E084E690E00E94B2102FE049E068E0AB
:1017300088E10E949D1064E670E080E090E00E94E5
:10174000CF044EE150E060E070E084E690E00E945B
:10175000B2102FE049E068E088E30E949D1064E643
:1017600070E080E090E00E94CF044EE150E060E045
:1017700070E084E690E00E94B2102FE049E068E05B
:1017800089E30E949D1064E670E080E090E00E9492
:10179000CF044EE150E060E070E084E690E00E940B
:1017A000B2102FE049E069E089E30E949D1064E6F1
:1017B00070E080E090E00E94CF044EE150E060E0F5
:1017C00070E084E690E00E94B2102FE048E069E00B
:1017D00089E30E949D1064E670E080E090E00E9442
:1017E000CF044EE150E060E070E084E690E00E94BB
:1017F000B2102EE048E069E089E30E949D1064E6A3
:1018000070E080E090E00E94CF044EE150E060E0A4
:1018100070E084E690E00E94B2102CE048E069E0BD
:1018200089E30E949D1064E670E080E090E00E94F1
:10183000CF044EE150E060E070E084E690E00E946A
:10184000B21028E048E069E089E30E949D1064E658
:1018500070E080E090E00E94CF044EE150E060E054
:1018600070E084E690E00E94B21020E048E069E079
:1018700089E30E949D1064E670E080E090E00E94A1
:10188000CF044EE150E060E070E084E690E00E941A
:10189000B21020E040E069E089E30E949D1064E618
:1018A00070E080E090E00E94CF044EE150E060E004
:1018B00070E084E690E00E94B21020E040E061E039
:1018C00089E30E949D1064E670E080E090E00E9451
:1018D000CF044EE150E060E070E084E690E00E94CA
:1018E000B21020E040E061E081E30E949D1064E6D8
:1018F00070E080E090E00E94CF044EE150E060E0B4
:1019000070E084E690E00E94B21020E040E061E0E8
:1019100081E20E949D1064E670E080E090E00E9409
:10192000CF044EE150E060E070E084E690E00E9479
:10193000B21020E040E061E081E00E949D1064E68A
:1019400070E080E090E00E94CF044EE150E060E063
:1019500070E084E690E00E94B21020E040E061E098
:1019600080E00E949D1064E670E080E090E00E94BC
:10197000CF044EE150E060E070E084E690E00E9429
:10198000B21020E040E060E080E00E949D1064E63C
:1019900070E080E090E00E94CF044EE150E060E013
:1019A00070E084E690E00E94B2100E9424134EE1A1
:1019B00050E060E070E080ED97E00E94B21010927D
:1019C000090310920803A1C06AED71E0CE010E94E4
:1019D0009702882309F47AC06AED71E08BE091E008
:1019E0000E94772480E880934C040E94371303E61A
:1019F00010E02AE0C22ED12C30ED832E37E0932E5A
:101A0000A12CB12CC801B6010E946C237B010E945D
:101A10007C09782EC7010E947C092FE64FE6672DCE
:101A20000E949D100E94CB1FA50194010E94D2220A
:101A3000CB018C509E4F41E050E060E070E00E948E
:101A4000B2106AE070E080E090E00E94CF040150A4
:101A50001109C1F603E610E08AE0C82ED12C90ED02
:101A6000892E97E0992EA12CB12C80913C01909168
:101A70003D01081719070CF448C0C801B6010E94BF
:101A80006C237B010E947C09782EC7010E947C098F
:101A9000272D482F6FE38FE30E949D100E94CB1FDC
:101AA000A50194010E94D222CB018C509E4F41E0AF
:101AB00050E060E070E00E94B2106AE070E080E008
:101AC00090E00E94CF0401501109CFCF6FEE71E07A
:101AD000CE010E9497028823C1F06FEE71E08BE087
:101AE00091E00E9477240E9409056093040370939B
:101AF0000503809306039093070380913C01909126
:101B00003D0190936E0480936D0464EF71E0CE010B
:101B10000E949702882349F164EF71E08BE091E025
:101B20000E94772440E050E0BA0180ED97E00E94E7
:101B3000B21068EE73E080E090E00E94CF048FE086
:101B40000E94BF030E94241310924C04DF91CF9196
:101B50001F910F91FF90EF90DF90CF90BF90AF90CB
:101B60009F908F907F900C943713DF91CF911F91AE
:101B70000F91FF90EF90DF90CF90BF90AF909F902C
:101B80008F907F900895CF93DF93CFE4D4E0682FB8
:101B90008B810E9490038A8D9B8DDF91CF910C9455
:101BA0009F0481E00C94C30D0F931F930091530485
:101BB00010915404209155043091560440E052E1B4
:101BC0006AE770E090E0041715072607370740F42E
:101BD00076956795579547959F5F9630A1F797E063
:101BE00081E09827892F806A869591700E94280944
:101BF00080E01F910F910C94C30D0F931F93CF930F
:101C0000DF9380916104882361F1809163048111E5
:101C100008C0C0915804DC2FCE3108F0DDE1CD1BA7
:101C200002C0C0E0DDE10E94D40D89EA0E942109D2
:101C30008093570402E011E0D15030F0F801819117
:101C40008F010E942109F8CFCC2329F080E00E9467
:101C50002109C150F9CF0E94D10D80915704809580
:101C60008170DF91CF911F910F910895009769F0D6
:101C7000FC0101900020E9F73197AF01481B590B97
:101C8000BC0181E193E00C949E0080E090E0089517
:101C9000CF93C82F0E94D40D8C2F80620E942109FF
:101CA00080935704CF910C94D10DCF93DF93D82F0D
:101CB000C62F0E94D40D8D2F80620E94210980932F
:101CC00057048C2F0E942109DF91CF910C94D10DE4
:101CD000CF93C82F0E94D40D8C2F0E94210980938E
:101CE00057048FEF0E942109C82F0E94D10D8C2F1D
:101CF000CF910895FF920F931F93CF93DF93182FE7
:101D0000F62ED72FC42F0E94D40D812F80620E94FF
:101D10002109809357040F2D1D2FCC2339F0F80192
:101D200081918F010E942109C150F7CFDF91CF919E
:101D30001F910F91FF900C94D10D60915E0461FD95
:101D40000AC0626060935E0480E00E94550E8BE1E1
:101D50009EE40197F1F70895CF9386E00E94680E04
:101D6000C82FC77D85E590E0A0E0B0E080936504D2
:101D700090936604A0936704B09368046C2F86E088
:101D80000E94550E86E00E94680E91E0C81390E014
:101D9000892FCF9108950E94D40D80E50E942109DA
:101DA0008093570483E70E9421090C94D10DCF93AF
:101DB000DF930E94360EEC018DE891E00E94360E12
:101DC0008C0F9D1FDF91CF91089583FD02C098E095
:101DD00001C098E28770982B88E10FB6F894A89517
:101DE000809360000FBE90936000809160008064DB
:101DF00080936000A89508958091640080FD08C0DC
:101E000080917A00806880937A0080B78F7780BF56
:101E10001092BB0308950F931F93CF93DF93C82FA6
:101E2000D62F86E0C89FF0011124EA53FC4F11A27F
:101E3000878D90A181309105D9F040F082309105D5
:101E4000A9F10397F1F560E070E034C06623C9F1B1
:101E500061E070E08C2F0E947A0A0E94090560936D
:101E60001E0470931F04809320049093210429C0C2
:101E70000E94090500911E0410911F042091200466
:101E800030912104AB01BC01401B510B620B730B61
:101E90008091300490913104A0E0B0E08417950760
:101EA000A607B70718F462E070E004C0D11109C0BA
:101EB00063E070E08C2FDF91CF911F910F910C9414
:101EC0007A0ADF91CF911F910F9108958F929F927F
:101ED000AF92BF92CF92DF92EF92FF920F931F9338
:101EE000CF93DF937C014B016A0159010E942B09BA
:101EF000E401C80CD91CCC15DD0529F06991C70196
:101F00000E94F007F8CFE5010A0D1B1DC017D1078D
:101F100031F06FEFC7010E94F0078993F7CFC70137
:101F20000E94190981E0DF91CF911F910F91FF90DD
:101F3000EF90DF90CF90BF90AF909F908F900895DB
:101F4000CF93DF93C5E4D4E060E088850E949003DE
:101F500060E089850E94900361E088850E9490037B
:101F600061E08985DF91CF910C949003CF93DF934B
:101F7000C5E4D4E061E088850E94900361E0898532
:101F80000E94900360E089850E94900360E088854C
:101F9000DF91CF910C9490030F931F93CF93DF9316
:101FA000D82FC8E060E080914D040E949003D0FFDC
:101FB00002C061E001C060E080914E040E94900385
:101FC000D59561E080914D040E949003C15051F776
:101FD00060E080914D040E94900361E080914E0486
:101FE0000E94900361E080914D040E94900360E0A4
:101FF00080914E040E944A0483EC90E00197F1F72F
:1020000080914E040E9464038C0181110AC061E03A
:1020100080914E040E944A0460E080914E040E9428
:102020009003C3ECD0E0CE010197F1F761E080911D
:102030004E040E944A042197F1F7C8019927DF91C5
:10204000CF911F910F910895EF92FF920F931F93DD
:10205000CF93DF9300D000D0CDB7DEB740914C04D2
:1020600065E474E0DC018E010F5F1F4F9801CD0124
:102070005D91FB015193BF01FC019081940FF90127
:1020800091939F01F4E069347F0789F70E94B60FAE
:1020900080E40E94CC0F0E94A00F0E94B60F809196
:1020A0004A040E94CC0F7E0185E0E80EF11CF80185
:1020B00081918F010E94CC0F0E151F05C1F70E9460
:1020C000A00F0E94B60F80914B040E94CC0F0F907E
:1020D0000F900F900F90DF91CF911F910F91FF9074
:1020E000EF900C94A00F0F931F93CF93DF93182FB3
:1020F000C5E4D4E0E82FF0E0EB5BFB4F10820F81EA
:102100000E94B60F84E40E94CC0F0E94A00F0E9490
:10211000B60F812F806C0E94CC0F802F0E94CC0FB5
:102120000E94A00F0E94B60F8E810E94CC0FDF91FB
:10213000CF911F910F910C94A00FCF93DF9300D0FC
:1021400000D0CDB7DEB789836A834B832C83CE0161
:1021500001960E9424100F900F900F900F90DF9126
:10216000CF9108954F925F926F927F928F929F923C
:10217000AF92BF92CF92DF92EF92FF920F931F9395
:10218000CF93DF9300D000D01F92CDB7DEB78C0184
:102190002A013B01809123018F3021F08F3F09F00C
:1021A0003DC205C0E2EEF0E024912D8372C08FE0C5
:1021B00080932301E2EEF0E084918D838F3F09F458
:1021C0002DC2813009F441C038F1823009F061C07C
:1021D0001092B0001092B1008091B00082608093A4
:1021E000B0008091B10081608093B100EDEDF0E02E
:1021F000E491F0E0EE0FFF1FEC53FF4F85919491B7
:1022000090930C0380930B03EFEBF0E0E491E093E9
:102210000A0322E02D83FDC114BC15BC84B5826085
:1022200084BD85B5816085BDEDEDF0E0E491F0E021
:10223000EE0FFF1FEC53FF4F85919491EFEBF0E011
:10224000E491E09370041D82E4C11092800010922A
:10225000810080918100886080938100809181005D
:10226000816080938100EDEDF0E0E491F0E0EE0F0D
:10227000FF1FEC53FF4F85919491EFEBF0E0E49159
:10228000E0936F0461E08FE00E944A0491E09D8337
:102290008AC08D8187FDC2C161E08FE00E944A043F
:1022A0008D818D7F09F07FC04801A12CB12C60E0A9
:1022B00072E18AE790E0A50194010E94D22229836D
:1022C0003A834B835C8369017A0191E0C91AD10892
:1022D000E108F1082FEFC216D104E104F10409F07E
:1022E00008F44EC060E472E48FE090E0A501940130
:1022F0000E94D22269017A0181E0C81AD108E1085E
:10230000F1089D81923009F52FEFC216D104E10446
:10231000F10409F008F444C160E970ED83E090E055
:10232000A50194010E94D22269017A0181E0C81AB4
:10233000D108E108F1089FEFC916D104E104F104C6
:1023400011F008F0BAC083E027C02FEFC216D10405
:10235000E104F104B9F0B0F068E478EE81E090E0D7
:10236000A50194010E94D22269017A0181E0C81A74
:10237000D108E108F1089D81992309F413C1DCC05B
:1023800081E001C082E09D81911106C095B5987FE2
:10239000892B85BD44C085E09091B100987F892B41
:1023A0008093B1003CC04801A12CB12C60E072E1E7
:1023B0008AE790E0A50194010E94D22269017A0186
:1023C00081E0C81AD108E108F108C114D10491E0F4
:1023D000E906F10488F068E478EE81E090E0A50178
:1023E00094010E94D22269017A0181E0C81AD108C1
:1023F000E108F10883E001C081E09D81913079F42A
:1024000090918100987F892B809381004114510421
:102410006104710449F42FEF3FEFA9012CC041146E
:1024200051046104710471F0D801AA0FBB1FA3010C
:1024300092010E94F12228EE33E040E050E00E9439
:102440003B2303C02FEF3FEFA9018D81813099F02D
:10245000823019F18111E2C0C7BC2093750430931A
:102460007604409377045093780480916E008260E4
:1024700080936E00D3C0D0928900C09288002093D0
:1024800071043093720440937304509374048091E8
:102490006F00826080936F00C1C0C092B300209330
:1024A0000D0330930E0340930F035093100380915C
:1024B0007000826080937000B1C068E478EE81E0C3
:1024C00090E0A50194010E94D22269017A0191E075
:1024D000C91AD108E108F1082FEFC216D104E104AE
:1024E000F10441F138F164E274EF80E090E0A5017D
:1024F00094010E94D22269017A0181E0C81AD108B0
:10250000E108F1089FEFC916D104E104F10409F0D4
:1025100008F441CF62E17AE780E090E0A501940100
:102520000E94D22269017A0181E0C81AD108E1082B
:10253000F10819C084E030CF2FEFC216D104E104B6
:10254000F10409F008F463C062E17AE780E090E00A
:10255000A50194010E94D22269017A0191E0C91A71
:10256000D108E108F1088FEFC816D104E104F104A5
:10257000A9F0A0F089819A81AB81BC812AE0B59550
:10258000A795979587952A95D1F76C017D0121E054
:10259000C21AD108E108F10887E0FECE86E0FCCE41
:1025A00082E0FACE8FEFC816D104E104F10469F19C
:1025B00060F162E17AE780E090E0A50194010E9479
:1025C000D22269017A0191E0C91AD108E108F10823
:1025D0002FEFC216D104E104F104A9F0A0F0898123
:1025E0009A81AB81BC813AE0B595A795979587957F
:1025F0003A95D1F76C017D0121E0C21AD108E108BA
:10260000F10885E0C3CE84E0C1CE83E0BFCE84E094
:10261000BACE61E08FE00E944A0446CE0F900F9040
:102620000F900F900F90DF91CF911F910F91FF901E
:10263000EF90DF90CF90BF90AF909F908F907F9062
:102640006F905F904F90089580E00E94731081E03A
:102650000E94731082E00E94731083E00E94731046
:10266000E5E4F4E01082118212821382089585E479
:1026700094E00C942410CF92DF92EF92FF920F938C
:102680001F93CF93DF9300D0CDB7DEB7FC01478710
:10269000508B618B728B8285882311F0448701C037
:1026A0004387452F562F672F7727882311F04387BD
:1026B00001C044877F018BE0E80EF11C9681878181
:1026C00099838A83C080D180C114D104B1F101857E
:1026D00010E098012E5F3F4FD60114968D919C918A
:1026E00015978217930710F480E052C0F60180819D
:1026F00091E090937D0480937C0410927B0410926F
:102700007A040115110541F421E042E050E0B701DF
:10271000C6010E94A7083CC081819281DC01ED9135
:10272000FC910280F381E02DA801BE016F5F7F4F15
:10273000099508171907C1F6E7CFA281B381109751
:1027400099F22481358101852330310539F48E7F5A
:1027500089839A8310E00F5F1F4F11C02115310547
:1027600011F49F770AC02230310511F4906805C03A
:102770002130310519F49F779064998310E09E0110
:102780002F5F3F4F42E050E0B701CD010E94430967
:102790000F900F90DF91CF911F910F91FF90EF90CD
:1027A000DF90CF900895CF93DF93CDB7DEB7C454B9
:1027B000D1090FB6F894DEBF0FBECDBF789484B5B3
:1027C000826084BD84B5816084BD85B5826085BD2D
:1027D00085B5816085BD80916E00816080936E00BB
:1027E00010928100809181008260809381008091AD
:1027F000810081608093810080918000816080935E
:1028000080008091B10084608093B1008091B0001D
:1028100081608093B00080917A00846080937A0018
:1028200080917A00826080937A0080917A00816042
:1028300080937A0080917A00806880937A00109269
:10284000C100E0912103F091220382E08083E091B6
:102850002103F09122031082E0911D03F0911E03E9
:102860001082E0911F03F091200380E18083109299
:102870002903E0912503F091260386E08083E0910F
:102880002303F0912403808180618083E0912303FE
:10289000F0912403808188608083E0912303F0918C
:1028A0002403808180688083E0912303F0912403D6
:1028B00080818F7D808360E070E089E892E00E94F3
:1028C00048200E94241380E48093490480EC809384
:1028D0004A048BE880934B040E94371361E08EE03A
:1028E0000E944A0461E08EE00E9490031092180258
:1028F0000E94AA046B017C0180E00E94E50E809199
:1029000018028823E1F30FB6F894A895809160002F
:10291000886180936000109260000FBE0E94AA043C
:102920006C197D097093C0036093BF0380913504D7
:1029300090913604892BA9F486E090E00E94AF20A4
:10294000FC018091380480838EEA93E09283818336
:10295000138280E290E095838483F0933604E093C1
:102960003504009135041091360410924A021092F9
:10297000490210927B0410927A040E945F058BEF4B
:1029800091E090931C0280931B028CEF91E0909356
:102990001A0280931902FF24F394D8011396FC9233
:1029A000C8010E94CA08882309F45BC080E090E156
:1029B000A0E0B0E08093390490933A04A0933B04E4
:1029C000B0933C048AE090E0A0E0B0E080933D0446
:1029D00090933E04A0933F04B093400480E090E0C5
:1029E000A0E0B0E48093410490934204A093430498
:1029F000B0934404809135049091360419AA1AAA20
:102A00001BAA1CAA9BA38AA31DA21CA2FBA6A5E02D
:102A1000B0E0B9A7A8A7FCA612E01AA740E050E1D1
:102A200060E070E0CE0182960E943B1380913504F5
:102A300090913604188A198A1A8A1B8A9A83898384
:102A40001C821B82FA8618861F82FB8619874FE933
:102A500059E360E070E0CE0101960E943B13809341
:102A6000370480E090E2A0E0B0E0809339049093D6
:102A70003A04A0933B04B0933C0484E190E0A0E0CE
:102A8000B0E080933D0490933E04A0933F04B09344
:102A9000400480E090E0A0E8BFE38093410490937D
:102AA0004204A0934304B093440480913504909170
:102AB000360419AA1AAA1BAA1CAA9BA38AA31DA2A0
:102AC0001CA211E01BA7A5E0B0E0B9A7A8A71CA70E
:102AD00002E00AA740E050E260E070E0CE0182969A
:102AE0000E943B138091350490913604188A198A0C
:102AF0001A8A1B8A9A8389831C821B821A871886EA
:102B00001F821B8709874FE951E060E070E0CE012A
:102B100001960E943B138093370420903504309037
:102B20003604188A198A1A8A1B8A3A8229821C82D8
:102B30001B821A8782E090E098878F831B87098722
:102B40000AA31BA22114310409F422C1F1018481DA
:102B50009581892B09F41CC1808110937D04809399
:102B60007C0410927B0410927A0420E041E050E053
:102B7000BE016E5D7F4FC1010E94A708B82E882359
:102B800009F406C1E12CF12CAA24A394D1011496D6
:102B90008D919C91159722E0C22ED12CCE18DF0882
:102BA0008C159D0508F46C01F10190800E94AA0427
:102BB0002B013C0100914302002339F18091450231
:102BC00090914602A0914702B0914802892B8A2B2E
:102BD0008B2B81F30E94AA040091450210914602BA
:102BE0002091470230914802DC01CB0184199509FC
:102BF000A609B709081719072A073B07D8F68091D5
:102C000044020E947D0500E09BC01C2D113208F09B
:102C100010E2A092430221E082E090E08C199D092D
:102C2000E816F90608F420E020934202FFEFF09343
:102C30004102109240028FEF810F80933F02A092D9
:102C40003E0280913E02990C982A90923E02809119
:102C50003D02813099F510923D020E94AA042B0199
:102C60003C0180913E028093BB008091450290918F
:102C70004602A0914702B0914802892B8A2B8B2BE8
:102C8000A9F00E94AA042091450230914602409189
:102C9000470250914802DC01CB0184199509A6092D
:102CA000B709281739074A075B07A0F18091BC00D4
:102CB00083FDD7CF25EC2093BC0003C035EE3093C5
:102CC000BC000E94AA042B013C0180914302813088
:102CD00031F58091450290914602A0914702B09152
:102CE0004802892B8A2B8B2B81F30E94AA04209106
:102CF0004502309146024091470250914802DC0162
:102D0000CB0184199509A609B709281739074A077D
:102D10005B07D8F6809144020E947D0511C0809126
:102D20004002811710F410914002EDE1F2E0ABE4B3
:102D3000B2E000E0011721F081918D930F5FFACF8F
:102D400010924A020093490210E00C151D0501F58E
:102D5000CC24C394D12CCC0EDD1ECE0CDF1C46013E
:102D6000C6018819990980179107A0F4D10111961D
:102D70008D919C911297DC01ED91FC910284F38579
:102D8000E02D0995F6018387FFEFCF1ADF0AE8CF20
:102D9000B12C09C0E00EF11E22E0E216F10408F4A5
:102DA000F5CEB1103DC5B092370425966EAD7FAD1E
:102DB0002597B3E076956795BA95E1F7660F771F8B
:102DC000660F771F072E000C880B990B0E94D921E4
:102DD0002FE632E143E85AE30E9414226093070190
:102DE000709308018093090190930A0104E610E0B2
:102DF00086E791E00E94D70E01501109C9F704E659
:102E000010E08BE791E00E94D70E01501109C9F73D
:102E10001FB7F89480917B02811127C0E8EDF0E0A4
:102E20008491EAEBF0E09491E82FF0E0EE0FFF1FC1
:102E3000E458FF4FA591B491EC91E92321F461E0AE
:102E40008AE00E94900361E08AE00E944A048CB507
:102E500080618CBD8CB580648CBD61E08DE00E948A
:102E60004A0461E08BE00E944A0480917B028F5FFC
:102E700080937B021FBF809151048F3F09F472C081
:102E8000909152049F3F09F46DC0891741F061E0B1
:102E90000E944A0461E0809152040E944A04809199
:102EA000510490915204891719F060E00E94900338
:102EB00081E00E94C30D65E070E080E090E00E9438
:102EC000CF046FE584E00E94550E0E94AC0E8DE1A8
:102ED0000E94680E182F0E94CB0E8DE10E94680E92
:102EE00091E0181390E090935F048111AAC41092AE
:102EF000610460E08CE10E94550E109263046FE360
:102F000081E00E94550E63E082E00E94550E80E24F
:102F10008093580411E160915804812F0E94550E4E
:102F20001F5F1731C1F763E083E00E94550E85E013
:102F3000809362046CE40E94550E60E787E00E9473
:102F4000550E82EE0E94480E81EE0E94480E6CE003
:102F500080E00E94550E80E00E94680E80935E041F
:102F60000E949D0E64E685E00E94550E0E94AC0E04
:102F700086E00E94680E682F676086E00E94550E0A
:102F800080916104811115C08DE10E94680E682F47
:102F900066608DE10E94550E8CE10E94680E682FDC
:102FA00063608CE10E94550E81E0809363048093FE
:102FB000610481E18DAB8DED8EAB8CEC8FAB8BEB37
:102FC00088AF8AEA89AF1AAE1BAE1CAEE7E8F0E024
:102FD000849140916204BE016B5C7F4F0E947A0E27
:102FE00082E00E94680EEDE8F0E0E49161E070E0BC
:102FF00001C0660FEA95EAF7682B82E00E94550E41
:103000000E949D0E60915E04616060935E0480E0AA
:103010000E94550E60E787E00E94550E8091510492
:1030200090915204891719F061E00E9490038091F9
:103030006004882341F04091620469E574E08AE00D
:103040000E947A0E14C082E00E94680EECE8F0E064
:10305000E49121E030E001C0220FEA95EAF72095E3
:10306000622F682382E00E94550E109260040E9435
:10307000FD0D64E670E080E090E00E94CF048FEFE9
:103080000E94480E8091570490E09595879587702F
:10309000863008F4DFC319C00E94D10D60E487E0D8
:1030A0000E94550E6CE772E0CE0101960E94BE02AE
:1030B00062E871E0CE0101960E949702182FCE01BE
:1030C00001960E94B6021111F2C36BE071E0CE01CD
:1030D00001960E94BE0266EB71E0CE0101960E944D
:1030E000970281112AC06BE071E0CE0182960E94A6
:1030F000BE0264EF71E0CE0182960E9497028111B8
:1031000016C06BE071E0CE01CD960E94BE0268EA67
:1031100071E0CE01CD960E949702811171C585E1C3
:103120000E94640311E0892B09F06BC569C510E0AA
:10313000CE0182960E94B60201C010E0CE01019637
:103140000E94B602112371F066EB71E0CE01019688
:103150000E94BE02CE0101960E949D0ACE010196F8
:103160000E94B6026BE071E0CE0101960E94BE02A1
:1031700066EB71E0CE0101960E949702882331F040
:1031800085E10E948A0411E0892B09F010E0CE014C
:1031900001960E94B602112371F066EC71E0CE0137
:1031A00001960E94BE02CE0101960E949D0ACE01A8
:1031B00001960E94B6026BE071E0CE0101960E947A
:1031C000BE0266EC71E0CE0101960E949702182FB4
:1031D000CE0101960E94B602112309F4A2C10E94F9
:1031E000990981E0809332040E940905009122042C
:1031F000109123042091240430912504AB01BC01DB
:10320000401B510B620B730B80912E0490912F0485
:10321000A0E0B0E084179507A607B70708F0E9C05B
:1032200010E080912C04181710F0912C42C0E0910E
:103230002804F0912904E10FF11D62E080810E94D1
:103240004A041F5FEECF082D10E0E0912804F091B2
:103250002904E00FF11F80810E9464030C5F1F4F5F
:10326000000F111FF801EA53FC4F892B09F04DC0E4
:10327000808191818A299B29918380838394809185
:103280002C04881600F3E0912A04F0912B04EE0D33
:10329000FF1D61E080810E94900380912A0490913B
:1032A0002B04FC01EE0DFF1D60E080810E944A04AA
:1032B000939480912D04981668F5E92CF12CE091F7
:1032C0002A04F0912B04EE0DFF1D61E080810E9425
:1032D0004A04E0912A04F0912B04EE0DFF1D60E0FA
:1032E00080810E94900381E090E0A0E0B0E0092C92
:1032F00004C0880F991FAA1FBB1F0A94D2F75C0154
:103300006C01C094D094812CBACF808191818C21A2
:103310009D21B2CF36ECE32E33E0F32EF701878DFB
:1033200090A1892B31F4148EAFEFBFEFB68FA58F2C
:1033300011A23696B4E0E230FB0789F7D12C26E0E3
:10334000B22E80912C04D81658F5C12C0D2D10E00A
:10335000000F111F02531C4F20912D04C216F0F4D0
:10336000F801408151810C2C02C0569547950A9472
:10337000E2F7642F6170D29E900111242C0D311D53
:10338000E6ECF3E080E0A58DB68D2A173B0709F443
:1033900059C48F5F36968A30B1F738C4D394D1CFF1
:1033A00010E0D70191968C91811111E0B6E0EB0EFF
:1033B000F11CE2E0EE16E4E0FE0699F70E94090532
:1033C0006093220470932304809324049093250433
:1033D000112379F08091E703882359F08091E50368
:1033E0009091E603019729F41091E203111104C0B2
:1033F00098C01092320495C00E94CB1F24EF31E098
:1034000040E050E00E94D222CB018C509E4F42E31C
:1034100050E060E070E00E94B210812F110F990B14
:10342000C0972091080330910903A9014F5F5F4FB6
:103430005093090340930803109277021092780288
:103440001092790210927A022130310599F03CF401
:10345000232BD1F49093700280936F0262C02230CC
:10346000310569F02330310579F490937602809329
:1034700075020EC0909372028093710252C09093B5
:103480007402809373024DC0443051050CF449C05E
:1034900040916F025091700288EE93E0489F900136
:1034A000499F300D589F300D112440917102509169
:1034B000720264E6649FC001659F900D1124820F23
:1034C000931F40917302509174026AE0649F9001CF
:1034D000659F300D1124820F931F2091750230914A
:1034E0007602820F931F2091000130910101821713
:1034F000930709F4B1C30E94990940E050E0BA0172
:103500008AE090E00E94B21068EE73E080E090E004
:103510000E94CF048FE00E94BF0310920903109213
:1035200008036BE071E0CE0101960E94BE026AEDD5
:1035300071E0CE0101960E949702882331F084E168
:103540000E948A0411E0892B09F010E0CE01019657
:103550000E94B602112371F06FEE71E0CE01019668
:103560000E94BE02CE0101960E949D0ACE010196E4
:103570000E94B6026BE071E0CE0101960E94BE028D
:103580006FEE71E0CE0101960E949702182FCE01D6
:1035900001960E94B602112309F473C00E94090526
:1035A000DC01CB01845F9140A109B10900910403C2
:1035B000109105032091060330910703081719079E
:1035C0002A073B0728F480E880934C040E943713B5
:1035D0000E940905DC01CB01885E9340A109B10975
:1035E0000091040310910503209106033091070315
:1035F000081719072A073B0780F50E940905609301
:10360000040370930503809306039093070344E635
:1036100050E060E070E080ED97E00E94B210809191
:103620006D0490916E04019790936E0480936D04E5
:103630006AE070E00E946C238B010E947C09F82EE6
:10364000C8010E947C092F2D482F6FE38FE30E9451
:103650009D1010924C040E94371380916D0490913C
:103660006E04892B71F464EF71E0CE0101960E9423
:10367000BE02CE0101960E949D0ACE0101960E94D3
:10368000B6020E94090500919502109196022091C0
:10369000970230919802DC01CB01801B910BA20BA9
:1036A000B30B00911F011091200120912101309155
:1036B0002201081719072A073B0708F0AEC081E16D
:1036C00092E00E94D70E0E940905609395027093C4
:1036D0009602809397029093980280E69AEEA0E07B
:1036E000B0E080931F0190932001A0932101B0933B
:1036F000220160E08EE00E9490031092BA031092C3
:10370000C40381E08093BB038091BE038D7F41F0B1
:1037100080917A008F7780937A0080B7806880BF2D
:1037200088EDC82E86EDD82EE12CF12C8091C103B6
:103730009091C203A0E0B0E08C159D05AE05BF05D9
:1037400008F046C08091C5038A3010F40E94E50E4F
:1037500083B7817F9091BE03892B83BF83B781603C
:1037600083BF8091BD03811106C0F89485B7806640
:1037700085BF8F7D85BF789488950FB6F894A895FE
:1037800080916000886180936000109260000FBE9D
:10379000A89583B78E7F83BF8091C1039091C203A8
:1037A000C81AD90AE108F1089091C4038091C303B3
:1037B000890F8D3730F0F1E0CF1AD108E108F10818
:1037C0008D578093C4038091BA03882309F4AECF48
:1037D0008091BC038823D9F02FB7F89480916B02B5
:1037E00090916C02A0916D02B0916E028852994244
:1037F000AF4FBF4F8C199D09AE09BF0980936B0273
:1038000090936C02A0936D02B0936E022FBF0E9442
:10381000FC0E61E08EE00E9490030E94A00186C829
:103820002B858C859D85211105C025969FAF8EAF78
:103830002597B9CA382F292F25963FAF2EAF259748
:10384000B2CA181302C00E94CB0E60E08DE10E9444
:10385000550E4DCB8091630481110AC080915804AC
:10386000E82E8A3110F069E1E62EF82EFE1803C02A
:10387000F12C59E1E52E0E94D40D81E60E94210928
:10388000809357040CE712E0EA943FEFE31639F017
:103890008FEF0E942109D8018D938D01F5CFFF2074
:1038A00009F4FACB8FEF0E942109FA94F8CF86E849
:1038B00092E00E94360E8BE891E00E94360EC09096
:1038C0000001D09001010D2C000CEE08FF08F7FE5E
:1038D00022C06DE281E193E00E943101222733276B
:1038E000A9012C193D094E095F0919A28E010F5D2E
:1038F0001F4FCA01B9012AE030E040E050E00E94C9
:103900003B23605DF80162938F012115310541056C
:10391000510579F717C0A701960119A28E010F5D15
:103920001F4FCA01B9012AE030E040E050E00E9498
:103930003B23605DD8016E938D0121153105410552
:10394000510579F7C8010E94360E8DE891E00E947A
:10395000360E66E872E0CE0101960E94BE0260E972
:1039600071E0CE0101960E949702182FCE010196B8
:103970000E94B60211110E94FD0D66E872E0CE01B0
:1039800001960E94BE0269E971E0CE0101960E9493
:103990009702182FCE0101960E94B602112309F456
:1039A000F3C060E972E0CE0101960E94BE0262EAB5
:1039B00071E0CE0101960E949702182FCE01019668
:1039C0000E94B602112371F00E94FD0D80E497E77A
:1039D000ABE1B0E080931F0190932001A0932101FF
:1039E000B093220160E972E0CE0101960E94BE020E
:1039F00065EA71E0CE0101960E949702182FCE0170
:103A000001960E94B602112381F00E94FD0D68EA22
:103A100071E0CE0101960E94BE02CE0101960E9485
:103A20009D0ACE0101960E94B60260E972E0CE01C5
:103A300001960E94BE0263EB71E0CE0101960E94E6
:103A40009702182FCE0101960E94B602112381F031
:103A50000E94FD0D66EB71E0CE0101960E94BE0250
:103A6000CE0101960E949D0ACE0101960E94B602E7
:103A700060E972E0CE0101960E94BE0262EC71E044
:103A8000CE0101960E949702182FCE0101960E9446
:103A9000B602112381F00E94FD0D66EC71E0CE01AB
:103AA00001960E94BE02CE0101960E949D0ACE019F
:103AB00001960E94B60260E972E0CE0101960E9472
:103AC000BE0266ED71E0CE0101960E949702182FAA
:103AD000CE0101960E94B602112381F00E94FD0DD5
:103AE0006AED71E0CE0101960E94BE02CE01019600
:103AF0000E949D0ACE0101960E94B60260E972E022
:103B0000CE0101960E94BE026BEE71E0CE010196DD
:103B10000E949702182FCE0101960E94B60211232F
:103B200081F00E94FD0D6FEE71E0CE0101960E94C2
:103B3000BE02CE0101960E949D0ACE0101960E940E
:103B4000B60260E972E0CE0101960E94BE026CEE00
:103B500071E0CE0101960E949702182FCE010196C6
:103B60000E94B602112381F00E94FD0D64EF71E006
:103B7000CE0101960E94BE02CE0101960E949D0ACE
:103B8000CE0101960E94B60266E872E0CE0101966F
:103B90000E94BE026EEF71E0CE0101960E94970274
:103BA000182FCE0101960E94B602112351F00E94F7
:103BB000FD0D80E992E00E94222090930101809304
:103BC000000166E872E0CE0101960E94BE0267E045
:103BD00072E0CE0101960E949702182FCE01019645
:103BE0000E94B602112309F470CA0E94FD0D80E9FB
:103BF00092E00E94222090933D0180933C0165CA8F
:103C000010E0CE01CD960E94B60292CA40FF1CC0C1
:103C1000E6ECF3E080E090E0448D411117C0E091C4
:103C20002604F0912704E20FF31F4081B89EF001B3
:103C3000B99EF00D1124EA53FC4F448F368F258F27
:103C400010A2178E0E940B0FC39486CB0196369656
:103C50008A30910509F7F8CF40E050E0BA0184EFCF
:103C600091E00E94B21064E670E080E090E00E9473
:103C7000CF048FE00E94BF0340E050E0BA0188EE1D
:103C800093E00E94B21064E670E080E090E00E9451
:103C9000CF048FE00E94BF036AED71E0CE01019670
:103CA0000E94BE02CE0101960E949D0ACE0101969D
:103CB0000E94B60236CC80913504909136040C9463
:103CC0004721109214031092130388EE93E0A0E0B2
:103CD000B0E08093150390931603A0931703B0935D
:103CE00018032CE431E0309312032093110325ECE8
:103CF00030E030931E0320931D0324EC30E030931A
:103D0000200320931F0320EC30E030932203209304
:103D1000210321EC30E0309324032093230322EC91
:103D200030E0309326032093250326EC30E03093D7
:103D300028032093270310922A0310922B0310923A
:103D40002C0310922D031092B1031092B0038093B4
:103D5000B2039093B303A093B403B093B5038EE57D
:103D600091E09093AF038093AE03EAEBF3E08CE035
:103D7000DF011D928A95E9F71092BA031092BB03F6
:103D800081E08093BC0392E09093BE0320E83EE381
:103D90003093C0032093BF0320E830E03093C20388
:103DA0002093C10393E09093C50320913C0130918F
:103DB0003D0130936E0420936D0499E0909351047B
:103DC0009AE09093520440E856E968E970E0409325
:103DD000530450935404609355047093560490E236
:103DE0009093580410925F041092600495E09093B1
:103DF00062048093630485E090E0A0E0B0E08093EB
:103E0000690490936A04A0936B04B0936C0489E7EF
:103E100094E09093500480934F041092590481E1F0
:103E200080934D0480E180934E0461E081E10E9423
:103E30004A0461E080914E040E944A0410923604C4
:103E40001092350480E48093380410923D0410925F
:103E50003E0410923F0410924004109241041092CC
:103E6000420410924304109244041092C80310922A
:103E7000CC031092CB031092CD0380E791E0909396
:103E8000C7038093C603E6ECF3E0148E10A2178EEE
:103E900011A23696B4E0E230FB07B9F788E291E070
:103EA000909329048093280484E291E090932B045A
:103EB00080932A0484E080932C0480932D048CE268
:103EC00091E090932704809326048AE090E09093F9
:103ED0002F0480932E0484EF91E09093310480931B
:103EE0003004109234041092330410922204109281
:103EF0002304109224041092250410923204089591
:103F00008F929F92AF92BF92CF92DF92EF92FF92E9
:103F1000CF93DF93EC01688179818A819B81611560
:103F200071058105910521F464E279ED8BE597E057
:103F30002DE133EF41E050E00E94D22249015A01C5
:103F40009B01AC01A7EAB1E40E94F1226B017C0164
:103F5000ACEEB4EFA50194010E94FF22DC01CB017D
:103F60008C0D9D1DAE1DBF1DB7FF03C00197A1099C
:103F7000B04888839983AA83BB83BC01CD019F7716
:103F8000DF91CF91FF90EF90DF90CF90BF90AF90F7
:103F90009F908F9008958F929F92AF92BF92CF92F1
:103FA000DF92EF92FF9260913E0170913F0180910C
:103FB000400190914101611571058105910521F440
:103FC00064E279ED8BE597E02DE133EF41E050E0DD
:103FD0000E94D22249015A019B01AC01A7EAB1E437
:103FE0000E94F1226B017C01ACEEB4EFA5019401BB
:103FF0000E94FF22DC01CB018C0D9D1DAE1DBF1D5B
:10400000B7FF03C00197A109B04880933E01909388
:104010003F01A0934001B0934101BC01CD019F77C6
:10402000FF90EF90DF90CF90BF90AF909F908F90D8
:10403000089560933E0170933F01809340019093F7
:1040400041010895FC0188279927E89421912032A5
:10405000E9F3293010F02E30C8F32B3241F02D3225
:1040600039F4689404C00E944020820F911D219170
:1040700020532A30C0F31EF4909581959F4F0895E8
:104080007AE0979F902D879F802D910D11240895A0
:104090000F931F93CF93DF93009731F46115710550
:1040A00019F480E090E03AC08B01EC016EE070E022
:1040B00081E090E00E949320FC01892B91F380E83D
:1040C00083830115110571F01387028781E88383CB
:1040D00080917E0490917F04892B21F4F0937F04DA
:1040E000E0937E042097C9F0D187C08783818260E6
:1040F00083838091800490918104892B71F4F093E3
:104100008104E09380048091820490918304892B40
:1041100021F4F0938304E0938204CF01DF91CF91E7
:104120001F910F9108950F931F93CF93DF93869F55
:104130008001879F100D969F100D1124C8010E94C9
:10414000AF20EC01009729F0A80160E070E00E9428
:10415000D021CE01DF91CF911F910F9108950F9340
:104160001F93CF93DF938230910510F482E090E0AB
:10417000E0918604F091870420E030E0A0E0B0E018
:10418000309719F1408151810281138148175907F5
:10419000C8F08417950769F4109731F012960C93C4
:1041A000129713961C9327C00093860410938704DC
:1041B00022C02115310519F04217530718F49A014E
:1041C000BD01EF01DF01F801DBCF21153105F9F069
:1041D000281B390B2430310580F48A819B816115BD
:1041E000710521F0FB019383828304C090938704BF
:1041F00080938604FE01329644C0FE01E20FF31F55
:104200008193919322503109398328833AC02091B8
:10421000840430918504232B41F420914401309192
:10422000450130938504209384042091420130910C
:1042300043012115310541F42DB73EB740914601A8
:1042400050914701241B350BE0918404F0918504C3
:10425000E217F307A0F42E1B3F0B2817390778F05D
:10426000AC014E5F5F4F2417350748F04E0F5F1FBC
:1042700050938504409384048193919302C0E0E0BD
:10428000F0E0CF01DF91CF911F910F910895CF936F
:10429000DF93009709F481C0FC01329713821282E8
:1042A000A0918604B0918704109781F42081318118
:1042B000820F931F209184043091850428173907B9
:1042C00051F5F0938504E093840467C0ED0120E08C
:1042D00030E0CE17DF0740F44A815B819E01411533
:1042E0005105F1F0EA01F5CFD383C28340815181BA
:1042F000840F951FC817D90759F488819981840FB5
:10430000951F0296918380838A819B819383828308
:104310002115310529F4F0938704E09386043DC00C
:10432000E901FB83EA8349915991C40FD51FEC172A
:10433000FD0761F480819181840F951F0296E90148
:1043400099838883828193819B838A83E0E0F0E074
:1043500012968D919C911397009719F0FD01DC0145
:10436000F7CF8D919C9111979D012E5F3F4F820F4A
:10437000931F20918404309185042817390769F42C
:10438000309729F4109287041092860402C0138299
:104390001282B0938504A0938404DF91CF91089595
:1043A000DC0101C06D9341505040E0F70895E8945E
:1043B00009C097FB3EF490958095709561957F4F6D
:1043C0008F4F9F4F9923A9F0F92F96E9BB2793951B
:1043D000F695879577956795B795F111F8CFFAF42B
:1043E000BB0F11F460FF1BC06F5F7F4F8F4F9F4F5C
:1043F00016C0882311F096E911C0772321F09EE8BA
:10440000872F762F05C0662371F096E8862F70E01F
:1044100060E02AF09A95660F771F881FDAF7880FF9
:104420009695879597F908950E9427220C949822D3
:104430000E948A2238F00E94912220F0952311F0E8
:104440000C9481220C94872211240C94CC220E947B
:10445000A92270F3959FC1F3950F50E0551F629FFD
:10446000F001729FBB27F00DB11D639FAA27F00DCD
:10447000B11DAA1F649F6627B00DA11D661F829FF4
:104480002227B00DA11D621F739FB00DA11D621FD9
:10449000839FA00D611D221F749F3327A00D611DF6
:1044A000231F849F600D211D822F762F6A2F1124D8
:1044B0009F5750409AF0F1F088234AF0EE0FFF1F0B
:1044C000BB1F661F771F881F91505040A9F79E3F62
:1044D000510580F00C9481220C94CC225F3FE4F3D0
:1044E000983ED4F3869577956795B795F795E795B8
:1044F0009F5FC1F7FE2B880F911D9695879597F9C1
:10450000089597F99F6780E870E060E008959FEF55
:1045100080EC089500240A9416161706180609065A
:10452000089500240A941216130614060506089529
:10453000092E0394000C11F4882352F0BB0F40F4B1
:10454000BF2B11F460FF04C06F5F7F4F8F4F9F4FF1
:10455000089557FD9058440F551F59F05F3F71F073
:104560004795880F97FB991F61F09F3F79F08795DA
:104570000895121613061406551FF2CF4695F1DF63
:1045800008C0161617061806991FF1CF86957105F3
:10459000610508940895E894BB2766277727CB0127
:1045A00097F90895052E97FB1EF400940E94E922C6
:1045B00057FD07D00E943B2307FC03D04EF40C9418
:1045C000E92250954095309521953F4F4F4F5F4FD1
:1045D000089590958095709561957F4F8F4F9F4F6F
:1045E00008950E945D23A59F900DB49F900DA49FF8
:1045F000800D911D11240895B7FF0C94F1220E94A3
:10460000F122821B930B08952F923F924F925F925B
:104610006F927F928F929F92AF92BF92CF92DF92D2
:10462000EF92FF920F931F93CF93DF93CDB7DEB737
:10463000CA1BDB0B0FB6F894DEBF0FBECDBF0994CB
:104640002A88398848885F846E847D848C849B8422
:10465000AA84B984C884DF80EE80FD800C811B8130
:10466000AA81B981CE0FD11D0FB6F894DEBF0FBE5F
:10467000CDBFED010895A1E21A2EAA1BBB1BFD01BF
:104680000DC0AA1FBB1FEE1FFF1FA217B307E40731
:10469000F50720F0A21BB30BE40BF50B661F771F89
:1046A000881F991F1A9469F7609570958095909569
:1046B0009B01AC01BD01CF010895A29FB001B39F42
:1046C000C001A39F700D811D1124911DB29F700D1B
:1046D000811D1124911D089597FB072E16F4009457
:1046E00007D077FD09D00E94862307FC05D03EF451
:1046F000909581959F4F0895709561957F4F08958E
:10470000EE0FFF1F0590F491E02D0994AA1BBB1B2F
:1047100051E107C0AA1FBB1FA617B70710F0A61BC1
:10472000B70B881F991F5A95A9F780959095BC01E2
:10473000CD010895A0E0B0E0E0EAF3E20C94082394
:10474000EC01009721F4CB010E94AF20B4C0FC0122
:10475000E60FF71F9C0122503109E217F30708F416
:10476000A8C0D9010D911C91119706171707B0F039
:104770000530110508F49BC0C801049786179707F8
:1047800008F495C002501109061B170B01931193F1
:104790006D937C93CF010E94472189C05B01A01AD1
:1047A000B10A4C01800E911EA0918604B09187043D
:1047B000612C712CE12CF12C109709F446C08D91DD
:1047C0009C911197A815B905B1F56C0142E0C40E92
:1047D000D11CCA14DB0478F14C018A189B086401CF
:1047E00042E0C40ED11C1296BC9012971396AC9165
:1047F000B5E0CB16D10440F0B282A38391828082CF
:10480000D9016D937C9309C00E5F1F4F800F911FDC
:10481000F90191838083EB2DFA2FE114F10431F03B
:10482000D7011396FC93EE93129741C0F09387043F
:10483000E09386043CC06816790608F43C017D01CB
:1048400012960D90BC91A02DB7CF809184049091C9
:10485000850488169906E1F466167706C8F48091F7
:10486000420190914301009741F48DB79EB740916A
:10487000460150914701841B950BE817F907C8F4CE
:10488000F0938504E0938404F901718360830FC081
:10489000CB010E94AF207C01009759F0A801BE0116
:1048A0000E946524CE010E944721C70104C0CE01A9
:1048B00002C080E090E0CDB7DEB7EEE00C94242398
:1048C00081E090E0F8940C947E24FB01DC0102C0AE
:1048D00001900D9241505040D8F70895FB01DC0142
:1048E0008D91019080190110D9F3990B0895FB0166
:1048F000DC0101900D920020E1F7089510E0C3E77C
:10490000D0E004C0FE010E9480232196C437D10765
:06491000C9F7F894FFCF87
:10491600D204426F6D62610000000044696E616DF1
:104926006F5F4F6666000000000000000000006038
:10493600EA0000FF05040302060708093134372A96
:1049460032353830333639234142434414000100AE
:1049560000000000880420000000000031019E00D5
:10496600C8007E01F900D700EB00000000005602E7
:1049760029028602FD0121020D02FE01000000004F
:10498600860446048D035449434B005449434B5F08
:104996003200546F5F426F6D62610020000D0A00A5
:1049A6004765745F496E666F005365745F53746143
:1049B6007400575500444F0044696E616D6F5F4F38
:1049C60066660057470057686169745F4761796B8F
:1049D600610057434500576169745F436F64655FC3
:1049E600456E7465720057545300576169745F547D
:1049F600696D65725F537461727400575445005750
:104A06006169745F54696D65725F456E64005365D4
:104A1600745F50617373005365745F54696D65729A
:084A260000504F5745520000FB
:00000001FF
