:100000000C944D010C9475010C9475010C947501C0
:100010000C9475010C9475010C947B060C940B05E3
:100020000C9475010C9475010C9475010C94750178
:100030000C9475010C9475010C9475010C94750168
:100040000C9431060C9475010C9453040C942D04FB
:100050000C9475010C9475010C9475010C94750148
:100060000C9475010C9475010709F6080909F80844
:10007000FA08FC08FE080009020904093D20504165
:100080005F4D4158003D2050415F48494748003D81
:100090002050415F4C4F57003D2050415F4D494E2D
:1000A000003D2031362062697473003D20382062A3
:1000B000697473003D2044697361626C6564006E0D
:1000C000524632344C30312B006E524632344C3072
:1000D00031003D20323530204B425053003D20321C
:1000E000204D425053003D2031204D42505300538B
:1000F000544154555309093D203078253032782039
:1001000052585F44523D25782054585F44533D2552
:1001100078204D41585F52543D25782052585F5009
:100120005F4E4F3D25782054585F46554C4C3D2539
:10013000780D0A0041524309093D2025640D0A004B
:10014000504120506F7765720925530D0A009800C1
:100150008F0085007C00435243204C656E677468B5
:100160000925530D0A00B400AB00A1004D6F646572
:100170006C09093D2025530D0A00C900BF004461E8
:10018000746120526174650925530D0A00E600DD93
:1001900000D20044594E50442F46454154555245D3
:1001A00000434F4E464947090052465F5345545558
:1001B000500052465F43480900454E5F5258414443
:1001C000445200454E5F4141090052585F50575F0D
:1001D00050302D360054585F414444520900525863
:1001E0005F414444525F50322D350052585F4144C4
:1001F00044525F50302D3100535049205370656593
:10020000647A093D202564204D687A0A002D000A91
:100210000B0C0D0E0F00000000230026002900002B
:1002200000000800020100000304070000000000B5
:1002300000000000000000240027002A0000010246
:100240000304050102040810204080010204081084
:100250002001020408102000000000250028002BC7
:10026000000404040404040404020202020202035F
:100270000303030303020D0A002530327800203007
:1002800078002553093D000D0A00203078253032D2
:1002900078002553093D0000191F11241FBECFEF20
:1002A000D8E0DEBFCDBF12E0A0E0B1E0E8EFF0E5BE
:1002B00002C005900D92AC35B107D9F725E0ACE549
:1002C000B2E001C01D92A030B207E1F711E0CDE429
:1002D000D1E004C02197FE010E946227CC34D107EF
:1002E000C9F70E945E150C947A280C9400000895BA
:1002F000CF92DF92EF92FF920F931F93CF93DF93F2
:100300006C017A018B01C0E0D0E0CE15DF0581F0F1
:10031000D8016D918D01D601ED91FC910190F08194
:10032000E02DC6010995892B11F02196EECF7E01B3
:10033000C701DF91CF911F910F91FF90EF90DF9058
:10034000CF90089580E090E00895FC01538D448D96
:10035000252F30E0842F90E0821B930B541710F070
:10036000CF96089501970895FC01918D828D98177D
:1003700061F0828DDF01A80FB11D5D968C91928D89
:100380009F5F9F73928F90E008958FEF9FEF089586
:10039000FC01918D828D981731F0828DE80FF11D4F
:1003A000858D90E008958FEF9FEF0895FC01918D6A
:1003B000228D892F90E0805C9F4F821B91098F7363
:1003C0009927089589EA93E00E94D60121E0892BBC
:1003D00009F420E0822F0895FC01848DDF01A80F2D
:1003E000B11DA35ABF4F2C91848D90E001968F735D
:1003F0009927848FA689B7892C93A089B1898C917C
:10040000837080648C93938D848D981306C00288CA
:10041000F389E02D80818F7D80830895EF92FF9294
:100420000F931F93CF93DF93EC0181E0888F9B8D17
:100430008C8D981305C0E889F989808185FD26C0D7
:10044000F62E0B8D10E00F5F1F4F0F731127E02E5C
:100450008C8DE8120CC00FB607FCFACFE889F98939
:10046000808185FFF5CFCE010E94EC01F1CF8B8D0D
:10047000FE01E80FF11DE35AFF4FF0829FB7F89499
:100480000B8FEA89FB89808180620AC09FB7F8944C
:10049000EE89FF896083E889F989808183708064AF
:1004A00080839FBF81E090E0DF91CF911F910F91FA
:1004B000FF90EF900895CF93DF93EC01888D882310
:1004C000C9F0EA89FB89808185FD05C0A889B989C1
:1004D0008C9186FD0FC00FB607FCF5CF808185FF9C
:1004E000F2CFA889B9898C9185FFEDCFCE010E940A
:1004F000EC01E7CFDF91CF91089580E090E0892B68
:1005000029F00E94E20181110C94000008958330CB
:1005100081F028F4813099F08230A1F0089587307D
:10052000A9F08830B9F08430D1F4809180008F7DBB
:1005300003C0809180008F7780938000089584B5F8
:100540008F7702C084B58F7D84BD08958091B000FF
:100550008F7703C08091B0008F7D8093B0000895A5
:10056000CF93C82F682F89EA93E00E940E028C2F48
:10057000CC0F990BCF9108950E9442280F931F939F
:10058000CF93DF93EC0188819981009729F02A812C
:100590003B812617370788F48B016F5F7F4F0E94DE
:1005A0007C27009761F0998388831B830A832C81C1
:1005B0003D81232B11F4FC01108281E001C080E019
:1005C000DF91CF911F910F910895FC012481358116
:1005D000232B31F421E061157105A1F0FB0108C066
:1005E000FC01808191816115710531F421E0FC01EC
:1005F0008081882339F005C00E94502821E0892B92
:1006000009F020E0822F0895EF92FF920F931F933D
:10061000CF93DF936115710511F480E01CC0411583
:100620005105C1F07B01EC018C819D818A01080F8D
:10063000191FB801CE010E94BE02882371F32881E0
:1006400039818C819D81B701820F931F0E945928A7
:100650001D830C8381E0DF91CF911F910F91FF905B
:10066000EF9008950F931F93CF93DF938C01EB01CD
:10067000FC0180819181009739F068817981611551
:100680007105A1F40E94DE2388819981F80191838C
:1006900080838A819B81938382838C819D819583D2
:1006A0008483198218821B821A820FC0F80142814A
:1006B00053812C813D814217530720F30E94592812
:1006C0008C819D81F801958384831D821C82DF913A
:1006D000CF911F910F910895CF93DF93EC01888103
:1006E0009981009711F00E94DE23198218821D82E1
:1006F0001C821B821A82DF91CF910895CF93DF93E2
:10070000EC016115710561F0FB0101900020E9F732
:100710003197AF01461B570B0E940403811103C0A0
:10072000CE010E946C03CE01DF91CF910895EF922C
:10073000FF920F931F93CF93DF93EC017B018A010C
:10074000BA010E94BE02811104C0CE010E946C0356
:1007500007C01D830C83B701888199810E945928A5
:10076000CE01DF91CF911F910F91FF90EF900895EF
:10077000FC0180819181009711F00C94DE23089593
:1007800081E692E00C94B803FC011182108213827E
:100790001282158214826115710551F0FB010190DE
:1007A0000020E9F73197AF01461B570B0C949703D4
:1007B0000895BF92CF92DF92EF92FF920F931F9313
:1007C000CF93DF937C016B01EA0189012417350780
:1007D00020F48D2FE901042F182F6BE572E0C7017B
:1007E0000E94C403D60114968D919C911597C81749
:1007F000D90740F58017910708F48C01D601ED91D7
:10080000FC911197E00FF11FB08010826D917C91E7
:100810006C0F7D1F6115710561F0FB0101900020D7
:10082000E9F73197AF01461B570BC7010E949703A9
:1008300003C0C7010E946C03D601ED91FC91E00F4B
:10084000F11FB082C701DF91CF911F910F91FF90EF
:10085000EF90DF90CF90BF9008951F920F920FB648
:100860000F9211242F933F934F935F936F937F9336
:100870008F939F93AF93BF93EF93FF9389EA93E096
:100880000E94EC01FF91EF91BF91AF919F918F91E9
:100890007F916F915F914F913F912F910F900FBE7C
:1008A0000F901F9018951F920F920FB60F92112460
:1008B0002F938F939F93EF93FF93E091B903F09160
:1008C000BA038081E091BF03F091C00382FD12C0A2
:1008D00090818091C2038F5F8F732091C303821731
:1008E00051F0E091C203F0E0E755FC4F958F809303
:1008F000C20301C08081FF91EF919F918F912F9151
:100900000F900FBE0F901F901895CF93DF93282F55
:1009100030E0F901E15EFD4F8491F901ED5BFD4F9F
:10092000D491F901EF59FD4FC491CC2391F081117D
:100930000E948702EC2FF0E0EE0FFF1FEB5EFD4FF1
:10094000A591B491EC91ED2381E090E021F480E059
:1009500002C080E090E0DF91CF910895862F0C9443
:1009600085041F93CF93DF93282F30E0F901E15ED8
:10097000FD4F8491F901ED5BFD4FD491F901EF59E1
:10098000FD4FC491CC23C1F0162F81110E94870224
:10099000EC2FF0E0EE0FFF1FE95AFD4FA591B49147
:1009A0009FB7F894111104C08C91D095D82302C040
:1009B000EC91DE2BDC939FBFDF91CF911F910895C7
:1009C00090912401891324C0E5E7F2E0E4919FEFC0
:1009D00090932401E130B9F098F0E230C9F490919D
:1009E00070009D7F9093700091E09093B000909183
:1009F000B100987F94609093B1001092B30008C04A
:100A000010926E0005C090916F009D7F90936F00D3
:100A100060E00C94B1041F920F920FB60F92112454
:100A20002F933F934F935F936F937F938F939F93F6
:100A3000AF93BF93EF93FF938091A5039091A6038B
:100A4000A091A703B091A803892B8A2B8B2B51F17E
:100A50009091A203E091A303F091A40380818927E0
:100A600080838091A5039091A603A091A703B091E4
:100A7000A803181619061A061B06C4F48091A503CC
:100A80009091A603A091A703B091A8030197A10993
:100A9000B1098093A5039093A603A093A703B093F5
:100AA000A80304C0809124010E94E004FF91EF910B
:100AB000BF91AF919F918F917F916F915F914F9176
:100AC0003F912F910F900FBE0F901F901895862F7A
:100AD000642F0C94B104CF93DF9390E0FC01ED5BA5
:100AE000FD4F2491FC01EF59FD4F8491882361F162
:100AF00090E0880F991FFC01ED5CFD4FC591D491EA
:100B0000FC01E95AFD4FA591B491611109C09FB74D
:100B1000F8948881209582238883EC912E230BC042
:100B2000623061F49FB7F8948881322F3095832327
:100B30008883EC912E2B2C939FBF06C08FB7F8941F
:100B4000E8812E2B28838FBFDF91CF910895862FC8
:100B5000642F0C946B058E3008F08E5020910001AC
:100B600090E4299F900111248770822B80937C0050
:100B700080917A00806480937A0080917A0086FD6B
:100B8000FCCF809178009091790008953FB7F89458
:100B90008091930390919403A0919503B091960353
:100BA00026B5A89B05C02F3F19F00196A11DB11DC8
:100BB0003FBFBA2FA92F982F8827820F911DA11D03
:100BC000B11DBC01CD0142E0660F771F881F991F40
:100BD0004A95D1F708958F929F92AF92BF92CF928C
:100BE000DF92EF92FF926B017C010E94C6054B01E0
:100BF0005C01C114D104E104F104F1F00E94C605C6
:100C0000DC01CB0188199909AA09BB09883E9340E8
:100C1000A105B10570F321E0C21AD108E108F1087D
:100C200088EE880E83E0981EA11CB11CC114D1046B
:100C3000E104F10419F7DDCFFF90EF90DF90CF9042
:100C4000BF90AF909F908F9008952FB7F8946091C8
:100C50005D0270915E0280915F02909160022FBFF1
:100C600008951F920F920FB60F9211242F933F9366
:100C70008F939F93AF93BF9380915D0290915E029B
:100C8000A0915F02B09160023091920323E0230FA4
:100C90002D3720F40196A11DB11D05C026E8230FB4
:100CA0000296A11DB11D2093920380935D02909343
:100CB0005E02A0935F02B0936002809193039091D3
:100CC0009403A0919503B09196030196A11DB11DC7
:100CD0008093930390939403A0939503B09396030A
:100CE000BF91AF919F918F913F912F910F900FBE28
:100CF0000F901F9018951F920F920FB60F9211240C
:100D00008F9381E080935C028F910F900FBE0F90C4
:100D10001F9018958EBD00000DB407FEFDCF8EB557
:100D20000895CF92DF92EF92FF920F931F93CF938C
:100D3000DF93CDB7DEB72E970FB6F894DEBF0FBEA8
:100D4000CDBF0E94720A0E94250A64E685E00E94D7
:100D5000FE120E94530A86E00E942513682F6760E6
:100D600086E00E94FE128091DD04811115C08DE1A4
:100D70000E942513682F66608DE10E94FE128CE1AF
:100D80000E942513682F63608CE10E94FE1281E0AF
:100D90008093DF048093DD0481E189838DED8A8374
:100DA0008CEC8B838BEB8C838AEA8D831E821F8273
:100DB0001886E0E1F2E084914091DE04BE016F5FAD
:100DC0007F4F0E94020A82E00E942513EEE3F2E0C8
:100DD000E49161E070E001C0660FEA95EAF7682BE4
:100DE00082E00E94FE120E94340A0E94531362E3C2
:100DF00070E080E090E00E94EB058FEF0E94F1121E
:100E00008091D30490E0959587958770863070F136
:100E100019C00E94C51260E487E00E94FE1269E7D3
:100E200073E0CE0109960E94C40364E172E0CE0132
:100E300009960E94E502182FCE0109960E94B80378
:100E400011113EC081E00E9437130E941A132E96A2
:100E50000FB6F894DEBF0FBECDBFDF91CF911F91CB
:100E60000F91FF90EF90DF90CF9008958091DF0475
:100E7000811108C01091D404012F1A3108F009E142
:100E8000101B02C010E009E10E94C81281E60E9416
:100E90008A068093D30439E7E32E33E0F32E015022
:100EA00038F08FEF0E948A06F70181937F01F7CF18
:100EB000112309F4AECF8FEF0E948A061150F8CFAC
:100EC00083E893E00E948C138DE192E00E948C13E2
:100ED000C0900101D09002010D2C000CEE08FF081B
:100EE000F7FE0EC06DE289EA93E00E940E026627CB
:100EF0007727CB016C197D098E099F094AE003C051
:100F00004AE0C701B6010E94A2130E949E1363E843
:100F100073E0CE0109960E94C4036FE172E0CE0136
:100F200009960E94E502182FCE0109960E94B80387
:100F300011110E94531363E873E0CE0109960E94D9
:100F4000C40368E272E0CE0109960E94E502182F00
:100F5000CE0109960E94B803112309F403C16DE87C
:100F600073E0CE0109960E94C40361E372E0CE01F2
:100F700009960E94E502182FCE0109960E94B80337
:100F80001123F1F00E9453130E942506DC01CB01CE
:100F9000880F991FAA1FBB1F80939D0390939E03E8
:100FA000A0939F03B093A00380E497E7ABE1B0E088
:100FB0008093030190930401A0930501B09306016F
:100FC0006DE873E0CE0109960E94C40364E372E009
:100FD000CE0109960E94E502182FCE0109960E94C3
:100FE000B803112381F00E94531361E771E0CE0131
:100FF00009960E94C403CE0109960E94960BCE0169
:1010000009960E94B8036DE873E0CE0109960E942C
:10101000C40367E372E0CE0109960E94E502182F2F
:10102000CE0109960E94B803112381F00E94531348
:1010300065E671E0CE0109960E94C403CE010996CF
:101040000E94960BCE0109960E94B8036DE873E0EA
:10105000CE0109960E94C4036AE372E0CE010996AC
:101060000E94E502182FCE0109960E94B8031123B1
:1010700081F00E9453136CE771E0CE0109960E9443
:10108000C403CE0109960E94960BCE0109960E94D8
:10109000B8036DE873E0CE0109960E94C4036EE3C5
:1010A00072E0CE0109960E94E502182FCE01099642
:1010B0000E94B803112381F00E9453136CE871E081
:1010C000CE0109960E94C403CE0109960E94960B98
:1010D000CE0109960E94B8036DE873E0CE0109962F
:1010E0000E94C40362E472E0CE0109960E94E50208
:1010F000182FCE0109960E94B803112381F00E9497
:1011000053136DE971E0CE0109960E94C403CE012C
:1011100009960E94960BCE0109960E94B8036DE8CD
:1011200073E0CE0109960E94C40363E472E0CE012D
:1011300009960E94E502182FCE0109960E94B80375
:10114000112381F00E94531362EA71E0CE010996E7
:101150000E94C403CE0109960E94960BCE01099607
:101160000E94B80363E873E0CE0109960E94C403AD
:1011700066E472E0CE0109960E94E502182FCE01C6
:1011800009960E94B803112351F00E9453138DE871
:1011900093E00E94B220909302018093010163E8E2
:1011A00073E0CE0109960E94C4036FE472E0CE01A1
:1011B00009960E94E502182FCE0109960E94B803F5
:1011C000112309F43FCE0E9453138DE893E00E944F
:1011D000B22090933E0180933D0134CE8A30910538
:1011E000A8F4FC01EC5CFF4F0C94622786E00895A4
:1011F0008FE4089586E608958DE608958DE70895B5
:1012000087E008958FE708958FE6089508958FE3A6
:1012100008958BE508950F931F93CF93DF930E945A
:101220002506DC01CB01880F991FAA1FBB1F009167
:101230006F02109170022091710230917202801B36
:10124000910BA20BB30B853F9140A105B10508F4AA
:10125000C8C00E942506DC01CB01880F991FAA1F78
:10126000BB1F80936F0290937002A0937102B093A2
:1012700072022091780380919B0390919C0322231A
:1012800009F444C0109278038230910579F17CF41E
:10129000009739F1019709F0A4C0809167029091FD
:1012A00068020E94EE0820E040E068E094C08330CD
:1012B000910509F044C080916B0290916C020E94EC
:1012C000EE08D82F8091690290916A020E94EE0880
:1012D000C82F80916702909168020E94EE0828E072
:1012E00078C020E040E060E088E075C0809169024D
:1012F00090916A020E94EE08C82F80916702909137
:1013000068020E94EE0820E048E064C021E02093DB
:10131000780382309105C1F17CF4009781F1019747
:1013200009F05FC080916702909168020E94EE0808
:1013300020E040E060E04FC083309105A9F10497C0
:1013400009F04FC080916D0290916E020E94EE08EC
:10135000182F80916B0290916C020E94EE08D82F9A
:101360008091690290916A020E94EE08C82F8091D4
:101370006702909168020E94EE08212F2AC020E0A7
:1013800040E060E080E027C08091690290916A02AD
:101390000E94EE08C82F80916702909168020E9417
:1013A000EE0820E040E016C080916B0290916C0244
:1013B0000E94EE08D82F8091690290916A020E94E3
:1013C000EE08C82F80916702909168020E94EE0893
:1013D00020E04D2F6C2FDF91CF911F910F910C9436
:1013E0001310DF91CF911F910F9108950E94C812A1
:1013F00080E50E948A068093D30483E70E948A06D0
:101400000C94C512FF920F931F93CF93DF93182F65
:10141000F62ED72FC42F0E94C812812F80620E94FF
:101420008A068093D3040F2D1D2FCC2339F0F801A9
:1014300081918F010E948A06C150F7CFDF91CF9131
:101440001F910F91FF900C94C5126091DA0461FD19
:101450000AC062606093DA0480E00E94FE128BE1B1
:101460009EE40197F1F708950E94250A6091DA043D
:1014700061606093DA0480E00E94FE1260E787E01A
:101480000E94FE1281E00E9411138091DC048823E7
:1014900039F04091DE0465ED74E08AE00C94020AB4
:1014A00080E00C943713CF9386E00E942513C82F59
:1014B000C77D85E590E0A0E0B0E08093E1049093E3
:1014C000E204A093E304B093E4046C2F86E00E944E
:1014D000FE1286E00E94251391E0C81390E0892F48
:1014E000CF910895CF93CFB7F8948091A103811144
:1014F00027C0EBE6F2E08491EDE4F2E09491E82F6E
:10150000F0E0EE0FFF1FED5CFD4FA591B491EC9163
:10151000E92321F461E08AE00E94B10461E08AE0FD
:101520000E946B058CB580618CBD8CB580648CBDD0
:1015300061E08DE00E946B0561E08BE00E946B052D
:101540008091A1038F5F8093A103CFBF8091CD04D1
:101550008F3F09F471C09091CE049F3F09F46CC095
:10156000891741F061E00E946B0561E08091CE0433
:101570000E946B0580E00E94111381E00E94B1126D
:1015800065E070E080E090E00E94EB056FE584E0AC
:101590000E94FE120E94530A8DE10E942513C82F5B
:1015A0000E94F6098DE10E94251391E0C81390E096
:1015B0009093DB04811142C01092DD0460E08CE165
:1015C0000E94FE121092DF046FE381E00E94FE127F
:1015D00063E082E00E94FE1280E28093D404C1E1C5
:1015E0006091D4048C2F0E94FE12CF5FC731C1F7E7
:1015F00063E083E00E94FE1285E08093DE046CE4E9
:101600000E94FE1260E787E00E94FE1282EE0E94B6
:10161000F11281EE0E94F1126CE080E00E94FE1255
:1016200080E00E9425138093DA040E94250A81E05D
:101630009091DA049E3059F080E009C0C81302C0CE
:101640000E94F60960E08DE10E94FE12B5CFCF91B5
:10165000089583FD02C098E001C098E28770982B3E
:1016600088E10FB6F894A895809360000FBE909320
:10167000600080916000806480936000A895089568
:10168000CF93DF93FC01448155816081718189EAA8
:1016900093E00E947801EC010E949E138C0F9D1F25
:1016A000DF91CF91089580E00E9411138091E104B1
:1016B0009091E2048230910538F0880F991F880FCD
:1016C000991F05970197F1F78091DD04882319F0A0
:1016D00081EE0E94F1126091DA046E7F6093DA0469
:1016E00080E00E94FE1282E00E942513EDE3F2E00A
:1016F000E49161E070E001C0660FEA95EAF7682BBB
:1017000082E00C94FE1260E081E00E94FE12809163
:10171000DD04882351F08DE10E942513682F6D7F31
:101720008DE10E94FE121092DD0408954F925F92A7
:101730006F927F929F92AF92BF92CF92DF92EF9281
:10174000FF920F931F93CF93DF9300D000D000D070
:10175000CDB7DEB78C010E942506DC01CB01880FD6
:10176000991FAA1FBB1F80939D0390939E03A09374
:101770009F03B093A00380E497E7ABE1B0E08093D0
:10178000030190930401A0930501B093060160E169
:1017900071E0CE0101960E94C4032D813E81F801C3
:1017A000848195812817390721F589819A81608183
:1017B0007181009719F061157105A9F46115710522
:1017C00051F02115310539F0FB01808190E09195B0
:1017D000819591090AC0009771F0232B61F0FC01FB
:1017E000808190E002C00E945028FF24F394892B4E
:1017F00021F0F12C02C0FF24F394CE0101960E9447
:10180000B803F110FDC261E771E0C8010E94E50272
:10181000882369F00E949A121092C8040E94AD12A7
:1018200061E771E080E191E00E945928C4C265E659
:1018300071E0C8010E94E502882369F065E671E065
:1018400080E191E00E9459280E949A121092C804E7
:101850000E94AD12B0C26CE771E0C8010E94E502BF
:10186000882309F4FDC16CE771E080E191E00E94FA
:1018700059280E949A1264E670E080E090E00E948D
:10188000EB0520E041E060E080E00E94131062E39D
:1018900070E080E090E00E94EB054FE050E060E0F7
:1018A00070E084E690E00E94281021E041E060E0D2
:1018B00080E00E94131062E370E080E090E00E94FC
:1018C000EB054FE050E060E070E084E690E00E94BD
:1018D000281023E041E060E080E00E94131062E302
:1018E00070E080E090E00E94EB054FE050E060E0A7
:1018F00070E084E690E00E94281027E041E060E07C
:1019000080E00E94131062E370E080E090E00E94AB
:10191000EB054FE050E060E070E084E690E00E946C
:1019200028102FE041E060E080E00E94131062E3A5
:1019300070E080E090E00E94EB054FE050E060E056
:1019400070E084E690E00E9428102FE049E060E01B
:1019500080E00E94131062E370E080E090E00E945B
:10196000EB054FE050E060E070E084E690E00E941C
:1019700028102FE049E068E080E00E94131062E345
:1019800070E080E090E00E94EB054FE050E060E006
:1019900070E084E690E00E9428102FE049E068E0C3
:1019A00088E00E94131062E370E080E090E00E9403
:1019B000EB054FE050E060E070E084E690E00E94CC
:1019C00028102FE049E068E088E10E94131062E3EC
:1019D00070E080E090E00E94EB054FE050E060E0B6
:1019E00070E084E690E00E9428102FE049E068E073
:1019F00088E30E94131062E370E080E090E00E94B0
:101A0000EB054FE050E060E070E084E690E00E947B
:101A100028102FE049E068E089E30E94131062E398
:101A200070E080E090E00E94EB054FE050E060E065
:101A300070E084E690E00E9428102FE049E069E021
:101A400089E30E94131062E370E080E090E00E945E
:101A5000EB054FE050E060E070E084E690E00E942B
:101A600028102FE048E069E089E30E94131062E348
:101A700070E080E090E00E94EB054FE050E060E015
:101A800070E084E690E00E9428102EE048E069E0D3
:101A900089E30E94131062E370E080E090E00E940E
:101AA000EB054FE050E060E070E084E690E00E94DB
:101AB00028102CE048E069E089E30E94131062E3FB
:101AC00070E080E090E00E94EB054FE050E060E0C5
:101AD00070E084E690E00E94281028E048E069E089
:101AE00089E30E94131062E370E080E090E00E94BE
:101AF000EB054FE050E060E070E084E690E00E948B
:101B0000281020E048E069E089E30E94131062E3B6
:101B100070E080E090E00E94EB054FE050E060E074
:101B200070E084E690E00E94281020E040E069E048
:101B300089E30E94131062E370E080E090E00E946D
:101B4000EB054FE050E060E070E084E690E00E943A
:101B5000281020E040E061E089E30E94131062E376
:101B600070E080E090E00E94EB054FE050E060E024
:101B700070E084E690E00E94281020E040E061E000
:101B800081E30E94131062E370E080E090E00E9425
:101B9000EB054FE050E060E070E084E690E00E94EA
:101BA000281020E040E061E081E20E94131062E32F
:101BB00070E080E090E00E94EB054FE050E060E0D4
:101BC00070E084E690E00E94281020E040E061E0B0
:101BD00081E00E94131062E370E080E090E00E94D8
:101BE000EB054FE050E060E070E084E690E00E949A
:101BF000281020E040E061E080E00E94131062E3E2
:101C000070E080E090E00E94EB054FE050E060E083
:101C100070E084E690E00E94281020E040E060E060
:101C200080E00E94131062E370E080E090E00E9488
:101C3000EB054FE050E060E070E084E690E00E9449
:101C400028100E949A124FE050E060E070E080EDB2
:101C500097E00E94281010929C0310929B03ABC047
:101C60006CE871E0C8010E94E502882309F47EC097
:101C70006CE871E080E191E00E94592880E880934F
:101C8000C8040E94AD1263E6E62EF12C7AE0A72E7E
:101C9000B12CE0ED4E2EE7E05E2E612C712CC701D9
:101CA000B5010E944E276B010E94EE08982EC601D6
:101CB0000E94EE082FE64FE6692D0E9413100E9445
:101CC0005B20A30192010E943D26CB018C509E4FC8
:101CD00041E050E060E070E00E94281065E070E0B4
:101CE00080E090E00E94EB05F1E0EF1AF108B9F610
:101CF00033E6E32EF12C4AE0A42EB12C50ED452E14
:101D000057E0552E612C712C80913D0190913E0140
:101D1000E816F9060CF44FC0C701B5010E944E2722
:101D20006B010E94EE08982EC6010E94EE08292D34
:101D3000482F6FE38FE30E9413100E945B20A301E2
:101D400092010E943D26CB018C509E4F41E050E015
:101D500060E070E00E94281065E070E080E090E0B4
:101D60000E94EB0581E0E81AF108CECF6DE971E041
:101D7000C8010E94E5028823F1F06DE971E080E17D
:101D800091E00E9459280E942506DC01CB01880FB2
:101D9000991FAA1FBB1F8093970390939803A0934A
:101DA0009903B0939A0380913D0190913E019093E5
:101DB000EA048093E90462EA71E0C8010E94E50246
:101DC0008823F1F062EA71E080E191E00E945928F5
:101DD0000E94910640E050E0BA0180ED97E00E9439
:101DE000281064EF71E080E090E00E94EB058FE046
:101DF0000E94E0040E949A121092C8040E94AD1240
:101E000026960FB6F894DEBF0FBECDBFDF91CF91FF
:101E10001F910F91FF90EF90DF90CF90BF90AF9008
:101E20009F907F906F905F904F900895CF93DF9336
:101E3000C1ECD4E060E088850E94B10460E089854F
:101E40000E94B10461E088850E94B10461E0898547
:101E5000DF91CF910C94B104CF93DF93C1ECD4E028
:101E600061E088850E94B10461E089850E94B10427
:101E700060E089850E94B10460E08885DF91CF91A0
:101E80000C94B1040F931F93CF93DF93D82FC8E026
:101E900060E08091C9040E94B104D0FF02C061E0FB
:101EA00001C060E08091CA040E94B104D59561E050
:101EB0008091C9040E94B104C15051F760E0809143
:101EC000C9040E94B10461E08091CA040E94B10477
:101ED00061E08091C9040E94B10460E08091CA046D
:101EE0000E946B0583EC90E00197F1F78091CA04A2
:101EF0000E9485048C0181110AC061E08091CA04AE
:101F00000E946B0560E08091CA040E94B104C3EC9A
:101F1000D0E0CE010197F1F761E08091CA040E9400
:101F20006B052197F1F7C8019927DF91CF911F9198
:101F30000F910895EF92FF920F931F93CF93DF932A
:101F400000D000D0CDB7DEB74091C80461EC74E09A
:101F5000DC018E010F5F1F4F9801CD015D91FB01E8
:101F60005193BF01FC019081940FF90191939F015E
:101F7000F4E0653C7F0789F70E942C0F80E40E9403
:101F8000420F0E94160F0E942C0F8091C6040E94DF
:101F9000420F7E0185E0E80EF11CF80181918F016E
:101FA0000E94420F0E151F05C1F70E94160F0E94D6
:101FB0002C0F8091C7040E94420F0F900F900F903A
:101FC0000F90DF91CF911F910F91FF90EF900C94A4
:101FD000160F0F931F93CF93DF93182FC1ECD4E00C
:101FE000E82FF0E0EF53FB4F10820F810E942C0F7F
:101FF00084E40E94420F0E94160F0E942C0F812F32
:10200000806C0E94420F802F0E94420F0E94160F88
:102010000E942C0F8E810E94420FDF91CF911F9161
:102020000F910C94160FCF93DF9300D000D0CDB753
:10203000DEB789836A834B832C83CE0101960E948D
:102040009A0F0F900F900F900F90DF91CF910895FE
:102050004F925F926F927F928F929F92AF92BF92B8
:10206000CF92DF92EF92FF920F931F93CF93DF9364
:1020700000D000D01F92CDB7DEB78C012A013B0102
:10208000809124018F3021F08F3F09F03DC205C0BF
:10209000E5E7F2E024912D8372C08FE08093240164
:1020A000E5E7F2E084918D838F3F09F42DC2813002
:1020B00009F441C038F1823009F061C01092B000DB
:1020C0001092B1008091B00082608093B000809146
:1020D000B10081608093B100E0E7F2E0E491F0E0CC
:1020E000EE0FFF1FE95AFD4F859194919093A40341
:1020F0008093A303E2E5F2E0E491E093A20322E0FF
:102100002D83FDC114BC15BC84B5826084BD85B52A
:10211000816085BDE0E7F2E0E491F0E0EE0FFF1FA3
:10212000E95AFD4F85919491E2E5F2E0E491E09364
:10213000EC041D82E4C11092800010928100809115
:10214000810088608093810080918100816080930C
:102150008100E0E7F2E0E491F0E0EE0FFF1FE95AC2
:10216000FD4F85919491E2E5F2E0E491E093EB0478
:1021700061E08FE00E946B0591E09D838AC08D81B4
:1021800087FDC2C161E08FE00E946B058D818D7F6C
:1021900009F07FC04801A12CB12C60E072E18AE710
:1021A00090E0A50194010E943D2629833A834B8348
:1021B0005C8369017A0191E0C91AD108E108F1084C
:1021C0002FEFC216D104E104F10409F008F44EC067
:1021D00060E472E48FE090E0A50194010E943D2646
:1021E00069017A0181E0C81AD108E108F1089D81EE
:1021F000923009F52FEFC216D104E104F10409F081
:1022000008F444C160E970ED83E090E0A501940119
:102210000E943D2669017A0181E0C81AD108E108CF
:10222000F1089FEFC916D104E104F10411F008F0A0
:10223000BAC083E027C02FEFC216D104E104F10435
:10224000B9F0B0F068E478EE81E090E0A501940187
:102250000E943D2669017A0181E0C81AD108E1088F
:10226000F1089D81992309F413C1DCC081E001C00C
:1022700082E09D81911106C095B5987F892B85BD1F
:1022800044C085E09091B100987F892B8093B10084
:102290003CC04801A12CB12C60E072E18AE790E0DB
:1022A000A50194010E943D2669017A0181E0C81AC6
:1022B000D108E108F108C114D10491E0E906F10464
:1022C00088F068E478EE81E090E0A50194010E9436
:1022D0003D2669017A0181E0C81AD108E108F108B8
:1022E00083E001C081E09D81913079F4909181007B
:1022F000987F892B809381004114510461047104FB
:1023000049F42FEF3FEFA9012CC04114510461049F
:10231000710471F0D801AA0FBB1FA30192010E94A2
:102320005C2628EE33E040E050E00E94A62603C081
:102330002FEF3FEFA9018D81813099F0823019F1A3
:102340008111E2C0C7BC2093F1043093F2044093A2
:10235000F3045093F40480916E00826080936E00C9
:10236000D3C0D0928900C09288002093ED043093AE
:10237000EE044093EF045093F00480916F0082606C
:1023800080936F00C1C0C092B3002093A503309327
:10239000A6034093A7035093A80380917000826026
:1023A00080937000B1C068E478EE81E090E0A50110
:1023B00094010E943D2669017A0191E0C91AD10871
:1023C000E108F1082FEFC216D104E104F10441F154
:1023D00038F164E274EF80E090E0A50194010E947E
:1023E0003D2669017A0181E0C81AD108E108F108A7
:1023F0009FEFC916D104E104F10409F008F441CFBC
:1024000062E17AE780E090E0A50194010E943D2618
:1024100069017A0181E0C81AD108E108F10819C000
:1024200084E030CF2FEFC216D104E104F10409F0AB
:1024300008F463C062E17AE780E090E0A5019401CE
:102440000E943D2669017A0191E0C91AD108E1088C
:10245000F1088FEFC816D104E104F104A9F0A0F04F
:1024600089819A81AB81BC812AE0B595A795979522
:1024700087952A95D1F76C017D0121E0C21AD10818
:10248000E108F10887E0FECE86E0FCCE82E0FACEDD
:102490008FEFC816D104E104F10469F160F162E143
:1024A0007AE780E090E0A50194010E943D26690151
:1024B0007A0191E0C91AD108E108F1082FEFC2169C
:1024C000D104E104F104A9F0A0F089819A81AB81E3
:1024D000BC813AE0B595A795979587953A95D1F740
:1024E0006C017D0121E0C21AD108E108F10885E004
:1024F000C3CE84E0C1CE83E0BFCE84E0BACE61E03B
:102500008FE00E946B0546CE0F900F900F900F90BA
:102510000F90DF91CF911F910F91FF90EF90DF907F
:10252000CF90BF90AF909F908F907F906F905F9073
:102530004F90089580E00E94E90F81E00E94E90F2A
:1025400082E00E94E90F83E00E94E90FE1ECF4E0F1
:102550001082118212821382089581EC94E00C940F
:102560009A0F682F8091CE040E94B1048091E504F7
:102570009091E6048230910538F0880F991F880FFA
:10258000991F05970197F1F7089581E00C94B11216
:102590000F931F930091CF041091D0042091D10488
:1025A0003091D20440E052E16AE770E090E0041715
:1025B00015072607370740F4769567955795479591
:1025C0009F5F9630A1F797E081E08927982F906A66
:1025D000969581709CBD8DBD80E01F910F910C94EC
:1025E000B112CF93C82F0E94C8128C2F80620E9414
:1025F0008A068093D304CF910C94C512CF93DF93B6
:10260000D82FC62F0E94C8128D2F80620E948A0682
:102610008093D3048C2F0E948A06DF91CF910C9473
:10262000C512682F8091CD049091CE0489130C942B
:10263000B104089580E00E941113EBECF4E067858B
:102640006D7F678780E00C94FE12CF93C82F0E94A5
:10265000C8128C2F0E948A068093D3048FEF0E94A9
:102660008A06C82F0E94C5128C2FCF910895CF9350
:10267000C82F82E00E942513EC2FF0E0E35CFD4FB1
:10268000E49121E030E001C0220FEA95EAF72095BD
:10269000622F682382E00E94FE12C11102C01092D4
:1026A000DC04CF9108950F931F93CF93DF93809114
:1026B000DD04882361F18091DF04811108C0C0919D
:1026C000D404DC2FCE3108F0DDE1CD1B02C0C0E028
:1026D000DDE10E94C81289EA0E948A068093D30431
:1026E00007E011E0D15030F0F80181918F010E9494
:1026F0008A06F8CFCC2329F080E00E948A06C150D8
:10270000F9CF0E94C5128091D30480958170DF912A
:10271000CF911F910F910895009769F0FC010190EE
:102720000020E9F73197AF01481B590BBC0189EA3A
:1027300093E00C94780180E090E0089589E592E0C0
:102740000C948C138F929F92AF92BF920F931F9312
:10275000CF93DF93CDB7DEB7A1970FB6F894DEBF66
:102760000FBECDBF19A2423008F44AE08E010F5DC2
:102770001F4F842E912CA12CB12CA50194010E94F5
:10278000A626E62FB901CA0101501109EA3014F456
:10279000E05D01C0E95CD801EC93232B242B252BB1
:1027A00061F7C8010E948C13A1960FB6F894DEBFA2
:1027B0000FBECDBFDF91CF911F910F91BF90AF9012
:1027C0009F908F90089596E0899FD0011124AE5A72
:1027D000BB4F90967C936E935F9791E091969C93FC
:1027E00091979091BE04E091BF04F091C0049923A9
:1027F00039F0309751F0811108C080916E0404C007
:10280000309719F05C968C9109940895FF920F937C
:102810001F93CF93DF93C62FD42F9F938F9382E97B
:1028200092E09F938F930E942321DC0F0F900F90D3
:102830000F900F900AE812E0CD1791F0FF24F39467
:10284000FC0E8C2F0E9425131F928F931F930F93C2
:102850000E9423210F900F900F900F90CF2DECCF5F
:1028600087E892E09F938F930E9423210F900F900F
:10287000DF91CF911F910F91FF9008958F929F92BA
:10288000AF92BF92CF92DF92EF92FF920F931F937E
:10289000CF93DF93D62FB42E9F938F9382E892E04D
:1028A0009F938F930E942321BD0E0F900F900F9046
:1028B0000F908EE7E82E82E0F82E99E7C92E92E07D
:1028C000D92EDB1509F447C0C091DE048C2F90E0AF
:1028D000009711F481E090E00E9446238C01AA2425
:1028E000A394AD0E0E94C8128D2F8F710E948A068C
:1028F0008093D3044801CC2341F08FEF0E948A06D5
:10290000F40181934F01C150F6CF0E94C512FF928E
:10291000EF920E9423218091DE04E801C80FD11DAF
:102920000F900F902197C017D10760F088811F92F8
:102930008F93DF92CF920E9423210F900F900F90E0
:102940000F90F0CF0115110511F4DA2DBACFC8019F
:102950000E94DE23FACF86E792E09F938F930E9436
:1029600023210F900F90DF91CF911F910F91FF9036
:10297000EF90DF90CF90BF90AF909F908F90089591
:102980000F931F930E9425066093B1037093B203C7
:102990008093B3039093B40389EA93E00E94B40157
:1029A00097FF1FC00E9425060091B1031091B2034A
:1029B0002091B3033091B403DC01CB01801B910B58
:1029C000A20BB30B0091AD031091AE032091AF03A6
:1029D0003091B00380179107A207B307E8F28FEF99
:1029E0009FEF1F910F9108958091640080FD08C0B2
:1029F00080917A00806880937A0080B78F7780BF5B
:102A00001092470408950F931F93CF93DF93C82F1D
:102A1000D62F86E0C89FF0011124EE5AFB4F11A279
:102A2000878D90A181309105D9F040F082309105D9
:102A3000A9F10397F1F560E070E034C06623C9F1B5
:102A400061E070E08C2F0E94E3130E9425066093E2
:102A5000AA047093AB048093AC049093AD0429C096
:102A60000E9425060091AA041091AB042091AC04A9
:102A70003091AD04AB01BC01401B510B620B730BD9
:102A80008091BC049091BD04A0E0B0E0841795074C
:102A9000A607B70718F462E070E004C0D11109C0BE
:102AA00063E070E08C2FDF91CF911F910F910C9418
:102AB000E313DF91CF911F910F910895CF93DF938F
:102AC000CDB7DEB7AC970FB6F894DEBF0FBECDBF63
:102AD000789484B5826084BD84B5816084BD85B5F9
:102AE000826085BD85B5816085BD80916E00816005
:102AF00080936E00109281008091810082608093AB
:102B000081008091810081608093810080918000AC
:102B10008160809380008091B10084608093B100D7
:102B20008091B00081608093B00080917A008460D1
:102B300080937A0080917A00826080937A008091FD
:102B40007A00816080937A0080917A008068809317
:102B50007A001092C100E091B903F091BA0382E0CB
:102B60008083E091B503F091B6031082E091B70342
:102B7000F091B80380E180831092C103E091BD031E
:102B8000F091BE0386E08083E091BB03F091BC032B
:102B9000808180618083E091BB03F091BC038081E0
:102BA00088608083E091BB03F091BC0380818068E2
:102BB0008083E091BB03F091BC0380818F7D808393
:102BC00060E070E080EB92E00E94D8200E949A12B0
:102BD00080E48093C50480EC8093C6048BE88093E6
:102BE000C7040E94AD1283E08093000180E88093C7
:102BF000610081E08093610010925C020E94C60532
:102C00006B017C0180E00E94290B80915C0288238B
:102C1000E1F30FB6F894A8958091600088618093E5
:102C20006000109260000FBE0E94C6056C197D09FD
:102C300070934C0460934B04A0E44A2EA2E45A2EF5
:102C4000AFE06A2E712C0E942506DC01CB01880FB3
:102C5000991FAA1FBB1F0091740310917503209147
:102C6000760330917703801B910BA20BB30B853653
:102C70009105A105B10598F40E94910660E171E00B
:102C8000CE0101960E94C40365E671E0CE01019673
:102C90000E94E502882309F475C010E09FC00091EE
:102CA00072031091730382E10E94AB05BC01C8015D
:102CB000880F991F880F991F9C0126503D4F79015D
:102CC000072E000C880B990B0E9420252DEC3CEC64
:102CD0004CE85FE30E947F2520E030EC4FE754E4AE
:102CE0000E94D7262FE73BEF4AEB5DE30E94D726F1
:102CF000F70160837183828393830F5F1F4F10936B
:102D00007303009372030E31110524F010927303C4
:102D1000109272030E942506DC01CB01880F991FD7
:102D2000AA1FBB1F8093740390937503A09376032F
:102D3000B09377030AEF12E0A12CB12C912C812CD7
:102D4000F801C190D190E190F1908F019501492D4A
:102D5000582DC701B6010E94492718161CF45601C8
:102D60009E2C8F2CF3E002371F0751F7C501A92DC8
:102D7000B82D80930C0190930D01A0930E01B09398
:102D80000F017ACF60E171E0CE0181960E94C40309
:102D900062EA71E0CE0181960E94E502811119C0BC
:102DA00060E171E0CE0187960E94C40361E771E0A3
:102DB000CE0187960E94E50281110C94EC1E85E1FC
:102DC0000E94850411E0892B11F00C94ED1E0C94E7
:102DD000EC1E10E0CE0181960E94B803CE01019650
:102DE0000E94B803112371F065E671E0CE010196EF
:102DF0000E94C403CE0101960E94960BCE0101965B
:102E00000E94B80360E171E0CE0101960E94C40304
:102E100065E671E0CE0101960E94E502882331F05B
:102E200085E10E94AB0511E0892B09F010E0CE018D
:102E300001960E94B803112371F06CE771E0CE0196
:102E400001960E94C403CE0101960E94960BCE010A
:102E500001960E94B80360E171E0CE0101960E94E4
:102E6000C4036CE771E0CE0101960E94E502182FC1
:102E7000CE0101960E94B803112309F4EBC10E9410
:102E80000B0981E08093BE040E9425060091AE04E8
:102E90001091AF042091B0043091B104AB01BC019A
:102EA000401B510B620B730B8091BA049091BB04D1
:102EB000A0E0B0E084179507A607B70708F0F1C0B7
:102EC00010E08091B804181710F0B12C44C0E091C4
:102ED000B404F091B504E10FF11D62E080810E941D
:102EE0006B051F5FEECFEA2CF12CE091B404F0915A
:102EF000B504EE0DFF1D80810E94850497012C5FB3
:102F00003F4F892B09F052C0C901880F991FFC015E
:102F1000EE5AFB4F80819181882999299183808382
:102F2000A3948091B804A816F0F2E091B604F09151
:102F3000B704E00FF11F61E080810E94B10480912D
:102F4000B6049091B704FC01E00FF11F60E08081AE
:102F50000E946B05B3948091B904B81690F50B2DBF
:102F600010E0E091B604F091B704E00FF11F61E0CA
:102F700080810E946B05E091B604F091B704E00FE8
:102F8000F11F60E080810E94B104C12CD12C760138
:102F9000C3940B2C04C0CC0CDD1CEE1CFF1C0A944B
:102FA000D2F74601C094D094A12CBBCFC901880FA1
:102FB000991FFC01EE5AFB4F808191818C219D214C
:102FC000ADCF02E514E0F8018FEF9FEF278D30A120
:102FD000232B21F4148E968F858F11A2369624E030
:102FE000EE38F20799F7D12C36E0B32E8091B80471
:102FF000D81670F5C12CED2CF12CC701880F991F44
:10300000FC01E65AFB4F7F012091B904C216F0F48F
:10301000F701408151810C2C02C0569547950A94C6
:10302000E2F7642F6170D29E900111242C0D311DA6
:10303000E2E5F4E080E0A58DB68D2A173B0709F4A0
:10304000EEC68F5F36968A30B1F7CDC6D394CECF19
:10305000F12CF80181A1882311F0FF24F3940A5F79
:103060001F4FF4E00E381F07A1F70E94250660935A
:10307000AE047093AF048093B0049093B104FF202A
:1030800081F080917304882361F0809171049091A4
:103090007204019731F410916E04112309F4DAC01F
:1030A00003C01092BE04D6C00E945B2024EF31E022
:1030B00040E050E00E943D26CB018C509E4F49E1FC
:1030C00050E060E070E00E942810812F110F990BF2
:1030D000C09720919B0330919C03A9014F5F5F4FE4
:1030E00050939C0340939B0310926F0210927002C6
:1030F00010927102109272022130310599F03CF465
:10310000232BD1F49093680280936702A3C02230EE
:10311000310569F02330310579F490936E02809384
:103120006D020EC090936A028093690293C09093DF
:103130006C0280936B028EC0443051050CF48AC03F
:10314000409167025091680288EE93E0489F900199
:10315000499F300D589F300D1124409169025091C4
:103160006A0264E6649FC001659F900D1124820F7E
:10317000931F40916B0250916C026AE0649F900132
:10318000659F300D1124820F931F20916D023091A5
:103190006E02820F931F209101013091020182176C
:1031A0009307B9F00E940B0940E050E0BA018AE0B1
:1031B00090E00E94281064EF71E080E090E00E94AF
:1031C000EB058FE00E94E00410929C0310929B0399
:1031D00041C040E050E0BA0184EF91E00E94281025
:1031E00062E370E080E090E00E94EB058FE00E94D7
:1031F000E00440E050E0BA0188EE93E00E9428101D
:1032000062E370E080E090E00E94EB058FE00E94B6
:10321000E00460E171E0CE0101960E94C4036CE815
:1032200071E0CE0101960E94E502182FCE010196B1
:103230000E94B80311110EC06CE871E0CE01019636
:103240000E94C403CE0101960E94960BCE01019606
:103250000E94B80360E171E0CE0101960E94C403B0
:103260006CE871E0CE0101960E94E502182FCE01B4
:1032700001960E94B803112369F10E9425066B0193
:103280007C01CC0CDD1CEE1CFF1C0E942506DC0121
:10329000CB01880F991FAA1FBB1F8C199D09AE096E
:1032A000BF09843F9140A105B105A0F484E10E94CB
:1032B000AB05892B51F76DE971E0CE0101960E94B3
:1032C000C403CE0101960E94960BCE0101960E9486
:1032D000B803DBCF60E171E0CE0101960E94C40328
:1032E0006DE971E0CE0101960E94E502182FCE0132
:1032F00001960E94B803112309F48BC00E94250691
:10330000DC01CB018A5F9109A109B048880F991FA0
:10331000AA1FBB1F00919703109198032091990356
:1033200030919A03081719072A073B0728F480E809
:103330008093C8040E94AD120E942506DC01CB01D7
:10334000845F9140A109B048880F991FAA1FBB1F35
:1033500000919703109198032091990330919A035B
:10336000081719072A073B07B0F50E942506DC015C
:10337000CB01880F991FAA1FBB1F809397039093BF
:103380009803A0939903B0939A0342E350E060E05E
:1033900070E080ED97E00E9428108091E904909100
:1033A000EA0401979093EA048093E9046AE070E0EC
:1033B0000E944E278B010E94EE08F82EC8010E9441
:1033C000EE082F2D482F6FE38FE30E941310109209
:1033D000C8040E94AD128091E9049091EA048530FE
:1033E000910539F46CEA71E080E191E00E9459287E
:1033F00010C0892B71F462EA71E0CE0101960E943F
:10340000C403CE0101960E94960BCE0101960E9444
:10341000B80360E171E0CE0101960E94C4036CEA3A
:1034200071E0CE0101960E94E502182FCE010196AF
:103430000E94B803112309F481C00E942506DC0113
:10344000CB018A5F9109A109B048880F991FAA1F73
:10345000BB1F00919703109198032091990330911D
:103460009A03081719072A073B0728F480E8809376
:10347000C8040E94AD120E942506DC01CB01845FC6
:103480009140A109B048880F991FAA1FBB1F009146
:103490009703109198032091990330919A0308178C
:1034A00019072A073B07B0F50E942506DC01CB016E
:1034B000880F991FAA1FBB1F8093970390939803AF
:1034C000A0939903B0939A0342E350E060E070E068
:1034D00080ED97E00E9428108091E9049091EA0421
:1034E00001979093EA048093E9046AE070E00E94F7
:1034F0004E278B010E94EE08F82EC8010E94EE08AC
:103500002F2D482F6FE38FE30E9413101092C804F1
:103510000E94AD128091E9049091EA04892B71F424
:1035200062EA71E0CE0101960E94C403CE010196C9
:103530000E94960BCE0101960E94B8030E942506B8
:10354000DC01CB01880F991FAA1FBB1F00919D03AF
:1035500010919E0320919F033091A003801B910B3B
:10356000A20BB30B009103011091040120910501FE
:1035700030910601081719072A073B0708F0B0C069
:103580000E942506DC01CB01880F991FAA1FBB1FD3
:1035900080939D0390939E03A0939F03B093A003F9
:1035A00080E69AEEA0E0B0E08093030190930401DE
:1035B000A0930501B09306010E949A121092C804CC
:1035C0000E94AD12109246041092500481E0809344
:1035D000470480914A048D7F41F080917A008F7773
:1035E00080937A0080B7806880BF8CE6C82E8BE617
:1035F000D82EE12CF12C80914D0490914E04A0E046
:10360000B0E08C159D05AE05BF0508F048C080915F
:1036100051048A3010F40E94290B83B7817F909166
:103620004A04892B83BF83B7816083BF809149049B
:10363000811106C0F89485B7806685BF8F7D85BFF0
:10364000789488950FB6F894A89580916000886169
:1036500080936000109260000FBEA89583B78E7FA4
:1036600083BF80914D0490914E04C81AD90AE10895
:10367000F1089091500480914F04890F8093500479
:103680008D3740F031E0C31AD108E108F1088D57B9
:103690008093500480914604882309F4ACCF809134
:1036A00048048823D9F02FB7F89480915D02909157
:1036B0005E02A0915F02B091600284599449AF4FBD
:1036C000BF4F8C199D09AE09BF0980935D0290938D
:1036D0005E02A0935F02B09360022FBF0E94F414B9
:1036E0008091F202811109C06BE572E081E692E0FF
:1036F0000E94C40381E08093F20289EA93E00E9471
:10370000D601181619060CF063C36BE572E0CE0102
:1037100087960E94C4030E94C01497FD0FC08D3588
:10372000910561F089831A8241E050E0BE016F5F2C
:103730007F4FCE0187960E940403EDCF7E0181E288
:10374000E80EF11C6BE572E0C7010E94C4038BA573
:103750009CA5892B09F42CC321E030E040E050E027
:10376000BE01695D7F4FCE0101960E94D9036EEBC9
:1037700071E0CE0101960E94E502182FCE0101965C
:103780000E94B803112309F41BC32BA53CA541E0FB
:1037900050E0BE01695D7F4FCE0101960E94D903C2
:1037A000BE016F5F7F4FCE0187960E943203CE012C
:1037B00001960E94B8036FA178A56115710539F0D3
:1037C0004BA55CA581E692E00E94970304C081E6C8
:1037D00092E00E946C0360EC71E0CE0101960E94C1
:1037E000C4038BA59CA52D813E818C01021B130B6C
:1037F0002115310549F1009739F18217930720F11E
:103800000817190718F08C0101501109CFA0D8A48E
:1038100089809A80C60133243A9422242A9456013E
:10382000A00EB11EA816B90690F0B4010E9460283F
:10383000009769F09C012C193D090217130710F03D
:10384000322E232E0196EECF0FEF1FEF02C0032D75
:10385000122DCE0101960E94B80317FD2BC02BA597
:103860003CA5A8014F5F5F4FBE01695D7F4FCE0150
:1038700001960E94D903BE016F5F7F4FC7010E946E
:103880003203CE0101960E94B803980140E050E057
:10389000BE01695D7F4FCE0101960E94D903BE0132
:1038A0006F5F7F4FCE0187960E943203CE01019653
:1038B0000E94B80362EC71E0CE0187960E94E50297
:1038C000882309F42BC20E94720A0E94830B0E9473
:1038D000340A0E94530B6091CF047091D004809100
:1038E000D1049091D204A30192010E94A6261F92B6
:1038F0002F9388EF91E09F938F930E9423218FEF66
:103900000E94F1128091D304282F30E0982F9170FB
:103910001F929F9335952795277033273F932F93B9
:1039200084FB992790F91F929F9385FB992790F923
:103930001F929F9386FB992790F91F929F931F9246
:103940008F938FEE90E09F938F930E94232142E00C
:103950006AE08BEE91E00E943E1444E06CE08EED54
:1039600091E00E94061441E060E185ED91E00E9443
:103970003E1446E061E18AEC91E00E94061441E0C9
:1039800061E083EC91E00E94061441E062E089EB83
:1039900091E00E94061441E065E082EB91E00E9414
:1039A000061441E066E089EA91E00E94061441E0D5
:1039B00060E081EA91E00E94061442E06CE183E954
:1039C00091E00E94061486E00E94251388720FB6CB
:1039D000F894DEBF0FBECDBF803241F021E090E011
:1039E000883009F020E0E22FF92F02C0E2E0F0E099
:1039F000EE0FFF1FE357FE4F859194919F938F9396
:103A00008EE791E09F938F930E942321E091DB0446
:103A1000F0E0EE0FFF1FE658FE4F859194919F93C3
:103A20008F938CE691E09F938F930E94232181E0F6
:103A30000E942513182F80E00E9425138093DA043A
:103A40000FB6F894DEBF0FBECDBF83FD02C01123B9
:103A500029F082FD06C0E1E0F0E005C0E0E0F0E022
:103A600002C0E2E0F0E0EE0FFF1FEA59FE4F859141
:103A700094919F938F9386E591E09F938F930E94FB
:103A8000232186E00E9425138670E82FF0E0E25B98
:103A9000FE4F859194919F938F9380E491E09F9343
:103AA0008F930E94232188E00E9425138F701F921C
:103AB0008F9384E391E09F938F930E9423210FB60D
:103AC000F894DEBF0FBECDBF00E010E0B801E4E027
:103AD00075956795EA95E1F7072E000C880B990B11
:103AE00040E10E94A2130F5F1F4F0E37110571F7BF
:103AF0000E949E1300E010E0B8016F707727072E38
:103B0000000C880B990B40E10E94A2130F5F1F4F1E
:103B10000E37110589F70E949E1335E0C32ED12C74
:103B200043E7242E42E0342E5EE7852E89EA93E0B7
:103B30000E94D601892B09F48EC089EA93E00E9485
:103B4000B401873609F070C091E09093F1020E94B1
:103B5000530B61E070E080E090E00E94EB058AEC9E
:103B600091E00E948C130E949E130E94530B86E0EA
:103B70000E942513682F606986E00E94FE128091E2
:103B8000DB04882331F10E94830B60E084E00E9413
:103B9000FE12FE0131962FEF2193EE15FF05D9F7A6
:103BA00045E0BE016F5F7F4F80E10E94020A81EE17
:103BB0000E94F11240E2BE016F5F7F4F80EA0E94D7
:103BC000020A6091DA04677F6093DA0480E00E9461
:103BD000FE1286E00E942513887F682F636086E0CE
:103BE0000E94FE1268E285E00E94FE1281E00E94BF
:103BF00011138091DB04882371F161E070E080E0B3
:103C000090E00E94EB0580E00E94111360E187E0E4
:103C10000E94FE1283EE0E94F11280E00E941113B6
:103C200081E00E94111317C08536A9F41092F102A9
:103C30000E941A1386E00E942513682F6F7686E093
:103C40000E94FE1280E00E9411138FED91E00E940D
:103C50008C130E949E138091F102811159C0F101D1
:103C6000282D11922A95E9F725E6A22EB12C31E0F4
:103C7000A31AB10809F100EF12E09DE7992E692D12
:103C800085E00E94FE120E94340A8BEF91E00197BA
:103C9000F1F70E94530B89E00E94251380FD07C0B5
:103CA0009A94015011098FEF9812E9CFE0CFF801F3
:103CB00080818F5F8083F4CF83E7A82E82E0B82EC7
:103CC000F50161915F01662371F0603110F470E0DD
:103CD00002C06FE070E0072E000C880B990B40E1EA
:103CE0000E94A2130EC00DE012E0F8016491662359
:103CF00041F089EA93E00E940E020F5F1F4F892B6B
:103D0000A1F7F1EFAF16F2E0BF06D1F60E949E13C5
:103D100021E0C21AD10809F009CF25C064EF71E093
:103D2000CE0101960E94C403409165025091660243
:103D30006091610270916202CE0101960E940403BB
:103D4000811104C0CE0101960E946C036AEF71E0FC
:103D5000CE0101960E947E030E94400BCE01019687
:103D60000E94B80325C064EF71E0CE0101960E9465
:103D7000C4034091650250916602609161027091A6
:103D80006202CE0101960E940403811104C0CE019B
:103D900001960E946C0367E072E0CE0101960E94DA
:103DA0007E030E94400BCE0101960E94B80308C01A
:103DB000C7010E94B803CE0187960E94B80308C0CD
:103DC000C7010E94B803CE0187960E94B8039DCC1C
:103DD0000E947D020C94231610E0CE0187960E946B
:103DE000B8030C94EA1640FF1CC0E2E5F4E080E062
:103DF00090E0448D411117C0E091B204F091B304FA
:103E0000E20FF31F4081B89EF001B99EF00D11241E
:103E1000EE5AFB4F448F368F258F10A2178E0E94CB
:103E20000315C394F1C8019636968A30910509F7B7
:103E3000F8CF1092AC031092AB0388EE93E0A0E0B1
:103E4000B0E08093AD039093AE03A093AF03B09323
:103E5000B0038DE491E09093AA038093A90385ECCD
:103E600090E09093B6038093B50384EC90E0909338
:103E7000B8038093B70380EC90E09093BA038093EB
:103E8000B90381EC90E09093BC038093BB0382EC78
:103E900090E09093BE038093BD0386EC90E09093F6
:103EA000C0038093BF031092C2031092C303109209
:103EB000C4031092C503E6E4F4E08CE0DF011D9238
:103EC0008A95E9F7109246041092470481E08093A6
:103ED000480492E090934A0420E83EE330934C0477
:103EE00020934B0420E830E030934E0420934D049F
:103EF00093E09093510420913D0130913E01309325
:103F0000EA042093E90499E09093CD049AE0909319
:103F1000CE0440E856E968E970E04093CF0450933E
:103F2000D0046093D1047093D20490E29093D404AF
:103F30001092DB041092DC0495E09093DE048093F1
:103F4000DF0485E090E0A0E0B0E08093E50490938A
:103F5000E604A093E704B093E80485EF94E090931F
:103F6000CC048093CB041092D50481E18093C904E2
:103F700080E18093CA0461E081E10E946B0561E009
:103F80008091CA040E946B05109254041092580448
:103F900010925704109259048FE591E090935304C6
:103FA00080935204E2E5F4E08EE894E0148E10A2CF
:103FB000178E11A236968E179F07C1F789E291E0FE
:103FC0009093B5048093B40485E291E09093B70494
:103FD0008093B60484E08093B8048093B9048DE2A2
:103FE00091E09093B3048093B2048AE090E09093C0
:103FF000BB048093BA0484EF91E09093BD04809356
:10400000BC041092C0041092BF041092AE0410922F
:10401000AF041092B0041092B1041092BE0408953F
:104020008F929F92AF92BF92CF92DF92EF92FF92C8
:10403000CF93DF93EC01688179818A819B8161153F
:1040400071058105910521F464E279ED8BE597E036
:104050002DE133EF41E050E00E943D2649015A0135
:104060009B01AC01A7EAB1E40E945C266B017C01D4
:10407000ACEEB4EFA50194010E946A26DC01CB01ED
:104080008C0D9D1DAE1DBF1DB7FF03C00197A1097B
:10409000B04888839983AA83BB83BC01CD019F77F5
:1040A000DF91CF91FF90EF90DF90CF90BF90AF90D6
:1040B0009F908F9008958F929F92AF92BF92CF92D0
:1040C000DF92EF92FF9260913F01709140018091E9
:1040D000410190914201611571058105910521F41D
:1040E00064E279ED8BE597E02DE133EF41E050E0BC
:1040F0000E943D2649015A019B01AC01A7EAB1E4A7
:104100000E945C266B017C01ACEEB4EFA50194012A
:104110000E946A26DC01CB018C0D9D1DAE1DBF1DCA
:10412000B7FF03C00197A109B04880933F01909366
:104130004001A0934101B0934201BC01CD019F77A2
:10414000FF90EF90DF90CF90BF90AF909F908F90B7
:10415000089560933F0170934001809341019093D3
:1041600042010895FC0188279927E8942191203283
:10417000E9F3293010F02E30C8F32B3241F02D3204
:1041800039F4689404C00E94D020820F911D2191BF
:1041900020532A30C0F31EF4909581959F4F0895C7
:1041A0007AE0979F902D879F802D910D112408957F
:1041B0000F931F93CF93DF93009731F4611571052F
:1041C00019F480E090E03AC08B01EC016EE070E001
:1041D00081E090E00E942A23FC01892B91F380E882
:1041E00083830115110571F01387028781E88383AA
:1041F0008091F6049091F704892B21F4F093F70451
:10420000E093F6042097C9F0D187C087838182604C
:1042100083838091F8049091F904892B71F4F093D1
:10422000F904E093F8048091FA049091FB04892B3F
:1042300021F4F093FB04E093FA04CF01DF91CF91D6
:104240001F910F910895A0E0B0E0E9E2F1E20C9433
:104250007D26AE01495F5F4FDA016D917D91AD0121
:1042600006EF14E0F80182819381DC0113962C9112
:104270001397286013962C930E944921D801129617
:10428000ED91FC9113972381277F2383E4E00C9425
:104290009926ABE0B0E0EFE4F1E20C946F266C01FC
:1042A0007B018A01FC0117821682838181FFCCC1C8
:1042B000CE0101963C01F6019381F70193FD8591B2
:1042C00093FF81917F01882309F4BAC1853239F4C3
:1042D00093FD859193FF81917F01853229F4B60189
:1042E00090E00E948424E7CF912C212C312CFFE117
:1042F000F315D8F08B3279F038F4803279F08332CC
:10430000A1F4232D20611DC08D3261F0803369F44A
:10431000232D216016C0832D8260382EE32DE460AA
:104320003E2E2AC0F32DF8601DC037FC2DC020EDB5
:10433000280F2A3040F08E32B9F436FC81C1232D8B
:104340002064322E19C036FE06C08AE0989E200DE9
:104350001124922E11C0EAE02E9E200D1124222E4F
:10436000F32DF0623F2E08C08C3621F4832D806837
:10437000382E02C0883641F4F70193FD859193FFF2
:1043800081917F018111B3CF982F9F7D95549330F8
:1043900028F40C5F1F4F9FE399830DC0833631F0E3
:1043A000833771F0833509F059C021C0F80180814D
:1043B00089830E5F1F4F88248394912C530113C06F
:1043C0002801F2E04F0E511CF801A080B18036FEAA
:1043D00003C0692D70E002C06FEF7FEFC5010E943E
:1043E00079244C018201F32DFF773F2E16C028015E
:1043F00022E0420E511CF801A080B18036FE03C0BD
:10440000692D70E002C06FEF7FEFC5010E94672445
:104410004C01F32DF0683F2E820133FC1BC0822D2E
:1044200090E088169906B0F4B60180E290E00E9410
:1044300084242A94F4CFF50137FC859137FE8191CD
:104440005F01B60190E00E94842421102A9421E0AB
:10445000821A91088114910471F7E8C0843611F032
:10446000893641F5F80137FE07C06081718182818C
:1044700093810C5F1F4F08C060817181072E000C73
:10448000880B990B0E5F1F4FF32DFF763F2E97FF82
:1044900009C090958095709561957F4F8F4F9F4F84
:1044A000F0683F2E2AE030E0A3010E94C024882E4D
:1044B000861845C0853731F4232D2F7EB22E2AE091
:1044C00030E025C0932D997FB92E8F36C1F018F4B6
:1044D000883579F0B5C0803719F0883721F0B0C041
:1044E000E92FE061BE2EB4FE0DC0FB2DF460BF2E9F
:1044F00009C034FE0AC0292F2660B22E06C028E06B
:1045000030E005C020E130E002C020E132E0F801F7
:10451000B7FE07C060817181828193810C5F1F4F5C
:1045200006C06081718180E090E00E5F1F4FA301A3
:104530000E94C024882E8618FB2DFF773F2E36FE62
:104540000DC0232D2E7FA22E891458F434FE0BC0EB
:1045500032FC09C0832D8E7EA82E05C0B82CA32C5A
:1045600003C0B82C01C0B92CA4FE0FC0FE01E80D99
:10457000F11D8081803321F49A2D997EA92E09C0E6
:10458000A2FE06C0B394B39404C08A2D867809F0C5
:10459000B394A3FC11C0A0FE06C0B21488F4280C8A
:1045A000922C9B180EC0B21460F4B60180E290E029
:1045B0000E948424B394F7CFB21418F42B1802C0CD
:1045C000982C212CA4FE10C0B60180E390E00E943C
:1045D0008424A2FE17C0A1FC03C088E790E002C0BB
:1045E00088E590E0B6010CC08A2D867859F0A1FECE
:1045F00002C08BE201C080E2A7FC8DE2B60190E030
:104600000E948424891438F4B60180E390E00E946B
:1046100084249A94F7CF8A94F301E80DF11D8081E8
:10462000B60190E00E9484248110F5CF222009F485
:1046300042CEB60180E290E00E9484242A94F6CF14
:10464000F6018681978102C08FEF9FEF2B96E2E102
:104650000C948B260F931F93CF93DF93869F80013B
:10466000879F100D969F100D1124C8010E944623AC
:10467000EC01009729F0A80160E070E00E9472242C
:10468000CE01DF91CF911F910F9108950F931F934A
:10469000CF93DF938230910510F482E090E0E091B7
:1046A000FE04F091FF0420E030E0A0E0B0E030979D
:1046B00019F1408151810281138148175907C8F0CF
:1046C0008417950769F4109731F012960C9312979E
:1046D00013961C9327C00093FE041093FF0422C07E
:1046E0002115310519F04217530718F49A01BD013D
:1046F000EF01DF01F801DBCF21153105F9F0281BAF
:10470000390B2430310580F48A819B816115710554
:1047100021F0FB019383828304C09093FF04809374
:10472000FE04FE01329644C0FE01E20FF31F8193A6
:10473000919322503109398328833AC02091FC0497
:104740003091FD04232B41F4209145013091460125
:104750003093FD042093FC042091430130914401E7
:104760002115310541F42DB73EB7409147015091D5
:104770004801241B350BE091FC04F091FD04E21785
:10478000F307A0F42E1B3F0B2817390778F0AC0174
:104790004E5F5F4F2417350748F04E0F5F1F509351
:1047A000FD044093FC048193919302C0E0E0F0E0AB
:1047B000CF01DF91CF911F910F910895CF93DF9398
:1047C000009709F481C0FC01329713821282A091F4
:1047D000FE04B091FF04109781F420813181820F93
:1047E000931F2091FC043091FD042817390751F5DF
:1047F000F093FD04E093FC0467C0ED0120E030E09D
:10480000CE17DF0740F44A815B819E0141155105B7
:10481000F1F0EA01F5CFD383C28340815181840F47
:10482000951FC817D90759F488819981840F951F5E
:104830000296918380838A819B8193838283211551
:10484000310529F4F093FF04E093FE043DC0E90133
:10485000FB83EA8349915991C40FD51FEC17FD07DB
:1048600061F480819181840F951F0296E9019983FB
:104870008883828193819B838A83E0E0F0E01296B3
:104880008D919C911397009719F0FD01DC01F7CFF2
:104890008D919C9111979D012E5F3F4F820F931F29
:1048A0002091FC043091FD042817390769F43097F2
:1048B00029F41092FF041092FE0402C013821282A7
:1048C000B093FD04A093FC04DF91CF910895FC0107
:1048D0000590615070400110D8F7809590958E0F2B
:1048E0009F1F0895DC0101C06D9341505040E0F7D7
:1048F0000895FC016150704001900110D8F7809537
:1049000090958E0F9F1F08950F931F93CF93DF9362
:10491000FB01238121FD03C08FEF9FEF2CC022FFFD
:1049200016C046815781248135814217530744F4CC
:10493000A081B1819D012F5F3F4F318320838C93F4
:10494000268137812F5F3F4F3783268314C08B0129
:10495000EC01FB010084F185E02D0995892BE1F63E
:10496000D80116968D919C911797019617969C9356
:104970008E931697CE01DF91CF911F910F910895DD
:10498000FA01AA27283051F1203181F1E8946F9380
:104990006E7F6E5F7F4F8F4F9F4FAF4FB1E03ED026
:1049A000B4E03CD0670F781F891F9A1FA11D680FC4
:1049B000791F8A1F911DA11D6A0F711D811D911DF7
:1049C000A11D20D009F468943F912AE0269F11246C
:1049D0003019305D3193DEF6CF010895462F4770D0
:1049E000405D4193B3E00FD0C9F7F6CF462F4F702B
:1049F000405D4A3318F0495D31FD4052419302D089
:104A0000A9F7EACFB4E0A69597958795779567952E
:104A1000BA95C9F700976105710508959B01AC012E
:104A20000A2E06945795479537952795BA95C9F755
:104A3000620F731F841F951FA01D0895E89409C07D
:104A400097FB3EF490958095709561957F4F8F4FC1
:104A50009F4F9923A9F0F92F96E9BB279395F695D7
:104A6000879577956795B795F111F8CFFAF4BB0F55
:104A700011F460FF1BC06F5F7F4F8F4F9F4F16C0B9
:104A8000882311F096E911C0772321F09EE8872F43
:104A9000762F05C0662371F096E8862F70E060E0FF
:104AA0002AF09A95660F771F881FDAF7880F969578
:104AB000879597F90895990F0008550FAA0BE0E81C
:104AC000FEEF16161706E807F907C0F012161306D0
:104AD000E407F50798F0621B730B840B950B39F410
:104AE0000A2661F0232B242B252B21F408950A2676
:104AF00009F4A140A6958FEF811D811D08950E94A4
:104B000092250C9403260E94F52538F00E94FC257E
:104B100020F0952311F00C94EC250C94F22511242F
:104B20000C9437260E94142670F3959FC1F3950FBD
:104B300050E0551F629FF001729FBB27F00DB11D21
:104B4000639FAA27F00DB11DAA1F649F6627B00DB1
:104B5000A11D661F829F2227B00DA11D621F739F9A
:104B6000B00DA11D621F839FA00D611D221F749FA8
:104B70003327A00D611D231F849F600D211D822FEF
:104B8000762F6A2F11249F5750409AF0F1F0882316
:104B90004AF0EE0FFF1FBB1F661F771F881F915043
:104BA0005040A9F79E3F510580F00C94EC250C94E1
:104BB00037265F3FE4F3983ED4F386957795679563
:104BC000B795F795E7959F5FC1F7FE2B880F911D6D
:104BD0009695879597F9089597F99F6780E870E013
:104BE00060E008959FEF80EC089500240A94161663
:104BF000170618060906089500240A9412161306CB
:104C0000140605060895092E0394000C11F4882358
:104C100052F0BB0F40F4BF2B11F460FF04C06F5F74
:104C20007F4F8F4F9F4F089557FD9058440F551F4A
:104C300059F05F3F71F04795880F97FB991F61F01E
:104C40009F3F79F087950895121613061406551F95
:104C5000F2CF4695F1DF08C0161617061806991F01
:104C6000F1CF86957105610508940895E894BB27F6
:104C700066277727CB0197F90895052E97FB1EF439
:104C800000940E94542657FD07D00E94A62607FCD8
:104C900003D04EF40C9454265095409530952195B0
:104CA0003F4F4F4F5F4F0895909580957095619558
:104CB0007F4F8F4F9F4F08950E94C826A59F900D4C
:104CC000B49F900DA49F800D911D11240895B7FFEE
:104CD0000C945C260E945C26821B930B08952F92F5
:104CE0003F924F925F926F927F928F929F92AF927C
:104CF000BF92CF92DF92EF92FF920F931F93CF93C9
:104D0000DF93CDB7DEB7CA1BDB0B0FB6F894DEBF5F
:104D10000FBECDBF09942A88398848885F846E8485
:104D20007D848C849B84AA84B984C884DF80EE80CF
:104D3000FD800C811B81AA81B981CE0FD11D0FB6D8
:104D4000F894DEBF0FBECDBFED010895A1E21A2E8B
:104D5000AA1BBB1BFD010DC0AA1FBB1FEE1FFF1F1F
:104D6000A217B307E407F50720F0A21BB30BE40B6F
:104D7000F50B661F771F881F991F1A9469F76095B6
:104D80007095809590959B01AC01BD01CF01089570
:104D9000A29FB001B39FC001A39F700D811D11247C
:104DA000911DB29F700D811D1124911D08950E94C7
:104DB000EB260C9403260E94FC2558F00E94F52552
:104DC00040F029F45F3F29F00C94EC2551110C942C
:104DD00037260C94F2250E94142668F39923B1F328
:104DE000552391F3951B550BBB27AA276217730711
:104DF000840738F09F5F5F4F220F331F441FAA1FA5
:104E0000A9F335D00E2E3AF0E0E832D09150504060
:104E1000E695001CCAF72BD0FE2F29D0660F771F0E
:104E2000881FBB1F261737074807AB07B0E809F0F4
:104E3000BB0B802DBF01FF2793585F4F3AF09E3F79
:104E4000510578F00C94EC250C9437265F3FE4F381
:104E5000983ED4F3869577956795B795F7959F5FBC
:104E6000C9F7880F911D9695879597F90895E1E008
:104E7000660F771F881FBB1F621773078407BA0767
:104E800020F0621B730B840BBA0BEE1F88F7E095C2
:104E900008950E945B2508F48FEF089597FB072E75
:104EA00016F4009407D077FD09D00E94682707FC0C
:104EB00005D03EF4909581959F4F0895709561952A
:104EC0007F4F0895EE0FFF1F0590F491E02D099498
:104ED000AA1BBB1B51E107C0AA1FBB1FA617B70720
:104EE00010F0A61BB70B881F991F5A95A9F780953C
:104EF0009095BC01CD010895A0E0B0E0E2E8F7E2B2
:104F00000C947326EC01009721F4CB010E944623F8
:104F1000B4C0FC01E60FF71F9C0122503109E217D3
:104F2000F30708F4A8C0D9010D911C911197061739
:104F30001707B0F00530110508F49BC0C8010497AD
:104F40008617970708F495C002501109061B170B26
:104F5000019311936D937C93CF010E94DE2389C04E
:104F60005B01A01AB10A4C01800E911EA091FE04B3
:104F7000B091FF04612C712CE12CF12C109709F4F5
:104F800046C08D919C911197A815B905B1F56C019A
:104F900042E0C40ED11CCA14DB0478F14C018A181B
:104FA0009B08640142E0C40ED11C1296BC9012977B
:104FB0001396AC91B5E0CB16D10440F0B282A38336
:104FC00091828082D9016D937C9309C00E5F1F4F3F
:104FD000800F911FF90191838083EB2DFA2FE1144B
:104FE000F10431F0D7011396FC93EE93129741C070
:104FF000F093FF04E093FE043CC06816790608F4C1
:105000003C017D0112960D90BC91A02DB7CF8091EF
:10501000FC049091FD0488169906E1F46616770663
:10502000C8F48091430190914401009741F48DB7F9
:105030009EB74091470150914801841B950BE8179A
:10504000F907C8F4F093FD04E093FC04F9017183BF
:1050500060830FC0CB010E9446237C01009759F06A
:10506000A801BE010E944728CE010E94DE23C7018D
:1050700004C0CE0102C080E090E0CDB7DEB7EEE024
:105080000C948F2681E090E0F8940C947A28FB0130
:10509000DC0102C001900D9241505040D8F70895B4
:1050A000FB01DC018D91019080190110D9F3990B5E
:1050B0000895FB01DC0101900D920020E1F70895B5
:1050C000FB0151915523A9F0BF01DC014D9145171A
:1050D0004111E1F759F4CD010190002049F04D91C3
:1050E00040154111C9F3FB014111EFCF81E090E080
:0850F00001970895F894FFCF29
:1050F80001C30460EA0000426F6D626100000000B5
:1051080044696E616D6F5F4F6666000000000000C5
:1051180000000000FF0504030206070809313437C0
:105128002A3235383033363923414243441400019A
:10513800000000000000052000000000000E0278BA
:1051480001A5015B02D601B401C80100000000A757
:10515800056705AE0457686169745F4761796B61DB
:105168000044696E616D6F5F4F66660057616974D0
:105178005F436F64655F456E74657200576169745B
:105188005F54696D65725F53746172740057616929
:10519800745F54696D65725F456E64005761697428
:1051A8005F54696D65725F456E645F3135005B0001
:1051B8003D006F745F636B7264005374617274694D
:1051C8006E672043617272696572204F757400536F
:1051D800746F7070696E67204361727269657220BE
:1051E8004F7574007B722E632E003A6E6F745F6584
:1051F800786973747D0A003A636F6D706C657465C5
:10520800647D0A00546F5F426F6D62610020004741
:1052180065745F496E666F005365745F537461749B
:1052280000575500444F005747005743450057540F
:105238005300575445005365745F506173730053AE
:0C52480065745F54696D6572000D0A000A
:00000001FF
