:100000000C9474000C949C000C949C000C949C0028
:100010000C949C000C949C000C9404090C94EA032E
:100020000C949C000C949C000C949C000C949C00E0
:100030000C949C000C949C000C949C000C949C00D0
:100040000C9415050C949C000C9432030C940C0336
:100050000C949C000C949C000C949C000C949C00B0
:100060000C94D6050C949C0095098409970986097F
:1000700088098A098C098E09900992090A0B0C0DCE
:100080000E0F0001020304050000000023002600FB
:10009000290000000008000201000003040700001E
:1000A000000000000000010204081020408001024E
:1000B00004081020010204081020000000002500A0
:1000C00028002B00040404040404040402020202B5
:1000D00002020303030303030200000000240027BD
:1000E000002A0000281F221F11241FBECFEFD8E0D6
:1000F000DEBFCDBF12E0A0E0B1E0E2E4FCE402C06C
:1001000005900D92A633B107D9F724E0A6E3B2E03B
:1001100001C01D92A63AB207E1F710E0C3E7D0E0B4
:1001200004C02197FE010E941625C237D107C9F7E6
:100130000E94F5140C9414260C940000CF92DF92C8
:10014000EF92FF920F931F93CF93DF936C017A018D
:100150008B01C0E0D0E0CE15DF0581F0D8016D91B4
:100160008D01D601ED91FC910190F081E02DC60149
:100170000995892B11F02196EECF7E01C701DF9101
:10018000CF911F910F91FF90EF90DF90CF90089546
:10019000FC01538D448D252F30E0842F90E0821B8D
:1001A000930B541710F0CF96089501970895FC0112
:1001B000918D828D981761F0828DDF01A80FB11D9E
:1001C0005D968C91928D9F5F9F73928F90E00895C2
:1001D0008FEF9FEF0895FC01918D828D981731F07C
:1001E000828DE80FF11D858D90E008958FEF9FEFD0
:1001F0000895FC01918D228D892F90E0805C9F4FA6
:10020000821B91098F73992708958EE293E00E94D3
:10021000F90021E0892B09F420E0822F0895FC01E8
:10022000848DDF01A80FB11DA35ABF4F2C91848D7F
:1002300090E001968F739927848FA689B7892C93B4
:10024000A089B1898C91837080648C93938D848D07
:10025000981306C00288F389E02D80818F7D80830A
:100260000895EF92FF920F931F93CF93DF93EC01CA
:1002700081E0888F9B8D8C8D981305C0E889F98962
:10028000808185FD26C0F62E0B8D10E00F5F1F4F7D
:100290000F731127E02E8C8DE8120CC00FB607FCEF
:1002A000FACFE889F989808185FFF5CFCE010E94D8
:1002B0000F01F1CF8B8DFE01E80FF11DE35AFF4FC7
:1002C000F0829FB7F8940B8FEA89FB898081806266
:1002D0000AC09FB7F894EE89FF896083E889F9899D
:1002E00080818370806480839FBF81E090E0DF9194
:1002F000CF911F910F91FF90EF900895CF93DF93CF
:10030000EC01888D8823C9F0EA89FB89808185FD0D
:1003100005C0A889B9898C9186FD0FC00FB607FC6E
:10032000F5CF808185FFF2CFA889B9898C9185FFAF
:10033000EDCFCE010E940F01E7CFDF91CF9108955D
:1003400080E090E0892B29F00E94050181110C9436
:1003500000000895833081F028F4813099F08230D4
:10036000A1F008958730A9F08830B9F08430D1F435
:10037000809180008F7D03C0809180008F77809373
:100380008000089584B58F7702C084B58F7D84BDC9
:1003900008958091B0008F7703C08091B0008F7D69
:1003A0008093B00008954091F902262F30E0240F89
:1003B000311D21323105DCF4209161022430C9F471
:1003C000FC0180E090E0861758F43091F902219109
:1003D000DC01A752BD4FA30FB11D2C930196F3CFA3
:1003E0008091F902680F6093F90280E0089581E03E
:1003F000089582E00895089508950895E0916802AF
:1004000080916702E81730F4F0E0E759FD4F8081F2
:1004100090E008958FEF9FEF08959091680280918A
:100420006702981750F4E92FF0E0E759FD4F20815B
:1004300030E09F5F9093680202C02FEF3FEFC90149
:1004400008958091670290E020916802821B9109D3
:100450000895CF92DF92EF92FF920F931F93CF9365
:10046000DF937C01CB018A0120919A04222389F039
:10047000EB016B01C40ED51ECC15DD0569F0699149
:10048000D701ED91FC910190F081E02DC701099514
:10049000F3CF642F0E94D301C801DF91CF911F9148
:1004A0000F91FF90EF90DF90CF900895CF93DF935F
:1004B0001F92CDB7DEB7698320919A042223D1F031
:1004C00020919704203240F021E030E0FC0133839A
:1004D000228380E090E015C080919804E82FF0E03E
:1004E000E854FD4F998190838F5F809398048093A7
:1004F000970405C061E0CE0101960E94D30181E01E
:1005000090E00F90DF91CF910895089580E090E002
:100510000895CF93C82F682F8EE293E00E94310197
:100520008C2FCC0F990BCF9108950E94F625FC01DA
:1005300024813581232B31F421E061157105A1F06F
:10054000FB0108C0FC01808191816115710531F4C6
:1005500021E0FC018081882339F005C00E94042637
:1005600021E0892B09F020E0822F0895FC01808191
:100570009181009711F00C940E220895EF92FF9252
:100580000F931F93CF93DF93EC01198218821B8284
:100590001A821D821C8261157105B9F17B01FB0174
:1005A00001900020E9F731978F01061B170BB80166
:1005B0006F5F7F4F80E090E00E943025009759F0F8
:1005C000998388831B830A832C813D81232B81F4AB
:1005D000FC0110820DC088819981009711F00E9462
:1005E0000E22198218821D821C821B821A820DC063
:1005F0001D830C83B70188819981DF91CF911F9171
:100600000F91FF90EF900C940D26DF91CF911F91E9
:100610000F91FF90EF9008951F920F920FB60F92D7
:1006200011242F933F934F935F936F937F938F93F7
:100630009F93AF93BF93EF93FF938EE293E00E945B
:100640000F01FF91EF91BF91AF919F918F917F919A
:100650006F915F914F913F912F910F900FBE0F902F
:100660001F9018951F920F920FB60F9211242F937F
:100670008F939F93EF93FF93E0913E03F0913F039D
:100680008081E0914403F091450382FD12C0908186
:10069000809147038F5F8F7320914803821751F039
:1006A000E0914703F0E0E25DFC4F958F80934703B4
:1006B00001C08081FF91EF919F918F912F910F90B9
:1006C0000FBE0F901F901895CF93DF93282F30E027
:1006D000F901EE56FF4F8491F901EA55FF4FD4918D
:1006E000F901EC53FF4FC491CC2391F081110E948A
:1006F000AA01EC2FF0E0EE0FFF1FE857FF4FA59186
:10070000B491EC91ED2381E090E021F480E002C00F
:1007100080E090E0DF91CF910895862F0C946403E0
:100720001F93CF93DF93282F30E0F901EE56FF4F50
:100730008491F901EA55FF4FD491F901EC53FF4F31
:10074000C491CC23C1F0162F81110E94AA01EC2F75
:10075000F0E0EE0FFF1FE654FF4FA591B4919FB755
:10076000F894111104C08C91D095D82302C0EC915B
:10077000DE2BDC939FBFDF91CF911F910895909165
:100780002301891324C0E8EDF0E0E4919FEF9093FA
:100790002301E130B9F098F0E230C9F49091700093
:1007A0009D7F9093700091E09093B0009091B10084
:1007B000987F94609093B1001092B30008C010929B
:1007C0006E0005C090916F009D7F90936F0060E078
:1007D0000C9490031F920F920FB60F9211242F9337
:1007E0003F934F935F936F937F938F939F93AF93B9
:1007F000BF93EF93FF9380912A0390912B03A091D5
:100800002C03B0912D03892B8A2B8B2B51F19091C6
:100810002703E0912803F0912903808189278083B1
:1008200080912A0390912B03A0912C03B0912D036A
:10083000181619061A061B06C4F480912A03909113
:100840002B03A0912C03B0912D030197A109B109AD
:1008500080932A0390932B03A0932C03B0932D0332
:1008600004C0809123010E94BF03FF91EF91BF91CB
:10087000AF919F918F917F916F915F914F913F9138
:100880002F910F900FBE0F901F901895862F642FF9
:100890000C949003CF93DF9390E0FC01EA55FF4F57
:1008A0002491FC01EC53FF4F8491882361F190E087
:1008B000880F991FFC01E752FF4FC591D491FC01AD
:1008C000E654FF4FA591B491611109C09FB7F89408
:1008D0008881209582238883EC912E230BC062307F
:1008E00061F49FB7F8948881322F309583238883F1
:1008F000EC912E2B2C939FBF06C08FB7F894E88104
:100900002E2B28838FBFDF91CF910895862F642FE0
:100910000C944A048E3008F08E5087708064809367
:100920007C0080917A00806480937A0080917A00C4
:1009300086FDFCCF809178009091790008958230F7
:10094000910538F0880F991F880F991F0597019717
:10095000F1F708953FB7F89480911D0390911E031D
:10096000A0911F03B091200326B5A89B05C02F3F7F
:1009700019F00196A11DB11D3FBFBA2FA92F982FC5
:100980008827820F911DA11DB11DBC01CD0142E040
:10099000660F771F881F991F4A95D1F708958F9288
:1009A0009F92AF92BF92CF92DF92EF92FF926B0134
:1009B0007C010E94AA044B015C01C114D104E10432
:1009C000F104F1F00E94AA04DC01CB018819990915
:1009D000AA09BB09883E9340A105B10570F321E047
:1009E000C21AD108E108F10888EE880E83E0981E4B
:1009F000A11CB11CC114D104E104F10419F7DDCF2D
:100A0000FF90EF90DF90CF90BF90AF909F908F902E
:100A100008952FB7F8946091890270918A028091AD
:100A20008B0290918C022FBF08951F920F920FB6E8
:100A30000F9211242F933F938F939F93AF93BF9364
:100A40008091890290918A02A0918B02B0918C02D0
:100A500030911C0323E0230F2D3720F40196A11DB4
:100A6000B11D05C026E8230F0296A11DB11D2093DC
:100A70001C038093890290938A02A0938B02B09307
:100A80008C0280911D0390911E03A0911F03B091D1
:100A900020030196A11DB11D80931D0390931E0399
:100AA000A0931F03B0932003BF91AF919F918F91AB
:100AB0003F912F910F900FBE0F901F90189510929D
:100AC000610281E08093600210925B0261E082E14A
:100AD0000E94900361E083E10E949003E9EBF0E063
:100AE00080818E7F808380818D7F808388E4809366
:100AF000B80085E48093BC000895CF93DF9391E024
:100B00009093D8028823B9F0C091B800D091BA0070
:100B10008091BC008A7B8093BC0060E082E10E94EF
:100B2000900360E083E10E9490030E945F05D093F0
:100B3000BA00C093B800DF91CF91089585ED8093FE
:100B4000BC008091630290916402A0916502B09113
:100B500066020796A11DB11D23E0B695A79597954E
:100B600087952A95D1F72091BC0024FF1CC04091A5
:100B70006302509164026091650270916602452B98
:100B8000462B472B81F30097A105B10541F02AE2DE
:100B90002A95F1F700C00197A109B109E4CF80912E
:100BA00062020C947D051092610208951F920F92CB
:100BB0000FB60F9211242F933F934F935F936F9330
:100BC0007F938F939F93AF93BF93EF93FF93809106
:100BD000B900887F803609F49CC068F5883209F432
:100BE0005BC090F4803109F454C038F4882309F4D0
:100BF000F6C0883009F44DC0F6C0883109F44CC005
:100C0000803209F45DC0EFC0803409F468C048F454
:100C1000803309F455C0883309F0E5C080935F0242
:100C2000D8C0803509F44FC0883509F45DC08834D8
:100C300009F0D9C0D6C0883909F4C7C0A8F48837EC
:100C400009F467C038F4883609F463C0803709F4C2
:100C500060C0C9C0883809F4B8C0803909F45FC0E1
:100C6000803809F0C0C05BC0803B09F486C038F40E
:100C7000803A09F466C0883A09F47FC0B4C0803C69
:100C800009F4A7C0883C09F4A4C0883B09F48AC0D1
:100C9000AAC080915C0210C090915E0280915D02BA
:100CA000981770F5E0915E0281E08E0F80935E02EE
:100CB000F0E0E55CFD4F80818093BB0085EC86C051
:100CC00080935F028EC0E0915E0281E08E0F809380
:100CD0005E028091BB00F0E0E55CFD4F8083909167
:100CE0005E0280915D026EC0E0915E0281E08E0F37
:100CF00080935E028091BB00F0E0E55CFD4F808355
:100D00008091600281116DC081E080935B0284EA72
:100D100061C083E08093610210921B03CFCF80916A
:100D20001B03803208F051C0E0911B0381E08E0F5D
:100D300080931B038091BB00F0E0E550FD4F808362
:100D4000BDCF85EC8093BC001092610280911B03A3
:100D5000803230F4E0911B03F0E0E550FD4F10824B
:100D600060911B0370E0E0913702F09138028BEF45
:100D700092E0099510921B0336C084E080936102D3
:100D80001092FA021092F902E0913902F0913A02BF
:100D900009958091F902811105C081E08093F902E3
:100DA0001092D902E091FA0281E08E0F8093FA024C
:100DB000F0E0E752FD4F80818093BB009091FA02F2
:100DC0008091F902981708F479CF85E88093BC00E8
:100DD0000AC085EC8093BC001092610204C010929E
:100DE0005F020E949E05FF91EF91BF91AF919F918D
:100DF0008F917F916F915F914F913F912F910F90C4
:100E00000FBE0F901F9018958F929F92AF92BF9236
:100E1000CF92DF92EF92FF920F931F93CF93DF93C6
:100E200010919704113208F0C2C0062FD091990496
:100E30000E94AA046B017C01C0916102CC2311F1D4
:100E40008091630290916402A0916502B091660264
:100E5000892B8A2B8B2B81F30E94AA04809063023A
:100E600090906402A0906502B0906602DC01CB0114
:100E70008C199D09AE09BF0988169906AA06BB06FA
:100E8000D8F681C082E080936102009360028FEF08
:100E900080935F0210925E0210935D02A8EBB2E0B5
:100EA000EBE3F2E080E0181721F09D9191938F5FC2
:100EB000FACF10925C0290915C028D2F880F892BE3
:100EC00080935C0280915B02813089F510925B0215
:100ED0000E94AA046B017C0180915C028093BB009C
:100EE0008091630290916402A0916502B0916602C4
:100EF000892B8A2B8B2BA9F00E94AA0400916302F4
:100F0000109164022091650230916602DC01CB01F0
:100F10008C199D09AE09BF09081719072A073B0755
:100F200090F18091BC0083FDD7CF85EC01C085EEA8
:100F30008093BC000E94AA046B017C018091610235
:100F4000823039F58091630290916402A09165022C
:100F5000B0916602892B8A2B8B2B81F30E94AA0405
:100F60000091630210916402209165023091660243
:100F7000DC01CB018C199D09AE09BF0908171907BF
:100F80002A073B07D8F6809162020E947D05C5E0E2
:100F900013C080915F028F3F79F080915F028032B1
:100FA00041F080915F02803331F0C4E005C0C1E0C0
:100FB00003C0C2E001C0C3E01092980410929704ED
:100FC00010929A048C2FDF91CF911F910F91FF9077
:100FD000EF90DF90CF90BF90AF909F908F9008954B
:100FE000AF92BF92CF92DF92EF92FF920F931F9337
:100FF000CF93DF93EC0188819981892B31F06EBD0D
:101000000DB407FEFDCFAEB496C088859985892BB7
:1010100011F010E801C011E0BB24B394862F8123A6
:1010200009F0B12C062F2C813D814E815F8160E259
:1010300071EA87E090E00E942B24F22EA02EE12C92
:10104000C22ED12CFF2019F0C6010E949F048A8570
:10105000877FB9F58D858F3FB9F0902F912381E07F
:1010600009F480E0B81681F0EF85F8898F8999231B
:1010700031F09081892B8083BB24B39405C090818B
:10108000809589238083B12CE989FA899081898DA3
:10109000892B8083FF2019F0C6010E949F048E8552
:1010A0008F3F39F0EB89FC899081888D892309F085
:1010B000E12AE989FA899081898D80958923808345
:1010C0002CC0E989FA899081898D892B8083FF2042
:1010D00019F0C6010E949F048D858F3F69F0EF854E
:1010E000F8898F89902F912319F09081892B03C063
:1010F0009081809589238083E989FA899081898DFF
:101100008095892380838E858F3F39F0EB89FC8918
:101110009081888D892309F0E12A8E858F3F09F01F
:10112000AE2C88859985892B21F4110F11118ACF56
:1011300002C01695FBCF8A2DDF91CF911F910F91A1
:10114000FF90EF90DF90CF90BF90AF900895FF9207
:101150000F931F93CF93DF93EC018A01F22E8981C5
:101160009A81DC01ED91FC910280F381E02D0995DB
:101170000817190739F46F2D89819A810E94040795
:1011800091E0811190E0892FDF91CF911F910F9114
:10119000FF900895CF93DF93EC018B8181111EC0E6
:1011A00010926802109267021092980410929704AD
:1011B0000E945F058BEF91E090933A028093390291
:1011C0008CEF91E0909338028093370281E08B831B
:1011D000CE010E94CA08982F882391F0888191E05F
:1011E00090939A0480939904109298041092970413
:1011F00061E089819A810E94040791E0811190E069
:10120000892FDF91CF9108951F920F920FB60F9201
:1012100011248F9381E0809336028F910F900FBE3F
:101220000F901F9018958FB7F8948091B7028FBFD9
:101230000895FC0183858F3F19F061E00C949003C1
:1012400008958EBD00000DB407FEFDCF8EB5089544
:101250008CBD9DBD0895CF93DF93EC01888199816A
:10126000892B31F0EA81FB81808191810E942809DC
:101270008B858F3F29F060E0DF91CF910C94900334
:10128000DF91CF9108958F929F92AF92BF92CF92AC
:10129000DF92EF92FF920F931F93CF93DF937C0126
:1012A0005B016A0149010E942B09E401080D191D27
:1012B000C017D10729F06991C7010E94F007F8CF44
:1012C000E501CA0CDB1CCC15DD0529F06991C701CD
:1012D0000E94F007F8CFC7010E94190981E0DF9151
:1012E000CF911F910F91FF90EF90DF90CF90BF9023
:1012F000AF909F908F9008958A309105A8F4FC01DB
:10130000EC5CFF4F0C94162586E008958FE4089559
:1013100086E608958DE608958DE7089587E008959F
:101320008FE708958FE6089508958FE308958BE57C
:1013300008950F931F93CF93DF930E9409050091A7
:101340009502109196022091970230919802DC014B
:10135000CB01801B910BA20BB30B853F9140A105E4
:10136000B10508F4C2C00E9409056093950270930C
:10137000960280939702909398022091B6028091F2
:10138000250390912603222309F444C01092B6024B
:101390008230910579F17CF4009739F1019709F0D9
:1013A000A4C080918D0290918E020E947C0920E061
:1013B00040E068E094C08330910509F044C080911A
:1013C0009102909192020E947C09D82F80918F0205
:1013D000909190020E947C09C82F80918D0290917B
:1013E0008E020E947C0928E078C020E040E060E0A6
:1013F00088E075C080918F02909190020E947C09D4
:10140000C82F80918D0290918E020E947C0920E06D
:1014100048E064C021E02093B60282309105C1F11A
:101420007CF4009781F1019709F05FC080918D02F3
:1014300090918E020E947C0920E040E060E04FC065
:1014400083309105A9F1049709F04FC08091930270
:10145000909194020E947C09182F809191029091A2
:1014600092020E947C09D82F80918F029091900265
:101470000E947C09C82F80918D0290918E020E945B
:101480007C09212F2AC020E040E060E080E027C0F6
:1014900080918F02909190020E947C09C82F8091C8
:1014A0008D0290918E020E947C0920E040E016C0DF
:1014B00080919102909192020E947C09D82F809194
:1014C0008F02909190020E947C09C82F80918D021A
:1014D00090918E020E947C0920E04D2F6C2FDF91AD
:1014E000CF911F910F910C941810DF91CF911F9104
:1014F0000F9108957F928F929F92AF92BF92CF9259
:10150000DF92EF92FF920F931F93CF93DF93EC0143
:1015100080E497E7ABE1B0E080931F019093200156
:10152000A0932101B09322016BEB71E0CE010E94E8
:101530009702882369F00E949F12109269040E940A
:10154000B2126BEB71E08BE091E00E940D26BAC203
:1015500069EC71E0CE010E949702882369F069EC82
:1015600071E08BE091E00E940D260E949F12109284
:1015700069040E94B212A6C269ED71E0CE010E9418
:101580009702882309F4FDC169ED71E08BE091E0D9
:101590000E940D260E949F1268EC70E080E090E0AF
:1015A0000E94CF0420E041E060E080E00E9418103B
:1015B00064E670E080E090E00E94CF044EE150E0ED
:1015C00060E070E084E690E00E942D1021E041E0B0
:1015D00060E080E00E94181064E670E080E090E037
:1015E0000E94CF044EE150E060E070E084E690E0BD
:1015F0000E942D1023E041E060E080E00E9418107E
:1016000064E670E080E090E00E94CF044EE150E09C
:1016100060E070E084E690E00E942D1027E041E059
:1016200060E080E00E94181064E670E080E090E0E6
:101630000E94CF044EE150E060E070E084E690E06C
:101640000E942D102FE041E060E080E00E94181021
:1016500064E670E080E090E00E94CF044EE150E04C
:1016600060E070E084E690E00E942D102FE049E0F9
:1016700060E080E00E94181064E670E080E090E096
:101680000E94CF044EE150E060E070E084E690E01C
:101690000E942D102FE049E068E080E00E941810C1
:1016A00064E670E080E090E00E94CF044EE150E0FC
:1016B00060E070E084E690E00E942D102FE049E0A9
:1016C00068E088E00E94181064E670E080E090E036
:1016D0000E94CF044EE150E060E070E084E690E0CC
:1016E0000E942D102FE049E068E088E10E94181068
:1016F00064E670E080E090E00E94CF044EE150E0AC
:1017000060E070E084E690E00E942D102FE049E058
:1017100068E088E30E94181064E670E080E090E0E2
:101720000E94CF044EE150E060E070E084E690E07B
:101730000E942D102FE049E068E089E30E94181014
:1017400064E670E080E090E00E94CF044EE150E05B
:1017500060E070E084E690E00E942D102FE049E008
:1017600069E089E30E94181064E670E080E090E090
:101770000E94CF044EE150E060E070E084E690E02B
:101780000E942D102FE048E069E089E30E941810C4
:1017900064E670E080E090E00E94CF044EE150E00B
:1017A00060E070E084E690E00E942D102EE048E0BA
:1017B00069E089E30E94181064E670E080E090E040
:1017C0000E94CF044EE150E060E070E084E690E0DB
:1017D0000E942D102CE048E069E089E30E94181077
:1017E00064E670E080E090E00E94CF044EE150E0BB
:1017F00060E070E084E690E00E942D1028E048E070
:1018000069E089E30E94181064E670E080E090E0EF
:101810000E94CF044EE150E060E070E084E690E08A
:101820000E942D1020E048E069E089E30E94181032
:1018300064E670E080E090E00E94CF044EE150E06A
:1018400060E070E084E690E00E942D1020E040E02F
:1018500069E089E30E94181064E670E080E090E09F
:101860000E94CF044EE150E060E070E084E690E03A
:101870000E942D1020E040E061E089E30E941810F2
:1018800064E670E080E090E00E94CF044EE150E01A
:1018900060E070E084E690E00E942D1020E040E0DF
:1018A00061E081E30E94181064E670E080E090E05F
:1018B0000E94CF044EE150E060E070E084E690E0EA
:1018C0000E942D1020E040E061E081E20E941810AB
:1018D00064E670E080E090E00E94CF044EE150E0CA
:1018E00060E070E084E690E00E942D1020E040E08F
:1018F00061E081E00E94181064E670E080E090E012
:101900000E94CF044EE150E060E070E084E690E099
:101910000E942D1020E040E061E080E00E9418105D
:1019200064E670E080E090E00E94CF044EE150E079
:1019300060E070E084E690E00E942D1020E040E03E
:1019400060E080E00E94181064E670E080E090E0C3
:101950000E94CF044EE150E060E070E084E690E049
:101960000E942D100E949F124EE150E060E070E056
:1019700080ED97E00E942D1010922603109225030F
:10198000A1C06DEE71E0CE010E949702882309F498
:101990007AC06DEE71E08BE091E00E940D2680E848
:1019A000809369040E94B21203E610E02AE0C22E7E
:1019B000D12C30ED832E37E0932EA12CB12CC80111
:1019C000B6010E9402257B010E947C09782EC70186
:1019D0000E947C092FE64FE6672D0E9418100E9496
:1019E0009220A50194010E94C223CB018C509E4FEE
:1019F00041E050E060E070E00E942D106AE070E08D
:101A000080E090E00E94CF0401501109C1F603E686
:101A100010E08AE0C82ED12C90ED892E97E0992E07
:101A2000A12CB12C80913C0190913D010817190720
:101A30000CF448C0C801B6010E9402257B010E9437
:101A40007C09782EC7010E947C09272D482F6FE35F
:101A50008FE30E9418100E949220A50194010E9419
:101A6000C223CB018C509E4F41E050E060E070E01B
:101A70000E942D106AE070E080E090E00E94CF04A8
:101A800001501109CFCF62E072E0CE010E949702AF
:101A90008823C1F062E072E08BE091E00E940D26A5
:101AA0000E9409056093210370932203809323030E
:101AB0009093240380913C0190913D0190938B047D
:101AC00080938A0467E072E0CE010E949702882327
:101AD00049F167E072E08BE091E00E940D2640E062
:101AE00050E0BA0180ED97E00E942D1068EE73E09F
:101AF00080E090E00E94CF048FE00E94BF030E942C
:101B00009F1210926904DF91CF911F910F91FF9066
:101B1000EF90DF90CF90BF90AF909F908F907F908D
:101B20000C94B212DF91CF911F910F91FF90EF9023
:101B3000DF90CF90BF90AF909F908F907F9008954F
:101B4000CF93DF93CCE6D4E0682F8B810E94900383
:101B50008A8D9B8DDF91CF910C949F0481E00C9432
:101B6000A00D0F931F9300917004109171042091A8
:101B700072043091730440E052E16AE770E090E053
:101B8000041715072607370740F47695679557958C
:101B900047959F5F9630A1F797E081E09827892FBE
:101BA000806A869591700E94280980E01F910F91AC
:101BB0000C94A00D0F931F93CF93DF9380917E041D
:101BC000882361F180918004811108C0C09175045F
:101BD000DC2FCE3108F0DDE1CD1B02C0C0E0DDE13D
:101BE0000E94B10D89EA0E9421098093740402E0E9
:101BF00011E0D15030F0F80181918F010E9421094C
:101C0000F8CFCC2329F080E00E942109C150F9CF00
:101C10000E94AE0D8091740480958170DF91CF9108
:101C20001F910F910895009769F0FC010190002029
:101C3000E9F73197AF01481B590BBC018EE293E0E5
:101C40000C949E0080E090E008958F929F92AF9256
:101C5000BF920F931F93CF93DF93CDB7DEB7A197BA
:101C60000FB6F894DEBF0FBECDBF19A2423008F404
:101C70004AE08E010F5D1F4F842E912CA12CB12CB8
:101C8000A50194010E942B24E62FB901CA0101503D
:101C90001109EA3014F4E05D01C0E95CD801EC936D
:101CA000232B242B252B61F7C8010E94130EA1962C
:101CB0000FB6F894DEBF0FBECDBFDF91CF911F915D
:101CC0000F91BF90AF909F908F900895CF92DF9229
:101CD000EF92FF92CF93DF936C01990FEE08FF080C
:101CE000F7FE13C06DE28EE293E00E943101EC0139
:101CF00066277727CB016C197D098E099F094AE079
:101D00000E94250EC80FD91F06C04AE0C701B601C0
:101D10000E94250EEC0185E991E00E94130E8C0FC4
:101D20009D1FDF91CF91FF90EF90DF90CF900895AE
:101D3000CF93C82F0E94B10D8C2F80620E94210981
:101D400080937404CF910C94AE0DCF93DF93D82F72
:101D5000C62F0E94B10D8D2F80620E9421098093B1
:101D600074048C2F0E942109DF91CF910C94AE0D49
:101D7000CF93C82F0E94B10D8C2F0E942109809310
:101D800074048FEF0E942109C82F0E94AE0D8C2F82
:101D9000CF910895FF920F931F93CF93DF93182F46
:101DA000F62ED72FC42F0E94B10D812F80620E9482
:101DB0002109809374040F2D1D2FCC2339F0F801D5
:101DC00081918F010E942109C150F7CFDF91CF91FE
:101DD0001F910F91FF900C94AE0D60917B0461FDFB
:101DE0000AC0626060937B0480E00E94A50E8BE1D4
:101DF0009EE40197F1F70895CF9386E00E94B80E14
:101E0000C82FC77D85E590E0A0E0B0E08093820414
:101E100090938304A0938404B09385046C2F86E090
:101E20000E94A50E86E00E94B80E91E0C81390E0D3
:101E3000892FCF910895CF93DF93C2E6D4E060E07D
:101E400088850E94900360E089850E94900361E08C
:101E500088850E94900361E08985DF91CF910C9481
:101E60009003CF93DF93C2E6D4E061E088850E94BF
:101E7000900361E089850E94900360E089850E945B
:101E8000900360E08885DF91CF910C9490030F93CD
:101E90001F93CF93DF93D82FC8E060E080916A044E
:101EA0000E949003D0FF02C061E001C060E0809119
:101EB0006B040E949003D59561E080916A040E94B2
:101EC0009003C15051F760E080916A040E94900332
:101ED00061E080916B040E94900361E080916A044C
:101EE0000E94900360E080916B040E944A0483EC9E
:101EF00090E00197F1F780916B040E9464038C01DC
:101F000081110AC061E080916B040E944A0460E084
:101F100080916B040E949003C3ECD0E0CE01019746
:101F2000F1F761E080916B040E944A042197F1F778
:101F3000C8019927DF91CF911F910F910895EF92DA
:101F4000FF920F931F93CF93DF9300D000D0CDB7B4
:101F5000DEB74091690462E674E0DC018E010F5F38
:101F60001F4F9801CD015D91FB015193BF01FC0111
:101F70009081940FF90191939F01F4E066367F07F9
:101F800089F70E94310F80E40E94470F0E941B0FC7
:101F90000E94310F809167040E94470F7E0185E007
:101FA000E80EF11CF80181918F010E94470F0E1578
:101FB0001F05C1F70E941B0F0E94310F809168041A
:101FC0000E94470F0F900F900F900F90DF91CF91CD
:101FD0001F910F91FF90EF900C941B0F0F931F9385
:101FE000CF93DF93182FC2E6D4E0E82FF0E0EE594C
:101FF000FB4F10820F810E94310F84E40E94470F33
:102000000E941B0F0E94310F812F806C0E94470F8E
:10201000802F0E94470F0E941B0F0E94310F8E815C
:102020000E94470FDF91CF911F910F910C941B0FCE
:10203000CF93DF9300D000D0CDB7DEB789836A831A
:102040004B832C83CE0101960E949F0F0F900F901F
:102050000F900F90DF91CF9108954F925F926F9202
:102060007F928F929F92AF92BF92CF92DF92EF9228
:10207000FF920F931F93CF93DF9300D000D01F9256
:10208000CDB7DEB78C012A013B01809123018F304F
:1020900021F08F3F09F03DC205C0E8EDF0E024914A
:1020A0002D8372C08FE080932301E8EDF0E08491EE
:1020B0008D838F3F09F42DC2813009F441C038F17E
:1020C000823009F061C01092B0001092B10080918E
:1020D000B00082608093B0008091B10081608093F5
:1020E000B100E3EDF0E0E491F0E0EE0FFF1FE65405
:1020F000FF4F859194919093290380932803E5EBFA
:10210000F0E0E491E093270322E02D83FDC114BCAD
:1021100015BC84B5826084BD85B5816085BDE3ED65
:10212000F0E0E491F0E0EE0FFF1FE654FF4F8591E1
:102130009491E5EBF0E0E491E0938D041D82E4C11D
:1021400010928000109281008091810088608093BD
:10215000810080918100816080938100E3EDF0E057
:10216000E491F0E0EE0FFF1FE654FF4F859194914C
:10217000E5EBF0E0E491E0938C0461E08FE00E94F5
:102180004A0491E09D838AC08D8187FDC2C161E0D0
:102190008FE00E944A048D818D7F09F07FC0480145
:1021A000A12CB12C60E072E18AE790E0A5019401D6
:1021B0000E94C22329833A834B835C8369017A019D
:1021C00091E0C91AD108E108F1082FEFC216D10435
:1021D000E104F10409F008F44EC060E472E48FE019
:1021E00090E0A50194010E94C22369017A0181E077
:1021F000C81AD108E108F1089D81923009F52FEF46
:10220000C216D104E104F10409F008F444C160E904
:1022100070ED83E090E0A50194010E94C223690162
:102220007A0181E0C81AD108E108F1089FEFC916C8
:10223000D104E104F10411F008F0BAC083E027C032
:102240002FEFC216D104E104F104B9F0B0F068E454
:1022500078EE81E090E0A50194010E94C22369011B
:102260007A0181E0C81AD108E108F1089D8199231B
:1022700009F413C1DCC081E001C082E09D819111AD
:1022800006C095B5987F892B85BD44C085E09091A7
:10229000B100987F892B8093B1003CC04801A12CEC
:1022A000B12C60E072E18AE790E0A50194010E9400
:1022B000C22369017A0181E0C81AD108E108F10856
:1022C000C114D10491E0E906F10488F068E478EEE5
:1022D00081E090E0A50194010E94C22369017A0186
:1022E00081E0C81AD108E108F10883E001C081E06B
:1022F0009D81913079F490918100987F892B809312
:102300008100411451046104710449F42FEF3FEF3F
:10231000A9012CC0411451046104710471F0D80169
:10232000AA0FBB1FA30192010E94E12328EE33E014
:1023300040E050E00E942B2403C02FEF3FEFA901A3
:102340008D81813099F0823019F18111E2C0C7BCD2
:1023500020939204309393044093940450939504F3
:1023600080916E00826080936E00D3C0D09289000D
:10237000C092880020938E0430938F044093900481
:102380005093910480916F00826080936F00C1C070
:10239000C092B30020932A0330932B0340932C0365
:1023A00050932D0380917000826080937000B1C0C3
:1023B00068E478EE81E090E0A50194010E94C223D8
:1023C00069017A0191E0C91AD108E108F1082FEFFB
:1023D000C216D104E104F10441F138F164E274EF72
:1023E00080E090E0A50194010E94C22369017A0176
:1023F00081E0C81AD108E108F1089FEFC916D1049D
:10240000E104F10409F008F441CF62E17AE780E0E9
:1024100090E0A50194010E94C22369017A0181E044
:10242000C81AD108E108F10819C084E030CF2FEFB5
:10243000C216D104E104F10409F008F463C062E1BA
:102440007AE780E090E0A50194010E94C22369012F
:102450007A0191E0C91AD108E108F1088FEFC81696
:10246000D104E104F104A9F0A0F089819A81AB8143
:10247000BC812AE0B595A795979587952A95D1F7C0
:102480006C017D0121E0C21AD108E108F10887E062
:10249000FECE86E0FCCE82E0FACE8FEFC816D104E5
:1024A000E104F10469F160F162E17AE780E090E033
:1024B000A50194010E94C22369017A0191E0C91A21
:1024C000D108E108F1082FEFC216D104E104F104AC
:1024D000A9F0A0F089819A81AB81BC813AE0B595E1
:1024E000A795979587953A95D1F76C017D0121E0E5
:1024F000C21AD108E108F10885E0C3CE84E0C1CE5C
:1025000083E0BFCE84E0BACE61E08FE00E944A044F
:1025100046CE0F900F900F900F900F90DF91CF91BC
:102520001F910F91FF90EF90DF90CF90BF90AF90F1
:102530009F908F907F906F905F904F90089580E074
:102540000E94EE0F81E00E94EE0F82E00E94EE0FEB
:1025500083E00E94EE0FE2E6F4E010821182128224
:102560001382089582E694E00C949F0F96E0899F71
:10257000D0011124AD51BC4F90967C936E935F9720
:1025800091E091969C93919790914F04E091500423
:10259000F0915104992339F0309751F0811108C01E
:1025A0008091FF0304C0309719F05C968C910994D8
:1025B00008950E94B10D80E50E9421098093740462
:1025C00083E70E9421090C94AE0DCF93CFB7F89406
:1025D00080919B04811127C0EEECF0E08491E0EB48
:1025E000F0E09491E82FF0E0EE0FFF1FE752FF4F6D
:1025F000A591B491EC91E92321F461E08AE00E9475
:10260000900361E08AE00E944A048CB580618CBD31
:102610008CB580648CBD61E08DE00E944A0461E06D
:102620008BE00E944A0480919B048F5F80939B04FF
:10263000CFBF80916E048F3F09F477C090916F04F3
:102640009F3F09F472C0891741F061E00E944A047B
:1026500061E080916F040E944A0480916E04909121
:102660006F04891719F060E00E94900381E00E94D6
:10267000A00D65E070E080E090E00E94CF046FE57F
:1026800084E00E94A50E0E94FC0E8DE10E94B80E0F
:10269000C82F0E94D9128DE10E94B80E91E0C81394
:1026A00090E090937C04811142C010927E0460E01F
:1026B0008CE10E94A50E109280046FE381E00E94DD
:1026C000A50E63E082E00E94A50E80E2809375046F
:1026D000C1E1609175048C2F0E94A50ECF5FC731B8
:1026E000C1F763E083E00E94A50E85E080937F043C
:1026F0006CE40E94A50E60E787E00E94A50E82EEC2
:102700000E94980E81EE0E94980E6CE080E00E947C
:10271000A50E80E00E94B80E80937B040E94ED0E0F
:1027200081E090917B049E3059F080E009C0C8138D
:1027300002C00E94D91260E08DE10E94A50EB5CFC3
:10274000CF91089583FD02C098E001C098E28770A0
:10275000982B88E10FB6F894A895809360000FBE7F
:102760009093600080916000806480936000A895E1
:1027700008958091640080FD08C080917A0080688F
:1027800080937A0080B78F7780BF1092D803089526
:102790000F931F93CF93DF93C82FD62F86E0C89F48
:1027A000F0011124ED51FC4F11A2878D90A18130D1
:1027B0009105D9F040F082309105A9F10397F1F528
:1027C00060E070E034C06623C9F161E070E08C2FF6
:1027D0000E94B6120E94090560933B0470933C046A
:1027E00080933D0490933E0429C00E940905009106
:1027F0003B0410913C0420913D0430913E04AB0118
:10280000BC01401B510B620B730B80914D049091E6
:102810004E04A0E0B0E084179507A607B70718F4A8
:1028200062E070E004C0D11109C063E070E08C2F59
:10283000DF91CF911F910F910C94B612DF91CF9140
:102840001F910F9108958F929F92AF92BF92CF9256
:10285000DF92EF92FF920F931F93CF93DF937C0150
:102860004B016A0159010E942B09E401C80CD91CD3
:10287000CC15DD0529F06991C7010E94F007F8CF5A
:10288000E5010A0D1B1DC017D10731F06FEFC7011D
:102890000E94F0078993F7CFC7010E94190981E0D0
:1028A000DF91CF911F910F91FF90EF90DF90CF902C
:1028B000BF90AF909F908F900895CF92DF92EF924C
:1028C000FF920F931F93CF93DF9300D0CDB7DEB766
:1028D000FC014787508B618B728B8285882311F0B6
:1028E000448701C04387452F562F672F77278823BA
:1028F00011F0438701C044877F018BE0E80EF11C93
:102900009681878199838A83C080D180C114D10444
:10291000B1F1018510E098012E5F3F4FD60114966A
:102920008D919C9115978217930710F480E052C007
:10293000F601808191E090939A048093990410921B
:102940009804109297040115110541F421E042E02A
:1029500050E0B701C6010E94A7083CC08181928166
:10296000DC01ED91FC910280F381E02DA801BE0114
:102970006F5F7F4F099508171907C1F6E7CFA2814E
:10298000B381109799F22481358101852330310577
:1029900039F48E7F89839A8310E00F5F1F4F11C037
:1029A0002115310511F49F770AC02230310511F449
:1029B000906805C02130310519F49F7790649983A0
:1029C00010E09E012F5F3F4F42E050E0B701CD0184
:1029D0000E9443090F900F90DF91CF911F910F91AB
:1029E000FF90EF90DF90CF900895CF93DF93CDB716
:1029F000DEB7E6970FB6F894DEBF0FBECDBF789472
:102A000084B5826084BD84B5816084BD85B58260F3
:102A100085BD85B5816085BD80916E0081608093A4
:102A20006E0010928100809181008260809381000D
:102A3000809181008160809381008091800081601D
:102A4000809380008091B10084608093B100809178
:102A5000B00081608093B00080917A0084608093A0
:102A60007A0080917A00826080937A0080917A0067
:102A7000816080937A0080917A00806880937A00E8
:102A80001092C100E0913E03F0913F0382E0808309
:102A9000E0913E03F0913F031082E0913A03F09100
:102AA0003B031082E0913C03F0913D0380E1808381
:102AB00010924603E0914203F091430386E0808345
:102AC000E0914003F0914103808180618083E09137
:102AD0004003F0914103808188608083E09140034E
:102AE000F0914103808180688083E0914003F09100
:102AF000410380818F7D808360E070E089E892E00F
:102B00000E940F210E949F1280E48093660480EC53
:102B1000809367048BE8809368040E94B21261E09E
:102B20008EE00E944A0461E08EE00E9490031092C1
:102B300036020E94AA046B017C0180E00E94A2136D
:102B4000809136028823E1F30FB6F894A89580911E
:102B50006000886180936000109260000FBE0E9448
:102B6000AA046C197D097093DD036093DC038091E6
:102B7000520490915304892BA9F486E090E00E94BE
:102B80007621FC018091550480838BEC93E0928345
:102B90008183138280E290E095838483F0935304D1
:102BA000E093520400915204109153041092680271
:102BB0001092670210929804109297040E945F0589
:102BC0008BEF91E090933A02809339028CEF91E081
:102BD0009093380280933702FF24F394D801139620
:102BE000FC92C8010E94CA08882309F45BC080E0F7
:102BF00090E1A0E0B0E08093560490935704A09336
:102C00005804B09359048AE090E0A0E0B0E08093CB
:102C10005A0490935B04A0935C04B0935D0480E03D
:102C200090E0A0E0B0E480935E0490935F04A093F2
:102C30006004B093610480915204909153041BA2EC
:102C40001CA21DA21EA29D8B8C8B1F8A1E8AFD8E2C
:102C5000A5E0B0E0BB8FAA8FFE8E12E01C8F40E093
:102C600050E160E070E0CE0144960E945D148091D6
:102C7000520490915304188A198A1A8A1B8A9A83DB
:102C800089831C821B82FA8618861F82FB8619871D
:102C90004FE959E360E070E0CE0101960E945D14B7
:102CA0008093540480E090E2A0E0B0E0809356046A
:102CB00090935704A0935804B093590484E190E092
:102CC000A0E0B0E080935A0490935B04A0935C046E
:102CD000B0935D0480E090E0A0E8BFE380935E04E1
:102CE00090935F04A0936004B093610480915204B8
:102CF000909153041BA21CA21DA21EA29D8B8C8B23
:102D00001F8A1E8A11E01D8FA5E0B0E0BB8FAA8F3D
:102D10001E8F02E00C8F40E050E260E070E0CE01D8
:102D200044960E945D148091520490915304188A35
:102D3000198A1A8A1B8A9A8389831C821B821A87A2
:102D400018861F821B8709874FE951E060E070E019
:102D5000CE0101960E945D14809354042090520489
:102D600030905304188A198A1A8A1B8A3A82298257
:102D70001C821B821A8782E090E098878F831B87D2
:102D800009870C8B1D8A2114310409F421C1F1013A
:102D900084819581892B09F41BC1808110939A0449
:102DA00080939904109298041092970420E041E0D7
:102DB00050E0BE016C5E7F4FC1010E94A708B82E93
:102DC000882309F405C1C12CD12CAA24A394D101D4
:102DD00014968D919C911597A2E0EA2EF12CEC1897
:102DE000FD088E159F0508F47C01F10190800E947A
:102DF000AA042B013C0110916102112339F1809149
:102E0000630290916402A0916502B0916602892BE1
:102E10008A2B8B2B81F30E94AA04009163021091EC
:102E200064022091650230916602DC01CB018419B5
:102E30009509A609B709081719072A073B07D8F605
:102E4000809162020E947D0510E09BC00E2D013230
:102E500008F000E2A092610221E082E090E08E1989
:102E60009F09C816D90608F420E020936002FFEFFE
:102E7000F0935F0210925E028FEF800F80935D02ED
:102E8000A0925C0280915C02990C982A90925C025C
:102E900080915B02813099F510925B020E94AA0436
:102EA0002B013C0180915C028093BB008091630206
:102EB00090916402A0916502B0916602892B8A2BE1
:102EC0008B2BA9F00E94AA04209163023091640226
:102ED0004091650250916602DC01CB01841995098D
:102EE000A609B709281739074A075B07A0F180919F
:102EF000BC0083FDD7CF25EC2093BC0003C035EE8A
:102F00003093BC000E94AA042B013C018091610215
:102F1000813031F58091630290916402A091650245
:102F2000B0916602892B8A2B8B2B81F30E94AA0415
:102F300020916302309164024091650250916602D3
:102F4000DC01CB0184199509A609B70928173907AF
:102F50004A075B07D8F6809162020E947D0511C086
:102F600080915E02801710F400915E02EBE3F2E0C4
:102F7000A9E6B2E010E0101721F081918D931F5F58
:102F8000FACF1092680210936702812F90E0E81642
:102F9000F906F1F401E010E00C0F1D1F0C0D1D1DD2
:102FA0004801C801881999098E159F0598F4D10127
:102FB00011968D919C911297DC01ED91FC91028408
:102FC000F385E02D0995F80183870F5F1F4FE9CF47
:102FD000B12C09C0CE0CDF1C22E0C216D10408F4CB
:102FE000F6CEB1102DC5B09254046DA97EA9E3E0D0
:102FF00076956795EA95E1F7660F771F660F771F5D
:10300000072E000C880B990B0E94A5222FE632E1B7
:1030100043E85AE30E9404236B017C014B015C01ED
:1030200060930701709308018093090190930A014E
:103030009B01AC010E94FD24882319F086E791E0F2
:103040001AC026013701E89477F82FEF3FEF4FE7DA
:103050005FE7C301B2010E94FD2481110FC02FEF71
:103060003FEF4FE75FE7C301B2010E949E221816AF
:103070002CF48AE791E00E94130E78C02FEF3FEF07
:103080004FE75FE4C701B6010E94F82418161CF44C
:103090008EE791E0F0CF2FEF3FEF4FE75FECC701F6
:1030A000B6010E949E2287FDF3CF20E030E0A90107
:1030B000C701B6010E949E2287FF0BC06DE28EE21F
:1030C00093E00E94310146015701B7FAB094B7F876
:1030D000B0942AE037ED43EA5BE3C501B4010E94F6
:1030E0005D244B015C010E94C9246B017C010E949C
:1030F000A3229B01AC01C501B4010E945C244B01D9
:103100005C014AE0C701B6010E94250E6EE28EE224
:1031100093E00E94310120E030E040E251E4C5013B
:10312000B4010E9404234B015C010E94C9246B017D
:10313000E12CF12C4AE0C701B6010E94250EC7011F
:10314000B6010E94A3229B01AC01C501B4010E94FB
:103150005C2420E030E040E251E40E9404230E941D
:10316000C92480E090E04AE00E94250E0E94E5120A
:103170000E94E51290E00E94660E64E685E00E94DF
:10318000A50E0E94FC0E86E00E94B80E682F6760B4
:1031900086E00E94A50E80917E04811115C08DE10C
:1031A0000E94B80E682F66608DE10E94A50E8CE12A
:1031B0000E94B80E682F63608CE10E94A50E81E02A
:1031C0008093800480937E0481E18FA38DED88A796
:1031D0008CEC89A78BEB8AA78AEA8BA71CA61DA675
:1031E0001EA6EDE7F0E0849140917F04BE01695D89
:1031F0007F4F0E94CA0E82E00E94B80EE3E8F0E022
:10320000E49161E070E001C0660FEA95EAF7682B8F
:1032100082E00E94A50E0E94ED0E60917B04616029
:1032200060937B0480E00E94A50E60E787E00E9427
:10323000A50E80916E0490916F04891719F061E0DA
:103240000E94900380917D04882341F040917F0487
:1032500066E774E08AE00E94CA0E14C082E00E9411
:10326000B80EE2E8F0E0E49121E030E001C0220F86
:10327000EA95EAF72095622F682382E00E94A50E66
:1032800010927D040E94DA0D64E670E080E090E028
:103290000E94CF0482E891E00E94130E85E991E03C
:1032A0000E94130E8FEF0E94980E8091740490E09C
:1032B000959587958770863008F4CFC319C00E9412
:1032C000AE0D60E487E00E94A50E69E972E0CE01D0
:1032D00001960E94BE0268E971E0CE0101960E944B
:1032E0009702182FCE0101960E94B6021111EAC36F
:1032F0006BE071E0CE0101960E94BE0269EC71E0C4
:10330000CE0101960E94970281112AC06BE071E004
:10331000CE0144960E94BE0267E072E0CE01449660
:103320000E949702811116C06BE071E0CE018F966A
:103330000E94BE026BEB71E0CE018F960E94970255
:10334000811125C585E10E94640311E0892B09F0F4
:103350001FC51DC510E0CE0144960E94B60201C0F3
:1033600010E0CE0101960E94B602112371F069ECC3
:1033700071E0CE0101960E94BE02CE0101960E942C
:103380007A0ACE0101960E94B6026BE071E0CE018E
:1033900001960E94BE0269EC71E0CE0101960E9486
:1033A0009702882331F085E10E948A0411E0892B7D
:1033B00009F010E0CE0101960E94B602112371F0CF
:1033C00069ED71E0CE0101960E94BE02CE01019628
:1033D0000E947A0ACE0101960E94B6026BE071E06B
:1033E000CE0101960E94BE0269ED71E0CE01019608
:1033F0000E949702182FCE0101960E94B602112357
:1034000009F4A3C10E94990981E080934F040E94AE
:10341000090500913F04109140042091410430912E
:103420004204AB01BC01401B510B620B730B80913A
:103430004B0490914C04A0E0B0E084179507A607D8
:10344000B70708F0EAC010E080914904181710F09F
:10345000912C42C0E0914504F0914604E10FF11D2A
:1034600062E080810E944A041F5FEECF082D10E0C9
:10347000E0914504F0914604E00FF11F80810E9425
:1034800064030C5F1F4F000F111FF801ED51FC4F3B
:10349000892B09F04DC0808191818A299B299183D4
:1034A0008083839480914904881600F3E091470457
:1034B000F0914804EE0DFF1D61E080810E949003B1
:1034C0008091470490914804FC01EE0DFF1D60E0DF
:1034D00080810E944A04939480914A04981668F56A
:1034E000E92CF12CE0914704F0914804EE0DFF1D0A
:1034F00061E080810E944A04E0914704F091480411
:10350000EE0DFF1D60E080810E94900381E090E05D
:10351000A0E0B0E0092C04C0880F991FAA1FBB1FB0
:103520000A94D2F75C016C01C094D094812CBACF7C
:10353000808191818C219D21B2CF33EEE32E33E047
:10354000F32E8FE194E0F701278D30A1232B31F486
:10355000148EAFEFBFEFB68FA58F11A236968E17E0
:103560009F0791F7D12C26E0B22E80914904D816FE
:1035700058F5C12C0D2D10E0000F111F05511C4FE7
:1035800020914A04C216F0F4F801408151810C2CBC
:1035900002C0569547950A94E2F7642F6170D29E57
:1035A000900111242C0D311DE3EEF3E080E0A58D98
:1035B000B68D2A173B0709F40CC48F5F36968A3004
:1035C000B1F7EBC3D394D1CF10E0D70191968C9192
:1035D000811111E0B6E0EB0EF11CEFE1EE16E4E034
:1035E000FE0699F70E94090560933F04709340041A
:1035F0008093410490934204112379F08091040454
:10360000882359F08091020490910304019729F4D2
:103610001091FF03111104C098C010924F0495C07F
:103620000E94922024EF31E040E050E00E94C2234B
:10363000CB018C509E4F42E350E060E070E00E946E
:103640002D10812F110F990BC097209125033091D8
:103650002603A9014F5F5F4F509326034093250334
:103660001092950210929602109297021092980270
:103670002130310599F03CF4232BD1F490938E0244
:1036800080938D0262C02230310569F0233031050C
:1036900079F490939402809393020EC090939002D9
:1036A00080938F0252C090939202809391024DC0FA
:1036B000443051050CF449C040918D0250918E0266
:1036C00088EE93E0489F9001499F300D589F300D40
:1036D000112440918F025091900264E6649FC001D2
:1036E000659F900D1124820F931F4091910250917C
:1036F00092026AE0649F9001659F300D1124820F51
:10370000931F2091930230919402820F931F209176
:103710000001309101018217930709F464C30E94EC
:10372000990940E050E0BA018AE090E00E942D1033
:1037300068EE73E080E090E00E94CF048FE00E948A
:10374000BF0310922603109225036BE071E0CE01B7
:1037500001960E94BE026DEE71E0CE0101960E94BC
:103760009702882331F084E10E948A0411E0892BBA
:1037700009F010E0CE0101960E94B602112371F00B
:1037800062E072E0CE0101960E94BE02CE01019677
:103790000E947A0ACE0101960E94B6026BE071E0A7
:1037A000CE0101960E94BE0262E072E0CE01019657
:1037B0000E949702182FCE0101960E94B602112393
:1037C00009F473C00E940905DC01CB01845F9140BC
:1037D000A109B10900912103109122032091230333
:1037E00030912403081719072A073B0728F480E8BB
:1037F000809369040E94B2120E940905DC01CB018A
:10380000885E9340A109B109009121031091220320
:103810002091230330912403081719072A073B0737
:1038200080F50E9409056093210370932203809321
:1038300023039093240344E650E060E070E080EDC1
:1038400097E00E942D1080918A0490918B0401973B
:1038500090938B0480938A046AE070E00E940225B2
:103860008B010E947C09F82EC8010E947C092F2D33
:10387000482F6FE38FE30E941810109269040E9492
:10388000B21280918A0490918B04892B71F467E0C5
:1038900072E0CE0101960E94BE02CE0101960E9406
:1038A0007A0ACE0101960E94B6020E940905009193
:1038B000B2021091B3022091B4023091B502DC0142
:1038C000CB01801B910BA20BB30B00911F01109138
:1038D00020012091210130912201081719072A07A0
:1038E0003B0708F0AAC00E9409056093B2027093DA
:1038F000B3028093B4029093B50280E69AEEA0E002
:10390000B0E080931F0190932001A0932101B09318
:10391000220160E08EE00E9490031092D703109283
:10392000E10381E08093D8038091DB038D7F41F038
:1039300080917A008F7780937A0080B7806880BF0B
:1039400088EDC82E86EDD82EE12CF12C8091DE0377
:103950009091DF03A0E0B0E08C159D05AE05BF059A
:1039600008F046C08091E2038A3010F40E94A2134E
:1039700083B7817F9091DB03892B83BF83B78160FD
:1039800083BF8091DA03811106C0F89485B7806601
:1039900085BF8F7D85BF789488950FB6F894A895DC
:1039A00080916000886180936000109260000FBE7B
:1039B000A89583B78E7F83BF8091DE039091DF034C
:1039C000C81AD90AE108F1089091E1038091E00357
:1039D000890F8D3730F0F1E0CF1AD108E108F108F6
:1039E0008D578093E1038091D703882309F4AECFEC
:1039F0008091D9038823D9F02FB7F8948091890258
:103A000090918A02A0918B02B0918C0288529942C7
:103A1000AF4FBF4F8C199D09AE09BF098093890232
:103A200090938A02A0938B02B0938C022FBF0E94C6
:103A3000B91361E08EE00E9490030E94A00197C834
:103A40002B858C859D85211103C09EAB8DABCBCA88
:103A5000382F292F3EAB2DABC6CA84E292E00E94DC
:103A6000130E85E991E00E94130E8091800481116C
:103A70000AC080917504E82E8A3110F069E1E62EC3
:103A8000F82EFE1803C0F12C59E1E52E0E94B10D6D
:103A900081E60E9421098093740409E912E0EA9406
:103AA0003FEFE31639F08FEF0E942109D8018D9383
:103AB0008D01F5CFFF2009F402CC8FEF0E94210980
:103AC000FA94F8CF83EA92E00E94130E81EA91E023
:103AD0000E94130E80910001909101010E94660ED8
:103AE00063EA72E0CE0101960E94BE0263EA71E0D1
:103AF000CE0101960E949702182FCE0101960E94D6
:103B0000B60211110E94DA0D63EA72E0CE0101964D
:103B10000E94BE026CEA71E0CE0101960E949702FB
:103B2000182FCE0101960E94B602112309F4F3C0AA
:103B30006DEA72E0CE0101960E94BE0265EB71E073
:103B4000CE0101960E949702182FCE0101960E9485
:103B5000B602112371F00E94DA0D80E497E7ABE121
:103B6000B0E080931F0190932001A0932101B093B6
:103B700022016DEA72E0CE0101960E94BE0268EB5E
:103B800071E0CE0101960E949702182FCE01019696
:103B90000E94B602112381F00E94DA0D6BEB71E0F6
:103BA000CE0101960E94BE02CE0101960E947A0AC1
:103BB000CE0101960E94B6026DEA72E0CE01019636
:103BC0000E94BE0266EC71E0CE0101960E9497024F
:103BD000182FCE0101960E94B602112381F00E9497
:103BE000DA0D69EC71E0CE0101960E94BE02CE01B1
:103BF00001960E947A0ACE0101960E94B6026DEAF1
:103C000072E0CE0101960E94BE0265ED71E0CE0128
:103C100001960E949702182FCE0101960E94B602CB
:103C2000112381F00E94DA0D69ED71E0CE01019659
:103C30000E94BE02CE0101960E947A0ACE01019630
:103C40000E94B6026DEA72E0CE0101960E94BE02A9
:103C500069EE71E0CE0101960E949702182FCE0105
:103C600001960E94B602112381F00E94DA0D6DEEDA
:103C700071E0CE0101960E94BE02CE0101960E9423
:103C80007A0ACE0101960E94B6026DEA72E0CE0178
:103C900001960E94BE026EEF71E0CE0101960E9475
:103CA0009702182FCE0101960E94B602112381F0CF
:103CB0000E94DA0D62E072E0CE0101960E94BE021F
:103CC000CE0101960E947A0ACE0101960E94B602A8
:103CD0006DEA72E0CE0101960E94BE026FEF71E0C4
:103CE000CE0101960E949702182FCE0101960E94E4
:103CF000B602112381F00E94DA0D67E072E0CE0176
:103D000001960E94BE02CE0101960E947A0ACE015F
:103D100001960E94B60263EA72E0CE0101960E940B
:103D2000BE0261E172E0CE0101960E949702182F57
:103D3000CE0101960E94B602112351F00E94DA0DC5
:103D40008DEA92E00E94E9209093010180930001A6
:103D500063EA72E0CE0101960E94BE026AE172E05F
:103D6000CE0101960E949702182FCE0101960E9463
:103D7000B602112309F4BCCA0E94DA0D8DEA92E062
:103D80000E94E92090933D0180933C01B1CA10E06C
:103D9000CE018F960E94B602DECA40FF1CC0E3EE41
:103DA000F3E080E090E0448D411117C0E0914304BE
:103DB000F0914404E20FF31F4081B89EF001B99ED8
:103DC000F00D1124ED51FC4F448F368F258F10A23A
:103DD000178E0E94C813C394D3CB019636968A30AF
:103DE000910509F7F8CF40E050E0BA0184EF91E087
:103DF0000E942D1064E670E080E090E00E94CF0405
:103E00008FE00E94BF0340E050E0BA0188EE93E0EB
:103E10000E942D1064E670E080E090E00E94CF04E4
:103E20008FE00E94BF036DEE71E0CE0101960E940B
:103E3000BE02CE0101960E947A0ACE0101960E942E
:103E4000B60283CC80915204909153040C940E22BC
:103E5000109231031092300388EE93E0A0E0B0E0BE
:103E60008093320390933303A0933403B0933503CC
:103E70002CE431E030932F0320932E0325EC30E027
:103E800030933B0320933A0324EC30E030933D031E
:103E900020933C0320EC30E030933F0320933E031B
:103EA00021EC30E0309341032093400322EC30E0DA
:103EB000309343032093420326EC30E030934503D4
:103EC0002093440310924703109248031092490331
:103ED00010924A031092CE031092CD038093CF0329
:103EE0009093D003A093D103B093D2038EE591E0D9
:103EF0009093CC038093CB03E7EDF3E08CE0DF01FC
:103F00001D928A95E9F71092D7031092D80381E0A9
:103F10008093D90392E09093DB0320E83EE3309353
:103F2000DD032093DC0320E830E03093DF032093AF
:103F3000DE0393E09093E20320913C0130913D0138
:103F400030938B0420938A0499E090936E049AE056
:103F500090936F0440E856E968E970E0409370047C
:103F600050937104609372047093730490E2909381
:103F7000750410927C0410927D0495E090937F0468
:103F80008093800485E090E0A0E0B0E08093860418
:103F900090938704A0938804B093890486E994E001
:103FA00090936D0480936C041092760481E1809369
:103FB0006A0480E180936B0461E081E10E944A041D
:103FC00061E080916B040E944A04109253041092A5
:103FD000520480E48093550410925A0410925B04BA
:103FE00010925C0410925D0410925E0410925F04C3
:103FF00010926004109261041092E5031092E9039C
:104000001092E8031092EA0380E791E09093E403B2
:104010008093E303E3EEF3E0148E10A2178E11A257
:104020003696B4E0EF31FB07B9F788E291E0909360
:1040300046048093450484E291E090934804809381
:10404000470484E08093490480934A048CE291E021
:1040500090934404809343048AE090E090934C044E
:1040600080934B0484EF91E090934E0480934D0431
:10407000109251041092500410923F041092400488
:10408000109241041092420410924F0408958F92AE
:104090009F92AF92BF92CF92DF92EF92FF92CF9317
:1040A000DF93EC01688179818A819B8161157105BB
:1040B0008105910521F464E279ED8BE597E02DE12E
:1040C00033EF41E050E00E94C22349015A019B01B5
:1040D000AC01A7EAB1E40E94E1236B017C01ACEEE4
:1040E000B4EFA50194010E94EF23DC01CB018C0DFC
:1040F0009D1DAE1DBF1DB7FF03C00197A109B048AC
:1041000088839983AA83BB83BC01CD019F77DF910C
:10411000CF91FF90EF90DF90CF90BF90AF909F90A6
:104120008F9008958F929F92AF92BF92CF92DF921D
:10413000EF92FF9260913E0170913F0180914001AA
:1041400090914101611571058105910521F464E2A9
:1041500079ED8BE597E02DE133EF41E050E00E94EF
:10416000C22349015A019B01AC01A7EAB1E40E94B4
:10417000E1236B017C01ACEEB4EFA50194010E9438
:10418000EF23DC01CB018C0D9D1DAE1DBF1DB7FFC4
:1041900003C00197A109B04880933E0190933F016D
:1041A000A0934001B0934101BC01CD019F77FF90E6
:1041B000EF90DF90CF90BF90AF909F908F90089539
:1041C00060933E0170933F018093400190934101C1
:1041D0000895FC0188279927E89421912032E9F37A
:1041E000293010F02E30C8F32B3241F02D3239F443
:1041F000689404C00E940721820F911D21912053D1
:104200002A30C0F31EF4909581959F4F08957AE06F
:10421000979F902D879F802D910D112408950F93C6
:104220001F93CF93DF93009731F46115710519F453
:1042300080E090E03AC08B01EC016EE070E081E03C
:1042400090E00E945A21FC01892B91F380E883833E
:104250000115110571F01387028781E8838380912E
:104260009C0490919D04892B21F4F0939D04E0938C
:104270009C042097C9F0D187C087838182608383A3
:1042800080919E0490919F04892B71F4F0939F0478
:10429000E0939E048091A0049091A104892B21F4C5
:1042A000F093A104E093A004CF01DF91CF911F917F
:1042B0000F9108950F931F93CF93DF93869F8001F3
:1042C000879F100D969F100D1124C8010E94762122
:1042D000EC01009729F0A80160E070E00E949722AD
:1042E000CE01DF91CF911F910F9108950F931F93EE
:1042F000CF93DF938230910510F482E090E0E0915B
:10430000A404F091A50420E030E0A0E0B0E03097F4
:1043100019F1408151810281138148175907C8F072
:104320008417950769F4109731F012960C93129741
:1043300013961C9327C00093A4041093A50422C0D5
:104340002115310519F04217530718F49A01BD01E0
:10435000EF01DF01F801DBCF21153105F9F0281B52
:10436000390B2430310580F48A819B8161157105F8
:1043700021F0FB019383828304C09093A504809372
:10438000A404FE01329644C0FE01E20FF31F8193A4
:10439000919322503109398328833AC02091A20495
:1043A0003091A304232B41F4209144013091450125
:1043B0003093A3042093A204209142013091430141
:1043C0002115310541F42DB73EB74091460150917A
:1043D0004701241B350BE091A204F091A304E217DE
:1043E000F307A0F42E1B3F0B2817390778F0AC0118
:1043F0004E5F5F4F2417350748F04E0F5F1F5093F5
:10440000A3044093A2048193919302C0E0E0F0E002
:10441000CF01DF91CF911F910F910895CF93DF933B
:10442000009709F481C0FC01329713821282A09197
:10443000A404B091A504109781F420813181820FEA
:10444000931F2091A2043091A3042817390751F536
:10445000F093A304E093A20467C0ED0120E030E0F4
:10446000CE17DF0740F44A815B819E01411551055B
:10447000F1F0EA01F5CFD383C28340815181840FEB
:10448000951FC817D90759F488819981840F951F02
:104490000296918380838A819B81938382832115F5
:1044A000310529F4F093A504E093A4043DC0E9018B
:1044B000FB83EA8349915991C40FD51FEC17FD077F
:1044C00061F480819181840F951F0296E90199839F
:1044D0008883828193819B838A83E0E0F0E0129657
:1044E0008D919C911397009719F0FD01DC01F7CF96
:1044F0008D919C9111979D012E5F3F4F820F931FCD
:104500002091A2043091A3042817390769F4309749
:1045100029F41092A5041092A40402C013821282FE
:10452000B093A304A093A204DF91CF910895DC017E
:1045300001C06D9341505040E0F708950E94E02281
:1045400008F481E00895E89409C097FB3EF4909543
:104550008095709561957F4F8F4F9F4F9923A9F05C
:10456000F92F96E9BB279395F695879577956795EB
:10457000B795F111F8CFFAF4BB0F11F460FF1BC02F
:104580006F5F7F4F8F4F9F4F16C0882311F096E9C2
:1045900011C0772321F09EE8872F762F05C0662370
:1045A00071F096E8862F70E060E02AF09A95660F29
:1045B000771F881FDAF7880F9695879597F90895E2
:1045C000990F0008550FAA0BE0E8FEEF1616170624
:1045D000E807F907C0F012161306E407F50798F08C
:1045E000621B730B840B950B39F40A2661F0232BA5
:1045F000242B252B21F408950A2609F4A140A69521
:104600008FEF811D811D08950E9417230C9488232C
:104610000E947A2338F00E94812320F0952311F024
:104620000C9471230C94772311240C94BC230E94C6
:10463000992370F3959FC1F3950F50E0551F629F2A
:10464000F001729FBB27F00DB11D639FAA27F00DEB
:10465000B11DAA1F649F6627B00DA11D661F829F12
:104660002227B00DA11D621F739FB00DA11D621FF7
:10467000839FA00D611D221F749F3327A00D611D14
:10468000231F849F600D211D822F762F6A2F1124F6
:104690009F5750409AF0F1F088234AF0EE0FFF1F29
:1046A000BB1F661F771F881F91505040A9F79E3F80
:1046B000510580F00C9471230C94BC235F3FE4F30C
:1046C000983ED4F3869577956795B795F795E795D6
:1046D0009F5FC1F7FE2B880F911D9695879597F9DF
:1046E000089597F99F6780E870E060E008959FEF74
:1046F00080EC089500240A94161617061806090679
:10470000089500240A941216130614060506089547
:10471000092E0394000C11F4882352F0BB0F40F4CF
:10472000BF2B11F460FF04C06F5F7F4F8F4F9F4F0F
:10473000089557FD9058440F551F59F05F3F71F091
:104740004795880F97FB991F61F09F3F79F08795F8
:104750000895121613061406551FF2CF4695F1DF81
:1047600008C0161617061806991FF1CF8695710511
:10477000610508940895E894BB2766277727CB0145
:1047800097F90895052E97FB1EF400940E94D923F3
:1047900057FD07D00E942B2407FC03D04EF40C9445
:1047A000D92350954095309521953F4F4F4F5F4FFE
:1047B000089590958095709561957F4F8F4F9F4F8D
:1047C00008950E944D24A59F900DB49F900DA49F25
:1047D000800D911D11240895B7FF0C94E1230E94D0
:1047E000E123821B930B08952F923F924F925F9289
:1047F0006F927F928F929F92AF92BF92CF92DF92F1
:10480000EF92FF920F931F93CF93DF93CDB7DEB755
:10481000CA1BDB0B0FB6F894DEBF0FBECDBF0994E9
:104820002A88398848885F846E847D848C849B8440
:10483000AA84B984C884DF80EE80FD800C811B814E
:10484000AA81B981CE0FD11D0FB6F894DEBF0FBE7D
:10485000CDBFED010895A1E21A2EAA1BBB1BFD01DD
:104860000DC0AA1FBB1FEE1FFF1FA217B307E4074F
:10487000F50720F0A21BB30BE40BF50B661F771FA7
:10488000881F991F1A9469F7609570958095909587
:104890009B01AC01BD01CF010895A29FB001B39F60
:1048A000C001A39F700D811D1124911DB29F700D39
:1048B000811D1124911D08955058BB27AA270E94DD
:1048C00074240C9488230E947A2338F00E94812358
:1048D00020F039F49F3F19F426F40C9477230EF45A
:1048E000E095E7FB0C947123E92F0E94992358F37C
:1048F000BA17620773078407950720F079F4A6F5C5
:104900000C94BB230EF4E0950B2EBA2FA02D0B01B7
:10491000B90190010C01CA01A0011124FF27591B04
:1049200099F0593F50F4503E68F11A16F040A22F0A
:10493000232F342F4427585FF3CF4695379527957B
:10494000A795F0405395C9F77EF41F16BA0B620B7A
:10495000730B840BBAF09150A1F0FF0FBB1F661FC1
:10496000771F881FC2F70EC0BA0F621F731F841F04
:1049700048F4879577956795B795F7959E3F08F02A
:10498000B0CF9395880F08F09927EE0F97958795EC
:1049900008950E94A12388F09F5798F0B92F992776
:1049A000B751B0F0E1F0660F771F881F991F1AF01A
:1049B000BA95C9F714C0B13091F00E94BB23B1E0A1
:1049C00008950C94BB23672F782F8827B85F39F0A0
:1049D000B93FCCF3869577956795B395D9F73EF4B3
:1049E00090958095709561957F4F8F4F9F4F08955B
:1049F0000E94E02208F48FEF08950E94E022880BC5
:104A0000990B089597FB072E16F4009407D077FDB5
:104A100009D00E941C2507FC05D03EF49095819595
:104A20009F4F0895709561957F4F0895EE0FFF1F7A
:104A30000590F491E02D0994AA1BBB1B51E107C01E
:104A4000AA1FBB1FA617B70710F0A61BB70B881F1E
:104A5000991F5A95A9F780959095BC01CD010895AD
:104A6000A0E0B0E0E6E3F5E20C94F823EC01009757
:104A700021F4CB010E947621B4C0FC01E60FF71FA0
:104A80009C0122503109E217F30708F4A8C0D901AC
:104A90000D911C91119706171707B0F005301105FD
:104AA00008F49BC0C80104978617970708F495C0BF
:104AB00002501109061B170B019311936D937C9300
:104AC000CF010E940E2289C05B01A01AB10A4C01DD
:104AD000800E911EA091A404B091A504612C712CAC
:104AE000E12CF12C109709F446C08D919C911197FF
:104AF000A815B905B1F56C0142E0C40ED11CCA1469
:104B0000DB0478F14C018A189B08640142E0C40E72
:104B1000D11C1296BC9012971396AC91B5E0CB16AF
:104B2000D10440F0B282A38391828082D9016D9337
:104B30007C9309C00E5F1F4F800F911FF901918375
:104B40008083EB2DFA2FE114F10431F0D701139695
:104B5000FC93EE93129741C0F093A504E093A40454
:104B60003CC06816790608F43C017D0112960D9050
:104B7000BC91A02DB7CF8091A2049091A304881678
:104B80009906E1F466167706C8F480914201909187
:104B90004301009741F48DB79EB740914601509173
:104BA0004701841B950BE817F907C8F4F093A30499
:104BB000E093A204F901718360830FC0CB010E94CE
:104BC00076217C01009759F0A801BE010E94FB25C7
:104BD000CE010E940E22C70104C0CE0102C080E0B7
:104BE00090E0CDB7DEB7EEE00C94142481E090E0C5
:104BF000F8940C941426FB01DC0102C001900D9284
:104C000041505040D8F70895FB01DC018D9101908F
:104C100080190110D9F3990B0895FB01DC01019073
:104C20000D920020E1F7089510E0C3E7D0E004C042
:104C3000FE010E9416252196C437D107C9F7F894C2
:024C4000FFCFA4
:104C4200D204426F6D62610000000044696E616DC2
:104C52006F5F4F6666000000000000000000006009
:104C6200EA0000FF05040302060708093134372A67
:104C7200323538303336392341424344140001007F
:104C820000000000A60420000000000031019E0088
:104C9200C8007E01F900D700EB00000000005602B8
:104CA20029028602FD0121020D02FE010000000020
:104CB200860446048D036E616E00696E66006F762F
:104CC200660044454255473A20524144494F5F43AA
:104CD2004845434B000D0A00546F5F426F6D62619D
:104CE2000020004765745F496E666F005365745F0C
:104CF2005374617400575500444F0044696E616DEE
:104D02006F5F4F66660057470057686169745F4777
:104D120061796B610057434500576169745F436F66
:104D220064655F456E74657200575453005761693C
:104D3200745F54696D65725F537461727400575485
:104D42004500576169745F54696D65725F456E64B1
:104D5200005365745F50617373005365745F5469E7
:104D62006D65720044454255473A204745545F52AB
:064D72004144494F00001E
:00000001FF
