:100000000C9435000C945D000C945D000C945D0024
:100010000C945D000C945D000C945D000C945D00EC
:100020000C945D000C945D000C945D000C945D00DC
:100030000C945D000C945D000C945D000C945D00CC
:100040000C94EE010C945D000C94BC010C94960190
:100050000C945D000C945D000C945D000C945D00AC
:100060000C945D000C945D00EF0211241FBECFEFD5
:10007000D8E0DEBFCDBF11E0A0E0B1E0E2E5F6E000
:1000800002C005900D92A632B107D9F721E0A6E291
:10009000B1E001C01D92AC3CB207E1F710E0C5E34E
:1000A000D0E004C02197FE010E941C03C433D10795
:1000B000C9F70E9438020C9427030C940000CF92D9
:1000C000DF92EF92FF920F931F93CF93DF936C0118
:1000D0007A018B01C0E0D0E0CE15DF0581F0D801B8
:1000E0006D918D01D601ED91FC910190F081E02D93
:1000F000C6010995892B11F02196EECF7E01C7012B
:10010000DF91CF911F910F91FF90EF90DF90CF90F3
:100110000895089580E090E00895FC01538D448D8A
:10012000252F30E0842F90E0821B930B541710F0A2
:10013000CF96089501970895FC01918D828D9817AF
:1001400061F0828DDF01A80FB11D5D968C91928DBB
:100150009F5F9F73928F90E008958FEF9FEF0895B8
:10016000FC01918D828D981731F0828DE80FF11D81
:10017000858D90E008958FEF9FEF0895FC01918D9C
:10018000228D892F90E0805C9F4F821B91098F7395
:10019000992708958FE291E00E94BE0021E0892B0B
:1001A00009F420E0822F0895FC01848DDF01A80F5F
:1001B000B11DA35ABF4F2C91848D90E001968F738F
:1001C0009927848FA689B7892C93A089B1898C91AE
:1001D000837080648C93938D848D981306C00288FD
:1001E000F389E02D80818F7D80830895EF92FF92C7
:1001F0000F931F93CF93DF93EC0181E0888F9B8D4A
:100200008C8D981305C0E889F989808185FD26C009
:10021000F62E0B8D10E00F5F1F4F0F731127E02E8E
:100220008C8DE8120CC00FB607FCFACFE889F9896B
:10023000808185FFF5CFCE010E94D400F1CF8B8D58
:10024000FE01E80FF11DE35AFF4FF0829FB7F894CB
:100250000B8FEA89FB89808180620AC09FB7F8947E
:10026000EE89FF896083E889F989808183708064E1
:1002700080839FBF81E090E0DF91CF911F910F912C
:10028000FF90EF900895CF93DF93EC01888D882342
:10029000C9F0EA89FB89808185FD05C0A889B989F3
:1002A0008C9186FD0FC00FB607FCF5CF808185FFCE
:1002B000F2CFA889B9898C9185FFEDCFCE010E943C
:1002C000D400E7CFDF91CF91089580E090E0892BB3
:1002D00029F00E94CA0081110C94000008953FB7D4
:1002E000F89480912B0190912C01A0912D01B09157
:1002F0002E0126B5A89B05C02F3F19F00196A11D20
:10030000B11D3FBFBA2FA92F982F8827820F911DAB
:10031000A11DB11DBC01CD0142E0660F771F881FF2
:10032000991F4A95D1F708950E9422031F920F92B8
:100330000FB60F9211242F933F934F935F936F93B8
:100340007F938F939F93AF93BF93EF93FF938FE22E
:1003500091E00E94D400FF91EF91BF91AF919F91E6
:100360008F917F916F915F914F913F912F910F905E
:100370000FBE0F901F9018951F920F920FB60F92FD
:1003800011242F938F939F93EF93FF93E0913F015D
:10039000F09140018081E0914501F091460182FD9C
:1003A00012C09081809148018F5F8F732091490125
:1003B000821751F0E0914801F0E0E15DFE4F958F2A
:1003C0008093480101C08081FF91EF919F918F91AF
:1003D0002F910F900FBE0F901F9018951F920F92A4
:1003E0000FB60F9211242F933F938F939F93AF9348
:1003F000BF938091270190912801A0912901B0918C
:100400002A013091260123E0230F2D3720F4019695
:10041000A11DB11D05C026E8230F0296A11DB11D27
:10042000209326018093270190932801A09329010E
:10043000B0932A0180912B0190912C01A0912D0164
:10044000B0912E010196A11DB11D80932B019093B7
:100450002C01A0932D01B0932E01BF91AF919F91DC
:100460008F913F912F910F900FBE0F901F90189575
:10047000789484B5826084BD84B5816084BD85B57F
:10048000826085BD85B5816085BD80916E0081608B
:1004900080936E0010928100809181008260809331
:1004A0008100809181008160809381008091800033
:1004B0008160809380008091B10084608093B1005E
:1004C0008091B00081608093B00080917A00846058
:1004D00080937A0080917A00826080937A00809184
:1004E0007A00816080937A0080917A00806880939E
:1004F0007A001092C100E0913F01F091400182E04A
:100500008083E0913F01F09140011082E0913B0136
:10051000F0913C011082E0913D01F0913E0180E1BB
:10052000808310924701E0914301F091440186E0FD
:100530008083E0914101F09142018081806180835C
:10054000E0914101F0914201808188608083E091D7
:100550004101F0914201808180688083E0914101F6
:10056000F091420180818F7D808340E150E062E123
:1005700071E08FE291E00E945F0042E050E063E2B0
:1005800071E08FE291E00E945F000E946F014B01D9
:100590005C0184EFC82EDD24D394E12CF12C0E9461
:1005A0006F01DC01CB0188199909AA09BB09883EB2
:1005B0009340A105B10598F321E0C21AD108E108E2
:1005C000F10888EE880E83E0981EA11CB11CC114AE
:1005D000D104E104F10419F70E946501C6CFEFE2EE
:1005E000F1E01382128288EE93E0A0E0B0E0848311
:1005F0009583A683B78384E091E09183808385EC23
:1006000090E09587848784EC90E09787868780ECDC
:1006100090E0918B808B81EC90E0938B828B82ECCD
:1006200090E0958B848B86EC90E0978B868B118E77
:10063000128E138E148E0895EE0FFF1F0590F49105
:10064000E02D099481E090E0F8940C942703F8944D
:02065000FFCFDA
:1006520000000000F6005F008D004301BE009C0018
:10066200B00048656C6C6F2066726F6D20626F6DB2
:060672006261000D0A00A8
:00000001FF
